{
  "_format": "hh-sol-artifact-1",
  "contractName": "MelodyRNN",
  "sourceName": "contracts/MelodyRNN.sol",
  "abi": [
    {
      "inputs": [
        {
          "internalType": "string",
          "name": "_modelName",
          "type": "string"
        },
        {
          "internalType": "address",
          "name": "_modelRegistry",
          "type": "address"
        }
      ],
      "stateMutability": "nonpayable",
      "type": "constructor"
    },
    {
      "inputs": [],
      "name": "IncorrectModelId",
      "type": "error"
    },
    {
      "inputs": [],
      "name": "InvalidActivationFunction",
      "type": "error"
    },
    {
      "inputs": [],
      "name": "InvalidMatrixDimensions",
      "type": "error"
    },
    {
      "inputs": [],
      "name": "NotModelRegistry",
      "type": "error"
    },
    {
      "inputs": [],
      "name": "NotTokenOwner",
      "type": "error"
    },
    {
      "inputs": [
        {
          "internalType": "uint256",
          "name": "x",
          "type": "uint256"
        },
        {
          "internalType": "uint256",
          "name": "y",
          "type": "uint256"
        },
        {
          "internalType": "uint256",
          "name": "denominator",
          "type": "uint256"
        }
      ],
      "name": "PRBMath_MulDiv_Overflow",
      "type": "error"
    },
    {
      "inputs": [],
      "name": "PRBMath_SD59x18_Div_InputTooSmall",
      "type": "error"
    },
    {
      "inputs": [
        {
          "internalType": "SD59x18",
          "name": "x",
          "type": "int256"
        },
        {
          "internalType": "SD59x18",
          "name": "y",
          "type": "int256"
        }
      ],
      "name": "PRBMath_SD59x18_Div_Overflow",
      "type": "error"
    },
    {
      "inputs": [
        {
          "internalType": "SD59x18",
          "name": "x",
          "type": "int256"
        }
      ],
      "name": "PRBMath_SD59x18_Exp2_InputTooBig",
      "type": "error"
    },
    {
      "inputs": [
        {
          "internalType": "SD59x18",
          "name": "x",
          "type": "int256"
        }
      ],
      "name": "PRBMath_SD59x18_Exp_InputTooBig",
      "type": "error"
    },
    {
      "inputs": [],
      "name": "TooMuchData",
      "type": "error"
    },
    {
      "anonymous": false,
      "inputs": [
        {
          "indexed": true,
          "internalType": "address",
          "name": "owner",
          "type": "address"
        },
        {
          "indexed": true,
          "internalType": "uint256",
          "name": "tokenId",
          "type": "uint256"
        }
      ],
      "name": "Deployed",
      "type": "event"
    },
    {
      "anonymous": false,
      "inputs": [
        {
          "indexed": true,
          "internalType": "uint256",
          "name": "tokenId",
          "type": "uint256"
        },
        {
          "indexed": false,
          "internalType": "uint256",
          "name": "fromLayerIndex",
          "type": "uint256"
        },
        {
          "indexed": false,
          "internalType": "uint256",
          "name": "toLayerIndex",
          "type": "uint256"
        },
        {
          "indexed": false,
          "internalType": "Float32x32[][][]",
          "name": "outputs1",
          "type": "int64[][][]"
        },
        {
          "indexed": false,
          "internalType": "Float32x32[]",
          "name": "outputs2",
          "type": "int64[]"
        }
      ],
      "name": "Forwarded",
      "type": "event"
    },
    {
      "anonymous": false,
      "inputs": [
        {
          "indexed": true,
          "internalType": "uint256",
          "name": "tokenId",
          "type": "uint256"
        },
        {
          "indexed": false,
          "internalType": "Float32x32[]",
          "name": "melody",
          "type": "int64[]"
        }
      ],
      "name": "NewMelody",
      "type": "event"
    },
    {
      "anonymous": false,
      "inputs": [
        {
          "indexed": true,
          "internalType": "address",
          "name": "previousOwner",
          "type": "address"
        },
        {
          "indexed": true,
          "internalType": "address",
          "name": "newOwner",
          "type": "address"
        }
      ],
      "name": "OwnershipTransferred",
      "type": "event"
    },
    {
      "inputs": [
        {
          "internalType": "Float32x32[]",
          "name": "weights",
          "type": "int64[]"
        },
        {
          "internalType": "uint256",
          "name": "layerInd",
          "type": "uint256"
        },
        {
          "internalType": "enum IOnchainModel.LayerType",
          "name": "layerType",
          "type": "uint8"
        }
      ],
      "name": "appendWeights",
      "outputs": [],
      "stateMutability": "nonpayable",
      "type": "function"
    },
    {
      "inputs": [
        {
          "internalType": "uint256",
          "name": "_modelId",
          "type": "uint256"
        },
        {
          "internalType": "uint256",
          "name": "noteCount",
          "type": "uint256"
        },
        {
          "internalType": "Float32x32[]",
          "name": "x",
          "type": "int64[]"
        }
      ],
      "name": "generateMelody",
      "outputs": [],
      "stateMutability": "nonpayable",
      "type": "function"
    },
    {
      "inputs": [
        {
          "internalType": "uint256",
          "name": "layerIdx",
          "type": "uint256"
        }
      ],
      "name": "getDenseLayer",
      "outputs": [
        {
          "internalType": "uint256",
          "name": "dim_in",
          "type": "uint256"
        },
        {
          "internalType": "uint256",
          "name": "dim_out",
          "type": "uint256"
        },
        {
          "internalType": "Float32x32[][]",
          "name": "w",
          "type": "int64[][]"
        },
        {
          "internalType": "Float32x32[]",
          "name": "b",
          "type": "int64[]"
        }
      ],
      "stateMutability": "view",
      "type": "function"
    },
    {
      "inputs": [],
      "name": "getInfo",
      "outputs": [
        {
          "internalType": "uint256[3]",
          "name": "",
          "type": "uint256[3]"
        },
        {
          "internalType": "string",
          "name": "",
          "type": "string"
        },
        {
          "components": [
            {
              "internalType": "enum IOnchainModel.LayerType",
              "name": "layerType",
              "type": "uint8"
            },
            {
              "internalType": "uint256",
              "name": "layerIndex",
              "type": "uint256"
            }
          ],
          "internalType": "struct IOnchainModel.Info[]",
          "name": "",
          "type": "tuple[]"
        }
      ],
      "stateMutability": "view",
      "type": "function"
    },
    {
      "inputs": [
        {
          "internalType": "uint256",
          "name": "layerIdx",
          "type": "uint256"
        }
      ],
      "name": "getLSTMLayer",
      "outputs": [
        {
          "internalType": "uint256",
          "name": "",
          "type": "uint256"
        },
        {
          "internalType": "uint256",
          "name": "",
          "type": "uint256"
        },
        {
          "internalType": "Float32x32[][]",
          "name": "",
          "type": "int64[][]"
        },
        {
          "internalType": "Float32x32[][]",
          "name": "",
          "type": "int64[][]"
        },
        {
          "internalType": "Float32x32[]",
          "name": "",
          "type": "int64[]"
        }
      ],
      "stateMutability": "view",
      "type": "function"
    },
    {
      "inputs": [],
      "name": "getVocabs",
      "outputs": [
        {
          "internalType": "uint256[]",
          "name": "",
          "type": "uint256[]"
        }
      ],
      "stateMutability": "view",
      "type": "function"
    },
    {
      "inputs": [],
      "name": "model",
      "outputs": [
        {
          "internalType": "string",
          "name": "modelName",
          "type": "string"
        },
        {
          "internalType": "uint256",
          "name": "numLayers",
          "type": "uint256"
        },
        {
          "internalType": "uint256",
          "name": "requiredWeights",
          "type": "uint256"
        },
        {
          "internalType": "uint256",
          "name": "appendedWeights",
          "type": "uint256"
        }
      ],
      "stateMutability": "view",
      "type": "function"
    },
    {
      "inputs": [],
      "name": "modelId",
      "outputs": [
        {
          "internalType": "uint256",
          "name": "",
          "type": "uint256"
        }
      ],
      "stateMutability": "view",
      "type": "function"
    },
    {
      "inputs": [],
      "name": "modelRegistry",
      "outputs": [
        {
          "internalType": "contract IModelRegPublic",
          "name": "",
          "type": "address"
        }
      ],
      "stateMutability": "view",
      "type": "function"
    },
    {
      "inputs": [],
      "name": "owner",
      "outputs": [
        {
          "internalType": "address",
          "name": "",
          "type": "address"
        }
      ],
      "stateMutability": "view",
      "type": "function"
    },
    {
      "inputs": [],
      "name": "renounceOwnership",
      "outputs": [],
      "stateMutability": "nonpayable",
      "type": "function"
    },
    {
      "inputs": [
        {
          "internalType": "bytes[]",
          "name": "layers_config",
          "type": "bytes[]"
        }
      ],
      "name": "setModel",
      "outputs": [],
      "stateMutability": "nonpayable",
      "type": "function"
    },
    {
      "inputs": [
        {
          "internalType": "uint256",
          "name": "_modelId",
          "type": "uint256"
        }
      ],
      "name": "setModelId",
      "outputs": [],
      "stateMutability": "nonpayable",
      "type": "function"
    },
    {
      "inputs": [
        {
          "internalType": "uint256[]",
          "name": "vocabs",
          "type": "uint256[]"
        }
      ],
      "name": "setVocabs",
      "outputs": [],
      "stateMutability": "nonpayable",
      "type": "function"
    },
    {
      "inputs": [
        {
          "internalType": "address",
          "name": "newOwner",
          "type": "address"
        }
      ],
      "name": "transferOwnership",
      "outputs": [],
      "stateMutability": "nonpayable",
      "type": "function"
    },
    {
      "inputs": [],
      "name": "vocabInfo",
      "outputs": [
        {
          "internalType": "bool",
          "name": "hasVocab",
          "type": "bool"
        }
      ],
      "stateMutability": "view",
      "type": "function"
    }
  ],
  "bytecode": "0x60806040523480156200001157600080fd5b5060405162008934380380620089348339810160408190526200003491620000fd565b6200003f336200007a565b60046200004d838262000274565b50600e80546001600160a01b0319166001600160a01b039290921691909117905550600160105562000340565b600080546001600160a01b038381166001600160a01b0319831681178455604051919092169283917f8be0079c531659141344cd1fd0a4f28419497f9722a3daafe3b4186f6b6457e09190a35050565b634e487b7160e01b600052604160045260246000fd5b80516001600160a01b0381168114620000f857600080fd5b919050565b600080604083850312156200011157600080fd5b82516001600160401b03808211156200012957600080fd5b818501915085601f8301126200013e57600080fd5b815181811115620001535762000153620000ca565b604051601f8201601f19908116603f011681019083821181831017156200017e576200017e620000ca565b816040528281526020935088848487010111156200019b57600080fd5b600091505b82821015620001bf5784820184015181830185015290830190620001a0565b6000848483010152809650505050620001da818601620000e0565b925050509250929050565b600181811c90821680620001fa57607f821691505b6020821081036200021b57634e487b7160e01b600052602260045260246000fd5b50919050565b601f8211156200026f57600081815260208120601f850160051c810160208610156200024a5750805b601f850160051c820191505b818110156200026b5782815560010162000256565b5050505b505050565b81516001600160401b03811115620002905762000290620000ca565b620002a881620002a18454620001e5565b8462000221565b602080601f831160018114620002e05760008415620002c75750858301515b600019600386901b1c1916600185901b1785556200026b565b600085815260208120601f198616915b828110156200031157888601518255948401946001909101908401620002f0565b5085821015620003305787850151600019600388901b60f8161c191681555b5050505050600190811b01905550565b6185e480620003506000396000f3fe608060405234801561001057600080fd5b50600436106101005760003560e01c80635a9b0b8911610097578063b9dd602e11610066578063b9dd602e1461022f578063daab9aae1461024c578063e9a65bf81461025f578063f2fde38b1461027257600080fd5b80635a9b0b89146101dc578063715018a6146101f357806377f6f996146101fb5780638da5cb5b1461021e57600080fd5b806343cdaad2116100d357806343cdaad21461017b578063487a1af9146101925780634d1557fa146101a55780634d1c23c0146101c957600080fd5b806309af316b146101055780630ad9d052146101235780632ba36f781461013b5780633c2e8fc214610166575b600080fd5b61010d610285565b60405161011a9190617b9a565b60405180910390f35b61012b6102e0565b60405161011a9493929190617c24565b600e5461014e906001600160a01b031681565b6040516001600160a01b03909116815260200161011a565b610179610174366004617ce1565b610386565b005b610184600f5481565b60405190815260200161011a565b6101796101a0366004617de5565b61062c565b6101b86101b3366004617e38565b6119a2565b60405161011a959493929190617ee4565b6101796101d7366004617e38565b612448565b6101e4612610565b60405161011a93929190617f4b565b61017961277d565b61020e610209366004617e38565b612791565b60405161011a9493929190617ff4565b6000546001600160a01b031661014e565b60115461023c9060ff1681565b604051901515815260200161011a565b61017961025a366004618030565b6129cf565b61017961026d3660046180b6565b612ac2565b61017961028036600461810d565b612bf5565b606060116001018054806020026020016040519081016040528092919081815260200182805480156102d657602002820191906000526020600020905b8154815260200190600101908083116102c2575b5050505050905090565b60018060030180546102f19061812a565b80601f016020809104026020016040519081016040528092919081815260200182805461031d9061812a565b801561036a5780601f1061033f5761010080835404028352916020019161036a565b820191906000526020600020905b81548152906001019060200180831161034d57829003601f168201915b5050505050908060040154908060060154908060070154905084565b6000546001600160a01b031633148015906103a357506000600f54115b80156104365750600e54600f546040516331a9108f60e11b81526001600160a01b0390921691636352211e916103df9160040190815260200190565b602060405180830381865afa1580156103fc573d6000803e3d6000fd5b505050506040513d601f19601f82011682018060405250810190610420919061815e565b6001600160a01b0316336001600160a01b031614155b15610454576040516359dc379f60e01b815260040160405180910390fd5b60008082600881111561046957610469617f35565b036104ab576104a4846001600a0185815481106104885761048861817b565b90600052602060002090600a0201612ca190919063ffffffff16565b905061054c565b60088260088111156104bf576104bf617f35565b036104fa576104a4846001600b0185815481106104de576104de61817b565b9060005260206000209060260201612eb590919063ffffffff16565b600682600881111561050e5761050e617f35565b0361054c57610549846001600c01858154811061052d5761052d61817b565b906000526020600020906008020161357c90919063ffffffff16565b90505b806001600701600082825461056191906181a7565b909155505060075460085414801561057b57506000600f54115b1561062657600f54600e546040516331a9108f60e11b8152600481018390526001600160a01b0390911690636352211e90602401602060405180830381865afa1580156105cc573d6000803e3d6000fd5b505050506040513d601f19601f820116820180604052508101906105f0919061815e565b6001600160a01b03167fb03c53b28e78a88e31607a27e1fa48234dce28d5d9d9ec7b295aeb02e674a1e160405160405180910390a35b50505050565b600f5460000361064f576040516311443e4960e21b815260040160405180910390fd5b600f548414610671576040516311443e4960e21b815260040160405180910390fd5b604080516101c0810190915260009060018161016081018260038282826020028201915b81548152602001906001019080831161069557505050505081526020016003820180546106c19061812a565b80601f01602080910402602001604051908101604052809291908181526020018280546106ed9061812a565b801561073a5780601f1061070f5761010080835404028352916020019161073a565b820191906000526020600020905b81548152906001019060200180831161071d57829003601f168201915b505050505081526020016004820154815260200160058201805480602002602001604051908101604052809291908181526020016000905b828210156107da5760008481526020902060408051808201909152600284029091018054829060ff1660088111156107ac576107ac617f35565b60088111156107bd576107bd617f35565b815260200160018201548152505081526020019060010190610772565b505050508152602001600682015481526020016007820154815260200160088201805480602002602001604051908101604052809291908181526020016000905b82821015610875576000848152602090819020604080516060810182526002860290920180548352600190810154600781810b8587015268010000000000000000909104900b91830191909152908352909201910161081b565b50505050815260200160098201805480602002602001604051908101604052809291908181526020016000905b828210156108d3576000848152602090819020604080518084019091529084015481528252600190920191016108a2565b505050508152602001600a8201805480602002602001604051908101604052809291908181526020016000905b82821015610b1057838290600052602060002090600a02016040518060e0016040529081600082015481526020016001820160009054906101000a900460ff16600481111561095157610951617f35565b600481111561096257610962617f35565b8152602001600282015481526020016003820160405180606001604052908160008201805480602002602001604051908101604052809291908181526020016000905b82821015610a3457600084815260209081902083018054604080518285028101850190915281815292830182828015610a2057602002820191906000526020600020906000905b825461010083900a900460070b81526020600f83018190049384019360010360089093019290920291018084116109ec5790505b5050505050815260200190600101906109a5565b5050505081526020016001820154815260200160028201548152505081526020016006820160405180604001604052908160008201805480602002602001604051908101604052809291908181526020018280548015610ad657602002820191906000526020600020906000905b825461010083900a900460070b81526020600f8301819004938401936001036008909301929092029101808411610aa25790505b5050505050815260200160018201548152505081526020016008820154815260200160098201548152505081526020019060010190610900565b505050508152602001600b8201805480602002602001604051908101604052809291908181526020016000905b828210156115ac57838290600052602060002090602602016040518060a0016040529081600082015481526020016001820154815260200160028201604051806101e0016040529081600082015481526020016001820160009054906101000a900460ff166004811115610bb357610bb3617f35565b6004811115610bc457610bc4617f35565b81526020016001820160019054906101000a900460ff166004811115610bec57610bec617f35565b6004811115610bfd57610bfd617f35565b81526020016002820160405180606001604052908160008201805480602002602001604051908101604052809291908181526020016000905b82821015610cc557600084815260209081902083018054604080518285028101850190915281815292830182828015610cb157602002820191906000526020600020906000905b825461010083900a900460070b81526020600f8301819004938401936001036008909301929092029101808411610c7d5790505b505050505081526020019060010190610c36565b5050505081526020016001820154815260200160028201548152505081526020016005820160405180606001604052908160008201805480602002602001604051908101604052809291908181526020016000905b82821015610da957600084815260209081902083018054604080518285028101850190915281815292830182828015610d9557602002820191906000526020600020906000905b825461010083900a900460070b81526020600f8301819004938401936001036008909301929092029101808411610d615790505b505050505081526020019060010190610d1a565b5050505081526020016001820154815260200160028201548152505081526020016008820160405180606001604052908160008201805480602002602001604051908101604052809291908181526020016000905b82821015610e8d57600084815260209081902083018054604080518285028101850190915281815292830182828015610e7957602002820191906000526020600020906000905b825461010083900a900460070b81526020600f8301819004938401936001036008909301929092029101808411610e455790505b505050505081526020019060010190610dfe565b505050508152602001600182015481526020016002820154815250508152602001600b820160405180606001604052908160008201805480602002602001604051908101604052809291908181526020016000905b82821015610f7157600084815260209081902083018054604080518285028101850190915281815292830182828015610f5d57602002820191906000526020600020906000905b825461010083900a900460070b81526020600f8301819004938401936001036008909301929092029101808411610f295790505b505050505081526020019060010190610ee2565b505050508152602001600182015481526020016002820154815250508152602001600e820160405180606001604052908160008201805480602002602001604051908101604052809291908181526020016000905b828210156110555760008481526020908190208301805460408051828502810185019091528181529283018282801561104157602002820191906000526020600020906000905b825461010083900a900460070b81526020600f830181900493840193600103600890930192909202910180841161100d5790505b505050505081526020019060010190610fc6565b5050505081526020016001820154815260200160028201548152505081526020016011820160405180606001604052908160008201805480602002602001604051908101604052809291908181526020016000905b828210156111395760008481526020908190208301805460408051828502810185019091528181529283018282801561112557602002820191906000526020600020906000905b825461010083900a900460070b81526020600f83018190049384019360010360089093019290920291018084116110f15790505b5050505050815260200190600101906110aa565b5050505081526020016001820154815260200160028201548152505081526020016014820160405180606001604052908160008201805480602002602001604051908101604052809291908181526020016000905b8282101561121d5760008481526020908190208301805460408051828502810185019091528181529283018282801561120957602002820191906000526020600020906000905b825461010083900a900460070b81526020600f83018190049384019360010360089093019290920291018084116111d55790505b50505050508152602001906001019061118e565b5050505081526020016001820154815260200160028201548152505081526020016017820160405180606001604052908160008201805480602002602001604051908101604052809291908181526020016000905b82821015611301576000848152602090819020830180546040805182850281018501909152818152928301828280156112ed57602002820191906000526020600020906000905b825461010083900a900460070b81526020600f83018190049384019360010360089093019290920291018084116112b95790505b505050505081526020019060010190611272565b505050508152602001600182015481526020016002820154815250508152602001601a8201604051806040016040529081600082018054806020026020016040519081016040528092919081815260200182805480156113a357602002820191906000526020600020906000905b825461010083900a900460070b81526020600f830181900493840193600103600890930192909202910180841161136f5790505b505050505081526020016001820154815250508152602001601c82016040518060400160405290816000820180548060200260200160405190810160405280929190818152602001828054801561143c57602002820191906000526020600020906000905b825461010083900a900460070b81526020600f83018190049384019360010360089093019290920291018084116114085790505b505050505081526020016001820154815250508152602001601e8201604051806040016040529081600082018054806020026020016040519081016040528092919081815260200182805480156114d557602002820191906000526020600020906000905b825461010083900a900460070b81526020600f83018190049384019360010360089093019290920291018084116114a15790505b505050505081526020016001820154815250508152602001602082016040518060400160405290816000820180548060200260200160405190810160405280929190818152602001828054801561156e57602002820191906000526020600020906000905b825461010083900a900460070b81526020600f830181900493840193600103600890930192909202910180841161153a5790505b505050505081526020016001820154815250508152505081526020016024820154815260200160258201548152505081526020019060010190610b3d565b505050508152602001600c8201805480602002602001604051908101604052809291908181526020016000905b8282101561172157838290600052602060002090600802016040518060c00160405290816000820154815260200160018201548152602001600282015481526020016003820160405180606001604052908160008201805480602002602001604051908101604052809291908181526020016000905b828210156116de576000848152602090819020830180546040805182850281018501909152818152928301828280156116ca57602002820191906000526020600020906000905b825461010083900a900460070b81526020600f83018190049384019360010360089093019290920291018084116116965790505b50505050508152602001906001019061164f565b50505050815260200160018201548152602001600282015481525050815260200160068201548152602001600782015481525050815260200190600101906115d9565b50505050815250509050600083836040516020016117409291906181ba565b6040516020818303038152906040528051906020012060001c905060006401000000009050606060008461012001515167ffffffffffffffff81111561178857611788617c53565b6040519080825280602002602001820160405280156117bb57816020015b60608152602001906001900390816117a65790505b50905060005b6117cc6001886181f6565b81101561182c576118158661180a8a8a858181106117ec576117ec61817b565b90506020020160208101906118019190618209565b60070b60201d90565b60070b8460006136d0565b90935091508061182481618226565b9150506117c1565b5060008867ffffffffffffffff81111561184857611848617c53565b604051908082528060200260200182016040528015611871578160200160208202803683370190505b509050600061189589896118866001826181f6565b8181106117ec576117ec61817b565b60070b905060005b8a81101561195a576118b288838660016136d0565b909550935060006118c486888a61391d565b60115490915060ff16156118f45760128054829081106118e6576118e661817b565b906000526020600020015490505b6118fd816139d6565b84838151811061190f5761190f61817b565b60079290920b602092830291909101820152604080519182018a90520160408051601f198184030181529190528051602090910120975091508061195281618226565b91505061189d565b50600f547ffb125da5d3ca2ecadc39423aa68cf8ab99e80387e3ab2ef50136dfe46474c1048360405161198d9190618240565b60405180910390a25050505050505050505050565b600080606080606060006001600b0187815481106119c2576119c261817b565b90600052602060002090602602016040518060a0016040529081600082015481526020016001820154815260200160028201604051806101e0016040529081600082015481526020016001820160009054906101000a900460ff166004811115611a2e57611a2e617f35565b6004811115611a3f57611a3f617f35565b81526020016001820160019054906101000a900460ff166004811115611a6757611a67617f35565b6004811115611a7857611a78617f35565b81526020016002820160405180606001604052908160008201805480602002602001604051908101604052809291908181526020016000905b82821015611b4057600084815260209081902083018054604080518285028101850190915281815292830182828015611b2c57602002820191906000526020600020906000905b825461010083900a900460070b81526020600f8301819004938401936001036008909301929092029101808411611af85790505b505050505081526020019060010190611ab1565b5050505081526020016001820154815260200160028201548152505081526020016005820160405180606001604052908160008201805480602002602001604051908101604052809291908181526020016000905b82821015611c2457600084815260209081902083018054604080518285028101850190915281815292830182828015611c1057602002820191906000526020600020906000905b825461010083900a900460070b81526020600f8301819004938401936001036008909301929092029101808411611bdc5790505b505050505081526020019060010190611b95565b5050505081526020016001820154815260200160028201548152505081526020016008820160405180606001604052908160008201805480602002602001604051908101604052809291908181526020016000905b82821015611d0857600084815260209081902083018054604080518285028101850190915281815292830182828015611cf457602002820191906000526020600020906000905b825461010083900a900460070b81526020600f8301819004938401936001036008909301929092029101808411611cc05790505b505050505081526020019060010190611c79565b505050508152602001600182015481526020016002820154815250508152602001600b820160405180606001604052908160008201805480602002602001604051908101604052809291908181526020016000905b82821015611dec57600084815260209081902083018054604080518285028101850190915281815292830182828015611dd857602002820191906000526020600020906000905b825461010083900a900460070b81526020600f8301819004938401936001036008909301929092029101808411611da45790505b505050505081526020019060010190611d5d565b505050508152602001600182015481526020016002820154815250508152602001600e820160405180606001604052908160008201805480602002602001604051908101604052809291908181526020016000905b82821015611ed057600084815260209081902083018054604080518285028101850190915281815292830182828015611ebc57602002820191906000526020600020906000905b825461010083900a900460070b81526020600f8301819004938401936001036008909301929092029101808411611e885790505b505050505081526020019060010190611e41565b5050505081526020016001820154815260200160028201548152505081526020016011820160405180606001604052908160008201805480602002602001604051908101604052809291908181526020016000905b82821015611fb457600084815260209081902083018054604080518285028101850190915281815292830182828015611fa057602002820191906000526020600020906000905b825461010083900a900460070b81526020600f8301819004938401936001036008909301929092029101808411611f6c5790505b505050505081526020019060010190611f25565b5050505081526020016001820154815260200160028201548152505081526020016014820160405180606001604052908160008201805480602002602001604051908101604052809291908181526020016000905b828210156120985760008481526020908190208301805460408051828502810185019091528181529283018282801561208457602002820191906000526020600020906000905b825461010083900a900460070b81526020600f83018190049384019360010360089093019290920291018084116120505790505b505050505081526020019060010190612009565b5050505081526020016001820154815260200160028201548152505081526020016017820160405180606001604052908160008201805480602002602001604051908101604052809291908181526020016000905b8282101561217c5760008481526020908190208301805460408051828502810185019091528181529283018282801561216857602002820191906000526020600020906000905b825461010083900a900460070b81526020600f83018190049384019360010360089093019290920291018084116121345790505b5050505050815260200190600101906120ed565b505050508152602001600182015481526020016002820154815250508152602001601a82016040518060400160405290816000820180548060200260200160405190810160405280929190818152602001828054801561221e57602002820191906000526020600020906000905b825461010083900a900460070b81526020600f83018190049384019360010360089093019290920291018084116121ea5790505b505050505081526020016001820154815250508152602001601c8201604051806040016040529081600082018054806020026020016040519081016040528092919081815260200182805480156122b757602002820191906000526020600020906000905b825461010083900a900460070b81526020600f83018190049384019360010360089093019290920291018084116122835790505b505050505081526020016001820154815250508152602001601e82016040518060400160405290816000820180548060200260200160405190810160405280929190818152602001828054801561235057602002820191906000526020600020906000905b825461010083900a900460070b81526020600f830181900493840193600103600890930192909202910180841161231c5790505b50505050508152602001600182015481525050815260200160208201604051806040016040529081600082018054806020026020016040519081016040528092919081815260200182805480156123e957602002820191906000526020600020906000905b825461010083900a900460070b81526020600f83018190049384019360010360089093019290920291018084116123b55790505b5050509183525050600191909101546020918201529152918352506024830154828201526025909201546040918201528201519101518151608083015151610100840151516101809094015151929b919a509850919650945092505050565b600e546001600160a01b0316331461248c576040517f4099888a00000000000000000000000000000000000000000000000000000000815260040160405180910390fd5b6000600f54118061252a5750600e546040517fa9def49d0000000000000000000000000000000000000000000000000000000081526004810183905230916001600160a01b03169063a9def49d90602401602060405180830381865afa1580156124fa573d6000803e3d6000fd5b505050506040513d601f19601f8201168201806040525081019061251e919061815e565b6001600160a01b031614155b15612548576040516311443e4960e21b815260040160405180910390fd5b600f81905560075460085414801561256257506000600f54115b1561260d57600f54600e546040516331a9108f60e11b8152600481018390526001600160a01b0390911690636352211e90602401602060405180830381865afa1580156125b3573d6000803e3d6000fd5b505050506040513d601f19601f820116820180604052508101906125d7919061815e565b6001600160a01b03167fb03c53b28e78a88e31607a27e1fa48234dce28d5d9d9ec7b295aeb02e674a1e160405160405180910390a35b50565b6126186172f6565b60408051606080820192839052918291600191829160049160069190849060039082845b81548152602001906001019080831161263c57505050505092508180546126629061812a565b80601f016020809104026020016040519081016040528092919081815260200182805461268e9061812a565b80156126db5780601f106126b0576101008083540402835291602001916126db565b820191906000526020600020905b8154815290600101906020018083116126be57829003601f168201915b5050505050915080805480602002602001604051908101604052809291908181526020016000905b8282101561276b5760008481526020902060408051808201909152600284029091018054829060ff16600881111561273d5761273d617f35565b600881111561274e5761274e617f35565b815260200160018201548152505081526020019060010190612703565b50505050905093509350935050909192565b612785613a1c565b61278f6000613a90565b565b60008060608060006001600a0186815481106127af576127af61817b565b90600052602060002090600a02016040518060e0016040529081600082015481526020016001820160009054906101000a900460ff1660048111156127f6576127f6617f35565b600481111561280757612807617f35565b8152602001600282015481526020016003820160405180606001604052908160008201805480602002602001604051908101604052809291908181526020016000905b828210156128d9576000848152602090819020830180546040805182850281018501909152818152928301828280156128c557602002820191906000526020600020906000905b825461010083900a900460070b81526020600f83018190049384019360010360089093019290920291018084116128915790505b50505050508152602001906001019061284a565b505050508152602001600182015481526020016002820154815250508152602001600682016040518060400160405290816000820180548060200260200160405190810160405280929190818152602001828054801561297b57602002820191906000526020600020906000905b825461010083900a900460070b81526020600f83018190049384019360010360089093019290920291018084116129475790505b50505091835250506001919091015460209182015290825260088301548282015260099092015460409182015260608301519182015190820151915160809093015151909991985091965090945092505050565b6000546001600160a01b031633148015906129ec57506000600f54115b8015612a7f5750600e54600f546040516331a9108f60e11b81526001600160a01b0390921691636352211e91612a289160040190815260200190565b602060405180830381865afa158015612a45573d6000803e3d6000fd5b505050506040513d601f19601f82011682018060405250810190612a69919061815e565b6001600160a01b0316336001600160a01b031614155b15612a9d576040516359dc379f60e01b815260040160405180910390fd5b8051601190612ab3906012906020850190617314565b50805460ff1916600117905550565b6000546001600160a01b03163314801590612adf57506000600f54115b8015612b725750600e54600f546040516331a9108f60e11b81526001600160a01b0390921691636352211e91612b1b9160040190815260200190565b602060405180830381865afa158015612b38573d6000803e3d6000fd5b505050506040513d601f19601f82011682018060405250810190612b5c919061815e565b6001600160a01b0316336001600160a01b031614155b15612b90576040516359dc379f60e01b815260040160405180910390fd5b60055415612be75760006005819055612bab90600b9061735b565b612bb7600a600061737c565b612bc36009600061739a565b612bcf600c60006173bb565b612bdb600d60006173dc565b612be7600660006173fd565b612bf18282613af8565b5050565b612bfd613a1c565b6001600160a01b038116612c98576040517f08c379a000000000000000000000000000000000000000000000000000000000815260206004820152602660248201527f4f776e61626c653a206e6577206f776e657220697320746865207a65726f206160448201527f646472657373000000000000000000000000000000000000000000000000000060648201526084015b60405180910390fd5b61260d81613a90565b600882015460098301546000919082828103612da55760058601546004870154600090612ccf908390618253565b90505b865183108015612ce157508084105b15612d8b5760038801612cf48386618280565b81548110612d0457612d0461817b565b90600052602060002001878481518110612d2057612d2061817b565b60209081029190910181015182546001810184556000938452919092206004820401805460039092166008026101000a67ffffffffffffffff81810219909316929093169290920217905583612d7581618226565b9450508280612d8390618226565b935050612cd2565b808403612da257612d9b85618226565b9450600093505b50505b82600103612e645760078601545b855182108015612dc257508083105b15612e4b5786600601600001868381518110612de057612de061817b565b60209081029190910181015182546001810184556000938452919092206004820401805460039092166008026101000a67ffffffffffffffff81810219909316929093169290920217905582612e3581618226565b9350508180612e4390618226565b925050612db3565b808303612e6257612e5b84618226565b9350600092505b505b8451811015612e9f576040517f15eb29ee00000000000000000000000000000000000000000000000000000000815260040160405180910390fd5b6008860192909255600985015590505b92915050565b6025820154602483015460009160028501918382810361311d5760048085015490600090612ee4908390618253565b90506000818760020160010154612efb9190618253565b90505b885184108015612f0d57508085105b15613102576000612f1e8387618280565b9050600084612f2d8589618294565b612f379190618280565b90506000612f458689618294565b905081600003612fdf578b8781518110612f6157612f6161817b565b60200260200101518a6002016000018481548110612f8157612f8161817b565b906000526020600020018281548110612f9c57612f9c61817b565b90600052602060002090600491828204019190066008026101000a81548167ffffffffffffffff021916908360070b67ffffffffffffffff1602179055506130df565b81600103613019578b8781518110612ff957612ff961817b565b60200260200101518a6005016000018481548110612f8157612f8161817b565b81600203613053578b87815181106130335761303361817b565b60200260200101518a6008016000018481548110612f8157612f8161817b565b8b87815181106130655761306561817b565b60200260200101518a600b0160000184815481106130855761308561817b565b9060005260206000200182815481106130a0576130a061817b565b90600052602060002090600491828204019190066008026101000a81548167ffffffffffffffff021916908360070b67ffffffffffffffff1602179055505b876130e981618226565b98505086806130f790618226565b975050505050612efe565b8085036131195761311286618226565b9550600094505b5050505b826001036133705760108401546000613137826004618253565b905060008187600e016001015461314e9190618253565b90505b88518410801561316057508085105b156133555760006131718387618280565b90506000846131808589618294565b61318a9190618280565b905060006131988689618294565b905081600003613232578b87815181106131b4576131b461817b565b60200260200101518a600e0160000184815481106131d4576131d461817b565b9060005260206000200182815481106131ef576131ef61817b565b90600052602060002090600491828204019190066008026101000a81548167ffffffffffffffff021916908360070b67ffffffffffffffff160217905550613332565b8160010361326c578b878151811061324c5761324c61817b565b60200260200101518a60110160000184815481106131d4576131d461817b565b816002036132a6578b87815181106132865761328661817b565b60200260200101518a60140160000184815481106131d4576131d461817b565b8b87815181106132b8576132b861817b565b60200260200101518a60170160000184815481106132d8576132d861817b565b9060005260206000200182815481106132f3576132f361817b565b90600052602060002090600491828204019190066008026101000a81548167ffffffffffffffff021916908360070b67ffffffffffffffff1602179055505b8761333c81618226565b985050868061334a90618226565b975050505050613151565b80850361336c5761336586618226565b9550600094505b5050505b8260020361356657601b840154600061338a826004618253565b90505b87518310801561339c57508084105b1561354c576000826133ae8387618294565b6133b89190618280565b905060006133c68487618294565b905081600003613445578985815181106133e2576133e261817b565b602002602001015188601a0160000182815481106134025761340261817b565b90600052602060002090600491828204019190066008026101000a81548167ffffffffffffffff021916908360070b67ffffffffffffffff16021790555061352a565b8160010361347f5789858151811061345f5761345f61817b565b602002602001015188601c0160000182815481106134025761340261817b565b816002036134b9578985815181106134995761349961817b565b602002602001015188601e0160000182815481106134025761340261817b565b8985815181106134cb576134cb61817b565b60200260200101518860200160000182815481106134eb576134eb61817b565b90600052602060002090600491828204019190066008026101000a81548167ffffffffffffffff021916908360070b67ffffffffffffffff1602179055505b8561353481618226565b965050848061354290618226565b955050505061338d565b8084036135635761355c85618226565b9450600093505b50505b6025870192909255602486015591505092915050565b60068201546007830154600091908282810361368057600586015460048701546000906135aa908390618253565b90505b8651831080156135bc57508084105b1561366657600388016135cf8386618280565b815481106135df576135df61817b565b906000526020600020018784815181106135fb576135fb61817b565b60209081029190910181015182546001810184556000938452919092206004820401805460039092166008026101000a67ffffffffffffffff8181021990931692909316929092021790558361365081618226565b945050828061365e90618226565b9350506135ad565b80840361367d5761367685618226565b9450600093505b50505b84518110156136bb576040517f15eb29ee00000000000000000000000000000000000000000000000000000000815260040160405180910390fd5b60068601929092556007850155905092915050565b60608060608060005b88606001515181101561390e576000896060015182815181106136fe576136fe61817b565b602002602001015190506006600881111561371b5761371b617f35565b8151600881111561372e5761372e617f35565b0361376f57613768898b61014001518360200151815181106137525761375261817b565b6020026020010151613baf90919063ffffffff16565b93506138fb565b60008151600881111561378457613784617f35565b036137e45760018a606001515161379b91906181f6565b8210806137a55750865b156137df57613768848b61010001518360200151815181106137c9576137c961817b565b6020026020010151613bd890919063ffffffff16565b6138fb565b6008815160088111156137f9576137f9617f35565b036138fb57835160000361385e576040805160018082528183019092529060208083019080368337019050509350613836608260208b901b618280565b846000815181106138495761384961817b565b602002602001019060070b908160070b815250505b60008a610120015182602001518151811061387b5761387b61817b565b602002602001015190506138b7858a84602001518151811061389f5761389f61817b565b602002602001015183613d369092919063ffffffff16565b8a8460200151815181106138cd576138cd61817b565b602002602001018190528195505050836000815181106138ef576138ef61817b565b60200260200101519450505b508061390681618226565b9150506136d9565b50909794965093945050505050565b60008061392985613ee5565b905060005b81518110156139915761395a82828151811061394c5761394c61817b565b602002602001015186613f95565b82828151811061396c5761396c61817b565b602002602001019060070b908160070b815250508061398a90618226565b905061392e565b506040805180820190915260608152600060208201818152835190528282526139b982613fa1565b51905060006139c88287614216565b9450505050505b9392505050565b60007fffffffffffffffffffffffffffffffffffffffffffffffffffffffff800000008212158015613a0c5750637fffffff8213155b613a1557600080fd5b5060201b90565b6000546001600160a01b0316331461278f576040517f08c379a000000000000000000000000000000000000000000000000000000000815260206004820181905260248201527f4f776e61626c653a2063616c6c6572206973206e6f7420746865206f776e65726044820152606401612c8f565b600080546001600160a01b038381167fffffffffffffffffffffffff0000000000000000000000000000000000000000831681178455604051919092169283917f8be0079c531659141344cd1fd0a4f28419497f9722a3daafe3b4186f6b6457e09190a35050565b600581905560006007819055600855613b0f6172f6565b6000805b83811015613ba857613b916040518060400160405280878785818110613b3b57613b3b61817b565b9050602002810190613b4d91906182a8565b8080601f0160208091040260200160405190810160405280939291908181526020018383808284376000920191909152505050908252506020018390528484614299565b909350915080613ba081618226565b915050613b13565b5050505050565b60608281015151805183908110613bc857613bc861817b565b6020026020010151905092915050565b60408051808201825260608082526000602083019081528451905283825284810151608086015193810151919390916001148015613c1a575060208101516001145b15613cf3576000613c2e8360200151614e42565b905060005b8360200151811015613cb2578351805182908110613c5357613c5361817b565b6020026020010151600081518110613c6d57613c6d61817b565b602002602001015182600001518281518110613c8b57613c8b61817b565b602002602001019060070b908160070b815250508080613caa90618226565b915050613c33565b506000613cc983613cc38785614ea1565b90614fc1565b90506000613ce4896020015183614fe390919063ffffffff16565b519650612eaf95505050505050565b6000613cff84846150ea565b90506000613d0d8284614fc1565b90506000613d28896020015183614fe390919063ffffffff16565b519998505050505050505050565b6040805160018082528183019092526060918291600091816020015b6060815260200190600190039081613d525790505090506000866020015167ffffffffffffffff811115613d8857613d88617c53565b604051908082528060200260200182016040528015613db1578160200160208202803683370190505b50905060005b8651811015613e1357868181518110613dd257613dd261817b565b6020026020010151828281518110613dec57613dec61817b565b602002602001019060070b908160070b815250508080613e0b90618226565b915050613db7565b5060408051600280825260608201909252600091816020015b6060815260200190600190039081613e2c57905050905060005b8351811015613ed657600080613e618b60400151868b61527e565b915091508184600081518110613e7957613e7961817b565b60200260200101819052508084600181518110613e9857613e9861817b565b602002602001018190525081868481518110613eb657613eb661817b565b602002602001018190525050508080613ece90618226565b915050613e46565b50919791965090945050505050565b60606000825167ffffffffffffffff811115613f0357613f03617c53565b604051908082528060200260200182016040528015613f2c578160200160208202803683370190505b50905060005b8351811015613f8e57838181518110613f4d57613f4d61817b565b6020026020010151828281518110613f6757613f6761817b565b602002602001019060070b908160070b815250508080613f8690618226565b915050613f32565b5092915050565b60006139cf83836156e1565b604080518082019091526060815260006020820152602082015160008167ffffffffffffffff811115613fd657613fd6617c53565b604051908082528060200260200182016040528015613fff578160200160208202803683370190505b50905060005b8281101561407a5761404b6020866000015183815181106140285761402861817b565b602002602001015160070b670de0b6b3a7640000614046919061830d565b901d90565b82828151811061405d5761405d61817b565b60209081029190910101528061407281618226565b915050614005565b5060005b828110156140d7576140a882828151811061409b5761409b61817b565b6020026020010151615747565b8282815181106140ba576140ba61817b565b6020908102919091010152806140cf81618226565b91505061407e565b506000805b8381101561411b57614107828483815181106140fa576140fa61817b565b60200260200101516157bd565b91508061411381618226565b9150506140dc565b5060005b83811015614182576141538284838151811061413d5761413d61817b565b60200260200101516157cc90919063ffffffff16565b8382815181106141655761416561817b565b60209081029190910101528061417a81618226565b91505061411f565b50600061418e84614e42565b905060005b8481101561420c57670de0b6b3a764000060206141c68684815181106141bb576141bb61817b565b602002602001015190565b6141d192911b61833d565b82518051839081106141e5576141e561817b565b602002602001019060070b908160070b81525050808061420490618226565b915050614193565b5095945050505050565b600080614222836158eb565b90506000805b855181101561428157614254828783815181106142475761424761817b565b60200260200101516158fc565b9150600783810b9083900b131561426f579250612eaf915050565b8061427981618226565b915050614228565b506001855161429091906181f6565b95945050505050565b6142a16172f6565b60008085600001518060200190518101906142bc919061837c565b905060ff811661448e5760008060006142d58988615908565b600b8054600181810183556000929092528451600a919091027f0175b7a638427703f0dbe7bb9bbf987a2551717b34e79f33b5b1008d1fa01db9810191825560208601517f0175b7a638427703f0dbe7bb9bbf987a2551717b34e79f33b5b1008d1fa01dba9091018054969950949750929550879490939160ff199091169083600481111561436657614366617f35565b02179055506040820151600282015560608201518051805160038401916143929183916020019061741e565b506020828101516001830155604090920151600290910155608083015180518051919260068501926143c79284920190617477565b5060208201518160010155505060a0820151816008015560c08201518160090155505080600160060160008282546143ff91906181a7565b9091555050600b54919650869160009061441b906001906181f6565b604080518082019091529091506006908060005b8152602090810184905282546001818101855560009485529190932082516002909402018054929390929091839160ff19169083600881111561447457614474617f35565b021790555060208201518160010155505050505050614e36565b7ffffffffffffffffffffffffffffffffffffffffffffffffffffffffffffffffa60ff8216016146135760008060006144c6896159ec565b600d8054600181018255600091909152835160089091027fd7b6990105719101dabeb77144f2a3385c8033acd3af97e9423a695e81ad1eb581019182556020808601517fd7b6990105719101dabeb77144f2a3385c8033acd3af97e9423a695e81ad1eb683015560408601517fd7b6990105719101dabeb77144f2a3385c8033acd3af97e9423a695e81ad1eb7830155606086015180518051979a50959850939650889592947fd7b6990105719101dabeb77144f2a3385c8033acd3af97e9423a695e81ad1eb89092019261459e928492019061741e565b50602082015181600101556040820151816002015550506080820151816006015560a08201518160070155505080600160060160008282546145e091906181a7565b9091555050600d5491965086916000906145fc906001906181f6565b60408051808201909152909150600690808261442f565b60001960ff8216016147035760008061462c8888615a6f565b600a805460018181018355600083815285517fc65a7bb8d6351c1cf70c95a316cc6a92839c986682d98bc35f958f4883f9d2a890930192909255915492995092945088935061467a916181f6565b60408051808201909152600180825260208201839052600680548083018255600091909152825160029091027ff652222313e28459528d920b65115c16c04f3efc82aaedc97be59f3f377c0d3f01805494955092939091839160ff1916908360088111156146ea576146ea617f35565b0217905550602082015181600101555050505050614e36565b7ffffffffffffffffffffffffffffffffffffffffffffffffffffffffffffffffe60ff82160161488557600061473887615ab4565b60098054600181810183556000838152845160029093027f6e1540171b6c0c960b71a7020d9f60077f6af931a8bbf590da0223dacf75c7af81019390935560208501517f6e1540171b6c0c960b71a7020d9f60077f6af931a8bbf590da0223dacf75c7b09093018054604087015167ffffffffffffffff90811668010000000000000000027fffffffffffffffffffffffffffffffff00000000000000000000000000000000909216951694909417939093179092559154929350916147fe91906181f6565b604080518082019091526002808252602082018390526006805460018082018355600092909252835192027ff652222313e28459528d920b65115c16c04f3efc82aaedc97be59f3f377c0d3f0180549495509293839160ff199091169083600881111561486d5761486d617f35565b02179055506020820151816001015550505050614e36565b7ffffffffffffffffffffffffffffffffffffffffffffffffffffffffffffffffd60ff8216016149a057600086600001518060200190518101906148c99190618397565b9150508060ff166000036148e0576001945061491c565b8060ff1660010361491c576000876000015180602001905181019061490591906183c1565b9250614918915060019050826003617530565b5095505b6040805180820190915260038152600060208201819052600680546001808201835591909252825160029092027ff652222313e28459528d920b65115c16c04f3efc82aaedc97be59f3f377c0d3f018054909291839160ff19169083600881111561498957614989617f35565b021790555060208201518160010155505050614e36565b7ffffffffffffffffffffffffffffffffffffffffffffffffffffffffffffffff860ff821601614e365760008060006149d98988615b19565b600c80546001808201835560009290925284517fdf6966c971051c3d54ec59162606531493a51404a002842f56009d7e5cf4a8c760269092029182019081556020808701517fdf6966c971051c3d54ec59162606531493a51404a002842f56009d7e5cf4a8c8840155604087015180517fdf6966c971051c3d54ec59162606531493a51404a002842f56009d7e5cf4a8c98501908155918101517fdf6966c971051c3d54ec59162606531493a51404a002842f56009d7e5cf4a8ca9094018054989b50969950949750899691959093909160ff191690836004811115614ac157614ac1617f35565b021790555060408201516001820180547fffffffffffffffffffffffffffffffffffffffffffffffffffffffffffff00ff16610100836004811115614b0857614b08617f35565b02179055506060820151805180516002840191614b2a9183916020019061741e565b50602082810151600183015560409092015160029091015560808301518051805191926005850192614b5f928492019061741e565b50602082810151600183015560409092015160029091015560a08301518051805191926008850192614b94928492019061741e565b50602082810151600183015560409092015160029091015560c0830151805180519192600b850192614bc9928492019061741e565b50602082810151600183015560409092015160029091015560e0830151805180519192600e850192614bfe928492019061741e565b5060208281015160018301556040909201516002909101556101008301518051805191926011850192614c34928492019061741e565b5060208281015160018301556040909201516002909101556101208301518051805191926014850192614c6a928492019061741e565b5060208281015160018301556040909201516002909101556101408301518051805191926017850192614ca0928492019061741e565b506020828101516001830155604090920151600290910155610160830151805180519192601a850192614cd69284920190617477565b50602091820151600190910155610180830151805180519192601c850192614d019284920190617477565b506020918201516001909101556101a0830151805180519192601e850192614d2c9284920190617477565b506020918201516001909101556101c083015180518051919284810192614d569284920190617477565b506020820151816001015550505050606082015181602401556080820151816025015550508060016006016000828254614d9091906181a7565b9091555050600c549196508691600090614dac906001906181f6565b604080518082019091526008808252602082018390526006805460018082018355600092909252835160029091027ff652222313e28459528d920b65115c16c04f3efc82aaedc97be59f3f377c0d3f01805495965093949092849260ff1990921691908490811115614e2057614e20617f35565b0217905550602082015181600101555050505050505b50929491935090915050565b6040805180820190915260608152602081018290528167ffffffffffffffff811115614e7057614e70617c53565b604051908082528060200260200182016040528015614e99578160200160208202803683370190505b508152919050565b6040805180820190915260608152600060208201528160200151836020015114614ef7576040517f95c2ffed00000000000000000000000000000000000000000000000000000000815260040160405180910390fd5b6000614f036001614e42565b905060005b8460200151811015614fb957614f7f8260000151600081518110614f2e57614f2e61817b565b6020026020010151614f7a87600001518481518110614f4f57614f4f61817b565b602002602001015187600001518581518110614f6d57614f6d61817b565b6020026020010151615cec565b6158fc565b82518051600090614f9257614f9261817b565b602002602001019060070b908160070b815250508080614fb190618226565b915050614f08565b509392505050565b6040805180820190915260608152600060208201526139cf8383615cf8615d04565b604080518082019091526060815260006020820152600082600481111561500c5761500c617f35565b036150245761501d83615dc5615dff565b9050612eaf565b600182600481111561503857615038617f35565b036150495761501d83615744615dff565b600282600481111561505d5761505d617f35565b0361506e5761501d83615e99615dff565b600382600481111561508257615082617f35565b036150935761501d83615eac615dff565b60048260048111156150a7576150a7617f35565b036150b85761501d83615f31615dff565b6040517fa342a23e00000000000000000000000000000000000000000000000000000000815260040160405180910390fd5b604080518082019091526060815260006020820152600061510e8360400151614e42565b905060005b83604001518110156151ed5760005b84602001518110156151da5761519f836000015183815181106151475761514761817b565b6020026020010151614f7a886000015184815181106151685761516861817b565b6020026020010151886000015185815181106151865761518661817b565b60200260200101518681518110614f6d57614f6d61817b565b83518051849081106151b3576151b361817b565b602002602001019060070b908160070b8152505080806151d290618226565b915050615122565b50806151e581618226565b915050615113565b50604080516001808252818301909252600091816020015b60608152602001906001900390816152055790505090508160000151816000815181106152345761523461817b565b60200260200101819052507f179491a5c16eb1ad3858df42ccd7321ca6ffc7d003c0355ae0c5f9c2cc9c02478160405161526e9190618462565b60405180910390a1509392505050565b606080606080845160000361537f576040805160028082526060820190925290816020015b60608152602001906001900390816152a3575050875190955067ffffffffffffffff8111156152d4576152d4617c53565b6040519080825280602002602001820160405280156152fd578160200160208202803683370190505b50856000815181106153115761531161817b565b6020908102919091010152865167ffffffffffffffff81111561533657615336617c53565b60405190808252806020026020018201604052801561535f578160200160208202803683370190505b50856001815181106153735761537361817b565b60200260200101819052505b60006153c1866000815181106153975761539761817b565b60200260200101516040805180820190915260608152600060208201528151602082015290815290565b905060006153db876001815181106153975761539761817b565b60408051808201909152606081526000602082018181528b5190528a825291925061540a908b606001516150ea565b60408051808201909152606081526000602082018181528c5190528b8252919250615439908c608001516150ea565b60408051808201909152606081526000602082018181528d5190528c8252919250615468908d60a001516150ea565b60408051808201909152606081526000602082018181528e5190528d8252919250615497908e60c001516150ea565b90506154a8848e6101600151614fc1565b93506154b9838e6101800151614fc1565b92506154ca828e6101a00151614fc1565b91506154db818e6101c00151614fc1565b60408051600480825260a0820190925291925060009190816020015b60608152602001906001900390816154f75790505090508460000151816000815181106155265761552661817b565b60200260200101819052508360000151816001815181106155495761554961817b565b602002602001018190525082600001518160028151811061556c5761556c61817b565b602002602001018190525081600001518160038151811061558f5761558f61817b565b602090810291909101015260408051600480825260a08201909252600091816020015b60608152602001906001900390816155b25790505090508760000151816000815181106155e1576155e161817b565b60200260200101819052508760000151816001815181106156045761560461817b565b60200260200101819052508760000151816002815181106156275761562761817b565b602002602001018190525087600001518160038151811061564a5761564a61817b565b60200260200101819052506156658f83838a60000151615f87565b809a50819b505050505050505050505060006156d26156ae89602001516156a8866040805180820190915260608152600060208201528151602082015290815290565b90614fe3565b604080518082019091526060815260006020820190815285519052848152906160f5565b51989297509195505050505050565b60008160070b6000036156f357600080fd5b6000600783900b602085901b600b0b8161570f5761570f61826a565b059050677fffffffffffffff19600f82900b1280159061573b5750677fffffffffffffff600f82900b13155b6139cf57600080fd5b90565b600081680736ea4425c11ac630811315615790576040517fca7ec0c500000000000000000000000000000000000000000000000000000000815260048101849052602401612c8f565b6714057b7ef767814f81026157b56157b0670de0b6b3a7640000835b0590565b616117565b949350505050565b60006139cf6157448385618475565b60008282600160ff1b8214806157e55750600160ff1b81145b1561581c576040517f9fe2b45000000000000000000000000000000000000000000000000000000000815260040160405180910390fd5b6000806000841261582d5783615832565b836000035b9150600083126158425782615847565b826000035b9050600061585e83670de0b6b3a7640000846161f1565b90507f7fffffffffffffffffffffffffffffffffffffffffffffffffffffffffffffff8111156158c4576040517fd49c26b30000000000000000000000000000000000000000000000000000000081526004810189905260248101889052604401612c8f565b600019858518136158de816158da578260000390565b8290565b9998505050505050505050565b6000612eaf64010000000083618294565b60006139cf83836162de565b61591061755d565b600080600080866000015180602001905181019061592e919061849d565b92509250506040518060e00160405280886020015181526020018360ff16600481111561595d5761595d617f35565b600481111561596e5761596e617f35565b8152602001828152602001615983888461631b565b81526020016159a5836040805180820190915260608152602081019190915290565b815260200160008152602001600081525094508093506159ca85608001516020015190565b6159d786606001516163a2565b6159e191906181a7565b925050509250925092565b6159f46175d8565b6000806000808560000151806020019051810190615a1291906184d9565b92509250506040518060c0016040528087602001518152602001838152602001828152602001615a42848461631b565b81526020016000815260200160008152509450809350615a6585606001516163a2565b9496939550505050565b60408051602080820183526000918290528251808201845285820151815292840151908401518451615aa19190618253565b615aab9190618253565b90509250929050565b60408051606081018252600080825260208201819052918101919091526000808360000151806020019051810190615aec919061850e565b604080516060810182526020988901518152600793840b98810198909852910b9086015250929392505050565b615b2161761c565b6000806000806000808860000151806020019051810190615b429190618558565b9450945094509450506040518060a001604052808a602001518152602001828152602001604051806101e001604052808581526020018760ff166004811115615b8d57615b8d617f35565b6004811115615b9e57615b9e617f35565b81526020018660ff166004811115615bb857615bb8617f35565b6004811115615bc957615bc9617f35565b8152602001615bd885876163b8565b8152602001615be785876163b8565b8152602001615bf685876163b8565b8152602001615c0585876163b8565b8152602001615c1486876163b8565b8152602001615c2386876163b8565b8152602001615c3286876163b8565b8152602001615c4186876163b8565b8152602001615c4f86614e42565b8152602001615c5d86614e42565b8152602001615c6b86614e42565b8152602001615c7986614e42565b81525081526020016000815260200160008152509650819550816004615c9f9190618253565b82615cab816004618253565b615cb59190618253565b83615cc1846004618253565b615ccb9190618253565b615cd591906181a7565b615cdf91906181a7565b9450505050509250925092565b60006139cf83836164b9565b60006139cf83836158fc565b6040805180820190915260608152600060208201526000615d288560200151614e42565b905060005b8160200151811015615dbc57615d8186600001518281518110615d5257615d5261817b565b602002602001015186600001518381518110615d7057615d7061817b565b60200260200101518663ffffffff16565b8251805183908110615d9557615d9561817b565b602002602001019060070b908160070b815250508080615db490618226565b915050615d2d565b50949350505050565b6000808260070b13615dfb57615df6640a00000000615ded600785900b640200000000615cec565b60070b90613f95565b612eaf565b5090565b6040805180820190915260608152600060208201526000615e238460200151614e42565b905060005b8160200151811015614fb957615e5e85600001518281518110615e4d57615e4d61817b565b60200260200101518563ffffffff16565b8251805183908110615e7257615e7261817b565b602002602001019060070b908160070b815250508080615e9190618226565b915050615e28565b6000808260070b13615dfb576000612eaf565b60007fffffffffffffffffffffffffffffffffffffffffffffffffffffffeb000000008260070b1215615f0557615f027fffffffffffffffffffffffffffffffffffffffffffffffffffffffffffffffeb6139d6565b91505b612eaf615f25640100000000614f7a615f1d86616501565b60070b61650c565b64010000000090613f95565b6000640a000000008260070b1315615f5057615f4d600a6139d6565b91505b6000615f64615f1d64020000000085615cec565b90506139cf615f78826401000000006158fc565b615ded83640100000000616517565b6060806000615fd087604001516156a8615fba615fb0896000815181106153975761539761817b565b8b60e001516150ea565b613cc38a6000815181106153975761539761817b565b9050600061601988604001516156a8616003615ff88a6001815181106153975761539761817b565b8c61010001516150ea565b613cc38b6001815181106153975761539761817b565b9050600061609661606f6160688b602001516156a86160526160478d6002815181106153975761539761817b565b8f61012001516150ea565b613cc38e6002815181106153975761539761817b565b85906160f5565b604080518082019091526060815260006020820190815289519052888152613cc390616068565b60000151905060006160e38a604001516156a86160cd6160c28c6003815181106153975761539761817b565b8e61014001516150ea565b613cc38d6003815181106153975761539761817b565b51919a91995090975050505050505050565b6040805180820190915260608152600060208201526139cf8383616523615d04565b6000818181121561618a577ffffffffffffffffffffffffffffffffffffffffffffffffcc22e87f6eb468eeb8112156161535750600092915050565b6161836161666157446157b08460000390565b6ec097ce7bc90715b34b9f1000000000816157ac576157ac61826a565b91506161eb565b680a688906bd8affffff8113156161d0576040517f0360d02800000000000000000000000000000000000000000000000000000000815260048101849052602401612c8f565b670de0b6b3a7640000604082901b056157b561574482616533565b50919050565b600080806000198587098587029250828110838203039150508060000361622b578382816162215761622161826a565b04925050506139cf565b838110616275576040517f63a05778000000000000000000000000000000000000000000000000000000008152600481018790526024810186905260448101859052606401612c8f565b60008486880960026001871981018816978890046003810283188082028403028082028403028082028403028082028403028082028403029081029092039091026000889003889004909101858311909403939093029303949094049190911702949350505050565b6000600783810b9083900b01677fffffffffffffff19600f82900b1280159061573b5750677fffffffffffffff600f82900b13156139cf57600080fd5b61633f60405180606001604052806060815260200160008152602001600081525090565b60208101839052604081018290528267ffffffffffffffff81111561636657616366617c53565b60405190808252806020026020018201604052801561639957816020015b60608152602001906001900390816163845790505b50815292915050565b600081604001518260200151612eaf9190618253565b6163dc60405180606001604052806060815260200160008152602001600081525090565b60208101839052604081018290528267ffffffffffffffff81111561640357616403617c53565b60405190808252806020026020018201604052801561643657816020015b60608152602001906001900390816164215790505b50815260005b83811015613f8e578267ffffffffffffffff81111561645d5761645d617c53565b604051908082528060200260200182016040528015616486578160200160208202803683370190505b50825180518390811061649b5761649b61817b565b602002602001018190525080806164b190618226565b91505061643c565b60008060208360070b8560070b02600f0b901d9050677fffffffffffffff19600f0b81600f0b1215801561573b5750677fffffffffffffff600f82900b13156139cf57600080fd5b6000612eaf82616ca7565b6000612eaf82616cc8565b60006139cf8383616d15565b60006139cf600784900b83615cec565b7780000000000000000000000000000000000000000000000067ff000000000000008216156166545767800000000000000082161561657b5768016a09e667f3bcc9090260401c5b67400000000000000082161561659a576801306fe0a31b7152df0260401c5b6720000000000000008216156165b9576801172b83c7d517adce0260401c5b6710000000000000008216156165d85768010b5586cf9890f62a0260401c5b6708000000000000008216156165f7576801059b0d31585743ae0260401c5b67040000000000000082161561661657680102c9a3e778060ee70260401c5b6702000000000000008216156166355768010163da9fb33356d80260401c5b67010000000000000082161561665457680100b1afa5abcbed610260401c5b66ff0000000000008216156167535766800000000000008216156166815768010058c86da1c09ea20260401c5b664000000000000082161561669f576801002c605e2e8cec500260401c5b66200000000000008216156166bd57680100162f3904051fa10260401c5b66100000000000008216156166db576801000b175effdc76ba0260401c5b66080000000000008216156166f957680100058ba01fb9f96d0260401c5b66040000000000008216156167175768010002c5cc37da94920260401c5b6602000000000000821615616735576801000162e525ee05470260401c5b66010000000000008216156167535768010000b17255775c040260401c5b65ff0000000000821615616849576580000000000082161561677e576801000058b91b5bc9ae0260401c5b6540000000000082161561679b57680100002c5c89d5ec6d0260401c5b652000000000008216156167b85768010000162e43f4f8310260401c5b651000000000008216156167d557680100000b1721bcfc9a0260401c5b650800000000008216156167f25768010000058b90cf1e6e0260401c5b6504000000000082161561680f576801000002c5c863b73f0260401c5b6502000000000082161561682c57680100000162e430e5a20260401c5b65010000000000821615616849576801000000b1721835510260401c5b64ff000000008216156169365764800000000082161561687257680100000058b90c0b490260401c5b64400000000082161561688e5768010000002c5c8601cc0260401c5b6420000000008216156168aa576801000000162e42fff00260401c5b6410000000008216156168c65768010000000b17217fbb0260401c5b6408000000008216156168e2576801000000058b90bfce0260401c5b6404000000008216156168fe57680100000002c5c85fe30260401c5b64020000000082161561691a5768010000000162e42ff10260401c5b64010000000082161561693657680100000000b17217f80260401c5b63ff000000821615616a1a57638000000082161561695d5768010000000058b90bfc0260401c5b6340000000821615616978576801000000002c5c85fe0260401c5b632000000082161561699357680100000000162e42ff0260401c5b63100000008216156169ae576801000000000b17217f0260401c5b63080000008216156169c957680100000000058b90c00260401c5b63040000008216156169e45768010000000002c5c8600260401c5b63020000008216156169ff576801000000000162e4300260401c5b6301000000821615616a1a5768010000000000b172180260401c5b62ff0000821615616af55762800000821615616a3f576801000000000058b90c0260401c5b62400000821615616a5957680100000000002c5c860260401c5b62200000821615616a735768010000000000162e430260401c5b62100000821615616a8d57680100000000000b17210260401c5b62080000821615616aa75768010000000000058b910260401c5b62040000821615616ac1576801000000000002c5c80260401c5b62020000821615616adb57680100000000000162e40260401c5b62010000821615616af5576801000000000000b1720260401c5b61ff00821615616bc757618000821615616b1857680100000000000058b90260401c5b614000821615616b315768010000000000002c5d0260401c5b612000821615616b4a576801000000000000162e0260401c5b611000821615616b635768010000000000000b170260401c5b610800821615616b7c576801000000000000058c0260401c5b610400821615616b9557680100000000000002c60260401c5b610200821615616bae57680100000000000001630260401c5b610100821615616bc757680100000000000000b10260401c5b60ff821615616c90576080821615616be857680100000000000000590260401c5b6040821615616c00576801000000000000002c0260401c5b6020821615616c1857680100000000000000160260401c5b6010821615616c30576801000000000000000b0260401c5b6008821615616c4857680100000000000000060260401c5b6004821615616c6057680100000000000000030260401c5b6002821615616c7857680100000000000000010260401c5b6001821615616c9057680100000000000000010260401c5b670de0b6b3a76400000260409190911c60bf031c90565b6000678000000000000000600783900b01616cc157600080fd5b5060000390565b60006420000000008260070b12616cde57600080fd5b641fffffffff198260070b1215616cf757506000919050565b612eaf60408360070b680171547652b82fe17702600f0b901d616d52565b6000600782810b9084900b03677fffffffffffffff19600f82900b1280159061573b5750677fffffffffffffff600f82900b13156139cf57600080fd5b60006420000000008260070b12616d6857600080fd5b641fffffffff198260070b1215616d8157506000919050565b67800000000000000060006380000000841660070b1315616db55768016a09e667f3bcc9080260401c67ffffffffffffffff165b60008363400000001660070b1315616de0576801306fe0a31b7152de0260401c67ffffffffffffffff165b60008363200000001660070b1315616e0b576801172b83c7d517adcd0260401c67ffffffffffffffff165b60008363100000001660070b1315616e365768010b5586cf9890f6290260401c67ffffffffffffffff165b60008363080000001660070b1315616e61576801059b0d31585743ae0260401c67ffffffffffffffff165b60008363040000001660070b1315616e8c57680102c9a3e778060ee60260401c67ffffffffffffffff165b60008363020000001660070b1315616eb75768010163da9fb33356d80260401c67ffffffffffffffff165b60008363010000001660070b1315616ee257680100b1afa5abcbed610260401c67ffffffffffffffff165b600083628000001660070b1315616f0c5768010058c86da1c09ea10260401c67ffffffffffffffff165b600083624000001660070b1315616f36576801002c605e2e8cec500260401c67ffffffffffffffff165b600083622000001660070b1315616f6057680100162f3904051fa10260401c67ffffffffffffffff165b600083621000001660070b1315616f8a576801000b175effdc76ba0260401c67ffffffffffffffff165b600083620800001660070b1315616fb457680100058ba01fb9f96d0260401c67ffffffffffffffff165b600083620400001660070b1315616fde5768010002c5cc37da94910260401c67ffffffffffffffff165b600083620200001660070b1315617008576801000162e525ee05470260401c67ffffffffffffffff165b600083620100001660070b13156170325768010000b17255775c040260401c67ffffffffffffffff165b6000836180001660070b131561705b576801000058b91b5bc9ae0260401c67ffffffffffffffff165b6000836140001660070b131561708457680100002c5c89d5ec6c0260401c67ffffffffffffffff165b6000836120001660070b13156170ad5768010000162e43f4f8310260401c67ffffffffffffffff165b6000836110001660070b13156170d657680100000b1721bcfc990260401c67ffffffffffffffff165b6000836108001660070b13156170ff5768010000058b90cf1e6d0260401c67ffffffffffffffff165b6000836104001660070b1315617128576801000002c5c863b73f0260401c67ffffffffffffffff165b6000836102001660070b131561715157680100000162e430e5a10260401c67ffffffffffffffff165b6000836101001660070b131561717a576801000000b1721835510260401c67ffffffffffffffff165b60008360801660070b13156171a257680100000058b90c0b480260401c67ffffffffffffffff165b60008360401660070b13156171ca5768010000002c5c8601cc0260401c67ffffffffffffffff165b60008360201660070b13156171f2576801000000162e42fff00260401c67ffffffffffffffff165b60008360101660070b131561721a5768010000000b17217fba0260401c67ffffffffffffffff165b60008360081660070b1315617242576801000000058b90bfcd0260401c67ffffffffffffffff165b60008360041660070b131561726a57680100000002c5c85fe30260401c67ffffffffffffffff165b60008360021660070b13156172925768010000000162e42ff00260401c67ffffffffffffffff165b60008360011660070b13156172ba57680100000000b17217f80260401c67ffffffffffffffff165b6fffffffffffffffffffffffffffffffff908116600784810b60201d601f03900b82161c90677fffffffffffffff9082161115612eaf57600080fd5b60405180606001604052806003906020820280368337509192915050565b82805482825590600052602060002090810192821561734f579160200282015b8281111561734f578251825591602001919060010190617334565b50615dfb92915061763d565b50805460008255600a029060005260206000209081019061260d9190617652565b508054600082559060005260206000209081019061260d919061763d565b508054600082556002029060005260206000209081019061260d91906176c5565b508054600082556026029060005260206000209081019061260d9190617704565b508054600082556008029060005260206000209081019061260d91906178d7565b508054600082556002029060005260206000209081019061260d9190617928565b82805482825590600052602060002090810192821561746b579160200282015b8281111561746b578251805161745b918491602090910190617477565b509160200191906001019061743e565b50615dfb929150617948565b8280548282559060005260206000209060030160049004810192821561734f5791602002820160005b838211156174ef57835183826101000a81548167ffffffffffffffff021916908360070b67ffffffffffffffff16021790555092602001926008016020816007010492830192600103026174a0565b80156175235782816101000a81549067ffffffffffffffff02191690556008016020816007010492830192600103026174ef565b5050615dfb92915061763d565b826003810192821561734f579160200282018281111561734f578251825591602001919060010190617334565b6040805160e08101909152600080825260208201908152602001600081526020016175a260405180606001604052806060815260200160008152602001600081525090565b81526020016175c4604051806040016040528060608152602001600081525090565b815260200160008152602001600081525090565b6040518060c001604052806000815260200160008152602001600081526020016175c460405180606001604052806060815260200160008152602001600081525090565b6040518060a0016040528060008152602001600081526020016175c4617965565b5b80821115615dfb576000815560010161763e565b80821115615dfb57600080825560018201805460ff191690556002820181905560038201816176818282617b57565b50600060018201819055600290910181905560068301906176a28282617b75565b600182016000905550506008820160009055600982016000905550600a01617652565b5b80821115615dfb57600081556001810180547fffffffffffffffffffffffffffffffff000000000000000000000000000000001690556002016176c6565b80821115615dfb57600080825560018201819055600282018181556003830180547fffffffffffffffffffffffffffffffffffffffffffffffffffffffffffff00001690558160048401816177598282617b57565b506000600182018190556002909101819055600583019061777a8282617b57565b506000600182018190556002909101819055600883019061779b8282617b57565b506000600182018190556002909101819055600b8301906177bc8282617b57565b506000600182018190556002909101819055600e8301906177dd8282617b57565b50600060018201819055600290910181905560118301906177fe8282617b57565b506000600182018190556002909101819055601483019061781f8282617b57565b50600060018201819055600290910181905560178301906178408282617b57565b506000600182018190556002909101819055601a8301906178618282617b75565b506000600191909101819055601c83019061787c8282617b75565b506000600191909101819055601e8301906178978282617b75565b50600060019190910181905560208301906178b28282617b75565b6001820160009055505050506024820160009055602582016000905550602601617704565b80821115615dfb576000808255600182018190556002820181905560038201816179018282617b57565b506000600182018190556002909101819055600683018190556007830155506008016178d7565b5b80821115615dfb57805460ff1916815560006001820155600201617929565b80821115615dfb57600061795c8282617b75565b50600101617948565b604080516101e08101909152600080825260208201908152602001600081526020016179ab60405180606001604052806060815260200160008152602001600081525090565b81526020016179d460405180606001604052806060815260200160008152602001600081525090565b81526020016179fd60405180606001604052806060815260200160008152602001600081525090565b8152602001617a2660405180606001604052806060815260200160008152602001600081525090565b8152602001617a4f60405180606001604052806060815260200160008152602001600081525090565b8152602001617a7860405180606001604052806060815260200160008152602001600081525090565b8152602001617aa160405180606001604052806060815260200160008152602001600081525090565b8152602001617aca60405180606001604052806060815260200160008152602001600081525090565b8152602001617aec604051806040016040528060608152602001600081525090565b8152602001617b0e604051806040016040528060608152602001600081525090565b8152602001617b30604051806040016040528060608152602001600081525090565b8152602001617b52604051806040016040528060608152602001600081525090565b905290565b508054600082559060005260206000209081019061260d9190617948565b50805460008255600301600490049060005260206000209081019061260d919061763d565b6020808252825182820181905260009190848201906040850190845b81811015617bd257835183529284019291840191600101617bb6565b50909695505050505050565b6000815180845260005b81811015617c0457602081850181015186830182015201617be8565b506000602082860101526020601f19601f83011685010191505092915050565b608081526000617c376080830187617bde565b6020830195909552506040810192909252606090910152919050565b634e487b7160e01b600052604160045260246000fd5b604051601f8201601f1916810167ffffffffffffffff81118282101715617c9257617c92617c53565b604052919050565b600067ffffffffffffffff821115617cb457617cb4617c53565b5060051b60200190565b8060070b811461260d57600080fd5b803560098110617cdc57600080fd5b919050565b600080600060608486031215617cf657600080fd5b833567ffffffffffffffff811115617d0d57600080fd5b8401601f81018613617d1e57600080fd5b80356020617d33617d2e83617c9a565b617c69565b82815260059290921b83018101918181019089841115617d5257600080fd5b938201935b83851015617d79578435617d6a81617cbe565b82529382019390820190617d57565b9650508601359350617d9091505060408501617ccd565b90509250925092565b60008083601f840112617dab57600080fd5b50813567ffffffffffffffff811115617dc357600080fd5b6020830191508360208260051b8501011115617dde57600080fd5b9250929050565b60008060008060608587031215617dfb57600080fd5b8435935060208501359250604085013567ffffffffffffffff811115617e2057600080fd5b617e2c87828801617d99565b95989497509550505050565b600060208284031215617e4a57600080fd5b5035919050565b600081518084526020808501945080840160005b83811015617e8457815160070b87529582019590820190600101617e65565b509495945050505050565b600081518084526020808501808196508360051b8101915082860160005b85811015617ed7578284038952617ec5848351617e51565b98850198935090840190600101617ead565b5091979650505050505050565b85815284602082015260a060408201526000617f0360a0830186617e8f565b8281036060840152617f158186617e8f565b90508281036080840152617f298185617e51565b98975050505050505050565b634e487b7160e01b600052602160045260246000fd5b60008185825b6003811015617f70578151835260209283019290910190600101617f51565b50505060a06060830152617f8760a0830185617bde565b828103608084015283518082526020808601928101919060005b82811015617fe6578451805160098110617fcb57634e487b7160e01b600052602160045260246000fd5b85528201518285015293810193604090930192600101617fa1565b509198975050505050505050565b8481528360208201526080604082015260006180136080830185617e8f565b82810360608401526180258185617e51565b979650505050505050565b6000602080838503121561804357600080fd5b823567ffffffffffffffff81111561805a57600080fd5b8301601f8101851361806b57600080fd5b8035618079617d2e82617c9a565b81815260059190911b8201830190838101908783111561809857600080fd5b928401925b828410156180255783358252928401929084019061809d565b600080602083850312156180c957600080fd5b823567ffffffffffffffff8111156180e057600080fd5b6180ec85828601617d99565b90969095509350505050565b6001600160a01b038116811461260d57600080fd5b60006020828403121561811f57600080fd5b81356139cf816180f8565b600181811c9082168061813e57607f821691505b6020821081036161eb57634e487b7160e01b600052602260045260246000fd5b60006020828403121561817057600080fd5b81516139cf816180f8565b634e487b7160e01b600052603260045260246000fd5b634e487b7160e01b600052601160045260246000fd5b80820180821115612eaf57612eaf618191565b60008184825b858110156181eb5781356181d381617cbe565b60070b835260209283019291909101906001016181c0565b509095945050505050565b81810381811115612eaf57612eaf618191565b60006020828403121561821b57600080fd5b81356139cf81617cbe565b6000600019820361823957618239618191565b5060010190565b6020815260006139cf6020830184617e51565b8082028115828204841417612eaf57612eaf618191565b634e487b7160e01b600052601260045260246000fd5b60008261828f5761828f61826a565b500490565b6000826182a3576182a361826a565b500690565b60008083357fffffffffffffffffffffffffffffffffffffffffffffffffffffffffffffffe18436030181126182dd57600080fd5b83018035915067ffffffffffffffff8211156182f857600080fd5b602001915036819003821315617dde57600080fd5b80820260008212600160ff1b8414161561832957618329618191565b8181058314821517612eaf57612eaf618191565b60008261834c5761834c61826a565b6000198314600160ff1b8314161561836657618366618191565b500590565b805160ff81168114617cdc57600080fd5b60006020828403121561838e57600080fd5b6139cf8261836b565b600080604083850312156183aa57600080fd5b6183b38361836b565b9150615aab6020840161836b565b600080600060a084860312156183d657600080fd5b6183df8461836b565b925060206183ee81860161836b565b925085605f8601126183ff57600080fd5b6040516060810181811067ffffffffffffffff8211171561842257618422617c53565b6040528060a087018881111561843757600080fd5b604088015b81811015618453578051835291840191840161843c565b50505080925050509250925092565b6020815260006139cf6020830184617e8f565b808201828112600083128015821682158216171561849557618495618191565b505092915050565b6000806000606084860312156184b257600080fd5b6184bb8461836b565b92506184c96020850161836b565b9150604084015190509250925092565b6000806000606084860312156184ee57600080fd5b6184f78461836b565b925060208401519150604084015190509250925092565b60008060006060848603121561852357600080fd5b61852c8461836b565b9250602084015161853c81617cbe565b604085015190925061854d81617cbe565b809150509250925092565b600080600080600060a0868803121561857057600080fd5b6185798661836b565b94506185876020870161836b565b93506185956040870161836b565b606087015160809097015195989497509594939250505056fea264697066735822122096fa4597b506e4e8b4d2925913150dfeddc124d0422ae9fad3cbe313bf90f73e64736f6c63430008130033",
  "linkReferences": {},
  "deployedLinkReferences": {}
}