{
  "_format": "hh-sol-artifact-1",
  "contractName": "TextRNN",
  "sourceName": "contracts/TextRNN.sol",
  "abi": [
    {
      "inputs": [
        {
          "internalType": "string",
          "name": "_modelName",
          "type": "string"
        },
        {
          "internalType": "address",
          "name": "_modelRegistry",
          "type": "address"
        }
      ],
      "stateMutability": "nonpayable",
      "type": "constructor"
    },
    {
      "inputs": [],
      "name": "IncorrectInputLayerType",
      "type": "error"
    },
    {
      "inputs": [],
      "name": "IncorrectModelId",
      "type": "error"
    },
    {
      "inputs": [],
      "name": "InvalidActivationFunction",
      "type": "error"
    },
    {
      "inputs": [],
      "name": "InvalidMatrixDimensions",
      "type": "error"
    },
    {
      "inputs": [],
      "name": "NotModelRegistry",
      "type": "error"
    },
    {
      "inputs": [],
      "name": "NotTokenOwner",
      "type": "error"
    },
    {
      "inputs": [
        {
          "internalType": "uint256",
          "name": "x",
          "type": "uint256"
        },
        {
          "internalType": "uint256",
          "name": "y",
          "type": "uint256"
        },
        {
          "internalType": "uint256",
          "name": "denominator",
          "type": "uint256"
        }
      ],
      "name": "PRBMath_MulDiv_Overflow",
      "type": "error"
    },
    {
      "inputs": [],
      "name": "PRBMath_SD59x18_Div_InputTooSmall",
      "type": "error"
    },
    {
      "inputs": [
        {
          "internalType": "SD59x18",
          "name": "x",
          "type": "int256"
        },
        {
          "internalType": "SD59x18",
          "name": "y",
          "type": "int256"
        }
      ],
      "name": "PRBMath_SD59x18_Div_Overflow",
      "type": "error"
    },
    {
      "inputs": [
        {
          "internalType": "SD59x18",
          "name": "x",
          "type": "int256"
        }
      ],
      "name": "PRBMath_SD59x18_Exp2_InputTooBig",
      "type": "error"
    },
    {
      "inputs": [
        {
          "internalType": "SD59x18",
          "name": "x",
          "type": "int256"
        }
      ],
      "name": "PRBMath_SD59x18_Exp_InputTooBig",
      "type": "error"
    },
    {
      "inputs": [],
      "name": "TooMuchData",
      "type": "error"
    },
    {
      "inputs": [],
      "name": "UnknownTokenNotInVocabs",
      "type": "error"
    },
    {
      "anonymous": false,
      "inputs": [
        {
          "indexed": true,
          "internalType": "address",
          "name": "owner",
          "type": "address"
        },
        {
          "indexed": true,
          "internalType": "uint256",
          "name": "tokenId",
          "type": "uint256"
        }
      ],
      "name": "Deployed",
      "type": "event"
    },
    {
      "anonymous": false,
      "inputs": [
        {
          "indexed": true,
          "internalType": "address",
          "name": "previousOwner",
          "type": "address"
        },
        {
          "indexed": true,
          "internalType": "address",
          "name": "newOwner",
          "type": "address"
        }
      ],
      "name": "OwnershipTransferred",
      "type": "event"
    },
    {
      "anonymous": false,
      "inputs": [
        {
          "indexed": true,
          "internalType": "uint256",
          "name": "tokenId",
          "type": "uint256"
        },
        {
          "indexed": false,
          "internalType": "string",
          "name": "result",
          "type": "string"
        },
        {
          "indexed": false,
          "internalType": "Float32x32[][][]",
          "name": "states",
          "type": "int64[][][]"
        },
        {
          "indexed": false,
          "internalType": "uint256",
          "name": "seed",
          "type": "uint256"
        }
      ],
      "name": "TextGenerated",
      "type": "event"
    },
    {
      "inputs": [
        {
          "internalType": "uint256",
          "name": "_modelId",
          "type": "uint256"
        },
        {
          "internalType": "Float32x32[]",
          "name": "weights",
          "type": "int64[]"
        },
        {
          "internalType": "uint256",
          "name": "layerInd",
          "type": "uint256"
        },
        {
          "internalType": "enum Layers.LayerType",
          "name": "layerType",
          "type": "uint8"
        }
      ],
      "name": "appendWeights",
      "outputs": [],
      "stateMutability": "nonpayable",
      "type": "function"
    },
    {
      "inputs": [
        {
          "internalType": "uint256",
          "name": "_modelId",
          "type": "uint256"
        },
        {
          "internalType": "string",
          "name": "prompt",
          "type": "string"
        },
        {
          "internalType": "uint256",
          "name": "toGenerate",
          "type": "uint256"
        },
        {
          "internalType": "Float32x32[][][]",
          "name": "states",
          "type": "int64[][][]"
        },
        {
          "internalType": "uint256",
          "name": "seed",
          "type": "uint256"
        }
      ],
      "name": "generateText",
      "outputs": [],
      "stateMutability": "nonpayable",
      "type": "function"
    },
    {
      "inputs": [
        {
          "internalType": "uint256",
          "name": "_modelId",
          "type": "uint256"
        },
        {
          "internalType": "uint256",
          "name": "layerIdx",
          "type": "uint256"
        }
      ],
      "name": "getDenseLayer",
      "outputs": [
        {
          "internalType": "uint256",
          "name": "dim_in",
          "type": "uint256"
        },
        {
          "internalType": "uint256",
          "name": "dim_out",
          "type": "uint256"
        },
        {
          "internalType": "Float32x32[][]",
          "name": "w",
          "type": "int64[][]"
        },
        {
          "internalType": "Float32x32[]",
          "name": "b",
          "type": "int64[]"
        }
      ],
      "stateMutability": "view",
      "type": "function"
    },
    {
      "inputs": [],
      "name": "getInfo",
      "outputs": [
        {
          "internalType": "string",
          "name": "modelName",
          "type": "string"
        },
        {
          "internalType": "string[]",
          "name": "vocabs",
          "type": "string[]"
        },
        {
          "components": [
            {
              "internalType": "enum Layers.LayerType",
              "name": "layerType",
              "type": "uint8"
            },
            {
              "internalType": "uint256",
              "name": "layerIndex",
              "type": "uint256"
            }
          ],
          "internalType": "struct IOnchainModel.Info[]",
          "name": "layers",
          "type": "tuple[]"
        }
      ],
      "stateMutability": "view",
      "type": "function"
    },
    {
      "inputs": [
        {
          "internalType": "uint256",
          "name": "_modelId",
          "type": "uint256"
        },
        {
          "internalType": "uint256",
          "name": "layerIdx",
          "type": "uint256"
        }
      ],
      "name": "getLSTMLayer",
      "outputs": [
        {
          "internalType": "uint256",
          "name": "",
          "type": "uint256"
        },
        {
          "internalType": "uint256",
          "name": "",
          "type": "uint256"
        },
        {
          "internalType": "Float32x32[][]",
          "name": "",
          "type": "int64[][]"
        },
        {
          "internalType": "Float32x32[][]",
          "name": "",
          "type": "int64[][]"
        },
        {
          "internalType": "Float32x32[]",
          "name": "",
          "type": "int64[]"
        }
      ],
      "stateMutability": "view",
      "type": "function"
    },
    {
      "inputs": [],
      "name": "model",
      "outputs": [
        {
          "internalType": "string",
          "name": "modelName",
          "type": "string"
        },
        {
          "internalType": "uint256",
          "name": "requiredWeights",
          "type": "uint256"
        },
        {
          "internalType": "uint256",
          "name": "appendedWeights",
          "type": "uint256"
        }
      ],
      "stateMutability": "view",
      "type": "function"
    },
    {
      "inputs": [],
      "name": "modelId",
      "outputs": [
        {
          "internalType": "uint256",
          "name": "",
          "type": "uint256"
        }
      ],
      "stateMutability": "view",
      "type": "function"
    },
    {
      "inputs": [],
      "name": "modelRegistry",
      "outputs": [
        {
          "internalType": "contract IModelRegPublic",
          "name": "",
          "type": "address"
        }
      ],
      "stateMutability": "view",
      "type": "function"
    },
    {
      "inputs": [],
      "name": "owner",
      "outputs": [
        {
          "internalType": "address",
          "name": "",
          "type": "address"
        }
      ],
      "stateMutability": "view",
      "type": "function"
    },
    {
      "inputs": [],
      "name": "renounceOwnership",
      "outputs": [],
      "stateMutability": "nonpayable",
      "type": "function"
    },
    {
      "inputs": [
        {
          "internalType": "uint256",
          "name": "_modelId",
          "type": "uint256"
        }
      ],
      "name": "setModelId",
      "outputs": [],
      "stateMutability": "nonpayable",
      "type": "function"
    },
    {
      "inputs": [
        {
          "internalType": "uint256",
          "name": "_modelId",
          "type": "uint256"
        },
        {
          "internalType": "bytes[]",
          "name": "layersConfig",
          "type": "bytes[]"
        }
      ],
      "name": "setOnchainModel",
      "outputs": [],
      "stateMutability": "nonpayable",
      "type": "function"
    },
    {
      "inputs": [
        {
          "internalType": "uint256",
          "name": "_modelId",
          "type": "uint256"
        },
        {
          "internalType": "string[]",
          "name": "vocabs",
          "type": "string[]"
        },
        {
          "internalType": "string",
          "name": "unkToken",
          "type": "string"
        }
      ],
      "name": "setVocabs",
      "outputs": [],
      "stateMutability": "nonpayable",
      "type": "function"
    },
    {
      "inputs": [
        {
          "internalType": "address",
          "name": "newOwner",
          "type": "address"
        }
      ],
      "name": "transferOwnership",
      "outputs": [],
      "stateMutability": "nonpayable",
      "type": "function"
    },
    {
      "inputs": [],
      "name": "vocabInfo",
      "outputs": [
        {
          "internalType": "uint256",
          "name": "unkIndex",
          "type": "uint256"
        }
      ],
      "stateMutability": "view",
      "type": "function"
    }
  ],
  "bytecode": "0x60806040523480156200001157600080fd5b5060405162009f9a38038062009f9a8339810160408190526200003491620000fd565b6200003f336200007a565b60016200004d838262000274565b50600e80546001600160a01b0319166001600160a01b039290921691909117905550600160105562000340565b600080546001600160a01b038381166001600160a01b0319831681178455604051919092169283917f8be0079c531659141344cd1fd0a4f28419497f9722a3daafe3b4186f6b6457e09190a35050565b634e487b7160e01b600052604160045260246000fd5b80516001600160a01b0381168114620000f857600080fd5b919050565b600080604083850312156200011157600080fd5b82516001600160401b03808211156200012957600080fd5b818501915085601f8301126200013e57600080fd5b815181811115620001535762000153620000ca565b604051601f8201601f19908116603f011681019083821181831017156200017e576200017e620000ca565b816040528281526020935088848487010111156200019b57600080fd5b600091505b82821015620001bf5784820184015181830185015290830190620001a0565b6000848483010152809650505050620001da818601620000e0565b925050509250929050565b600181811c90821680620001fa57607f821691505b6020821081036200021b57634e487b7160e01b600052602260045260246000fd5b50919050565b601f8211156200026f57600081815260208120601f850160051c810160208610156200024a5750805b601f850160051c820191505b818110156200026b5782815560010162000256565b5050505b505050565b81516001600160401b03811115620002905762000290620000ca565b620002a881620002a18454620001e5565b8462000221565b602080601f831160018114620002e05760008415620002c75750858301515b600019600386901b1c1916600185901b1785556200026b565b600085815260208120601f198616915b828110156200031157888601518255948401946001909101908401620002f0565b5085821015620003305787850151600019600388901b60f8161c191681555b5050505050600190811b01905550565b619c4a80620003506000396000f3fe608060405234801561001057600080fd5b50600436106100f55760003560e01c80637b2bb4d911610097578063b9dd602e11610066578063b9dd602e1461020e578063d22e883414610218578063f2fde38b1461022b578063fd8e5e301461023e57600080fd5b80637b2bb4d9146101b35780638a4b15a3146101d75780638da5cb5b146101ea578063aa4d9687146101fb57600080fd5b806343cdaad2116100d357806343cdaad2146101685780634d1c23c01461017f5780635a9b0b8914610194578063715018a6146101ab57600080fd5b80630ad9d052146100fa57806318c26a181461011a5780632ba36f781461013d575b600080fd5b610102610251565b60405161011193929190618ebb565b60405180910390f35b61012d610128366004618ee0565b6102ef565b6040516101119493929190618f98565b600e54610150906001600160a01b031681565b6040516001600160a01b039091168152602001610111565b610171600f5481565b604051908152602001610111565b61019261018d366004618fd4565b61052e565b005b61019c61070f565b60405161011193929190619003565b61019261091c565b6101c66101c1366004618ee0565b610930565b6040516101119594939291906190db565b6101926101e5366004619282565b6113d7565b6000546001600160a01b0316610150565b61019261020936600461940d565b611471565b600d546101719081565b6101926102263660046194ec565b61164a565b610192610239366004619568565b611940565b61019261024c366004619585565b6119ec565b60018054819061026090619604565b80601f016020809104026020016040519081016040528092919081815260200182805461028c90619604565b80156102d95780601f106102ae576101008083540402835291602001916102d9565b820191906000526020600020905b8154815290600101906020018083116102bc57829003601f168201915b5050505050908060020154908060030154905083565b60008060608060006001600601868154811061030d5761030d619638565b90600052602060002090600a02016040518060e0016040529081600082015481526020016001820160009054906101000a900460ff16600481111561035457610354618fed565b600481111561036557610365618fed565b8152602001600282015481526020016003820160405180606001604052908160008201805480602002602001604051908101604052809291908181526020016000905b828210156104375760008481526020908190208301805460408051828502810185019091528181529283018282801561042357602002820191906000526020600020906000905b825461010083900a900460070b81526020600f83018190049384019360010360089093019290920291018084116103ef5790505b5050505050815260200190600101906103a8565b50505050815260200160018201548152602001600282015481525050815260200160068201604051806040016040529081600082018054806020026020016040519081016040528092919081815260200182805480156104d957602002820191906000526020600020906000905b825461010083900a900460070b81526020600f83018190049384019360010360089093019290920291018084116104a55790505b50505091835250506001919091015460209182015290825260088301548282015260099092015460409182015260608301519182015190820151915160809093015151909a9199509197509095509350505050565b600e546001600160a01b03163314610572576040517f4099888a00000000000000000000000000000000000000000000000000000000815260040160405180910390fd5b6000600f5411806106105750600e546040517fa9def49d0000000000000000000000000000000000000000000000000000000081526004810183905230916001600160a01b03169063a9def49d90602401602060405180830381865afa1580156105e0573d6000803e3d6000fd5b505050506040513d601f19601f82011682018060405250810190610604919061964e565b6001600160a01b031614155b15610647576040517f4510f92400000000000000000000000000000000000000000000000000000000815260040160405180910390fd5b600f81905560035460045414801561066157506000600f54115b1561070c57600f54600e546040516331a9108f60e11b8152600481018390526001600160a01b0390911690636352211e90602401602060405180830381865afa1580156106b2573d6000803e3d6000fd5b505050506040513d601f19601f820116820180604052508101906106d6919061964e565b6001600160a01b03167fb03c53b28e78a88e31607a27e1fa48234dce28d5d9d9ec7b295aeb02e674a1e160405160405180910390a35b50565b60608060606001600001600b600001600160040182805461072f90619604565b80601f016020809104026020016040519081016040528092919081815260200182805461075b90619604565b80156107a85780601f1061077d576101008083540402835291602001916107a8565b820191906000526020600020905b81548152906001019060200180831161078b57829003601f168201915b5050505050925081805480602002602001604051908101604052809291908181526020016000905b8282101561087c5783829060005260206000200180546107ef90619604565b80601f016020809104026020016040519081016040528092919081815260200182805461081b90619604565b80156108685780601f1061083d57610100808354040283529160200191610868565b820191906000526020600020905b81548152906001019060200180831161084b57829003601f168201915b5050505050815260200190600101906107d0565b50505050915080805480602002602001604051908101604052809291908181526020016000905b8282101561090b5760008481526020902060408051808201909152600284029091018054829060ff1660088111156108dd576108dd618fed565b60088111156108ee576108ee618fed565b8152602001600182015481525050815260200190600101906108a3565b505050509050925092509250909192565b610924611bab565b61092e6000611c1f565b565b600080606080606060006001600901878154811061095057610950619638565b90600052602060002090602602016040518060a0016040529081600082015481526020016001820154815260200160028201604051806101e0016040529081600082015481526020016001820160009054906101000a900460ff1660048111156109bc576109bc618fed565b60048111156109cd576109cd618fed565b81526020016001820160019054906101000a900460ff1660048111156109f5576109f5618fed565b6004811115610a0657610a06618fed565b81526020016002820160405180606001604052908160008201805480602002602001604051908101604052809291908181526020016000905b82821015610ace57600084815260209081902083018054604080518285028101850190915281815292830182828015610aba57602002820191906000526020600020906000905b825461010083900a900460070b81526020600f8301819004938401936001036008909301929092029101808411610a865790505b505050505081526020019060010190610a3f565b5050505081526020016001820154815260200160028201548152505081526020016005820160405180606001604052908160008201805480602002602001604051908101604052809291908181526020016000905b82821015610bb257600084815260209081902083018054604080518285028101850190915281815292830182828015610b9e57602002820191906000526020600020906000905b825461010083900a900460070b81526020600f8301819004938401936001036008909301929092029101808411610b6a5790505b505050505081526020019060010190610b23565b5050505081526020016001820154815260200160028201548152505081526020016008820160405180606001604052908160008201805480602002602001604051908101604052809291908181526020016000905b82821015610c9657600084815260209081902083018054604080518285028101850190915281815292830182828015610c8257602002820191906000526020600020906000905b825461010083900a900460070b81526020600f8301819004938401936001036008909301929092029101808411610c4e5790505b505050505081526020019060010190610c07565b505050508152602001600182015481526020016002820154815250508152602001600b820160405180606001604052908160008201805480602002602001604051908101604052809291908181526020016000905b82821015610d7a57600084815260209081902083018054604080518285028101850190915281815292830182828015610d6657602002820191906000526020600020906000905b825461010083900a900460070b81526020600f8301819004938401936001036008909301929092029101808411610d325790505b505050505081526020019060010190610ceb565b505050508152602001600182015481526020016002820154815250508152602001600e820160405180606001604052908160008201805480602002602001604051908101604052809291908181526020016000905b82821015610e5e57600084815260209081902083018054604080518285028101850190915281815292830182828015610e4a57602002820191906000526020600020906000905b825461010083900a900460070b81526020600f8301819004938401936001036008909301929092029101808411610e165790505b505050505081526020019060010190610dcf565b5050505081526020016001820154815260200160028201548152505081526020016011820160405180606001604052908160008201805480602002602001604051908101604052809291908181526020016000905b82821015610f4257600084815260209081902083018054604080518285028101850190915281815292830182828015610f2e57602002820191906000526020600020906000905b825461010083900a900460070b81526020600f8301819004938401936001036008909301929092029101808411610efa5790505b505050505081526020019060010190610eb3565b5050505081526020016001820154815260200160028201548152505081526020016014820160405180606001604052908160008201805480602002602001604051908101604052809291908181526020016000905b828210156110265760008481526020908190208301805460408051828502810185019091528181529283018282801561101257602002820191906000526020600020906000905b825461010083900a900460070b81526020600f8301819004938401936001036008909301929092029101808411610fde5790505b505050505081526020019060010190610f97565b5050505081526020016001820154815260200160028201548152505081526020016017820160405180606001604052908160008201805480602002602001604051908101604052809291908181526020016000905b8282101561110a576000848152602090819020830180546040805182850281018501909152818152928301828280156110f657602002820191906000526020600020906000905b825461010083900a900460070b81526020600f83018190049384019360010360089093019290920291018084116110c25790505b50505050508152602001906001019061107b565b505050508152602001600182015481526020016002820154815250508152602001601a8201604051806040016040529081600082018054806020026020016040519081016040528092919081815260200182805480156111ac57602002820191906000526020600020906000905b825461010083900a900460070b81526020600f83018190049384019360010360089093019290920291018084116111785790505b505050505081526020016001820154815250508152602001601c82016040518060400160405290816000820180548060200260200160405190810160405280929190818152602001828054801561124557602002820191906000526020600020906000905b825461010083900a900460070b81526020600f83018190049384019360010360089093019290920291018084116112115790505b505050505081526020016001820154815250508152602001601e8201604051806040016040529081600082018054806020026020016040519081016040528092919081815260200182805480156112de57602002820191906000526020600020906000905b825461010083900a900460070b81526020600f83018190049384019360010360089093019290920291018084116112aa5790505b505050505081526020016001820154815250508152602001602082016040518060400160405290816000820180548060200260200160405190810160405280929190818152602001828054801561137757602002820191906000526020600020906000905b825461010083900a900460070b81526020600f83018190049384019360010360089093019290920291018084116113435790505b5050509183525050600191909101546020918201529152918352506024830154828201526025909201546040918201528201519101518151608083015151610100840151516101809094015151929c919b50995091975095509350505050565b600f54600003611413576040517f4510f92400000000000000000000000000000000000000000000000000000000815260040160405180910390fd5b606061142185858585611c87565b600f546040519296509094509192507f24e6208ee3b2dd5befe4deb62d7248842134648173b577ef287e2efb60b22891906114619084908790879061966b565b60405180910390a2505050505050565b6000546001600160a01b0316331480159061148e57506000600f54115b80156115215750600e54600f546040516331a9108f60e11b81526001600160a01b0390921691636352211e916114ca9160040190815260200190565b602060405180830381865afa1580156114e7573d6000803e3d6000fd5b505050506040513d601f19601f8201168201806040525081019061150b919061964e565b6001600160a01b0316336001600160a01b031614155b1561153f576040516359dc379f60e01b815260040160405180910390fd5b8151600b9061155490829060208601906184db565b5060005b83518110156115bb5761156c81600161973f565b82600101600061159a87858151811061158757611587619638565b6020026020010151805160209091012090565b81526020810191909152604001600020556115b481619752565b9050611558565b5081516020808401919091206000908152600183810190925260409020546002830181905561160e9185916115f0919061976c565b8151811061160057611600619638565b602002602001015183613288565b611644576040517fe03e966700000000000000000000000000000000000000000000000000000000815260040160405180910390fd5b50505050565b6000546001600160a01b0316331480159061166757506000600f54115b80156116fa5750600e54600f546040516331a9108f60e11b81526001600160a01b0390921691636352211e916116a39160040190815260200190565b602060405180830381865afa1580156116c0573d6000803e3d6000fd5b505050506040513d601f19601f820116820180604052508101906116e4919061964e565b6001600160a01b0316336001600160a01b031614155b15611718576040516359dc379f60e01b815260040160405180910390fd5b6000600182600881111561172e5761172e618fed565b0361177057611769846001600601858154811061174d5761174d619638565b90600052602060002090600a02016132a390919063ffffffff16565b9050611860565b600682600881111561178457611784618fed565b036117bf5761176984600160070185815481106117a3576117a3619638565b906000526020600020906008020161349d90919063ffffffff16565b60078260088111156117d3576117d3618fed565b0361180e5761176984600160080185815481106117f2576117f2619638565b90600052602060002090600d02016135d890919063ffffffff16565b600882600881111561182257611822618fed565b036118605761185d846001600901858154811061184157611841619638565b90600052602060002090602602016138c890919063ffffffff16565b90505b8060016003016000828254611875919061973f565b909155505060035460045414801561188d5750600085115b1561193957600e54600f546040516331a9108f60e11b8152600481019190915286916001600160a01b031690636352211e90602401602060405180830381865afa1580156118df573d6000803e3d6000fd5b505050506040513d601f19601f82011682018060405250810190611903919061964e565b6001600160a01b03167fb03c53b28e78a88e31607a27e1fa48234dce28d5d9d9ec7b295aeb02e674a1e160405160405180910390a35b5050505050565b611948611bab565b6001600160a01b0381166119e3576040517f08c379a000000000000000000000000000000000000000000000000000000000815260206004820152602660248201527f4f776e61626c653a206e6577206f776e657220697320746865207a65726f206160448201527f646472657373000000000000000000000000000000000000000000000000000060648201526084015b60405180910390fd5b61070c81611c1f565b6000546001600160a01b03163314801590611a0957506000600f54115b8015611a9c5750600e54600f546040516331a9108f60e11b81526001600160a01b0390921691636352211e91611a459160040190815260200190565b602060405180830381865afa158015611a62573d6000803e3d6000fd5b505050506040513d601f19601f82011682018060405250810190611a86919061964e565b6001600160a01b0316336001600160a01b031614155b15611aba576040516359dc379f60e01b815260040160405180910390fd5b60055415611b0a57611ace6006600061852d565b611ada6007600061854b565b611ae66008600061856c565b611af26009600061858d565b611afe600a60006185ae565b611b0a600560006185cf565b6000600381905560048190556060905b8281101561193957611b976040518060400160405280868685818110611b4257611b42619638565b9050602002810190611b54919061977f565b8080601f01602080910402602001604051908101604052809392919081815260200183838082843760009201919091525050509082525060200183905283613f8f565b915080611ba381619752565b915050611b1a565b6000546001600160a01b0316331461092e576040517f08c379a000000000000000000000000000000000000000000000000000000000815260206004820181905260248201527f4f776e61626c653a2063616c6c6572206973206e6f7420746865206f776e657260448201526064016119da565b600080546001600160a01b038381167fffffffffffffffffffffffff0000000000000000000000000000000000000000831681178455604051919092169283917f8be0079c531659141344cd1fd0a4f28419497f9722a3daafe3b4186f6b6457e09190a35050565b60608060008063b333333390506000600160405180610140016040529081600082018054611cb490619604565b80601f0160208091040260200160405190810160405280929190818152602001828054611ce090619604565b8015611d2d5780601f10611d0257610100808354040283529160200191611d2d565b820191906000526020600020905b815481529060010190602001808311611d1057829003601f168201915b5050505050815260200160018201805480602002602001604051908101604052809291908181526020016000905b82821015611e07578382906000526020600020018054611d7a90619604565b80601f0160208091040260200160405190810160405280929190818152602001828054611da690619604565b8015611df35780601f10611dc857610100808354040283529160200191611df3565b820191906000526020600020905b815481529060010190602001808311611dd657829003601f168201915b505050505081526020019060010190611d5b565b505050508152602001600282015481526020016003820154815260200160048201805480602002602001604051908101604052809291908181526020016000905b82821015611eb05760008481526020902060408051808201909152600284029091018054829060ff166008811115611e8257611e82618fed565b6008811115611e9357611e93618fed565b815260200160018201548152505081526020019060010190611e48565b50505050815260200160058201805480602002602001604051908101604052809291908181526020016000905b82821015611f0e57600084815260209081902060408051808401909152908401548152825260019092019101611edd565b50505050815260200160068201805480602002602001604051908101604052809291908181526020016000905b8282101561214b57838290600052602060002090600a02016040518060e0016040529081600082015481526020016001820160009054906101000a900460ff166004811115611f8c57611f8c618fed565b6004811115611f9d57611f9d618fed565b8152602001600282015481526020016003820160405180606001604052908160008201805480602002602001604051908101604052809291908181526020016000905b8282101561206f5760008481526020908190208301805460408051828502810185019091528181529283018282801561205b57602002820191906000526020600020906000905b825461010083900a900460070b81526020600f83018190049384019360010360089093019290920291018084116120275790505b505050505081526020019060010190611fe0565b505050508152602001600182015481526020016002820154815250508152602001600682016040518060400160405290816000820180548060200260200160405190810160405280929190818152602001828054801561211157602002820191906000526020600020906000905b825461010083900a900460070b81526020600f83018190049384019360010360089093019290920291018084116120dd5790505b5050505050815260200160018201548152505081526020016008820154815260200160098201548152505081526020019060010190611f3b565b50505050815260200160078201805480602002602001604051908101604052809291908181526020016000905b828210156122c057838290600052602060002090600802016040518060c00160405290816000820154815260200160018201548152602001600282015481526020016003820160405180606001604052908160008201805480602002602001604051908101604052809291908181526020016000905b8282101561227d5760008481526020908190208301805460408051828502810185019091528181529283018282801561226957602002820191906000526020600020906000905b825461010083900a900460070b81526020600f83018190049384019360010360089093019290920291018084116122355790505b5050505050815260200190600101906121ee565b5050505081526020016001820154815260200160028201548152505081526020016006820154815260200160078201548152505081526020019060010190612178565b50505050815260200160088201805480602002602001604051908101604052809291908181526020016000905b828210156125e257838290600052602060002090600d02016040518061010001604052908160008201548152602001600182015481526020016002820160009054906101000a900460ff16600481111561234957612349618fed565b600481111561235a5761235a618fed565b81526020016003820160405180606001604052908160008201805480602002602001604051908101604052809291908181526020016000905b828210156124225760008481526020908190208301805460408051828502810185019091528181529283018282801561240e57602002820191906000526020600020906000905b825461010083900a900460070b81526020600f83018190049384019360010360089093019290920291018084116123da5790505b505050505081526020019060010190612393565b5050505081526020016001820154815260200160028201548152505081526020016006820160405180606001604052908160008201805480602002602001604051908101604052809291908181526020016000905b82821015612506576000848152602090819020830180546040805182850281018501909152818152928301828280156124f257602002820191906000526020600020906000905b825461010083900a900460070b81526020600f83018190049384019360010360089093019290920291018084116124be5790505b505050505081526020019060010190612477565b50505050815260200160018201548152602001600282015481525050815260200160098201604051806040016040529081600082018054806020026020016040519081016040528092919081815260200182805480156125a857602002820191906000526020600020906000905b825461010083900a900460070b81526020600f83018190049384019360010360089093019290920291018084116125745790505b505050505081526020016001820154815250508152602001600b8201548152602001600c82015481525050815260200190600101906122ed565b50505050815260200160098201805480602002602001604051908101604052809291908181526020016000905b8282101561307e57838290600052602060002090602602016040518060a0016040529081600082015481526020016001820154815260200160028201604051806101e0016040529081600082015481526020016001820160009054906101000a900460ff16600481111561268557612685618fed565b600481111561269657612696618fed565b81526020016001820160019054906101000a900460ff1660048111156126be576126be618fed565b60048111156126cf576126cf618fed565b81526020016002820160405180606001604052908160008201805480602002602001604051908101604052809291908181526020016000905b828210156127975760008481526020908190208301805460408051828502810185019091528181529283018282801561278357602002820191906000526020600020906000905b825461010083900a900460070b81526020600f830181900493840193600103600890930192909202910180841161274f5790505b505050505081526020019060010190612708565b5050505081526020016001820154815260200160028201548152505081526020016005820160405180606001604052908160008201805480602002602001604051908101604052809291908181526020016000905b8282101561287b5760008481526020908190208301805460408051828502810185019091528181529283018282801561286757602002820191906000526020600020906000905b825461010083900a900460070b81526020600f83018190049384019360010360089093019290920291018084116128335790505b5050505050815260200190600101906127ec565b5050505081526020016001820154815260200160028201548152505081526020016008820160405180606001604052908160008201805480602002602001604051908101604052809291908181526020016000905b8282101561295f5760008481526020908190208301805460408051828502810185019091528181529283018282801561294b57602002820191906000526020600020906000905b825461010083900a900460070b81526020600f83018190049384019360010360089093019290920291018084116129175790505b5050505050815260200190600101906128d0565b505050508152602001600182015481526020016002820154815250508152602001600b820160405180606001604052908160008201805480602002602001604051908101604052809291908181526020016000905b82821015612a4357600084815260209081902083018054604080518285028101850190915281815292830182828015612a2f57602002820191906000526020600020906000905b825461010083900a900460070b81526020600f83018190049384019360010360089093019290920291018084116129fb5790505b5050505050815260200190600101906129b4565b505050508152602001600182015481526020016002820154815250508152602001600e820160405180606001604052908160008201805480602002602001604051908101604052809291908181526020016000905b82821015612b2757600084815260209081902083018054604080518285028101850190915281815292830182828015612b1357602002820191906000526020600020906000905b825461010083900a900460070b81526020600f8301819004938401936001036008909301929092029101808411612adf5790505b505050505081526020019060010190612a98565b5050505081526020016001820154815260200160028201548152505081526020016011820160405180606001604052908160008201805480602002602001604051908101604052809291908181526020016000905b82821015612c0b57600084815260209081902083018054604080518285028101850190915281815292830182828015612bf757602002820191906000526020600020906000905b825461010083900a900460070b81526020600f8301819004938401936001036008909301929092029101808411612bc35790505b505050505081526020019060010190612b7c565b5050505081526020016001820154815260200160028201548152505081526020016014820160405180606001604052908160008201805480602002602001604051908101604052809291908181526020016000905b82821015612cef57600084815260209081902083018054604080518285028101850190915281815292830182828015612cdb57602002820191906000526020600020906000905b825461010083900a900460070b81526020600f8301819004938401936001036008909301929092029101808411612ca75790505b505050505081526020019060010190612c60565b5050505081526020016001820154815260200160028201548152505081526020016017820160405180606001604052908160008201805480602002602001604051908101604052809291908181526020016000905b82821015612dd357600084815260209081902083018054604080518285028101850190915281815292830182828015612dbf57602002820191906000526020600020906000905b825461010083900a900460070b81526020600f8301819004938401936001036008909301929092029101808411612d8b5790505b505050505081526020019060010190612d44565b505050508152602001600182015481526020016002820154815250508152602001601a820160405180604001604052908160008201805480602002602001604051908101604052809291908181526020018280548015612e7557602002820191906000526020600020906000905b825461010083900a900460070b81526020600f8301819004938401936001036008909301929092029101808411612e415790505b505050505081526020016001820154815250508152602001601c820160405180604001604052908160008201805480602002602001604051908101604052809291908181526020018280548015612f0e57602002820191906000526020600020906000905b825461010083900a900460070b81526020600f8301819004938401936001036008909301929092029101808411612eda5790505b505050505081526020016001820154815250508152602001601e820160405180604001604052908160008201805480602002602001604051908101604052809291908181526020018280548015612fa757602002820191906000526020600020906000905b825461010083900a900460070b81526020600f8301819004938401936001036008909301929092029101808411612f735790505b505050505081526020016001820154815250508152602001602082016040518060400160405290816000820180548060200260200160405190810160405280929190818152602001828054801561304057602002820191906000526020600020906000905b825461010083900a900460070b81526020600f830181900493840193600103600890930192909202910180841161300c5790505b50505050508152602001600182015481525050815250508152602001602482015481526020016025820154815250508152602001906001019061260f565b5050505081525050905060006130938a614b02565b9050606088516000036131265761010083015151156130e35761010083015180516130db916001906000836130ca576130ca619638565b602002602001015160200151614c31565b519850613126565b61012083015151156131265761012083015180516131229160029060008361310d5761310d619638565b60200260200101516040015160000151614c31565b5198505b60005b60018351613137919061976c565b811015613178576131648484838151811061315457613154619638565b60200260200101518c6000614deb565b9a50915061317181619752565b9050613129565b506000826001845161318a919061976c565b8151811061319a5761319a619638565b6020026020010151905060008b67ffffffffffffffff8111156131bf576131bf61912c565b6040519080825280602002602001820160405280156131e8578160200160208202803683370190505b50905060005b8c8110156132695760408051602081018d9052016040516020818303038152906040528051906020012060001c9a5061322a86848e6001614deb565b9c50935061323984888d6150ab565b92508282828151811061324e5761324e619638565b602090810291909101015261326281619752565b90506131ee565b506000613275826151ce565b9e9b9d50999b5050505050505050505050565b80516020820120600090835160208501201490505b92915050565b6008820154600983015460009190828281036133a757600586015460048701546000906132d19083906197cd565b90505b8651831080156132e357508084105b1561338d57600388016132f683866197fa565b8154811061330657613306619638565b9060005260206000200187848151811061332257613322619638565b60209081029190910181015182546001810184556000938452919092206004820401805460039092166008026101000a67ffffffffffffffff8181021990931692909316929092021790558361337781619752565b945050828061338590619752565b9350506132d4565b8084036133a45761339d85619752565b9450600093505b50505b826001036134665760078601545b8551821080156133c457508083105b1561344d57866006016000018683815181106133e2576133e2619638565b60209081029190910181015182546001810184556000938452919092206004820401805460039092166008026101000a67ffffffffffffffff8181021990931692909316929092021790558261343781619752565b935050818061344590619752565b9250506133b5565b8083036134645761345d84619752565b9350600092505b505b845181101561348857604051630af594f760e11b815260040160405180910390fd5b60088601929092556009850155905092915050565b6006820154600783015460009190828281036135a157600586015460048701546000906134cb9083906197cd565b90505b8651831080156134dd57508084105b1561358757600388016134f083866197fa565b8154811061350057613500619638565b9060005260206000200187848151811061351c5761351c619638565b60209081029190910181015182546001810184556000938452919092206004820401805460039092166008026101000a67ffffffffffffffff8181021990931692909316929092021790558361357181619752565b945050828061357f90619752565b9350506134ce565b80840361359e5761359785619752565b9450600093505b50505b84518110156135c357604051630af594f760e11b815260040160405180910390fd5b60068601929092556007850155905092915050565b600b820154600c83015460009190828281036136dc57600586015460048701546000906136069083906197cd565b90505b86518310801561361857508084105b156136c2576003880161362b83866197fa565b8154811061363b5761363b619638565b9060005260206000200187848151811061365757613657619638565b60209081029190910181015182546001810184556000938452919092206004820401805460039092166008026101000a67ffffffffffffffff818102199093169290931692909202179055836136ac81619752565b94505082806136ba90619752565b935050613609565b8084036136d9576136d285619752565b9450600093505b50505b826001036137d257600886015460078701546000906136fc9083906197cd565b90505b86518310801561370e57508084105b156137b8576006880161372183866197fa565b8154811061373157613731619638565b9060005260206000200187848151811061374d5761374d619638565b60209081029190910181015182546001810184556000938452919092206004820401805460039092166008026101000a67ffffffffffffffff818102199093169290931692909202179055836137a281619752565b94505082806137b090619752565b9350506136ff565b8084036137cf576137c885619752565b9450600093505b50505b8260020361389157600a8601545b8551821080156137ef57508083105b15613878578660090160000186838151811061380d5761380d619638565b60209081029190910181015182546001810184556000938452919092206004820401805460039092166008026101000a67ffffffffffffffff8181021990931692909316929092021790558261386281619752565b935050818061387090619752565b9250506137e0565b80830361388f5761388884619752565b9350600092505b505b84518110156138b357604051630af594f760e11b815260040160405180910390fd5b600b860192909255600c850155905092915050565b60258201546024830154600091600285019183828103613b3057600480850154906000906138f79083906197cd565b9050600081876002016001015461390e91906197cd565b90505b88518410801561392057508085105b15613b1557600061393183876197fa565b9050600084613940858961980e565b61394a91906197fa565b90506000613958868961980e565b9050816000036139f2578b878151811061397457613974619638565b60200260200101518a600201600001848154811061399457613994619638565b9060005260206000200182815481106139af576139af619638565b90600052602060002090600491828204019190066008026101000a81548167ffffffffffffffff021916908360070b67ffffffffffffffff160217905550613af2565b81600103613a2c578b8781518110613a0c57613a0c619638565b60200260200101518a600501600001848154811061399457613994619638565b81600203613a66578b8781518110613a4657613a46619638565b60200260200101518a600801600001848154811061399457613994619638565b8b8781518110613a7857613a78619638565b60200260200101518a600b016000018481548110613a9857613a98619638565b906000526020600020018281548110613ab357613ab3619638565b90600052602060002090600491828204019190066008026101000a81548167ffffffffffffffff021916908360070b67ffffffffffffffff1602179055505b87613afc81619752565b9850508680613b0a90619752565b975050505050613911565b808503613b2c57613b2586619752565b9550600094505b5050505b82600103613d835760108401546000613b4a8260046197cd565b905060008187600e0160010154613b6191906197cd565b90505b885184108015613b7357508085105b15613d68576000613b8483876197fa565b9050600084613b93858961980e565b613b9d91906197fa565b90506000613bab868961980e565b905081600003613c45578b8781518110613bc757613bc7619638565b60200260200101518a600e016000018481548110613be757613be7619638565b906000526020600020018281548110613c0257613c02619638565b90600052602060002090600491828204019190066008026101000a81548167ffffffffffffffff021916908360070b67ffffffffffffffff160217905550613d45565b81600103613c7f578b8781518110613c5f57613c5f619638565b60200260200101518a6011016000018481548110613be757613be7619638565b81600203613cb9578b8781518110613c9957613c99619638565b60200260200101518a6014016000018481548110613be757613be7619638565b8b8781518110613ccb57613ccb619638565b60200260200101518a6017016000018481548110613ceb57613ceb619638565b906000526020600020018281548110613d0657613d06619638565b90600052602060002090600491828204019190066008026101000a81548167ffffffffffffffff021916908360070b67ffffffffffffffff1602179055505b87613d4f81619752565b9850508680613d5d90619752565b975050505050613b64565b808503613d7f57613d7886619752565b9550600094505b5050505b82600203613f7957601b8401546000613d9d8260046197cd565b90505b875183108015613daf57508084105b15613f5f57600082613dc1838761980e565b613dcb91906197fa565b90506000613dd9848761980e565b905081600003613e5857898581518110613df557613df5619638565b602002602001015188601a016000018281548110613e1557613e15619638565b90600052602060002090600491828204019190066008026101000a81548167ffffffffffffffff021916908360070b67ffffffffffffffff160217905550613f3d565b81600103613e9257898581518110613e7257613e72619638565b602002602001015188601c016000018281548110613e1557613e15619638565b81600203613ecc57898581518110613eac57613eac619638565b602002602001015188601e016000018281548110613e1557613e15619638565b898581518110613ede57613ede619638565b6020026020010151886020016000018281548110613efe57613efe619638565b90600052602060002090600491828204019190066008026101000a81548167ffffffffffffffff021916908360070b67ffffffffffffffff1602179055505b85613f4781619752565b9650508480613f5590619752565b9550505050613da0565b808403613f7657613f6f85619752565b9450600093505b50505b6025870192909255602486015591505092915050565b606060008360000151806020019051810190613fab9190619838565b905060ff81166140d55760008460000151806020019051810190613fcf9190619853565b91505060ff811660011461400f576040517f4fa6915d00000000000000000000000000000000000000000000000000000000815260040160405180910390fd5b60008061401b876152ed565b6006805460018082018355600083815285517ff652222313e28459528d920b65115c16c04f3efc82aaedc97be59f3f377c0d3f90930192909255604080518082019091529182529154939550919350600592602083019161407b9161976c565b9052815460018181018455600093845260209093208251600290920201805492939092839160ff19909116908360088111156140b9576140b9618fed565b0217905550602082015181600101555050809550505050614afa565b60001960ff82160161429d5760008060006140f08787615350565b60078054600181810183556000929092528451600a9091027fa66cc928b5edb82af9bd49922954155ab7b0942694bea4ce44661d9a8736c688810191825560208601517fa66cc928b5edb82af9bd49922954155ab7b0942694bea4ce44661d9a8736c6899091018054969950949750929550879490939160ff199091169083600481111561418057614180618fed565b02179055506040820151600282015560608201518051805160038401916141ac918391602001906185f0565b506020828101516001830155604090920151600290910155608083015180518051919260068501926141e19284920190618649565b5060208201518160010155505060a0820151816008015560c0820151816009015550508060016002016000828254614219919061973f565b9091555050604080518082019091526001808252600754600592916020830191614243919061976c565b9052815460018181018455600093845260209093208251600290920201805492939092839160ff199091169083600881111561428157614281618fed565b0217905550602082015181600101555050819550505050614afa565b7ffffffffffffffffffffffffffffffffffffffffffffffffffffffffffffffffa60ff82160161447a5760008060006142d5876154b0565b600880546001810182556000829052845191027ff3f7a9fe364faab93b216da50a3214154f22a0a2b415b23a84c8169e8b636ee381019182556020808601517ff3f7a9fe364faab93b216da50a3214154f22a0a2b415b23a84c8169e8b636ee483015560408601517ff3f7a9fe364faab93b216da50a3214154f22a0a2b415b23a84c8169e8b636ee5830155606086015180518051979a50959850939650889592947ff3f7a9fe364faab93b216da50a3214154f22a0a2b415b23a84c8169e8b636ee6909201926143a992849201906185f0565b50602082015181600101556040820151816002015550506080820151816006015560a08201518160070155505080600160020160008282546143eb919061973f565b909155505060085491955085916000906144079060019061976c565b604080518082019091529091506005908060065b8152602090810184905282546001818101855560009485529190932082516002909402018054929390929091839160ff19169083600881111561446057614460618fed565b021790555060208201518160010155505050505050614afa565b7ffffffffffffffffffffffffffffffffffffffffffffffffffffffffffffffff960ff8216016146645760008060006144b38787615571565b60098054600181810183556000929092528451600d9091027f6e1540171b6c0c960b71a7020d9f60077f6af931a8bbf590da0223dacf75c7af810191825560208601517f6e1540171b6c0c960b71a7020d9f60077f6af931a8bbf590da0223dacf75c7b082015560408601517f6e1540171b6c0c960b71a7020d9f60077f6af931a8bbf590da0223dacf75c7b19091018054969950949750929550879490939160ff199091169083600481111561456c5761456c618fed565b0217905550606082015180518051600384019161458e918391602001906185f0565b506020828101516001830155604090920151600290910155608083015180518051919260068501926145c392849201906185f0565b50602082810151600183015560409092015160029091015560a083015180518051919260098501926145f89284920190618649565b5060208201518160010155505060c082015181600b015560e082015181600c015550508060016002016000828254614630919061973f565b9091555050600954919550859160009061464c9060019061976c565b6040805180820190915290915060059080600761441b565b7ffffffffffffffffffffffffffffffffffffffffffffffffffffffffffffffff860ff821601614afa57600080600061469d87876156b1565b600a80546001808201835560009290925284517fc65a7bb8d6351c1cf70c95a316cc6a92839c986682d98bc35f958f4883f9d2a860269092029182019081556020808701517fc65a7bb8d6351c1cf70c95a316cc6a92839c986682d98bc35f958f4883f9d2a9840155604087015180517fc65a7bb8d6351c1cf70c95a316cc6a92839c986682d98bc35f958f4883f9d2aa8501908155918101517fc65a7bb8d6351c1cf70c95a316cc6a92839c986682d98bc35f958f4883f9d2ab9094018054989b50969950949750899691959093909160ff19169083600481111561478557614785618fed565b021790555060408201516001820180547fffffffffffffffffffffffffffffffffffffffffffffffffffffffffffff00ff166101008360048111156147cc576147cc618fed565b021790555060608201518051805160028401916147ee918391602001906185f0565b5060208281015160018301556040909201516002909101556080830151805180519192600585019261482392849201906185f0565b50602082810151600183015560409092015160029091015560a0830151805180519192600885019261485892849201906185f0565b50602082810151600183015560409092015160029091015560c0830151805180519192600b85019261488d92849201906185f0565b50602082810151600183015560409092015160029091015560e0830151805180519192600e8501926148c292849201906185f0565b50602082810151600183015560409092015160029091015561010083015180518051919260118501926148f892849201906185f0565b506020828101516001830155604090920151600290910155610120830151805180519192601485019261492e92849201906185f0565b506020828101516001830155604090920151600290910155610140830151805180519192601785019261496492849201906185f0565b506020828101516001830155604090920151600290910155610160830151805180519192601a85019261499a9284920190618649565b50602091820151600190910155610180830151805180519192601c8501926149c59284920190618649565b506020918201516001909101556101a0830151805180519192601e8501926149f09284920190618649565b506020918201516001909101556101c083015180518051919284810192614a1a9284920190618649565b506020820151816001015550505050606082015181602401556080820151816025015550508060016002016000828254614a54919061973f565b9091555050600a549195508591600090614a709060019061976c565b604080518082019091526008808252602082018390526005805460018082018355600092909252835160029091027f036b6384b5eca791c62761152d0c79bb0604c104a5fb6f4eb0703f3154bb3db001805495965093949092849260ff1990921691908490811115614ae457614ae4618fed565b0217905550602082015181600101555050505050505b509092915050565b60606000614b378360408051808201825260008082526020918201528151808301909252825182529182019181019190915290565b90506000614b44826158be565b9050600b60008267ffffffffffffffff811115614b6357614b6361912c565b604051908082528060200260200182016040528015614b8c578160200160208202803683370190505b50905060005b83811015614c27576000614bad614ba887615990565b6159b4565b8051602082012090915060009060008181526001870160205260409020549091508015614be457614bdf60018261976c565b614bf5565b60018660020154614bf5919061976c565b858581518110614c0757614c07619638565b60200260200101818152505050505080614c2090619752565b9050614b92565b5095945050505050565b614c5c6040518060800160405280606081526020016000815260200160008152602001600081525090565b6020810184905260408101839052606081018290528367ffffffffffffffff811115614c8a57614c8a61912c565b604051908082528060200260200182016040528015614cbd57816020015b6060815260200190600190039081614ca85790505b50815260005b84811015614de3578367ffffffffffffffff811115614ce457614ce461912c565b604051908082528060200260200182016040528015614d1757816020015b6060815260200190600190039081614d025790505b508251805183908110614d2c57614d2c619638565b602002602001018190525060005b84811015614dd0578367ffffffffffffffff811115614d5b57614d5b61912c565b604051908082528060200260200182016040528015614d84578160200160208202803683370190505b508351805184908110614d9957614d99619638565b60200260200101518281518110614db257614db2619638565b60200260200101819052508080614dc890619752565b915050614d3a565b5080614ddb81619752565b915050614cc3565b509392505050565b60808401515160609081908590829060005b8181101561509b5760008a608001518281518110614e1d57614e1d619638565b60209081029190910181015190810151909150600682516008811115614e4557614e45618fed565b03614e8157614e7a868d60e001518381518110614e6457614e64619638565b6020026020010151615a2490919063ffffffff16565b9450615086565b600182516008811115614e9657614e96618fed565b03614ef15760018c6080015151614ead919061976c565b831080614eb75750885b15614eec57614e7a858d60c001518381518110614ed657614ed6619638565b6020026020010151615a4d90919063ffffffff16565b615086565b600782516008811115614f0657614f06618fed565b03614f7b57614f57858b8381518110614f2157614f21619638565b60200260200101518e61010001518481518110614f4057614f40619638565b6020026020010151615ba09092919063ffffffff16565b8b8381518110614f6957614f69619638565b60209081029190910101529450615086565b600882516008811115614f9057614f90618fed565b03615086578451600003614ff857604080516001808252818301909252906020808301908036833701905050600b54909550614fd090602088901b6197fa565b85600081518110614fe357614fe3619638565b602002602001019060070b908160070b815250505b6060615046868c848151811061501057615010619638565b60200260200101518f6101200151858151811061502f5761502f619638565b6020026020010151615cb39092919063ffffffff16565b8c848151811061505857615058619638565b6020026020010181905281925050508060008151811061507a5761507a619638565b60200260200101519550505b5050808061509390619752565b915050614dfd565b5090989597509495505050505050565b6000806001600b600201546150c0919061976c565b905060006150cd86615e62565b90506150fc8183815181106150e4576150e4619638565b60200260200101516150f76103e8615f0b565b615f51565b81838151811061510e5761510e619638565b602002602001019060070b908160070b8152505060005b81518110156151885761515182828151811061514357615143619638565b602002602001015187615f5d565b82828151811061516357615163619638565b602002602001019060070b908160070b815250508061518190619752565b9050615125565b506040805180820190915260608152600060208201818152835190528282526151b082615f69565b51905060006151bf82886161d4565b955050505050505b9392505050565b60408051602081019091526000808252600b905b83518110156152e65760008260000185838151811061520357615203619638565b60200260200101518154811061521b5761521b619638565b90600052602060002001805461523090619604565b80601f016020809104026020016040519081016040528092919081815260200182805461525c90619604565b80156152a95780601f1061527e576101008083540402835291602001916152a9565b820191906000526020600020905b81548152906001019060200180831161528c57829003601f168201915b5050505050905083816040516020016152c3929190619886565b604051602081830303815290604052935050806152df90619752565b90506151e2565b5050919050565b6040805160208082018352600090915281518082018352838201518152825160018082528185019094529092606092828101908036833701905050905060018160008151811061533f5761533f619638565b602002602001018181525050915091565b615358618703565b60606000806000866000015180602001905181019061537791906198b5565b92509250506153a08660008151811061539257615392619638565b602002602001015182616257565b6040518060e00160405280886020015181526020018360ff1660048111156153ca576153ca618fed565b60048111156153db576153db618fed565b815260200182815260200161540a886000815181106153fc576153fc619638565b6020026020010151846162d0565b815260200161542c836040805180820190915260608152602081019190915290565b815260006020820181905260409182015280516001808252818301909252919650816020016020820280368337019050509350808460008151811061547357615473619638565b60200260200101818152505061548e85608001516020015190565b61549b8660600151616357565b6154a5919061973f565b925050509250925092565b6154b861877e565b6060600080600085600001518060200190518101906154d791906198f1565b92509250506040518060c001604052808760200151815260200183815260200182815260200161550784846162d0565b815260006020820181905260409182015280516001808252818301909252919650816020016020820280368337019050509350808460008151811061554e5761554e619638565b6020026020010181815250506155678560600151616357565b9496939550505050565b6155796187c2565b60606000806000866000015180602001905181019061559891906198b5565b9250925050604051806101000160405280886020015181526020018281526020018360ff1660048111156155ce576155ce618fed565b60048111156155df576155df618fed565b81526020016155fa886000815181106153fc576153fc619638565b815260200161560983846162d0565b815260200161562b836040805180820190915260608152602081019190915290565b815260006020820181905260409182015280516001808252818301909252919650816020016020820280368337019050509350808460008151811061567257615672619638565b60200260200101818152505061568d8560a001516020015190565b61569a8660800151616357565b6156a78760600151616357565b61549b919061973f565b6156b9618841565b6060600080600080600088600001518060200190518101906156db9190619926565b9450945094509450506040518060a001604052808a602001518152602001828152602001604051806101e001604052808581526020018760ff16600481111561572657615726618fed565b600481111561573757615737618fed565b81526020018660ff16600481111561575157615751618fed565b600481111561576257615762618fed565b8152602001615771858761636d565b8152602001615780858761636d565b815260200161578f858761636d565b815260200161579e858761636d565b81526020016157ad868761636d565b81526020016157bc868761636d565b81526020016157cb868761636d565b81526020016157da868761636d565b81526020016157e88661646e565b81526020016157f68661646e565b81526020016158048661646e565b81526020016158128661646e565b9052815260006020820181905260409182015280516001808252818301909252919850816020016020820280368337019050509550818660008151811061585b5761585b619638565b60209081029190910101526158718260046197cd565b8261587d8160046197cd565b61588791906197cd565b836158938460046197cd565b61589d91906197cd565b6158a7919061973f565b6158b1919061973f565b9450505050509250925092565b600080601f83602001516158d2919061976c565b83519091506000906158e4908361973f565b9050600092505b808210156152e657815160ff1660808110156159135761590c60018461973f565b925061597d565b60e08160ff16101561592a5761590c60028461973f565b60f08160ff1610156159415761590c60038461973f565b60f88160ff1610156159585761590c60048461973f565b60fc8160ff16101561596f5761590c60058461973f565b61597a60068461973f565b92505b508261598881619752565b9350506158eb565b60408051808201909152600080825260208201526159ae82826164cd565b50919050565b60606000826000015167ffffffffffffffff8111156159d5576159d561912c565b6040519080825280601f01601f1916602001820160405280156159ff576020820181803683370190505b5090506000602082019050615a1d81856020015186600001516165ad565b5092915050565b60608281015151805183908110615a3d57615a3d619638565b6020026020010151905092915050565b60408051808201825260608082526000602083019081528451905283825284810151608086015193810151919390916001148015615a8f575060208101516001145b15615b68576000615aa3836020015161646e565b905060005b8360200151811015615b27578351805182908110615ac857615ac8619638565b6020026020010151600081518110615ae257615ae2619638565b602002602001015182600001518281518110615b0057615b00619638565b602002602001019060070b908160070b815250508080615b1f90619752565b915050615aa8565b506000615b3e83615b388785616627565b9061673f565b90506000615b5989602001518361676190919063ffffffff16565b51965061329d95505050505050565b6000615b7882615b388686616868565b90506000615b9388602001518361676190919063ffffffff16565b5198975050505050505050565b6060806000615bcb856040805180820190915260608152600060208201528151602082015290815290565b90506000615c0f85600081518110615be557615be5619638565b60200260200101516040805180820190915260608152600060208201528151602082015290815290565b90506000615c21838960600151616868565b90506000615c33838a60800151616868565b90506000615c4e615c44848461673f565b8b60a0015161673f565b90506000615c60828c60400151616761565b9050806000015189600081518110615c7a57615c7a619638565b602002602001018190525088600081518110615c9857615c98619638565b60200260200101518997509750505050505050935093915050565b6040805160018082528183019092526060918291600091816020015b6060815260200190600190039081615ccf5790505090506000866020015167ffffffffffffffff811115615d0557615d0561912c565b604051908082528060200260200182016040528015615d2e578160200160208202803683370190505b50905060005b8651811015615d9057868181518110615d4f57615d4f619638565b6020026020010151828281518110615d6957615d69619638565b602002602001019060070b908160070b815250508080615d8890619752565b915050615d34565b5060408051600280825260608201909252600091816020015b6060815260200190600190039081615da957905050905060005b8351811015615e5357600080615dde8b60400151868b6169fc565b915091508184600081518110615df657615df6619638565b60200260200101819052508084600181518110615e1557615e15619638565b602002602001018190525081868481518110615e3357615e33619638565b602002602001018190525050508080615e4b90619752565b915050615dc3565b50919791965090945050505050565b60606000825167ffffffffffffffff811115615e8057615e8061912c565b604051908082528060200260200182016040528015615ea9578160200160208202803683370190505b50905060005b8351811015615a1d57838181518110615eca57615eca619638565b6020026020010151828281518110615ee457615ee4619638565b602002602001019060070b908160070b815250508080615f0390619752565b915050615eaf565b60007fffffffffffffffffffffffffffffffffffffffffffffffffffffffff800000008212158015615f415750637fffffff8213155b615f4a57600080fd5b5060201b90565b60006151c78383616e35565b60006151c78383616e73565b604080518082019091526060815260006020820152602082015160008167ffffffffffffffff811115615f9e57615f9e61912c565b604051908082528060200260200182016040528015615fc7578160200160208202803683370190505b50905060005b8281101561604257616013602086600001518381518110615ff057615ff0619638565b602002602001015160070b670de0b6b3a764000061600e919061997c565b901d90565b82828151811061602557616025619638565b60209081029190910101528061603a81619752565b915050615fcd565b5060005b8281101561609f5761607082828151811061606357616063619638565b6020026020010151616ed8565b82828151811061608257616082619638565b60209081029190910101528061609781619752565b915050616046565b506000805b838110156160e3576160cf828483815181106160c2576160c2619638565b6020026020010151616f4e565b9150806160db81619752565b9150506160a4565b5060005b8381101561614a5761611b8284838151811061610557616105619638565b6020026020010151616f5d90919063ffffffff16565b83828151811061612d5761612d619638565b60209081029190910101528061614281619752565b9150506160e7565b5060006161568461646e565b905060005b84811015614c2757670de0b6b3a7640000602061618e86848151811061618357616183619638565b602002602001015190565b61619992911b6199ac565b82518051839081106161ad576161ad619638565b602002602001019060070b908160070b8152505080806161cc90619752565b91505061615b565b6000806161e08361707c565b90506000805b855181101561623f576162128287838151811061620557616205619638565b602002602001015161708d565b9150600783810b9083900b131561622d57925061329d915050565b8061623781619752565b9150506161e6565b506001855161624e919061976c565b95945050505050565b60405160248101839052604481018290526162cc9060640160408051601f198184030181529190526020810180517bffffffffffffffffffffffffffffffffffffffffffffffffffffffff167ff666715a00000000000000000000000000000000000000000000000000000000179052617099565b5050565b6162f460405180606001604052806060815260200160008152602001600081525090565b60208101839052604081018290528267ffffffffffffffff81111561631b5761631b61912c565b60405190808252806020026020018201604052801561634e57816020015b60608152602001906001900390816163395790505b50815292915050565b60008160400151826020015161329d91906197cd565b61639160405180606001604052806060815260200160008152602001600081525090565b60208101839052604081018290528267ffffffffffffffff8111156163b8576163b861912c565b6040519080825280602002602001820160405280156163eb57816020015b60608152602001906001900390816163d65790505b50815260005b83811015615a1d578267ffffffffffffffff8111156164125761641261912c565b60405190808252806020026020018201604052801561643b578160200160208202803683370190505b50825180518390811061645057616450619638565b6020026020010181905250808061646690619752565b9150506163f1565b6040805180820190915260608152602081018290528167ffffffffffffffff81111561649c5761649c61912c565b6040519080825280602002602001820160405280156164c5578160200160208202803683370190505b508152919050565b60408051808201909152600080825260208201526020808401519083015282516000036164ff5750600081528061329d565b6020830151601e19015160009060ff166080811015616521576001915061654a565b60e0811015616533576002915061654a565b60f0811015616545576003915061654a565b600491505b845182111561657b5784518452845160208601805161656a90839061973f565b90525050600084525081905061329d565b818560200181815161658d919061973f565b9052508451829086906165a190839061976c565b90525050825250919050565b602081106165e557815183526165c460208461973f565b92506165d160208361973f565b91506165de60208261976c565b90506165ad565b60001981156166145760016165fb83602061976c565b61660790610100619abe565b616611919061976c565b90505b9151835183169219169190911790915250565b604080518082019091526060815260006020820152816020015183602001511461667d576040517f95c2ffed00000000000000000000000000000000000000000000000000000000815260040160405180910390fd5b6000616689600161646e565b905060005b8460200151811015614de35761670582600001516000815181106166b4576166b4619638565b6020026020010151616700876000015184815181106166d5576166d5619638565b6020026020010151876000015185815181106166f3576166f3619638565b60200260200101516170a2565b61708d565b8251805160009061671857616718619638565b602002602001019060070b908160070b81525050808061673790619752565b91505061668e565b6040805180820190915260608152600060208201526151c783836170ae6170ba565b604080518082019091526060815260006020820152600082600481111561678a5761678a618fed565b036167a25761679b8361717b6171b5565b905061329d565b60018260048111156167b6576167b6618fed565b036167c75761679b83616ed56171b5565b60028260048111156167db576167db618fed565b036167ec5761679b8361724f6171b5565b600382600481111561680057616800618fed565b036168115761679b836172626171b5565b600482600481111561682557616825618fed565b036168365761679b836172e76171b5565b6040517fa342a23e00000000000000000000000000000000000000000000000000000000815260040160405180910390fd5b604080518082019091526060815260006020820152600061688c836040015161646e565b905060005b836040015181101561696b5760005b84602001518110156169585761691d836000015183815181106168c5576168c5619638565b6020026020010151616700886000015184815181106168e6576168e6619638565b60200260200101518860000151858151811061690457616904619638565b602002602001015186815181106166f3576166f3619638565b835180518490811061693157616931619638565b602002602001019060070b908160070b81525050808061695090619752565b9150506168a0565b508061696381619752565b915050616891565b50604080516001808252818301909252600091816020015b60608152602001906001900390816169835790505090508160000151816000815181106169b2576169b2619638565b60200260200101819052507f179491a5c16eb1ad3858df42ccd7321ca6ffc7d003c0355ae0c5f9c2cc9c0247816040516169ec9190619aca565b60405180910390a1509392505050565b6060806060808451600003616afd576040805160028082526060820190925290816020015b6060815260200190600190039081616a21575050875190955067ffffffffffffffff811115616a5257616a5261912c565b604051908082528060200260200182016040528015616a7b578160200160208202803683370190505b5085600081518110616a8f57616a8f619638565b6020908102919091010152865167ffffffffffffffff811115616ab457616ab461912c565b604051908082528060200260200182016040528015616add578160200160208202803683370190505b5085600181518110616af157616af1619638565b60200260200101819052505b6000616b1586600081518110615be557615be5619638565b90506000616b2f87600181518110615be557615be5619638565b60408051808201909152606081526000602082018181528b5190528a8252919250616b5e908b60600151616868565b60408051808201909152606081526000602082018181528c5190528b8252919250616b8d908c60800151616868565b60408051808201909152606081526000602082018181528d5190528c8252919250616bbc908d60a00151616868565b60408051808201909152606081526000602082018181528e5190528d8252919250616beb908e60c00151616868565b9050616bfc848e610160015161673f565b9350616c0d838e610180015161673f565b9250616c1e828e6101a0015161673f565b9150616c2f818e6101c0015161673f565b60408051600480825260a0820190925291925060009190816020015b6060815260200190600190039081616c4b579050509050846000015181600081518110616c7a57616c7a619638565b6020026020010181905250836000015181600181518110616c9d57616c9d619638565b6020026020010181905250826000015181600281518110616cc057616cc0619638565b6020026020010181905250816000015181600381518110616ce357616ce3619638565b602090810291909101015260408051600480825260a08201909252600091816020015b6060815260200190600190039081616d06579050509050876000015181600081518110616d3557616d35619638565b6020026020010181905250876000015181600181518110616d5857616d58619638565b6020026020010181905250876000015181600281518110616d7b57616d7b619638565b6020026020010181905250876000015181600381518110616d9e57616d9e619638565b6020026020010181905250616db98f83838a6000015161733d565b809a50819b50505050505050505050506000616e26616e028960200151616dfc866040805180820190915260608152600060208201528151602082015290815290565b90616761565b604080518082019091526060815260006020820190815285519052848152906174ab565b51989297509195505050505050565b6000600782810b9084900b03677fffffffffffffff19600f82900b12801590616e6a5750677fffffffffffffff600f82900b13155b6151c757600080fd5b60008160070b600003616e8557600080fd5b6000600783900b602085901b600b0b81616ea157616ea16197e4565b059050677fffffffffffffff19600f82900b12801590616e6a5750677fffffffffffffff600f82900b13156151c757600080fd5b90565b600081680736ea4425c11ac630811315616f21576040517fca7ec0c5000000000000000000000000000000000000000000000000000000008152600481018490526024016119da565b6714057b7ef767814f8102616f46616f41670de0b6b3a7640000835b0590565b6174cd565b949350505050565b60006151c7616ed58385619add565b60008282600160ff1b821480616f765750600160ff1b81145b15616fad576040517f9fe2b45000000000000000000000000000000000000000000000000000000000815260040160405180910390fd5b60008060008412616fbe5783616fc3565b836000035b915060008312616fd35782616fd8565b826000035b90506000616fef83670de0b6b3a7640000846175a1565b90507f7fffffffffffffffffffffffffffffffffffffffffffffffffffffffffffffff811115617055576040517fd49c26b300000000000000000000000000000000000000000000000000000000815260048101899052602481018890526044016119da565b6000198585181361706f8161706b578260000390565b8290565b9998505050505050505050565b600061329d6401000000008361980e565b60006151c7838361768e565b61070c816176cb565b60006151c783836176ec565b60006151c7838361708d565b60408051808201909152606081526000602082015260006170de856020015161646e565b905060005b8160200151811015617172576171378660000151828151811061710857617108619638565b60200260200101518660000151838151811061712657617126619638565b60200260200101518663ffffffff16565b825180518390811061714b5761714b619638565b602002602001019060070b908160070b81525050808061716a90619752565b9150506170e3565b50949350505050565b6000808260070b136171b1576171ac640a000000006171a3600785900b6402000000006170a2565b60070b90615f5d565b61329d565b5090565b60408051808201909152606081526000602082015260006171d9846020015161646e565b905060005b8160200151811015614de3576172148560000151828151811061720357617203619638565b60200260200101518563ffffffff16565b825180518390811061722857617228619638565b602002602001019060070b908160070b81525050808061724790619752565b9150506171de565b6000808260070b136171b157600061329d565b60007fffffffffffffffffffffffffffffffffffffffffffffffffffffffeb000000008260070b12156172bb576172b87fffffffffffffffffffffffffffffffffffffffffffffffffffffffffffffffeb615f0b565b91505b61329d6172db6401000000006167006172d386617734565b60070b61773f565b64010000000090615f5d565b6000640a000000008260070b131561730657617303600a615f0b565b91505b600061731a6172d3640200000000856170a2565b90506151c761732e8264010000000061708d565b6171a383640100000000615f51565b60608060006173868760400151616dfc61737061736689600081518110615be557615be5619638565b8b60e00151616868565b615b388a600081518110615be557615be5619638565b905060006173cf8860400151616dfc6173b96173ae8a600181518110615be557615be5619638565b8c6101000151616868565b615b388b600181518110615be557615be5619638565b9050600061744c61742561741e8b60200151616dfc6174086173fd8d600281518110615be557615be5619638565b8f6101200151616868565b615b388e600281518110615be557615be5619638565b85906174ab565b604080518082019091526060815260006020820190815289519052888152615b389061741e565b60000151905060006174998a60400151616dfc6174836174788c600381518110615be557615be5619638565b8e6101400151616868565b615b388d600381518110615be557615be5619638565b51919a91995090975050505050505050565b6040805180820190915260608152600060208201526151c7838361774a6170ba565b60008181811215617540577ffffffffffffffffffffffffffffffffffffffffffffffffcc22e87f6eb468eeb8112156175095750600092915050565b61753961751c616ed5616f418460000390565b6ec097ce7bc90715b34b9f100000000081616f3d57616f3d6197e4565b91506159ae565b680a688906bd8affffff811315617586576040517f0360d028000000000000000000000000000000000000000000000000000000008152600481018490526024016119da565b670de0b6b3a7640000604082901b05616f46616ed58261775a565b60008080600019858709858702925082811083820303915050806000036175db578382816175d1576175d16197e4565b04925050506151c7565b838110617625576040517f63a057780000000000000000000000000000000000000000000000000000000081526004810187905260248101869052604481018590526064016119da565b60008486880960026001871981018816978890046003810283188082028403028082028403028082028403028082028403028082028403029081029092039091026000889003889004909101858311909403939093029303949094049190911702949350505050565b6000600783810b9083900b01677fffffffffffffff19600f82900b12801590616e6a5750677fffffffffffffff600f82900b13156151c757600080fd5b60006a636f6e736f6c652e6c6f679050600080835160208501845afa505050565b60008060208360070b8560070b02600f0b901d9050677fffffffffffffff19600f0b81600f0b12158015616e6a5750677fffffffffffffff600f82900b13156151c757600080fd5b600061329d82617ece565b600061329d82617eef565b60006151c7600784900b836170a2565b7780000000000000000000000000000000000000000000000067ff0000000000000082161561787b576780000000000000008216156177a25768016a09e667f3bcc9090260401c5b6740000000000000008216156177c1576801306fe0a31b7152df0260401c5b6720000000000000008216156177e0576801172b83c7d517adce0260401c5b6710000000000000008216156177ff5768010b5586cf9890f62a0260401c5b67080000000000000082161561781e576801059b0d31585743ae0260401c5b67040000000000000082161561783d57680102c9a3e778060ee70260401c5b67020000000000000082161561785c5768010163da9fb33356d80260401c5b67010000000000000082161561787b57680100b1afa5abcbed610260401c5b66ff00000000000082161561797a5766800000000000008216156178a85768010058c86da1c09ea20260401c5b66400000000000008216156178c6576801002c605e2e8cec500260401c5b66200000000000008216156178e457680100162f3904051fa10260401c5b6610000000000000821615617902576801000b175effdc76ba0260401c5b660800000000000082161561792057680100058ba01fb9f96d0260401c5b660400000000000082161561793e5768010002c5cc37da94920260401c5b660200000000000082161561795c576801000162e525ee05470260401c5b660100000000000082161561797a5768010000b17255775c040260401c5b65ff0000000000821615617a7057658000000000008216156179a5576801000058b91b5bc9ae0260401c5b654000000000008216156179c257680100002c5c89d5ec6d0260401c5b652000000000008216156179df5768010000162e43f4f8310260401c5b651000000000008216156179fc57680100000b1721bcfc9a0260401c5b65080000000000821615617a195768010000058b90cf1e6e0260401c5b65040000000000821615617a36576801000002c5c863b73f0260401c5b65020000000000821615617a5357680100000162e430e5a20260401c5b65010000000000821615617a70576801000000b1721835510260401c5b64ff00000000821615617b5d57648000000000821615617a9957680100000058b90c0b490260401c5b644000000000821615617ab55768010000002c5c8601cc0260401c5b642000000000821615617ad1576801000000162e42fff00260401c5b641000000000821615617aed5768010000000b17217fbb0260401c5b640800000000821615617b09576801000000058b90bfce0260401c5b640400000000821615617b2557680100000002c5c85fe30260401c5b640200000000821615617b415768010000000162e42ff10260401c5b640100000000821615617b5d57680100000000b17217f80260401c5b63ff000000821615617c41576380000000821615617b845768010000000058b90bfc0260401c5b6340000000821615617b9f576801000000002c5c85fe0260401c5b6320000000821615617bba57680100000000162e42ff0260401c5b6310000000821615617bd5576801000000000b17217f0260401c5b6308000000821615617bf057680100000000058b90c00260401c5b6304000000821615617c0b5768010000000002c5c8600260401c5b6302000000821615617c26576801000000000162e4300260401c5b6301000000821615617c415768010000000000b172180260401c5b62ff0000821615617d1c5762800000821615617c66576801000000000058b90c0260401c5b62400000821615617c8057680100000000002c5c860260401c5b62200000821615617c9a5768010000000000162e430260401c5b62100000821615617cb457680100000000000b17210260401c5b62080000821615617cce5768010000000000058b910260401c5b62040000821615617ce8576801000000000002c5c80260401c5b62020000821615617d0257680100000000000162e40260401c5b62010000821615617d1c576801000000000000b1720260401c5b61ff00821615617dee57618000821615617d3f57680100000000000058b90260401c5b614000821615617d585768010000000000002c5d0260401c5b612000821615617d71576801000000000000162e0260401c5b611000821615617d8a5768010000000000000b170260401c5b610800821615617da3576801000000000000058c0260401c5b610400821615617dbc57680100000000000002c60260401c5b610200821615617dd557680100000000000001630260401c5b610100821615617dee57680100000000000000b10260401c5b60ff821615617eb7576080821615617e0f57680100000000000000590260401c5b6040821615617e27576801000000000000002c0260401c5b6020821615617e3f57680100000000000000160260401c5b6010821615617e57576801000000000000000b0260401c5b6008821615617e6f57680100000000000000060260401c5b6004821615617e8757680100000000000000030260401c5b6002821615617e9f57680100000000000000010260401c5b6001821615617eb757680100000000000000010260401c5b670de0b6b3a76400000260409190911c60bf031c90565b6000678000000000000000600783900b01617ee857600080fd5b5060000390565b60006420000000008260070b12617f0557600080fd5b641fffffffff198260070b1215617f1e57506000919050565b61329d60408360070b680171547652b82fe17702600f0b901d60006420000000008260070b12617f4d57600080fd5b641fffffffff198260070b1215617f6657506000919050565b67800000000000000060006380000000841660070b1315617f9a5768016a09e667f3bcc9080260401c67ffffffffffffffff165b60008363400000001660070b1315617fc5576801306fe0a31b7152de0260401c67ffffffffffffffff165b60008363200000001660070b1315617ff0576801172b83c7d517adcd0260401c67ffffffffffffffff165b60008363100000001660070b131561801b5768010b5586cf9890f6290260401c67ffffffffffffffff165b60008363080000001660070b1315618046576801059b0d31585743ae0260401c67ffffffffffffffff165b60008363040000001660070b131561807157680102c9a3e778060ee60260401c67ffffffffffffffff165b60008363020000001660070b131561809c5768010163da9fb33356d80260401c67ffffffffffffffff165b60008363010000001660070b13156180c757680100b1afa5abcbed610260401c67ffffffffffffffff165b600083628000001660070b13156180f15768010058c86da1c09ea10260401c67ffffffffffffffff165b600083624000001660070b131561811b576801002c605e2e8cec500260401c67ffffffffffffffff165b600083622000001660070b131561814557680100162f3904051fa10260401c67ffffffffffffffff165b600083621000001660070b131561816f576801000b175effdc76ba0260401c67ffffffffffffffff165b600083620800001660070b131561819957680100058ba01fb9f96d0260401c67ffffffffffffffff165b600083620400001660070b13156181c35768010002c5cc37da94910260401c67ffffffffffffffff165b600083620200001660070b13156181ed576801000162e525ee05470260401c67ffffffffffffffff165b600083620100001660070b13156182175768010000b17255775c040260401c67ffffffffffffffff165b6000836180001660070b1315618240576801000058b91b5bc9ae0260401c67ffffffffffffffff165b6000836140001660070b131561826957680100002c5c89d5ec6c0260401c67ffffffffffffffff165b6000836120001660070b13156182925768010000162e43f4f8310260401c67ffffffffffffffff165b6000836110001660070b13156182bb57680100000b1721bcfc990260401c67ffffffffffffffff165b6000836108001660070b13156182e45768010000058b90cf1e6d0260401c67ffffffffffffffff165b6000836104001660070b131561830d576801000002c5c863b73f0260401c67ffffffffffffffff165b6000836102001660070b131561833657680100000162e430e5a10260401c67ffffffffffffffff165b6000836101001660070b131561835f576801000000b1721835510260401c67ffffffffffffffff165b60008360801660070b131561838757680100000058b90c0b480260401c67ffffffffffffffff165b60008360401660070b13156183af5768010000002c5c8601cc0260401c67ffffffffffffffff165b60008360201660070b13156183d7576801000000162e42fff00260401c67ffffffffffffffff165b60008360101660070b13156183ff5768010000000b17217fba0260401c67ffffffffffffffff165b60008360081660070b1315618427576801000000058b90bfcd0260401c67ffffffffffffffff165b60008360041660070b131561844f57680100000002c5c85fe30260401c67ffffffffffffffff165b60008360021660070b13156184775768010000000162e42ff00260401c67ffffffffffffffff165b60008360011660070b131561849f57680100000000b17217f80260401c67ffffffffffffffff165b6fffffffffffffffffffffffffffffffff908116600784810b60201d601f03900b82161c90677fffffffffffffff908216111561329d57600080fd5b828054828255906000526020600020908101928215618521579160200282015b8281111561852157825182906185119082619b54565b50916020019190600101906184fb565b506171b1929150618862565b508054600082559060005260206000209081019061070c919061887f565b50805460008255600a029060005260206000209081019061070c9190618894565b508054600082556008029060005260206000209081019061070c9190618907565b50805460008255600d029060005260206000209081019061070c9190618958565b508054600082556026029060005260206000209081019061070c91906189ec565b508054600082556002029060005260206000209081019061070c9190618bbf565b82805482825590600052602060002090810192821561863d579160200282015b8281111561863d578251805161862d918491602090910190618649565b5091602001919060010190618610565b506171b1929150618bdf565b828054828255906000526020600020906003016004900481019282156186f75791602002820160005b838211156186c157835183826101000a81548167ffffffffffffffff021916908360070b67ffffffffffffffff1602179055509260200192600801602081600701049283019260010302618672565b80156186f55782816101000a81549067ffffffffffffffff02191690556008016020816007010492830192600103026186c1565b505b506171b192915061887f565b6040805160e081019091526000808252602082019081526020016000815260200161874860405180606001604052806060815260200160008152602001600081525090565b815260200161876a604051806040016040528060608152602001600081525090565b815260200160008152602001600081525090565b6040518060c0016040528060008152602001600081526020016000815260200161876a60405180606001604052806060815260200160008152602001600081525090565b6040518061010001604052806000815260200160008152602001600060048111156187ef576187ef618fed565b815260200161881860405180606001604052806060815260200160008152602001600081525090565b815260200161874860405180606001604052806060815260200160008152602001600081525090565b6040518060a00160405280600081526020016000815260200161876a618bfc565b808211156171b15760006188768282618dee565b50600101618862565b5b808211156171b15760008155600101618880565b808211156171b157600080825560018201805460ff191690556002820181905560038201816188c38282618e28565b50600060018201819055600290910181905560068301906188e48282618e46565b600182016000905550506008820160009055600982016000905550600a01618894565b808211156171b1576000808255600182018190556002820181905560038201816189318282618e28565b50600060018201819055600290910181905560068301819055600783015550600801618907565b808211156171b15760008082556001820181905560028201805460ff1916905560038201816189878282618e28565b50600060018201819055600290910181905560068301906189a88282618e28565b50600060018201819055600290910181905560098301906189c98282618e46565b60018201600090555050600b820160009055600c82016000905550600d01618958565b808211156171b157600080825560018201819055600282018181556003830180547fffffffffffffffffffffffffffffffffffffffffffffffffffffffffffff0000169055816004840181618a418282618e28565b5060006001820181905560029091018190556005830190618a628282618e28565b5060006001820181905560029091018190556008830190618a838282618e28565b506000600182018190556002909101819055600b830190618aa48282618e28565b506000600182018190556002909101819055600e830190618ac58282618e28565b5060006001820181905560029091018190556011830190618ae68282618e28565b5060006001820181905560029091018190556014830190618b078282618e28565b5060006001820181905560029091018190556017830190618b288282618e28565b506000600182018190556002909101819055601a830190618b498282618e46565b506000600191909101819055601c830190618b648282618e46565b506000600191909101819055601e830190618b7f8282618e46565b5060006001919091018190556020830190618b9a8282618e46565b60018201600090555050505060248201600090556025820160009055506026016189ec565b5b808211156171b157805460ff1916815560006001820155600201618bc0565b808211156171b1576000618bf38282618e46565b50600101618bdf565b604080516101e0810190915260008082526020820190815260200160008152602001618c4260405180606001604052806060815260200160008152602001600081525090565b8152602001618c6b60405180606001604052806060815260200160008152602001600081525090565b8152602001618c9460405180606001604052806060815260200160008152602001600081525090565b8152602001618cbd60405180606001604052806060815260200160008152602001600081525090565b8152602001618ce660405180606001604052806060815260200160008152602001600081525090565b8152602001618d0f60405180606001604052806060815260200160008152602001600081525090565b8152602001618d3860405180606001604052806060815260200160008152602001600081525090565b8152602001618d6160405180606001604052806060815260200160008152602001600081525090565b8152602001618d83604051806040016040528060608152602001600081525090565b8152602001618da5604051806040016040528060608152602001600081525090565b8152602001618dc7604051806040016040528060608152602001600081525090565b8152602001618de9604051806040016040528060608152602001600081525090565b905290565b508054618dfa90619604565b6000825580601f10618e0a575050565b601f01602090049060005260206000209081019061070c919061887f565b508054600082559060005260206000209081019061070c9190618bdf565b50805460008255600301600490049060005260206000209081019061070c919061887f565b60005b83811015618e86578181015183820152602001618e6e565b50506000910152565b60008151808452618ea7816020860160208601618e6b565b601f01601f19169290920160200192915050565b606081526000618ece6060830186618e8f565b60208301949094525060400152919050565b60008060408385031215618ef357600080fd5b50508035926020909101359150565b600081518084526020808501945080840160005b83811015618f3557815160070b87529582019590820190600101618f16565b509495945050505050565b600082825180855260208086019550808260051b84010181860160005b84811015618f8b57601f19868403018952618f79838351618f02565b98840198925090830190600101618f5d565b5090979650505050505050565b848152836020820152608060408201526000618fb76080830185618f40565b8281036060840152618fc98185618f02565b979650505050505050565b600060208284031215618fe657600080fd5b5035919050565b634e487b7160e01b600052602160045260246000fd5b6060815260006190166060830186618e8f565b6020838203818501528186518084528284019150828160051b85010183890160005b8381101561906657601f19878403018552619054838351618e8f565b94860194925090850190600101619038565b505060409450868103858801528092508751915081815283810192505082870160005b828110156190cc5781518051600981106190b357634e487b7160e01b600052602160045260246000fd5b8552850151858501529285019290840190600101619089565b50919998505050505050505050565b85815284602082015260a0604082015260006190fa60a0830186618f40565b828103606084015261910c8186618f40565b905082810360808401526191208185618f02565b98975050505050505050565b634e487b7160e01b600052604160045260246000fd5b604051601f8201601f1916810167ffffffffffffffff8111828210171561916b5761916b61912c565b604052919050565b600082601f83011261918457600080fd5b813567ffffffffffffffff81111561919e5761919e61912c565b6191b16020601f19601f84011601619142565b8181528460208386010111156191c657600080fd5b816020850160208301376000918101602001919091529392505050565b600067ffffffffffffffff8211156191fd576191fd61912c565b5060051b60200190565b600082601f83011261921857600080fd5b8135602061922d619228836191e3565b619142565b82815260059290921b8401810191818101908684111561924c57600080fd5b8286015b848110156192775780358060070b811461926a5760008081fd5b8352918301918301619250565b509695505050505050565b600080600080600060a0868803121561929a57600080fd5b8535945067ffffffffffffffff602087013511156192b757600080fd5b6192c78760208801358801619173565b93506040860135925067ffffffffffffffff606087013511156192e957600080fd5b6060860135860187601f8201126192ff57600080fd5b61930c61922882356191e3565b81358082526020808301929160051b8401018a101561932a57600080fd5b602083015b6020843560051b8501018110156193f95767ffffffffffffffff8135111561935657600080fd5b803584018b603f82011261936957600080fd5b61937961922860208301356191e3565b602082810135808352908201919060051b83016040018e101561939b57600080fd5b604083015b6040602085013560051b8501018110156193e85767ffffffffffffffff813511156193ca57600080fd5b6193da8f60408335870101619207565b8352602092830192016193a0565b50855250506020928301920161932f565b509699959850939660800135949350505050565b60008060006060848603121561942257600080fd5b8335925060208085013567ffffffffffffffff8082111561944257600080fd5b818701915087601f83011261945657600080fd5b8135619464619228826191e3565b81815260059190911b8301840190848101908a83111561948357600080fd5b8585015b838110156194bb5780358581111561949f5760008081fd5b6194ad8d89838a0101619173565b845250918601918601619487565b509650505060408701359250808311156194d457600080fd5b50506194e286828701619173565b9150509250925092565b6000806000806080858703121561950257600080fd5b84359350602085013567ffffffffffffffff81111561952057600080fd5b61952c87828801619207565b9350506040850135915060608501356009811061954857600080fd5b939692955090935050565b6001600160a01b038116811461070c57600080fd5b60006020828403121561957a57600080fd5b81356151c781619553565b60008060006040848603121561959a57600080fd5b83359250602084013567ffffffffffffffff808211156195b957600080fd5b818601915086601f8301126195cd57600080fd5b8135818111156195dc57600080fd5b8760208260051b85010111156195f157600080fd5b6020830194508093505050509250925092565b600181811c9082168061961857607f821691505b6020821081036159ae57634e487b7160e01b600052602260045260246000fd5b634e487b7160e01b600052603260045260246000fd5b60006020828403121561966057600080fd5b81516151c781619553565b60608152600061967e6060830186618e8f565b602083820381850152818651808452828401915060058382821b860101848a016000805b8581101561970f57601f198985038101885283518051808752908a01908a87019080891b88018c01865b828110156196f857858a83030184526196e6828651618f02565b948e0194938e019391506001016196cc565b509a8c019a975050509389019350506001016196a2565b505050809650505050505050826040830152949350505050565b634e487b7160e01b600052601160045260246000fd5b8082018082111561329d5761329d619729565b6000600019820361976557619765619729565b5060010190565b8181038181111561329d5761329d619729565b6000808335601e1984360301811261979657600080fd5b83018035915067ffffffffffffffff8211156197b157600080fd5b6020019150368190038213156197c657600080fd5b9250929050565b808202811582820484141761329d5761329d619729565b634e487b7160e01b600052601260045260246000fd5b600082619809576198096197e4565b500490565b60008261981d5761981d6197e4565b500690565b805160ff8116811461983357600080fd5b919050565b60006020828403121561984a57600080fd5b6151c782619822565b6000806040838503121561986657600080fd5b61986f83619822565b915061987d60208401619822565b90509250929050565b60008351619898818460208801618e6b565b8351908301906198ac818360208801618e6b565b01949350505050565b6000806000606084860312156198ca57600080fd5b6198d384619822565b92506198e160208501619822565b9150604084015190509250925092565b60008060006060848603121561990657600080fd5b61990f84619822565b925060208401519150604084015190509250925092565b600080600080600060a0868803121561993e57600080fd5b61994786619822565b945061995560208701619822565b935061996360408701619822565b6060870151608090970151959894975095949392505050565b80820260008212600160ff1b8414161561999857619998619729565b818105831482151761329d5761329d619729565b6000826199bb576199bb6197e4565b6000198314600160ff1b831416156199d5576199d5619729565b500590565b600181815b80851115619a155781600019048211156199fb576199fb619729565b80851615619a0857918102915b93841c93908002906199df565b509250929050565b600082619a2c5750600161329d565b81619a395750600061329d565b8160018114619a4f5760028114619a5957619a75565b600191505061329d565b60ff841115619a6a57619a6a619729565b50506001821b61329d565b5060208310610133831016604e8410600b8410161715619a98575081810a61329d565b619aa283836199da565b8060001904821115619ab657619ab6619729565b029392505050565b60006151c78383619a1d565b6020815260006151c76020830184618f40565b8082018281126000831280158216821582161715619afd57619afd619729565b505092915050565b601f821115619b4f57600081815260208120601f850160051c81016020861015619b2c5750805b601f850160051c820191505b81811015619b4b57828155600101619b38565b5050505b505050565b815167ffffffffffffffff811115619b6e57619b6e61912c565b619b8281619b7c8454619604565b84619b05565b602080601f831160018114619bb75760008415619b9f5750858301515b600019600386901b1c1916600185901b178555619b4b565b600085815260208120601f198616915b82811015619be657888601518255948401946001909101908401619bc7565b5085821015619c045787850151600019600388901b60f8161c191681555b5050505050600190811b0190555056fea26469706673582212200f9141bebe81015eb615dd74041a488f4d9d80181ae28c443b7c25ca6e3d760564736f6c63430008130033",
  "linkReferences": {},
  "deployedLinkReferences": {}
}