{
	"data": {
		"bytecode": {
			"linkReferences": {},
			"object": "6080604052348015600e575f80fd5b50617cb18061001c5f395ff3fe6080604052600436106103fd575f3560e01c8063715018a611610212578063d279c19111610122578063e8d6f2f1116100aa578063f74e921f11610079578063f74e921f14610e37578063f80dca9814610e61578063fa52c7d814610e8b578063fd3623f714610ecc578063ff7c8b1514610f0957610404565b8063e8d6f2f114610da5578063ea4a2cac14610dcf578063f068205414610de5578063f2fde38b14610e0f57610404565b8063dd9b9766116100f1578063dd9b976614610cc5578063e32bd90c14610cef578063e438322814610d17578063e4fefd6514610d53578063e84dee6b14610d7d57610404565b8063d279c19114610c1b578063d64f1f5f14610c43578063d984445814610c6d578063db2dab1d14610c9d57610404565b806390f20b4a116101a5578063a001ecdd11610174578063a001ecdd14610b3b578063a01253d814610b65578063a8d6d3d114610ba1578063b74cd19414610bc9578063b7ab4db514610bf157610404565b806390f20b4a14610ab55780639975480914610adf5780639ae49cd314610b075780639fb40bac14610b3157610404565b8063806b984f116101e1578063806b984f14610a2157806384449a9d14610a4b5780638456cb5914610a755780638da5cb5b14610a8b57610404565b8063715018a6146109a357806372422748146109b957806373df250d146109e157806376671808146109f757610404565b806354fd4d501161030d57806362ed5c12116102a0578063674a63b91161026f578063674a63b9146108c1578063691ff7ef146108fd5780636973d3f2146109275780636ca56267146109515780637146ab671461096757610404565b806362ed5c1214610821578063648ec7b91461082b578063652ff1591461086c578063656a1b20146108ab57610404565b80635c975abb116102dc5780635c975abb146107695780635eec7b20146107935780636029e786146107cf57806361d027b3146107f757610404565b806354fd4d50146106af57806356f2eca3146106d957806357a38def146107035780635aa1326c1461073f57610404565b8063351b2b331161039057806342b093cf1161035f57806342b093cf146105d75780634670ca47146105ed57806347f809e7146106175780634e50c75c1461063357806354917f831461067257610404565b8063351b2b331461054557806337504f571461056d5780633f4ba83a14610597578063412f9775146105ad57610404565b8063191a54d8116103cc578063191a54d8146104ac5780631a8ef584146104e95780631fdadcb7146104ff5780633304f4561461051b57610404565b8063034438b0146104085780630716187f146104305780630738a9bb1461045a5780631633da6e1461048257610404565b3661040457005b5f80fd5b348015610413575f80fd5b5061042e60048036038101906104299190616308565b610f31565b005b34801561043b575f80fd5b50610444610fbf565b604051610451919061634f565b60405180910390f35b348015610465575f80fd5b50610480600480360381019061047b91906163fb565b610fd3565b005b34801561048d575f80fd5b50610496611129565b6040516104a391906165b9565b60405180910390f35b3480156104b7575f80fd5b506104d260048036038101906104cd91906165d9565b61142f565b6040516104e0929190616622565b60405180910390f35b3480156104f4575f80fd5b506104fd61145f565b005b61051960048036038101906105149190616673565b6115cf565b005b348015610526575f80fd5b5061052f611860565b60405161053c919061669e565b60405180910390f35b348015610550575f80fd5b5061056b600480360381019061056691906166e1565b611866565b005b348015610578575f80fd5b50610581611931565b60405161058e91906168d0565b60405180910390f35b3480156105a2575f80fd5b506105ab611c95565b005b3480156105b8575f80fd5b506105c1611caf565b6040516105ce919061669e565b60405180910390f35b3480156105e2575f80fd5b506105eb611cb5565b005b3480156105f8575f80fd5b50610601611df6565b60405161060e919061634f565b60405180910390f35b610631600480360381019061062c9190616673565b611e0a565b005b34801561063e575f80fd5b5061065960048036038101906106549190616308565b6120ba565b6040516106699493929190616962565b60405180910390f35b34801561067d575f80fd5b50610698600480360381019061069391906165d9565b612198565b6040516106a69291906169bb565b60405180910390f35b3480156106ba575f80fd5b506106c36121c7565b6040516106d09190616a34565b60405180910390f35b3480156106e4575f80fd5b506106ed612204565b6040516106fa9190616a54565b60405180910390f35b34801561070e575f80fd5b5061072960048036038101906107249190616308565b61221b565b6040516107369190616a87565b60405180910390f35b34801561074a575f80fd5b50610753612290565b6040516107609190616a54565b60405180910390f35b348015610774575f80fd5b5061077d6122a7565b60405161078a9190616a87565b60405180910390f35b34801561079e575f80fd5b506107b960048036038101906107b49190616308565b6122bc565b6040516107c691906168d0565b60405180910390f35b3480156107da575f80fd5b506107f560048036038101906107f09190616308565b61256f565b005b348015610802575f80fd5b5061080b61268c565b6040516108189190616aa0565b60405180910390f35b6108296126b1565b005b348015610836575f80fd5b50610851600480360381019061084c91906165d9565b6127ba565b60405161086396959493929190616ab9565b60405180910390f35b348015610877575f80fd5b50610892600480360381019061088d9190616308565b612841565b6040516108a29493929190616b18565b60405180910390f35b3480156108b6575f80fd5b506108bf61286d565b005b3480156108cc575f80fd5b506108e760048036038101906108e291906165d9565b612b63565b6040516108f4919061669e565b60405180910390f35b348015610908575f80fd5b50610911612ddd565b60405161091e9190616a54565b60405180910390f35b348015610932575f80fd5b5061093b612df4565b604051610948919061669e565b60405180910390f35b34801561095c575f80fd5b50610965612dfa565b005b348015610972575f80fd5b5061098d60048036038101906109889190616b5b565b6130e7565b60405161099a9190616a87565b60405180910390f35b3480156109ae575f80fd5b506109b7613111565b005b3480156109c4575f80fd5b506109df60048036038101906109da9190616308565b613124565b005b3480156109ec575f80fd5b506109f5613127565b005b348015610a02575f80fd5b50610a0b613268565b604051610a189190616a54565b60405180910390f35b348015610a2c575f80fd5b50610a3561327f565b604051610a42919061669e565b60405180910390f35b348015610a56575f80fd5b50610a5f613285565b604051610a6c919061669e565b60405180910390f35b348015610a80575f80fd5b50610a8961328b565b005b348015610a96575f80fd5b50610a9f6132a5565b604051610aac9190616aa0565b60405180910390f35b348015610ac0575f80fd5b50610ac96132cd565b604051610ad6919061669e565b60405180910390f35b348015610aea575f80fd5b50610b056004803603810190610b009190616308565b6132d3565b005b348015610b12575f80fd5b50610b1b613328565b604051610b289190616c41565b60405180910390f35b610b396133b5565b005b348015610b46575f80fd5b50610b4f6134be565b604051610b5c919061634f565b60405180910390f35b348015610b70575f80fd5b50610b8b6004803603810190610b869190616cc2565b6134d2565b604051610b989190616f04565b60405180910390f35b348015610bac575f80fd5b50610bc76004803603810190610bc29190616f24565b61388d565b005b348015610bd4575f80fd5b50610bef6004803603810190610bea9190616b5b565b613a07565b005b348015610bfc575f80fd5b50610c05613b04565b604051610c1291906165b9565b60405180910390f35b348015610c26575f80fd5b50610c416004803603810190610c3c91906165d9565b613e0a565b005b348015610c4e575f80fd5b50610c57613e26565b604051610c649190616a54565b60405180910390f35b610c876004803603810190610c829190616fc9565b613e3c565b604051610c94919061669e565b60405180910390f35b348015610ca8575f80fd5b50610cc36004803603810190610cbe91906165d9565b61404a565b005b348015610cd0575f80fd5b50610cd9614169565b604051610ce69190617026565b60405180910390f35b348015610cfa575f80fd5b50610d156004803603810190610d109190616308565b61417c565b005b348015610d22575f80fd5b50610d3d6004803603810190610d389190616b5b565b6141d1565b604051610d4a919061669e565b60405180910390f35b348015610d5e575f80fd5b50610d676141f1565b604051610d749190616a54565b60405180910390f35b348015610d88575f80fd5b50610da36004803603810190610d9e919061703f565b614208565b005b348015610db0575f80fd5b50610db9614a57565b604051610dc69190616c41565b60405180910390f35b348015610dda575f80fd5b50610de3614ae4565b005b348015610df0575f80fd5b50610df9614c54565b604051610e06919061669e565b60405180910390f35b348015610e1a575f80fd5b50610e356004803603810190610e3091906165d9565b614c5a565b005b348015610e42575f80fd5b50610e4b614cdc565b604051610e589190616c41565b60405180910390f35b348015610e6c575f80fd5b50610e75614d69565b604051610e82919061669e565b60405180910390f35b348015610e96575f80fd5b50610eb16004803603810190610eac91906165d9565b614d6f565b604051610ec396959493929190616ab9565b60405180910390f35b348015610ed7575f80fd5b50610ef26004803603810190610eed91906165d9565b614df6565b604051610f00929190616622565b60405180910390f35b348015610f14575f80fd5b50610f2f6004803603810190610f2a91906170c6565b614e26565b005b610f396150ef565b610f4161516d565b5f8103610f7a576040517f1342eb4b00000000000000000000000000000000000000000000000000000000815260040160405180910390fd5b7f3179ee2c3011a36d6d80a4b422f208df28ef9493d1d9ce1555b3116bd26ddb3d601b5482604051610fad92919061719f565b60405180910390a180601b8190555050565b601a60109054906101000a900461ffff1681565b610fdb6150ef565b610fe361516d565b5f8163ffffffff1603611022576040517fe142361700000000000000000000000000000000000000000000000000000000815260040160405180910390fd5b5f60015f8473ffffffffffffffffffffffffffffffffffffffff1673ffffffffffffffffffffffffffffffffffffffff1681526020019081526020015f2090505f816001015f9054906101000a900463ffffffff1663ffffffff16036110b4576040517f13aa293e00000000000000000000000000000000000000000000000000000000815260040160405180910390fd5b81816001015f6101000a81548163ffffffff021916908363ffffffff1602179055508273ffffffffffffffffffffffffffffffffffffffff167f64905396482bb1067a551077143915c77b512b1cfea5db34c903943c1c2a5a158360405161111c91906171c6565b60405180910390a2505050565b60605f60085f018054806020026020016040519081016040528092919081815260200182805480156111ad57602002820191905f5260205f20905b815f9054906101000a900473ffffffffffffffffffffffffffffffffffffffff1673ffffffffffffffffffffffffffffffffffffffff1681526020019060010190808311611164575b505050505090505f815190505f8167ffffffffffffffff8111156111d4576111d36171df565b5b60405190808252806020026020018201604052801561120d57816020015b6111fa61614f565b8152602001906001900390816111f25790505b5090505f5b82811015611425575f60025f8684815181106112315761123061720c565b5b602002602001015173ffffffffffffffffffffffffffffffffffffffff1673ffffffffffffffffffffffffffffffffffffffff1681526020019081526020015f206040518060c00160405290815f820154815260200160018201548152602001600282015f9054906101000a900473ffffffffffffffffffffffffffffffffffffffff1673ffffffffffffffffffffffffffffffffffffffff1673ffffffffffffffffffffffffffffffffffffffff1681526020016002820160149054906101000a900464ffffffffff1664ffffffffff1664ffffffffff1681526020016002820160199054906101000a900464ffffffffff1664ffffffffff1664ffffffffff16815260200160028201601e9054906101000a900461ffff1661ffff1661ffff168152505090506040518060e001604052808684815181106113775761137661720c565b5b602002602001015173ffffffffffffffffffffffffffffffffffffffff168152602001825f0151815260200182602001518152602001826040015173ffffffffffffffffffffffffffffffffffffffff168152602001826060015164ffffffffff168152602001826080015164ffffffffff1681526020018260a0015161ffff1681525083838151811061140e5761140d61720c565b5b602002602001018190525050806001019050611212565b5080935050505090565b600c602052805f5260405f205f91509050805f015490806001015f9054906101000a900464ffffffffff16905082565b6114676152ba565b61146f61516d565b5f60025f3373ffffffffffffffffffffffffffffffffffffffff1673ffffffffffffffffffffffffffffffffffffffff1681526020019081526020015f2090505f81600201601e9054906101000a900461ffff1661ffff16036114fe576040517faba4733900000000000000000000000000000000000000000000000000000000815260040160405180910390fd5b5f816002015f9054906101000a900473ffffffffffffffffffffffffffffffffffffffff1690506115743360045f8473ffffffffffffffffffffffffffffffffffffffff1673ffffffffffffffffffffffffffffffffffffffff1681526020019081526020015f2061530490919063ffffffff16565b61158833600861530490919063ffffffff16565b3373ffffffffffffffffffffffffffffffffffffffff167fb7041987154996ed34981c2bc6fbafd4b1fcab9964486d7cc386f0d8abcc544660405160405180910390a25050565b6115d76152ba565b6115df61516d565b5f8161ffff1614806116085750601a60109054906101000a900461ffff1661ffff168161ffff16115b1561163f576040517fe142361700000000000000000000000000000000000000000000000000000000815260040160405180910390fd5b60175434101561167b576040517f1cc3b37b00000000000000000000000000000000000000000000000000000000815260040160405180910390fd5b5f60025f3373ffffffffffffffffffffffffffffffffffffffff1673ffffffffffffffffffffffffffffffffffffffff1681526020019081526020015f2090505f81600201601e9054906101000a900461ffff1661ffff161461170a576040517f3a81d6fc00000000000000000000000000000000000000000000000000000000815260040160405180910390fd5b34815f01819055508181600201601e6101000a81548161ffff021916908361ffff160217905550601a60149054906101000a900464ffffffffff168160020160146101000a81548164ffffffffff021916908364ffffffffff1602179055505f60065f016117786006615436565b6117815f615445565b61178b9190617266565b8154811061179c5761179b61720c565b5b905f5260205f20015f9054906101000a900473ffffffffffffffffffffffffffffffffffffffff16905080826002015f6101000a81548173ffffffffffffffffffffffffffffffffffffffff021916908373ffffffffffffffffffffffffffffffffffffffff1602179055508261ffff163373ffffffffffffffffffffffffffffffffffffffff167f55e488821080f3f5cdf6088b02793df0d26f40053a70b6154347d2ac313015a134604051611853919061669e565b60405180910390a3505050565b60175481565b61186e6150ef565b61187661516d565b5f8164ffffffffff16036118bf576040517f08c379a00000000000000000000000000000000000000000000000000000000081526004016118b6906172e0565b60405180910390fd5b7fdf63c46e5024e57c66aafc6698e317c78589c870dca694678c89dd379c5fd490601a600a9054906101000a900464ffffffffff1682604051611903929190617337565b60405180910390a180601a600a6101000a81548164ffffffffff021916908364ffffffffff16021790555050565b60605f60125f3373ffffffffffffffffffffffffffffffffffffffff1673ffffffffffffffffffffffffffffffffffffffff1681526020019081526020015f205f018054806020026020016040519081016040528092919081815260200182805480156119bb57602002820191905f5260205f20905b8154815260200190600101908083116119a7575b505050505090505f815190505f805b82811015611a14576119f58482815181106119e8576119e761720c565b5b602002602001015161221b565b15611a09578180611a059061738b565b9250505b8060010190506119ca565b505f8167ffffffffffffffff811115611a3057611a2f6171df565b5b604051908082528060200260200182016040528015611a6957816020015b611a566161c3565b815260200190600190039081611a4e5790505b5090505f91505f5b83811015611c8a57611a9c858281518110611a8f57611a8e61720c565b5b602002602001015161221b565b15611c7f575f60115f878481518110611ab857611ab761720c565b5b602002602001015181526020019081526020015f2090505f600f5f835f015481526020019081526020015f2090506040518060e00160405280888581518110611b0457611b0361720c565b5b60200260200101518152602001835f0154815260200182600201548152602001826001018054611b33906173ff565b80601f0160208091040260200160405190810160405280929190818152602001828054611b5f906173ff565b8015611baa5780601f10611b8157610100808354040283529160200191611baa565b820191905f5260205f20905b815481529060010190602001808311611b8d57829003601f168201915b50505050508152602001826004015f9054906101000a900473ffffffffffffffffffffffffffffffffffffffff1673ffffffffffffffffffffffffffffffffffffffff168152602001826005015f9054906101000a900473ffffffffffffffffffffffffffffffffffffffff1673ffffffffffffffffffffffffffffffffffffffff1681526020018260040160149054906101000a900464ffffffffff1664ffffffffff16815250848680611c5e9061738b565b975081518110611c7157611c7061720c565b5b602002602001018190525050505b806001019050611a71565b508094505050505090565b611c9d6150ef565b611ca5615489565b611cad6154d2565b565b60185481565b611cbd61516d565b5f600d5f3373ffffffffffffffffffffffffffffffffffffffff1673ffffffffffffffffffffffffffffffffffffffff1681526020019081526020015f209050806001015f9054906101000a900464ffffffffff1664ffffffffff16421015611d52576040517fb3c383a100000000000000000000000000000000000000000000000000000000815260040160405180910390fd5b5f815f015490505f8103611d92576040517f15da940f00000000000000000000000000000000000000000000000000000000815260040160405180910390fd5b5f825f0181905550611da43382615533565b3373ffffffffffffffffffffffffffffffffffffffff167ffa8e6fe2f340a3c8da106ab24f4645cdc4f034a0c0514cabfa764531f13798b382604051611dea919061669e565b60405180910390a25050565b601a60129054906101000a900461ffff1681565b611e126152ba565b611e1a61516d565b5f8161ffff161480611e435750601a60109054906101000a900461ffff1661ffff168161ffff16115b15611e7a576040517fe142361700000000000000000000000000000000000000000000000000000000815260040160405180910390fd5b601854341015611eb6576040517f1cc3b37b00000000000000000000000000000000000000000000000000000000815260040160405180910390fd5b5f60035f3373ffffffffffffffffffffffffffffffffffffffff1673ffffffffffffffffffffffffffffffffffffffff1681526020019081526020015f2090505f81600201601e9054906101000a900461ffff1661ffff1614611f45576040517f3a81d6fc00000000000000000000000000000000000000000000000000000000815260040160405180910390fd5b34815f01819055508181600201601e6101000a81548161ffff021916908361ffff1602179055508181600201601e6101000a81548161ffff021916908361ffff160217905550601a60149054906101000a900464ffffffffff168160020160146101000a81548164ffffffffff021916908364ffffffffff1602179055505f60065f01611fd26006615436565b611fdb5f615445565b611fe59190617266565b81548110611ff657611ff561720c565b5b905f5260205f20015f9054906101000a900473ffffffffffffffffffffffffffffffffffffffff16905080826002015f6101000a81548173ffffffffffffffffffffffffffffffffffffffff021916908373ffffffffffffffffffffffffffffffffffffffff1602179055508261ffff163373ffffffffffffffffffffffffffffffffffffffff167fcc39e21667abb04befce1bb972c8b03a1b15e1f4b84a3db2535c2fcd6179bb6f346040516120ad919061669e565b60405180910390a3505050565b6011602052805f5260405f205f91509050805f0154908060010180546120df906173ff565b80601f016020809104026020016040519081016040528092919081815260200182805461210b906173ff565b80156121565780601f1061212d57610100808354040283529160200191612156565b820191905f5260205f20905b81548152906001019060200180831161213957829003601f168201915b505050505090806002015f9054906101000a900473ffffffffffffffffffffffffffffffffffffffff16908060020160149054906101000a900460ff16905084565b6001602052805f5260405f205f91509050805f015490806001015f9054906101000a900463ffffffff16905082565b60606040518060400160405280600681526020017f76302e302e310000000000000000000000000000000000000000000000000000815250905090565b6019601b9054906101000a900464ffffffffff1681565b5f8060115f8481526020019081526020015f20600101805461223c906173ff565b90501480156122895750600f5f60115f8581526020019081526020015f205f015481526020019081526020015f2060040160149054906101000a900464ffffffffff1664ffffffffff1642105b9050919050565b601a60059054906101000a900464ffffffffff1681565b5f60e85f9054906101000a900460ff16905090565b60605f60135f8481526020019081526020015f205f0180548060200260200160405190810160405280929190818152602001828054801561231a57602002820191905f5260205f20905b815481526020019060010190808311612306575b505050505090505f815190505f8167ffffffffffffffff811115612341576123406171df565b5b60405190808252806020026020018201604052801561237a57816020015b6123676161c3565b81526020019060019003908161235f5790505b5090505f5b82811015612563575f60115f86848151811061239e5761239d61720c565b5b602002602001015181526020019081526020015f2090505f600f5f835f015481526020019081526020015f2090506040518060e001604052808785815181106123ea576123e961720c565b5b60200260200101518152602001835f0154815260200182600201548152602001826001018054612419906173ff565b80601f0160208091040260200160405190810160405280929190818152602001828054612445906173ff565b80156124905780601f1061246757610100808354040283529160200191612490565b820191905f5260205f20905b81548152906001019060200180831161247357829003601f168201915b50505050508152602001826004015f9054906101000a900473ffffffffffffffffffffffffffffffffffffffff1673ffffffffffffffffffffffffffffffffffffffff168152602001826005015f9054906101000a900473ffffffffffffffffffffffffffffffffffffffff1673ffffffffffffffffffffffffffffffffffffffff1681526020018260040160149054906101000a900464ffffffffff1664ffffffffff1681525084848151811061254b5761254a61720c565b5b6020026020010181905250505080600101905061237f565b50809350505050919050565b61257761516d565b5f600f5f8381526020019081526020015f2090506001600481111561259f5761259e616d36565b5b81600401601a9054906101000a900460ff1660048111156125c3576125c2616d36565b5b1480156125eb57508060040160149054906101000a900464ffffffffff1664ffffffffff1642115b1561268857600481600401601a6101000a81548160ff0219169083600481111561261857612617616d36565b5b021790555061264e816005015f9054906101000a900473ffffffffffffffffffffffffffffffffffffffff168260020154615533565b817fbc645ece538d7606c8ac26de30aef5fbd0ed2ee0c945f4e5d860da3e62781d50600460405161267f919061743e565b60405180910390a25b5050565b60195f9054906101000a900473ffffffffffffffffffffffffffffffffffffffff1681565b6126b96152ba565b6126c161516d565b5f60035f3373ffffffffffffffffffffffffffffffffffffffff1673ffffffffffffffffffffffffffffffffffffffff1681526020019081526020015f2090505f81600201601e9054906101000a900461ffff1661ffff1603612750576040517faba4733900000000000000000000000000000000000000000000000000000000815260040160405180910390fd5b34815f015f8282546127629190617457565b925050819055503373ffffffffffffffffffffffffffffffffffffffff167f34922005bddea1820fe67d4e0d79b91845321a99fc0d43fe025b74ac23e1063d346040516127af919061669e565b60405180910390a250565b6002602052805f5260405f205f91509050805f015490806001015490806002015f9054906101000a900473ffffffffffffffffffffffffffffffffffffffff16908060020160149054906101000a900464ffffffffff16908060020160199054906101000a900464ffffffffff169080600201601e9054906101000a900461ffff16905086565b6015602052805f5260405f205f91509050805f0154908060010154908060020154908060030154905084565b6128756155d7565b61287d61516d565b5f60025f3373ffffffffffffffffffffffffffffffffffffffff1673ffffffffffffffffffffffffffffffffffffffff1681526020019081526020015f2090505f81600201601e9054906101000a900461ffff1661ffff160361290c576040517faba4733900000000000000000000000000000000000000000000000000000000815260040160405180910390fd5b5f81600201601e6101000a81548161ffff021916908361ffff1602179055505f815f015490505f825f01819055505f826001018190555061295733600861562890919063ffffffff16565b6129c93360045f856002015f9054906101000a900473ffffffffffffffffffffffffffffffffffffffff1673ffffffffffffffffffffffffffffffffffffffff1673ffffffffffffffffffffffffffffffffffffffff1681526020019081526020015f2061562890919063ffffffff16565b5f826002015f6101000a81548173ffffffffffffffffffffffffffffffffffffffff021916908373ffffffffffffffffffffffffffffffffffffffff1602179055505f600c5f3373ffffffffffffffffffffffffffffffffffffffff1673ffffffffffffffffffffffffffffffffffffffff1681526020019081526020015f205f0154905060405180604001604052808284612a659190617457565b8152602001601a600a9054906101000a900464ffffffffff1664ffffffffff1642612a909190617457565b64ffffffffff16815250600c5f3373ffffffffffffffffffffffffffffffffffffffff1673ffffffffffffffffffffffffffffffffffffffff1681526020019081526020015f205f820151815f01556020820151816001015f6101000a81548164ffffffffff021916908364ffffffffff160217905550905050612b1333615863565b3373ffffffffffffffffffffffffffffffffffffffff167f8f54596d72781f60dbf7dad7e576f06ce17bbda0bdf384463f7734f85f51498e60405160405180910390a2505050612b61615950565b565b5f612b6c61516d565b5f80601a60149054906101000a900464ffffffffff1664ffffffffff1690505f60025f8673ffffffffffffffffffffffffffffffffffffffff1673ffffffffffffffffffffffffffffffffffffffff1681526020019081526020015f205f0154111580612c31575060025f8573ffffffffffffffffffffffffffffffffffffffff1673ffffffffffffffffffffffffffffffffffffffff1681526020019081526020015f2060020160149054906101000a900464ffffffffff1664ffffffffff168111155b15612c3e575f9150612dd3565b5f60025f8673ffffffffffffffffffffffffffffffffffffffff1673ffffffffffffffffffffffffffffffffffffffff1681526020019081526020015f2060020160149054906101000a900464ffffffffff1664ffffffffff1690505f805f5b84841015612dce575f60155f8681526020019081526020015f206040518060800160405290815f8201548152602001600182015481526020016002820154815260200160038201548152505090505f81604001519050815f0151826020015183606001518095508196508297505050505f81118015612d1c57505f85115b15612d92578060165f8c73ffffffffffffffffffffffffffffffffffffffff1673ffffffffffffffffffffffffffffffffffffffff1681526020019081526020015f205f8881526020019081526020015f205486612d7a919061748a565b612d8491906174cb565b88612d8f9190617457565b97505b5f83118015612da057505f84115b15612dbf578284612db191906174cb565b88612dbc9190617457565b97505b50508380600101945050612c9e565b505050505b8192505050919050565b601960169054906101000a900464ffffffffff1681565b60105481565b612e026155d7565b612e0a61516d565b5f60035f3373ffffffffffffffffffffffffffffffffffffffff1673ffffffffffffffffffffffffffffffffffffffff1681526020019081526020015f2090505f81600201601e9054906101000a900461ffff1661ffff1603612e99576040517faba4733900000000000000000000000000000000000000000000000000000000815260040160405180910390fd5b5f81600201601e6101000a81548161ffff021916908361ffff1602179055505f815f015490505f825f01819055505f8260010181905550612ee433600a61562890919063ffffffff16565b612f563360055f856002015f9054906101000a900473ffffffffffffffffffffffffffffffffffffffff1673ffffffffffffffffffffffffffffffffffffffff1673ffffffffffffffffffffffffffffffffffffffff1681526020019081526020015f2061562890919063ffffffff16565b5f826002015f6101000a81548173ffffffffffffffffffffffffffffffffffffffff021916908373ffffffffffffffffffffffffffffffffffffffff1602179055505f600d5f3373ffffffffffffffffffffffffffffffffffffffff1673ffffffffffffffffffffffffffffffffffffffff1681526020019081526020015f205f0154905060405180604001604052808284612ff29190617457565b8152602001601a600a9054906101000a900464ffffffffff1664ffffffffff164261301d9190617457565b64ffffffffff16815250600d5f3373ffffffffffffffffffffffffffffffffffffffff1673ffffffffffffffffffffffffffffffffffffffff1681526020019081526020015f205f820151815f01556020820151816001015f6101000a81548164ffffffffff021916908364ffffffffff1602179055509050503373ffffffffffffffffffffffffffffffffffffffff167f3b4cb6e47f5990bd17a69f36b4e7e5b9eca32c5fbc0b09ffa37149fb7734881660405160405180910390a25050506130e5615950565b565b6014602052815f5260405f20602052805f5260405f205f915091509054906101000a900460ff1681565b6131196150ef565b6131225f61595b565b565b50565b61312f61516d565b5f600c5f3373ffffffffffffffffffffffffffffffffffffffff1673ffffffffffffffffffffffffffffffffffffffff1681526020019081526020015f209050806001015f9054906101000a900464ffffffffff1664ffffffffff164210156131c4576040517fb3c383a100000000000000000000000000000000000000000000000000000000815260040160405180910390fd5b5f815f015490505f8103613204576040517f15da940f00000000000000000000000000000000000000000000000000000000815260040160405180910390fd5b5f825f01819055506132163382615533565b3373ffffffffffffffffffffffffffffffffffffffff167f1051154647682075e7cc0645853209e75208cb5acd862fc83f7fd0fcaa9624b48260405161325c919061669e565b60405180910390a25050565b601a60149054906101000a900464ffffffffff1681565b601c5481565b601e5481565b6132936150ef565b61329b6152ba565b6132a3615a1e565b565b5f60b65f9054906101000a900473ffffffffffffffffffffffffffffffffffffffff16905090565b601d5481565b6132db6150ef565b6132e361516d565b7f140d5df2de20371811806c8962c8ceebe74aa09cc166e0d64bed23a5fa261983601e548260405161331692919061719f565b60405180910390a180601d8190555050565b606060065f018054806020026020016040519081016040528092919081815260200182805480156133ab57602002820191905f5260205f20905b815f9054906101000a900473ffffffffffffffffffffffffffffffffffffffff1673ffffffffffffffffffffffffffffffffffffffff1681526020019060010190808311613362575b5050505050905090565b6133bd6152ba565b6133c561516d565b5f60025f3373ffffffffffffffffffffffffffffffffffffffff1673ffffffffffffffffffffffffffffffffffffffff1681526020019081526020015f2090505f81600201601e9054906101000a900461ffff1661ffff1603613454576040517faba4733900000000000000000000000000000000000000000000000000000000815260040160405180910390fd5b34815f015f8282546134669190617457565b925050819055503373ffffffffffffffffffffffffffffffffffffffff167f3d236e8f743e932a32c84d3114ce3e7ee0b75225cb3b39f72faac62495fd21c1346040516134b3919061669e565b60405180910390a250565b601960149054906101000a900461ffff1681565b60605f8383905090505f8167ffffffffffffffff8111156134f6576134f56171df565b5b60405190808252806020026020018201604052801561352f57816020015b61351c61622d565b8152602001906001900390816135145790505b5090505f5b82811015613881575f600f5f8888858181106135535761355261720c565b5b9050602002013581526020019081526020015f2090506040518061012001604052808888858181106135885761358761720c565b5b9050602002013581526020018260010180546135a3906173ff565b80601f01602080910402602001604051908101604052809291908181526020018280546135cf906173ff565b801561361a5780601f106135f15761010080835404028352916020019161361a565b820191905f5260205f20905b8154815290600101906020018083116135fd57829003601f168201915b505050505081526020016003600481111561363857613637616d36565b5b83600401601a9054906101000a900460ff16600481111561365c5761365b616d36565b5b146136755760405180602001604052805f815250613742565b60115f845f018560040160199054906101000a900460ff1660ff16815481106136a1576136a061720c565b5b905f5260205f20015481526020019081526020015f2060010180546136c5906173ff565b80601f01602080910402602001604051908101604052809291908181526020018280546136f1906173ff565b801561373c5780601f106137135761010080835404028352916020019161373c565b820191905f5260205f20905b81548152906001019060200180831161371f57829003601f168201915b50505050505b815260200182600201548152602001826003015f9054906101000a900473ffffffffffffffffffffffffffffffffffffffff1673ffffffffffffffffffffffffffffffffffffffff168152602001826004015f9054906101000a900473ffffffffffffffffffffffffffffffffffffffff1673ffffffffffffffffffffffffffffffffffffffff1681526020018260040160149054906101000a900464ffffffffff1664ffffffffff16815260200182600401601a9054906101000a900460ff16600481111561381557613814616d36565b5b8152602001826005015f9054906101000a900473ffffffffffffffffffffffffffffffffffffffff1673ffffffffffffffffffffffffffffffffffffffff1681525083838151811061386a5761386961720c565b5b602002602001018190525050806001019050613534565b50809250505092915050565b6138956150ef565b61389d61516d565b5f8261ffff16036138da576040517fe142361700000000000000000000000000000000000000000000000000000000815260040160405180910390fd5b5f60015f8573ffffffffffffffffffffffffffffffffffffffff1673ffffffffffffffffffffffffffffffffffffffff1681526020019081526020015f2090505f816001015f9054906101000a900463ffffffff1663ffffffff161461396c576040517f3a81d6fc00000000000000000000000000000000000000000000000000000000815260040160405180910390fd5b81815f01819055508261ffff16816001015f6101000a81548163ffffffff021916908363ffffffff1602179055506139ae84600661530490919063ffffffff16565b8261ffff168473ffffffffffffffffffffffffffffffffffffffff167f7041913a4cb21c28c931da9d9e4b5ed0ad84e47fcf2a65527f03c438d534ed5c846040516139f9919061669e565b60405180910390a350505050565b613a0f6150ef565b613a1761516d565b5f60015f8473ffffffffffffffffffffffffffffffffffffffff1673ffffffffffffffffffffffffffffffffffffffff1681526020019081526020015f2090505f816001015f9054906101000a900463ffffffff1663ffffffff1603613aa9576040517f13aa293e00000000000000000000000000000000000000000000000000000000815260040160405180910390fd5b81815f01819055508273ffffffffffffffffffffffffffffffffffffffff167f923b5fe9c9974b3c93e434ae744faaa60ec86513c02614da5c8d9c51eda2bdd783604051613af7919061669e565b60405180910390a2505050565b60605f600a5f01805480602002602001604051908101604052809291908181526020018280548015613b8857602002820191905f5260205f20905b815f9054906101000a900473ffffffffffffffffffffffffffffffffffffffff1673ffffffffffffffffffffffffffffffffffffffff1681526020019060010190808311613b3f575b505050505090505f815190505f8167ffffffffffffffff811115613baf57613bae6171df565b5b604051908082528060200260200182016040528015613be857816020015b613bd561614f565b815260200190600190039081613bcd5790505b5090505f5b82811015613e00575f60035f868481518110613c0c57613c0b61720c565b5b602002602001015173ffffffffffffffffffffffffffffffffffffffff1673ffffffffffffffffffffffffffffffffffffffff1681526020019081526020015f206040518060c00160405290815f820154815260200160018201548152602001600282015f9054906101000a900473ffffffffffffffffffffffffffffffffffffffff1673ffffffffffffffffffffffffffffffffffffffff1673ffffffffffffffffffffffffffffffffffffffff1681526020016002820160149054906101000a900464ffffffffff1664ffffffffff1664ffffffffff1681526020016002820160199054906101000a900464ffffffffff1664ffffffffff1664ffffffffff16815260200160028201601e9054906101000a900461ffff1661ffff1661ffff168152505090506040518060e00160405280868481518110613d5257613d5161720c565b5b602002602001015173ffffffffffffffffffffffffffffffffffffffff168152602001825f0151815260200182602001518152602001826040015173ffffffffffffffffffffffffffffffffffffffff168152602001826060015164ffffffffff168152602001826080015164ffffffffff1681526020018260a0015161ffff16815250838381518110613de957613de861720c565b5b602002602001018190525050806001019050613bed565b5080935050505090565b613e126155d7565b613e1b81615863565b613e23615950565b50565b601a5f9054906101000a900464ffffffffff1681565b5f613e456152ba565b5f60015f3373ffffffffffffffffffffffffffffffffffffffff1673ffffffffffffffffffffffffffffffffffffffff1681526020019081526020015f2090505f816001015f9054906101000a900463ffffffff1663ffffffff1603613ed7576040517f82b4290000000000000000000000000000000000000000000000000000000000815260040160405180910390fd5b805f0154341015613f14576040517f732f941300000000000000000000000000000000000000000000000000000000815260040160405180910390fd5b5f600e5f8154613f239061738b565b91905081905590505f600f5f8381526020019081526020015f2090505f3490508787836001019182613f56929190617699565b5080826002018190555085826005015f6101000a81548173ffffffffffffffffffffffffffffffffffffffff021916908373ffffffffffffffffffffffffffffffffffffffff16021790555033826004015f6101000a81548173ffffffffffffffffffffffffffffffffffffffff021916908373ffffffffffffffffffffffffffffffffffffffff1602179055508573ffffffffffffffffffffffffffffffffffffffff16837f38ddd254e73473217830b34f391798374ee63b7335fbc718901f8c47ac16932b8360405161402b919061669e565b60405180910390a361403c83615a80565b829450505050509392505050565b6140526150ef565b61405a61516d565b5f60015f8373ffffffffffffffffffffffffffffffffffffffff1673ffffffffffffffffffffffffffffffffffffffff1681526020019081526020015f2090505f816001015f9054906101000a900463ffffffff1663ffffffff16036140ec576040517faba4733900000000000000000000000000000000000000000000000000000000815260040160405180910390fd5b5f816001015f6101000a81548163ffffffff021916908363ffffffff16021790555061412282600661562890919063ffffffff16565b8173ffffffffffffffffffffffffffffffffffffffff167f68180f49300b9177ab3b88d3f909a002abeb9c2f769543a93234ca68333582d760405160405180910390a25050565b601a600f9054906101000a900460ff1681565b6141846150ef565b61418c61516d565b7f3d731857045dfa7982ed8ff308eeda54c7e156ba99609db02c50b4485f64c463601e54826040516141bf92919061719f565b60405180910390a180601e8190555050565b6016602052815f5260405f20602052805f5260405f205f91509150505481565b601a600a9054906101000a900464ffffffffff1681565b6142106152ba565b61421861516d565b5f3390505f60115f8681526020019081526020015f206040518060800160405290815f8201548152602001600182018054614252906173ff565b80601f016020809104026020016040519081016040528092919081815260200182805461427e906173ff565b80156142c95780601f106142a0576101008083540402835291602001916142c9565b820191905f5260205f20905b8154815290600101906020018083116142ac57829003601f168201915b50505050508152602001600282015f9054906101000a900473ffffffffffffffffffffffffffffffffffffffff1673ffffffffffffffffffffffffffffffffffffffff1673ffffffffffffffffffffffffffffffffffffffff1681526020016002820160149054906101000a900460ff1660ff1660ff16815250509050806040015173ffffffffffffffffffffffffffffffffffffffff168273ffffffffffffffffffffffffffffffffffffffff16146143af576040517f82b4290000000000000000000000000000000000000000000000000000000000815260040160405180910390fd5b5f816020015151146143ed576040517f9fbfc58900000000000000000000000000000000000000000000000000000000815260040160405180910390fd5b5f600f5f835f015181526020019081526020015f20604051806101200160405290815f820180548060200260200160405190810160405280929190818152602001828054801561445a57602002820191905f5260205f20905b815481526020019060010190808311614446575b50505050508152602001600182018054614473906173ff565b80601f016020809104026020016040519081016040528092919081815260200182805461449f906173ff565b80156144ea5780601f106144c1576101008083540402835291602001916144ea565b820191905f5260205f20905b8154815290600101906020018083116144cd57829003601f168201915b5050505050815260200160028201548152602001600382015f9054906101000a900473ffffffffffffffffffffffffffffffffffffffff1673ffffffffffffffffffffffffffffffffffffffff1673ffffffffffffffffffffffffffffffffffffffff168152602001600482015f9054906101000a900473ffffffffffffffffffffffffffffffffffffffff1673ffffffffffffffffffffffffffffffffffffffff1673ffffffffffffffffffffffffffffffffffffffff1681526020016004820160149054906101000a900464ffffffffff1664ffffffffff1664ffffffffff1681526020016004820160199054906101000a900460ff1660ff1660ff16815260200160048201601a9054906101000a900460ff16600481111561461257614611616d36565b5b600481111561462457614623616d36565b5b8152602001600582015f9054906101000a900473ffffffffffffffffffffffffffffffffffffffff1673ffffffffffffffffffffffffffffffffffffffff1673ffffffffffffffffffffffffffffffffffffffff168152505090506001600481111561469357614692616d36565b5b8160e0015160048111156146aa576146a9616d36565b5b141580156146e15750600360048111156146c7576146c6616d36565b5b8160e0015160048111156146de576146dd616d36565b5b14155b15614718576040517fef084b5900000000000000000000000000000000000000000000000000000000815260040160405180910390fd5b428160a0015164ffffffffff16101561477c575f815f0151510361474a57614742825f015161256f565b505050614a52565b6040517f0345546500000000000000000000000000000000000000000000000000000000815260040160405180910390fd5b5f600f5f845f015181526020019081526020015f209050858560115f8a81526020019081526020015f2060010191826147b6929190617699565b50600381600401601a6101000a81548160ff021916908360048111156147df576147de616d36565b5b0217905550805f0187908060018154018082558091505060019003905f5260205f20015f90919091909150556001815f018054905003614a09575f601a60149054906101000a900464ffffffffff1664ffffffffff169050600160165f8773ffffffffffffffffffffffffffffffffffffffff1673ffffffffffffffffffffffffffffffffffffffff1681526020019081526020015f205f8381526020019081526020015f205f8282546148939190617457565b92505081905550600160155f8381526020019081526020015f206002015f8282546148be9190617457565b925050819055505f612710601960149054906101000a900461ffff1661ffff1685604001516148ed919061748a565b6148f791906174cb565b90505f81856040015161490a9190617766565b905061493760195f9054906101000a900473ffffffffffffffffffffffffffffffffffffffff1683615533565b6149418782615533565b60195f9054906101000a900473ffffffffffffffffffffffffffffffffffffffff1673ffffffffffffffffffffffffffffffffffffffff168773ffffffffffffffffffffffffffffffffffffffff167f782aada659bac972b342fea00dfc27389e876bece89a9eb635bd5a2c544e8a6b83856040516149c192919061719f565b60405180910390a3855f01517fbc645ece538d7606c8ac26de30aef5fbd0ed2ee0c945f4e5d860da3e62781d5060036040516149fd919061743e565b60405180910390a25050505b868473ffffffffffffffffffffffffffffffffffffffff167f9f669b92b9cbc7611f7ab6c77db07a424051c777433e21bd90f1bdf940096dd960405160405180910390a3505050505b505050565b606060085f01805480602002602001604051908101604052809291908181526020018280548015614ada57602002820191905f5260205f20905b815f9054906101000a900473ffffffffffffffffffffffffffffffffffffffff1673ffffffffffffffffffffffffffffffffffffffff1681526020019060010190808311614a91575b5050505050905090565b614aec6152ba565b614af461516d565b5f60025f3373ffffffffffffffffffffffffffffffffffffffff1673ffffffffffffffffffffffffffffffffffffffff1681526020019081526020015f2090505f81600201601e9054906101000a900461ffff1661ffff1603614b83576040517faba4733900000000000000000000000000000000000000000000000000000000815260040160405180910390fd5b5f816002015f9054906101000a900473ffffffffffffffffffffffffffffffffffffffff169050614bf93360055f8473ffffffffffffffffffffffffffffffffffffffff1673ffffffffffffffffffffffffffffffffffffffff1681526020019081526020015f2061530490919063ffffffff16565b614c0d33600a61530490919063ffffffff16565b3373ffffffffffffffffffffffffffffffffffffffff167f8c97974b44dade54a2967b9de94b1229332187b50127027ff91c2e9b28d69d7560405160405180910390a25050565b601b5481565b614c626150ef565b5f73ffffffffffffffffffffffffffffffffffffffff168173ffffffffffffffffffffffffffffffffffffffff1603614cd0576040517f08c379a0000000000000000000000000000000000000000000000000000000008152600401614cc790617809565b60405180910390fd5b614cd98161595b565b50565b6060600a5f01805480602002602001604051908101604052809291908181526020018280548015614d5f57602002820191905f5260205f20905b815f9054906101000a900473ffffffffffffffffffffffffffffffffffffffff1673ffffffffffffffffffffffffffffffffffffffff1681526020019060010190808311614d16575b5050505050905090565b600e5481565b6003602052805f5260405f205f91509050805f015490806001015490806002015f9054906101000a900473ffffffffffffffffffffffffffffffffffffffff16908060020160149054906101000a900464ffffffffff16908060020160199054906101000a900464ffffffffff169080600201601e9054906101000a900461ffff16905086565b600d602052805f5260405f205f91509050805f015490806001015f9054906101000a900464ffffffffff16905082565b5f608360019054906101000a900460ff16159050808015614e585750600160835f9054906101000a900460ff1660ff16105b80614e865750614e6730615e56565b158015614e855750600160835f9054906101000a900460ff1660ff16145b5b614ec5576040517f08c379a0000000000000000000000000000000000000000000000000000000008152600401614ebc90617897565b60405180910390fd5b600160835f6101000a81548160ff021916908360ff1602179055508015614f02576001608360016101000a81548160ff0219169083151502179055505b614f0a615e78565b614f12615ed1565b614f1a615f2a565b8a60195f6101000a81548173ffffffffffffffffffffffffffffffffffffffff021916908373ffffffffffffffffffffffffffffffffffffffff16021790555089601960146101000a81548161ffff021916908361ffff160217905550886017819055508760188190555086601960166101000a81548164ffffffffff021916908364ffffffffff16021790555085601a600f6101000a81548160ff021916908360ff16021790555084601b8190555083601d8190555082601e8190555081601a600a6101000a81548164ffffffffff021916908364ffffffffff1602179055506001601a60106101000a81548161ffff021916908361ffff16021790555043601c81905550601d5460155f601a60149054906101000a900464ffffffffff1664ffffffffff1681526020019081526020015f205f0181905550601e5460155f601a60149054906101000a900464ffffffffff1664ffffffffff1681526020019081526020015f206001018190555080156150e2575f608360016101000a81548160ff0219169083151502179055507f7f26b83ff96e1f2b6a682f133852f6798a09c465da95921460cefb384740249860016040516150d991906178ee565b60405180910390a15b5050505050505050505050565b6150f7615f83565b73ffffffffffffffffffffffffffffffffffffffff166151156132a5565b73ffffffffffffffffffffffffffffffffffffffff161461516b576040517f08c379a000000000000000000000000000000000000000000000000000000000815260040161516290617951565b60405180910390fd5b565b5f601b5411156152b0575f601b54601c54436151899190617766565b61519391906174cb565b90505f8111156152aa575b5f8111156152a2576151b06008615436565b60155f601a60149054906101000a900464ffffffffff1664ffffffffff1681526020019081526020015f2060030181905550601a601481819054906101000a900464ffffffffff16809291906152059061796f565b91906101000a81548164ffffffffff021916908364ffffffffff16021790555050601d5460155f601a60149054906101000a900464ffffffffff1664ffffffffff1681526020019081526020015f205f0181905550601e5460155f601a60149054906101000a900464ffffffffff1664ffffffffff1681526020019081526020015f2060010181905550808061529a9061799b565b91505061519e565b43601c819055505b506152b8565b43601c819055505b565b6152c26122a7565b15615302576040517f08c379a00000000000000000000000000000000000000000000000000000000081526004016152f990617a0c565b60405180910390fd5b565b5f826001015f8373ffffffffffffffffffffffffffffffffffffffff1673ffffffffffffffffffffffffffffffffffffffff1681526020019081526020015f20541461538757806040517f05e3de8f00000000000000000000000000000000000000000000000000000000815260040161537e9190616aa0565b60405180910390fd5b815f0181908060018154018082558091505060019003905f5260205f20015f9091909190916101000a81548173ffffffffffffffffffffffffffffffffffffffff021916908373ffffffffffffffffffffffffffffffffffffffff160217905550815f0180549050826001015f8373ffffffffffffffffffffffffffffffffffffffff1673ffffffffffffffffffffffffffffffffffffffff1681526020019081526020015f20819055505050565b5f815f01805490509050919050565b5f80825f015442434060405160200161546093929190617a73565b604051602081830303815290604052805190602001205f1c905080835f01819055915050919050565b6154916122a7565b6154d0576040517f08c379a00000000000000000000000000000000000000000000000000000000081526004016154c790617af9565b60405180910390fd5b565b6154da615489565b5f60e85f6101000a81548160ff0219169083151502179055507f5db9ee0a495bf2e6ff9c91a7834c1ba4fdd244a5e8aa4e537bd38aeae4b073aa61551c615f83565b6040516155299190616aa0565b60405180910390a1565b5f8273ffffffffffffffffffffffffffffffffffffffff168260405161555890617b44565b5f6040518083038185875af1925050503d805f8114615592576040519150601f19603f3d011682016040523d82523d5f602084013e615597565b606091505b50509050806155d2576040517fbfa871c500000000000000000000000000000000000000000000000000000000815260040160405180910390fd5b505050565b600261011a540361561d576040517f08c379a000000000000000000000000000000000000000000000000000000000815260040161561490617ba2565b60405180910390fd5b600261011a81905550565b5f826001015f8373ffffffffffffffffffffffffffffffffffffffff1673ffffffffffffffffffffffffffffffffffffffff1681526020019081526020015f205490505f81036156af57816040517f28a32c190000000000000000000000000000000000000000000000000000000081526004016156a69190616aa0565b60405180910390fd5b825f016001845f018054905003815481106156cd576156cc61720c565b5b905f5260205f20015f9054906101000a900473ffffffffffffffffffffffffffffffffffffffff16835f01600183038154811061570d5761570c61720c565b5b905f5260205f20015f6101000a81548173ffffffffffffffffffffffffffffffffffffffff021916908373ffffffffffffffffffffffffffffffffffffffff16021790555080836001015f855f0160018503815481106157705761576f61720c565b5b905f5260205f20015f9054906101000a900473ffffffffffffffffffffffffffffffffffffffff1673ffffffffffffffffffffffffffffffffffffffff1673ffffffffffffffffffffffffffffffffffffffff1681526020019081526020015f2081905550825f018054806157e8576157e7617bc0565b5b600190038181905f5260205f20015f6101000a81549073ffffffffffffffffffffffffffffffffffffffff021916905590555f836001015f8473ffffffffffffffffffffffffffffffffffffffff1673ffffffffffffffffffffffffffffffffffffffff1681526020019081526020015f2081905550505050565b61586b6152ba565b5f61587582612b63565b9050601a60149054906101000a900464ffffffffff1660025f8473ffffffffffffffffffffffffffffffffffffffff1673ffffffffffffffffffffffffffffffffffffffff1681526020019081526020015f2060020160146101000a81548164ffffffffff021916908364ffffffffff1602179055505f81111561594c576158fd8282615533565b8173ffffffffffffffffffffffffffffffffffffffff167f75690555e75b04e280e646889defdcbefd8401507e5394d1173fd84290944c2982604051615943919061669e565b60405180910390a25b5050565b600161011a81905550565b5f60b65f9054906101000a900473ffffffffffffffffffffffffffffffffffffffff1690508160b65f6101000a81548173ffffffffffffffffffffffffffffffffffffffff021916908373ffffffffffffffffffffffffffffffffffffffff1602179055508173ffffffffffffffffffffffffffffffffffffffff168173ffffffffffffffffffffffffffffffffffffffff167f8be0079c531659141344cd1fd0a4f28419497f9722a3daafe3b4186f6b6457e060405160405180910390a35050565b615a266152ba565b600160e85f6101000a81548160ff0219169083151502179055507f62e78cea01bee320cd4e420270b5ea74000d11b0c9f74754ebdbfc544b05a258615a69615f83565b604051615a769190616aa0565b60405180910390a1565b5f601960169054906101000a900464ffffffffff1664ffffffffff1642615aa79190617457565b905080600f5f8481526020019081526020015f2060040160146101000a81548164ffffffffff021916908364ffffffffff1602179055506001600f5f8481526020019081526020015f20600401601a6101000a81548160ff02191690836004811115615b1657615b15616d36565b5b02179055505f600f5f8481526020019081526020015f206004015f9054906101000a900473ffffffffffffffffffffffffffffffffffffffff1690505f60045f8373ffffffffffffffffffffffffffffffffffffffff1673ffffffffffffffffffffffffffffffffffffffff1681526020019081526020015f2090505f601a600f9054906101000a900460ff1660ff1690505f8167ffffffffffffffff811115615bc357615bc26171df565b5b604051908082528060200260200182016040528015615bf15781602001602082028036833780820191505090505b5090505f5b82811015615e0a575f845f01615c0b86615436565b615c145f615445565b615c1e9190617266565b81548110615c2f57615c2e61720c565b5b905f5260205f20015f9054906101000a900473ffffffffffffffffffffffffffffffffffffffff169050615c6c818661562890919063ffffffff16565b5f60105f8154615c7b9061738b565b91905081905590508860115f8381526020019081526020015f205f01819055508160115f8381526020019081526020015f206002015f6101000a81548173ffffffffffffffffffffffffffffffffffffffff021916908373ffffffffffffffffffffffffffffffffffffffff16021790555081848481518110615d0157615d0061720c565b5b602002602001019073ffffffffffffffffffffffffffffffffffffffff16908173ffffffffffffffffffffffffffffffffffffffff1681525050615d8a8160125f8573ffffffffffffffffffffffffffffffffffffffff1673ffffffffffffffffffffffffffffffffffffffff1681526020019081526020015f20615f8a90919063ffffffff16565b615dad8160135f8c81526020019081526020015f20615f8a90919063ffffffff16565b8173ffffffffffffffffffffffffffffffffffffffff1689827f53cc8b652f33c56dac5f1c97a284cc971e7adcb8abe9454b0853f076c6deb7d58b604051615df59190616a54565b60405180910390a45050806001019050615bf6565b505f5b82811015615e4d57615e42828281518110615e2b57615e2a61720c565b5b60200260200101518561530490919063ffffffff16565b806001019050615e0d565b50505050505050565b5f808273ffffffffffffffffffffffffffffffffffffffff163b119050919050565b608360019054906101000a900460ff16615ec7576040517f08c379a0000000000000000000000000000000000000000000000000000000008152600401615ebe90617c5d565b60405180910390fd5b615ecf61602a565b565b608360019054906101000a900460ff16615f20576040517f08c379a0000000000000000000000000000000000000000000000000000000008152600401615f1790617c5d565b60405180910390fd5b615f2861608b565b565b608360019054906101000a900460ff16615f79576040517f08c379a0000000000000000000000000000000000000000000000000000000008152600401615f7090617c5d565b60405180910390fd5b615f816160f5565b565b5f33905090565b5f826001015f8381526020019081526020015f205414615fe157806040517f346c4a0e000000000000000000000000000000000000000000000000000000008152600401615fd8919061669e565b60405180910390fd5b815f0181908060018154018082558091505060019003905f5260205f20015f9091909190915055815f0180549050826001015f8381526020019081526020015f20819055505050565b608360019054906101000a900460ff16616079576040517f08c379a000000000000000000000000000000000000000000000000000000000815260040161607090617c5d565b60405180910390fd5b616089616084615f83565b61595b565b565b608360019054906101000a900460ff166160da576040517f08c379a00000000000000000000000000000000000000000000000000000000081526004016160d190617c5d565b60405180910390fd5b5f60e85f6101000a81548160ff021916908315150217905550565b608360019054906101000a900460ff16616144576040517f08c379a000000000000000000000000000000000000000000000000000000000815260040161613b90617c5d565b60405180910390fd5b600161011a81905550565b6040518060e001604052805f73ffffffffffffffffffffffffffffffffffffffff1681526020015f81526020015f81526020015f73ffffffffffffffffffffffffffffffffffffffff1681526020015f64ffffffffff1681526020015f64ffffffffff1681526020015f61ffff1681525090565b6040518060e001604052805f81526020015f81526020015f8152602001606081526020015f73ffffffffffffffffffffffffffffffffffffffff1681526020015f73ffffffffffffffffffffffffffffffffffffffff1681526020015f64ffffffffff1681525090565b6040518061012001604052805f815260200160608152602001606081526020015f81526020015f73ffffffffffffffffffffffffffffffffffffffff1681526020015f73ffffffffffffffffffffffffffffffffffffffff1681526020015f64ffffffffff1681526020015f60048111156162ab576162aa616d36565b5b81526020015f73ffffffffffffffffffffffffffffffffffffffff1681525090565b5f80fd5b5f80fd5b5f819050919050565b6162e7816162d5565b81146162f1575f80fd5b50565b5f81359050616302816162de565b92915050565b5f6020828403121561631d5761631c6162cd565b5b5f61632a848285016162f4565b91505092915050565b5f61ffff82169050919050565b61634981616333565b82525050565b5f6020820190506163625f830184616340565b92915050565b5f73ffffffffffffffffffffffffffffffffffffffff82169050919050565b5f61639182616368565b9050919050565b6163a181616387565b81146163ab575f80fd5b50565b5f813590506163bc81616398565b92915050565b5f63ffffffff82169050919050565b6163da816163c2565b81146163e4575f80fd5b50565b5f813590506163f5816163d1565b92915050565b5f8060408385031215616411576164106162cd565b5b5f61641e858286016163ae565b925050602061642f858286016163e7565b9150509250929050565b5f81519050919050565b5f82825260208201905092915050565b5f819050602082019050919050565b61646b81616387565b82525050565b61647a816162d5565b82525050565b5f64ffffffffff82169050919050565b61649981616480565b82525050565b6164a881616333565b82525050565b60e082015f8201516164c25f850182616462565b5060208201516164d56020850182616471565b5060408201516164e86040850182616471565b5060608201516164fb6060850182616462565b50608082015161650e6080850182616490565b5060a082015161652160a0850182616490565b5060c082015161653460c085018261649f565b50505050565b5f61654583836164ae565b60e08301905092915050565b5f602082019050919050565b5f61656782616439565b6165718185616443565b935061657c83616453565b805f5b838110156165ac578151616593888261653a565b975061659e83616551565b92505060018101905061657f565b5085935050505092915050565b5f6020820190508181035f8301526165d1818461655d565b905092915050565b5f602082840312156165ee576165ed6162cd565b5b5f6165fb848285016163ae565b91505092915050565b61660d816162d5565b82525050565b61661c81616480565b82525050565b5f6040820190506166355f830185616604565b6166426020830184616613565b9392505050565b61665281616333565b811461665c575f80fd5b50565b5f8135905061666d81616649565b92915050565b5f60208284031215616688576166876162cd565b5b5f6166958482850161665f565b91505092915050565b5f6020820190506166b15f830184616604565b92915050565b6166c081616480565b81146166ca575f80fd5b50565b5f813590506166db816166b7565b92915050565b5f602082840312156166f6576166f56162cd565b5b5f616703848285016166cd565b91505092915050565b5f81519050919050565b5f82825260208201905092915050565b5f819050602082019050919050565b5f81519050919050565b5f82825260208201905092915050565b8281835e5f83830152505050565b5f601f19601f8301169050919050565b5f61677782616735565b616781818561673f565b935061679181856020860161674f565b61679a8161675d565b840191505092915050565b5f60e083015f8301516167ba5f860182616471565b5060208301516167cd6020860182616471565b5060408301516167e06040860182616471565b50606083015184820360608601526167f8828261676d565b915050608083015161680d6080860182616462565b5060a083015161682060a0860182616462565b5060c083015161683360c0860182616490565b508091505092915050565b5f61684983836167a5565b905092915050565b5f602082019050919050565b5f6168678261670c565b6168718185616716565b93508360208202850161688385616726565b805f5b858110156168be578484038952815161689f858261683e565b94506168aa83616851565b925060208a01995050600181019050616886565b50829750879550505050505092915050565b5f6020820190508181035f8301526168e8818461685d565b905092915050565b5f82825260208201905092915050565b5f61690a82616735565b61691481856168f0565b935061692481856020860161674f565b61692d8161675d565b840191505092915050565b61694181616387565b82525050565b5f60ff82169050919050565b61695c81616947565b82525050565b5f6080820190506169755f830187616604565b81810360208301526169878186616900565b90506169966040830185616938565b6169a36060830184616953565b95945050505050565b6169b5816163c2565b82525050565b5f6040820190506169ce5f830185616604565b6169db60208301846169ac565b9392505050565b5f81519050919050565b5f82825260208201905092915050565b5f616a06826169e2565b616a1081856169ec565b9350616a2081856020860161674f565b616a298161675d565b840191505092915050565b5f6020820190508181035f830152616a4c81846169fc565b905092915050565b5f602082019050616a675f830184616613565b92915050565b5f8115159050919050565b616a8181616a6d565b82525050565b5f602082019050616a9a5f830184616a78565b92915050565b5f602082019050616ab35f830184616938565b92915050565b5f60c082019050616acc5f830189616604565b616ad96020830188616604565b616ae66040830187616938565b616af36060830186616613565b616b006080830185616613565b616b0d60a0830184616340565b979650505050505050565b5f608082019050616b2b5f830187616604565b616b386020830186616604565b616b456040830185616604565b616b526060830184616604565b95945050505050565b5f8060408385031215616b7157616b706162cd565b5b5f616b7e858286016163ae565b9250506020616b8f858286016162f4565b9150509250929050565b5f81519050919050565b5f82825260208201905092915050565b5f819050602082019050919050565b5f616bcd8383616462565b60208301905092915050565b5f602082019050919050565b5f616bef82616b99565b616bf98185616ba3565b9350616c0483616bb3565b805f5b83811015616c34578151616c1b8882616bc2565b9750616c2683616bd9565b925050600181019050616c07565b5085935050505092915050565b5f6020820190508181035f830152616c598184616be5565b905092915050565b5f80fd5b5f80fd5b5f80fd5b5f8083601f840112616c8257616c81616c61565b5b8235905067ffffffffffffffff811115616c9f57616c9e616c65565b5b602083019150836020820283011115616cbb57616cba616c69565b5b9250929050565b5f8060208385031215616cd857616cd76162cd565b5b5f83013567ffffffffffffffff811115616cf557616cf46162d1565b5b616d0185828601616c6d565b92509250509250929050565b5f81519050919050565b5f82825260208201905092915050565b5f819050602082019050919050565b7f4e487b71000000000000000000000000000000000000000000000000000000005f52602160045260245ffd5b60058110616d7457616d73616d36565b5b50565b5f819050616d8482616d63565b919050565b5f616d9382616d77565b9050919050565b616da381616d89565b82525050565b5f61012083015f830151616dbf5f860182616471565b5060208301518482036020860152616dd7828261676d565b91505060408301518482036040860152616df1828261676d565b9150506060830151616e066060860182616471565b506080830151616e196080860182616462565b5060a0830151616e2c60a0860182616462565b5060c0830151616e3f60c0860182616490565b5060e0830151616e5260e0860182616d9a565b50610100830151616e67610100860182616462565b508091505092915050565b5f616e7d8383616da9565b905092915050565b5f602082019050919050565b5f616e9b82616d0d565b616ea58185616d17565b935083602082028501616eb785616d27565b805f5b85811015616ef25784840389528151616ed38582616e72565b9450616ede83616e85565b925060208a01995050600181019050616eba565b50829750879550505050505092915050565b5f6020820190508181035f830152616f1c8184616e91565b905092915050565b5f805f60608486031215616f3b57616f3a6162cd565b5b5f616f48868287016163ae565b9350506020616f598682870161665f565b9250506040616f6a868287016162f4565b9150509250925092565b5f8083601f840112616f8957616f88616c61565b5b8235905067ffffffffffffffff811115616fa657616fa5616c65565b5b602083019150836001820283011115616fc257616fc1616c69565b5b9250929050565b5f805f60408486031215616fe057616fdf6162cd565b5b5f84013567ffffffffffffffff811115616ffd57616ffc6162d1565b5b61700986828701616f74565b9350935050602061701c868287016163ae565b9150509250925092565b5f6020820190506170395f830184616953565b92915050565b5f805f60408486031215617056576170556162cd565b5b5f617063868287016162f4565b935050602084013567ffffffffffffffff811115617084576170836162d1565b5b61709086828701616f74565b92509250509250925092565b6170a581616947565b81146170af575f80fd5b50565b5f813590506170c08161709c565b92915050565b5f805f805f805f805f806101408b8d0312156170e5576170e46162cd565b5b5f6170f28d828e016163ae565b9a505060206171038d828e0161665f565b99505060406171148d828e016162f4565b98505060606171258d828e016162f4565b97505060806171368d828e016166cd565b96505060a06171478d828e016170b2565b95505060c06171588d828e016162f4565b94505060e06171698d828e016162f4565b93505061010061717b8d828e016162f4565b92505061012061718d8d828e016166cd565b9150509295989b9194979a5092959850565b5f6040820190506171b25f830185616604565b6171bf6020830184616604565b9392505050565b5f6020820190506171d95f8301846169ac565b92915050565b7f4e487b71000000000000000000000000000000000000000000000000000000005f52604160045260245ffd5b7f4e487b71000000000000000000000000000000000000000000000000000000005f52603260045260245ffd5b7f4e487b71000000000000000000000000000000000000000000000000000000005f52601260045260245ffd5b5f617270826162d5565b915061727b836162d5565b92508261728b5761728a617239565b5b828206905092915050565b7f696e76616c696420756e7374616b652064656c61792074696d650000000000005f82015250565b5f6172ca601a836169ec565b91506172d582617296565b602082019050919050565b5f6020820190508181035f8301526172f7816172be565b9050919050565b5f819050919050565b5f61732161731c61731784616480565b6172fe565b6162d5565b9050919050565b61733181617307565b82525050565b5f60408201905061734a5f830185617328565b6173576020830184617328565b9392505050565b7f4e487b71000000000000000000000000000000000000000000000000000000005f52601160045260245ffd5b5f617395826162d5565b91507fffffffffffffffffffffffffffffffffffffffffffffffffffffffffffffffff82036173c7576173c661735e565b5b600182019050919050565b7f4e487b71000000000000000000000000000000000000000000000000000000005f52602260045260245ffd5b5f600282049050600182168061741657607f821691505b602082108103617429576174286173d2565b5b50919050565b61743881616d89565b82525050565b5f6020820190506174515f83018461742f565b92915050565b5f617461826162d5565b915061746c836162d5565b92508282019050808211156174845761748361735e565b5b92915050565b5f617494826162d5565b915061749f836162d5565b92508282026174ad816162d5565b915082820484148315176174c4576174c361735e565b5b5092915050565b5f6174d5826162d5565b91506174e0836162d5565b9250826174f0576174ef617239565b5b828204905092915050565b5f82905092915050565b5f819050815f5260205f209050919050565b5f6020601f8301049050919050565b5f82821b905092915050565b5f600883026175617fffffffffffffffffffffffffffffffffffffffffffffffffffffffffffffffff82617526565b61756b8683617526565b95508019841693508086168417925050509392505050565b5f61759d617598617593846162d5565b6172fe565b6162d5565b9050919050565b5f819050919050565b6175b683617583565b6175ca6175c2826175a4565b848454617532565b825550505050565b5f90565b6175de6175d2565b6175e98184846175ad565b505050565b5b8181101561760c576176015f826175d6565b6001810190506175ef565b5050565b601f8211156176515761762281617505565b61762b84617517565b8101602085101561763a578190505b61764e61764685617517565b8301826175ee565b50505b505050565b5f82821c905092915050565b5f6176715f1984600802617656565b1980831691505092915050565b5f6176898383617662565b9150826002028217905092915050565b6176a383836174fb565b67ffffffffffffffff8111156176bc576176bb6171df565b5b6176c682546173ff565b6176d1828285617610565b5f601f8311600181146176fe575f84156176ec578287013590505b6176f6858261767e565b86555061775d565b601f19841661770c86617505565b5f5b828110156177335784890135825560018201915060208501945060208101905061770e565b86831015617750578489013561774c601f891682617662565b8355505b6001600288020188555050505b50505050505050565b5f617770826162d5565b915061777b836162d5565b92508282039050818111156177935761779261735e565b5b92915050565b7f4f776e61626c653a206e6577206f776e657220697320746865207a65726f20615f8201527f6464726573730000000000000000000000000000000000000000000000000000602082015250565b5f6177f36026836169ec565b91506177fe82617799565b604082019050919050565b5f6020820190508181035f830152617820816177e7565b9050919050565b7f496e697469616c697a61626c653a20636f6e747261637420697320616c7265615f8201527f647920696e697469616c697a6564000000000000000000000000000000000000602082015250565b5f617881602e836169ec565b915061788c82617827565b604082019050919050565b5f6020820190508181035f8301526178ae81617875565b9050919050565b5f819050919050565b5f6178d86178d36178ce846178b5565b6172fe565b616947565b9050919050565b6178e8816178be565b82525050565b5f6020820190506179015f8301846178df565b92915050565b7f4f776e61626c653a2063616c6c6572206973206e6f7420746865206f776e65725f82015250565b5f61793b6020836169ec565b915061794682617907565b602082019050919050565b5f6020820190508181035f8301526179688161792f565b9050919050565b5f61797982616480565b915064ffffffffff82036179905761798f61735e565b5b600182019050919050565b5f6179a5826162d5565b91505f82036179b7576179b661735e565b5b600182039050919050565b7f5061757361626c653a20706175736564000000000000000000000000000000005f82015250565b5f6179f66010836169ec565b9150617a01826179c2565b602082019050919050565b5f6020820190508181035f830152617a23816179ea565b9050919050565b5f819050919050565b617a44617a3f826162d5565b617a2a565b82525050565b5f819050919050565b5f819050919050565b617a6d617a6882617a4a565b617a53565b82525050565b5f617a7e8286617a33565b602082019150617a8e8285617a33565b602082019150617a9e8284617a5c565b602082019150819050949350505050565b7f5061757361626c653a206e6f74207061757365640000000000000000000000005f82015250565b5f617ae36014836169ec565b9150617aee82617aaf565b602082019050919050565b5f6020820190508181035f830152617b1081617ad7565b9050919050565b5f81905092915050565b50565b5f617b2f5f83617b17565b9150617b3a82617b21565b5f82019050919050565b5f617b4e82617b24565b9150819050919050565b7f5265656e7472616e637947756172643a207265656e7472616e742063616c6c005f82015250565b5f617b8c601f836169ec565b9150617b9782617b58565b602082019050919050565b5f6020820190508181035f830152617bb981617b80565b9050919050565b7f4e487b71000000000000000000000000000000000000000000000000000000005f52603160045260245ffd5b7f496e697469616c697a61626c653a20636f6e7472616374206973206e6f7420695f8201527f6e697469616c697a696e67000000000000000000000000000000000000000000602082015250565b5f617c47602b836169ec565b9150617c5282617bed565b604082019050919050565b5f6020820190508181035f830152617c7481617c3b565b905091905056fea2646970667358221220a21193375b6f9b664561247319824f9d6182f8f0d383d4543b55815b2d74b5a064736f6c63430008190033",
			"opcodes": "PUSH1 0x80 PUSH1 0x40 MSTORE CALLVALUE DUP1 ISZERO PUSH1 0xE JUMPI PUSH0 DUP1 REVERT JUMPDEST POP PUSH2 0x7CB1 DUP1 PUSH2 0x1C PUSH0 CODECOPY PUSH0 RETURN INVALID PUSH1 0x80 PUSH1 0x40 MSTORE PUSH1 0x4 CALLDATASIZE LT PUSH2 0x3FD JUMPI PUSH0 CALLDATALOAD PUSH1 0xE0 SHR DUP1 PUSH4 0x715018A6 GT PUSH2 0x212 JUMPI DUP1 PUSH4 0xD279C191 GT PUSH2 0x122 JUMPI DUP1 PUSH4 0xE8D6F2F1 GT PUSH2 0xAA JUMPI DUP1 PUSH4 0xF74E921F GT PUSH2 0x79 JUMPI DUP1 PUSH4 0xF74E921F EQ PUSH2 0xE37 JUMPI DUP1 PUSH4 0xF80DCA98 EQ PUSH2 0xE61 JUMPI DUP1 PUSH4 0xFA52C7D8 EQ PUSH2 0xE8B JUMPI DUP1 PUSH4 0xFD3623F7 EQ PUSH2 0xECC JUMPI DUP1 PUSH4 0xFF7C8B15 EQ PUSH2 0xF09 JUMPI PUSH2 0x404 JUMP JUMPDEST DUP1 PUSH4 0xE8D6F2F1 EQ PUSH2 0xDA5 JUMPI DUP1 PUSH4 0xEA4A2CAC EQ PUSH2 0xDCF JUMPI DUP1 PUSH4 0xF0682054 EQ PUSH2 0xDE5 JUMPI DUP1 PUSH4 0xF2FDE38B EQ PUSH2 0xE0F JUMPI PUSH2 0x404 JUMP JUMPDEST DUP1 PUSH4 0xDD9B9766 GT PUSH2 0xF1 JUMPI DUP1 PUSH4 0xDD9B9766 EQ PUSH2 0xCC5 JUMPI DUP1 PUSH4 0xE32BD90C EQ PUSH2 0xCEF JUMPI DUP1 PUSH4 0xE4383228 EQ PUSH2 0xD17 JUMPI DUP1 PUSH4 0xE4FEFD65 EQ PUSH2 0xD53 JUMPI DUP1 PUSH4 0xE84DEE6B EQ PUSH2 0xD7D JUMPI PUSH2 0x404 JUMP JUMPDEST DUP1 PUSH4 0xD279C191 EQ PUSH2 0xC1B JUMPI DUP1 PUSH4 0xD64F1F5F EQ PUSH2 0xC43 JUMPI DUP1 PUSH4 0xD9844458 EQ PUSH2 0xC6D JUMPI DUP1 PUSH4 0xDB2DAB1D EQ PUSH2 0xC9D JUMPI PUSH2 0x404 JUMP JUMPDEST DUP1 PUSH4 0x90F20B4A GT PUSH2 0x1A5 JUMPI DUP1 PUSH4 0xA001ECDD GT PUSH2 0x174 JUMPI DUP1 PUSH4 0xA001ECDD EQ PUSH2 0xB3B JUMPI DUP1 PUSH4 0xA01253D8 EQ PUSH2 0xB65 JUMPI DUP1 PUSH4 0xA8D6D3D1 EQ PUSH2 0xBA1 JUMPI DUP1 PUSH4 0xB74CD194 EQ PUSH2 0xBC9 JUMPI DUP1 PUSH4 0xB7AB4DB5 EQ PUSH2 0xBF1 JUMPI PUSH2 0x404 JUMP JUMPDEST DUP1 PUSH4 0x90F20B4A EQ PUSH2 0xAB5 JUMPI DUP1 PUSH4 0x99754809 EQ PUSH2 0xADF JUMPI DUP1 PUSH4 0x9AE49CD3 EQ PUSH2 0xB07 JUMPI DUP1 PUSH4 0x9FB40BAC EQ PUSH2 0xB31 JUMPI PUSH2 0x404 JUMP JUMPDEST DUP1 PUSH4 0x806B984F GT PUSH2 0x1E1 JUMPI DUP1 PUSH4 0x806B984F EQ PUSH2 0xA21 JUMPI DUP1 PUSH4 0x84449A9D EQ PUSH2 0xA4B JUMPI DUP1 PUSH4 0x8456CB59 EQ PUSH2 0xA75 JUMPI DUP1 PUSH4 0x8DA5CB5B EQ PUSH2 0xA8B JUMPI PUSH2 0x404 JUMP JUMPDEST DUP1 PUSH4 0x715018A6 EQ PUSH2 0x9A3 JUMPI DUP1 PUSH4 0x72422748 EQ PUSH2 0x9B9 JUMPI DUP1 PUSH4 0x73DF250D EQ PUSH2 0x9E1 JUMPI DUP1 PUSH4 0x76671808 EQ PUSH2 0x9F7 JUMPI PUSH2 0x404 JUMP JUMPDEST DUP1 PUSH4 0x54FD4D50 GT PUSH2 0x30D JUMPI DUP1 PUSH4 0x62ED5C12 GT PUSH2 0x2A0 JUMPI DUP1 PUSH4 0x674A63B9 GT PUSH2 0x26F JUMPI DUP1 PUSH4 0x674A63B9 EQ PUSH2 0x8C1 JUMPI DUP1 PUSH4 0x691FF7EF EQ PUSH2 0x8FD JUMPI DUP1 PUSH4 0x6973D3F2 EQ PUSH2 0x927 JUMPI DUP1 PUSH4 0x6CA56267 EQ PUSH2 0x951 JUMPI DUP1 PUSH4 0x7146AB67 EQ PUSH2 0x967 JUMPI PUSH2 0x404 JUMP JUMPDEST DUP1 PUSH4 0x62ED5C12 EQ PUSH2 0x821 JUMPI DUP1 PUSH4 0x648EC7B9 EQ PUSH2 0x82B JUMPI DUP1 PUSH4 0x652FF159 EQ PUSH2 0x86C JUMPI DUP1 PUSH4 0x656A1B20 EQ PUSH2 0x8AB JUMPI PUSH2 0x404 JUMP JUMPDEST DUP1 PUSH4 0x5C975ABB GT PUSH2 0x2DC JUMPI DUP1 PUSH4 0x5C975ABB EQ PUSH2 0x769 JUMPI DUP1 PUSH4 0x5EEC7B20 EQ PUSH2 0x793 JUMPI DUP1 PUSH4 0x6029E786 EQ PUSH2 0x7CF JUMPI DUP1 PUSH4 0x61D027B3 EQ PUSH2 0x7F7 JUMPI PUSH2 0x404 JUMP JUMPDEST DUP1 PUSH4 0x54FD4D50 EQ PUSH2 0x6AF JUMPI DUP1 PUSH4 0x56F2ECA3 EQ PUSH2 0x6D9 JUMPI DUP1 PUSH4 0x57A38DEF EQ PUSH2 0x703 JUMPI DUP1 PUSH4 0x5AA1326C EQ PUSH2 0x73F JUMPI PUSH2 0x404 JUMP JUMPDEST DUP1 PUSH4 0x351B2B33 GT PUSH2 0x390 JUMPI DUP1 PUSH4 0x42B093CF GT PUSH2 0x35F JUMPI DUP1 PUSH4 0x42B093CF EQ PUSH2 0x5D7 JUMPI DUP1 PUSH4 0x4670CA47 EQ PUSH2 0x5ED JUMPI DUP1 PUSH4 0x47F809E7 EQ PUSH2 0x617 JUMPI DUP1 PUSH4 0x4E50C75C EQ PUSH2 0x633 JUMPI DUP1 PUSH4 0x54917F83 EQ PUSH2 0x672 JUMPI PUSH2 0x404 JUMP JUMPDEST DUP1 PUSH4 0x351B2B33 EQ PUSH2 0x545 JUMPI DUP1 PUSH4 0x37504F57 EQ PUSH2 0x56D JUMPI DUP1 PUSH4 0x3F4BA83A EQ PUSH2 0x597 JUMPI DUP1 PUSH4 0x412F9775 EQ PUSH2 0x5AD JUMPI PUSH2 0x404 JUMP JUMPDEST DUP1 PUSH4 0x191A54D8 GT PUSH2 0x3CC JUMPI DUP1 PUSH4 0x191A54D8 EQ PUSH2 0x4AC JUMPI DUP1 PUSH4 0x1A8EF584 EQ PUSH2 0x4E9 JUMPI DUP1 PUSH4 0x1FDADCB7 EQ PUSH2 0x4FF JUMPI DUP1 PUSH4 0x3304F456 EQ PUSH2 0x51B JUMPI PUSH2 0x404 JUMP JUMPDEST DUP1 PUSH4 0x34438B0 EQ PUSH2 0x408 JUMPI DUP1 PUSH4 0x716187F EQ PUSH2 0x430 JUMPI DUP1 PUSH4 0x738A9BB EQ PUSH2 0x45A JUMPI DUP1 PUSH4 0x1633DA6E EQ PUSH2 0x482 JUMPI PUSH2 0x404 JUMP JUMPDEST CALLDATASIZE PUSH2 0x404 JUMPI STOP JUMPDEST PUSH0 DUP1 REVERT JUMPDEST CALLVALUE DUP1 ISZERO PUSH2 0x413 JUMPI PUSH0 DUP1 REVERT JUMPDEST POP PUSH2 0x42E PUSH1 0x4 DUP1 CALLDATASIZE SUB DUP2 ADD SWAP1 PUSH2 0x429 SWAP2 SWAP1 PUSH2 0x6308 JUMP JUMPDEST PUSH2 0xF31 JUMP JUMPDEST STOP JUMPDEST CALLVALUE DUP1 ISZERO PUSH2 0x43B JUMPI PUSH0 DUP1 REVERT JUMPDEST POP PUSH2 0x444 PUSH2 0xFBF JUMP JUMPDEST PUSH1 0x40 MLOAD PUSH2 0x451 SWAP2 SWAP1 PUSH2 0x634F JUMP JUMPDEST PUSH1 0x40 MLOAD DUP1 SWAP2 SUB SWAP1 RETURN JUMPDEST CALLVALUE DUP1 ISZERO PUSH2 0x465 JUMPI PUSH0 DUP1 REVERT JUMPDEST POP PUSH2 0x480 PUSH1 0x4 DUP1 CALLDATASIZE SUB DUP2 ADD SWAP1 PUSH2 0x47B SWAP2 SWAP1 PUSH2 0x63FB JUMP JUMPDEST PUSH2 0xFD3 JUMP JUMPDEST STOP JUMPDEST CALLVALUE DUP1 ISZERO PUSH2 0x48D JUMPI PUSH0 DUP1 REVERT JUMPDEST POP PUSH2 0x496 PUSH2 0x1129 JUMP JUMPDEST PUSH1 0x40 MLOAD PUSH2 0x4A3 SWAP2 SWAP1 PUSH2 0x65B9 JUMP JUMPDEST PUSH1 0x40 MLOAD DUP1 SWAP2 SUB SWAP1 RETURN JUMPDEST CALLVALUE DUP1 ISZERO PUSH2 0x4B7 JUMPI PUSH0 DUP1 REVERT JUMPDEST POP PUSH2 0x4D2 PUSH1 0x4 DUP1 CALLDATASIZE SUB DUP2 ADD SWAP1 PUSH2 0x4CD SWAP2 SWAP1 PUSH2 0x65D9 JUMP JUMPDEST PUSH2 0x142F JUMP JUMPDEST PUSH1 0x40 MLOAD PUSH2 0x4E0 SWAP3 SWAP2 SWAP1 PUSH2 0x6622 JUMP JUMPDEST PUSH1 0x40 MLOAD DUP1 SWAP2 SUB SWAP1 RETURN JUMPDEST CALLVALUE DUP1 ISZERO PUSH2 0x4F4 JUMPI PUSH0 DUP1 REVERT JUMPDEST POP PUSH2 0x4FD PUSH2 0x145F JUMP JUMPDEST STOP JUMPDEST PUSH2 0x519 PUSH1 0x4 DUP1 CALLDATASIZE SUB DUP2 ADD SWAP1 PUSH2 0x514 SWAP2 SWAP1 PUSH2 0x6673 JUMP JUMPDEST PUSH2 0x15CF JUMP JUMPDEST STOP JUMPDEST CALLVALUE DUP1 ISZERO PUSH2 0x526 JUMPI PUSH0 DUP1 REVERT JUMPDEST POP PUSH2 0x52F PUSH2 0x1860 JUMP JUMPDEST PUSH1 0x40 MLOAD PUSH2 0x53C SWAP2 SWAP1 PUSH2 0x669E JUMP JUMPDEST PUSH1 0x40 MLOAD DUP1 SWAP2 SUB SWAP1 RETURN JUMPDEST CALLVALUE DUP1 ISZERO PUSH2 0x550 JUMPI PUSH0 DUP1 REVERT JUMPDEST POP PUSH2 0x56B PUSH1 0x4 DUP1 CALLDATASIZE SUB DUP2 ADD SWAP1 PUSH2 0x566 SWAP2 SWAP1 PUSH2 0x66E1 JUMP JUMPDEST PUSH2 0x1866 JUMP JUMPDEST STOP JUMPDEST CALLVALUE DUP1 ISZERO PUSH2 0x578 JUMPI PUSH0 DUP1 REVERT JUMPDEST POP PUSH2 0x581 PUSH2 0x1931 JUMP JUMPDEST PUSH1 0x40 MLOAD PUSH2 0x58E SWAP2 SWAP1 PUSH2 0x68D0 JUMP JUMPDEST PUSH1 0x40 MLOAD DUP1 SWAP2 SUB SWAP1 RETURN JUMPDEST CALLVALUE DUP1 ISZERO PUSH2 0x5A2 JUMPI PUSH0 DUP1 REVERT JUMPDEST POP PUSH2 0x5AB PUSH2 0x1C95 JUMP JUMPDEST STOP JUMPDEST CALLVALUE DUP1 ISZERO PUSH2 0x5B8 JUMPI PUSH0 DUP1 REVERT JUMPDEST POP PUSH2 0x5C1 PUSH2 0x1CAF JUMP JUMPDEST PUSH1 0x40 MLOAD PUSH2 0x5CE SWAP2 SWAP1 PUSH2 0x669E JUMP JUMPDEST PUSH1 0x40 MLOAD DUP1 SWAP2 SUB SWAP1 RETURN JUMPDEST CALLVALUE DUP1 ISZERO PUSH2 0x5E2 JUMPI PUSH0 DUP1 REVERT JUMPDEST POP PUSH2 0x5EB PUSH2 0x1CB5 JUMP JUMPDEST STOP JUMPDEST CALLVALUE DUP1 ISZERO PUSH2 0x5F8 JUMPI PUSH0 DUP1 REVERT JUMPDEST POP PUSH2 0x601 PUSH2 0x1DF6 JUMP JUMPDEST PUSH1 0x40 MLOAD PUSH2 0x60E SWAP2 SWAP1 PUSH2 0x634F JUMP JUMPDEST PUSH1 0x40 MLOAD DUP1 SWAP2 SUB SWAP1 RETURN JUMPDEST PUSH2 0x631 PUSH1 0x4 DUP1 CALLDATASIZE SUB DUP2 ADD SWAP1 PUSH2 0x62C SWAP2 SWAP1 PUSH2 0x6673 JUMP JUMPDEST PUSH2 0x1E0A JUMP JUMPDEST STOP JUMPDEST CALLVALUE DUP1 ISZERO PUSH2 0x63E JUMPI PUSH0 DUP1 REVERT JUMPDEST POP PUSH2 0x659 PUSH1 0x4 DUP1 CALLDATASIZE SUB DUP2 ADD SWAP1 PUSH2 0x654 SWAP2 SWAP1 PUSH2 0x6308 JUMP JUMPDEST PUSH2 0x20BA JUMP JUMPDEST PUSH1 0x40 MLOAD PUSH2 0x669 SWAP5 SWAP4 SWAP3 SWAP2 SWAP1 PUSH2 0x6962 JUMP JUMPDEST PUSH1 0x40 MLOAD DUP1 SWAP2 SUB SWAP1 RETURN JUMPDEST CALLVALUE DUP1 ISZERO PUSH2 0x67D JUMPI PUSH0 DUP1 REVERT JUMPDEST POP PUSH2 0x698 PUSH1 0x4 DUP1 CALLDATASIZE SUB DUP2 ADD SWAP1 PUSH2 0x693 SWAP2 SWAP1 PUSH2 0x65D9 JUMP JUMPDEST PUSH2 0x2198 JUMP JUMPDEST PUSH1 0x40 MLOAD PUSH2 0x6A6 SWAP3 SWAP2 SWAP1 PUSH2 0x69BB JUMP JUMPDEST PUSH1 0x40 MLOAD DUP1 SWAP2 SUB SWAP1 RETURN JUMPDEST CALLVALUE DUP1 ISZERO PUSH2 0x6BA JUMPI PUSH0 DUP1 REVERT JUMPDEST POP PUSH2 0x6C3 PUSH2 0x21C7 JUMP JUMPDEST PUSH1 0x40 MLOAD PUSH2 0x6D0 SWAP2 SWAP1 PUSH2 0x6A34 JUMP JUMPDEST PUSH1 0x40 MLOAD DUP1 SWAP2 SUB SWAP1 RETURN JUMPDEST CALLVALUE DUP1 ISZERO PUSH2 0x6E4 JUMPI PUSH0 DUP1 REVERT JUMPDEST POP PUSH2 0x6ED PUSH2 0x2204 JUMP JUMPDEST PUSH1 0x40 MLOAD PUSH2 0x6FA SWAP2 SWAP1 PUSH2 0x6A54 JUMP JUMPDEST PUSH1 0x40 MLOAD DUP1 SWAP2 SUB SWAP1 RETURN JUMPDEST CALLVALUE DUP1 ISZERO PUSH2 0x70E JUMPI PUSH0 DUP1 REVERT JUMPDEST POP PUSH2 0x729 PUSH1 0x4 DUP1 CALLDATASIZE SUB DUP2 ADD SWAP1 PUSH2 0x724 SWAP2 SWAP1 PUSH2 0x6308 JUMP JUMPDEST PUSH2 0x221B JUMP JUMPDEST PUSH1 0x40 MLOAD PUSH2 0x736 SWAP2 SWAP1 PUSH2 0x6A87 JUMP JUMPDEST PUSH1 0x40 MLOAD DUP1 SWAP2 SUB SWAP1 RETURN JUMPDEST CALLVALUE DUP1 ISZERO PUSH2 0x74A JUMPI PUSH0 DUP1 REVERT JUMPDEST POP PUSH2 0x753 PUSH2 0x2290 JUMP JUMPDEST PUSH1 0x40 MLOAD PUSH2 0x760 SWAP2 SWAP1 PUSH2 0x6A54 JUMP JUMPDEST PUSH1 0x40 MLOAD DUP1 SWAP2 SUB SWAP1 RETURN JUMPDEST CALLVALUE DUP1 ISZERO PUSH2 0x774 JUMPI PUSH0 DUP1 REVERT JUMPDEST POP PUSH2 0x77D PUSH2 0x22A7 JUMP JUMPDEST PUSH1 0x40 MLOAD PUSH2 0x78A SWAP2 SWAP1 PUSH2 0x6A87 JUMP JUMPDEST PUSH1 0x40 MLOAD DUP1 SWAP2 SUB SWAP1 RETURN JUMPDEST CALLVALUE DUP1 ISZERO PUSH2 0x79E JUMPI PUSH0 DUP1 REVERT JUMPDEST POP PUSH2 0x7B9 PUSH1 0x4 DUP1 CALLDATASIZE SUB DUP2 ADD SWAP1 PUSH2 0x7B4 SWAP2 SWAP1 PUSH2 0x6308 JUMP JUMPDEST PUSH2 0x22BC JUMP JUMPDEST PUSH1 0x40 MLOAD PUSH2 0x7C6 SWAP2 SWAP1 PUSH2 0x68D0 JUMP JUMPDEST PUSH1 0x40 MLOAD DUP1 SWAP2 SUB SWAP1 RETURN JUMPDEST CALLVALUE DUP1 ISZERO PUSH2 0x7DA JUMPI PUSH0 DUP1 REVERT JUMPDEST POP PUSH2 0x7F5 PUSH1 0x4 DUP1 CALLDATASIZE SUB DUP2 ADD SWAP1 PUSH2 0x7F0 SWAP2 SWAP1 PUSH2 0x6308 JUMP JUMPDEST PUSH2 0x256F JUMP JUMPDEST STOP JUMPDEST CALLVALUE DUP1 ISZERO PUSH2 0x802 JUMPI PUSH0 DUP1 REVERT JUMPDEST POP PUSH2 0x80B PUSH2 0x268C JUMP JUMPDEST PUSH1 0x40 MLOAD PUSH2 0x818 SWAP2 SWAP1 PUSH2 0x6AA0 JUMP JUMPDEST PUSH1 0x40 MLOAD DUP1 SWAP2 SUB SWAP1 RETURN JUMPDEST PUSH2 0x829 PUSH2 0x26B1 JUMP JUMPDEST STOP JUMPDEST CALLVALUE DUP1 ISZERO PUSH2 0x836 JUMPI PUSH0 DUP1 REVERT JUMPDEST POP PUSH2 0x851 PUSH1 0x4 DUP1 CALLDATASIZE SUB DUP2 ADD SWAP1 PUSH2 0x84C SWAP2 SWAP1 PUSH2 0x65D9 JUMP JUMPDEST PUSH2 0x27BA JUMP JUMPDEST PUSH1 0x40 MLOAD PUSH2 0x863 SWAP7 SWAP6 SWAP5 SWAP4 SWAP3 SWAP2 SWAP1 PUSH2 0x6AB9 JUMP JUMPDEST PUSH1 0x40 MLOAD DUP1 SWAP2 SUB SWAP1 RETURN JUMPDEST CALLVALUE DUP1 ISZERO PUSH2 0x877 JUMPI PUSH0 DUP1 REVERT JUMPDEST POP PUSH2 0x892 PUSH1 0x4 DUP1 CALLDATASIZE SUB DUP2 ADD SWAP1 PUSH2 0x88D SWAP2 SWAP1 PUSH2 0x6308 JUMP JUMPDEST PUSH2 0x2841 JUMP JUMPDEST PUSH1 0x40 MLOAD PUSH2 0x8A2 SWAP5 SWAP4 SWAP3 SWAP2 SWAP1 PUSH2 0x6B18 JUMP JUMPDEST PUSH1 0x40 MLOAD DUP1 SWAP2 SUB SWAP1 RETURN JUMPDEST CALLVALUE DUP1 ISZERO PUSH2 0x8B6 JUMPI PUSH0 DUP1 REVERT JUMPDEST POP PUSH2 0x8BF PUSH2 0x286D JUMP JUMPDEST STOP JUMPDEST CALLVALUE DUP1 ISZERO PUSH2 0x8CC JUMPI PUSH0 DUP1 REVERT JUMPDEST POP PUSH2 0x8E7 PUSH1 0x4 DUP1 CALLDATASIZE SUB DUP2 ADD SWAP1 PUSH2 0x8E2 SWAP2 SWAP1 PUSH2 0x65D9 JUMP JUMPDEST PUSH2 0x2B63 JUMP JUMPDEST PUSH1 0x40 MLOAD PUSH2 0x8F4 SWAP2 SWAP1 PUSH2 0x669E JUMP JUMPDEST PUSH1 0x40 MLOAD DUP1 SWAP2 SUB SWAP1 RETURN JUMPDEST CALLVALUE DUP1 ISZERO PUSH2 0x908 JUMPI PUSH0 DUP1 REVERT JUMPDEST POP PUSH2 0x911 PUSH2 0x2DDD JUMP JUMPDEST PUSH1 0x40 MLOAD PUSH2 0x91E SWAP2 SWAP1 PUSH2 0x6A54 JUMP JUMPDEST PUSH1 0x40 MLOAD DUP1 SWAP2 SUB SWAP1 RETURN JUMPDEST CALLVALUE DUP1 ISZERO PUSH2 0x932 JUMPI PUSH0 DUP1 REVERT JUMPDEST POP PUSH2 0x93B PUSH2 0x2DF4 JUMP JUMPDEST PUSH1 0x40 MLOAD PUSH2 0x948 SWAP2 SWAP1 PUSH2 0x669E JUMP JUMPDEST PUSH1 0x40 MLOAD DUP1 SWAP2 SUB SWAP1 RETURN JUMPDEST CALLVALUE DUP1 ISZERO PUSH2 0x95C JUMPI PUSH0 DUP1 REVERT JUMPDEST POP PUSH2 0x965 PUSH2 0x2DFA JUMP JUMPDEST STOP JUMPDEST CALLVALUE DUP1 ISZERO PUSH2 0x972 JUMPI PUSH0 DUP1 REVERT JUMPDEST POP PUSH2 0x98D PUSH1 0x4 DUP1 CALLDATASIZE SUB DUP2 ADD SWAP1 PUSH2 0x988 SWAP2 SWAP1 PUSH2 0x6B5B JUMP JUMPDEST PUSH2 0x30E7 JUMP JUMPDEST PUSH1 0x40 MLOAD PUSH2 0x99A SWAP2 SWAP1 PUSH2 0x6A87 JUMP JUMPDEST PUSH1 0x40 MLOAD DUP1 SWAP2 SUB SWAP1 RETURN JUMPDEST CALLVALUE DUP1 ISZERO PUSH2 0x9AE JUMPI PUSH0 DUP1 REVERT JUMPDEST POP PUSH2 0x9B7 PUSH2 0x3111 JUMP JUMPDEST STOP JUMPDEST CALLVALUE DUP1 ISZERO PUSH2 0x9C4 JUMPI PUSH0 DUP1 REVERT JUMPDEST POP PUSH2 0x9DF PUSH1 0x4 DUP1 CALLDATASIZE SUB DUP2 ADD SWAP1 PUSH2 0x9DA SWAP2 SWAP1 PUSH2 0x6308 JUMP JUMPDEST PUSH2 0x3124 JUMP JUMPDEST STOP JUMPDEST CALLVALUE DUP1 ISZERO PUSH2 0x9EC JUMPI PUSH0 DUP1 REVERT JUMPDEST POP PUSH2 0x9F5 PUSH2 0x3127 JUMP JUMPDEST STOP JUMPDEST CALLVALUE DUP1 ISZERO PUSH2 0xA02 JUMPI PUSH0 DUP1 REVERT JUMPDEST POP PUSH2 0xA0B PUSH2 0x3268 JUMP JUMPDEST PUSH1 0x40 MLOAD PUSH2 0xA18 SWAP2 SWAP1 PUSH2 0x6A54 JUMP JUMPDEST PUSH1 0x40 MLOAD DUP1 SWAP2 SUB SWAP1 RETURN JUMPDEST CALLVALUE DUP1 ISZERO PUSH2 0xA2C JUMPI PUSH0 DUP1 REVERT JUMPDEST POP PUSH2 0xA35 PUSH2 0x327F JUMP JUMPDEST PUSH1 0x40 MLOAD PUSH2 0xA42 SWAP2 SWAP1 PUSH2 0x669E JUMP JUMPDEST PUSH1 0x40 MLOAD DUP1 SWAP2 SUB SWAP1 RETURN JUMPDEST CALLVALUE DUP1 ISZERO PUSH2 0xA56 JUMPI PUSH0 DUP1 REVERT JUMPDEST POP PUSH2 0xA5F PUSH2 0x3285 JUMP JUMPDEST PUSH1 0x40 MLOAD PUSH2 0xA6C SWAP2 SWAP1 PUSH2 0x669E JUMP JUMPDEST PUSH1 0x40 MLOAD DUP1 SWAP2 SUB SWAP1 RETURN JUMPDEST CALLVALUE DUP1 ISZERO PUSH2 0xA80 JUMPI PUSH0 DUP1 REVERT JUMPDEST POP PUSH2 0xA89 PUSH2 0x328B JUMP JUMPDEST STOP JUMPDEST CALLVALUE DUP1 ISZERO PUSH2 0xA96 JUMPI PUSH0 DUP1 REVERT JUMPDEST POP PUSH2 0xA9F PUSH2 0x32A5 JUMP JUMPDEST PUSH1 0x40 MLOAD PUSH2 0xAAC SWAP2 SWAP1 PUSH2 0x6AA0 JUMP JUMPDEST PUSH1 0x40 MLOAD DUP1 SWAP2 SUB SWAP1 RETURN JUMPDEST CALLVALUE DUP1 ISZERO PUSH2 0xAC0 JUMPI PUSH0 DUP1 REVERT JUMPDEST POP PUSH2 0xAC9 PUSH2 0x32CD JUMP JUMPDEST PUSH1 0x40 MLOAD PUSH2 0xAD6 SWAP2 SWAP1 PUSH2 0x669E JUMP JUMPDEST PUSH1 0x40 MLOAD DUP1 SWAP2 SUB SWAP1 RETURN JUMPDEST CALLVALUE DUP1 ISZERO PUSH2 0xAEA JUMPI PUSH0 DUP1 REVERT JUMPDEST POP PUSH2 0xB05 PUSH1 0x4 DUP1 CALLDATASIZE SUB DUP2 ADD SWAP1 PUSH2 0xB00 SWAP2 SWAP1 PUSH2 0x6308 JUMP JUMPDEST PUSH2 0x32D3 JUMP JUMPDEST STOP JUMPDEST CALLVALUE DUP1 ISZERO PUSH2 0xB12 JUMPI PUSH0 DUP1 REVERT JUMPDEST POP PUSH2 0xB1B PUSH2 0x3328 JUMP JUMPDEST PUSH1 0x40 MLOAD PUSH2 0xB28 SWAP2 SWAP1 PUSH2 0x6C41 JUMP JUMPDEST PUSH1 0x40 MLOAD DUP1 SWAP2 SUB SWAP1 RETURN JUMPDEST PUSH2 0xB39 PUSH2 0x33B5 JUMP JUMPDEST STOP JUMPDEST CALLVALUE DUP1 ISZERO PUSH2 0xB46 JUMPI PUSH0 DUP1 REVERT JUMPDEST POP PUSH2 0xB4F PUSH2 0x34BE JUMP JUMPDEST PUSH1 0x40 MLOAD PUSH2 0xB5C SWAP2 SWAP1 PUSH2 0x634F JUMP JUMPDEST PUSH1 0x40 MLOAD DUP1 SWAP2 SUB SWAP1 RETURN JUMPDEST CALLVALUE DUP1 ISZERO PUSH2 0xB70 JUMPI PUSH0 DUP1 REVERT JUMPDEST POP PUSH2 0xB8B PUSH1 0x4 DUP1 CALLDATASIZE SUB DUP2 ADD SWAP1 PUSH2 0xB86 SWAP2 SWAP1 PUSH2 0x6CC2 JUMP JUMPDEST PUSH2 0x34D2 JUMP JUMPDEST PUSH1 0x40 MLOAD PUSH2 0xB98 SWAP2 SWAP1 PUSH2 0x6F04 JUMP JUMPDEST PUSH1 0x40 MLOAD DUP1 SWAP2 SUB SWAP1 RETURN JUMPDEST CALLVALUE DUP1 ISZERO PUSH2 0xBAC JUMPI PUSH0 DUP1 REVERT JUMPDEST POP PUSH2 0xBC7 PUSH1 0x4 DUP1 CALLDATASIZE SUB DUP2 ADD SWAP1 PUSH2 0xBC2 SWAP2 SWAP1 PUSH2 0x6F24 JUMP JUMPDEST PUSH2 0x388D JUMP JUMPDEST STOP JUMPDEST CALLVALUE DUP1 ISZERO PUSH2 0xBD4 JUMPI PUSH0 DUP1 REVERT JUMPDEST POP PUSH2 0xBEF PUSH1 0x4 DUP1 CALLDATASIZE SUB DUP2 ADD SWAP1 PUSH2 0xBEA SWAP2 SWAP1 PUSH2 0x6B5B JUMP JUMPDEST PUSH2 0x3A07 JUMP JUMPDEST STOP JUMPDEST CALLVALUE DUP1 ISZERO PUSH2 0xBFC JUMPI PUSH0 DUP1 REVERT JUMPDEST POP PUSH2 0xC05 PUSH2 0x3B04 JUMP JUMPDEST PUSH1 0x40 MLOAD PUSH2 0xC12 SWAP2 SWAP1 PUSH2 0x65B9 JUMP JUMPDEST PUSH1 0x40 MLOAD DUP1 SWAP2 SUB SWAP1 RETURN JUMPDEST CALLVALUE DUP1 ISZERO PUSH2 0xC26 JUMPI PUSH0 DUP1 REVERT JUMPDEST POP PUSH2 0xC41 PUSH1 0x4 DUP1 CALLDATASIZE SUB DUP2 ADD SWAP1 PUSH2 0xC3C SWAP2 SWAP1 PUSH2 0x65D9 JUMP JUMPDEST PUSH2 0x3E0A JUMP JUMPDEST STOP JUMPDEST CALLVALUE DUP1 ISZERO PUSH2 0xC4E JUMPI PUSH0 DUP1 REVERT JUMPDEST POP PUSH2 0xC57 PUSH2 0x3E26 JUMP JUMPDEST PUSH1 0x40 MLOAD PUSH2 0xC64 SWAP2 SWAP1 PUSH2 0x6A54 JUMP JUMPDEST PUSH1 0x40 MLOAD DUP1 SWAP2 SUB SWAP1 RETURN JUMPDEST PUSH2 0xC87 PUSH1 0x4 DUP1 CALLDATASIZE SUB DUP2 ADD SWAP1 PUSH2 0xC82 SWAP2 SWAP1 PUSH2 0x6FC9 JUMP JUMPDEST PUSH2 0x3E3C JUMP JUMPDEST PUSH1 0x40 MLOAD PUSH2 0xC94 SWAP2 SWAP1 PUSH2 0x669E JUMP JUMPDEST PUSH1 0x40 MLOAD DUP1 SWAP2 SUB SWAP1 RETURN JUMPDEST CALLVALUE DUP1 ISZERO PUSH2 0xCA8 JUMPI PUSH0 DUP1 REVERT JUMPDEST POP PUSH2 0xCC3 PUSH1 0x4 DUP1 CALLDATASIZE SUB DUP2 ADD SWAP1 PUSH2 0xCBE SWAP2 SWAP1 PUSH2 0x65D9 JUMP JUMPDEST PUSH2 0x404A JUMP JUMPDEST STOP JUMPDEST CALLVALUE DUP1 ISZERO PUSH2 0xCD0 JUMPI PUSH0 DUP1 REVERT JUMPDEST POP PUSH2 0xCD9 PUSH2 0x4169 JUMP JUMPDEST PUSH1 0x40 MLOAD PUSH2 0xCE6 SWAP2 SWAP1 PUSH2 0x7026 JUMP JUMPDEST PUSH1 0x40 MLOAD DUP1 SWAP2 SUB SWAP1 RETURN JUMPDEST CALLVALUE DUP1 ISZERO PUSH2 0xCFA JUMPI PUSH0 DUP1 REVERT JUMPDEST POP PUSH2 0xD15 PUSH1 0x4 DUP1 CALLDATASIZE SUB DUP2 ADD SWAP1 PUSH2 0xD10 SWAP2 SWAP1 PUSH2 0x6308 JUMP JUMPDEST PUSH2 0x417C JUMP JUMPDEST STOP JUMPDEST CALLVALUE DUP1 ISZERO PUSH2 0xD22 JUMPI PUSH0 DUP1 REVERT JUMPDEST POP PUSH2 0xD3D PUSH1 0x4 DUP1 CALLDATASIZE SUB DUP2 ADD SWAP1 PUSH2 0xD38 SWAP2 SWAP1 PUSH2 0x6B5B JUMP JUMPDEST PUSH2 0x41D1 JUMP JUMPDEST PUSH1 0x40 MLOAD PUSH2 0xD4A SWAP2 SWAP1 PUSH2 0x669E JUMP JUMPDEST PUSH1 0x40 MLOAD DUP1 SWAP2 SUB SWAP1 RETURN JUMPDEST CALLVALUE DUP1 ISZERO PUSH2 0xD5E JUMPI PUSH0 DUP1 REVERT JUMPDEST POP PUSH2 0xD67 PUSH2 0x41F1 JUMP JUMPDEST PUSH1 0x40 MLOAD PUSH2 0xD74 SWAP2 SWAP1 PUSH2 0x6A54 JUMP JUMPDEST PUSH1 0x40 MLOAD DUP1 SWAP2 SUB SWAP1 RETURN JUMPDEST CALLVALUE DUP1 ISZERO PUSH2 0xD88 JUMPI PUSH0 DUP1 REVERT JUMPDEST POP PUSH2 0xDA3 PUSH1 0x4 DUP1 CALLDATASIZE SUB DUP2 ADD SWAP1 PUSH2 0xD9E SWAP2 SWAP1 PUSH2 0x703F JUMP JUMPDEST PUSH2 0x4208 JUMP JUMPDEST STOP JUMPDEST CALLVALUE DUP1 ISZERO PUSH2 0xDB0 JUMPI PUSH0 DUP1 REVERT JUMPDEST POP PUSH2 0xDB9 PUSH2 0x4A57 JUMP JUMPDEST PUSH1 0x40 MLOAD PUSH2 0xDC6 SWAP2 SWAP1 PUSH2 0x6C41 JUMP JUMPDEST PUSH1 0x40 MLOAD DUP1 SWAP2 SUB SWAP1 RETURN JUMPDEST CALLVALUE DUP1 ISZERO PUSH2 0xDDA JUMPI PUSH0 DUP1 REVERT JUMPDEST POP PUSH2 0xDE3 PUSH2 0x4AE4 JUMP JUMPDEST STOP JUMPDEST CALLVALUE DUP1 ISZERO PUSH2 0xDF0 JUMPI PUSH0 DUP1 REVERT JUMPDEST POP PUSH2 0xDF9 PUSH2 0x4C54 JUMP JUMPDEST PUSH1 0x40 MLOAD PUSH2 0xE06 SWAP2 SWAP1 PUSH2 0x669E JUMP JUMPDEST PUSH1 0x40 MLOAD DUP1 SWAP2 SUB SWAP1 RETURN JUMPDEST CALLVALUE DUP1 ISZERO PUSH2 0xE1A JUMPI PUSH0 DUP1 REVERT JUMPDEST POP PUSH2 0xE35 PUSH1 0x4 DUP1 CALLDATASIZE SUB DUP2 ADD SWAP1 PUSH2 0xE30 SWAP2 SWAP1 PUSH2 0x65D9 JUMP JUMPDEST PUSH2 0x4C5A JUMP JUMPDEST STOP JUMPDEST CALLVALUE DUP1 ISZERO PUSH2 0xE42 JUMPI PUSH0 DUP1 REVERT JUMPDEST POP PUSH2 0xE4B PUSH2 0x4CDC JUMP JUMPDEST PUSH1 0x40 MLOAD PUSH2 0xE58 SWAP2 SWAP1 PUSH2 0x6C41 JUMP JUMPDEST PUSH1 0x40 MLOAD DUP1 SWAP2 SUB SWAP1 RETURN JUMPDEST CALLVALUE DUP1 ISZERO PUSH2 0xE6C JUMPI PUSH0 DUP1 REVERT JUMPDEST POP PUSH2 0xE75 PUSH2 0x4D69 JUMP JUMPDEST PUSH1 0x40 MLOAD PUSH2 0xE82 SWAP2 SWAP1 PUSH2 0x669E JUMP JUMPDEST PUSH1 0x40 MLOAD DUP1 SWAP2 SUB SWAP1 RETURN JUMPDEST CALLVALUE DUP1 ISZERO PUSH2 0xE96 JUMPI PUSH0 DUP1 REVERT JUMPDEST POP PUSH2 0xEB1 PUSH1 0x4 DUP1 CALLDATASIZE SUB DUP2 ADD SWAP1 PUSH2 0xEAC SWAP2 SWAP1 PUSH2 0x65D9 JUMP JUMPDEST PUSH2 0x4D6F JUMP JUMPDEST PUSH1 0x40 MLOAD PUSH2 0xEC3 SWAP7 SWAP6 SWAP5 SWAP4 SWAP3 SWAP2 SWAP1 PUSH2 0x6AB9 JUMP JUMPDEST PUSH1 0x40 MLOAD DUP1 SWAP2 SUB SWAP1 RETURN JUMPDEST CALLVALUE DUP1 ISZERO PUSH2 0xED7 JUMPI PUSH0 DUP1 REVERT JUMPDEST POP PUSH2 0xEF2 PUSH1 0x4 DUP1 CALLDATASIZE SUB DUP2 ADD SWAP1 PUSH2 0xEED SWAP2 SWAP1 PUSH2 0x65D9 JUMP JUMPDEST PUSH2 0x4DF6 JUMP JUMPDEST PUSH1 0x40 MLOAD PUSH2 0xF00 SWAP3 SWAP2 SWAP1 PUSH2 0x6622 JUMP JUMPDEST PUSH1 0x40 MLOAD DUP1 SWAP2 SUB SWAP1 RETURN JUMPDEST CALLVALUE DUP1 ISZERO PUSH2 0xF14 JUMPI PUSH0 DUP1 REVERT JUMPDEST POP PUSH2 0xF2F PUSH1 0x4 DUP1 CALLDATASIZE SUB DUP2 ADD SWAP1 PUSH2 0xF2A SWAP2 SWAP1 PUSH2 0x70C6 JUMP JUMPDEST PUSH2 0x4E26 JUMP JUMPDEST STOP JUMPDEST PUSH2 0xF39 PUSH2 0x50EF JUMP JUMPDEST PUSH2 0xF41 PUSH2 0x516D JUMP JUMPDEST PUSH0 DUP2 SUB PUSH2 0xF7A JUMPI PUSH1 0x40 MLOAD PUSH32 0x1342EB4B00000000000000000000000000000000000000000000000000000000 DUP2 MSTORE PUSH1 0x4 ADD PUSH1 0x40 MLOAD DUP1 SWAP2 SUB SWAP1 REVERT JUMPDEST PUSH32 0x3179EE2C3011A36D6D80A4B422F208DF28EF9493D1D9CE1555B3116BD26DDB3D PUSH1 0x1B SLOAD DUP3 PUSH1 0x40 MLOAD PUSH2 0xFAD SWAP3 SWAP2 SWAP1 PUSH2 0x719F JUMP JUMPDEST PUSH1 0x40 MLOAD DUP1 SWAP2 SUB SWAP1 LOG1 DUP1 PUSH1 0x1B DUP2 SWAP1 SSTORE POP POP JUMP JUMPDEST PUSH1 0x1A PUSH1 0x10 SWAP1 SLOAD SWAP1 PUSH2 0x100 EXP SWAP1 DIV PUSH2 0xFFFF AND DUP2 JUMP JUMPDEST PUSH2 0xFDB PUSH2 0x50EF JUMP JUMPDEST PUSH2 0xFE3 PUSH2 0x516D JUMP JUMPDEST PUSH0 DUP2 PUSH4 0xFFFFFFFF AND SUB PUSH2 0x1022 JUMPI PUSH1 0x40 MLOAD PUSH32 0xE142361700000000000000000000000000000000000000000000000000000000 DUP2 MSTORE PUSH1 0x4 ADD PUSH1 0x40 MLOAD DUP1 SWAP2 SUB SWAP1 REVERT JUMPDEST PUSH0 PUSH1 0x1 PUSH0 DUP5 PUSH20 0xFFFFFFFFFFFFFFFFFFFFFFFFFFFFFFFFFFFFFFFF AND PUSH20 0xFFFFFFFFFFFFFFFFFFFFFFFFFFFFFFFFFFFFFFFF AND DUP2 MSTORE PUSH1 0x20 ADD SWAP1 DUP2 MSTORE PUSH1 0x20 ADD PUSH0 KECCAK256 SWAP1 POP PUSH0 DUP2 PUSH1 0x1 ADD PUSH0 SWAP1 SLOAD SWAP1 PUSH2 0x100 EXP SWAP1 DIV PUSH4 0xFFFFFFFF AND PUSH4 0xFFFFFFFF AND SUB PUSH2 0x10B4 JUMPI PUSH1 0x40 MLOAD PUSH32 0x13AA293E00000000000000000000000000000000000000000000000000000000 DUP2 MSTORE PUSH1 0x4 ADD PUSH1 0x40 MLOAD DUP1 SWAP2 SUB SWAP1 REVERT JUMPDEST DUP2 DUP2 PUSH1 0x1 ADD PUSH0 PUSH2 0x100 EXP DUP2 SLOAD DUP2 PUSH4 0xFFFFFFFF MUL NOT AND SWAP1 DUP4 PUSH4 0xFFFFFFFF AND MUL OR SWAP1 SSTORE POP DUP3 PUSH20 0xFFFFFFFFFFFFFFFFFFFFFFFFFFFFFFFFFFFFFFFF AND PUSH32 0x64905396482BB1067A551077143915C77B512B1CFEA5DB34C903943C1C2A5A15 DUP4 PUSH1 0x40 MLOAD PUSH2 0x111C SWAP2 SWAP1 PUSH2 0x71C6 JUMP JUMPDEST PUSH1 0x40 MLOAD DUP1 SWAP2 SUB SWAP1 LOG2 POP POP POP JUMP JUMPDEST PUSH1 0x60 PUSH0 PUSH1 0x8 PUSH0 ADD DUP1 SLOAD DUP1 PUSH1 0x20 MUL PUSH1 0x20 ADD PUSH1 0x40 MLOAD SWAP1 DUP2 ADD PUSH1 0x40 MSTORE DUP1 SWAP3 SWAP2 SWAP1 DUP2 DUP2 MSTORE PUSH1 0x20 ADD DUP3 DUP1 SLOAD DUP1 ISZERO PUSH2 0x11AD JUMPI PUSH1 0x20 MUL DUP3 ADD SWAP2 SWAP1 PUSH0 MSTORE PUSH1 0x20 PUSH0 KECCAK256 SWAP1 JUMPDEST DUP2 PUSH0 SWAP1 SLOAD SWAP1 PUSH2 0x100 EXP SWAP1 DIV PUSH20 0xFFFFFFFFFFFFFFFFFFFFFFFFFFFFFFFFFFFFFFFF AND PUSH20 0xFFFFFFFFFFFFFFFFFFFFFFFFFFFFFFFFFFFFFFFF AND DUP2 MSTORE PUSH1 0x20 ADD SWAP1 PUSH1 0x1 ADD SWAP1 DUP1 DUP4 GT PUSH2 0x1164 JUMPI JUMPDEST POP POP POP POP POP SWAP1 POP PUSH0 DUP2 MLOAD SWAP1 POP PUSH0 DUP2 PUSH8 0xFFFFFFFFFFFFFFFF DUP2 GT ISZERO PUSH2 0x11D4 JUMPI PUSH2 0x11D3 PUSH2 0x71DF JUMP JUMPDEST JUMPDEST PUSH1 0x40 MLOAD SWAP1 DUP1 DUP3 MSTORE DUP1 PUSH1 0x20 MUL PUSH1 0x20 ADD DUP3 ADD PUSH1 0x40 MSTORE DUP1 ISZERO PUSH2 0x120D JUMPI DUP2 PUSH1 0x20 ADD JUMPDEST PUSH2 0x11FA PUSH2 0x614F JUMP JUMPDEST DUP2 MSTORE PUSH1 0x20 ADD SWAP1 PUSH1 0x1 SWAP1 SUB SWAP1 DUP2 PUSH2 0x11F2 JUMPI SWAP1 POP JUMPDEST POP SWAP1 POP PUSH0 JUMPDEST DUP3 DUP2 LT ISZERO PUSH2 0x1425 JUMPI PUSH0 PUSH1 0x2 PUSH0 DUP7 DUP5 DUP2 MLOAD DUP2 LT PUSH2 0x1231 JUMPI PUSH2 0x1230 PUSH2 0x720C JUMP JUMPDEST JUMPDEST PUSH1 0x20 MUL PUSH1 0x20 ADD ADD MLOAD PUSH20 0xFFFFFFFFFFFFFFFFFFFFFFFFFFFFFFFFFFFFFFFF AND PUSH20 0xFFFFFFFFFFFFFFFFFFFFFFFFFFFFFFFFFFFFFFFF AND DUP2 MSTORE PUSH1 0x20 ADD SWAP1 DUP2 MSTORE PUSH1 0x20 ADD PUSH0 KECCAK256 PUSH1 0x40 MLOAD DUP1 PUSH1 0xC0 ADD PUSH1 0x40 MSTORE SWAP1 DUP2 PUSH0 DUP3 ADD SLOAD DUP2 MSTORE PUSH1 0x20 ADD PUSH1 0x1 DUP3 ADD SLOAD DUP2 MSTORE PUSH1 0x20 ADD PUSH1 0x2 DUP3 ADD PUSH0 SWAP1 SLOAD SWAP1 PUSH2 0x100 EXP SWAP1 DIV PUSH20 0xFFFFFFFFFFFFFFFFFFFFFFFFFFFFFFFFFFFFFFFF AND PUSH20 0xFFFFFFFFFFFFFFFFFFFFFFFFFFFFFFFFFFFFFFFF AND PUSH20 0xFFFFFFFFFFFFFFFFFFFFFFFFFFFFFFFFFFFFFFFF AND DUP2 MSTORE PUSH1 0x20 ADD PUSH1 0x2 DUP3 ADD PUSH1 0x14 SWAP1 SLOAD SWAP1 PUSH2 0x100 EXP SWAP1 DIV PUSH5 0xFFFFFFFFFF AND PUSH5 0xFFFFFFFFFF AND PUSH5 0xFFFFFFFFFF AND DUP2 MSTORE PUSH1 0x20 ADD PUSH1 0x2 DUP3 ADD PUSH1 0x19 SWAP1 SLOAD SWAP1 PUSH2 0x100 EXP SWAP1 DIV PUSH5 0xFFFFFFFFFF AND PUSH5 0xFFFFFFFFFF AND PUSH5 0xFFFFFFFFFF AND DUP2 MSTORE PUSH1 0x20 ADD PUSH1 0x2 DUP3 ADD PUSH1 0x1E SWAP1 SLOAD SWAP1 PUSH2 0x100 EXP SWAP1 DIV PUSH2 0xFFFF AND PUSH2 0xFFFF AND PUSH2 0xFFFF AND DUP2 MSTORE POP POP SWAP1 POP PUSH1 0x40 MLOAD DUP1 PUSH1 0xE0 ADD PUSH1 0x40 MSTORE DUP1 DUP7 DUP5 DUP2 MLOAD DUP2 LT PUSH2 0x1377 JUMPI PUSH2 0x1376 PUSH2 0x720C JUMP JUMPDEST JUMPDEST PUSH1 0x20 MUL PUSH1 0x20 ADD ADD MLOAD PUSH20 0xFFFFFFFFFFFFFFFFFFFFFFFFFFFFFFFFFFFFFFFF AND DUP2 MSTORE PUSH1 0x20 ADD DUP3 PUSH0 ADD MLOAD DUP2 MSTORE PUSH1 0x20 ADD DUP3 PUSH1 0x20 ADD MLOAD DUP2 MSTORE PUSH1 0x20 ADD DUP3 PUSH1 0x40 ADD MLOAD PUSH20 0xFFFFFFFFFFFFFFFFFFFFFFFFFFFFFFFFFFFFFFFF AND DUP2 MSTORE PUSH1 0x20 ADD DUP3 PUSH1 0x60 ADD MLOAD PUSH5 0xFFFFFFFFFF AND DUP2 MSTORE PUSH1 0x20 ADD DUP3 PUSH1 0x80 ADD MLOAD PUSH5 0xFFFFFFFFFF AND DUP2 MSTORE PUSH1 0x20 ADD DUP3 PUSH1 0xA0 ADD MLOAD PUSH2 0xFFFF AND DUP2 MSTORE POP DUP4 DUP4 DUP2 MLOAD DUP2 LT PUSH2 0x140E JUMPI PUSH2 0x140D PUSH2 0x720C JUMP JUMPDEST JUMPDEST PUSH1 0x20 MUL PUSH1 0x20 ADD ADD DUP2 SWAP1 MSTORE POP POP DUP1 PUSH1 0x1 ADD SWAP1 POP PUSH2 0x1212 JUMP JUMPDEST POP DUP1 SWAP4 POP POP POP POP SWAP1 JUMP JUMPDEST PUSH1 0xC PUSH1 0x20 MSTORE DUP1 PUSH0 MSTORE PUSH1 0x40 PUSH0 KECCAK256 PUSH0 SWAP2 POP SWAP1 POP DUP1 PUSH0 ADD SLOAD SWAP1 DUP1 PUSH1 0x1 ADD PUSH0 SWAP1 SLOAD SWAP1 PUSH2 0x100 EXP SWAP1 DIV PUSH5 0xFFFFFFFFFF AND SWAP1 POP DUP3 JUMP JUMPDEST PUSH2 0x1467 PUSH2 0x52BA JUMP JUMPDEST PUSH2 0x146F PUSH2 0x516D JUMP JUMPDEST PUSH0 PUSH1 0x2 PUSH0 CALLER PUSH20 0xFFFFFFFFFFFFFFFFFFFFFFFFFFFFFFFFFFFFFFFF AND PUSH20 0xFFFFFFFFFFFFFFFFFFFFFFFFFFFFFFFFFFFFFFFF AND DUP2 MSTORE PUSH1 0x20 ADD SWAP1 DUP2 MSTORE PUSH1 0x20 ADD PUSH0 KECCAK256 SWAP1 POP PUSH0 DUP2 PUSH1 0x2 ADD PUSH1 0x1E SWAP1 SLOAD SWAP1 PUSH2 0x100 EXP SWAP1 DIV PUSH2 0xFFFF AND PUSH2 0xFFFF AND SUB PUSH2 0x14FE JUMPI PUSH1 0x40 MLOAD PUSH32 0xABA4733900000000000000000000000000000000000000000000000000000000 DUP2 MSTORE PUSH1 0x4 ADD PUSH1 0x40 MLOAD DUP1 SWAP2 SUB SWAP1 REVERT JUMPDEST PUSH0 DUP2 PUSH1 0x2 ADD PUSH0 SWAP1 SLOAD SWAP1 PUSH2 0x100 EXP SWAP1 DIV PUSH20 0xFFFFFFFFFFFFFFFFFFFFFFFFFFFFFFFFFFFFFFFF AND SWAP1 POP PUSH2 0x1574 CALLER PUSH1 0x4 PUSH0 DUP5 PUSH20 0xFFFFFFFFFFFFFFFFFFFFFFFFFFFFFFFFFFFFFFFF AND PUSH20 0xFFFFFFFFFFFFFFFFFFFFFFFFFFFFFFFFFFFFFFFF AND DUP2 MSTORE PUSH1 0x20 ADD SWAP1 DUP2 MSTORE PUSH1 0x20 ADD PUSH0 KECCAK256 PUSH2 0x5304 SWAP1 SWAP2 SWAP1 PUSH4 0xFFFFFFFF AND JUMP JUMPDEST PUSH2 0x1588 CALLER PUSH1 0x8 PUSH2 0x5304 SWAP1 SWAP2 SWAP1 PUSH4 0xFFFFFFFF AND JUMP JUMPDEST CALLER PUSH20 0xFFFFFFFFFFFFFFFFFFFFFFFFFFFFFFFFFFFFFFFF AND PUSH32 0xB7041987154996ED34981C2BC6FBAFD4B1FCAB9964486D7CC386F0D8ABCC5446 PUSH1 0x40 MLOAD PUSH1 0x40 MLOAD DUP1 SWAP2 SUB SWAP1 LOG2 POP POP JUMP JUMPDEST PUSH2 0x15D7 PUSH2 0x52BA JUMP JUMPDEST PUSH2 0x15DF PUSH2 0x516D JUMP JUMPDEST PUSH0 DUP2 PUSH2 0xFFFF AND EQ DUP1 PUSH2 0x1608 JUMPI POP PUSH1 0x1A PUSH1 0x10 SWAP1 SLOAD SWAP1 PUSH2 0x100 EXP SWAP1 DIV PUSH2 0xFFFF AND PUSH2 0xFFFF AND DUP2 PUSH2 0xFFFF AND GT JUMPDEST ISZERO PUSH2 0x163F JUMPI PUSH1 0x40 MLOAD PUSH32 0xE142361700000000000000000000000000000000000000000000000000000000 DUP2 MSTORE PUSH1 0x4 ADD PUSH1 0x40 MLOAD DUP1 SWAP2 SUB SWAP1 REVERT JUMPDEST PUSH1 0x17 SLOAD CALLVALUE LT ISZERO PUSH2 0x167B JUMPI PUSH1 0x40 MLOAD PUSH32 0x1CC3B37B00000000000000000000000000000000000000000000000000000000 DUP2 MSTORE PUSH1 0x4 ADD PUSH1 0x40 MLOAD DUP1 SWAP2 SUB SWAP1 REVERT JUMPDEST PUSH0 PUSH1 0x2 PUSH0 CALLER PUSH20 0xFFFFFFFFFFFFFFFFFFFFFFFFFFFFFFFFFFFFFFFF AND PUSH20 0xFFFFFFFFFFFFFFFFFFFFFFFFFFFFFFFFFFFFFFFF AND DUP2 MSTORE PUSH1 0x20 ADD SWAP1 DUP2 MSTORE PUSH1 0x20 ADD PUSH0 KECCAK256 SWAP1 POP PUSH0 DUP2 PUSH1 0x2 ADD PUSH1 0x1E SWAP1 SLOAD SWAP1 PUSH2 0x100 EXP SWAP1 DIV PUSH2 0xFFFF AND PUSH2 0xFFFF AND EQ PUSH2 0x170A JUMPI PUSH1 0x40 MLOAD PUSH32 0x3A81D6FC00000000000000000000000000000000000000000000000000000000 DUP2 MSTORE PUSH1 0x4 ADD PUSH1 0x40 MLOAD DUP1 SWAP2 SUB SWAP1 REVERT JUMPDEST CALLVALUE DUP2 PUSH0 ADD DUP2 SWAP1 SSTORE POP DUP2 DUP2 PUSH1 0x2 ADD PUSH1 0x1E PUSH2 0x100 EXP DUP2 SLOAD DUP2 PUSH2 0xFFFF MUL NOT AND SWAP1 DUP4 PUSH2 0xFFFF AND MUL OR SWAP1 SSTORE POP PUSH1 0x1A PUSH1 0x14 SWAP1 SLOAD SWAP1 PUSH2 0x100 EXP SWAP1 DIV PUSH5 0xFFFFFFFFFF AND DUP2 PUSH1 0x2 ADD PUSH1 0x14 PUSH2 0x100 EXP DUP2 SLOAD DUP2 PUSH5 0xFFFFFFFFFF MUL NOT AND SWAP1 DUP4 PUSH5 0xFFFFFFFFFF AND MUL OR SWAP1 SSTORE POP PUSH0 PUSH1 0x6 PUSH0 ADD PUSH2 0x1778 PUSH1 0x6 PUSH2 0x5436 JUMP JUMPDEST PUSH2 0x1781 PUSH0 PUSH2 0x5445 JUMP JUMPDEST PUSH2 0x178B SWAP2 SWAP1 PUSH2 0x7266 JUMP JUMPDEST DUP2 SLOAD DUP2 LT PUSH2 0x179C JUMPI PUSH2 0x179B PUSH2 0x720C JUMP JUMPDEST JUMPDEST SWAP1 PUSH0 MSTORE PUSH1 0x20 PUSH0 KECCAK256 ADD PUSH0 SWAP1 SLOAD SWAP1 PUSH2 0x100 EXP SWAP1 DIV PUSH20 0xFFFFFFFFFFFFFFFFFFFFFFFFFFFFFFFFFFFFFFFF AND SWAP1 POP DUP1 DUP3 PUSH1 0x2 ADD PUSH0 PUSH2 0x100 EXP DUP2 SLOAD DUP2 PUSH20 0xFFFFFFFFFFFFFFFFFFFFFFFFFFFFFFFFFFFFFFFF MUL NOT AND SWAP1 DUP4 PUSH20 0xFFFFFFFFFFFFFFFFFFFFFFFFFFFFFFFFFFFFFFFF AND MUL OR SWAP1 SSTORE POP DUP3 PUSH2 0xFFFF AND CALLER PUSH20 0xFFFFFFFFFFFFFFFFFFFFFFFFFFFFFFFFFFFFFFFF AND PUSH32 0x55E488821080F3F5CDF6088B02793DF0D26F40053A70B6154347D2AC313015A1 CALLVALUE PUSH1 0x40 MLOAD PUSH2 0x1853 SWAP2 SWAP1 PUSH2 0x669E JUMP JUMPDEST PUSH1 0x40 MLOAD DUP1 SWAP2 SUB SWAP1 LOG3 POP POP POP JUMP JUMPDEST PUSH1 0x17 SLOAD DUP2 JUMP JUMPDEST PUSH2 0x186E PUSH2 0x50EF JUMP JUMPDEST PUSH2 0x1876 PUSH2 0x516D JUMP JUMPDEST PUSH0 DUP2 PUSH5 0xFFFFFFFFFF AND SUB PUSH2 0x18BF JUMPI PUSH1 0x40 MLOAD PUSH32 0x8C379A000000000000000000000000000000000000000000000000000000000 DUP2 MSTORE PUSH1 0x4 ADD PUSH2 0x18B6 SWAP1 PUSH2 0x72E0 JUMP JUMPDEST PUSH1 0x40 MLOAD DUP1 SWAP2 SUB SWAP1 REVERT JUMPDEST PUSH32 0xDF63C46E5024E57C66AAFC6698E317C78589C870DCA694678C89DD379C5FD490 PUSH1 0x1A PUSH1 0xA SWAP1 SLOAD SWAP1 PUSH2 0x100 EXP SWAP1 DIV PUSH5 0xFFFFFFFFFF AND DUP3 PUSH1 0x40 MLOAD PUSH2 0x1903 SWAP3 SWAP2 SWAP1 PUSH2 0x7337 JUMP JUMPDEST PUSH1 0x40 MLOAD DUP1 SWAP2 SUB SWAP1 LOG1 DUP1 PUSH1 0x1A PUSH1 0xA PUSH2 0x100 EXP DUP2 SLOAD DUP2 PUSH5 0xFFFFFFFFFF MUL NOT AND SWAP1 DUP4 PUSH5 0xFFFFFFFFFF AND MUL OR SWAP1 SSTORE POP POP JUMP JUMPDEST PUSH1 0x60 PUSH0 PUSH1 0x12 PUSH0 CALLER PUSH20 0xFFFFFFFFFFFFFFFFFFFFFFFFFFFFFFFFFFFFFFFF AND PUSH20 0xFFFFFFFFFFFFFFFFFFFFFFFFFFFFFFFFFFFFFFFF AND DUP2 MSTORE PUSH1 0x20 ADD SWAP1 DUP2 MSTORE PUSH1 0x20 ADD PUSH0 KECCAK256 PUSH0 ADD DUP1 SLOAD DUP1 PUSH1 0x20 MUL PUSH1 0x20 ADD PUSH1 0x40 MLOAD SWAP1 DUP2 ADD PUSH1 0x40 MSTORE DUP1 SWAP3 SWAP2 SWAP1 DUP2 DUP2 MSTORE PUSH1 0x20 ADD DUP3 DUP1 SLOAD DUP1 ISZERO PUSH2 0x19BB JUMPI PUSH1 0x20 MUL DUP3 ADD SWAP2 SWAP1 PUSH0 MSTORE PUSH1 0x20 PUSH0 KECCAK256 SWAP1 JUMPDEST DUP2 SLOAD DUP2 MSTORE PUSH1 0x20 ADD SWAP1 PUSH1 0x1 ADD SWAP1 DUP1 DUP4 GT PUSH2 0x19A7 JUMPI JUMPDEST POP POP POP POP POP SWAP1 POP PUSH0 DUP2 MLOAD SWAP1 POP PUSH0 DUP1 JUMPDEST DUP3 DUP2 LT ISZERO PUSH2 0x1A14 JUMPI PUSH2 0x19F5 DUP5 DUP3 DUP2 MLOAD DUP2 LT PUSH2 0x19E8 JUMPI PUSH2 0x19E7 PUSH2 0x720C JUMP JUMPDEST JUMPDEST PUSH1 0x20 MUL PUSH1 0x20 ADD ADD MLOAD PUSH2 0x221B JUMP JUMPDEST ISZERO PUSH2 0x1A09 JUMPI DUP2 DUP1 PUSH2 0x1A05 SWAP1 PUSH2 0x738B JUMP JUMPDEST SWAP3 POP POP JUMPDEST DUP1 PUSH1 0x1 ADD SWAP1 POP PUSH2 0x19CA JUMP JUMPDEST POP PUSH0 DUP2 PUSH8 0xFFFFFFFFFFFFFFFF DUP2 GT ISZERO PUSH2 0x1A30 JUMPI PUSH2 0x1A2F PUSH2 0x71DF JUMP JUMPDEST JUMPDEST PUSH1 0x40 MLOAD SWAP1 DUP1 DUP3 MSTORE DUP1 PUSH1 0x20 MUL PUSH1 0x20 ADD DUP3 ADD PUSH1 0x40 MSTORE DUP1 ISZERO PUSH2 0x1A69 JUMPI DUP2 PUSH1 0x20 ADD JUMPDEST PUSH2 0x1A56 PUSH2 0x61C3 JUMP JUMPDEST DUP2 MSTORE PUSH1 0x20 ADD SWAP1 PUSH1 0x1 SWAP1 SUB SWAP1 DUP2 PUSH2 0x1A4E JUMPI SWAP1 POP JUMPDEST POP SWAP1 POP PUSH0 SWAP2 POP PUSH0 JUMPDEST DUP4 DUP2 LT ISZERO PUSH2 0x1C8A JUMPI PUSH2 0x1A9C DUP6 DUP3 DUP2 MLOAD DUP2 LT PUSH2 0x1A8F JUMPI PUSH2 0x1A8E PUSH2 0x720C JUMP JUMPDEST JUMPDEST PUSH1 0x20 MUL PUSH1 0x20 ADD ADD MLOAD PUSH2 0x221B JUMP JUMPDEST ISZERO PUSH2 0x1C7F JUMPI PUSH0 PUSH1 0x11 PUSH0 DUP8 DUP5 DUP2 MLOAD DUP2 LT PUSH2 0x1AB8 JUMPI PUSH2 0x1AB7 PUSH2 0x720C JUMP JUMPDEST JUMPDEST PUSH1 0x20 MUL PUSH1 0x20 ADD ADD MLOAD DUP2 MSTORE PUSH1 0x20 ADD SWAP1 DUP2 MSTORE PUSH1 0x20 ADD PUSH0 KECCAK256 SWAP1 POP PUSH0 PUSH1 0xF PUSH0 DUP4 PUSH0 ADD SLOAD DUP2 MSTORE PUSH1 0x20 ADD SWAP1 DUP2 MSTORE PUSH1 0x20 ADD PUSH0 KECCAK256 SWAP1 POP PUSH1 0x40 MLOAD DUP1 PUSH1 0xE0 ADD PUSH1 0x40 MSTORE DUP1 DUP9 DUP6 DUP2 MLOAD DUP2 LT PUSH2 0x1B04 JUMPI PUSH2 0x1B03 PUSH2 0x720C JUMP JUMPDEST JUMPDEST PUSH1 0x20 MUL PUSH1 0x20 ADD ADD MLOAD DUP2 MSTORE PUSH1 0x20 ADD DUP4 PUSH0 ADD SLOAD DUP2 MSTORE PUSH1 0x20 ADD DUP3 PUSH1 0x2 ADD SLOAD DUP2 MSTORE PUSH1 0x20 ADD DUP3 PUSH1 0x1 ADD DUP1 SLOAD PUSH2 0x1B33 SWAP1 PUSH2 0x73FF JUMP JUMPDEST DUP1 PUSH1 0x1F ADD PUSH1 0x20 DUP1 SWAP2 DIV MUL PUSH1 0x20 ADD PUSH1 0x40 MLOAD SWAP1 DUP2 ADD PUSH1 0x40 MSTORE DUP1 SWAP3 SWAP2 SWAP1 DUP2 DUP2 MSTORE PUSH1 0x20 ADD DUP3 DUP1 SLOAD PUSH2 0x1B5F SWAP1 PUSH2 0x73FF JUMP JUMPDEST DUP1 ISZERO PUSH2 0x1BAA JUMPI DUP1 PUSH1 0x1F LT PUSH2 0x1B81 JUMPI PUSH2 0x100 DUP1 DUP4 SLOAD DIV MUL DUP4 MSTORE SWAP2 PUSH1 0x20 ADD SWAP2 PUSH2 0x1BAA JUMP JUMPDEST DUP3 ADD SWAP2 SWAP1 PUSH0 MSTORE PUSH1 0x20 PUSH0 KECCAK256 SWAP1 JUMPDEST DUP2 SLOAD DUP2 MSTORE SWAP1 PUSH1 0x1 ADD SWAP1 PUSH1 0x20 ADD DUP1 DUP4 GT PUSH2 0x1B8D JUMPI DUP3 SWAP1 SUB PUSH1 0x1F AND DUP3 ADD SWAP2 JUMPDEST POP POP POP POP POP DUP2 MSTORE PUSH1 0x20 ADD DUP3 PUSH1 0x4 ADD PUSH0 SWAP1 SLOAD SWAP1 PUSH2 0x100 EXP SWAP1 DIV PUSH20 0xFFFFFFFFFFFFFFFFFFFFFFFFFFFFFFFFFFFFFFFF AND PUSH20 0xFFFFFFFFFFFFFFFFFFFFFFFFFFFFFFFFFFFFFFFF AND DUP2 MSTORE PUSH1 0x20 ADD DUP3 PUSH1 0x5 ADD PUSH0 SWAP1 SLOAD SWAP1 PUSH2 0x100 EXP SWAP1 DIV PUSH20 0xFFFFFFFFFFFFFFFFFFFFFFFFFFFFFFFFFFFFFFFF AND PUSH20 0xFFFFFFFFFFFFFFFFFFFFFFFFFFFFFFFFFFFFFFFF AND DUP2 MSTORE PUSH1 0x20 ADD DUP3 PUSH1 0x4 ADD PUSH1 0x14 SWAP1 SLOAD SWAP1 PUSH2 0x100 EXP SWAP1 DIV PUSH5 0xFFFFFFFFFF AND PUSH5 0xFFFFFFFFFF AND DUP2 MSTORE POP DUP5 DUP7 DUP1 PUSH2 0x1C5E SWAP1 PUSH2 0x738B JUMP JUMPDEST SWAP8 POP DUP2 MLOAD DUP2 LT PUSH2 0x1C71 JUMPI PUSH2 0x1C70 PUSH2 0x720C JUMP JUMPDEST JUMPDEST PUSH1 0x20 MUL PUSH1 0x20 ADD ADD DUP2 SWAP1 MSTORE POP POP POP JUMPDEST DUP1 PUSH1 0x1 ADD SWAP1 POP PUSH2 0x1A71 JUMP JUMPDEST POP DUP1 SWAP5 POP POP POP POP POP SWAP1 JUMP JUMPDEST PUSH2 0x1C9D PUSH2 0x50EF JUMP JUMPDEST PUSH2 0x1CA5 PUSH2 0x5489 JUMP JUMPDEST PUSH2 0x1CAD PUSH2 0x54D2 JUMP JUMPDEST JUMP JUMPDEST PUSH1 0x18 SLOAD DUP2 JUMP JUMPDEST PUSH2 0x1CBD PUSH2 0x516D JUMP JUMPDEST PUSH0 PUSH1 0xD PUSH0 CALLER PUSH20 0xFFFFFFFFFFFFFFFFFFFFFFFFFFFFFFFFFFFFFFFF AND PUSH20 0xFFFFFFFFFFFFFFFFFFFFFFFFFFFFFFFFFFFFFFFF AND DUP2 MSTORE PUSH1 0x20 ADD SWAP1 DUP2 MSTORE PUSH1 0x20 ADD PUSH0 KECCAK256 SWAP1 POP DUP1 PUSH1 0x1 ADD PUSH0 SWAP1 SLOAD SWAP1 PUSH2 0x100 EXP SWAP1 DIV PUSH5 0xFFFFFFFFFF AND PUSH5 0xFFFFFFFFFF AND TIMESTAMP LT ISZERO PUSH2 0x1D52 JUMPI PUSH1 0x40 MLOAD PUSH32 0xB3C383A100000000000000000000000000000000000000000000000000000000 DUP2 MSTORE PUSH1 0x4 ADD PUSH1 0x40 MLOAD DUP1 SWAP2 SUB SWAP1 REVERT JUMPDEST PUSH0 DUP2 PUSH0 ADD SLOAD SWAP1 POP PUSH0 DUP2 SUB PUSH2 0x1D92 JUMPI PUSH1 0x40 MLOAD PUSH32 0x15DA940F00000000000000000000000000000000000000000000000000000000 DUP2 MSTORE PUSH1 0x4 ADD PUSH1 0x40 MLOAD DUP1 SWAP2 SUB SWAP1 REVERT JUMPDEST PUSH0 DUP3 PUSH0 ADD DUP2 SWAP1 SSTORE POP PUSH2 0x1DA4 CALLER DUP3 PUSH2 0x5533 JUMP JUMPDEST CALLER PUSH20 0xFFFFFFFFFFFFFFFFFFFFFFFFFFFFFFFFFFFFFFFF AND PUSH32 0xFA8E6FE2F340A3C8DA106AB24F4645CDC4F034A0C0514CABFA764531F13798B3 DUP3 PUSH1 0x40 MLOAD PUSH2 0x1DEA SWAP2 SWAP1 PUSH2 0x669E JUMP JUMPDEST PUSH1 0x40 MLOAD DUP1 SWAP2 SUB SWAP1 LOG2 POP POP JUMP JUMPDEST PUSH1 0x1A PUSH1 0x12 SWAP1 SLOAD SWAP1 PUSH2 0x100 EXP SWAP1 DIV PUSH2 0xFFFF AND DUP2 JUMP JUMPDEST PUSH2 0x1E12 PUSH2 0x52BA JUMP JUMPDEST PUSH2 0x1E1A PUSH2 0x516D JUMP JUMPDEST PUSH0 DUP2 PUSH2 0xFFFF AND EQ DUP1 PUSH2 0x1E43 JUMPI POP PUSH1 0x1A PUSH1 0x10 SWAP1 SLOAD SWAP1 PUSH2 0x100 EXP SWAP1 DIV PUSH2 0xFFFF AND PUSH2 0xFFFF AND DUP2 PUSH2 0xFFFF AND GT JUMPDEST ISZERO PUSH2 0x1E7A JUMPI PUSH1 0x40 MLOAD PUSH32 0xE142361700000000000000000000000000000000000000000000000000000000 DUP2 MSTORE PUSH1 0x4 ADD PUSH1 0x40 MLOAD DUP1 SWAP2 SUB SWAP1 REVERT JUMPDEST PUSH1 0x18 SLOAD CALLVALUE LT ISZERO PUSH2 0x1EB6 JUMPI PUSH1 0x40 MLOAD PUSH32 0x1CC3B37B00000000000000000000000000000000000000000000000000000000 DUP2 MSTORE PUSH1 0x4 ADD PUSH1 0x40 MLOAD DUP1 SWAP2 SUB SWAP1 REVERT JUMPDEST PUSH0 PUSH1 0x3 PUSH0 CALLER PUSH20 0xFFFFFFFFFFFFFFFFFFFFFFFFFFFFFFFFFFFFFFFF AND PUSH20 0xFFFFFFFFFFFFFFFFFFFFFFFFFFFFFFFFFFFFFFFF AND DUP2 MSTORE PUSH1 0x20 ADD SWAP1 DUP2 MSTORE PUSH1 0x20 ADD PUSH0 KECCAK256 SWAP1 POP PUSH0 DUP2 PUSH1 0x2 ADD PUSH1 0x1E SWAP1 SLOAD SWAP1 PUSH2 0x100 EXP SWAP1 DIV PUSH2 0xFFFF AND PUSH2 0xFFFF AND EQ PUSH2 0x1F45 JUMPI PUSH1 0x40 MLOAD PUSH32 0x3A81D6FC00000000000000000000000000000000000000000000000000000000 DUP2 MSTORE PUSH1 0x4 ADD PUSH1 0x40 MLOAD DUP1 SWAP2 SUB SWAP1 REVERT JUMPDEST CALLVALUE DUP2 PUSH0 ADD DUP2 SWAP1 SSTORE POP DUP2 DUP2 PUSH1 0x2 ADD PUSH1 0x1E PUSH2 0x100 EXP DUP2 SLOAD DUP2 PUSH2 0xFFFF MUL NOT AND SWAP1 DUP4 PUSH2 0xFFFF AND MUL OR SWAP1 SSTORE POP DUP2 DUP2 PUSH1 0x2 ADD PUSH1 0x1E PUSH2 0x100 EXP DUP2 SLOAD DUP2 PUSH2 0xFFFF MUL NOT AND SWAP1 DUP4 PUSH2 0xFFFF AND MUL OR SWAP1 SSTORE POP PUSH1 0x1A PUSH1 0x14 SWAP1 SLOAD SWAP1 PUSH2 0x100 EXP SWAP1 DIV PUSH5 0xFFFFFFFFFF AND DUP2 PUSH1 0x2 ADD PUSH1 0x14 PUSH2 0x100 EXP DUP2 SLOAD DUP2 PUSH5 0xFFFFFFFFFF MUL NOT AND SWAP1 DUP4 PUSH5 0xFFFFFFFFFF AND MUL OR SWAP1 SSTORE POP PUSH0 PUSH1 0x6 PUSH0 ADD PUSH2 0x1FD2 PUSH1 0x6 PUSH2 0x5436 JUMP JUMPDEST PUSH2 0x1FDB PUSH0 PUSH2 0x5445 JUMP JUMPDEST PUSH2 0x1FE5 SWAP2 SWAP1 PUSH2 0x7266 JUMP JUMPDEST DUP2 SLOAD DUP2 LT PUSH2 0x1FF6 JUMPI PUSH2 0x1FF5 PUSH2 0x720C JUMP JUMPDEST JUMPDEST SWAP1 PUSH0 MSTORE PUSH1 0x20 PUSH0 KECCAK256 ADD PUSH0 SWAP1 SLOAD SWAP1 PUSH2 0x100 EXP SWAP1 DIV PUSH20 0xFFFFFFFFFFFFFFFFFFFFFFFFFFFFFFFFFFFFFFFF AND SWAP1 POP DUP1 DUP3 PUSH1 0x2 ADD PUSH0 PUSH2 0x100 EXP DUP2 SLOAD DUP2 PUSH20 0xFFFFFFFFFFFFFFFFFFFFFFFFFFFFFFFFFFFFFFFF MUL NOT AND SWAP1 DUP4 PUSH20 0xFFFFFFFFFFFFFFFFFFFFFFFFFFFFFFFFFFFFFFFF AND MUL OR SWAP1 SSTORE POP DUP3 PUSH2 0xFFFF AND CALLER PUSH20 0xFFFFFFFFFFFFFFFFFFFFFFFFFFFFFFFFFFFFFFFF AND PUSH32 0xCC39E21667ABB04BEFCE1BB972C8B03A1B15E1F4B84A3DB2535C2FCD6179BB6F CALLVALUE PUSH1 0x40 MLOAD PUSH2 0x20AD SWAP2 SWAP1 PUSH2 0x669E JUMP JUMPDEST PUSH1 0x40 MLOAD DUP1 SWAP2 SUB SWAP1 LOG3 POP POP POP JUMP JUMPDEST PUSH1 0x11 PUSH1 0x20 MSTORE DUP1 PUSH0 MSTORE PUSH1 0x40 PUSH0 KECCAK256 PUSH0 SWAP2 POP SWAP1 POP DUP1 PUSH0 ADD SLOAD SWAP1 DUP1 PUSH1 0x1 ADD DUP1 SLOAD PUSH2 0x20DF SWAP1 PUSH2 0x73FF JUMP JUMPDEST DUP1 PUSH1 0x1F ADD PUSH1 0x20 DUP1 SWAP2 DIV MUL PUSH1 0x20 ADD PUSH1 0x40 MLOAD SWAP1 DUP2 ADD PUSH1 0x40 MSTORE DUP1 SWAP3 SWAP2 SWAP1 DUP2 DUP2 MSTORE PUSH1 0x20 ADD DUP3 DUP1 SLOAD PUSH2 0x210B SWAP1 PUSH2 0x73FF JUMP JUMPDEST DUP1 ISZERO PUSH2 0x2156 JUMPI DUP1 PUSH1 0x1F LT PUSH2 0x212D JUMPI PUSH2 0x100 DUP1 DUP4 SLOAD DIV MUL DUP4 MSTORE SWAP2 PUSH1 0x20 ADD SWAP2 PUSH2 0x2156 JUMP JUMPDEST DUP3 ADD SWAP2 SWAP1 PUSH0 MSTORE PUSH1 0x20 PUSH0 KECCAK256 SWAP1 JUMPDEST DUP2 SLOAD DUP2 MSTORE SWAP1 PUSH1 0x1 ADD SWAP1 PUSH1 0x20 ADD DUP1 DUP4 GT PUSH2 0x2139 JUMPI DUP3 SWAP1 SUB PUSH1 0x1F AND DUP3 ADD SWAP2 JUMPDEST POP POP POP POP POP SWAP1 DUP1 PUSH1 0x2 ADD PUSH0 SWAP1 SLOAD SWAP1 PUSH2 0x100 EXP SWAP1 DIV PUSH20 0xFFFFFFFFFFFFFFFFFFFFFFFFFFFFFFFFFFFFFFFF AND SWAP1 DUP1 PUSH1 0x2 ADD PUSH1 0x14 SWAP1 SLOAD SWAP1 PUSH2 0x100 EXP SWAP1 DIV PUSH1 0xFF AND SWAP1 POP DUP5 JUMP JUMPDEST PUSH1 0x1 PUSH1 0x20 MSTORE DUP1 PUSH0 MSTORE PUSH1 0x40 PUSH0 KECCAK256 PUSH0 SWAP2 POP SWAP1 POP DUP1 PUSH0 ADD SLOAD SWAP1 DUP1 PUSH1 0x1 ADD PUSH0 SWAP1 SLOAD SWAP1 PUSH2 0x100 EXP SWAP1 DIV PUSH4 0xFFFFFFFF AND SWAP1 POP DUP3 JUMP JUMPDEST PUSH1 0x60 PUSH1 0x40 MLOAD DUP1 PUSH1 0x40 ADD PUSH1 0x40 MSTORE DUP1 PUSH1 0x6 DUP2 MSTORE PUSH1 0x20 ADD PUSH32 0x76302E302E310000000000000000000000000000000000000000000000000000 DUP2 MSTORE POP SWAP1 POP SWAP1 JUMP JUMPDEST PUSH1 0x19 PUSH1 0x1B SWAP1 SLOAD SWAP1 PUSH2 0x100 EXP SWAP1 DIV PUSH5 0xFFFFFFFFFF AND DUP2 JUMP JUMPDEST PUSH0 DUP1 PUSH1 0x11 PUSH0 DUP5 DUP2 MSTORE PUSH1 0x20 ADD SWAP1 DUP2 MSTORE PUSH1 0x20 ADD PUSH0 KECCAK256 PUSH1 0x1 ADD DUP1 SLOAD PUSH2 0x223C SWAP1 PUSH2 0x73FF JUMP JUMPDEST SWAP1 POP EQ DUP1 ISZERO PUSH2 0x2289 JUMPI POP PUSH1 0xF PUSH0 PUSH1 0x11 PUSH0 DUP6 DUP2 MSTORE PUSH1 0x20 ADD SWAP1 DUP2 MSTORE PUSH1 0x20 ADD PUSH0 KECCAK256 PUSH0 ADD SLOAD DUP2 MSTORE PUSH1 0x20 ADD SWAP1 DUP2 MSTORE PUSH1 0x20 ADD PUSH0 KECCAK256 PUSH1 0x4 ADD PUSH1 0x14 SWAP1 SLOAD SWAP1 PUSH2 0x100 EXP SWAP1 DIV PUSH5 0xFFFFFFFFFF AND PUSH5 0xFFFFFFFFFF AND TIMESTAMP LT JUMPDEST SWAP1 POP SWAP2 SWAP1 POP JUMP JUMPDEST PUSH1 0x1A PUSH1 0x5 SWAP1 SLOAD SWAP1 PUSH2 0x100 EXP SWAP1 DIV PUSH5 0xFFFFFFFFFF AND DUP2 JUMP JUMPDEST PUSH0 PUSH1 0xE8 PUSH0 SWAP1 SLOAD SWAP1 PUSH2 0x100 EXP SWAP1 DIV PUSH1 0xFF AND SWAP1 POP SWAP1 JUMP JUMPDEST PUSH1 0x60 PUSH0 PUSH1 0x13 PUSH0 DUP5 DUP2 MSTORE PUSH1 0x20 ADD SWAP1 DUP2 MSTORE PUSH1 0x20 ADD PUSH0 KECCAK256 PUSH0 ADD DUP1 SLOAD DUP1 PUSH1 0x20 MUL PUSH1 0x20 ADD PUSH1 0x40 MLOAD SWAP1 DUP2 ADD PUSH1 0x40 MSTORE DUP1 SWAP3 SWAP2 SWAP1 DUP2 DUP2 MSTORE PUSH1 0x20 ADD DUP3 DUP1 SLOAD DUP1 ISZERO PUSH2 0x231A JUMPI PUSH1 0x20 MUL DUP3 ADD SWAP2 SWAP1 PUSH0 MSTORE PUSH1 0x20 PUSH0 KECCAK256 SWAP1 JUMPDEST DUP2 SLOAD DUP2 MSTORE PUSH1 0x20 ADD SWAP1 PUSH1 0x1 ADD SWAP1 DUP1 DUP4 GT PUSH2 0x2306 JUMPI JUMPDEST POP POP POP POP POP SWAP1 POP PUSH0 DUP2 MLOAD SWAP1 POP PUSH0 DUP2 PUSH8 0xFFFFFFFFFFFFFFFF DUP2 GT ISZERO PUSH2 0x2341 JUMPI PUSH2 0x2340 PUSH2 0x71DF JUMP JUMPDEST JUMPDEST PUSH1 0x40 MLOAD SWAP1 DUP1 DUP3 MSTORE DUP1 PUSH1 0x20 MUL PUSH1 0x20 ADD DUP3 ADD PUSH1 0x40 MSTORE DUP1 ISZERO PUSH2 0x237A JUMPI DUP2 PUSH1 0x20 ADD JUMPDEST PUSH2 0x2367 PUSH2 0x61C3 JUMP JUMPDEST DUP2 MSTORE PUSH1 0x20 ADD SWAP1 PUSH1 0x1 SWAP1 SUB SWAP1 DUP2 PUSH2 0x235F JUMPI SWAP1 POP JUMPDEST POP SWAP1 POP PUSH0 JUMPDEST DUP3 DUP2 LT ISZERO PUSH2 0x2563 JUMPI PUSH0 PUSH1 0x11 PUSH0 DUP7 DUP5 DUP2 MLOAD DUP2 LT PUSH2 0x239E JUMPI PUSH2 0x239D PUSH2 0x720C JUMP JUMPDEST JUMPDEST PUSH1 0x20 MUL PUSH1 0x20 ADD ADD MLOAD DUP2 MSTORE PUSH1 0x20 ADD SWAP1 DUP2 MSTORE PUSH1 0x20 ADD PUSH0 KECCAK256 SWAP1 POP PUSH0 PUSH1 0xF PUSH0 DUP4 PUSH0 ADD SLOAD DUP2 MSTORE PUSH1 0x20 ADD SWAP1 DUP2 MSTORE PUSH1 0x20 ADD PUSH0 KECCAK256 SWAP1 POP PUSH1 0x40 MLOAD DUP1 PUSH1 0xE0 ADD PUSH1 0x40 MSTORE DUP1 DUP8 DUP6 DUP2 MLOAD DUP2 LT PUSH2 0x23EA JUMPI PUSH2 0x23E9 PUSH2 0x720C JUMP JUMPDEST JUMPDEST PUSH1 0x20 MUL PUSH1 0x20 ADD ADD MLOAD DUP2 MSTORE PUSH1 0x20 ADD DUP4 PUSH0 ADD SLOAD DUP2 MSTORE PUSH1 0x20 ADD DUP3 PUSH1 0x2 ADD SLOAD DUP2 MSTORE PUSH1 0x20 ADD DUP3 PUSH1 0x1 ADD DUP1 SLOAD PUSH2 0x2419 SWAP1 PUSH2 0x73FF JUMP JUMPDEST DUP1 PUSH1 0x1F ADD PUSH1 0x20 DUP1 SWAP2 DIV MUL PUSH1 0x20 ADD PUSH1 0x40 MLOAD SWAP1 DUP2 ADD PUSH1 0x40 MSTORE DUP1 SWAP3 SWAP2 SWAP1 DUP2 DUP2 MSTORE PUSH1 0x20 ADD DUP3 DUP1 SLOAD PUSH2 0x2445 SWAP1 PUSH2 0x73FF JUMP JUMPDEST DUP1 ISZERO PUSH2 0x2490 JUMPI DUP1 PUSH1 0x1F LT PUSH2 0x2467 JUMPI PUSH2 0x100 DUP1 DUP4 SLOAD DIV MUL DUP4 MSTORE SWAP2 PUSH1 0x20 ADD SWAP2 PUSH2 0x2490 JUMP JUMPDEST DUP3 ADD SWAP2 SWAP1 PUSH0 MSTORE PUSH1 0x20 PUSH0 KECCAK256 SWAP1 JUMPDEST DUP2 SLOAD DUP2 MSTORE SWAP1 PUSH1 0x1 ADD SWAP1 PUSH1 0x20 ADD DUP1 DUP4 GT PUSH2 0x2473 JUMPI DUP3 SWAP1 SUB PUSH1 0x1F AND DUP3 ADD SWAP2 JUMPDEST POP POP POP POP POP DUP2 MSTORE PUSH1 0x20 ADD DUP3 PUSH1 0x4 ADD PUSH0 SWAP1 SLOAD SWAP1 PUSH2 0x100 EXP SWAP1 DIV PUSH20 0xFFFFFFFFFFFFFFFFFFFFFFFFFFFFFFFFFFFFFFFF AND PUSH20 0xFFFFFFFFFFFFFFFFFFFFFFFFFFFFFFFFFFFFFFFF AND DUP2 MSTORE PUSH1 0x20 ADD DUP3 PUSH1 0x5 ADD PUSH0 SWAP1 SLOAD SWAP1 PUSH2 0x100 EXP SWAP1 DIV PUSH20 0xFFFFFFFFFFFFFFFFFFFFFFFFFFFFFFFFFFFFFFFF AND PUSH20 0xFFFFFFFFFFFFFFFFFFFFFFFFFFFFFFFFFFFFFFFF AND DUP2 MSTORE PUSH1 0x20 ADD DUP3 PUSH1 0x4 ADD PUSH1 0x14 SWAP1 SLOAD SWAP1 PUSH2 0x100 EXP SWAP1 DIV PUSH5 0xFFFFFFFFFF AND PUSH5 0xFFFFFFFFFF AND DUP2 MSTORE POP DUP5 DUP5 DUP2 MLOAD DUP2 LT PUSH2 0x254B JUMPI PUSH2 0x254A PUSH2 0x720C JUMP JUMPDEST JUMPDEST PUSH1 0x20 MUL PUSH1 0x20 ADD ADD DUP2 SWAP1 MSTORE POP POP POP DUP1 PUSH1 0x1 ADD SWAP1 POP PUSH2 0x237F JUMP JUMPDEST POP DUP1 SWAP4 POP POP POP POP SWAP2 SWAP1 POP JUMP JUMPDEST PUSH2 0x2577 PUSH2 0x516D JUMP JUMPDEST PUSH0 PUSH1 0xF PUSH0 DUP4 DUP2 MSTORE PUSH1 0x20 ADD SWAP1 DUP2 MSTORE PUSH1 0x20 ADD PUSH0 KECCAK256 SWAP1 POP PUSH1 0x1 PUSH1 0x4 DUP2 GT ISZERO PUSH2 0x259F JUMPI PUSH2 0x259E PUSH2 0x6D36 JUMP JUMPDEST JUMPDEST DUP2 PUSH1 0x4 ADD PUSH1 0x1A SWAP1 SLOAD SWAP1 PUSH2 0x100 EXP SWAP1 DIV PUSH1 0xFF AND PUSH1 0x4 DUP2 GT ISZERO PUSH2 0x25C3 JUMPI PUSH2 0x25C2 PUSH2 0x6D36 JUMP JUMPDEST JUMPDEST EQ DUP1 ISZERO PUSH2 0x25EB JUMPI POP DUP1 PUSH1 0x4 ADD PUSH1 0x14 SWAP1 SLOAD SWAP1 PUSH2 0x100 EXP SWAP1 DIV PUSH5 0xFFFFFFFFFF AND PUSH5 0xFFFFFFFFFF AND TIMESTAMP GT JUMPDEST ISZERO PUSH2 0x2688 JUMPI PUSH1 0x4 DUP2 PUSH1 0x4 ADD PUSH1 0x1A PUSH2 0x100 EXP DUP2 SLOAD DUP2 PUSH1 0xFF MUL NOT AND SWAP1 DUP4 PUSH1 0x4 DUP2 GT ISZERO PUSH2 0x2618 JUMPI PUSH2 0x2617 PUSH2 0x6D36 JUMP JUMPDEST JUMPDEST MUL OR SWAP1 SSTORE POP PUSH2 0x264E DUP2 PUSH1 0x5 ADD PUSH0 SWAP1 SLOAD SWAP1 PUSH2 0x100 EXP SWAP1 DIV PUSH20 0xFFFFFFFFFFFFFFFFFFFFFFFFFFFFFFFFFFFFFFFF AND DUP3 PUSH1 0x2 ADD SLOAD PUSH2 0x5533 JUMP JUMPDEST DUP2 PUSH32 0xBC645ECE538D7606C8AC26DE30AEF5FBD0ED2EE0C945F4E5D860DA3E62781D50 PUSH1 0x4 PUSH1 0x40 MLOAD PUSH2 0x267F SWAP2 SWAP1 PUSH2 0x743E JUMP JUMPDEST PUSH1 0x40 MLOAD DUP1 SWAP2 SUB SWAP1 LOG2 JUMPDEST POP POP JUMP JUMPDEST PUSH1 0x19 PUSH0 SWAP1 SLOAD SWAP1 PUSH2 0x100 EXP SWAP1 DIV PUSH20 0xFFFFFFFFFFFFFFFFFFFFFFFFFFFFFFFFFFFFFFFF AND DUP2 JUMP JUMPDEST PUSH2 0x26B9 PUSH2 0x52BA JUMP JUMPDEST PUSH2 0x26C1 PUSH2 0x516D JUMP JUMPDEST PUSH0 PUSH1 0x3 PUSH0 CALLER PUSH20 0xFFFFFFFFFFFFFFFFFFFFFFFFFFFFFFFFFFFFFFFF AND PUSH20 0xFFFFFFFFFFFFFFFFFFFFFFFFFFFFFFFFFFFFFFFF AND DUP2 MSTORE PUSH1 0x20 ADD SWAP1 DUP2 MSTORE PUSH1 0x20 ADD PUSH0 KECCAK256 SWAP1 POP PUSH0 DUP2 PUSH1 0x2 ADD PUSH1 0x1E SWAP1 SLOAD SWAP1 PUSH2 0x100 EXP SWAP1 DIV PUSH2 0xFFFF AND PUSH2 0xFFFF AND SUB PUSH2 0x2750 JUMPI PUSH1 0x40 MLOAD PUSH32 0xABA4733900000000000000000000000000000000000000000000000000000000 DUP2 MSTORE PUSH1 0x4 ADD PUSH1 0x40 MLOAD DUP1 SWAP2 SUB SWAP1 REVERT JUMPDEST CALLVALUE DUP2 PUSH0 ADD PUSH0 DUP3 DUP3 SLOAD PUSH2 0x2762 SWAP2 SWAP1 PUSH2 0x7457 JUMP JUMPDEST SWAP3 POP POP DUP2 SWAP1 SSTORE POP CALLER PUSH20 0xFFFFFFFFFFFFFFFFFFFFFFFFFFFFFFFFFFFFFFFF AND PUSH32 0x34922005BDDEA1820FE67D4E0D79B91845321A99FC0D43FE025B74AC23E1063D CALLVALUE PUSH1 0x40 MLOAD PUSH2 0x27AF SWAP2 SWAP1 PUSH2 0x669E JUMP JUMPDEST PUSH1 0x40 MLOAD DUP1 SWAP2 SUB SWAP1 LOG2 POP JUMP JUMPDEST PUSH1 0x2 PUSH1 0x20 MSTORE DUP1 PUSH0 MSTORE PUSH1 0x40 PUSH0 KECCAK256 PUSH0 SWAP2 POP SWAP1 POP DUP1 PUSH0 ADD SLOAD SWAP1 DUP1 PUSH1 0x1 ADD SLOAD SWAP1 DUP1 PUSH1 0x2 ADD PUSH0 SWAP1 SLOAD SWAP1 PUSH2 0x100 EXP SWAP1 DIV PUSH20 0xFFFFFFFFFFFFFFFFFFFFFFFFFFFFFFFFFFFFFFFF AND SWAP1 DUP1 PUSH1 0x2 ADD PUSH1 0x14 SWAP1 SLOAD SWAP1 PUSH2 0x100 EXP SWAP1 DIV PUSH5 0xFFFFFFFFFF AND SWAP1 DUP1 PUSH1 0x2 ADD PUSH1 0x19 SWAP1 SLOAD SWAP1 PUSH2 0x100 EXP SWAP1 DIV PUSH5 0xFFFFFFFFFF AND SWAP1 DUP1 PUSH1 0x2 ADD PUSH1 0x1E SWAP1 SLOAD SWAP1 PUSH2 0x100 EXP SWAP1 DIV PUSH2 0xFFFF AND SWAP1 POP DUP7 JUMP JUMPDEST PUSH1 0x15 PUSH1 0x20 MSTORE DUP1 PUSH0 MSTORE PUSH1 0x40 PUSH0 KECCAK256 PUSH0 SWAP2 POP SWAP1 POP DUP1 PUSH0 ADD SLOAD SWAP1 DUP1 PUSH1 0x1 ADD SLOAD SWAP1 DUP1 PUSH1 0x2 ADD SLOAD SWAP1 DUP1 PUSH1 0x3 ADD SLOAD SWAP1 POP DUP5 JUMP JUMPDEST PUSH2 0x2875 PUSH2 0x55D7 JUMP JUMPDEST PUSH2 0x287D PUSH2 0x516D JUMP JUMPDEST PUSH0 PUSH1 0x2 PUSH0 CALLER PUSH20 0xFFFFFFFFFFFFFFFFFFFFFFFFFFFFFFFFFFFFFFFF AND PUSH20 0xFFFFFFFFFFFFFFFFFFFFFFFFFFFFFFFFFFFFFFFF AND DUP2 MSTORE PUSH1 0x20 ADD SWAP1 DUP2 MSTORE PUSH1 0x20 ADD PUSH0 KECCAK256 SWAP1 POP PUSH0 DUP2 PUSH1 0x2 ADD PUSH1 0x1E SWAP1 SLOAD SWAP1 PUSH2 0x100 EXP SWAP1 DIV PUSH2 0xFFFF AND PUSH2 0xFFFF AND SUB PUSH2 0x290C JUMPI PUSH1 0x40 MLOAD PUSH32 0xABA4733900000000000000000000000000000000000000000000000000000000 DUP2 MSTORE PUSH1 0x4 ADD PUSH1 0x40 MLOAD DUP1 SWAP2 SUB SWAP1 REVERT JUMPDEST PUSH0 DUP2 PUSH1 0x2 ADD PUSH1 0x1E PUSH2 0x100 EXP DUP2 SLOAD DUP2 PUSH2 0xFFFF MUL NOT AND SWAP1 DUP4 PUSH2 0xFFFF AND MUL OR SWAP1 SSTORE POP PUSH0 DUP2 PUSH0 ADD SLOAD SWAP1 POP PUSH0 DUP3 PUSH0 ADD DUP2 SWAP1 SSTORE POP PUSH0 DUP3 PUSH1 0x1 ADD DUP2 SWAP1 SSTORE POP PUSH2 0x2957 CALLER PUSH1 0x8 PUSH2 0x5628 SWAP1 SWAP2 SWAP1 PUSH4 0xFFFFFFFF AND JUMP JUMPDEST PUSH2 0x29C9 CALLER PUSH1 0x4 PUSH0 DUP6 PUSH1 0x2 ADD PUSH0 SWAP1 SLOAD SWAP1 PUSH2 0x100 EXP SWAP1 DIV PUSH20 0xFFFFFFFFFFFFFFFFFFFFFFFFFFFFFFFFFFFFFFFF AND PUSH20 0xFFFFFFFFFFFFFFFFFFFFFFFFFFFFFFFFFFFFFFFF AND PUSH20 0xFFFFFFFFFFFFFFFFFFFFFFFFFFFFFFFFFFFFFFFF AND DUP2 MSTORE PUSH1 0x20 ADD SWAP1 DUP2 MSTORE PUSH1 0x20 ADD PUSH0 KECCAK256 PUSH2 0x5628 SWAP1 SWAP2 SWAP1 PUSH4 0xFFFFFFFF AND JUMP JUMPDEST PUSH0 DUP3 PUSH1 0x2 ADD PUSH0 PUSH2 0x100 EXP DUP2 SLOAD DUP2 PUSH20 0xFFFFFFFFFFFFFFFFFFFFFFFFFFFFFFFFFFFFFFFF MUL NOT AND SWAP1 DUP4 PUSH20 0xFFFFFFFFFFFFFFFFFFFFFFFFFFFFFFFFFFFFFFFF AND MUL OR SWAP1 SSTORE POP PUSH0 PUSH1 0xC PUSH0 CALLER PUSH20 0xFFFFFFFFFFFFFFFFFFFFFFFFFFFFFFFFFFFFFFFF AND PUSH20 0xFFFFFFFFFFFFFFFFFFFFFFFFFFFFFFFFFFFFFFFF AND DUP2 MSTORE PUSH1 0x20 ADD SWAP1 DUP2 MSTORE PUSH1 0x20 ADD PUSH0 KECCAK256 PUSH0 ADD SLOAD SWAP1 POP PUSH1 0x40 MLOAD DUP1 PUSH1 0x40 ADD PUSH1 0x40 MSTORE DUP1 DUP3 DUP5 PUSH2 0x2A65 SWAP2 SWAP1 PUSH2 0x7457 JUMP JUMPDEST DUP2 MSTORE PUSH1 0x20 ADD PUSH1 0x1A PUSH1 0xA SWAP1 SLOAD SWAP1 PUSH2 0x100 EXP SWAP1 DIV PUSH5 0xFFFFFFFFFF AND PUSH5 0xFFFFFFFFFF AND TIMESTAMP PUSH2 0x2A90 SWAP2 SWAP1 PUSH2 0x7457 JUMP JUMPDEST PUSH5 0xFFFFFFFFFF AND DUP2 MSTORE POP PUSH1 0xC PUSH0 CALLER PUSH20 0xFFFFFFFFFFFFFFFFFFFFFFFFFFFFFFFFFFFFFFFF AND PUSH20 0xFFFFFFFFFFFFFFFFFFFFFFFFFFFFFFFFFFFFFFFF AND DUP2 MSTORE PUSH1 0x20 ADD SWAP1 DUP2 MSTORE PUSH1 0x20 ADD PUSH0 KECCAK256 PUSH0 DUP3 ADD MLOAD DUP2 PUSH0 ADD SSTORE PUSH1 0x20 DUP3 ADD MLOAD DUP2 PUSH1 0x1 ADD PUSH0 PUSH2 0x100 EXP DUP2 SLOAD DUP2 PUSH5 0xFFFFFFFFFF MUL NOT AND SWAP1 DUP4 PUSH5 0xFFFFFFFFFF AND MUL OR SWAP1 SSTORE POP SWAP1 POP POP PUSH2 0x2B13 CALLER PUSH2 0x5863 JUMP JUMPDEST CALLER PUSH20 0xFFFFFFFFFFFFFFFFFFFFFFFFFFFFFFFFFFFFFFFF AND PUSH32 0x8F54596D72781F60DBF7DAD7E576F06CE17BBDA0BDF384463F7734F85F51498E PUSH1 0x40 MLOAD PUSH1 0x40 MLOAD DUP1 SWAP2 SUB SWAP1 LOG2 POP POP POP PUSH2 0x2B61 PUSH2 0x5950 JUMP JUMPDEST JUMP JUMPDEST PUSH0 PUSH2 0x2B6C PUSH2 0x516D JUMP JUMPDEST PUSH0 DUP1 PUSH1 0x1A PUSH1 0x14 SWAP1 SLOAD SWAP1 PUSH2 0x100 EXP SWAP1 DIV PUSH5 0xFFFFFFFFFF AND PUSH5 0xFFFFFFFFFF AND SWAP1 POP PUSH0 PUSH1 0x2 PUSH0 DUP7 PUSH20 0xFFFFFFFFFFFFFFFFFFFFFFFFFFFFFFFFFFFFFFFF AND PUSH20 0xFFFFFFFFFFFFFFFFFFFFFFFFFFFFFFFFFFFFFFFF AND DUP2 MSTORE PUSH1 0x20 ADD SWAP1 DUP2 MSTORE PUSH1 0x20 ADD PUSH0 KECCAK256 PUSH0 ADD SLOAD GT ISZERO DUP1 PUSH2 0x2C31 JUMPI POP PUSH1 0x2 PUSH0 DUP6 PUSH20 0xFFFFFFFFFFFFFFFFFFFFFFFFFFFFFFFFFFFFFFFF AND PUSH20 0xFFFFFFFFFFFFFFFFFFFFFFFFFFFFFFFFFFFFFFFF AND DUP2 MSTORE PUSH1 0x20 ADD SWAP1 DUP2 MSTORE PUSH1 0x20 ADD PUSH0 KECCAK256 PUSH1 0x2 ADD PUSH1 0x14 SWAP1 SLOAD SWAP1 PUSH2 0x100 EXP SWAP1 DIV PUSH5 0xFFFFFFFFFF AND PUSH5 0xFFFFFFFFFF AND DUP2 GT ISZERO JUMPDEST ISZERO PUSH2 0x2C3E JUMPI PUSH0 SWAP2 POP PUSH2 0x2DD3 JUMP JUMPDEST PUSH0 PUSH1 0x2 PUSH0 DUP7 PUSH20 0xFFFFFFFFFFFFFFFFFFFFFFFFFFFFFFFFFFFFFFFF AND PUSH20 0xFFFFFFFFFFFFFFFFFFFFFFFFFFFFFFFFFFFFFFFF AND DUP2 MSTORE PUSH1 0x20 ADD SWAP1 DUP2 MSTORE PUSH1 0x20 ADD PUSH0 KECCAK256 PUSH1 0x2 ADD PUSH1 0x14 SWAP1 SLOAD SWAP1 PUSH2 0x100 EXP SWAP1 DIV PUSH5 0xFFFFFFFFFF AND PUSH5 0xFFFFFFFFFF AND SWAP1 POP PUSH0 DUP1 PUSH0 JUMPDEST DUP5 DUP5 LT ISZERO PUSH2 0x2DCE JUMPI PUSH0 PUSH1 0x15 PUSH0 DUP7 DUP2 MSTORE PUSH1 0x20 ADD SWAP1 DUP2 MSTORE PUSH1 0x20 ADD PUSH0 KECCAK256 PUSH1 0x40 MLOAD DUP1 PUSH1 0x80 ADD PUSH1 0x40 MSTORE SWAP1 DUP2 PUSH0 DUP3 ADD SLOAD DUP2 MSTORE PUSH1 0x20 ADD PUSH1 0x1 DUP3 ADD SLOAD DUP2 MSTORE PUSH1 0x20 ADD PUSH1 0x2 DUP3 ADD SLOAD DUP2 MSTORE PUSH1 0x20 ADD PUSH1 0x3 DUP3 ADD SLOAD DUP2 MSTORE POP POP SWAP1 POP PUSH0 DUP2 PUSH1 0x40 ADD MLOAD SWAP1 POP DUP2 PUSH0 ADD MLOAD DUP3 PUSH1 0x20 ADD MLOAD DUP4 PUSH1 0x60 ADD MLOAD DUP1 SWAP6 POP DUP2 SWAP7 POP DUP3 SWAP8 POP POP POP POP PUSH0 DUP2 GT DUP1 ISZERO PUSH2 0x2D1C JUMPI POP PUSH0 DUP6 GT JUMPDEST ISZERO PUSH2 0x2D92 JUMPI DUP1 PUSH1 0x16 PUSH0 DUP13 PUSH20 0xFFFFFFFFFFFFFFFFFFFFFFFFFFFFFFFFFFFFFFFF AND PUSH20 0xFFFFFFFFFFFFFFFFFFFFFFFFFFFFFFFFFFFFFFFF AND DUP2 MSTORE PUSH1 0x20 ADD SWAP1 DUP2 MSTORE PUSH1 0x20 ADD PUSH0 KECCAK256 PUSH0 DUP9 DUP2 MSTORE PUSH1 0x20 ADD SWAP1 DUP2 MSTORE PUSH1 0x20 ADD PUSH0 KECCAK256 SLOAD DUP7 PUSH2 0x2D7A SWAP2 SWAP1 PUSH2 0x748A JUMP JUMPDEST PUSH2 0x2D84 SWAP2 SWAP1 PUSH2 0x74CB JUMP JUMPDEST DUP9 PUSH2 0x2D8F SWAP2 SWAP1 PUSH2 0x7457 JUMP JUMPDEST SWAP8 POP JUMPDEST PUSH0 DUP4 GT DUP1 ISZERO PUSH2 0x2DA0 JUMPI POP PUSH0 DUP5 GT JUMPDEST ISZERO PUSH2 0x2DBF JUMPI DUP3 DUP5 PUSH2 0x2DB1 SWAP2 SWAP1 PUSH2 0x74CB JUMP JUMPDEST DUP9 PUSH2 0x2DBC SWAP2 SWAP1 PUSH2 0x7457 JUMP JUMPDEST SWAP8 POP JUMPDEST POP POP DUP4 DUP1 PUSH1 0x1 ADD SWAP5 POP POP PUSH2 0x2C9E JUMP JUMPDEST POP POP POP POP JUMPDEST DUP2 SWAP3 POP POP POP SWAP2 SWAP1 POP JUMP JUMPDEST PUSH1 0x19 PUSH1 0x16 SWAP1 SLOAD SWAP1 PUSH2 0x100 EXP SWAP1 DIV PUSH5 0xFFFFFFFFFF AND DUP2 JUMP JUMPDEST PUSH1 0x10 SLOAD DUP2 JUMP JUMPDEST PUSH2 0x2E02 PUSH2 0x55D7 JUMP JUMPDEST PUSH2 0x2E0A PUSH2 0x516D JUMP JUMPDEST PUSH0 PUSH1 0x3 PUSH0 CALLER PUSH20 0xFFFFFFFFFFFFFFFFFFFFFFFFFFFFFFFFFFFFFFFF AND PUSH20 0xFFFFFFFFFFFFFFFFFFFFFFFFFFFFFFFFFFFFFFFF AND DUP2 MSTORE PUSH1 0x20 ADD SWAP1 DUP2 MSTORE PUSH1 0x20 ADD PUSH0 KECCAK256 SWAP1 POP PUSH0 DUP2 PUSH1 0x2 ADD PUSH1 0x1E SWAP1 SLOAD SWAP1 PUSH2 0x100 EXP SWAP1 DIV PUSH2 0xFFFF AND PUSH2 0xFFFF AND SUB PUSH2 0x2E99 JUMPI PUSH1 0x40 MLOAD PUSH32 0xABA4733900000000000000000000000000000000000000000000000000000000 DUP2 MSTORE PUSH1 0x4 ADD PUSH1 0x40 MLOAD DUP1 SWAP2 SUB SWAP1 REVERT JUMPDEST PUSH0 DUP2 PUSH1 0x2 ADD PUSH1 0x1E PUSH2 0x100 EXP DUP2 SLOAD DUP2 PUSH2 0xFFFF MUL NOT AND SWAP1 DUP4 PUSH2 0xFFFF AND MUL OR SWAP1 SSTORE POP PUSH0 DUP2 PUSH0 ADD SLOAD SWAP1 POP PUSH0 DUP3 PUSH0 ADD DUP2 SWAP1 SSTORE POP PUSH0 DUP3 PUSH1 0x1 ADD DUP2 SWAP1 SSTORE POP PUSH2 0x2EE4 CALLER PUSH1 0xA PUSH2 0x5628 SWAP1 SWAP2 SWAP1 PUSH4 0xFFFFFFFF AND JUMP JUMPDEST PUSH2 0x2F56 CALLER PUSH1 0x5 PUSH0 DUP6 PUSH1 0x2 ADD PUSH0 SWAP1 SLOAD SWAP1 PUSH2 0x100 EXP SWAP1 DIV PUSH20 0xFFFFFFFFFFFFFFFFFFFFFFFFFFFFFFFFFFFFFFFF AND PUSH20 0xFFFFFFFFFFFFFFFFFFFFFFFFFFFFFFFFFFFFFFFF AND PUSH20 0xFFFFFFFFFFFFFFFFFFFFFFFFFFFFFFFFFFFFFFFF AND DUP2 MSTORE PUSH1 0x20 ADD SWAP1 DUP2 MSTORE PUSH1 0x20 ADD PUSH0 KECCAK256 PUSH2 0x5628 SWAP1 SWAP2 SWAP1 PUSH4 0xFFFFFFFF AND JUMP JUMPDEST PUSH0 DUP3 PUSH1 0x2 ADD PUSH0 PUSH2 0x100 EXP DUP2 SLOAD DUP2 PUSH20 0xFFFFFFFFFFFFFFFFFFFFFFFFFFFFFFFFFFFFFFFF MUL NOT AND SWAP1 DUP4 PUSH20 0xFFFFFFFFFFFFFFFFFFFFFFFFFFFFFFFFFFFFFFFF AND MUL OR SWAP1 SSTORE POP PUSH0 PUSH1 0xD PUSH0 CALLER PUSH20 0xFFFFFFFFFFFFFFFFFFFFFFFFFFFFFFFFFFFFFFFF AND PUSH20 0xFFFFFFFFFFFFFFFFFFFFFFFFFFFFFFFFFFFFFFFF AND DUP2 MSTORE PUSH1 0x20 ADD SWAP1 DUP2 MSTORE PUSH1 0x20 ADD PUSH0 KECCAK256 PUSH0 ADD SLOAD SWAP1 POP PUSH1 0x40 MLOAD DUP1 PUSH1 0x40 ADD PUSH1 0x40 MSTORE DUP1 DUP3 DUP5 PUSH2 0x2FF2 SWAP2 SWAP1 PUSH2 0x7457 JUMP JUMPDEST DUP2 MSTORE PUSH1 0x20 ADD PUSH1 0x1A PUSH1 0xA SWAP1 SLOAD SWAP1 PUSH2 0x100 EXP SWAP1 DIV PUSH5 0xFFFFFFFFFF AND PUSH5 0xFFFFFFFFFF AND TIMESTAMP PUSH2 0x301D SWAP2 SWAP1 PUSH2 0x7457 JUMP JUMPDEST PUSH5 0xFFFFFFFFFF AND DUP2 MSTORE POP PUSH1 0xD PUSH0 CALLER PUSH20 0xFFFFFFFFFFFFFFFFFFFFFFFFFFFFFFFFFFFFFFFF AND PUSH20 0xFFFFFFFFFFFFFFFFFFFFFFFFFFFFFFFFFFFFFFFF AND DUP2 MSTORE PUSH1 0x20 ADD SWAP1 DUP2 MSTORE PUSH1 0x20 ADD PUSH0 KECCAK256 PUSH0 DUP3 ADD MLOAD DUP2 PUSH0 ADD SSTORE PUSH1 0x20 DUP3 ADD MLOAD DUP2 PUSH1 0x1 ADD PUSH0 PUSH2 0x100 EXP DUP2 SLOAD DUP2 PUSH5 0xFFFFFFFFFF MUL NOT AND SWAP1 DUP4 PUSH5 0xFFFFFFFFFF AND MUL OR SWAP1 SSTORE POP SWAP1 POP POP CALLER PUSH20 0xFFFFFFFFFFFFFFFFFFFFFFFFFFFFFFFFFFFFFFFF AND PUSH32 0x3B4CB6E47F5990BD17A69F36B4E7E5B9ECA32C5FBC0B09FFA37149FB77348816 PUSH1 0x40 MLOAD PUSH1 0x40 MLOAD DUP1 SWAP2 SUB SWAP1 LOG2 POP POP POP PUSH2 0x30E5 PUSH2 0x5950 JUMP JUMPDEST JUMP JUMPDEST PUSH1 0x14 PUSH1 0x20 MSTORE DUP2 PUSH0 MSTORE PUSH1 0x40 PUSH0 KECCAK256 PUSH1 0x20 MSTORE DUP1 PUSH0 MSTORE PUSH1 0x40 PUSH0 KECCAK256 PUSH0 SWAP2 POP SWAP2 POP SWAP1 SLOAD SWAP1 PUSH2 0x100 EXP SWAP1 DIV PUSH1 0xFF AND DUP2 JUMP JUMPDEST PUSH2 0x3119 PUSH2 0x50EF JUMP JUMPDEST PUSH2 0x3122 PUSH0 PUSH2 0x595B JUMP JUMPDEST JUMP JUMPDEST POP JUMP JUMPDEST PUSH2 0x312F PUSH2 0x516D JUMP JUMPDEST PUSH0 PUSH1 0xC PUSH0 CALLER PUSH20 0xFFFFFFFFFFFFFFFFFFFFFFFFFFFFFFFFFFFFFFFF AND PUSH20 0xFFFFFFFFFFFFFFFFFFFFFFFFFFFFFFFFFFFFFFFF AND DUP2 MSTORE PUSH1 0x20 ADD SWAP1 DUP2 MSTORE PUSH1 0x20 ADD PUSH0 KECCAK256 SWAP1 POP DUP1 PUSH1 0x1 ADD PUSH0 SWAP1 SLOAD SWAP1 PUSH2 0x100 EXP SWAP1 DIV PUSH5 0xFFFFFFFFFF AND PUSH5 0xFFFFFFFFFF AND TIMESTAMP LT ISZERO PUSH2 0x31C4 JUMPI PUSH1 0x40 MLOAD PUSH32 0xB3C383A100000000000000000000000000000000000000000000000000000000 DUP2 MSTORE PUSH1 0x4 ADD PUSH1 0x40 MLOAD DUP1 SWAP2 SUB SWAP1 REVERT JUMPDEST PUSH0 DUP2 PUSH0 ADD SLOAD SWAP1 POP PUSH0 DUP2 SUB PUSH2 0x3204 JUMPI PUSH1 0x40 MLOAD PUSH32 0x15DA940F00000000000000000000000000000000000000000000000000000000 DUP2 MSTORE PUSH1 0x4 ADD PUSH1 0x40 MLOAD DUP1 SWAP2 SUB SWAP1 REVERT JUMPDEST PUSH0 DUP3 PUSH0 ADD DUP2 SWAP1 SSTORE POP PUSH2 0x3216 CALLER DUP3 PUSH2 0x5533 JUMP JUMPDEST CALLER PUSH20 0xFFFFFFFFFFFFFFFFFFFFFFFFFFFFFFFFFFFFFFFF AND PUSH32 0x1051154647682075E7CC0645853209E75208CB5ACD862FC83F7FD0FCAA9624B4 DUP3 PUSH1 0x40 MLOAD PUSH2 0x325C SWAP2 SWAP1 PUSH2 0x669E JUMP JUMPDEST PUSH1 0x40 MLOAD DUP1 SWAP2 SUB SWAP1 LOG2 POP POP JUMP JUMPDEST PUSH1 0x1A PUSH1 0x14 SWAP1 SLOAD SWAP1 PUSH2 0x100 EXP SWAP1 DIV PUSH5 0xFFFFFFFFFF AND DUP2 JUMP JUMPDEST PUSH1 0x1C SLOAD DUP2 JUMP JUMPDEST PUSH1 0x1E SLOAD DUP2 JUMP JUMPDEST PUSH2 0x3293 PUSH2 0x50EF JUMP JUMPDEST PUSH2 0x329B PUSH2 0x52BA JUMP JUMPDEST PUSH2 0x32A3 PUSH2 0x5A1E JUMP JUMPDEST JUMP JUMPDEST PUSH0 PUSH1 0xB6 PUSH0 SWAP1 SLOAD SWAP1 PUSH2 0x100 EXP SWAP1 DIV PUSH20 0xFFFFFFFFFFFFFFFFFFFFFFFFFFFFFFFFFFFFFFFF AND SWAP1 POP SWAP1 JUMP JUMPDEST PUSH1 0x1D SLOAD DUP2 JUMP JUMPDEST PUSH2 0x32DB PUSH2 0x50EF JUMP JUMPDEST PUSH2 0x32E3 PUSH2 0x516D JUMP JUMPDEST PUSH32 0x140D5DF2DE20371811806C8962C8CEEBE74AA09CC166E0D64BED23A5FA261983 PUSH1 0x1E SLOAD DUP3 PUSH1 0x40 MLOAD PUSH2 0x3316 SWAP3 SWAP2 SWAP1 PUSH2 0x719F JUMP JUMPDEST PUSH1 0x40 MLOAD DUP1 SWAP2 SUB SWAP1 LOG1 DUP1 PUSH1 0x1D DUP2 SWAP1 SSTORE POP POP JUMP JUMPDEST PUSH1 0x60 PUSH1 0x6 PUSH0 ADD DUP1 SLOAD DUP1 PUSH1 0x20 MUL PUSH1 0x20 ADD PUSH1 0x40 MLOAD SWAP1 DUP2 ADD PUSH1 0x40 MSTORE DUP1 SWAP3 SWAP2 SWAP1 DUP2 DUP2 MSTORE PUSH1 0x20 ADD DUP3 DUP1 SLOAD DUP1 ISZERO PUSH2 0x33AB JUMPI PUSH1 0x20 MUL DUP3 ADD SWAP2 SWAP1 PUSH0 MSTORE PUSH1 0x20 PUSH0 KECCAK256 SWAP1 JUMPDEST DUP2 PUSH0 SWAP1 SLOAD SWAP1 PUSH2 0x100 EXP SWAP1 DIV PUSH20 0xFFFFFFFFFFFFFFFFFFFFFFFFFFFFFFFFFFFFFFFF AND PUSH20 0xFFFFFFFFFFFFFFFFFFFFFFFFFFFFFFFFFFFFFFFF AND DUP2 MSTORE PUSH1 0x20 ADD SWAP1 PUSH1 0x1 ADD SWAP1 DUP1 DUP4 GT PUSH2 0x3362 JUMPI JUMPDEST POP POP POP POP POP SWAP1 POP SWAP1 JUMP JUMPDEST PUSH2 0x33BD PUSH2 0x52BA JUMP JUMPDEST PUSH2 0x33C5 PUSH2 0x516D JUMP JUMPDEST PUSH0 PUSH1 0x2 PUSH0 CALLER PUSH20 0xFFFFFFFFFFFFFFFFFFFFFFFFFFFFFFFFFFFFFFFF AND PUSH20 0xFFFFFFFFFFFFFFFFFFFFFFFFFFFFFFFFFFFFFFFF AND DUP2 MSTORE PUSH1 0x20 ADD SWAP1 DUP2 MSTORE PUSH1 0x20 ADD PUSH0 KECCAK256 SWAP1 POP PUSH0 DUP2 PUSH1 0x2 ADD PUSH1 0x1E SWAP1 SLOAD SWAP1 PUSH2 0x100 EXP SWAP1 DIV PUSH2 0xFFFF AND PUSH2 0xFFFF AND SUB PUSH2 0x3454 JUMPI PUSH1 0x40 MLOAD PUSH32 0xABA4733900000000000000000000000000000000000000000000000000000000 DUP2 MSTORE PUSH1 0x4 ADD PUSH1 0x40 MLOAD DUP1 SWAP2 SUB SWAP1 REVERT JUMPDEST CALLVALUE DUP2 PUSH0 ADD PUSH0 DUP3 DUP3 SLOAD PUSH2 0x3466 SWAP2 SWAP1 PUSH2 0x7457 JUMP JUMPDEST SWAP3 POP POP DUP2 SWAP1 SSTORE POP CALLER PUSH20 0xFFFFFFFFFFFFFFFFFFFFFFFFFFFFFFFFFFFFFFFF AND PUSH32 0x3D236E8F743E932A32C84D3114CE3E7EE0B75225CB3B39F72FAAC62495FD21C1 CALLVALUE PUSH1 0x40 MLOAD PUSH2 0x34B3 SWAP2 SWAP1 PUSH2 0x669E JUMP JUMPDEST PUSH1 0x40 MLOAD DUP1 SWAP2 SUB SWAP1 LOG2 POP JUMP JUMPDEST PUSH1 0x19 PUSH1 0x14 SWAP1 SLOAD SWAP1 PUSH2 0x100 EXP SWAP1 DIV PUSH2 0xFFFF AND DUP2 JUMP JUMPDEST PUSH1 0x60 PUSH0 DUP4 DUP4 SWAP1 POP SWAP1 POP PUSH0 DUP2 PUSH8 0xFFFFFFFFFFFFFFFF DUP2 GT ISZERO PUSH2 0x34F6 JUMPI PUSH2 0x34F5 PUSH2 0x71DF JUMP JUMPDEST JUMPDEST PUSH1 0x40 MLOAD SWAP1 DUP1 DUP3 MSTORE DUP1 PUSH1 0x20 MUL PUSH1 0x20 ADD DUP3 ADD PUSH1 0x40 MSTORE DUP1 ISZERO PUSH2 0x352F JUMPI DUP2 PUSH1 0x20 ADD JUMPDEST PUSH2 0x351C PUSH2 0x622D JUMP JUMPDEST DUP2 MSTORE PUSH1 0x20 ADD SWAP1 PUSH1 0x1 SWAP1 SUB SWAP1 DUP2 PUSH2 0x3514 JUMPI SWAP1 POP JUMPDEST POP SWAP1 POP PUSH0 JUMPDEST DUP3 DUP2 LT ISZERO PUSH2 0x3881 JUMPI PUSH0 PUSH1 0xF PUSH0 DUP9 DUP9 DUP6 DUP2 DUP2 LT PUSH2 0x3553 JUMPI PUSH2 0x3552 PUSH2 0x720C JUMP JUMPDEST JUMPDEST SWAP1 POP PUSH1 0x20 MUL ADD CALLDATALOAD DUP2 MSTORE PUSH1 0x20 ADD SWAP1 DUP2 MSTORE PUSH1 0x20 ADD PUSH0 KECCAK256 SWAP1 POP PUSH1 0x40 MLOAD DUP1 PUSH2 0x120 ADD PUSH1 0x40 MSTORE DUP1 DUP9 DUP9 DUP6 DUP2 DUP2 LT PUSH2 0x3588 JUMPI PUSH2 0x3587 PUSH2 0x720C JUMP JUMPDEST JUMPDEST SWAP1 POP PUSH1 0x20 MUL ADD CALLDATALOAD DUP2 MSTORE PUSH1 0x20 ADD DUP3 PUSH1 0x1 ADD DUP1 SLOAD PUSH2 0x35A3 SWAP1 PUSH2 0x73FF JUMP JUMPDEST DUP1 PUSH1 0x1F ADD PUSH1 0x20 DUP1 SWAP2 DIV MUL PUSH1 0x20 ADD PUSH1 0x40 MLOAD SWAP1 DUP2 ADD PUSH1 0x40 MSTORE DUP1 SWAP3 SWAP2 SWAP1 DUP2 DUP2 MSTORE PUSH1 0x20 ADD DUP3 DUP1 SLOAD PUSH2 0x35CF SWAP1 PUSH2 0x73FF JUMP JUMPDEST DUP1 ISZERO PUSH2 0x361A JUMPI DUP1 PUSH1 0x1F LT PUSH2 0x35F1 JUMPI PUSH2 0x100 DUP1 DUP4 SLOAD DIV MUL DUP4 MSTORE SWAP2 PUSH1 0x20 ADD SWAP2 PUSH2 0x361A JUMP JUMPDEST DUP3 ADD SWAP2 SWAP1 PUSH0 MSTORE PUSH1 0x20 PUSH0 KECCAK256 SWAP1 JUMPDEST DUP2 SLOAD DUP2 MSTORE SWAP1 PUSH1 0x1 ADD SWAP1 PUSH1 0x20 ADD DUP1 DUP4 GT PUSH2 0x35FD JUMPI DUP3 SWAP1 SUB PUSH1 0x1F AND DUP3 ADD SWAP2 JUMPDEST POP POP POP POP POP DUP2 MSTORE PUSH1 0x20 ADD PUSH1 0x3 PUSH1 0x4 DUP2 GT ISZERO PUSH2 0x3638 JUMPI PUSH2 0x3637 PUSH2 0x6D36 JUMP JUMPDEST JUMPDEST DUP4 PUSH1 0x4 ADD PUSH1 0x1A SWAP1 SLOAD SWAP1 PUSH2 0x100 EXP SWAP1 DIV PUSH1 0xFF AND PUSH1 0x4 DUP2 GT ISZERO PUSH2 0x365C JUMPI PUSH2 0x365B PUSH2 0x6D36 JUMP JUMPDEST JUMPDEST EQ PUSH2 0x3675 JUMPI PUSH1 0x40 MLOAD DUP1 PUSH1 0x20 ADD PUSH1 0x40 MSTORE DUP1 PUSH0 DUP2 MSTORE POP PUSH2 0x3742 JUMP JUMPDEST PUSH1 0x11 PUSH0 DUP5 PUSH0 ADD DUP6 PUSH1 0x4 ADD PUSH1 0x19 SWAP1 SLOAD SWAP1 PUSH2 0x100 EXP SWAP1 DIV PUSH1 0xFF AND PUSH1 0xFF AND DUP2 SLOAD DUP2 LT PUSH2 0x36A1 JUMPI PUSH2 0x36A0 PUSH2 0x720C JUMP JUMPDEST JUMPDEST SWAP1 PUSH0 MSTORE PUSH1 0x20 PUSH0 KECCAK256 ADD SLOAD DUP2 MSTORE PUSH1 0x20 ADD SWAP1 DUP2 MSTORE PUSH1 0x20 ADD PUSH0 KECCAK256 PUSH1 0x1 ADD DUP1 SLOAD PUSH2 0x36C5 SWAP1 PUSH2 0x73FF JUMP JUMPDEST DUP1 PUSH1 0x1F ADD PUSH1 0x20 DUP1 SWAP2 DIV MUL PUSH1 0x20 ADD PUSH1 0x40 MLOAD SWAP1 DUP2 ADD PUSH1 0x40 MSTORE DUP1 SWAP3 SWAP2 SWAP1 DUP2 DUP2 MSTORE PUSH1 0x20 ADD DUP3 DUP1 SLOAD PUSH2 0x36F1 SWAP1 PUSH2 0x73FF JUMP JUMPDEST DUP1 ISZERO PUSH2 0x373C JUMPI DUP1 PUSH1 0x1F LT PUSH2 0x3713 JUMPI PUSH2 0x100 DUP1 DUP4 SLOAD DIV MUL DUP4 MSTORE SWAP2 PUSH1 0x20 ADD SWAP2 PUSH2 0x373C JUMP JUMPDEST DUP3 ADD SWAP2 SWAP1 PUSH0 MSTORE PUSH1 0x20 PUSH0 KECCAK256 SWAP1 JUMPDEST DUP2 SLOAD DUP2 MSTORE SWAP1 PUSH1 0x1 ADD SWAP1 PUSH1 0x20 ADD DUP1 DUP4 GT PUSH2 0x371F JUMPI DUP3 SWAP1 SUB PUSH1 0x1F AND DUP3 ADD SWAP2 JUMPDEST POP POP POP POP POP JUMPDEST DUP2 MSTORE PUSH1 0x20 ADD DUP3 PUSH1 0x2 ADD SLOAD DUP2 MSTORE PUSH1 0x20 ADD DUP3 PUSH1 0x3 ADD PUSH0 SWAP1 SLOAD SWAP1 PUSH2 0x100 EXP SWAP1 DIV PUSH20 0xFFFFFFFFFFFFFFFFFFFFFFFFFFFFFFFFFFFFFFFF AND PUSH20 0xFFFFFFFFFFFFFFFFFFFFFFFFFFFFFFFFFFFFFFFF AND DUP2 MSTORE PUSH1 0x20 ADD DUP3 PUSH1 0x4 ADD PUSH0 SWAP1 SLOAD SWAP1 PUSH2 0x100 EXP SWAP1 DIV PUSH20 0xFFFFFFFFFFFFFFFFFFFFFFFFFFFFFFFFFFFFFFFF AND PUSH20 0xFFFFFFFFFFFFFFFFFFFFFFFFFFFFFFFFFFFFFFFF AND DUP2 MSTORE PUSH1 0x20 ADD DUP3 PUSH1 0x4 ADD PUSH1 0x14 SWAP1 SLOAD SWAP1 PUSH2 0x100 EXP SWAP1 DIV PUSH5 0xFFFFFFFFFF AND PUSH5 0xFFFFFFFFFF AND DUP2 MSTORE PUSH1 0x20 ADD DUP3 PUSH1 0x4 ADD PUSH1 0x1A SWAP1 SLOAD SWAP1 PUSH2 0x100 EXP SWAP1 DIV PUSH1 0xFF AND PUSH1 0x4 DUP2 GT ISZERO PUSH2 0x3815 JUMPI PUSH2 0x3814 PUSH2 0x6D36 JUMP JUMPDEST JUMPDEST DUP2 MSTORE PUSH1 0x20 ADD DUP3 PUSH1 0x5 ADD PUSH0 SWAP1 SLOAD SWAP1 PUSH2 0x100 EXP SWAP1 DIV PUSH20 0xFFFFFFFFFFFFFFFFFFFFFFFFFFFFFFFFFFFFFFFF AND PUSH20 0xFFFFFFFFFFFFFFFFFFFFFFFFFFFFFFFFFFFFFFFF AND DUP2 MSTORE POP DUP4 DUP4 DUP2 MLOAD DUP2 LT PUSH2 0x386A JUMPI PUSH2 0x3869 PUSH2 0x720C JUMP JUMPDEST JUMPDEST PUSH1 0x20 MUL PUSH1 0x20 ADD ADD DUP2 SWAP1 MSTORE POP POP DUP1 PUSH1 0x1 ADD SWAP1 POP PUSH2 0x3534 JUMP JUMPDEST POP DUP1 SWAP3 POP POP POP SWAP3 SWAP2 POP POP JUMP JUMPDEST PUSH2 0x3895 PUSH2 0x50EF JUMP JUMPDEST PUSH2 0x389D PUSH2 0x516D JUMP JUMPDEST PUSH0 DUP3 PUSH2 0xFFFF AND SUB PUSH2 0x38DA JUMPI PUSH1 0x40 MLOAD PUSH32 0xE142361700000000000000000000000000000000000000000000000000000000 DUP2 MSTORE PUSH1 0x4 ADD PUSH1 0x40 MLOAD DUP1 SWAP2 SUB SWAP1 REVERT JUMPDEST PUSH0 PUSH1 0x1 PUSH0 DUP6 PUSH20 0xFFFFFFFFFFFFFFFFFFFFFFFFFFFFFFFFFFFFFFFF AND PUSH20 0xFFFFFFFFFFFFFFFFFFFFFFFFFFFFFFFFFFFFFFFF AND DUP2 MSTORE PUSH1 0x20 ADD SWAP1 DUP2 MSTORE PUSH1 0x20 ADD PUSH0 KECCAK256 SWAP1 POP PUSH0 DUP2 PUSH1 0x1 ADD PUSH0 SWAP1 SLOAD SWAP1 PUSH2 0x100 EXP SWAP1 DIV PUSH4 0xFFFFFFFF AND PUSH4 0xFFFFFFFF AND EQ PUSH2 0x396C JUMPI PUSH1 0x40 MLOAD PUSH32 0x3A81D6FC00000000000000000000000000000000000000000000000000000000 DUP2 MSTORE PUSH1 0x4 ADD PUSH1 0x40 MLOAD DUP1 SWAP2 SUB SWAP1 REVERT JUMPDEST DUP2 DUP2 PUSH0 ADD DUP2 SWAP1 SSTORE POP DUP3 PUSH2 0xFFFF AND DUP2 PUSH1 0x1 ADD PUSH0 PUSH2 0x100 EXP DUP2 SLOAD DUP2 PUSH4 0xFFFFFFFF MUL NOT AND SWAP1 DUP4 PUSH4 0xFFFFFFFF AND MUL OR SWAP1 SSTORE POP PUSH2 0x39AE DUP5 PUSH1 0x6 PUSH2 0x5304 SWAP1 SWAP2 SWAP1 PUSH4 0xFFFFFFFF AND JUMP JUMPDEST DUP3 PUSH2 0xFFFF AND DUP5 PUSH20 0xFFFFFFFFFFFFFFFFFFFFFFFFFFFFFFFFFFFFFFFF AND PUSH32 0x7041913A4CB21C28C931DA9D9E4B5ED0AD84E47FCF2A65527F03C438D534ED5C DUP5 PUSH1 0x40 MLOAD PUSH2 0x39F9 SWAP2 SWAP1 PUSH2 0x669E JUMP JUMPDEST PUSH1 0x40 MLOAD DUP1 SWAP2 SUB SWAP1 LOG3 POP POP POP POP JUMP JUMPDEST PUSH2 0x3A0F PUSH2 0x50EF JUMP JUMPDEST PUSH2 0x3A17 PUSH2 0x516D JUMP JUMPDEST PUSH0 PUSH1 0x1 PUSH0 DUP5 PUSH20 0xFFFFFFFFFFFFFFFFFFFFFFFFFFFFFFFFFFFFFFFF AND PUSH20 0xFFFFFFFFFFFFFFFFFFFFFFFFFFFFFFFFFFFFFFFF AND DUP2 MSTORE PUSH1 0x20 ADD SWAP1 DUP2 MSTORE PUSH1 0x20 ADD PUSH0 KECCAK256 SWAP1 POP PUSH0 DUP2 PUSH1 0x1 ADD PUSH0 SWAP1 SLOAD SWAP1 PUSH2 0x100 EXP SWAP1 DIV PUSH4 0xFFFFFFFF AND PUSH4 0xFFFFFFFF AND SUB PUSH2 0x3AA9 JUMPI PUSH1 0x40 MLOAD PUSH32 0x13AA293E00000000000000000000000000000000000000000000000000000000 DUP2 MSTORE PUSH1 0x4 ADD PUSH1 0x40 MLOAD DUP1 SWAP2 SUB SWAP1 REVERT JUMPDEST DUP2 DUP2 PUSH0 ADD DUP2 SWAP1 SSTORE POP DUP3 PUSH20 0xFFFFFFFFFFFFFFFFFFFFFFFFFFFFFFFFFFFFFFFF AND PUSH32 0x923B5FE9C9974B3C93E434AE744FAAA60EC86513C02614DA5C8D9C51EDA2BDD7 DUP4 PUSH1 0x40 MLOAD PUSH2 0x3AF7 SWAP2 SWAP1 PUSH2 0x669E JUMP JUMPDEST PUSH1 0x40 MLOAD DUP1 SWAP2 SUB SWAP1 LOG2 POP POP POP JUMP JUMPDEST PUSH1 0x60 PUSH0 PUSH1 0xA PUSH0 ADD DUP1 SLOAD DUP1 PUSH1 0x20 MUL PUSH1 0x20 ADD PUSH1 0x40 MLOAD SWAP1 DUP2 ADD PUSH1 0x40 MSTORE DUP1 SWAP3 SWAP2 SWAP1 DUP2 DUP2 MSTORE PUSH1 0x20 ADD DUP3 DUP1 SLOAD DUP1 ISZERO PUSH2 0x3B88 JUMPI PUSH1 0x20 MUL DUP3 ADD SWAP2 SWAP1 PUSH0 MSTORE PUSH1 0x20 PUSH0 KECCAK256 SWAP1 JUMPDEST DUP2 PUSH0 SWAP1 SLOAD SWAP1 PUSH2 0x100 EXP SWAP1 DIV PUSH20 0xFFFFFFFFFFFFFFFFFFFFFFFFFFFFFFFFFFFFFFFF AND PUSH20 0xFFFFFFFFFFFFFFFFFFFFFFFFFFFFFFFFFFFFFFFF AND DUP2 MSTORE PUSH1 0x20 ADD SWAP1 PUSH1 0x1 ADD SWAP1 DUP1 DUP4 GT PUSH2 0x3B3F JUMPI JUMPDEST POP POP POP POP POP SWAP1 POP PUSH0 DUP2 MLOAD SWAP1 POP PUSH0 DUP2 PUSH8 0xFFFFFFFFFFFFFFFF DUP2 GT ISZERO PUSH2 0x3BAF JUMPI PUSH2 0x3BAE PUSH2 0x71DF JUMP JUMPDEST JUMPDEST PUSH1 0x40 MLOAD SWAP1 DUP1 DUP3 MSTORE DUP1 PUSH1 0x20 MUL PUSH1 0x20 ADD DUP3 ADD PUSH1 0x40 MSTORE DUP1 ISZERO PUSH2 0x3BE8 JUMPI DUP2 PUSH1 0x20 ADD JUMPDEST PUSH2 0x3BD5 PUSH2 0x614F JUMP JUMPDEST DUP2 MSTORE PUSH1 0x20 ADD SWAP1 PUSH1 0x1 SWAP1 SUB SWAP1 DUP2 PUSH2 0x3BCD JUMPI SWAP1 POP JUMPDEST POP SWAP1 POP PUSH0 JUMPDEST DUP3 DUP2 LT ISZERO PUSH2 0x3E00 JUMPI PUSH0 PUSH1 0x3 PUSH0 DUP7 DUP5 DUP2 MLOAD DUP2 LT PUSH2 0x3C0C JUMPI PUSH2 0x3C0B PUSH2 0x720C JUMP JUMPDEST JUMPDEST PUSH1 0x20 MUL PUSH1 0x20 ADD ADD MLOAD PUSH20 0xFFFFFFFFFFFFFFFFFFFFFFFFFFFFFFFFFFFFFFFF AND PUSH20 0xFFFFFFFFFFFFFFFFFFFFFFFFFFFFFFFFFFFFFFFF AND DUP2 MSTORE PUSH1 0x20 ADD SWAP1 DUP2 MSTORE PUSH1 0x20 ADD PUSH0 KECCAK256 PUSH1 0x40 MLOAD DUP1 PUSH1 0xC0 ADD PUSH1 0x40 MSTORE SWAP1 DUP2 PUSH0 DUP3 ADD SLOAD DUP2 MSTORE PUSH1 0x20 ADD PUSH1 0x1 DUP3 ADD SLOAD DUP2 MSTORE PUSH1 0x20 ADD PUSH1 0x2 DUP3 ADD PUSH0 SWAP1 SLOAD SWAP1 PUSH2 0x100 EXP SWAP1 DIV PUSH20 0xFFFFFFFFFFFFFFFFFFFFFFFFFFFFFFFFFFFFFFFF AND PUSH20 0xFFFFFFFFFFFFFFFFFFFFFFFFFFFFFFFFFFFFFFFF AND PUSH20 0xFFFFFFFFFFFFFFFFFFFFFFFFFFFFFFFFFFFFFFFF AND DUP2 MSTORE PUSH1 0x20 ADD PUSH1 0x2 DUP3 ADD PUSH1 0x14 SWAP1 SLOAD SWAP1 PUSH2 0x100 EXP SWAP1 DIV PUSH5 0xFFFFFFFFFF AND PUSH5 0xFFFFFFFFFF AND PUSH5 0xFFFFFFFFFF AND DUP2 MSTORE PUSH1 0x20 ADD PUSH1 0x2 DUP3 ADD PUSH1 0x19 SWAP1 SLOAD SWAP1 PUSH2 0x100 EXP SWAP1 DIV PUSH5 0xFFFFFFFFFF AND PUSH5 0xFFFFFFFFFF AND PUSH5 0xFFFFFFFFFF AND DUP2 MSTORE PUSH1 0x20 ADD PUSH1 0x2 DUP3 ADD PUSH1 0x1E SWAP1 SLOAD SWAP1 PUSH2 0x100 EXP SWAP1 DIV PUSH2 0xFFFF AND PUSH2 0xFFFF AND PUSH2 0xFFFF AND DUP2 MSTORE POP POP SWAP1 POP PUSH1 0x40 MLOAD DUP1 PUSH1 0xE0 ADD PUSH1 0x40 MSTORE DUP1 DUP7 DUP5 DUP2 MLOAD DUP2 LT PUSH2 0x3D52 JUMPI PUSH2 0x3D51 PUSH2 0x720C JUMP JUMPDEST JUMPDEST PUSH1 0x20 MUL PUSH1 0x20 ADD ADD MLOAD PUSH20 0xFFFFFFFFFFFFFFFFFFFFFFFFFFFFFFFFFFFFFFFF AND DUP2 MSTORE PUSH1 0x20 ADD DUP3 PUSH0 ADD MLOAD DUP2 MSTORE PUSH1 0x20 ADD DUP3 PUSH1 0x20 ADD MLOAD DUP2 MSTORE PUSH1 0x20 ADD DUP3 PUSH1 0x40 ADD MLOAD PUSH20 0xFFFFFFFFFFFFFFFFFFFFFFFFFFFFFFFFFFFFFFFF AND DUP2 MSTORE PUSH1 0x20 ADD DUP3 PUSH1 0x60 ADD MLOAD PUSH5 0xFFFFFFFFFF AND DUP2 MSTORE PUSH1 0x20 ADD DUP3 PUSH1 0x80 ADD MLOAD PUSH5 0xFFFFFFFFFF AND DUP2 MSTORE PUSH1 0x20 ADD DUP3 PUSH1 0xA0 ADD MLOAD PUSH2 0xFFFF AND DUP2 MSTORE POP DUP4 DUP4 DUP2 MLOAD DUP2 LT PUSH2 0x3DE9 JUMPI PUSH2 0x3DE8 PUSH2 0x720C JUMP JUMPDEST JUMPDEST PUSH1 0x20 MUL PUSH1 0x20 ADD ADD DUP2 SWAP1 MSTORE POP POP DUP1 PUSH1 0x1 ADD SWAP1 POP PUSH2 0x3BED JUMP JUMPDEST POP DUP1 SWAP4 POP POP POP POP SWAP1 JUMP JUMPDEST PUSH2 0x3E12 PUSH2 0x55D7 JUMP JUMPDEST PUSH2 0x3E1B DUP2 PUSH2 0x5863 JUMP JUMPDEST PUSH2 0x3E23 PUSH2 0x5950 JUMP JUMPDEST POP JUMP JUMPDEST PUSH1 0x1A PUSH0 SWAP1 SLOAD SWAP1 PUSH2 0x100 EXP SWAP1 DIV PUSH5 0xFFFFFFFFFF AND DUP2 JUMP JUMPDEST PUSH0 PUSH2 0x3E45 PUSH2 0x52BA JUMP JUMPDEST PUSH0 PUSH1 0x1 PUSH0 CALLER PUSH20 0xFFFFFFFFFFFFFFFFFFFFFFFFFFFFFFFFFFFFFFFF AND PUSH20 0xFFFFFFFFFFFFFFFFFFFFFFFFFFFFFFFFFFFFFFFF AND DUP2 MSTORE PUSH1 0x20 ADD SWAP1 DUP2 MSTORE PUSH1 0x20 ADD PUSH0 KECCAK256 SWAP1 POP PUSH0 DUP2 PUSH1 0x1 ADD PUSH0 SWAP1 SLOAD SWAP1 PUSH2 0x100 EXP SWAP1 DIV PUSH4 0xFFFFFFFF AND PUSH4 0xFFFFFFFF AND SUB PUSH2 0x3ED7 JUMPI PUSH1 0x40 MLOAD PUSH32 0x82B4290000000000000000000000000000000000000000000000000000000000 DUP2 MSTORE PUSH1 0x4 ADD PUSH1 0x40 MLOAD DUP1 SWAP2 SUB SWAP1 REVERT JUMPDEST DUP1 PUSH0 ADD SLOAD CALLVALUE LT ISZERO PUSH2 0x3F14 JUMPI PUSH1 0x40 MLOAD PUSH32 0x732F941300000000000000000000000000000000000000000000000000000000 DUP2 MSTORE PUSH1 0x4 ADD PUSH1 0x40 MLOAD DUP1 SWAP2 SUB SWAP1 REVERT JUMPDEST PUSH0 PUSH1 0xE PUSH0 DUP2 SLOAD PUSH2 0x3F23 SWAP1 PUSH2 0x738B JUMP JUMPDEST SWAP2 SWAP1 POP DUP2 SWAP1 SSTORE SWAP1 POP PUSH0 PUSH1 0xF PUSH0 DUP4 DUP2 MSTORE PUSH1 0x20 ADD SWAP1 DUP2 MSTORE PUSH1 0x20 ADD PUSH0 KECCAK256 SWAP1 POP PUSH0 CALLVALUE SWAP1 POP DUP8 DUP8 DUP4 PUSH1 0x1 ADD SWAP2 DUP3 PUSH2 0x3F56 SWAP3 SWAP2 SWAP1 PUSH2 0x7699 JUMP JUMPDEST POP DUP1 DUP3 PUSH1 0x2 ADD DUP2 SWAP1 SSTORE POP DUP6 DUP3 PUSH1 0x5 ADD PUSH0 PUSH2 0x100 EXP DUP2 SLOAD DUP2 PUSH20 0xFFFFFFFFFFFFFFFFFFFFFFFFFFFFFFFFFFFFFFFF MUL NOT AND SWAP1 DUP4 PUSH20 0xFFFFFFFFFFFFFFFFFFFFFFFFFFFFFFFFFFFFFFFF AND MUL OR SWAP1 SSTORE POP CALLER DUP3 PUSH1 0x4 ADD PUSH0 PUSH2 0x100 EXP DUP2 SLOAD DUP2 PUSH20 0xFFFFFFFFFFFFFFFFFFFFFFFFFFFFFFFFFFFFFFFF MUL NOT AND SWAP1 DUP4 PUSH20 0xFFFFFFFFFFFFFFFFFFFFFFFFFFFFFFFFFFFFFFFF AND MUL OR SWAP1 SSTORE POP DUP6 PUSH20 0xFFFFFFFFFFFFFFFFFFFFFFFFFFFFFFFFFFFFFFFF AND DUP4 PUSH32 0x38DDD254E73473217830B34F391798374EE63B7335FBC718901F8C47AC16932B DUP4 PUSH1 0x40 MLOAD PUSH2 0x402B SWAP2 SWAP1 PUSH2 0x669E JUMP JUMPDEST PUSH1 0x40 MLOAD DUP1 SWAP2 SUB SWAP1 LOG3 PUSH2 0x403C DUP4 PUSH2 0x5A80 JUMP JUMPDEST DUP3 SWAP5 POP POP POP POP POP SWAP4 SWAP3 POP POP POP JUMP JUMPDEST PUSH2 0x4052 PUSH2 0x50EF JUMP JUMPDEST PUSH2 0x405A PUSH2 0x516D JUMP JUMPDEST PUSH0 PUSH1 0x1 PUSH0 DUP4 PUSH20 0xFFFFFFFFFFFFFFFFFFFFFFFFFFFFFFFFFFFFFFFF AND PUSH20 0xFFFFFFFFFFFFFFFFFFFFFFFFFFFFFFFFFFFFFFFF AND DUP2 MSTORE PUSH1 0x20 ADD SWAP1 DUP2 MSTORE PUSH1 0x20 ADD PUSH0 KECCAK256 SWAP1 POP PUSH0 DUP2 PUSH1 0x1 ADD PUSH0 SWAP1 SLOAD SWAP1 PUSH2 0x100 EXP SWAP1 DIV PUSH4 0xFFFFFFFF AND PUSH4 0xFFFFFFFF AND SUB PUSH2 0x40EC JUMPI PUSH1 0x40 MLOAD PUSH32 0xABA4733900000000000000000000000000000000000000000000000000000000 DUP2 MSTORE PUSH1 0x4 ADD PUSH1 0x40 MLOAD DUP1 SWAP2 SUB SWAP1 REVERT JUMPDEST PUSH0 DUP2 PUSH1 0x1 ADD PUSH0 PUSH2 0x100 EXP DUP2 SLOAD DUP2 PUSH4 0xFFFFFFFF MUL NOT AND SWAP1 DUP4 PUSH4 0xFFFFFFFF AND MUL OR SWAP1 SSTORE POP PUSH2 0x4122 DUP3 PUSH1 0x6 PUSH2 0x5628 SWAP1 SWAP2 SWAP1 PUSH4 0xFFFFFFFF AND JUMP JUMPDEST DUP2 PUSH20 0xFFFFFFFFFFFFFFFFFFFFFFFFFFFFFFFFFFFFFFFF AND PUSH32 0x68180F49300B9177AB3B88D3F909A002ABEB9C2F769543A93234CA68333582D7 PUSH1 0x40 MLOAD PUSH1 0x40 MLOAD DUP1 SWAP2 SUB SWAP1 LOG2 POP POP JUMP JUMPDEST PUSH1 0x1A PUSH1 0xF SWAP1 SLOAD SWAP1 PUSH2 0x100 EXP SWAP1 DIV PUSH1 0xFF AND DUP2 JUMP JUMPDEST PUSH2 0x4184 PUSH2 0x50EF JUMP JUMPDEST PUSH2 0x418C PUSH2 0x516D JUMP JUMPDEST PUSH32 0x3D731857045DFA7982ED8FF308EEDA54C7E156BA99609DB02C50B4485F64C463 PUSH1 0x1E SLOAD DUP3 PUSH1 0x40 MLOAD PUSH2 0x41BF SWAP3 SWAP2 SWAP1 PUSH2 0x719F JUMP JUMPDEST PUSH1 0x40 MLOAD DUP1 SWAP2 SUB SWAP1 LOG1 DUP1 PUSH1 0x1E DUP2 SWAP1 SSTORE POP POP JUMP JUMPDEST PUSH1 0x16 PUSH1 0x20 MSTORE DUP2 PUSH0 MSTORE PUSH1 0x40 PUSH0 KECCAK256 PUSH1 0x20 MSTORE DUP1 PUSH0 MSTORE PUSH1 0x40 PUSH0 KECCAK256 PUSH0 SWAP2 POP SWAP2 POP POP SLOAD DUP2 JUMP JUMPDEST PUSH1 0x1A PUSH1 0xA SWAP1 SLOAD SWAP1 PUSH2 0x100 EXP SWAP1 DIV PUSH5 0xFFFFFFFFFF AND DUP2 JUMP JUMPDEST PUSH2 0x4210 PUSH2 0x52BA JUMP JUMPDEST PUSH2 0x4218 PUSH2 0x516D JUMP JUMPDEST PUSH0 CALLER SWAP1 POP PUSH0 PUSH1 0x11 PUSH0 DUP7 DUP2 MSTORE PUSH1 0x20 ADD SWAP1 DUP2 MSTORE PUSH1 0x20 ADD PUSH0 KECCAK256 PUSH1 0x40 MLOAD DUP1 PUSH1 0x80 ADD PUSH1 0x40 MSTORE SWAP1 DUP2 PUSH0 DUP3 ADD SLOAD DUP2 MSTORE PUSH1 0x20 ADD PUSH1 0x1 DUP3 ADD DUP1 SLOAD PUSH2 0x4252 SWAP1 PUSH2 0x73FF JUMP JUMPDEST DUP1 PUSH1 0x1F ADD PUSH1 0x20 DUP1 SWAP2 DIV MUL PUSH1 0x20 ADD PUSH1 0x40 MLOAD SWAP1 DUP2 ADD PUSH1 0x40 MSTORE DUP1 SWAP3 SWAP2 SWAP1 DUP2 DUP2 MSTORE PUSH1 0x20 ADD DUP3 DUP1 SLOAD PUSH2 0x427E SWAP1 PUSH2 0x73FF JUMP JUMPDEST DUP1 ISZERO PUSH2 0x42C9 JUMPI DUP1 PUSH1 0x1F LT PUSH2 0x42A0 JUMPI PUSH2 0x100 DUP1 DUP4 SLOAD DIV MUL DUP4 MSTORE SWAP2 PUSH1 0x20 ADD SWAP2 PUSH2 0x42C9 JUMP JUMPDEST DUP3 ADD SWAP2 SWAP1 PUSH0 MSTORE PUSH1 0x20 PUSH0 KECCAK256 SWAP1 JUMPDEST DUP2 SLOAD DUP2 MSTORE SWAP1 PUSH1 0x1 ADD SWAP1 PUSH1 0x20 ADD DUP1 DUP4 GT PUSH2 0x42AC JUMPI DUP3 SWAP1 SUB PUSH1 0x1F AND DUP3 ADD SWAP2 JUMPDEST POP POP POP POP POP DUP2 MSTORE PUSH1 0x20 ADD PUSH1 0x2 DUP3 ADD PUSH0 SWAP1 SLOAD SWAP1 PUSH2 0x100 EXP SWAP1 DIV PUSH20 0xFFFFFFFFFFFFFFFFFFFFFFFFFFFFFFFFFFFFFFFF AND PUSH20 0xFFFFFFFFFFFFFFFFFFFFFFFFFFFFFFFFFFFFFFFF AND PUSH20 0xFFFFFFFFFFFFFFFFFFFFFFFFFFFFFFFFFFFFFFFF AND DUP2 MSTORE PUSH1 0x20 ADD PUSH1 0x2 DUP3 ADD PUSH1 0x14 SWAP1 SLOAD SWAP1 PUSH2 0x100 EXP SWAP1 DIV PUSH1 0xFF AND PUSH1 0xFF AND PUSH1 0xFF AND DUP2 MSTORE POP POP SWAP1 POP DUP1 PUSH1 0x40 ADD MLOAD PUSH20 0xFFFFFFFFFFFFFFFFFFFFFFFFFFFFFFFFFFFFFFFF AND DUP3 PUSH20 0xFFFFFFFFFFFFFFFFFFFFFFFFFFFFFFFFFFFFFFFF AND EQ PUSH2 0x43AF JUMPI PUSH1 0x40 MLOAD PUSH32 0x82B4290000000000000000000000000000000000000000000000000000000000 DUP2 MSTORE PUSH1 0x4 ADD PUSH1 0x40 MLOAD DUP1 SWAP2 SUB SWAP1 REVERT JUMPDEST PUSH0 DUP2 PUSH1 0x20 ADD MLOAD MLOAD EQ PUSH2 0x43ED JUMPI PUSH1 0x40 MLOAD PUSH32 0x9FBFC58900000000000000000000000000000000000000000000000000000000 DUP2 MSTORE PUSH1 0x4 ADD PUSH1 0x40 MLOAD DUP1 SWAP2 SUB SWAP1 REVERT JUMPDEST PUSH0 PUSH1 0xF PUSH0 DUP4 PUSH0 ADD MLOAD DUP2 MSTORE PUSH1 0x20 ADD SWAP1 DUP2 MSTORE PUSH1 0x20 ADD PUSH0 KECCAK256 PUSH1 0x40 MLOAD DUP1 PUSH2 0x120 ADD PUSH1 0x40 MSTORE SWAP1 DUP2 PUSH0 DUP3 ADD DUP1 SLOAD DUP1 PUSH1 0x20 MUL PUSH1 0x20 ADD PUSH1 0x40 MLOAD SWAP1 DUP2 ADD PUSH1 0x40 MSTORE DUP1 SWAP3 SWAP2 SWAP1 DUP2 DUP2 MSTORE PUSH1 0x20 ADD DUP3 DUP1 SLOAD DUP1 ISZERO PUSH2 0x445A JUMPI PUSH1 0x20 MUL DUP3 ADD SWAP2 SWAP1 PUSH0 MSTORE PUSH1 0x20 PUSH0 KECCAK256 SWAP1 JUMPDEST DUP2 SLOAD DUP2 MSTORE PUSH1 0x20 ADD SWAP1 PUSH1 0x1 ADD SWAP1 DUP1 DUP4 GT PUSH2 0x4446 JUMPI JUMPDEST POP POP POP POP POP DUP2 MSTORE PUSH1 0x20 ADD PUSH1 0x1 DUP3 ADD DUP1 SLOAD PUSH2 0x4473 SWAP1 PUSH2 0x73FF JUMP JUMPDEST DUP1 PUSH1 0x1F ADD PUSH1 0x20 DUP1 SWAP2 DIV MUL PUSH1 0x20 ADD PUSH1 0x40 MLOAD SWAP1 DUP2 ADD PUSH1 0x40 MSTORE DUP1 SWAP3 SWAP2 SWAP1 DUP2 DUP2 MSTORE PUSH1 0x20 ADD DUP3 DUP1 SLOAD PUSH2 0x449F SWAP1 PUSH2 0x73FF JUMP JUMPDEST DUP1 ISZERO PUSH2 0x44EA JUMPI DUP1 PUSH1 0x1F LT PUSH2 0x44C1 JUMPI PUSH2 0x100 DUP1 DUP4 SLOAD DIV MUL DUP4 MSTORE SWAP2 PUSH1 0x20 ADD SWAP2 PUSH2 0x44EA JUMP JUMPDEST DUP3 ADD SWAP2 SWAP1 PUSH0 MSTORE PUSH1 0x20 PUSH0 KECCAK256 SWAP1 JUMPDEST DUP2 SLOAD DUP2 MSTORE SWAP1 PUSH1 0x1 ADD SWAP1 PUSH1 0x20 ADD DUP1 DUP4 GT PUSH2 0x44CD JUMPI DUP3 SWAP1 SUB PUSH1 0x1F AND DUP3 ADD SWAP2 JUMPDEST POP POP POP POP POP DUP2 MSTORE PUSH1 0x20 ADD PUSH1 0x2 DUP3 ADD SLOAD DUP2 MSTORE PUSH1 0x20 ADD PUSH1 0x3 DUP3 ADD PUSH0 SWAP1 SLOAD SWAP1 PUSH2 0x100 EXP SWAP1 DIV PUSH20 0xFFFFFFFFFFFFFFFFFFFFFFFFFFFFFFFFFFFFFFFF AND PUSH20 0xFFFFFFFFFFFFFFFFFFFFFFFFFFFFFFFFFFFFFFFF AND PUSH20 0xFFFFFFFFFFFFFFFFFFFFFFFFFFFFFFFFFFFFFFFF AND DUP2 MSTORE PUSH1 0x20 ADD PUSH1 0x4 DUP3 ADD PUSH0 SWAP1 SLOAD SWAP1 PUSH2 0x100 EXP SWAP1 DIV PUSH20 0xFFFFFFFFFFFFFFFFFFFFFFFFFFFFFFFFFFFFFFFF AND PUSH20 0xFFFFFFFFFFFFFFFFFFFFFFFFFFFFFFFFFFFFFFFF AND PUSH20 0xFFFFFFFFFFFFFFFFFFFFFFFFFFFFFFFFFFFFFFFF AND DUP2 MSTORE PUSH1 0x20 ADD PUSH1 0x4 DUP3 ADD PUSH1 0x14 SWAP1 SLOAD SWAP1 PUSH2 0x100 EXP SWAP1 DIV PUSH5 0xFFFFFFFFFF AND PUSH5 0xFFFFFFFFFF AND PUSH5 0xFFFFFFFFFF AND DUP2 MSTORE PUSH1 0x20 ADD PUSH1 0x4 DUP3 ADD PUSH1 0x19 SWAP1 SLOAD SWAP1 PUSH2 0x100 EXP SWAP1 DIV PUSH1 0xFF AND PUSH1 0xFF AND PUSH1 0xFF AND DUP2 MSTORE PUSH1 0x20 ADD PUSH1 0x4 DUP3 ADD PUSH1 0x1A SWAP1 SLOAD SWAP1 PUSH2 0x100 EXP SWAP1 DIV PUSH1 0xFF AND PUSH1 0x4 DUP2 GT ISZERO PUSH2 0x4612 JUMPI PUSH2 0x4611 PUSH2 0x6D36 JUMP JUMPDEST JUMPDEST PUSH1 0x4 DUP2 GT ISZERO PUSH2 0x4624 JUMPI PUSH2 0x4623 PUSH2 0x6D36 JUMP JUMPDEST JUMPDEST DUP2 MSTORE PUSH1 0x20 ADD PUSH1 0x5 DUP3 ADD PUSH0 SWAP1 SLOAD SWAP1 PUSH2 0x100 EXP SWAP1 DIV PUSH20 0xFFFFFFFFFFFFFFFFFFFFFFFFFFFFFFFFFFFFFFFF AND PUSH20 0xFFFFFFFFFFFFFFFFFFFFFFFFFFFFFFFFFFFFFFFF AND PUSH20 0xFFFFFFFFFFFFFFFFFFFFFFFFFFFFFFFFFFFFFFFF AND DUP2 MSTORE POP POP SWAP1 POP PUSH1 0x1 PUSH1 0x4 DUP2 GT ISZERO PUSH2 0x4693 JUMPI PUSH2 0x4692 PUSH2 0x6D36 JUMP JUMPDEST JUMPDEST DUP2 PUSH1 0xE0 ADD MLOAD PUSH1 0x4 DUP2 GT ISZERO PUSH2 0x46AA JUMPI PUSH2 0x46A9 PUSH2 0x6D36 JUMP JUMPDEST JUMPDEST EQ ISZERO DUP1 ISZERO PUSH2 0x46E1 JUMPI POP PUSH1 0x3 PUSH1 0x4 DUP2 GT ISZERO PUSH2 0x46C7 JUMPI PUSH2 0x46C6 PUSH2 0x6D36 JUMP JUMPDEST JUMPDEST DUP2 PUSH1 0xE0 ADD MLOAD PUSH1 0x4 DUP2 GT ISZERO PUSH2 0x46DE JUMPI PUSH2 0x46DD PUSH2 0x6D36 JUMP JUMPDEST JUMPDEST EQ ISZERO JUMPDEST ISZERO PUSH2 0x4718 JUMPI PUSH1 0x40 MLOAD PUSH32 0xEF084B5900000000000000000000000000000000000000000000000000000000 DUP2 MSTORE PUSH1 0x4 ADD PUSH1 0x40 MLOAD DUP1 SWAP2 SUB SWAP1 REVERT JUMPDEST TIMESTAMP DUP2 PUSH1 0xA0 ADD MLOAD PUSH5 0xFFFFFFFFFF AND LT ISZERO PUSH2 0x477C JUMPI PUSH0 DUP2 PUSH0 ADD MLOAD MLOAD SUB PUSH2 0x474A JUMPI PUSH2 0x4742 DUP3 PUSH0 ADD MLOAD PUSH2 0x256F JUMP JUMPDEST POP POP POP PUSH2 0x4A52 JUMP JUMPDEST PUSH1 0x40 MLOAD PUSH32 0x345546500000000000000000000000000000000000000000000000000000000 DUP2 MSTORE PUSH1 0x4 ADD PUSH1 0x40 MLOAD DUP1 SWAP2 SUB SWAP1 REVERT JUMPDEST PUSH0 PUSH1 0xF PUSH0 DUP5 PUSH0 ADD MLOAD DUP2 MSTORE PUSH1 0x20 ADD SWAP1 DUP2 MSTORE PUSH1 0x20 ADD PUSH0 KECCAK256 SWAP1 POP DUP6 DUP6 PUSH1 0x11 PUSH0 DUP11 DUP2 MSTORE PUSH1 0x20 ADD SWAP1 DUP2 MSTORE PUSH1 0x20 ADD PUSH0 KECCAK256 PUSH1 0x1 ADD SWAP2 DUP3 PUSH2 0x47B6 SWAP3 SWAP2 SWAP1 PUSH2 0x7699 JUMP JUMPDEST POP PUSH1 0x3 DUP2 PUSH1 0x4 ADD PUSH1 0x1A PUSH2 0x100 EXP DUP2 SLOAD DUP2 PUSH1 0xFF MUL NOT AND SWAP1 DUP4 PUSH1 0x4 DUP2 GT ISZERO PUSH2 0x47DF JUMPI PUSH2 0x47DE PUSH2 0x6D36 JUMP JUMPDEST JUMPDEST MUL OR SWAP1 SSTORE POP DUP1 PUSH0 ADD DUP8 SWAP1 DUP1 PUSH1 0x1 DUP2 SLOAD ADD DUP1 DUP3 SSTORE DUP1 SWAP2 POP POP PUSH1 0x1 SWAP1 SUB SWAP1 PUSH0 MSTORE PUSH1 0x20 PUSH0 KECCAK256 ADD PUSH0 SWAP1 SWAP2 SWAP1 SWAP2 SWAP1 SWAP2 POP SSTORE PUSH1 0x1 DUP2 PUSH0 ADD DUP1 SLOAD SWAP1 POP SUB PUSH2 0x4A09 JUMPI PUSH0 PUSH1 0x1A PUSH1 0x14 SWAP1 SLOAD SWAP1 PUSH2 0x100 EXP SWAP1 DIV PUSH5 0xFFFFFFFFFF AND PUSH5 0xFFFFFFFFFF AND SWAP1 POP PUSH1 0x1 PUSH1 0x16 PUSH0 DUP8 PUSH20 0xFFFFFFFFFFFFFFFFFFFFFFFFFFFFFFFFFFFFFFFF AND PUSH20 0xFFFFFFFFFFFFFFFFFFFFFFFFFFFFFFFFFFFFFFFF AND DUP2 MSTORE PUSH1 0x20 ADD SWAP1 DUP2 MSTORE PUSH1 0x20 ADD PUSH0 KECCAK256 PUSH0 DUP4 DUP2 MSTORE PUSH1 0x20 ADD SWAP1 DUP2 MSTORE PUSH1 0x20 ADD PUSH0 KECCAK256 PUSH0 DUP3 DUP3 SLOAD PUSH2 0x4893 SWAP2 SWAP1 PUSH2 0x7457 JUMP JUMPDEST SWAP3 POP POP DUP2 SWAP1 SSTORE POP PUSH1 0x1 PUSH1 0x15 PUSH0 DUP4 DUP2 MSTORE PUSH1 0x20 ADD SWAP1 DUP2 MSTORE PUSH1 0x20 ADD PUSH0 KECCAK256 PUSH1 0x2 ADD PUSH0 DUP3 DUP3 SLOAD PUSH2 0x48BE SWAP2 SWAP1 PUSH2 0x7457 JUMP JUMPDEST SWAP3 POP POP DUP2 SWAP1 SSTORE POP PUSH0 PUSH2 0x2710 PUSH1 0x19 PUSH1 0x14 SWAP1 SLOAD SWAP1 PUSH2 0x100 EXP SWAP1 DIV PUSH2 0xFFFF AND PUSH2 0xFFFF AND DUP6 PUSH1 0x40 ADD MLOAD PUSH2 0x48ED SWAP2 SWAP1 PUSH2 0x748A JUMP JUMPDEST PUSH2 0x48F7 SWAP2 SWAP1 PUSH2 0x74CB JUMP JUMPDEST SWAP1 POP PUSH0 DUP2 DUP6 PUSH1 0x40 ADD MLOAD PUSH2 0x490A SWAP2 SWAP1 PUSH2 0x7766 JUMP JUMPDEST SWAP1 POP PUSH2 0x4937 PUSH1 0x19 PUSH0 SWAP1 SLOAD SWAP1 PUSH2 0x100 EXP SWAP1 DIV PUSH20 0xFFFFFFFFFFFFFFFFFFFFFFFFFFFFFFFFFFFFFFFF AND DUP4 PUSH2 0x5533 JUMP JUMPDEST PUSH2 0x4941 DUP8 DUP3 PUSH2 0x5533 JUMP JUMPDEST PUSH1 0x19 PUSH0 SWAP1 SLOAD SWAP1 PUSH2 0x100 EXP SWAP1 DIV PUSH20 0xFFFFFFFFFFFFFFFFFFFFFFFFFFFFFFFFFFFFFFFF AND PUSH20 0xFFFFFFFFFFFFFFFFFFFFFFFFFFFFFFFFFFFFFFFF AND DUP8 PUSH20 0xFFFFFFFFFFFFFFFFFFFFFFFFFFFFFFFFFFFFFFFF AND PUSH32 0x782AADA659BAC972B342FEA00DFC27389E876BECE89A9EB635BD5A2C544E8A6B DUP4 DUP6 PUSH1 0x40 MLOAD PUSH2 0x49C1 SWAP3 SWAP2 SWAP1 PUSH2 0x719F JUMP JUMPDEST PUSH1 0x40 MLOAD DUP1 SWAP2 SUB SWAP1 LOG3 DUP6 PUSH0 ADD MLOAD PUSH32 0xBC645ECE538D7606C8AC26DE30AEF5FBD0ED2EE0C945F4E5D860DA3E62781D50 PUSH1 0x3 PUSH1 0x40 MLOAD PUSH2 0x49FD SWAP2 SWAP1 PUSH2 0x743E JUMP JUMPDEST PUSH1 0x40 MLOAD DUP1 SWAP2 SUB SWAP1 LOG2 POP POP POP JUMPDEST DUP7 DUP5 PUSH20 0xFFFFFFFFFFFFFFFFFFFFFFFFFFFFFFFFFFFFFFFF AND PUSH32 0x9F669B92B9CBC7611F7AB6C77DB07A424051C777433E21BD90F1BDF940096DD9 PUSH1 0x40 MLOAD PUSH1 0x40 MLOAD DUP1 SWAP2 SUB SWAP1 LOG3 POP POP POP POP JUMPDEST POP POP POP JUMP JUMPDEST PUSH1 0x60 PUSH1 0x8 PUSH0 ADD DUP1 SLOAD DUP1 PUSH1 0x20 MUL PUSH1 0x20 ADD PUSH1 0x40 MLOAD SWAP1 DUP2 ADD PUSH1 0x40 MSTORE DUP1 SWAP3 SWAP2 SWAP1 DUP2 DUP2 MSTORE PUSH1 0x20 ADD DUP3 DUP1 SLOAD DUP1 ISZERO PUSH2 0x4ADA JUMPI PUSH1 0x20 MUL DUP3 ADD SWAP2 SWAP1 PUSH0 MSTORE PUSH1 0x20 PUSH0 KECCAK256 SWAP1 JUMPDEST DUP2 PUSH0 SWAP1 SLOAD SWAP1 PUSH2 0x100 EXP SWAP1 DIV PUSH20 0xFFFFFFFFFFFFFFFFFFFFFFFFFFFFFFFFFFFFFFFF AND PUSH20 0xFFFFFFFFFFFFFFFFFFFFFFFFFFFFFFFFFFFFFFFF AND DUP2 MSTORE PUSH1 0x20 ADD SWAP1 PUSH1 0x1 ADD SWAP1 DUP1 DUP4 GT PUSH2 0x4A91 JUMPI JUMPDEST POP POP POP POP POP SWAP1 POP SWAP1 JUMP JUMPDEST PUSH2 0x4AEC PUSH2 0x52BA JUMP JUMPDEST PUSH2 0x4AF4 PUSH2 0x516D JUMP JUMPDEST PUSH0 PUSH1 0x2 PUSH0 CALLER PUSH20 0xFFFFFFFFFFFFFFFFFFFFFFFFFFFFFFFFFFFFFFFF AND PUSH20 0xFFFFFFFFFFFFFFFFFFFFFFFFFFFFFFFFFFFFFFFF AND DUP2 MSTORE PUSH1 0x20 ADD SWAP1 DUP2 MSTORE PUSH1 0x20 ADD PUSH0 KECCAK256 SWAP1 POP PUSH0 DUP2 PUSH1 0x2 ADD PUSH1 0x1E SWAP1 SLOAD SWAP1 PUSH2 0x100 EXP SWAP1 DIV PUSH2 0xFFFF AND PUSH2 0xFFFF AND SUB PUSH2 0x4B83 JUMPI PUSH1 0x40 MLOAD PUSH32 0xABA4733900000000000000000000000000000000000000000000000000000000 DUP2 MSTORE PUSH1 0x4 ADD PUSH1 0x40 MLOAD DUP1 SWAP2 SUB SWAP1 REVERT JUMPDEST PUSH0 DUP2 PUSH1 0x2 ADD PUSH0 SWAP1 SLOAD SWAP1 PUSH2 0x100 EXP SWAP1 DIV PUSH20 0xFFFFFFFFFFFFFFFFFFFFFFFFFFFFFFFFFFFFFFFF AND SWAP1 POP PUSH2 0x4BF9 CALLER PUSH1 0x5 PUSH0 DUP5 PUSH20 0xFFFFFFFFFFFFFFFFFFFFFFFFFFFFFFFFFFFFFFFF AND PUSH20 0xFFFFFFFFFFFFFFFFFFFFFFFFFFFFFFFFFFFFFFFF AND DUP2 MSTORE PUSH1 0x20 ADD SWAP1 DUP2 MSTORE PUSH1 0x20 ADD PUSH0 KECCAK256 PUSH2 0x5304 SWAP1 SWAP2 SWAP1 PUSH4 0xFFFFFFFF AND JUMP JUMPDEST PUSH2 0x4C0D CALLER PUSH1 0xA PUSH2 0x5304 SWAP1 SWAP2 SWAP1 PUSH4 0xFFFFFFFF AND JUMP JUMPDEST CALLER PUSH20 0xFFFFFFFFFFFFFFFFFFFFFFFFFFFFFFFFFFFFFFFF AND PUSH32 0x8C97974B44DADE54A2967B9DE94B1229332187B50127027FF91C2E9B28D69D75 PUSH1 0x40 MLOAD PUSH1 0x40 MLOAD DUP1 SWAP2 SUB SWAP1 LOG2 POP POP JUMP JUMPDEST PUSH1 0x1B SLOAD DUP2 JUMP JUMPDEST PUSH2 0x4C62 PUSH2 0x50EF JUMP JUMPDEST PUSH0 PUSH20 0xFFFFFFFFFFFFFFFFFFFFFFFFFFFFFFFFFFFFFFFF AND DUP2 PUSH20 0xFFFFFFFFFFFFFFFFFFFFFFFFFFFFFFFFFFFFFFFF AND SUB PUSH2 0x4CD0 JUMPI PUSH1 0x40 MLOAD PUSH32 0x8C379A000000000000000000000000000000000000000000000000000000000 DUP2 MSTORE PUSH1 0x4 ADD PUSH2 0x4CC7 SWAP1 PUSH2 0x7809 JUMP JUMPDEST PUSH1 0x40 MLOAD DUP1 SWAP2 SUB SWAP1 REVERT JUMPDEST PUSH2 0x4CD9 DUP2 PUSH2 0x595B JUMP JUMPDEST POP JUMP JUMPDEST PUSH1 0x60 PUSH1 0xA PUSH0 ADD DUP1 SLOAD DUP1 PUSH1 0x20 MUL PUSH1 0x20 ADD PUSH1 0x40 MLOAD SWAP1 DUP2 ADD PUSH1 0x40 MSTORE DUP1 SWAP3 SWAP2 SWAP1 DUP2 DUP2 MSTORE PUSH1 0x20 ADD DUP3 DUP1 SLOAD DUP1 ISZERO PUSH2 0x4D5F JUMPI PUSH1 0x20 MUL DUP3 ADD SWAP2 SWAP1 PUSH0 MSTORE PUSH1 0x20 PUSH0 KECCAK256 SWAP1 JUMPDEST DUP2 PUSH0 SWAP1 SLOAD SWAP1 PUSH2 0x100 EXP SWAP1 DIV PUSH20 0xFFFFFFFFFFFFFFFFFFFFFFFFFFFFFFFFFFFFFFFF AND PUSH20 0xFFFFFFFFFFFFFFFFFFFFFFFFFFFFFFFFFFFFFFFF AND DUP2 MSTORE PUSH1 0x20 ADD SWAP1 PUSH1 0x1 ADD SWAP1 DUP1 DUP4 GT PUSH2 0x4D16 JUMPI JUMPDEST POP POP POP POP POP SWAP1 POP SWAP1 JUMP JUMPDEST PUSH1 0xE SLOAD DUP2 JUMP JUMPDEST PUSH1 0x3 PUSH1 0x20 MSTORE DUP1 PUSH0 MSTORE PUSH1 0x40 PUSH0 KECCAK256 PUSH0 SWAP2 POP SWAP1 POP DUP1 PUSH0 ADD SLOAD SWAP1 DUP1 PUSH1 0x1 ADD SLOAD SWAP1 DUP1 PUSH1 0x2 ADD PUSH0 SWAP1 SLOAD SWAP1 PUSH2 0x100 EXP SWAP1 DIV PUSH20 0xFFFFFFFFFFFFFFFFFFFFFFFFFFFFFFFFFFFFFFFF AND SWAP1 DUP1 PUSH1 0x2 ADD PUSH1 0x14 SWAP1 SLOAD SWAP1 PUSH2 0x100 EXP SWAP1 DIV PUSH5 0xFFFFFFFFFF AND SWAP1 DUP1 PUSH1 0x2 ADD PUSH1 0x19 SWAP1 SLOAD SWAP1 PUSH2 0x100 EXP SWAP1 DIV PUSH5 0xFFFFFFFFFF AND SWAP1 DUP1 PUSH1 0x2 ADD PUSH1 0x1E SWAP1 SLOAD SWAP1 PUSH2 0x100 EXP SWAP1 DIV PUSH2 0xFFFF AND SWAP1 POP DUP7 JUMP JUMPDEST PUSH1 0xD PUSH1 0x20 MSTORE DUP1 PUSH0 MSTORE PUSH1 0x40 PUSH0 KECCAK256 PUSH0 SWAP2 POP SWAP1 POP DUP1 PUSH0 ADD SLOAD SWAP1 DUP1 PUSH1 0x1 ADD PUSH0 SWAP1 SLOAD SWAP1 PUSH2 0x100 EXP SWAP1 DIV PUSH5 0xFFFFFFFFFF AND SWAP1 POP DUP3 JUMP JUMPDEST PUSH0 PUSH1 0x83 PUSH1 0x1 SWAP1 SLOAD SWAP1 PUSH2 0x100 EXP SWAP1 DIV PUSH1 0xFF AND ISZERO SWAP1 POP DUP1 DUP1 ISZERO PUSH2 0x4E58 JUMPI POP PUSH1 0x1 PUSH1 0x83 PUSH0 SWAP1 SLOAD SWAP1 PUSH2 0x100 EXP SWAP1 DIV PUSH1 0xFF AND PUSH1 0xFF AND LT JUMPDEST DUP1 PUSH2 0x4E86 JUMPI POP PUSH2 0x4E67 ADDRESS PUSH2 0x5E56 JUMP JUMPDEST ISZERO DUP1 ISZERO PUSH2 0x4E85 JUMPI POP PUSH1 0x1 PUSH1 0x83 PUSH0 SWAP1 SLOAD SWAP1 PUSH2 0x100 EXP SWAP1 DIV PUSH1 0xFF AND PUSH1 0xFF AND EQ JUMPDEST JUMPDEST PUSH2 0x4EC5 JUMPI PUSH1 0x40 MLOAD PUSH32 0x8C379A000000000000000000000000000000000000000000000000000000000 DUP2 MSTORE PUSH1 0x4 ADD PUSH2 0x4EBC SWAP1 PUSH2 0x7897 JUMP JUMPDEST PUSH1 0x40 MLOAD DUP1 SWAP2 SUB SWAP1 REVERT JUMPDEST PUSH1 0x1 PUSH1 0x83 PUSH0 PUSH2 0x100 EXP DUP2 SLOAD DUP2 PUSH1 0xFF MUL NOT AND SWAP1 DUP4 PUSH1 0xFF AND MUL OR SWAP1 SSTORE POP DUP1 ISZERO PUSH2 0x4F02 JUMPI PUSH1 0x1 PUSH1 0x83 PUSH1 0x1 PUSH2 0x100 EXP DUP2 SLOAD DUP2 PUSH1 0xFF MUL NOT AND SWAP1 DUP4 ISZERO ISZERO MUL OR SWAP1 SSTORE POP JUMPDEST PUSH2 0x4F0A PUSH2 0x5E78 JUMP JUMPDEST PUSH2 0x4F12 PUSH2 0x5ED1 JUMP JUMPDEST PUSH2 0x4F1A PUSH2 0x5F2A JUMP JUMPDEST DUP11 PUSH1 0x19 PUSH0 PUSH2 0x100 EXP DUP2 SLOAD DUP2 PUSH20 0xFFFFFFFFFFFFFFFFFFFFFFFFFFFFFFFFFFFFFFFF MUL NOT AND SWAP1 DUP4 PUSH20 0xFFFFFFFFFFFFFFFFFFFFFFFFFFFFFFFFFFFFFFFF AND MUL OR SWAP1 SSTORE POP DUP10 PUSH1 0x19 PUSH1 0x14 PUSH2 0x100 EXP DUP2 SLOAD DUP2 PUSH2 0xFFFF MUL NOT AND SWAP1 DUP4 PUSH2 0xFFFF AND MUL OR SWAP1 SSTORE POP DUP9 PUSH1 0x17 DUP2 SWAP1 SSTORE POP DUP8 PUSH1 0x18 DUP2 SWAP1 SSTORE POP DUP7 PUSH1 0x19 PUSH1 0x16 PUSH2 0x100 EXP DUP2 SLOAD DUP2 PUSH5 0xFFFFFFFFFF MUL NOT AND SWAP1 DUP4 PUSH5 0xFFFFFFFFFF AND MUL OR SWAP1 SSTORE POP DUP6 PUSH1 0x1A PUSH1 0xF PUSH2 0x100 EXP DUP2 SLOAD DUP2 PUSH1 0xFF MUL NOT AND SWAP1 DUP4 PUSH1 0xFF AND MUL OR SWAP1 SSTORE POP DUP5 PUSH1 0x1B DUP2 SWAP1 SSTORE POP DUP4 PUSH1 0x1D DUP2 SWAP1 SSTORE POP DUP3 PUSH1 0x1E DUP2 SWAP1 SSTORE POP DUP2 PUSH1 0x1A PUSH1 0xA PUSH2 0x100 EXP DUP2 SLOAD DUP2 PUSH5 0xFFFFFFFFFF MUL NOT AND SWAP1 DUP4 PUSH5 0xFFFFFFFFFF AND MUL OR SWAP1 SSTORE POP PUSH1 0x1 PUSH1 0x1A PUSH1 0x10 PUSH2 0x100 EXP DUP2 SLOAD DUP2 PUSH2 0xFFFF MUL NOT AND SWAP1 DUP4 PUSH2 0xFFFF AND MUL OR SWAP1 SSTORE POP NUMBER PUSH1 0x1C DUP2 SWAP1 SSTORE POP PUSH1 0x1D SLOAD PUSH1 0x15 PUSH0 PUSH1 0x1A PUSH1 0x14 SWAP1 SLOAD SWAP1 PUSH2 0x100 EXP SWAP1 DIV PUSH5 0xFFFFFFFFFF AND PUSH5 0xFFFFFFFFFF AND DUP2 MSTORE PUSH1 0x20 ADD SWAP1 DUP2 MSTORE PUSH1 0x20 ADD PUSH0 KECCAK256 PUSH0 ADD DUP2 SWAP1 SSTORE POP PUSH1 0x1E SLOAD PUSH1 0x15 PUSH0 PUSH1 0x1A PUSH1 0x14 SWAP1 SLOAD SWAP1 PUSH2 0x100 EXP SWAP1 DIV PUSH5 0xFFFFFFFFFF AND PUSH5 0xFFFFFFFFFF AND DUP2 MSTORE PUSH1 0x20 ADD SWAP1 DUP2 MSTORE PUSH1 0x20 ADD PUSH0 KECCAK256 PUSH1 0x1 ADD DUP2 SWAP1 SSTORE POP DUP1 ISZERO PUSH2 0x50E2 JUMPI PUSH0 PUSH1 0x83 PUSH1 0x1 PUSH2 0x100 EXP DUP2 SLOAD DUP2 PUSH1 0xFF MUL NOT AND SWAP1 DUP4 ISZERO ISZERO MUL OR SWAP1 SSTORE POP PUSH32 0x7F26B83FF96E1F2B6A682F133852F6798A09C465DA95921460CEFB3847402498 PUSH1 0x1 PUSH1 0x40 MLOAD PUSH2 0x50D9 SWAP2 SWAP1 PUSH2 0x78EE JUMP JUMPDEST PUSH1 0x40 MLOAD DUP1 SWAP2 SUB SWAP1 LOG1 JUMPDEST POP POP POP POP POP POP POP POP POP POP POP JUMP JUMPDEST PUSH2 0x50F7 PUSH2 0x5F83 JUMP JUMPDEST PUSH20 0xFFFFFFFFFFFFFFFFFFFFFFFFFFFFFFFFFFFFFFFF AND PUSH2 0x5115 PUSH2 0x32A5 JUMP JUMPDEST PUSH20 0xFFFFFFFFFFFFFFFFFFFFFFFFFFFFFFFFFFFFFFFF AND EQ PUSH2 0x516B JUMPI PUSH1 0x40 MLOAD PUSH32 0x8C379A000000000000000000000000000000000000000000000000000000000 DUP2 MSTORE PUSH1 0x4 ADD PUSH2 0x5162 SWAP1 PUSH2 0x7951 JUMP JUMPDEST PUSH1 0x40 MLOAD DUP1 SWAP2 SUB SWAP1 REVERT JUMPDEST JUMP JUMPDEST PUSH0 PUSH1 0x1B SLOAD GT ISZERO PUSH2 0x52B0 JUMPI PUSH0 PUSH1 0x1B SLOAD PUSH1 0x1C SLOAD NUMBER PUSH2 0x5189 SWAP2 SWAP1 PUSH2 0x7766 JUMP JUMPDEST PUSH2 0x5193 SWAP2 SWAP1 PUSH2 0x74CB JUMP JUMPDEST SWAP1 POP PUSH0 DUP2 GT ISZERO PUSH2 0x52AA JUMPI JUMPDEST PUSH0 DUP2 GT ISZERO PUSH2 0x52A2 JUMPI PUSH2 0x51B0 PUSH1 0x8 PUSH2 0x5436 JUMP JUMPDEST PUSH1 0x15 PUSH0 PUSH1 0x1A PUSH1 0x14 SWAP1 SLOAD SWAP1 PUSH2 0x100 EXP SWAP1 DIV PUSH5 0xFFFFFFFFFF AND PUSH5 0xFFFFFFFFFF AND DUP2 MSTORE PUSH1 0x20 ADD SWAP1 DUP2 MSTORE PUSH1 0x20 ADD PUSH0 KECCAK256 PUSH1 0x3 ADD DUP2 SWAP1 SSTORE POP PUSH1 0x1A PUSH1 0x14 DUP2 DUP2 SWAP1 SLOAD SWAP1 PUSH2 0x100 EXP SWAP1 DIV PUSH5 0xFFFFFFFFFF AND DUP1 SWAP3 SWAP2 SWAP1 PUSH2 0x5205 SWAP1 PUSH2 0x796F JUMP JUMPDEST SWAP2 SWAP1 PUSH2 0x100 EXP DUP2 SLOAD DUP2 PUSH5 0xFFFFFFFFFF MUL NOT AND SWAP1 DUP4 PUSH5 0xFFFFFFFFFF AND MUL OR SWAP1 SSTORE POP POP PUSH1 0x1D SLOAD PUSH1 0x15 PUSH0 PUSH1 0x1A PUSH1 0x14 SWAP1 SLOAD SWAP1 PUSH2 0x100 EXP SWAP1 DIV PUSH5 0xFFFFFFFFFF AND PUSH5 0xFFFFFFFFFF AND DUP2 MSTORE PUSH1 0x20 ADD SWAP1 DUP2 MSTORE PUSH1 0x20 ADD PUSH0 KECCAK256 PUSH0 ADD DUP2 SWAP1 SSTORE POP PUSH1 0x1E SLOAD PUSH1 0x15 PUSH0 PUSH1 0x1A PUSH1 0x14 SWAP1 SLOAD SWAP1 PUSH2 0x100 EXP SWAP1 DIV PUSH5 0xFFFFFFFFFF AND PUSH5 0xFFFFFFFFFF AND DUP2 MSTORE PUSH1 0x20 ADD SWAP1 DUP2 MSTORE PUSH1 0x20 ADD PUSH0 KECCAK256 PUSH1 0x1 ADD DUP2 SWAP1 SSTORE POP DUP1 DUP1 PUSH2 0x529A SWAP1 PUSH2 0x799B JUMP JUMPDEST SWAP2 POP POP PUSH2 0x519E JUMP JUMPDEST NUMBER PUSH1 0x1C DUP2 SWAP1 SSTORE POP JUMPDEST POP PUSH2 0x52B8 JUMP JUMPDEST NUMBER PUSH1 0x1C DUP2 SWAP1 SSTORE POP JUMPDEST JUMP JUMPDEST PUSH2 0x52C2 PUSH2 0x22A7 JUMP JUMPDEST ISZERO PUSH2 0x5302 JUMPI PUSH1 0x40 MLOAD PUSH32 0x8C379A000000000000000000000000000000000000000000000000000000000 DUP2 MSTORE PUSH1 0x4 ADD PUSH2 0x52F9 SWAP1 PUSH2 0x7A0C JUMP JUMPDEST PUSH1 0x40 MLOAD DUP1 SWAP2 SUB SWAP1 REVERT JUMPDEST JUMP JUMPDEST PUSH0 DUP3 PUSH1 0x1 ADD PUSH0 DUP4 PUSH20 0xFFFFFFFFFFFFFFFFFFFFFFFFFFFFFFFFFFFFFFFF AND PUSH20 0xFFFFFFFFFFFFFFFFFFFFFFFFFFFFFFFFFFFFFFFF AND DUP2 MSTORE PUSH1 0x20 ADD SWAP1 DUP2 MSTORE PUSH1 0x20 ADD PUSH0 KECCAK256 SLOAD EQ PUSH2 0x5387 JUMPI DUP1 PUSH1 0x40 MLOAD PUSH32 0x5E3DE8F00000000000000000000000000000000000000000000000000000000 DUP2 MSTORE PUSH1 0x4 ADD PUSH2 0x537E SWAP2 SWAP1 PUSH2 0x6AA0 JUMP JUMPDEST PUSH1 0x40 MLOAD DUP1 SWAP2 SUB SWAP1 REVERT JUMPDEST DUP2 PUSH0 ADD DUP2 SWAP1 DUP1 PUSH1 0x1 DUP2 SLOAD ADD DUP1 DUP3 SSTORE DUP1 SWAP2 POP POP PUSH1 0x1 SWAP1 SUB SWAP1 PUSH0 MSTORE PUSH1 0x20 PUSH0 KECCAK256 ADD PUSH0 SWAP1 SWAP2 SWAP1 SWAP2 SWAP1 SWAP2 PUSH2 0x100 EXP DUP2 SLOAD DUP2 PUSH20 0xFFFFFFFFFFFFFFFFFFFFFFFFFFFFFFFFFFFFFFFF MUL NOT AND SWAP1 DUP4 PUSH20 0xFFFFFFFFFFFFFFFFFFFFFFFFFFFFFFFFFFFFFFFF AND MUL OR SWAP1 SSTORE POP DUP2 PUSH0 ADD DUP1 SLOAD SWAP1 POP DUP3 PUSH1 0x1 ADD PUSH0 DUP4 PUSH20 0xFFFFFFFFFFFFFFFFFFFFFFFFFFFFFFFFFFFFFFFF AND PUSH20 0xFFFFFFFFFFFFFFFFFFFFFFFFFFFFFFFFFFFFFFFF AND DUP2 MSTORE PUSH1 0x20 ADD SWAP1 DUP2 MSTORE PUSH1 0x20 ADD PUSH0 KECCAK256 DUP2 SWAP1 SSTORE POP POP POP JUMP JUMPDEST PUSH0 DUP2 PUSH0 ADD DUP1 SLOAD SWAP1 POP SWAP1 POP SWAP2 SWAP1 POP JUMP JUMPDEST PUSH0 DUP1 DUP3 PUSH0 ADD SLOAD TIMESTAMP NUMBER BLOCKHASH PUSH1 0x40 MLOAD PUSH1 0x20 ADD PUSH2 0x5460 SWAP4 SWAP3 SWAP2 SWAP1 PUSH2 0x7A73 JUMP JUMPDEST PUSH1 0x40 MLOAD PUSH1 0x20 DUP2 DUP4 SUB SUB DUP2 MSTORE SWAP1 PUSH1 0x40 MSTORE DUP1 MLOAD SWAP1 PUSH1 0x20 ADD KECCAK256 PUSH0 SHR SWAP1 POP DUP1 DUP4 PUSH0 ADD DUP2 SWAP1 SSTORE SWAP2 POP POP SWAP2 SWAP1 POP JUMP JUMPDEST PUSH2 0x5491 PUSH2 0x22A7 JUMP JUMPDEST PUSH2 0x54D0 JUMPI PUSH1 0x40 MLOAD PUSH32 0x8C379A000000000000000000000000000000000000000000000000000000000 DUP2 MSTORE PUSH1 0x4 ADD PUSH2 0x54C7 SWAP1 PUSH2 0x7AF9 JUMP JUMPDEST PUSH1 0x40 MLOAD DUP1 SWAP2 SUB SWAP1 REVERT JUMPDEST JUMP JUMPDEST PUSH2 0x54DA PUSH2 0x5489 JUMP JUMPDEST PUSH0 PUSH1 0xE8 PUSH0 PUSH2 0x100 EXP DUP2 SLOAD DUP2 PUSH1 0xFF MUL NOT AND SWAP1 DUP4 ISZERO ISZERO MUL OR SWAP1 SSTORE POP PUSH32 0x5DB9EE0A495BF2E6FF9C91A7834C1BA4FDD244A5E8AA4E537BD38AEAE4B073AA PUSH2 0x551C PUSH2 0x5F83 JUMP JUMPDEST PUSH1 0x40 MLOAD PUSH2 0x5529 SWAP2 SWAP1 PUSH2 0x6AA0 JUMP JUMPDEST PUSH1 0x40 MLOAD DUP1 SWAP2 SUB SWAP1 LOG1 JUMP JUMPDEST PUSH0 DUP3 PUSH20 0xFFFFFFFFFFFFFFFFFFFFFFFFFFFFFFFFFFFFFFFF AND DUP3 PUSH1 0x40 MLOAD PUSH2 0x5558 SWAP1 PUSH2 0x7B44 JUMP JUMPDEST PUSH0 PUSH1 0x40 MLOAD DUP1 DUP4 SUB DUP2 DUP6 DUP8 GAS CALL SWAP3 POP POP POP RETURNDATASIZE DUP1 PUSH0 DUP2 EQ PUSH2 0x5592 JUMPI PUSH1 0x40 MLOAD SWAP2 POP PUSH1 0x1F NOT PUSH1 0x3F RETURNDATASIZE ADD AND DUP3 ADD PUSH1 0x40 MSTORE RETURNDATASIZE DUP3 MSTORE RETURNDATASIZE PUSH0 PUSH1 0x20 DUP5 ADD RETURNDATACOPY PUSH2 0x5597 JUMP JUMPDEST PUSH1 0x60 SWAP2 POP JUMPDEST POP POP SWAP1 POP DUP1 PUSH2 0x55D2 JUMPI PUSH1 0x40 MLOAD PUSH32 0xBFA871C500000000000000000000000000000000000000000000000000000000 DUP2 MSTORE PUSH1 0x4 ADD PUSH1 0x40 MLOAD DUP1 SWAP2 SUB SWAP1 REVERT JUMPDEST POP POP POP JUMP JUMPDEST PUSH1 0x2 PUSH2 0x11A SLOAD SUB PUSH2 0x561D JUMPI PUSH1 0x40 MLOAD PUSH32 0x8C379A000000000000000000000000000000000000000000000000000000000 DUP2 MSTORE PUSH1 0x4 ADD PUSH2 0x5614 SWAP1 PUSH2 0x7BA2 JUMP JUMPDEST PUSH1 0x40 MLOAD DUP1 SWAP2 SUB SWAP1 REVERT JUMPDEST PUSH1 0x2 PUSH2 0x11A DUP2 SWAP1 SSTORE POP JUMP JUMPDEST PUSH0 DUP3 PUSH1 0x1 ADD PUSH0 DUP4 PUSH20 0xFFFFFFFFFFFFFFFFFFFFFFFFFFFFFFFFFFFFFFFF AND PUSH20 0xFFFFFFFFFFFFFFFFFFFFFFFFFFFFFFFFFFFFFFFF AND DUP2 MSTORE PUSH1 0x20 ADD SWAP1 DUP2 MSTORE PUSH1 0x20 ADD PUSH0 KECCAK256 SLOAD SWAP1 POP PUSH0 DUP2 SUB PUSH2 0x56AF JUMPI DUP2 PUSH1 0x40 MLOAD PUSH32 0x28A32C1900000000000000000000000000000000000000000000000000000000 DUP2 MSTORE PUSH1 0x4 ADD PUSH2 0x56A6 SWAP2 SWAP1 PUSH2 0x6AA0 JUMP JUMPDEST PUSH1 0x40 MLOAD DUP1 SWAP2 SUB SWAP1 REVERT JUMPDEST DUP3 PUSH0 ADD PUSH1 0x1 DUP5 PUSH0 ADD DUP1 SLOAD SWAP1 POP SUB DUP2 SLOAD DUP2 LT PUSH2 0x56CD JUMPI PUSH2 0x56CC PUSH2 0x720C JUMP JUMPDEST JUMPDEST SWAP1 PUSH0 MSTORE PUSH1 0x20 PUSH0 KECCAK256 ADD PUSH0 SWAP1 SLOAD SWAP1 PUSH2 0x100 EXP SWAP1 DIV PUSH20 0xFFFFFFFFFFFFFFFFFFFFFFFFFFFFFFFFFFFFFFFF AND DUP4 PUSH0 ADD PUSH1 0x1 DUP4 SUB DUP2 SLOAD DUP2 LT PUSH2 0x570D JUMPI PUSH2 0x570C PUSH2 0x720C JUMP JUMPDEST JUMPDEST SWAP1 PUSH0 MSTORE PUSH1 0x20 PUSH0 KECCAK256 ADD PUSH0 PUSH2 0x100 EXP DUP2 SLOAD DUP2 PUSH20 0xFFFFFFFFFFFFFFFFFFFFFFFFFFFFFFFFFFFFFFFF MUL NOT AND SWAP1 DUP4 PUSH20 0xFFFFFFFFFFFFFFFFFFFFFFFFFFFFFFFFFFFFFFFF AND MUL OR SWAP1 SSTORE POP DUP1 DUP4 PUSH1 0x1 ADD PUSH0 DUP6 PUSH0 ADD PUSH1 0x1 DUP6 SUB DUP2 SLOAD DUP2 LT PUSH2 0x5770 JUMPI PUSH2 0x576F PUSH2 0x720C JUMP JUMPDEST JUMPDEST SWAP1 PUSH0 MSTORE PUSH1 0x20 PUSH0 KECCAK256 ADD PUSH0 SWAP1 SLOAD SWAP1 PUSH2 0x100 EXP SWAP1 DIV PUSH20 0xFFFFFFFFFFFFFFFFFFFFFFFFFFFFFFFFFFFFFFFF AND PUSH20 0xFFFFFFFFFFFFFFFFFFFFFFFFFFFFFFFFFFFFFFFF AND PUSH20 0xFFFFFFFFFFFFFFFFFFFFFFFFFFFFFFFFFFFFFFFF AND DUP2 MSTORE PUSH1 0x20 ADD SWAP1 DUP2 MSTORE PUSH1 0x20 ADD PUSH0 KECCAK256 DUP2 SWAP1 SSTORE POP DUP3 PUSH0 ADD DUP1 SLOAD DUP1 PUSH2 0x57E8 JUMPI PUSH2 0x57E7 PUSH2 0x7BC0 JUMP JUMPDEST JUMPDEST PUSH1 0x1 SWAP1 SUB DUP2 DUP2 SWAP1 PUSH0 MSTORE PUSH1 0x20 PUSH0 KECCAK256 ADD PUSH0 PUSH2 0x100 EXP DUP2 SLOAD SWAP1 PUSH20 0xFFFFFFFFFFFFFFFFFFFFFFFFFFFFFFFFFFFFFFFF MUL NOT AND SWAP1 SSTORE SWAP1 SSTORE PUSH0 DUP4 PUSH1 0x1 ADD PUSH0 DUP5 PUSH20 0xFFFFFFFFFFFFFFFFFFFFFFFFFFFFFFFFFFFFFFFF AND PUSH20 0xFFFFFFFFFFFFFFFFFFFFFFFFFFFFFFFFFFFFFFFF AND DUP2 MSTORE PUSH1 0x20 ADD SWAP1 DUP2 MSTORE PUSH1 0x20 ADD PUSH0 KECCAK256 DUP2 SWAP1 SSTORE POP POP POP POP JUMP JUMPDEST PUSH2 0x586B PUSH2 0x52BA JUMP JUMPDEST PUSH0 PUSH2 0x5875 DUP3 PUSH2 0x2B63 JUMP JUMPDEST SWAP1 POP PUSH1 0x1A PUSH1 0x14 SWAP1 SLOAD SWAP1 PUSH2 0x100 EXP SWAP1 DIV PUSH5 0xFFFFFFFFFF AND PUSH1 0x2 PUSH0 DUP5 PUSH20 0xFFFFFFFFFFFFFFFFFFFFFFFFFFFFFFFFFFFFFFFF AND PUSH20 0xFFFFFFFFFFFFFFFFFFFFFFFFFFFFFFFFFFFFFFFF AND DUP2 MSTORE PUSH1 0x20 ADD SWAP1 DUP2 MSTORE PUSH1 0x20 ADD PUSH0 KECCAK256 PUSH1 0x2 ADD PUSH1 0x14 PUSH2 0x100 EXP DUP2 SLOAD DUP2 PUSH5 0xFFFFFFFFFF MUL NOT AND SWAP1 DUP4 PUSH5 0xFFFFFFFFFF AND MUL OR SWAP1 SSTORE POP PUSH0 DUP2 GT ISZERO PUSH2 0x594C JUMPI PUSH2 0x58FD DUP3 DUP3 PUSH2 0x5533 JUMP JUMPDEST DUP2 PUSH20 0xFFFFFFFFFFFFFFFFFFFFFFFFFFFFFFFFFFFFFFFF AND PUSH32 0x75690555E75B04E280E646889DEFDCBEFD8401507E5394D1173FD84290944C29 DUP3 PUSH1 0x40 MLOAD PUSH2 0x5943 SWAP2 SWAP1 PUSH2 0x669E JUMP JUMPDEST PUSH1 0x40 MLOAD DUP1 SWAP2 SUB SWAP1 LOG2 JUMPDEST POP POP JUMP JUMPDEST PUSH1 0x1 PUSH2 0x11A DUP2 SWAP1 SSTORE POP JUMP JUMPDEST PUSH0 PUSH1 0xB6 PUSH0 SWAP1 SLOAD SWAP1 PUSH2 0x100 EXP SWAP1 DIV PUSH20 0xFFFFFFFFFFFFFFFFFFFFFFFFFFFFFFFFFFFFFFFF AND SWAP1 POP DUP2 PUSH1 0xB6 PUSH0 PUSH2 0x100 EXP DUP2 SLOAD DUP2 PUSH20 0xFFFFFFFFFFFFFFFFFFFFFFFFFFFFFFFFFFFFFFFF MUL NOT AND SWAP1 DUP4 PUSH20 0xFFFFFFFFFFFFFFFFFFFFFFFFFFFFFFFFFFFFFFFF AND MUL OR SWAP1 SSTORE POP DUP2 PUSH20 0xFFFFFFFFFFFFFFFFFFFFFFFFFFFFFFFFFFFFFFFF AND DUP2 PUSH20 0xFFFFFFFFFFFFFFFFFFFFFFFFFFFFFFFFFFFFFFFF AND PUSH32 0x8BE0079C531659141344CD1FD0A4F28419497F9722A3DAAFE3B4186F6B6457E0 PUSH1 0x40 MLOAD PUSH1 0x40 MLOAD DUP1 SWAP2 SUB SWAP1 LOG3 POP POP JUMP JUMPDEST PUSH2 0x5A26 PUSH2 0x52BA JUMP JUMPDEST PUSH1 0x1 PUSH1 0xE8 PUSH0 PUSH2 0x100 EXP DUP2 SLOAD DUP2 PUSH1 0xFF MUL NOT AND SWAP1 DUP4 ISZERO ISZERO MUL OR SWAP1 SSTORE POP PUSH32 0x62E78CEA01BEE320CD4E420270B5EA74000D11B0C9F74754EBDBFC544B05A258 PUSH2 0x5A69 PUSH2 0x5F83 JUMP JUMPDEST PUSH1 0x40 MLOAD PUSH2 0x5A76 SWAP2 SWAP1 PUSH2 0x6AA0 JUMP JUMPDEST PUSH1 0x40 MLOAD DUP1 SWAP2 SUB SWAP1 LOG1 JUMP JUMPDEST PUSH0 PUSH1 0x19 PUSH1 0x16 SWAP1 SLOAD SWAP1 PUSH2 0x100 EXP SWAP1 DIV PUSH5 0xFFFFFFFFFF AND PUSH5 0xFFFFFFFFFF AND TIMESTAMP PUSH2 0x5AA7 SWAP2 SWAP1 PUSH2 0x7457 JUMP JUMPDEST SWAP1 POP DUP1 PUSH1 0xF PUSH0 DUP5 DUP2 MSTORE PUSH1 0x20 ADD SWAP1 DUP2 MSTORE PUSH1 0x20 ADD PUSH0 KECCAK256 PUSH1 0x4 ADD PUSH1 0x14 PUSH2 0x100 EXP DUP2 SLOAD DUP2 PUSH5 0xFFFFFFFFFF MUL NOT AND SWAP1 DUP4 PUSH5 0xFFFFFFFFFF AND MUL OR SWAP1 SSTORE POP PUSH1 0x1 PUSH1 0xF PUSH0 DUP5 DUP2 MSTORE PUSH1 0x20 ADD SWAP1 DUP2 MSTORE PUSH1 0x20 ADD PUSH0 KECCAK256 PUSH1 0x4 ADD PUSH1 0x1A PUSH2 0x100 EXP DUP2 SLOAD DUP2 PUSH1 0xFF MUL NOT AND SWAP1 DUP4 PUSH1 0x4 DUP2 GT ISZERO PUSH2 0x5B16 JUMPI PUSH2 0x5B15 PUSH2 0x6D36 JUMP JUMPDEST JUMPDEST MUL OR SWAP1 SSTORE POP PUSH0 PUSH1 0xF PUSH0 DUP5 DUP2 MSTORE PUSH1 0x20 ADD SWAP1 DUP2 MSTORE PUSH1 0x20 ADD PUSH0 KECCAK256 PUSH1 0x4 ADD PUSH0 SWAP1 SLOAD SWAP1 PUSH2 0x100 EXP SWAP1 DIV PUSH20 0xFFFFFFFFFFFFFFFFFFFFFFFFFFFFFFFFFFFFFFFF AND SWAP1 POP PUSH0 PUSH1 0x4 PUSH0 DUP4 PUSH20 0xFFFFFFFFFFFFFFFFFFFFFFFFFFFFFFFFFFFFFFFF AND PUSH20 0xFFFFFFFFFFFFFFFFFFFFFFFFFFFFFFFFFFFFFFFF AND DUP2 MSTORE PUSH1 0x20 ADD SWAP1 DUP2 MSTORE PUSH1 0x20 ADD PUSH0 KECCAK256 SWAP1 POP PUSH0 PUSH1 0x1A PUSH1 0xF SWAP1 SLOAD SWAP1 PUSH2 0x100 EXP SWAP1 DIV PUSH1 0xFF AND PUSH1 0xFF AND SWAP1 POP PUSH0 DUP2 PUSH8 0xFFFFFFFFFFFFFFFF DUP2 GT ISZERO PUSH2 0x5BC3 JUMPI PUSH2 0x5BC2 PUSH2 0x71DF JUMP JUMPDEST JUMPDEST PUSH1 0x40 MLOAD SWAP1 DUP1 DUP3 MSTORE DUP1 PUSH1 0x20 MUL PUSH1 0x20 ADD DUP3 ADD PUSH1 0x40 MSTORE DUP1 ISZERO PUSH2 0x5BF1 JUMPI DUP2 PUSH1 0x20 ADD PUSH1 0x20 DUP3 MUL DUP1 CALLDATASIZE DUP4 CALLDATACOPY DUP1 DUP3 ADD SWAP2 POP POP SWAP1 POP JUMPDEST POP SWAP1 POP PUSH0 JUMPDEST DUP3 DUP2 LT ISZERO PUSH2 0x5E0A JUMPI PUSH0 DUP5 PUSH0 ADD PUSH2 0x5C0B DUP7 PUSH2 0x5436 JUMP JUMPDEST PUSH2 0x5C14 PUSH0 PUSH2 0x5445 JUMP JUMPDEST PUSH2 0x5C1E SWAP2 SWAP1 PUSH2 0x7266 JUMP JUMPDEST DUP2 SLOAD DUP2 LT PUSH2 0x5C2F JUMPI PUSH2 0x5C2E PUSH2 0x720C JUMP JUMPDEST JUMPDEST SWAP1 PUSH0 MSTORE PUSH1 0x20 PUSH0 KECCAK256 ADD PUSH0 SWAP1 SLOAD SWAP1 PUSH2 0x100 EXP SWAP1 DIV PUSH20 0xFFFFFFFFFFFFFFFFFFFFFFFFFFFFFFFFFFFFFFFF AND SWAP1 POP PUSH2 0x5C6C DUP2 DUP7 PUSH2 0x5628 SWAP1 SWAP2 SWAP1 PUSH4 0xFFFFFFFF AND JUMP JUMPDEST PUSH0 PUSH1 0x10 PUSH0 DUP2 SLOAD PUSH2 0x5C7B SWAP1 PUSH2 0x738B JUMP JUMPDEST SWAP2 SWAP1 POP DUP2 SWAP1 SSTORE SWAP1 POP DUP9 PUSH1 0x11 PUSH0 DUP4 DUP2 MSTORE PUSH1 0x20 ADD SWAP1 DUP2 MSTORE PUSH1 0x20 ADD PUSH0 KECCAK256 PUSH0 ADD DUP2 SWAP1 SSTORE POP DUP2 PUSH1 0x11 PUSH0 DUP4 DUP2 MSTORE PUSH1 0x20 ADD SWAP1 DUP2 MSTORE PUSH1 0x20 ADD PUSH0 KECCAK256 PUSH1 0x2 ADD PUSH0 PUSH2 0x100 EXP DUP2 SLOAD DUP2 PUSH20 0xFFFFFFFFFFFFFFFFFFFFFFFFFFFFFFFFFFFFFFFF MUL NOT AND SWAP1 DUP4 PUSH20 0xFFFFFFFFFFFFFFFFFFFFFFFFFFFFFFFFFFFFFFFF AND MUL OR SWAP1 SSTORE POP DUP2 DUP5 DUP5 DUP2 MLOAD DUP2 LT PUSH2 0x5D01 JUMPI PUSH2 0x5D00 PUSH2 0x720C JUMP JUMPDEST JUMPDEST PUSH1 0x20 MUL PUSH1 0x20 ADD ADD SWAP1 PUSH20 0xFFFFFFFFFFFFFFFFFFFFFFFFFFFFFFFFFFFFFFFF AND SWAP1 DUP2 PUSH20 0xFFFFFFFFFFFFFFFFFFFFFFFFFFFFFFFFFFFFFFFF AND DUP2 MSTORE POP POP PUSH2 0x5D8A DUP2 PUSH1 0x12 PUSH0 DUP6 PUSH20 0xFFFFFFFFFFFFFFFFFFFFFFFFFFFFFFFFFFFFFFFF AND PUSH20 0xFFFFFFFFFFFFFFFFFFFFFFFFFFFFFFFFFFFFFFFF AND DUP2 MSTORE PUSH1 0x20 ADD SWAP1 DUP2 MSTORE PUSH1 0x20 ADD PUSH0 KECCAK256 PUSH2 0x5F8A SWAP1 SWAP2 SWAP1 PUSH4 0xFFFFFFFF AND JUMP JUMPDEST PUSH2 0x5DAD DUP2 PUSH1 0x13 PUSH0 DUP13 DUP2 MSTORE PUSH1 0x20 ADD SWAP1 DUP2 MSTORE PUSH1 0x20 ADD PUSH0 KECCAK256 PUSH2 0x5F8A SWAP1 SWAP2 SWAP1 PUSH4 0xFFFFFFFF AND JUMP JUMPDEST DUP2 PUSH20 0xFFFFFFFFFFFFFFFFFFFFFFFFFFFFFFFFFFFFFFFF AND DUP10 DUP3 PUSH32 0x53CC8B652F33C56DAC5F1C97A284CC971E7ADCB8ABE9454B0853F076C6DEB7D5 DUP12 PUSH1 0x40 MLOAD PUSH2 0x5DF5 SWAP2 SWAP1 PUSH2 0x6A54 JUMP JUMPDEST PUSH1 0x40 MLOAD DUP1 SWAP2 SUB SWAP1 LOG4 POP POP DUP1 PUSH1 0x1 ADD SWAP1 POP PUSH2 0x5BF6 JUMP JUMPDEST POP PUSH0 JUMPDEST DUP3 DUP2 LT ISZERO PUSH2 0x5E4D JUMPI PUSH2 0x5E42 DUP3 DUP3 DUP2 MLOAD DUP2 LT PUSH2 0x5E2B JUMPI PUSH2 0x5E2A PUSH2 0x720C JUMP JUMPDEST JUMPDEST PUSH1 0x20 MUL PUSH1 0x20 ADD ADD MLOAD DUP6 PUSH2 0x5304 SWAP1 SWAP2 SWAP1 PUSH4 0xFFFFFFFF AND JUMP JUMPDEST DUP1 PUSH1 0x1 ADD SWAP1 POP PUSH2 0x5E0D JUMP JUMPDEST POP POP POP POP POP POP POP JUMP JUMPDEST PUSH0 DUP1 DUP3 PUSH20 0xFFFFFFFFFFFFFFFFFFFFFFFFFFFFFFFFFFFFFFFF AND EXTCODESIZE GT SWAP1 POP SWAP2 SWAP1 POP JUMP JUMPDEST PUSH1 0x83 PUSH1 0x1 SWAP1 SLOAD SWAP1 PUSH2 0x100 EXP SWAP1 DIV PUSH1 0xFF AND PUSH2 0x5EC7 JUMPI PUSH1 0x40 MLOAD PUSH32 0x8C379A000000000000000000000000000000000000000000000000000000000 DUP2 MSTORE PUSH1 0x4 ADD PUSH2 0x5EBE SWAP1 PUSH2 0x7C5D JUMP JUMPDEST PUSH1 0x40 MLOAD DUP1 SWAP2 SUB SWAP1 REVERT JUMPDEST PUSH2 0x5ECF PUSH2 0x602A JUMP JUMPDEST JUMP JUMPDEST PUSH1 0x83 PUSH1 0x1 SWAP1 SLOAD SWAP1 PUSH2 0x100 EXP SWAP1 DIV PUSH1 0xFF AND PUSH2 0x5F20 JUMPI PUSH1 0x40 MLOAD PUSH32 0x8C379A000000000000000000000000000000000000000000000000000000000 DUP2 MSTORE PUSH1 0x4 ADD PUSH2 0x5F17 SWAP1 PUSH2 0x7C5D JUMP JUMPDEST PUSH1 0x40 MLOAD DUP1 SWAP2 SUB SWAP1 REVERT JUMPDEST PUSH2 0x5F28 PUSH2 0x608B JUMP JUMPDEST JUMP JUMPDEST PUSH1 0x83 PUSH1 0x1 SWAP1 SLOAD SWAP1 PUSH2 0x100 EXP SWAP1 DIV PUSH1 0xFF AND PUSH2 0x5F79 JUMPI PUSH1 0x40 MLOAD PUSH32 0x8C379A000000000000000000000000000000000000000000000000000000000 DUP2 MSTORE PUSH1 0x4 ADD PUSH2 0x5F70 SWAP1 PUSH2 0x7C5D JUMP JUMPDEST PUSH1 0x40 MLOAD DUP1 SWAP2 SUB SWAP1 REVERT JUMPDEST PUSH2 0x5F81 PUSH2 0x60F5 JUMP JUMPDEST JUMP JUMPDEST PUSH0 CALLER SWAP1 POP SWAP1 JUMP JUMPDEST PUSH0 DUP3 PUSH1 0x1 ADD PUSH0 DUP4 DUP2 MSTORE PUSH1 0x20 ADD SWAP1 DUP2 MSTORE PUSH1 0x20 ADD PUSH0 KECCAK256 SLOAD EQ PUSH2 0x5FE1 JUMPI DUP1 PUSH1 0x40 MLOAD PUSH32 0x346C4A0E00000000000000000000000000000000000000000000000000000000 DUP2 MSTORE PUSH1 0x4 ADD PUSH2 0x5FD8 SWAP2 SWAP1 PUSH2 0x669E JUMP JUMPDEST PUSH1 0x40 MLOAD DUP1 SWAP2 SUB SWAP1 REVERT JUMPDEST DUP2 PUSH0 ADD DUP2 SWAP1 DUP1 PUSH1 0x1 DUP2 SLOAD ADD DUP1 DUP3 SSTORE DUP1 SWAP2 POP POP PUSH1 0x1 SWAP1 SUB SWAP1 PUSH0 MSTORE PUSH1 0x20 PUSH0 KECCAK256 ADD PUSH0 SWAP1 SWAP2 SWAP1 SWAP2 SWAP1 SWAP2 POP SSTORE DUP2 PUSH0 ADD DUP1 SLOAD SWAP1 POP DUP3 PUSH1 0x1 ADD PUSH0 DUP4 DUP2 MSTORE PUSH1 0x20 ADD SWAP1 DUP2 MSTORE PUSH1 0x20 ADD PUSH0 KECCAK256 DUP2 SWAP1 SSTORE POP POP POP JUMP JUMPDEST PUSH1 0x83 PUSH1 0x1 SWAP1 SLOAD SWAP1 PUSH2 0x100 EXP SWAP1 DIV PUSH1 0xFF AND PUSH2 0x6079 JUMPI PUSH1 0x40 MLOAD PUSH32 0x8C379A000000000000000000000000000000000000000000000000000000000 DUP2 MSTORE PUSH1 0x4 ADD PUSH2 0x6070 SWAP1 PUSH2 0x7C5D JUMP JUMPDEST PUSH1 0x40 MLOAD DUP1 SWAP2 SUB SWAP1 REVERT JUMPDEST PUSH2 0x6089 PUSH2 0x6084 PUSH2 0x5F83 JUMP JUMPDEST PUSH2 0x595B JUMP JUMPDEST JUMP JUMPDEST PUSH1 0x83 PUSH1 0x1 SWAP1 SLOAD SWAP1 PUSH2 0x100 EXP SWAP1 DIV PUSH1 0xFF AND PUSH2 0x60DA JUMPI PUSH1 0x40 MLOAD PUSH32 0x8C379A000000000000000000000000000000000000000000000000000000000 DUP2 MSTORE PUSH1 0x4 ADD PUSH2 0x60D1 SWAP1 PUSH2 0x7C5D JUMP JUMPDEST PUSH1 0x40 MLOAD DUP1 SWAP2 SUB SWAP1 REVERT JUMPDEST PUSH0 PUSH1 0xE8 PUSH0 PUSH2 0x100 EXP DUP2 SLOAD DUP2 PUSH1 0xFF MUL NOT AND SWAP1 DUP4 ISZERO ISZERO MUL OR SWAP1 SSTORE POP JUMP JUMPDEST PUSH1 0x83 PUSH1 0x1 SWAP1 SLOAD SWAP1 PUSH2 0x100 EXP SWAP1 DIV PUSH1 0xFF AND PUSH2 0x6144 JUMPI PUSH1 0x40 MLOAD PUSH32 0x8C379A000000000000000000000000000000000000000000000000000000000 DUP2 MSTORE PUSH1 0x4 ADD PUSH2 0x613B SWAP1 PUSH2 0x7C5D JUMP JUMPDEST PUSH1 0x40 MLOAD DUP1 SWAP2 SUB SWAP1 REVERT JUMPDEST PUSH1 0x1 PUSH2 0x11A DUP2 SWAP1 SSTORE POP JUMP JUMPDEST PUSH1 0x40 MLOAD DUP1 PUSH1 0xE0 ADD PUSH1 0x40 MSTORE DUP1 PUSH0 PUSH20 0xFFFFFFFFFFFFFFFFFFFFFFFFFFFFFFFFFFFFFFFF AND DUP2 MSTORE PUSH1 0x20 ADD PUSH0 DUP2 MSTORE PUSH1 0x20 ADD PUSH0 DUP2 MSTORE PUSH1 0x20 ADD PUSH0 PUSH20 0xFFFFFFFFFFFFFFFFFFFFFFFFFFFFFFFFFFFFFFFF AND DUP2 MSTORE PUSH1 0x20 ADD PUSH0 PUSH5 0xFFFFFFFFFF AND DUP2 MSTORE PUSH1 0x20 ADD PUSH0 PUSH5 0xFFFFFFFFFF AND DUP2 MSTORE PUSH1 0x20 ADD PUSH0 PUSH2 0xFFFF AND DUP2 MSTORE POP SWAP1 JUMP JUMPDEST PUSH1 0x40 MLOAD DUP1 PUSH1 0xE0 ADD PUSH1 0x40 MSTORE DUP1 PUSH0 DUP2 MSTORE PUSH1 0x20 ADD PUSH0 DUP2 MSTORE PUSH1 0x20 ADD PUSH0 DUP2 MSTORE PUSH1 0x20 ADD PUSH1 0x60 DUP2 MSTORE PUSH1 0x20 ADD PUSH0 PUSH20 0xFFFFFFFFFFFFFFFFFFFFFFFFFFFFFFFFFFFFFFFF AND DUP2 MSTORE PUSH1 0x20 ADD PUSH0 PUSH20 0xFFFFFFFFFFFFFFFFFFFFFFFFFFFFFFFFFFFFFFFF AND DUP2 MSTORE PUSH1 0x20 ADD PUSH0 PUSH5 0xFFFFFFFFFF AND DUP2 MSTORE POP SWAP1 JUMP JUMPDEST PUSH1 0x40 MLOAD DUP1 PUSH2 0x120 ADD PUSH1 0x40 MSTORE DUP1 PUSH0 DUP2 MSTORE PUSH1 0x20 ADD PUSH1 0x60 DUP2 MSTORE PUSH1 0x20 ADD PUSH1 0x60 DUP2 MSTORE PUSH1 0x20 ADD PUSH0 DUP2 MSTORE PUSH1 0x20 ADD PUSH0 PUSH20 0xFFFFFFFFFFFFFFFFFFFFFFFFFFFFFFFFFFFFFFFF AND DUP2 MSTORE PUSH1 0x20 ADD PUSH0 PUSH20 0xFFFFFFFFFFFFFFFFFFFFFFFFFFFFFFFFFFFFFFFF AND DUP2 MSTORE PUSH1 0x20 ADD PUSH0 PUSH5 0xFFFFFFFFFF AND DUP2 MSTORE PUSH1 0x20 ADD PUSH0 PUSH1 0x4 DUP2 GT ISZERO PUSH2 0x62AB JUMPI PUSH2 0x62AA PUSH2 0x6D36 JUMP JUMPDEST JUMPDEST DUP2 MSTORE PUSH1 0x20 ADD PUSH0 PUSH20 0xFFFFFFFFFFFFFFFFFFFFFFFFFFFFFFFFFFFFFFFF AND DUP2 MSTORE POP SWAP1 JUMP JUMPDEST PUSH0 DUP1 REVERT JUMPDEST PUSH0 DUP1 REVERT JUMPDEST PUSH0 DUP2 SWAP1 POP SWAP2 SWAP1 POP JUMP JUMPDEST PUSH2 0x62E7 DUP2 PUSH2 0x62D5 JUMP JUMPDEST DUP2 EQ PUSH2 0x62F1 JUMPI PUSH0 DUP1 REVERT JUMPDEST POP JUMP JUMPDEST PUSH0 DUP2 CALLDATALOAD SWAP1 POP PUSH2 0x6302 DUP2 PUSH2 0x62DE JUMP JUMPDEST SWAP3 SWAP2 POP POP JUMP JUMPDEST PUSH0 PUSH1 0x20 DUP3 DUP5 SUB SLT ISZERO PUSH2 0x631D JUMPI PUSH2 0x631C PUSH2 0x62CD JUMP JUMPDEST JUMPDEST PUSH0 PUSH2 0x632A DUP5 DUP3 DUP6 ADD PUSH2 0x62F4 JUMP JUMPDEST SWAP2 POP POP SWAP3 SWAP2 POP POP JUMP JUMPDEST PUSH0 PUSH2 0xFFFF DUP3 AND SWAP1 POP SWAP2 SWAP1 POP JUMP JUMPDEST PUSH2 0x6349 DUP2 PUSH2 0x6333 JUMP JUMPDEST DUP3 MSTORE POP POP JUMP JUMPDEST PUSH0 PUSH1 0x20 DUP3 ADD SWAP1 POP PUSH2 0x6362 PUSH0 DUP4 ADD DUP5 PUSH2 0x6340 JUMP JUMPDEST SWAP3 SWAP2 POP POP JUMP JUMPDEST PUSH0 PUSH20 0xFFFFFFFFFFFFFFFFFFFFFFFFFFFFFFFFFFFFFFFF DUP3 AND SWAP1 POP SWAP2 SWAP1 POP JUMP JUMPDEST PUSH0 PUSH2 0x6391 DUP3 PUSH2 0x6368 JUMP JUMPDEST SWAP1 POP SWAP2 SWAP1 POP JUMP JUMPDEST PUSH2 0x63A1 DUP2 PUSH2 0x6387 JUMP JUMPDEST DUP2 EQ PUSH2 0x63AB JUMPI PUSH0 DUP1 REVERT JUMPDEST POP JUMP JUMPDEST PUSH0 DUP2 CALLDATALOAD SWAP1 POP PUSH2 0x63BC DUP2 PUSH2 0x6398 JUMP JUMPDEST SWAP3 SWAP2 POP POP JUMP JUMPDEST PUSH0 PUSH4 0xFFFFFFFF DUP3 AND SWAP1 POP SWAP2 SWAP1 POP JUMP JUMPDEST PUSH2 0x63DA DUP2 PUSH2 0x63C2 JUMP JUMPDEST DUP2 EQ PUSH2 0x63E4 JUMPI PUSH0 DUP1 REVERT JUMPDEST POP JUMP JUMPDEST PUSH0 DUP2 CALLDATALOAD SWAP1 POP PUSH2 0x63F5 DUP2 PUSH2 0x63D1 JUMP JUMPDEST SWAP3 SWAP2 POP POP JUMP JUMPDEST PUSH0 DUP1 PUSH1 0x40 DUP4 DUP6 SUB SLT ISZERO PUSH2 0x6411 JUMPI PUSH2 0x6410 PUSH2 0x62CD JUMP JUMPDEST JUMPDEST PUSH0 PUSH2 0x641E DUP6 DUP3 DUP7 ADD PUSH2 0x63AE JUMP JUMPDEST SWAP3 POP POP PUSH1 0x20 PUSH2 0x642F DUP6 DUP3 DUP7 ADD PUSH2 0x63E7 JUMP JUMPDEST SWAP2 POP POP SWAP3 POP SWAP3 SWAP1 POP JUMP JUMPDEST PUSH0 DUP2 MLOAD SWAP1 POP SWAP2 SWAP1 POP JUMP JUMPDEST PUSH0 DUP3 DUP3 MSTORE PUSH1 0x20 DUP3 ADD SWAP1 POP SWAP3 SWAP2 POP POP JUMP JUMPDEST PUSH0 DUP2 SWAP1 POP PUSH1 0x20 DUP3 ADD SWAP1 POP SWAP2 SWAP1 POP JUMP JUMPDEST PUSH2 0x646B DUP2 PUSH2 0x6387 JUMP JUMPDEST DUP3 MSTORE POP POP JUMP JUMPDEST PUSH2 0x647A DUP2 PUSH2 0x62D5 JUMP JUMPDEST DUP3 MSTORE POP POP JUMP JUMPDEST PUSH0 PUSH5 0xFFFFFFFFFF DUP3 AND SWAP1 POP SWAP2 SWAP1 POP JUMP JUMPDEST PUSH2 0x6499 DUP2 PUSH2 0x6480 JUMP JUMPDEST DUP3 MSTORE POP POP JUMP JUMPDEST PUSH2 0x64A8 DUP2 PUSH2 0x6333 JUMP JUMPDEST DUP3 MSTORE POP POP JUMP JUMPDEST PUSH1 0xE0 DUP3 ADD PUSH0 DUP3 ADD MLOAD PUSH2 0x64C2 PUSH0 DUP6 ADD DUP3 PUSH2 0x6462 JUMP JUMPDEST POP PUSH1 0x20 DUP3 ADD MLOAD PUSH2 0x64D5 PUSH1 0x20 DUP6 ADD DUP3 PUSH2 0x6471 JUMP JUMPDEST POP PUSH1 0x40 DUP3 ADD MLOAD PUSH2 0x64E8 PUSH1 0x40 DUP6 ADD DUP3 PUSH2 0x6471 JUMP JUMPDEST POP PUSH1 0x60 DUP3 ADD MLOAD PUSH2 0x64FB PUSH1 0x60 DUP6 ADD DUP3 PUSH2 0x6462 JUMP JUMPDEST POP PUSH1 0x80 DUP3 ADD MLOAD PUSH2 0x650E PUSH1 0x80 DUP6 ADD DUP3 PUSH2 0x6490 JUMP JUMPDEST POP PUSH1 0xA0 DUP3 ADD MLOAD PUSH2 0x6521 PUSH1 0xA0 DUP6 ADD DUP3 PUSH2 0x6490 JUMP JUMPDEST POP PUSH1 0xC0 DUP3 ADD MLOAD PUSH2 0x6534 PUSH1 0xC0 DUP6 ADD DUP3 PUSH2 0x649F JUMP JUMPDEST POP POP POP POP JUMP JUMPDEST PUSH0 PUSH2 0x6545 DUP4 DUP4 PUSH2 0x64AE JUMP JUMPDEST PUSH1 0xE0 DUP4 ADD SWAP1 POP SWAP3 SWAP2 POP POP JUMP JUMPDEST PUSH0 PUSH1 0x20 DUP3 ADD SWAP1 POP SWAP2 SWAP1 POP JUMP JUMPDEST PUSH0 PUSH2 0x6567 DUP3 PUSH2 0x6439 JUMP JUMPDEST PUSH2 0x6571 DUP2 DUP6 PUSH2 0x6443 JUMP JUMPDEST SWAP4 POP PUSH2 0x657C DUP4 PUSH2 0x6453 JUMP JUMPDEST DUP1 PUSH0 JUMPDEST DUP4 DUP2 LT ISZERO PUSH2 0x65AC JUMPI DUP2 MLOAD PUSH2 0x6593 DUP9 DUP3 PUSH2 0x653A JUMP JUMPDEST SWAP8 POP PUSH2 0x659E DUP4 PUSH2 0x6551 JUMP JUMPDEST SWAP3 POP POP PUSH1 0x1 DUP2 ADD SWAP1 POP PUSH2 0x657F JUMP JUMPDEST POP DUP6 SWAP4 POP POP POP POP SWAP3 SWAP2 POP POP JUMP JUMPDEST PUSH0 PUSH1 0x20 DUP3 ADD SWAP1 POP DUP2 DUP2 SUB PUSH0 DUP4 ADD MSTORE PUSH2 0x65D1 DUP2 DUP5 PUSH2 0x655D JUMP JUMPDEST SWAP1 POP SWAP3 SWAP2 POP POP JUMP JUMPDEST PUSH0 PUSH1 0x20 DUP3 DUP5 SUB SLT ISZERO PUSH2 0x65EE JUMPI PUSH2 0x65ED PUSH2 0x62CD JUMP JUMPDEST JUMPDEST PUSH0 PUSH2 0x65FB DUP5 DUP3 DUP6 ADD PUSH2 0x63AE JUMP JUMPDEST SWAP2 POP POP SWAP3 SWAP2 POP POP JUMP JUMPDEST PUSH2 0x660D DUP2 PUSH2 0x62D5 JUMP JUMPDEST DUP3 MSTORE POP POP JUMP JUMPDEST PUSH2 0x661C DUP2 PUSH2 0x6480 JUMP JUMPDEST DUP3 MSTORE POP POP JUMP JUMPDEST PUSH0 PUSH1 0x40 DUP3 ADD SWAP1 POP PUSH2 0x6635 PUSH0 DUP4 ADD DUP6 PUSH2 0x6604 JUMP JUMPDEST PUSH2 0x6642 PUSH1 0x20 DUP4 ADD DUP5 PUSH2 0x6613 JUMP JUMPDEST SWAP4 SWAP3 POP POP POP JUMP JUMPDEST PUSH2 0x6652 DUP2 PUSH2 0x6333 JUMP JUMPDEST DUP2 EQ PUSH2 0x665C JUMPI PUSH0 DUP1 REVERT JUMPDEST POP JUMP JUMPDEST PUSH0 DUP2 CALLDATALOAD SWAP1 POP PUSH2 0x666D DUP2 PUSH2 0x6649 JUMP JUMPDEST SWAP3 SWAP2 POP POP JUMP JUMPDEST PUSH0 PUSH1 0x20 DUP3 DUP5 SUB SLT ISZERO PUSH2 0x6688 JUMPI PUSH2 0x6687 PUSH2 0x62CD JUMP JUMPDEST JUMPDEST PUSH0 PUSH2 0x6695 DUP5 DUP3 DUP6 ADD PUSH2 0x665F JUMP JUMPDEST SWAP2 POP POP SWAP3 SWAP2 POP POP JUMP JUMPDEST PUSH0 PUSH1 0x20 DUP3 ADD SWAP1 POP PUSH2 0x66B1 PUSH0 DUP4 ADD DUP5 PUSH2 0x6604 JUMP JUMPDEST SWAP3 SWAP2 POP POP JUMP JUMPDEST PUSH2 0x66C0 DUP2 PUSH2 0x6480 JUMP JUMPDEST DUP2 EQ PUSH2 0x66CA JUMPI PUSH0 DUP1 REVERT JUMPDEST POP JUMP JUMPDEST PUSH0 DUP2 CALLDATALOAD SWAP1 POP PUSH2 0x66DB DUP2 PUSH2 0x66B7 JUMP JUMPDEST SWAP3 SWAP2 POP POP JUMP JUMPDEST PUSH0 PUSH1 0x20 DUP3 DUP5 SUB SLT ISZERO PUSH2 0x66F6 JUMPI PUSH2 0x66F5 PUSH2 0x62CD JUMP JUMPDEST JUMPDEST PUSH0 PUSH2 0x6703 DUP5 DUP3 DUP6 ADD PUSH2 0x66CD JUMP JUMPDEST SWAP2 POP POP SWAP3 SWAP2 POP POP JUMP JUMPDEST PUSH0 DUP2 MLOAD SWAP1 POP SWAP2 SWAP1 POP JUMP JUMPDEST PUSH0 DUP3 DUP3 MSTORE PUSH1 0x20 DUP3 ADD SWAP1 POP SWAP3 SWAP2 POP POP JUMP JUMPDEST PUSH0 DUP2 SWAP1 POP PUSH1 0x20 DUP3 ADD SWAP1 POP SWAP2 SWAP1 POP JUMP JUMPDEST PUSH0 DUP2 MLOAD SWAP1 POP SWAP2 SWAP1 POP JUMP JUMPDEST PUSH0 DUP3 DUP3 MSTORE PUSH1 0x20 DUP3 ADD SWAP1 POP SWAP3 SWAP2 POP POP JUMP JUMPDEST DUP3 DUP2 DUP4 MCOPY PUSH0 DUP4 DUP4 ADD MSTORE POP POP POP JUMP JUMPDEST PUSH0 PUSH1 0x1F NOT PUSH1 0x1F DUP4 ADD AND SWAP1 POP SWAP2 SWAP1 POP JUMP JUMPDEST PUSH0 PUSH2 0x6777 DUP3 PUSH2 0x6735 JUMP JUMPDEST PUSH2 0x6781 DUP2 DUP6 PUSH2 0x673F JUMP JUMPDEST SWAP4 POP PUSH2 0x6791 DUP2 DUP6 PUSH1 0x20 DUP7 ADD PUSH2 0x674F JUMP JUMPDEST PUSH2 0x679A DUP2 PUSH2 0x675D JUMP JUMPDEST DUP5 ADD SWAP2 POP POP SWAP3 SWAP2 POP POP JUMP JUMPDEST PUSH0 PUSH1 0xE0 DUP4 ADD PUSH0 DUP4 ADD MLOAD PUSH2 0x67BA PUSH0 DUP7 ADD DUP3 PUSH2 0x6471 JUMP JUMPDEST POP PUSH1 0x20 DUP4 ADD MLOAD PUSH2 0x67CD PUSH1 0x20 DUP7 ADD DUP3 PUSH2 0x6471 JUMP JUMPDEST POP PUSH1 0x40 DUP4 ADD MLOAD PUSH2 0x67E0 PUSH1 0x40 DUP7 ADD DUP3 PUSH2 0x6471 JUMP JUMPDEST POP PUSH1 0x60 DUP4 ADD MLOAD DUP5 DUP3 SUB PUSH1 0x60 DUP7 ADD MSTORE PUSH2 0x67F8 DUP3 DUP3 PUSH2 0x676D JUMP JUMPDEST SWAP2 POP POP PUSH1 0x80 DUP4 ADD MLOAD PUSH2 0x680D PUSH1 0x80 DUP7 ADD DUP3 PUSH2 0x6462 JUMP JUMPDEST POP PUSH1 0xA0 DUP4 ADD MLOAD PUSH2 0x6820 PUSH1 0xA0 DUP7 ADD DUP3 PUSH2 0x6462 JUMP JUMPDEST POP PUSH1 0xC0 DUP4 ADD MLOAD PUSH2 0x6833 PUSH1 0xC0 DUP7 ADD DUP3 PUSH2 0x6490 JUMP JUMPDEST POP DUP1 SWAP2 POP POP SWAP3 SWAP2 POP POP JUMP JUMPDEST PUSH0 PUSH2 0x6849 DUP4 DUP4 PUSH2 0x67A5 JUMP JUMPDEST SWAP1 POP SWAP3 SWAP2 POP POP JUMP JUMPDEST PUSH0 PUSH1 0x20 DUP3 ADD SWAP1 POP SWAP2 SWAP1 POP JUMP JUMPDEST PUSH0 PUSH2 0x6867 DUP3 PUSH2 0x670C JUMP JUMPDEST PUSH2 0x6871 DUP2 DUP6 PUSH2 0x6716 JUMP JUMPDEST SWAP4 POP DUP4 PUSH1 0x20 DUP3 MUL DUP6 ADD PUSH2 0x6883 DUP6 PUSH2 0x6726 JUMP JUMPDEST DUP1 PUSH0 JUMPDEST DUP6 DUP2 LT ISZERO PUSH2 0x68BE JUMPI DUP5 DUP5 SUB DUP10 MSTORE DUP2 MLOAD PUSH2 0x689F DUP6 DUP3 PUSH2 0x683E JUMP JUMPDEST SWAP5 POP PUSH2 0x68AA DUP4 PUSH2 0x6851 JUMP JUMPDEST SWAP3 POP PUSH1 0x20 DUP11 ADD SWAP10 POP POP PUSH1 0x1 DUP2 ADD SWAP1 POP PUSH2 0x6886 JUMP JUMPDEST POP DUP3 SWAP8 POP DUP8 SWAP6 POP POP POP POP POP POP SWAP3 SWAP2 POP POP JUMP JUMPDEST PUSH0 PUSH1 0x20 DUP3 ADD SWAP1 POP DUP2 DUP2 SUB PUSH0 DUP4 ADD MSTORE PUSH2 0x68E8 DUP2 DUP5 PUSH2 0x685D JUMP JUMPDEST SWAP1 POP SWAP3 SWAP2 POP POP JUMP JUMPDEST PUSH0 DUP3 DUP3 MSTORE PUSH1 0x20 DUP3 ADD SWAP1 POP SWAP3 SWAP2 POP POP JUMP JUMPDEST PUSH0 PUSH2 0x690A DUP3 PUSH2 0x6735 JUMP JUMPDEST PUSH2 0x6914 DUP2 DUP6 PUSH2 0x68F0 JUMP JUMPDEST SWAP4 POP PUSH2 0x6924 DUP2 DUP6 PUSH1 0x20 DUP7 ADD PUSH2 0x674F JUMP JUMPDEST PUSH2 0x692D DUP2 PUSH2 0x675D JUMP JUMPDEST DUP5 ADD SWAP2 POP POP SWAP3 SWAP2 POP POP JUMP JUMPDEST PUSH2 0x6941 DUP2 PUSH2 0x6387 JUMP JUMPDEST DUP3 MSTORE POP POP JUMP JUMPDEST PUSH0 PUSH1 0xFF DUP3 AND SWAP1 POP SWAP2 SWAP1 POP JUMP JUMPDEST PUSH2 0x695C DUP2 PUSH2 0x6947 JUMP JUMPDEST DUP3 MSTORE POP POP JUMP JUMPDEST PUSH0 PUSH1 0x80 DUP3 ADD SWAP1 POP PUSH2 0x6975 PUSH0 DUP4 ADD DUP8 PUSH2 0x6604 JUMP JUMPDEST DUP2 DUP2 SUB PUSH1 0x20 DUP4 ADD MSTORE PUSH2 0x6987 DUP2 DUP7 PUSH2 0x6900 JUMP JUMPDEST SWAP1 POP PUSH2 0x6996 PUSH1 0x40 DUP4 ADD DUP6 PUSH2 0x6938 JUMP JUMPDEST PUSH2 0x69A3 PUSH1 0x60 DUP4 ADD DUP5 PUSH2 0x6953 JUMP JUMPDEST SWAP6 SWAP5 POP POP POP POP POP JUMP JUMPDEST PUSH2 0x69B5 DUP2 PUSH2 0x63C2 JUMP JUMPDEST DUP3 MSTORE POP POP JUMP JUMPDEST PUSH0 PUSH1 0x40 DUP3 ADD SWAP1 POP PUSH2 0x69CE PUSH0 DUP4 ADD DUP6 PUSH2 0x6604 JUMP JUMPDEST PUSH2 0x69DB PUSH1 0x20 DUP4 ADD DUP5 PUSH2 0x69AC JUMP JUMPDEST SWAP4 SWAP3 POP POP POP JUMP JUMPDEST PUSH0 DUP2 MLOAD SWAP1 POP SWAP2 SWAP1 POP JUMP JUMPDEST PUSH0 DUP3 DUP3 MSTORE PUSH1 0x20 DUP3 ADD SWAP1 POP SWAP3 SWAP2 POP POP JUMP JUMPDEST PUSH0 PUSH2 0x6A06 DUP3 PUSH2 0x69E2 JUMP JUMPDEST PUSH2 0x6A10 DUP2 DUP6 PUSH2 0x69EC JUMP JUMPDEST SWAP4 POP PUSH2 0x6A20 DUP2 DUP6 PUSH1 0x20 DUP7 ADD PUSH2 0x674F JUMP JUMPDEST PUSH2 0x6A29 DUP2 PUSH2 0x675D JUMP JUMPDEST DUP5 ADD SWAP2 POP POP SWAP3 SWAP2 POP POP JUMP JUMPDEST PUSH0 PUSH1 0x20 DUP3 ADD SWAP1 POP DUP2 DUP2 SUB PUSH0 DUP4 ADD MSTORE PUSH2 0x6A4C DUP2 DUP5 PUSH2 0x69FC JUMP JUMPDEST SWAP1 POP SWAP3 SWAP2 POP POP JUMP JUMPDEST PUSH0 PUSH1 0x20 DUP3 ADD SWAP1 POP PUSH2 0x6A67 PUSH0 DUP4 ADD DUP5 PUSH2 0x6613 JUMP JUMPDEST SWAP3 SWAP2 POP POP JUMP JUMPDEST PUSH0 DUP2 ISZERO ISZERO SWAP1 POP SWAP2 SWAP1 POP JUMP JUMPDEST PUSH2 0x6A81 DUP2 PUSH2 0x6A6D JUMP JUMPDEST DUP3 MSTORE POP POP JUMP JUMPDEST PUSH0 PUSH1 0x20 DUP3 ADD SWAP1 POP PUSH2 0x6A9A PUSH0 DUP4 ADD DUP5 PUSH2 0x6A78 JUMP JUMPDEST SWAP3 SWAP2 POP POP JUMP JUMPDEST PUSH0 PUSH1 0x20 DUP3 ADD SWAP1 POP PUSH2 0x6AB3 PUSH0 DUP4 ADD DUP5 PUSH2 0x6938 JUMP JUMPDEST SWAP3 SWAP2 POP POP JUMP JUMPDEST PUSH0 PUSH1 0xC0 DUP3 ADD SWAP1 POP PUSH2 0x6ACC PUSH0 DUP4 ADD DUP10 PUSH2 0x6604 JUMP JUMPDEST PUSH2 0x6AD9 PUSH1 0x20 DUP4 ADD DUP9 PUSH2 0x6604 JUMP JUMPDEST PUSH2 0x6AE6 PUSH1 0x40 DUP4 ADD DUP8 PUSH2 0x6938 JUMP JUMPDEST PUSH2 0x6AF3 PUSH1 0x60 DUP4 ADD DUP7 PUSH2 0x6613 JUMP JUMPDEST PUSH2 0x6B00 PUSH1 0x80 DUP4 ADD DUP6 PUSH2 0x6613 JUMP JUMPDEST PUSH2 0x6B0D PUSH1 0xA0 DUP4 ADD DUP5 PUSH2 0x6340 JUMP JUMPDEST SWAP8 SWAP7 POP POP POP POP POP POP POP JUMP JUMPDEST PUSH0 PUSH1 0x80 DUP3 ADD SWAP1 POP PUSH2 0x6B2B PUSH0 DUP4 ADD DUP8 PUSH2 0x6604 JUMP JUMPDEST PUSH2 0x6B38 PUSH1 0x20 DUP4 ADD DUP7 PUSH2 0x6604 JUMP JUMPDEST PUSH2 0x6B45 PUSH1 0x40 DUP4 ADD DUP6 PUSH2 0x6604 JUMP JUMPDEST PUSH2 0x6B52 PUSH1 0x60 DUP4 ADD DUP5 PUSH2 0x6604 JUMP JUMPDEST SWAP6 SWAP5 POP POP POP POP POP JUMP JUMPDEST PUSH0 DUP1 PUSH1 0x40 DUP4 DUP6 SUB SLT ISZERO PUSH2 0x6B71 JUMPI PUSH2 0x6B70 PUSH2 0x62CD JUMP JUMPDEST JUMPDEST PUSH0 PUSH2 0x6B7E DUP6 DUP3 DUP7 ADD PUSH2 0x63AE JUMP JUMPDEST SWAP3 POP POP PUSH1 0x20 PUSH2 0x6B8F DUP6 DUP3 DUP7 ADD PUSH2 0x62F4 JUMP JUMPDEST SWAP2 POP POP SWAP3 POP SWAP3 SWAP1 POP JUMP JUMPDEST PUSH0 DUP2 MLOAD SWAP1 POP SWAP2 SWAP1 POP JUMP JUMPDEST PUSH0 DUP3 DUP3 MSTORE PUSH1 0x20 DUP3 ADD SWAP1 POP SWAP3 SWAP2 POP POP JUMP JUMPDEST PUSH0 DUP2 SWAP1 POP PUSH1 0x20 DUP3 ADD SWAP1 POP SWAP2 SWAP1 POP JUMP JUMPDEST PUSH0 PUSH2 0x6BCD DUP4 DUP4 PUSH2 0x6462 JUMP JUMPDEST PUSH1 0x20 DUP4 ADD SWAP1 POP SWAP3 SWAP2 POP POP JUMP JUMPDEST PUSH0 PUSH1 0x20 DUP3 ADD SWAP1 POP SWAP2 SWAP1 POP JUMP JUMPDEST PUSH0 PUSH2 0x6BEF DUP3 PUSH2 0x6B99 JUMP JUMPDEST PUSH2 0x6BF9 DUP2 DUP6 PUSH2 0x6BA3 JUMP JUMPDEST SWAP4 POP PUSH2 0x6C04 DUP4 PUSH2 0x6BB3 JUMP JUMPDEST DUP1 PUSH0 JUMPDEST DUP4 DUP2 LT ISZERO PUSH2 0x6C34 JUMPI DUP2 MLOAD PUSH2 0x6C1B DUP9 DUP3 PUSH2 0x6BC2 JUMP JUMPDEST SWAP8 POP PUSH2 0x6C26 DUP4 PUSH2 0x6BD9 JUMP JUMPDEST SWAP3 POP POP PUSH1 0x1 DUP2 ADD SWAP1 POP PUSH2 0x6C07 JUMP JUMPDEST POP DUP6 SWAP4 POP POP POP POP SWAP3 SWAP2 POP POP JUMP JUMPDEST PUSH0 PUSH1 0x20 DUP3 ADD SWAP1 POP DUP2 DUP2 SUB PUSH0 DUP4 ADD MSTORE PUSH2 0x6C59 DUP2 DUP5 PUSH2 0x6BE5 JUMP JUMPDEST SWAP1 POP SWAP3 SWAP2 POP POP JUMP JUMPDEST PUSH0 DUP1 REVERT JUMPDEST PUSH0 DUP1 REVERT JUMPDEST PUSH0 DUP1 REVERT JUMPDEST PUSH0 DUP1 DUP4 PUSH1 0x1F DUP5 ADD SLT PUSH2 0x6C82 JUMPI PUSH2 0x6C81 PUSH2 0x6C61 JUMP JUMPDEST JUMPDEST DUP3 CALLDATALOAD SWAP1 POP PUSH8 0xFFFFFFFFFFFFFFFF DUP2 GT ISZERO PUSH2 0x6C9F JUMPI PUSH2 0x6C9E PUSH2 0x6C65 JUMP JUMPDEST JUMPDEST PUSH1 0x20 DUP4 ADD SWAP2 POP DUP4 PUSH1 0x20 DUP3 MUL DUP4 ADD GT ISZERO PUSH2 0x6CBB JUMPI PUSH2 0x6CBA PUSH2 0x6C69 JUMP JUMPDEST JUMPDEST SWAP3 POP SWAP3 SWAP1 POP JUMP JUMPDEST PUSH0 DUP1 PUSH1 0x20 DUP4 DUP6 SUB SLT ISZERO PUSH2 0x6CD8 JUMPI PUSH2 0x6CD7 PUSH2 0x62CD JUMP JUMPDEST JUMPDEST PUSH0 DUP4 ADD CALLDATALOAD PUSH8 0xFFFFFFFFFFFFFFFF DUP2 GT ISZERO PUSH2 0x6CF5 JUMPI PUSH2 0x6CF4 PUSH2 0x62D1 JUMP JUMPDEST JUMPDEST PUSH2 0x6D01 DUP6 DUP3 DUP7 ADD PUSH2 0x6C6D JUMP JUMPDEST SWAP3 POP SWAP3 POP POP SWAP3 POP SWAP3 SWAP1 POP JUMP JUMPDEST PUSH0 DUP2 MLOAD SWAP1 POP SWAP2 SWAP1 POP JUMP JUMPDEST PUSH0 DUP3 DUP3 MSTORE PUSH1 0x20 DUP3 ADD SWAP1 POP SWAP3 SWAP2 POP POP JUMP JUMPDEST PUSH0 DUP2 SWAP1 POP PUSH1 0x20 DUP3 ADD SWAP1 POP SWAP2 SWAP1 POP JUMP JUMPDEST PUSH32 0x4E487B7100000000000000000000000000000000000000000000000000000000 PUSH0 MSTORE PUSH1 0x21 PUSH1 0x4 MSTORE PUSH1 0x24 PUSH0 REVERT JUMPDEST PUSH1 0x5 DUP2 LT PUSH2 0x6D74 JUMPI PUSH2 0x6D73 PUSH2 0x6D36 JUMP JUMPDEST JUMPDEST POP JUMP JUMPDEST PUSH0 DUP2 SWAP1 POP PUSH2 0x6D84 DUP3 PUSH2 0x6D63 JUMP JUMPDEST SWAP2 SWAP1 POP JUMP JUMPDEST PUSH0 PUSH2 0x6D93 DUP3 PUSH2 0x6D77 JUMP JUMPDEST SWAP1 POP SWAP2 SWAP1 POP JUMP JUMPDEST PUSH2 0x6DA3 DUP2 PUSH2 0x6D89 JUMP JUMPDEST DUP3 MSTORE POP POP JUMP JUMPDEST PUSH0 PUSH2 0x120 DUP4 ADD PUSH0 DUP4 ADD MLOAD PUSH2 0x6DBF PUSH0 DUP7 ADD DUP3 PUSH2 0x6471 JUMP JUMPDEST POP PUSH1 0x20 DUP4 ADD MLOAD DUP5 DUP3 SUB PUSH1 0x20 DUP7 ADD MSTORE PUSH2 0x6DD7 DUP3 DUP3 PUSH2 0x676D JUMP JUMPDEST SWAP2 POP POP PUSH1 0x40 DUP4 ADD MLOAD DUP5 DUP3 SUB PUSH1 0x40 DUP7 ADD MSTORE PUSH2 0x6DF1 DUP3 DUP3 PUSH2 0x676D JUMP JUMPDEST SWAP2 POP POP PUSH1 0x60 DUP4 ADD MLOAD PUSH2 0x6E06 PUSH1 0x60 DUP7 ADD DUP3 PUSH2 0x6471 JUMP JUMPDEST POP PUSH1 0x80 DUP4 ADD MLOAD PUSH2 0x6E19 PUSH1 0x80 DUP7 ADD DUP3 PUSH2 0x6462 JUMP JUMPDEST POP PUSH1 0xA0 DUP4 ADD MLOAD PUSH2 0x6E2C PUSH1 0xA0 DUP7 ADD DUP3 PUSH2 0x6462 JUMP JUMPDEST POP PUSH1 0xC0 DUP4 ADD MLOAD PUSH2 0x6E3F PUSH1 0xC0 DUP7 ADD DUP3 PUSH2 0x6490 JUMP JUMPDEST POP PUSH1 0xE0 DUP4 ADD MLOAD PUSH2 0x6E52 PUSH1 0xE0 DUP7 ADD DUP3 PUSH2 0x6D9A JUMP JUMPDEST POP PUSH2 0x100 DUP4 ADD MLOAD PUSH2 0x6E67 PUSH2 0x100 DUP7 ADD DUP3 PUSH2 0x6462 JUMP JUMPDEST POP DUP1 SWAP2 POP POP SWAP3 SWAP2 POP POP JUMP JUMPDEST PUSH0 PUSH2 0x6E7D DUP4 DUP4 PUSH2 0x6DA9 JUMP JUMPDEST SWAP1 POP SWAP3 SWAP2 POP POP JUMP JUMPDEST PUSH0 PUSH1 0x20 DUP3 ADD SWAP1 POP SWAP2 SWAP1 POP JUMP JUMPDEST PUSH0 PUSH2 0x6E9B DUP3 PUSH2 0x6D0D JUMP JUMPDEST PUSH2 0x6EA5 DUP2 DUP6 PUSH2 0x6D17 JUMP JUMPDEST SWAP4 POP DUP4 PUSH1 0x20 DUP3 MUL DUP6 ADD PUSH2 0x6EB7 DUP6 PUSH2 0x6D27 JUMP JUMPDEST DUP1 PUSH0 JUMPDEST DUP6 DUP2 LT ISZERO PUSH2 0x6EF2 JUMPI DUP5 DUP5 SUB DUP10 MSTORE DUP2 MLOAD PUSH2 0x6ED3 DUP6 DUP3 PUSH2 0x6E72 JUMP JUMPDEST SWAP5 POP PUSH2 0x6EDE DUP4 PUSH2 0x6E85 JUMP JUMPDEST SWAP3 POP PUSH1 0x20 DUP11 ADD SWAP10 POP POP PUSH1 0x1 DUP2 ADD SWAP1 POP PUSH2 0x6EBA JUMP JUMPDEST POP DUP3 SWAP8 POP DUP8 SWAP6 POP POP POP POP POP POP SWAP3 SWAP2 POP POP JUMP JUMPDEST PUSH0 PUSH1 0x20 DUP3 ADD SWAP1 POP DUP2 DUP2 SUB PUSH0 DUP4 ADD MSTORE PUSH2 0x6F1C DUP2 DUP5 PUSH2 0x6E91 JUMP JUMPDEST SWAP1 POP SWAP3 SWAP2 POP POP JUMP JUMPDEST PUSH0 DUP1 PUSH0 PUSH1 0x60 DUP5 DUP7 SUB SLT ISZERO PUSH2 0x6F3B JUMPI PUSH2 0x6F3A PUSH2 0x62CD JUMP JUMPDEST JUMPDEST PUSH0 PUSH2 0x6F48 DUP7 DUP3 DUP8 ADD PUSH2 0x63AE JUMP JUMPDEST SWAP4 POP POP PUSH1 0x20 PUSH2 0x6F59 DUP7 DUP3 DUP8 ADD PUSH2 0x665F JUMP JUMPDEST SWAP3 POP POP PUSH1 0x40 PUSH2 0x6F6A DUP7 DUP3 DUP8 ADD PUSH2 0x62F4 JUMP JUMPDEST SWAP2 POP POP SWAP3 POP SWAP3 POP SWAP3 JUMP JUMPDEST PUSH0 DUP1 DUP4 PUSH1 0x1F DUP5 ADD SLT PUSH2 0x6F89 JUMPI PUSH2 0x6F88 PUSH2 0x6C61 JUMP JUMPDEST JUMPDEST DUP3 CALLDATALOAD SWAP1 POP PUSH8 0xFFFFFFFFFFFFFFFF DUP2 GT ISZERO PUSH2 0x6FA6 JUMPI PUSH2 0x6FA5 PUSH2 0x6C65 JUMP JUMPDEST JUMPDEST PUSH1 0x20 DUP4 ADD SWAP2 POP DUP4 PUSH1 0x1 DUP3 MUL DUP4 ADD GT ISZERO PUSH2 0x6FC2 JUMPI PUSH2 0x6FC1 PUSH2 0x6C69 JUMP JUMPDEST JUMPDEST SWAP3 POP SWAP3 SWAP1 POP JUMP JUMPDEST PUSH0 DUP1 PUSH0 PUSH1 0x40 DUP5 DUP7 SUB SLT ISZERO PUSH2 0x6FE0 JUMPI PUSH2 0x6FDF PUSH2 0x62CD JUMP JUMPDEST JUMPDEST PUSH0 DUP5 ADD CALLDATALOAD PUSH8 0xFFFFFFFFFFFFFFFF DUP2 GT ISZERO PUSH2 0x6FFD JUMPI PUSH2 0x6FFC PUSH2 0x62D1 JUMP JUMPDEST JUMPDEST PUSH2 0x7009 DUP7 DUP3 DUP8 ADD PUSH2 0x6F74 JUMP JUMPDEST SWAP4 POP SWAP4 POP POP PUSH1 0x20 PUSH2 0x701C DUP7 DUP3 DUP8 ADD PUSH2 0x63AE JUMP JUMPDEST SWAP2 POP POP SWAP3 POP SWAP3 POP SWAP3 JUMP JUMPDEST PUSH0 PUSH1 0x20 DUP3 ADD SWAP1 POP PUSH2 0x7039 PUSH0 DUP4 ADD DUP5 PUSH2 0x6953 JUMP JUMPDEST SWAP3 SWAP2 POP POP JUMP JUMPDEST PUSH0 DUP1 PUSH0 PUSH1 0x40 DUP5 DUP7 SUB SLT ISZERO PUSH2 0x7056 JUMPI PUSH2 0x7055 PUSH2 0x62CD JUMP JUMPDEST JUMPDEST PUSH0 PUSH2 0x7063 DUP7 DUP3 DUP8 ADD PUSH2 0x62F4 JUMP JUMPDEST SWAP4 POP POP PUSH1 0x20 DUP5 ADD CALLDATALOAD PUSH8 0xFFFFFFFFFFFFFFFF DUP2 GT ISZERO PUSH2 0x7084 JUMPI PUSH2 0x7083 PUSH2 0x62D1 JUMP JUMPDEST JUMPDEST PUSH2 0x7090 DUP7 DUP3 DUP8 ADD PUSH2 0x6F74 JUMP JUMPDEST SWAP3 POP SWAP3 POP POP SWAP3 POP SWAP3 POP SWAP3 JUMP JUMPDEST PUSH2 0x70A5 DUP2 PUSH2 0x6947 JUMP JUMPDEST DUP2 EQ PUSH2 0x70AF JUMPI PUSH0 DUP1 REVERT JUMPDEST POP JUMP JUMPDEST PUSH0 DUP2 CALLDATALOAD SWAP1 POP PUSH2 0x70C0 DUP2 PUSH2 0x709C JUMP JUMPDEST SWAP3 SWAP2 POP POP JUMP JUMPDEST PUSH0 DUP1 PUSH0 DUP1 PUSH0 DUP1 PUSH0 DUP1 PUSH0 DUP1 PUSH2 0x140 DUP12 DUP14 SUB SLT ISZERO PUSH2 0x70E5 JUMPI PUSH2 0x70E4 PUSH2 0x62CD JUMP JUMPDEST JUMPDEST PUSH0 PUSH2 0x70F2 DUP14 DUP3 DUP15 ADD PUSH2 0x63AE JUMP JUMPDEST SWAP11 POP POP PUSH1 0x20 PUSH2 0x7103 DUP14 DUP3 DUP15 ADD PUSH2 0x665F JUMP JUMPDEST SWAP10 POP POP PUSH1 0x40 PUSH2 0x7114 DUP14 DUP3 DUP15 ADD PUSH2 0x62F4 JUMP JUMPDEST SWAP9 POP POP PUSH1 0x60 PUSH2 0x7125 DUP14 DUP3 DUP15 ADD PUSH2 0x62F4 JUMP JUMPDEST SWAP8 POP POP PUSH1 0x80 PUSH2 0x7136 DUP14 DUP3 DUP15 ADD PUSH2 0x66CD JUMP JUMPDEST SWAP7 POP POP PUSH1 0xA0 PUSH2 0x7147 DUP14 DUP3 DUP15 ADD PUSH2 0x70B2 JUMP JUMPDEST SWAP6 POP POP PUSH1 0xC0 PUSH2 0x7158 DUP14 DUP3 DUP15 ADD PUSH2 0x62F4 JUMP JUMPDEST SWAP5 POP POP PUSH1 0xE0 PUSH2 0x7169 DUP14 DUP3 DUP15 ADD PUSH2 0x62F4 JUMP JUMPDEST SWAP4 POP POP PUSH2 0x100 PUSH2 0x717B DUP14 DUP3 DUP15 ADD PUSH2 0x62F4 JUMP JUMPDEST SWAP3 POP POP PUSH2 0x120 PUSH2 0x718D DUP14 DUP3 DUP15 ADD PUSH2 0x66CD JUMP JUMPDEST SWAP2 POP POP SWAP3 SWAP6 SWAP9 SWAP12 SWAP2 SWAP5 SWAP8 SWAP11 POP SWAP3 SWAP6 SWAP9 POP JUMP JUMPDEST PUSH0 PUSH1 0x40 DUP3 ADD SWAP1 POP PUSH2 0x71B2 PUSH0 DUP4 ADD DUP6 PUSH2 0x6604 JUMP JUMPDEST PUSH2 0x71BF PUSH1 0x20 DUP4 ADD DUP5 PUSH2 0x6604 JUMP JUMPDEST SWAP4 SWAP3 POP POP POP JUMP JUMPDEST PUSH0 PUSH1 0x20 DUP3 ADD SWAP1 POP PUSH2 0x71D9 PUSH0 DUP4 ADD DUP5 PUSH2 0x69AC JUMP JUMPDEST SWAP3 SWAP2 POP POP JUMP JUMPDEST PUSH32 0x4E487B7100000000000000000000000000000000000000000000000000000000 PUSH0 MSTORE PUSH1 0x41 PUSH1 0x4 MSTORE PUSH1 0x24 PUSH0 REVERT JUMPDEST PUSH32 0x4E487B7100000000000000000000000000000000000000000000000000000000 PUSH0 MSTORE PUSH1 0x32 PUSH1 0x4 MSTORE PUSH1 0x24 PUSH0 REVERT JUMPDEST PUSH32 0x4E487B7100000000000000000000000000000000000000000000000000000000 PUSH0 MSTORE PUSH1 0x12 PUSH1 0x4 MSTORE PUSH1 0x24 PUSH0 REVERT JUMPDEST PUSH0 PUSH2 0x7270 DUP3 PUSH2 0x62D5 JUMP JUMPDEST SWAP2 POP PUSH2 0x727B DUP4 PUSH2 0x62D5 JUMP JUMPDEST SWAP3 POP DUP3 PUSH2 0x728B JUMPI PUSH2 0x728A PUSH2 0x7239 JUMP JUMPDEST JUMPDEST DUP3 DUP3 MOD SWAP1 POP SWAP3 SWAP2 POP POP JUMP JUMPDEST PUSH32 0x696E76616C696420756E7374616B652064656C61792074696D65000000000000 PUSH0 DUP3 ADD MSTORE POP JUMP JUMPDEST PUSH0 PUSH2 0x72CA PUSH1 0x1A DUP4 PUSH2 0x69EC JUMP JUMPDEST SWAP2 POP PUSH2 0x72D5 DUP3 PUSH2 0x7296 JUMP JUMPDEST PUSH1 0x20 DUP3 ADD SWAP1 POP SWAP2 SWAP1 POP JUMP JUMPDEST PUSH0 PUSH1 0x20 DUP3 ADD SWAP1 POP DUP2 DUP2 SUB PUSH0 DUP4 ADD MSTORE PUSH2 0x72F7 DUP2 PUSH2 0x72BE JUMP JUMPDEST SWAP1 POP SWAP2 SWAP1 POP JUMP JUMPDEST PUSH0 DUP2 SWAP1 POP SWAP2 SWAP1 POP JUMP JUMPDEST PUSH0 PUSH2 0x7321 PUSH2 0x731C PUSH2 0x7317 DUP5 PUSH2 0x6480 JUMP JUMPDEST PUSH2 0x72FE JUMP JUMPDEST PUSH2 0x62D5 JUMP JUMPDEST SWAP1 POP SWAP2 SWAP1 POP JUMP JUMPDEST PUSH2 0x7331 DUP2 PUSH2 0x7307 JUMP JUMPDEST DUP3 MSTORE POP POP JUMP JUMPDEST PUSH0 PUSH1 0x40 DUP3 ADD SWAP1 POP PUSH2 0x734A PUSH0 DUP4 ADD DUP6 PUSH2 0x7328 JUMP JUMPDEST PUSH2 0x7357 PUSH1 0x20 DUP4 ADD DUP5 PUSH2 0x7328 JUMP JUMPDEST SWAP4 SWAP3 POP POP POP JUMP JUMPDEST PUSH32 0x4E487B7100000000000000000000000000000000000000000000000000000000 PUSH0 MSTORE PUSH1 0x11 PUSH1 0x4 MSTORE PUSH1 0x24 PUSH0 REVERT JUMPDEST PUSH0 PUSH2 0x7395 DUP3 PUSH2 0x62D5 JUMP JUMPDEST SWAP2 POP PUSH32 0xFFFFFFFFFFFFFFFFFFFFFFFFFFFFFFFFFFFFFFFFFFFFFFFFFFFFFFFFFFFFFFFF DUP3 SUB PUSH2 0x73C7 JUMPI PUSH2 0x73C6 PUSH2 0x735E JUMP JUMPDEST JUMPDEST PUSH1 0x1 DUP3 ADD SWAP1 POP SWAP2 SWAP1 POP JUMP JUMPDEST PUSH32 0x4E487B7100000000000000000000000000000000000000000000000000000000 PUSH0 MSTORE PUSH1 0x22 PUSH1 0x4 MSTORE PUSH1 0x24 PUSH0 REVERT JUMPDEST PUSH0 PUSH1 0x2 DUP3 DIV SWAP1 POP PUSH1 0x1 DUP3 AND DUP1 PUSH2 0x7416 JUMPI PUSH1 0x7F DUP3 AND SWAP2 POP JUMPDEST PUSH1 0x20 DUP3 LT DUP2 SUB PUSH2 0x7429 JUMPI PUSH2 0x7428 PUSH2 0x73D2 JUMP JUMPDEST JUMPDEST POP SWAP2 SWAP1 POP JUMP JUMPDEST PUSH2 0x7438 DUP2 PUSH2 0x6D89 JUMP JUMPDEST DUP3 MSTORE POP POP JUMP JUMPDEST PUSH0 PUSH1 0x20 DUP3 ADD SWAP1 POP PUSH2 0x7451 PUSH0 DUP4 ADD DUP5 PUSH2 0x742F JUMP JUMPDEST SWAP3 SWAP2 POP POP JUMP JUMPDEST PUSH0 PUSH2 0x7461 DUP3 PUSH2 0x62D5 JUMP JUMPDEST SWAP2 POP PUSH2 0x746C DUP4 PUSH2 0x62D5 JUMP JUMPDEST SWAP3 POP DUP3 DUP3 ADD SWAP1 POP DUP1 DUP3 GT ISZERO PUSH2 0x7484 JUMPI PUSH2 0x7483 PUSH2 0x735E JUMP JUMPDEST JUMPDEST SWAP3 SWAP2 POP POP JUMP JUMPDEST PUSH0 PUSH2 0x7494 DUP3 PUSH2 0x62D5 JUMP JUMPDEST SWAP2 POP PUSH2 0x749F DUP4 PUSH2 0x62D5 JUMP JUMPDEST SWAP3 POP DUP3 DUP3 MUL PUSH2 0x74AD DUP2 PUSH2 0x62D5 JUMP JUMPDEST SWAP2 POP DUP3 DUP3 DIV DUP5 EQ DUP4 ISZERO OR PUSH2 0x74C4 JUMPI PUSH2 0x74C3 PUSH2 0x735E JUMP JUMPDEST JUMPDEST POP SWAP3 SWAP2 POP POP JUMP JUMPDEST PUSH0 PUSH2 0x74D5 DUP3 PUSH2 0x62D5 JUMP JUMPDEST SWAP2 POP PUSH2 0x74E0 DUP4 PUSH2 0x62D5 JUMP JUMPDEST SWAP3 POP DUP3 PUSH2 0x74F0 JUMPI PUSH2 0x74EF PUSH2 0x7239 JUMP JUMPDEST JUMPDEST DUP3 DUP3 DIV SWAP1 POP SWAP3 SWAP2 POP POP JUMP JUMPDEST PUSH0 DUP3 SWAP1 POP SWAP3 SWAP2 POP POP JUMP JUMPDEST PUSH0 DUP2 SWAP1 POP DUP2 PUSH0 MSTORE PUSH1 0x20 PUSH0 KECCAK256 SWAP1 POP SWAP2 SWAP1 POP JUMP JUMPDEST PUSH0 PUSH1 0x20 PUSH1 0x1F DUP4 ADD DIV SWAP1 POP SWAP2 SWAP1 POP JUMP JUMPDEST PUSH0 DUP3 DUP3 SHL SWAP1 POP SWAP3 SWAP2 POP POP JUMP JUMPDEST PUSH0 PUSH1 0x8 DUP4 MUL PUSH2 0x7561 PUSH32 0xFFFFFFFFFFFFFFFFFFFFFFFFFFFFFFFFFFFFFFFFFFFFFFFFFFFFFFFFFFFFFFFF DUP3 PUSH2 0x7526 JUMP JUMPDEST PUSH2 0x756B DUP7 DUP4 PUSH2 0x7526 JUMP JUMPDEST SWAP6 POP DUP1 NOT DUP5 AND SWAP4 POP DUP1 DUP7 AND DUP5 OR SWAP3 POP POP POP SWAP4 SWAP3 POP POP POP JUMP JUMPDEST PUSH0 PUSH2 0x759D PUSH2 0x7598 PUSH2 0x7593 DUP5 PUSH2 0x62D5 JUMP JUMPDEST PUSH2 0x72FE JUMP JUMPDEST PUSH2 0x62D5 JUMP JUMPDEST SWAP1 POP SWAP2 SWAP1 POP JUMP JUMPDEST PUSH0 DUP2 SWAP1 POP SWAP2 SWAP1 POP JUMP JUMPDEST PUSH2 0x75B6 DUP4 PUSH2 0x7583 JUMP JUMPDEST PUSH2 0x75CA PUSH2 0x75C2 DUP3 PUSH2 0x75A4 JUMP JUMPDEST DUP5 DUP5 SLOAD PUSH2 0x7532 JUMP JUMPDEST DUP3 SSTORE POP POP POP POP JUMP JUMPDEST PUSH0 SWAP1 JUMP JUMPDEST PUSH2 0x75DE PUSH2 0x75D2 JUMP JUMPDEST PUSH2 0x75E9 DUP2 DUP5 DUP5 PUSH2 0x75AD JUMP JUMPDEST POP POP POP JUMP JUMPDEST JUMPDEST DUP2 DUP2 LT ISZERO PUSH2 0x760C JUMPI PUSH2 0x7601 PUSH0 DUP3 PUSH2 0x75D6 JUMP JUMPDEST PUSH1 0x1 DUP2 ADD SWAP1 POP PUSH2 0x75EF JUMP JUMPDEST POP POP JUMP JUMPDEST PUSH1 0x1F DUP3 GT ISZERO PUSH2 0x7651 JUMPI PUSH2 0x7622 DUP2 PUSH2 0x7505 JUMP JUMPDEST PUSH2 0x762B DUP5 PUSH2 0x7517 JUMP JUMPDEST DUP2 ADD PUSH1 0x20 DUP6 LT ISZERO PUSH2 0x763A JUMPI DUP2 SWAP1 POP JUMPDEST PUSH2 0x764E PUSH2 0x7646 DUP6 PUSH2 0x7517 JUMP JUMPDEST DUP4 ADD DUP3 PUSH2 0x75EE JUMP JUMPDEST POP POP JUMPDEST POP POP POP JUMP JUMPDEST PUSH0 DUP3 DUP3 SHR SWAP1 POP SWAP3 SWAP2 POP POP JUMP JUMPDEST PUSH0 PUSH2 0x7671 PUSH0 NOT DUP5 PUSH1 0x8 MUL PUSH2 0x7656 JUMP JUMPDEST NOT DUP1 DUP4 AND SWAP2 POP POP SWAP3 SWAP2 POP POP JUMP JUMPDEST PUSH0 PUSH2 0x7689 DUP4 DUP4 PUSH2 0x7662 JUMP JUMPDEST SWAP2 POP DUP3 PUSH1 0x2 MUL DUP3 OR SWAP1 POP SWAP3 SWAP2 POP POP JUMP JUMPDEST PUSH2 0x76A3 DUP4 DUP4 PUSH2 0x74FB JUMP JUMPDEST PUSH8 0xFFFFFFFFFFFFFFFF DUP2 GT ISZERO PUSH2 0x76BC JUMPI PUSH2 0x76BB PUSH2 0x71DF JUMP JUMPDEST JUMPDEST PUSH2 0x76C6 DUP3 SLOAD PUSH2 0x73FF JUMP JUMPDEST PUSH2 0x76D1 DUP3 DUP3 DUP6 PUSH2 0x7610 JUMP JUMPDEST PUSH0 PUSH1 0x1F DUP4 GT PUSH1 0x1 DUP2 EQ PUSH2 0x76FE JUMPI PUSH0 DUP5 ISZERO PUSH2 0x76EC JUMPI DUP3 DUP8 ADD CALLDATALOAD SWAP1 POP JUMPDEST PUSH2 0x76F6 DUP6 DUP3 PUSH2 0x767E JUMP JUMPDEST DUP7 SSTORE POP PUSH2 0x775D JUMP JUMPDEST PUSH1 0x1F NOT DUP5 AND PUSH2 0x770C DUP7 PUSH2 0x7505 JUMP JUMPDEST PUSH0 JUMPDEST DUP3 DUP2 LT ISZERO PUSH2 0x7733 JUMPI DUP5 DUP10 ADD CALLDATALOAD DUP3 SSTORE PUSH1 0x1 DUP3 ADD SWAP2 POP PUSH1 0x20 DUP6 ADD SWAP5 POP PUSH1 0x20 DUP2 ADD SWAP1 POP PUSH2 0x770E JUMP JUMPDEST DUP7 DUP4 LT ISZERO PUSH2 0x7750 JUMPI DUP5 DUP10 ADD CALLDATALOAD PUSH2 0x774C PUSH1 0x1F DUP10 AND DUP3 PUSH2 0x7662 JUMP JUMPDEST DUP4 SSTORE POP JUMPDEST PUSH1 0x1 PUSH1 0x2 DUP9 MUL ADD DUP9 SSTORE POP POP POP JUMPDEST POP POP POP POP POP POP POP JUMP JUMPDEST PUSH0 PUSH2 0x7770 DUP3 PUSH2 0x62D5 JUMP JUMPDEST SWAP2 POP PUSH2 0x777B DUP4 PUSH2 0x62D5 JUMP JUMPDEST SWAP3 POP DUP3 DUP3 SUB SWAP1 POP DUP2 DUP2 GT ISZERO PUSH2 0x7793 JUMPI PUSH2 0x7792 PUSH2 0x735E JUMP JUMPDEST JUMPDEST SWAP3 SWAP2 POP POP JUMP JUMPDEST PUSH32 0x4F776E61626C653A206E6577206F776E657220697320746865207A65726F2061 PUSH0 DUP3 ADD MSTORE PUSH32 0x6464726573730000000000000000000000000000000000000000000000000000 PUSH1 0x20 DUP3 ADD MSTORE POP JUMP JUMPDEST PUSH0 PUSH2 0x77F3 PUSH1 0x26 DUP4 PUSH2 0x69EC JUMP JUMPDEST SWAP2 POP PUSH2 0x77FE DUP3 PUSH2 0x7799 JUMP JUMPDEST PUSH1 0x40 DUP3 ADD SWAP1 POP SWAP2 SWAP1 POP JUMP JUMPDEST PUSH0 PUSH1 0x20 DUP3 ADD SWAP1 POP DUP2 DUP2 SUB PUSH0 DUP4 ADD MSTORE PUSH2 0x7820 DUP2 PUSH2 0x77E7 JUMP JUMPDEST SWAP1 POP SWAP2 SWAP1 POP JUMP JUMPDEST PUSH32 0x496E697469616C697A61626C653A20636F6E747261637420697320616C726561 PUSH0 DUP3 ADD MSTORE PUSH32 0x647920696E697469616C697A6564000000000000000000000000000000000000 PUSH1 0x20 DUP3 ADD MSTORE POP JUMP JUMPDEST PUSH0 PUSH2 0x7881 PUSH1 0x2E DUP4 PUSH2 0x69EC JUMP JUMPDEST SWAP2 POP PUSH2 0x788C DUP3 PUSH2 0x7827 JUMP JUMPDEST PUSH1 0x40 DUP3 ADD SWAP1 POP SWAP2 SWAP1 POP JUMP JUMPDEST PUSH0 PUSH1 0x20 DUP3 ADD SWAP1 POP DUP2 DUP2 SUB PUSH0 DUP4 ADD MSTORE PUSH2 0x78AE DUP2 PUSH2 0x7875 JUMP JUMPDEST SWAP1 POP SWAP2 SWAP1 POP JUMP JUMPDEST PUSH0 DUP2 SWAP1 POP SWAP2 SWAP1 POP JUMP JUMPDEST PUSH0 PUSH2 0x78D8 PUSH2 0x78D3 PUSH2 0x78CE DUP5 PUSH2 0x78B5 JUMP JUMPDEST PUSH2 0x72FE JUMP JUMPDEST PUSH2 0x6947 JUMP JUMPDEST SWAP1 POP SWAP2 SWAP1 POP JUMP JUMPDEST PUSH2 0x78E8 DUP2 PUSH2 0x78BE JUMP JUMPDEST DUP3 MSTORE POP POP JUMP JUMPDEST PUSH0 PUSH1 0x20 DUP3 ADD SWAP1 POP PUSH2 0x7901 PUSH0 DUP4 ADD DUP5 PUSH2 0x78DF JUMP JUMPDEST SWAP3 SWAP2 POP POP JUMP JUMPDEST PUSH32 0x4F776E61626C653A2063616C6C6572206973206E6F7420746865206F776E6572 PUSH0 DUP3 ADD MSTORE POP JUMP JUMPDEST PUSH0 PUSH2 0x793B PUSH1 0x20 DUP4 PUSH2 0x69EC JUMP JUMPDEST SWAP2 POP PUSH2 0x7946 DUP3 PUSH2 0x7907 JUMP JUMPDEST PUSH1 0x20 DUP3 ADD SWAP1 POP SWAP2 SWAP1 POP JUMP JUMPDEST PUSH0 PUSH1 0x20 DUP3 ADD SWAP1 POP DUP2 DUP2 SUB PUSH0 DUP4 ADD MSTORE PUSH2 0x7968 DUP2 PUSH2 0x792F JUMP JUMPDEST SWAP1 POP SWAP2 SWAP1 POP JUMP JUMPDEST PUSH0 PUSH2 0x7979 DUP3 PUSH2 0x6480 JUMP JUMPDEST SWAP2 POP PUSH5 0xFFFFFFFFFF DUP3 SUB PUSH2 0x7990 JUMPI PUSH2 0x798F PUSH2 0x735E JUMP JUMPDEST JUMPDEST PUSH1 0x1 DUP3 ADD SWAP1 POP SWAP2 SWAP1 POP JUMP JUMPDEST PUSH0 PUSH2 0x79A5 DUP3 PUSH2 0x62D5 JUMP JUMPDEST SWAP2 POP PUSH0 DUP3 SUB PUSH2 0x79B7 JUMPI PUSH2 0x79B6 PUSH2 0x735E JUMP JUMPDEST JUMPDEST PUSH1 0x1 DUP3 SUB SWAP1 POP SWAP2 SWAP1 POP JUMP JUMPDEST PUSH32 0x5061757361626C653A2070617573656400000000000000000000000000000000 PUSH0 DUP3 ADD MSTORE POP JUMP JUMPDEST PUSH0 PUSH2 0x79F6 PUSH1 0x10 DUP4 PUSH2 0x69EC JUMP JUMPDEST SWAP2 POP PUSH2 0x7A01 DUP3 PUSH2 0x79C2 JUMP JUMPDEST PUSH1 0x20 DUP3 ADD SWAP1 POP SWAP2 SWAP1 POP JUMP JUMPDEST PUSH0 PUSH1 0x20 DUP3 ADD SWAP1 POP DUP2 DUP2 SUB PUSH0 DUP4 ADD MSTORE PUSH2 0x7A23 DUP2 PUSH2 0x79EA JUMP JUMPDEST SWAP1 POP SWAP2 SWAP1 POP JUMP JUMPDEST PUSH0 DUP2 SWAP1 POP SWAP2 SWAP1 POP JUMP JUMPDEST PUSH2 0x7A44 PUSH2 0x7A3F DUP3 PUSH2 0x62D5 JUMP JUMPDEST PUSH2 0x7A2A JUMP JUMPDEST DUP3 MSTORE POP POP JUMP JUMPDEST PUSH0 DUP2 SWAP1 POP SWAP2 SWAP1 POP JUMP JUMPDEST PUSH0 DUP2 SWAP1 POP SWAP2 SWAP1 POP JUMP JUMPDEST PUSH2 0x7A6D PUSH2 0x7A68 DUP3 PUSH2 0x7A4A JUMP JUMPDEST PUSH2 0x7A53 JUMP JUMPDEST DUP3 MSTORE POP POP JUMP JUMPDEST PUSH0 PUSH2 0x7A7E DUP3 DUP7 PUSH2 0x7A33 JUMP JUMPDEST PUSH1 0x20 DUP3 ADD SWAP2 POP PUSH2 0x7A8E DUP3 DUP6 PUSH2 0x7A33 JUMP JUMPDEST PUSH1 0x20 DUP3 ADD SWAP2 POP PUSH2 0x7A9E DUP3 DUP5 PUSH2 0x7A5C JUMP JUMPDEST PUSH1 0x20 DUP3 ADD SWAP2 POP DUP2 SWAP1 POP SWAP5 SWAP4 POP POP POP POP JUMP JUMPDEST PUSH32 0x5061757361626C653A206E6F7420706175736564000000000000000000000000 PUSH0 DUP3 ADD MSTORE POP JUMP JUMPDEST PUSH0 PUSH2 0x7AE3 PUSH1 0x14 DUP4 PUSH2 0x69EC JUMP JUMPDEST SWAP2 POP PUSH2 0x7AEE DUP3 PUSH2 0x7AAF JUMP JUMPDEST PUSH1 0x20 DUP3 ADD SWAP1 POP SWAP2 SWAP1 POP JUMP JUMPDEST PUSH0 PUSH1 0x20 DUP3 ADD SWAP1 POP DUP2 DUP2 SUB PUSH0 DUP4 ADD MSTORE PUSH2 0x7B10 DUP2 PUSH2 0x7AD7 JUMP JUMPDEST SWAP1 POP SWAP2 SWAP1 POP JUMP JUMPDEST PUSH0 DUP2 SWAP1 POP SWAP3 SWAP2 POP POP JUMP JUMPDEST POP JUMP JUMPDEST PUSH0 PUSH2 0x7B2F PUSH0 DUP4 PUSH2 0x7B17 JUMP JUMPDEST SWAP2 POP PUSH2 0x7B3A DUP3 PUSH2 0x7B21 JUMP JUMPDEST PUSH0 DUP3 ADD SWAP1 POP SWAP2 SWAP1 POP JUMP JUMPDEST PUSH0 PUSH2 0x7B4E DUP3 PUSH2 0x7B24 JUMP JUMPDEST SWAP2 POP DUP2 SWAP1 POP SWAP2 SWAP1 POP JUMP JUMPDEST PUSH32 0x5265656E7472616E637947756172643A207265656E7472616E742063616C6C00 PUSH0 DUP3 ADD MSTORE POP JUMP JUMPDEST PUSH0 PUSH2 0x7B8C PUSH1 0x1F DUP4 PUSH2 0x69EC JUMP JUMPDEST SWAP2 POP PUSH2 0x7B97 DUP3 PUSH2 0x7B58 JUMP JUMPDEST PUSH1 0x20 DUP3 ADD SWAP1 POP SWAP2 SWAP1 POP JUMP JUMPDEST PUSH0 PUSH1 0x20 DUP3 ADD SWAP1 POP DUP2 DUP2 SUB PUSH0 DUP4 ADD MSTORE PUSH2 0x7BB9 DUP2 PUSH2 0x7B80 JUMP JUMPDEST SWAP1 POP SWAP2 SWAP1 POP JUMP JUMPDEST PUSH32 0x4E487B7100000000000000000000000000000000000000000000000000000000 PUSH0 MSTORE PUSH1 0x31 PUSH1 0x4 MSTORE PUSH1 0x24 PUSH0 REVERT JUMPDEST PUSH32 0x496E697469616C697A61626C653A20636F6E7472616374206973206E6F742069 PUSH0 DUP3 ADD MSTORE PUSH32 0x6E697469616C697A696E67000000000000000000000000000000000000000000 PUSH1 0x20 DUP3 ADD MSTORE POP JUMP JUMPDEST PUSH0 PUSH2 0x7C47 PUSH1 0x2B DUP4 PUSH2 0x69EC JUMP JUMPDEST SWAP2 POP PUSH2 0x7C52 DUP3 PUSH2 0x7BED JUMP JUMPDEST PUSH1 0x40 DUP3 ADD SWAP1 POP SWAP2 SWAP1 POP JUMP JUMPDEST PUSH0 PUSH1 0x20 DUP3 ADD SWAP1 POP DUP2 DUP2 SUB PUSH0 DUP4 ADD MSTORE PUSH2 0x7C74 DUP2 PUSH2 0x7C3B JUMP JUMPDEST SWAP1 POP SWAP2 SWAP1 POP JUMP INVALID LOG2 PUSH5 0x6970667358 0x22 SLT KECCAK256 LOG2 GT SWAP4 CALLDATACOPY JUMPDEST PUSH16 0x9B664561247319824F9D6182F8F0D383 0xD4 SLOAD EXTCODESIZE SSTORE DUP2 JUMPDEST 0x2D PUSH21 0xB5A064736F6C634300081900330000000000000000 "
		},
		"gasEstimates": {
			"creation": {
				"codeDepositCost": "6384200",
				"executionCost": "7982",
				"totalCost": "6392182"
			},
			"external": {
				"assignmentNumber()": "2536",
				"assignments(uint256)": "infinite",
				"blocksPerEpoch()": "2536",
				"claimReward(address)": "infinite",
				"currentEpoch()": "2652",
				"disputeInfer(uint256)": "492",
				"disputingTimeLimit()": "2556",
				"disqualificationPercentage()": "2607",
				"feePercentage()": "2584",
				"getInferences(uint256[])": "infinite",
				"getMinerAddresses()": "infinite",
				"getMiners()": "infinite",
				"getMiningAssignments()": "infinite",
				"getMintingAssignmentsOfInference(uint256)": "infinite",
				"getModelAddresses()": "infinite",
				"getValidatorAddresses()": "infinite",
				"getValidators()": "infinite",
				"increaseMinerStake()": "infinite",
				"increaseValidatorStake()": "infinite",
				"infer(bytes,address)": "infinite",
				"inferenceNumber()": "2513",
				"initialize(address,uint16,uint256,uint256,uint40,uint8,uint256,uint256,uint256,uint40)": "infinite",
				"isAssignmentPending(uint256)": "7517",
				"joinForMinting()": "infinite",
				"joinForValidating()": "infinite",
				"lastBlock()": "2493",
				"maximumTier()": "2609",
				"minerMinimumStake()": "2560",
				"minerRequirement()": "2584",
				"minerTaskCompleted(address,uint256)": "infinite",
				"minerUnstakeRequests(address)": "5136",
				"miners(address)": "infinite",
				"miningTimeLimit()": "2606",
				"models(address)": "5223",
				"owner()": "2649",
				"pause()": "infinite",
				"paused()": "2541",
				"penaltyDuration()": "2652",
				"registerMiner(uint16)": "infinite",
				"registerModel(address,uint16,uint256)": "infinite",
				"registerValidator(uint16)": "infinite",
				"renounceOwnership()": "30459",
				"resolveInference(uint256)": "infinite",
				"rewardInEpoch(uint256)": "infinite",
				"rewardPerEpoch()": "2515",
				"rewardPerEpochBasedOnPerf()": "2493",
				"rewardToClaim(address)": "infinite",
				"setBlocksPerEpoch(uint256)": "infinite",
				"setNewRewardInEpoch(uint256)": "infinite",
				"setNewRewardInEpochBasedOnPerf(uint256)": "infinite",
				"setUnstakDelayTime(uint40)": "infinite",
				"submitSolution(uint256,bytes)": "infinite",
				"transferOwnership(address)": "30864",
				"treasury()": "2642",
				"unpause()": "infinite",
				"unregisterMiner()": "infinite",
				"unregisterModel(address)": "infinite",
				"unregisterValidator()": "infinite",
				"unstakeDelayTime()": "2650",
				"unstakeForMiner()": "infinite",
				"unstakeForValidator()": "infinite",
				"updateModelMinimumFee(address,uint256)": "infinite",
				"updateModelTier(address,uint32)": "infinite",
				"validatingTimeLimit()": "2608",
				"validatorDisputed(address,uint256)": "3226",
				"validatorMinimumStake()": "2560",
				"validatorUnstakeRequests(address)": "5199",
				"validators(address)": "infinite",
				"version()": "infinite"
			},
			"internal": {
				"_assignMiners(uint256)": "infinite",
				"_claimReward(address)": "infinite",
				"_handleDisputeSuccess(uint256)": "infinite",
				"_updateEpoch()": "infinite"
			}
		},
		"methodIdentifiers": {
			"assignmentNumber()": "6973d3f2",
			"assignments(uint256)": "4e50c75c",
			"blocksPerEpoch()": "f0682054",
			"claimReward(address)": "d279c191",
			"currentEpoch()": "76671808",
			"disputeInfer(uint256)": "72422748",
			"disputingTimeLimit()": "d64f1f5f",
			"disqualificationPercentage()": "4670ca47",
			"feePercentage()": "a001ecdd",
			"getInferences(uint256[])": "a01253d8",
			"getMinerAddresses()": "e8d6f2f1",
			"getMiners()": "1633da6e",
			"getMiningAssignments()": "37504f57",
			"getMintingAssignmentsOfInference(uint256)": "5eec7b20",
			"getModelAddresses()": "9ae49cd3",
			"getValidatorAddresses()": "f74e921f",
			"getValidators()": "b7ab4db5",
			"increaseMinerStake()": "9fb40bac",
			"increaseValidatorStake()": "62ed5c12",
			"infer(bytes,address)": "d9844458",
			"inferenceNumber()": "f80dca98",
			"initialize(address,uint16,uint256,uint256,uint40,uint8,uint256,uint256,uint256,uint40)": "ff7c8b15",
			"isAssignmentPending(uint256)": "57a38def",
			"joinForMinting()": "1a8ef584",
			"joinForValidating()": "ea4a2cac",
			"lastBlock()": "806b984f",
			"maximumTier()": "0716187f",
			"minerMinimumStake()": "3304f456",
			"minerRequirement()": "dd9b9766",
			"minerTaskCompleted(address,uint256)": "e4383228",
			"minerUnstakeRequests(address)": "191a54d8",
			"miners(address)": "648ec7b9",
			"miningTimeLimit()": "691ff7ef",
			"models(address)": "54917f83",
			"owner()": "8da5cb5b",
			"pause()": "8456cb59",
			"paused()": "5c975abb",
			"penaltyDuration()": "5aa1326c",
			"registerMiner(uint16)": "1fdadcb7",
			"registerModel(address,uint16,uint256)": "a8d6d3d1",
			"registerValidator(uint16)": "47f809e7",
			"renounceOwnership()": "715018a6",
			"resolveInference(uint256)": "6029e786",
			"rewardInEpoch(uint256)": "652ff159",
			"rewardPerEpoch()": "84449a9d",
			"rewardPerEpochBasedOnPerf()": "90f20b4a",
			"rewardToClaim(address)": "674a63b9",
			"setBlocksPerEpoch(uint256)": "034438b0",
			"setNewRewardInEpoch(uint256)": "e32bd90c",
			"setNewRewardInEpochBasedOnPerf(uint256)": "99754809",
			"setUnstakDelayTime(uint40)": "351b2b33",
			"submitSolution(uint256,bytes)": "e84dee6b",
			"transferOwnership(address)": "f2fde38b",
			"treasury()": "61d027b3",
			"unpause()": "3f4ba83a",
			"unregisterMiner()": "656a1b20",
			"unregisterModel(address)": "db2dab1d",
			"unregisterValidator()": "6ca56267",
			"unstakeDelayTime()": "e4fefd65",
			"unstakeForMiner()": "73df250d",
			"unstakeForValidator()": "42b093cf",
			"updateModelMinimumFee(address,uint256)": "b74cd194",
			"updateModelTier(address,uint32)": "0738a9bb",
			"validatingTimeLimit()": "56f2eca3",
			"validatorDisputed(address,uint256)": "7146ab67",
			"validatorMinimumStake()": "412f9775",
			"validatorUnstakeRequests(address)": "fd3623f7",
			"validators(address)": "fa52c7d8",
			"version()": "54fd4d50"
		}
	},
	"abi": [
		{
			"inputs": [
				{
					"internalType": "address",
					"name": "value",
					"type": "address"
				}
			],
			"name": "AddressSet_DuplicatedValue",
			"type": "error"
		},
		{
			"inputs": [
				{
					"internalType": "address",
					"name": "value",
					"type": "address"
				}
			],
			"name": "AddressSet_ValueNotFound",
			"type": "error"
		},
		{
			"inputs": [],
			"name": "AlreadyRegistered",
			"type": "error"
		},
		{
			"inputs": [],
			"name": "AlreadySubmitted",
			"type": "error"
		},
		{
			"inputs": [],
			"name": "FailedTransfer",
			"type": "error"
		},
		{
			"inputs": [],
			"name": "FeeTooLow",
			"type": "error"
		},
		{
			"inputs": [],
			"name": "InvalidBlockValue",
			"type": "error"
		},
		{
			"inputs": [],
			"name": "InvalidInferenceStatus",
			"type": "error"
		},
		{
			"inputs": [],
			"name": "InvalidModel",
			"type": "error"
		},
		{
			"inputs": [],
			"name": "InvalidTier",
			"type": "error"
		},
		{
			"inputs": [],
			"name": "MiningSessionEnded",
			"type": "error"
		},
		{
			"inputs": [],
			"name": "MiningSessionNotEnded",
			"type": "error"
		},
		{
			"inputs": [],
			"name": "NotRegistered",
			"type": "error"
		},
		{
			"inputs": [],
			"name": "NullStake",
			"type": "error"
		},
		{
			"inputs": [],
			"name": "StakeTooLow",
			"type": "error"
		},
		{
			"inputs": [],
			"name": "StillBeingLocked",
			"type": "error"
		},
		{
			"inputs": [
				{
					"internalType": "uint256",
					"name": "value",
					"type": "uint256"
				}
			],
			"name": "Uint256Set_DuplicatedValue",
			"type": "error"
		},
		{
			"inputs": [],
			"name": "Unauthorized",
			"type": "error"
		},
		{
			"inputs": [],
			"name": "ValidatingSessionNotEnded",
			"type": "error"
		},
		{
			"anonymous": false,
			"inputs": [
				{
					"indexed": false,
					"internalType": "uint256",
					"name": "oldBlocks",
					"type": "uint256"
				},
				{
					"indexed": false,
					"internalType": "uint256",
					"name": "newBlocks",
					"type": "uint256"
				}
			],
			"name": "BlocksPerEpoch",
			"type": "event"
		},
		{
			"anonymous": false,
			"inputs": [
				{
					"indexed": true,
					"internalType": "address",
					"name": "validator",
					"type": "address"
				},
				{
					"indexed": true,
					"internalType": "uint256",
					"name": "assigmentId",
					"type": "uint256"
				}
			],
			"name": "InferenceDisputation",
			"type": "event"
		},
		{
			"anonymous": false,
			"inputs": [
				{
					"indexed": true,
					"internalType": "uint256",
					"name": "inferenceId",
					"type": "uint256"
				},
				{
					"indexed": false,
					"internalType": "enum IWorkerHub.InferenceStatus",
					"name": "newStatus",
					"type": "uint8"
				}
			],
			"name": "InferenceStatusUpdate",
			"type": "event"
		},
		{
			"anonymous": false,
			"inputs": [
				{
					"indexed": false,
					"internalType": "uint8",
					"name": "version",
					"type": "uint8"
				}
			],
			"name": "Initialized",
			"type": "event"
		},
		{
			"anonymous": false,
			"inputs": [
				{
					"indexed": true,
					"internalType": "address",
					"name": "miner",
					"type": "address"
				},
				{
					"indexed": false,
					"internalType": "uint256",
					"name": "value",
					"type": "uint256"
				}
			],
			"name": "MinerExtraStake",
			"type": "event"
		},
		{
			"anonymous": false,
			"inputs": [
				{
					"indexed": true,
					"internalType": "address",
					"name": "miner",
					"type": "address"
				}
			],
			"name": "MinerJoin",
			"type": "event"
		},
		{
			"anonymous": false,
			"inputs": [
				{
					"indexed": true,
					"internalType": "address",
					"name": "miner",
					"type": "address"
				},
				{
					"indexed": true,
					"internalType": "uint16",
					"name": "tier",
					"type": "uint16"
				},
				{
					"indexed": false,
					"internalType": "uint256",
					"name": "value",
					"type": "uint256"
				}
			],
			"name": "MinerRegistration",
			"type": "event"
		},
		{
			"anonymous": false,
			"inputs": [
				{
					"indexed": true,
					"internalType": "address",
					"name": "miner",
					"type": "address"
				}
			],
			"name": "MinerUnregistration",
			"type": "event"
		},
		{
			"anonymous": false,
			"inputs": [
				{
					"indexed": true,
					"internalType": "address",
					"name": "miner",
					"type": "address"
				},
				{
					"indexed": false,
					"internalType": "uint256",
					"name": "stake",
					"type": "uint256"
				}
			],
			"name": "MinerUnstake",
			"type": "event"
		},
		{
			"anonymous": false,
			"inputs": [
				{
					"indexed": true,
					"internalType": "address",
					"name": "model",
					"type": "address"
				},
				{
					"indexed": false,
					"internalType": "uint256",
					"name": "minimumFee",
					"type": "uint256"
				}
			],
			"name": "ModelMinimumFeeUpdate",
			"type": "event"
		},
		{
			"anonymous": false,
			"inputs": [
				{
					"indexed": true,
					"internalType": "address",
					"name": "model",
					"type": "address"
				},
				{
					"indexed": true,
					"internalType": "uint16",
					"name": "tier",
					"type": "uint16"
				},
				{
					"indexed": false,
					"internalType": "uint256",
					"name": "minimumFee",
					"type": "uint256"
				}
			],
			"name": "ModelRegistration",
			"type": "event"
		},
		{
			"anonymous": false,
			"inputs": [
				{
					"indexed": true,
					"internalType": "address",
					"name": "model",
					"type": "address"
				},
				{
					"indexed": false,
					"internalType": "uint32",
					"name": "tier",
					"type": "uint32"
				}
			],
			"name": "ModelTierUpdate",
			"type": "event"
		},
		{
			"anonymous": false,
			"inputs": [
				{
					"indexed": true,
					"internalType": "address",
					"name": "model",
					"type": "address"
				}
			],
			"name": "ModelUnregistration",
			"type": "event"
		},
		{
			"anonymous": false,
			"inputs": [
				{
					"indexed": true,
					"internalType": "uint256",
					"name": "assignmentId",
					"type": "uint256"
				},
				{
					"indexed": true,
					"internalType": "uint256",
					"name": "inferenceId",
					"type": "uint256"
				},
				{
					"indexed": true,
					"internalType": "address",
					"name": "miner",
					"type": "address"
				},
				{
					"indexed": false,
					"internalType": "uint40",
					"name": "expiredAt",
					"type": "uint40"
				}
			],
			"name": "NewAssignment",
			"type": "event"
		},
		{
			"anonymous": false,
			"inputs": [
				{
					"indexed": true,
					"internalType": "uint256",
					"name": "inferenceId",
					"type": "uint256"
				},
				{
					"indexed": true,
					"internalType": "address",
					"name": "creator",
					"type": "address"
				},
				{
					"indexed": false,
					"internalType": "uint256",
					"name": "value",
					"type": "uint256"
				}
			],
			"name": "NewInference",
			"type": "event"
		},
		{
			"anonymous": false,
			"inputs": [
				{
					"indexed": true,
					"internalType": "address",
					"name": "previousOwner",
					"type": "address"
				},
				{
					"indexed": true,
					"internalType": "address",
					"name": "newOwner",
					"type": "address"
				}
			],
			"name": "OwnershipTransferred",
			"type": "event"
		},
		{
			"anonymous": false,
			"inputs": [
				{
					"indexed": false,
					"internalType": "address",
					"name": "account",
					"type": "address"
				}
			],
			"name": "Paused",
			"type": "event"
		},
		{
			"anonymous": false,
			"inputs": [
				{
					"indexed": true,
					"internalType": "address",
					"name": "worker",
					"type": "address"
				},
				{
					"indexed": false,
					"internalType": "uint256",
					"name": "value",
					"type": "uint256"
				}
			],
			"name": "RewardClaim",
			"type": "event"
		},
		{
			"anonymous": false,
			"inputs": [
				{
					"indexed": false,
					"internalType": "uint256",
					"name": "oldReward",
					"type": "uint256"
				},
				{
					"indexed": false,
					"internalType": "uint256",
					"name": "newReward",
					"type": "uint256"
				}
			],
			"name": "RewardPerEpoch",
			"type": "event"
		},
		{
			"anonymous": false,
			"inputs": [
				{
					"indexed": false,
					"internalType": "uint256",
					"name": "oldReward",
					"type": "uint256"
				},
				{
					"indexed": false,
					"internalType": "uint256",
					"name": "newReward",
					"type": "uint256"
				}
			],
			"name": "RewardPerEpochBasedOnPerf",
			"type": "event"
		},
		{
			"anonymous": false,
			"inputs": [
				{
					"indexed": true,
					"internalType": "address",
					"name": "miner",
					"type": "address"
				},
				{
					"indexed": true,
					"internalType": "uint256",
					"name": "assigmentId",
					"type": "uint256"
				}
			],
			"name": "SolutionSubmission",
			"type": "event"
		},
		{
			"anonymous": false,
			"inputs": [
				{
					"indexed": true,
					"internalType": "address",
					"name": "miner",
					"type": "address"
				},
				{
					"indexed": false,
					"internalType": "uint256",
					"name": "mingingFee",
					"type": "uint256"
				},
				{
					"indexed": true,
					"internalType": "address",
					"name": "treasury",
					"type": "address"
				},
				{
					"indexed": false,
					"internalType": "uint256",
					"name": "protocolFee",
					"type": "uint256"
				}
			],
			"name": "TransferFee",
			"type": "event"
		},
		{
			"anonymous": false,
			"inputs": [
				{
					"indexed": false,
					"internalType": "address",
					"name": "account",
					"type": "address"
				}
			],
			"name": "Unpaused",
			"type": "event"
		},
		{
			"anonymous": false,
			"inputs": [
				{
					"indexed": false,
					"internalType": "uint256",
					"name": "oldDelayTime",
					"type": "uint256"
				},
				{
					"indexed": false,
					"internalType": "uint256",
					"name": "newDelayTime",
					"type": "uint256"
				}
			],
			"name": "UnstakeDelayTime",
			"type": "event"
		},
		{
			"anonymous": false,
			"inputs": [
				{
					"indexed": true,
					"internalType": "address",
					"name": "validator",
					"type": "address"
				},
				{
					"indexed": false,
					"internalType": "uint256",
					"name": "value",
					"type": "uint256"
				}
			],
			"name": "ValidatorExtraStake",
			"type": "event"
		},
		{
			"anonymous": false,
			"inputs": [
				{
					"indexed": true,
					"internalType": "address",
					"name": "validator",
					"type": "address"
				}
			],
			"name": "ValidatorJoin",
			"type": "event"
		},
		{
			"anonymous": false,
			"inputs": [
				{
					"indexed": true,
					"internalType": "address",
					"name": "validator",
					"type": "address"
				},
				{
					"indexed": true,
					"internalType": "uint16",
					"name": "tier",
					"type": "uint16"
				},
				{
					"indexed": false,
					"internalType": "uint256",
					"name": "value",
					"type": "uint256"
				}
			],
			"name": "ValidatorRegistration",
			"type": "event"
		},
		{
			"anonymous": false,
			"inputs": [
				{
					"indexed": true,
					"internalType": "address",
					"name": "validator",
					"type": "address"
				}
			],
			"name": "ValidatorUnregistration",
			"type": "event"
		},
		{
			"anonymous": false,
			"inputs": [
				{
					"indexed": true,
					"internalType": "address",
					"name": "validator",
					"type": "address"
				},
				{
					"indexed": false,
					"internalType": "uint256",
					"name": "stake",
					"type": "uint256"
				}
			],
			"name": "ValidatorUnstake",
			"type": "event"
		},
		{
			"inputs": [],
			"name": "assignmentNumber",
			"outputs": [
				{
					"internalType": "uint256",
					"name": "",
					"type": "uint256"
				}
			],
			"stateMutability": "view",
			"type": "function"
		},
		{
			"inputs": [
				{
					"internalType": "uint256",
					"name": "",
					"type": "uint256"
				}
			],
			"name": "assignments",
			"outputs": [
				{
					"internalType": "uint256",
					"name": "inferenceId",
					"type": "uint256"
				},
				{
					"internalType": "bytes",
					"name": "output",
					"type": "bytes"
				},
				{
					"internalType": "address",
					"name": "worker",
					"type": "address"
				},
				{
					"internalType": "uint8",
					"name": "disapprovalCount",
					"type": "uint8"
				}
			],
			"stateMutability": "view",
			"type": "function"
		},
		{
			"inputs": [],
			"name": "blocksPerEpoch",
			"outputs": [
				{
					"internalType": "uint256",
					"name": "",
					"type": "uint256"
				}
			],
			"stateMutability": "view",
			"type": "function"
		},
		{
			"inputs": [
				{
					"internalType": "address",
					"name": "_miner",
					"type": "address"
				}
			],
			"name": "claimReward",
			"outputs": [],
			"stateMutability": "nonpayable",
			"type": "function"
		},
		{
			"inputs": [],
			"name": "currentEpoch",
			"outputs": [
				{
					"internalType": "uint40",
					"name": "",
					"type": "uint40"
				}
			],
			"stateMutability": "view",
			"type": "function"
		},
		{
			"inputs": [
				{
					"internalType": "uint256",
					"name": "_assignmentId",
					"type": "uint256"
				}
			],
			"name": "disputeInfer",
			"outputs": [],
			"stateMutability": "nonpayable",
			"type": "function"
		},
		{
			"inputs": [],
			"name": "disputingTimeLimit",
			"outputs": [
				{
					"internalType": "uint40",
					"name": "",
					"type": "uint40"
				}
			],
			"stateMutability": "view",
			"type": "function"
		},
		{
			"inputs": [],
			"name": "disqualificationPercentage",
			"outputs": [
				{
					"internalType": "uint16",
					"name": "",
					"type": "uint16"
				}
			],
			"stateMutability": "view",
			"type": "function"
		},
		{
			"inputs": [],
			"name": "feePercentage",
			"outputs": [
				{
					"internalType": "uint16",
					"name": "",
					"type": "uint16"
				}
			],
			"stateMutability": "view",
			"type": "function"
		},
		{
			"inputs": [
				{
					"internalType": "uint256[]",
					"name": "_inferenceIds",
					"type": "uint256[]"
				}
			],
			"name": "getInferences",
			"outputs": [
				{
					"components": [
						{
							"internalType": "uint256",
							"name": "inferenceId",
							"type": "uint256"
						},
						{
							"internalType": "bytes",
							"name": "input",
							"type": "bytes"
						},
						{
							"internalType": "bytes",
							"name": "output",
							"type": "bytes"
						},
						{
							"internalType": "uint256",
							"name": "value",
							"type": "uint256"
						},
						{
							"internalType": "address",
							"name": "disputingAddress",
							"type": "address"
						},
						{
							"internalType": "address",
							"name": "modelAddress",
							"type": "address"
						},
						{
							"internalType": "uint40",
							"name": "expiredAt",
							"type": "uint40"
						},
						{
							"internalType": "enum IWorkerHub.InferenceStatus",
							"name": "status",
							"type": "uint8"
						},
						{
							"internalType": "address",
							"name": "creator",
							"type": "address"
						}
					],
					"internalType": "struct IWorkerHub.InferenceInfo[]",
					"name": "",
					"type": "tuple[]"
				}
			],
			"stateMutability": "view",
			"type": "function"
		},
		{
			"inputs": [],
			"name": "getMinerAddresses",
			"outputs": [
				{
					"internalType": "address[]",
					"name": "",
					"type": "address[]"
				}
			],
			"stateMutability": "view",
			"type": "function"
		},
		{
			"inputs": [],
			"name": "getMiners",
			"outputs": [
				{
					"components": [
						{
							"internalType": "address",
							"name": "workerAddress",
							"type": "address"
						},
						{
							"internalType": "uint256",
							"name": "stake",
							"type": "uint256"
						},
						{
							"internalType": "uint256",
							"name": "commitment",
							"type": "uint256"
						},
						{
							"internalType": "address",
							"name": "modelAddress",
							"type": "address"
						},
						{
							"internalType": "uint40",
							"name": "lastClaimedEpoch",
							"type": "uint40"
						},
						{
							"internalType": "uint40",
							"name": "activeTime",
							"type": "uint40"
						},
						{
							"internalType": "uint16",
							"name": "tier",
							"type": "uint16"
						}
					],
					"internalType": "struct IWorkerHub.WorkerInfo[]",
					"name": "",
					"type": "tuple[]"
				}
			],
			"stateMutability": "view",
			"type": "function"
		},
		{
			"inputs": [],
			"name": "getMiningAssignments",
			"outputs": [
				{
					"components": [
						{
							"internalType": "uint256",
							"name": "assignmentId",
							"type": "uint256"
						},
						{
							"internalType": "uint256",
							"name": "inferenceId",
							"type": "uint256"
						},
						{
							"internalType": "uint256",
							"name": "value",
							"type": "uint256"
						},
						{
							"internalType": "bytes",
							"name": "input",
							"type": "bytes"
						},
						{
							"internalType": "address",
							"name": "modelAddress",
							"type": "address"
						},
						{
							"internalType": "address",
							"name": "creator",
							"type": "address"
						},
						{
							"internalType": "uint40",
							"name": "expiredAt",
							"type": "uint40"
						}
					],
					"internalType": "struct IWorkerHub.AssignmentInfo[]",
					"name": "",
					"type": "tuple[]"
				}
			],
			"stateMutability": "view",
			"type": "function"
		},
		{
			"inputs": [
				{
					"internalType": "uint256",
					"name": "_inferenceId",
					"type": "uint256"
				}
			],
			"name": "getMintingAssignmentsOfInference",
			"outputs": [
				{
					"components": [
						{
							"internalType": "uint256",
							"name": "assignmentId",
							"type": "uint256"
						},
						{
							"internalType": "uint256",
							"name": "inferenceId",
							"type": "uint256"
						},
						{
							"internalType": "uint256",
							"name": "value",
							"type": "uint256"
						},
						{
							"internalType": "bytes",
							"name": "input",
							"type": "bytes"
						},
						{
							"internalType": "address",
							"name": "modelAddress",
							"type": "address"
						},
						{
							"internalType": "address",
							"name": "creator",
							"type": "address"
						},
						{
							"internalType": "uint40",
							"name": "expiredAt",
							"type": "uint40"
						}
					],
					"internalType": "struct IWorkerHub.AssignmentInfo[]",
					"name": "",
					"type": "tuple[]"
				}
			],
			"stateMutability": "view",
			"type": "function"
		},
		{
			"inputs": [],
			"name": "getModelAddresses",
			"outputs": [
				{
					"internalType": "address[]",
					"name": "",
					"type": "address[]"
				}
			],
			"stateMutability": "view",
			"type": "function"
		},
		{
			"inputs": [],
			"name": "getValidatorAddresses",
			"outputs": [
				{
					"internalType": "address[]",
					"name": "",
					"type": "address[]"
				}
			],
			"stateMutability": "view",
			"type": "function"
		},
		{
			"inputs": [],
			"name": "getValidators",
			"outputs": [
				{
					"components": [
						{
							"internalType": "address",
							"name": "workerAddress",
							"type": "address"
						},
						{
							"internalType": "uint256",
							"name": "stake",
							"type": "uint256"
						},
						{
							"internalType": "uint256",
							"name": "commitment",
							"type": "uint256"
						},
						{
							"internalType": "address",
							"name": "modelAddress",
							"type": "address"
						},
						{
							"internalType": "uint40",
							"name": "lastClaimedEpoch",
							"type": "uint40"
						},
						{
							"internalType": "uint40",
							"name": "activeTime",
							"type": "uint40"
						},
						{
							"internalType": "uint16",
							"name": "tier",
							"type": "uint16"
						}
					],
					"internalType": "struct IWorkerHub.WorkerInfo[]",
					"name": "",
					"type": "tuple[]"
				}
			],
			"stateMutability": "view",
			"type": "function"
		},
		{
			"inputs": [],
			"name": "increaseMinerStake",
			"outputs": [],
			"stateMutability": "payable",
			"type": "function"
		},
		{
			"inputs": [],
			"name": "increaseValidatorStake",
			"outputs": [],
			"stateMutability": "payable",
			"type": "function"
		},
		{
			"inputs": [
				{
					"internalType": "bytes",
					"name": "_input",
					"type": "bytes"
				},
				{
					"internalType": "address",
					"name": "_creator",
					"type": "address"
				}
			],
			"name": "infer",
			"outputs": [
				{
					"internalType": "uint256",
					"name": "",
					"type": "uint256"
				}
			],
			"stateMutability": "payable",
			"type": "function"
		},
		{
			"inputs": [],
			"name": "inferenceNumber",
			"outputs": [
				{
					"internalType": "uint256",
					"name": "",
					"type": "uint256"
				}
			],
			"stateMutability": "view",
			"type": "function"
		},
		{
			"inputs": [
				{
					"internalType": "address",
					"name": "_treasury",
					"type": "address"
				},
				{
					"internalType": "uint16",
					"name": "_feePercentage",
					"type": "uint16"
				},
				{
					"internalType": "uint256",
					"name": "_minerMinimumStake",
					"type": "uint256"
				},
				{
					"internalType": "uint256",
					"name": "_validatorMinimumStake",
					"type": "uint256"
				},
				{
					"internalType": "uint40",
					"name": "_miningTimeLimit",
					"type": "uint40"
				},
				{
					"internalType": "uint8",
					"name": "_minerRequirement",
					"type": "uint8"
				},
				{
					"internalType": "uint256",
					"name": "_blocksPerEpoch",
					"type": "uint256"
				},
				{
					"internalType": "uint256",
					"name": "_rewardPerEpochBasedOnPerf",
					"type": "uint256"
				},
				{
					"internalType": "uint256",
					"name": "_rewardPerEpoch",
					"type": "uint256"
				},
				{
					"internalType": "uint40",
					"name": "_unstakeDelayTime",
					"type": "uint40"
				}
			],
			"name": "initialize",
			"outputs": [],
			"stateMutability": "nonpayable",
			"type": "function"
		},
		{
			"inputs": [
				{
					"internalType": "uint256",
					"name": "_assignmentId",
					"type": "uint256"
				}
			],
			"name": "isAssignmentPending",
			"outputs": [
				{
					"internalType": "bool",
					"name": "",
					"type": "bool"
				}
			],
			"stateMutability": "view",
			"type": "function"
		},
		{
			"inputs": [],
			"name": "joinForMinting",
			"outputs": [],
			"stateMutability": "nonpayable",
			"type": "function"
		},
		{
			"inputs": [],
			"name": "joinForValidating",
			"outputs": [],
			"stateMutability": "nonpayable",
			"type": "function"
		},
		{
			"inputs": [],
			"name": "lastBlock",
			"outputs": [
				{
					"internalType": "uint256",
					"name": "",
					"type": "uint256"
				}
			],
			"stateMutability": "view",
			"type": "function"
		},
		{
			"inputs": [],
			"name": "maximumTier",
			"outputs": [
				{
					"internalType": "uint16",
					"name": "",
					"type": "uint16"
				}
			],
			"stateMutability": "view",
			"type": "function"
		},
		{
			"inputs": [],
			"name": "minerMinimumStake",
			"outputs": [
				{
					"internalType": "uint256",
					"name": "",
					"type": "uint256"
				}
			],
			"stateMutability": "view",
			"type": "function"
		},
		{
			"inputs": [],
			"name": "minerRequirement",
			"outputs": [
				{
					"internalType": "uint8",
					"name": "",
					"type": "uint8"
				}
			],
			"stateMutability": "view",
			"type": "function"
		},
		{
			"inputs": [
				{
					"internalType": "address",
					"name": "",
					"type": "address"
				},
				{
					"internalType": "uint256",
					"name": "",
					"type": "uint256"
				}
			],
			"name": "minerTaskCompleted",
			"outputs": [
				{
					"internalType": "uint256",
					"name": "",
					"type": "uint256"
				}
			],
			"stateMutability": "view",
			"type": "function"
		},
		{
			"inputs": [
				{
					"internalType": "address",
					"name": "",
					"type": "address"
				}
			],
			"name": "minerUnstakeRequests",
			"outputs": [
				{
					"internalType": "uint256",
					"name": "stake",
					"type": "uint256"
				},
				{
					"internalType": "uint40",
					"name": "unlockAt",
					"type": "uint40"
				}
			],
			"stateMutability": "view",
			"type": "function"
		},
		{
			"inputs": [
				{
					"internalType": "address",
					"name": "",
					"type": "address"
				}
			],
			"name": "miners",
			"outputs": [
				{
					"internalType": "uint256",
					"name": "stake",
					"type": "uint256"
				},
				{
					"internalType": "uint256",
					"name": "commitment",
					"type": "uint256"
				},
				{
					"internalType": "address",
					"name": "modelAddress",
					"type": "address"
				},
				{
					"internalType": "uint40",
					"name": "lastClaimedEpoch",
					"type": "uint40"
				},
				{
					"internalType": "uint40",
					"name": "activeTime",
					"type": "uint40"
				},
				{
					"internalType": "uint16",
					"name": "tier",
					"type": "uint16"
				}
			],
			"stateMutability": "view",
			"type": "function"
		},
		{
			"inputs": [],
			"name": "miningTimeLimit",
			"outputs": [
				{
					"internalType": "uint40",
					"name": "",
					"type": "uint40"
				}
			],
			"stateMutability": "view",
			"type": "function"
		},
		{
			"inputs": [
				{
					"internalType": "address",
					"name": "",
					"type": "address"
				}
			],
			"name": "models",
			"outputs": [
				{
					"internalType": "uint256",
					"name": "minimumFee",
					"type": "uint256"
				},
				{
					"internalType": "uint32",
					"name": "tier",
					"type": "uint32"
				}
			],
			"stateMutability": "view",
			"type": "function"
		},
		{
			"inputs": [],
			"name": "owner",
			"outputs": [
				{
					"internalType": "address",
					"name": "",
					"type": "address"
				}
			],
			"stateMutability": "view",
			"type": "function"
		},
		{
			"inputs": [],
			"name": "pause",
			"outputs": [],
			"stateMutability": "nonpayable",
			"type": "function"
		},
		{
			"inputs": [],
			"name": "paused",
			"outputs": [
				{
					"internalType": "bool",
					"name": "",
					"type": "bool"
				}
			],
			"stateMutability": "view",
			"type": "function"
		},
		{
			"inputs": [],
			"name": "penaltyDuration",
			"outputs": [
				{
					"internalType": "uint40",
					"name": "",
					"type": "uint40"
				}
			],
			"stateMutability": "view",
			"type": "function"
		},
		{
			"inputs": [
				{
					"internalType": "uint16",
					"name": "tier",
					"type": "uint16"
				}
			],
			"name": "registerMiner",
			"outputs": [],
			"stateMutability": "payable",
			"type": "function"
		},
		{
			"inputs": [
				{
					"internalType": "address",
					"name": "_model",
					"type": "address"
				},
				{
					"internalType": "uint16",
					"name": "_tier",
					"type": "uint16"
				},
				{
					"internalType": "uint256",
					"name": "_minimumFee",
					"type": "uint256"
				}
			],
			"name": "registerModel",
			"outputs": [],
			"stateMutability": "nonpayable",
			"type": "function"
		},
		{
			"inputs": [
				{
					"internalType": "uint16",
					"name": "tier",
					"type": "uint16"
				}
			],
			"name": "registerValidator",
			"outputs": [],
			"stateMutability": "payable",
			"type": "function"
		},
		{
			"inputs": [],
			"name": "renounceOwnership",
			"outputs": [],
			"stateMutability": "nonpayable",
			"type": "function"
		},
		{
			"inputs": [
				{
					"internalType": "uint256",
					"name": "_inferenceId",
					"type": "uint256"
				}
			],
			"name": "resolveInference",
			"outputs": [],
			"stateMutability": "nonpayable",
			"type": "function"
		},
		{
			"inputs": [
				{
					"internalType": "uint256",
					"name": "",
					"type": "uint256"
				}
			],
			"name": "rewardInEpoch",
			"outputs": [
				{
					"internalType": "uint256",
					"name": "perfReward",
					"type": "uint256"
				},
				{
					"internalType": "uint256",
					"name": "epochReward",
					"type": "uint256"
				},
				{
					"internalType": "uint256",
					"name": "totalTaskCompleted",
					"type": "uint256"
				},
				{
					"internalType": "uint256",
					"name": "totalMiner",
					"type": "uint256"
				}
			],
			"stateMutability": "view",
			"type": "function"
		},
		{
			"inputs": [],
			"name": "rewardPerEpoch",
			"outputs": [
				{
					"internalType": "uint256",
					"name": "",
					"type": "uint256"
				}
			],
			"stateMutability": "view",
			"type": "function"
		},
		{
			"inputs": [],
			"name": "rewardPerEpochBasedOnPerf",
			"outputs": [
				{
					"internalType": "uint256",
					"name": "",
					"type": "uint256"
				}
			],
			"stateMutability": "view",
			"type": "function"
		},
		{
			"inputs": [
				{
					"internalType": "address",
					"name": "_miner",
					"type": "address"
				}
			],
			"name": "rewardToClaim",
			"outputs": [
				{
					"internalType": "uint256",
					"name": "",
					"type": "uint256"
				}
			],
			"stateMutability": "nonpayable",
			"type": "function"
		},
		{
			"inputs": [
				{
					"internalType": "uint256",
					"name": "_blocks",
					"type": "uint256"
				}
			],
			"name": "setBlocksPerEpoch",
			"outputs": [],
			"stateMutability": "nonpayable",
			"type": "function"
		},
		{
			"inputs": [
				{
					"internalType": "uint256",
					"name": "_newRewardAmount",
					"type": "uint256"
				}
			],
			"name": "setNewRewardInEpoch",
			"outputs": [],
			"stateMutability": "nonpayable",
			"type": "function"
		},
		{
			"inputs": [
				{
					"internalType": "uint256",
					"name": "_newRewardAmount",
					"type": "uint256"
				}
			],
			"name": "setNewRewardInEpochBasedOnPerf",
			"outputs": [],
			"stateMutability": "nonpayable",
			"type": "function"
		},
		{
			"inputs": [
				{
					"internalType": "uint40",
					"name": "_newUnstakeDelayTime",
					"type": "uint40"
				}
			],
			"name": "setUnstakDelayTime",
			"outputs": [],
			"stateMutability": "nonpayable",
			"type": "function"
		},
		{
			"inputs": [
				{
					"internalType": "uint256",
					"name": "_assigmentId",
					"type": "uint256"
				},
				{
					"internalType": "bytes",
					"name": "_data",
					"type": "bytes"
				}
			],
			"name": "submitSolution",
			"outputs": [],
			"stateMutability": "nonpayable",
			"type": "function"
		},
		{
			"inputs": [
				{
					"internalType": "address",
					"name": "newOwner",
					"type": "address"
				}
			],
			"name": "transferOwnership",
			"outputs": [],
			"stateMutability": "nonpayable",
			"type": "function"
		},
		{
			"inputs": [],
			"name": "treasury",
			"outputs": [
				{
					"internalType": "address",
					"name": "",
					"type": "address"
				}
			],
			"stateMutability": "view",
			"type": "function"
		},
		{
			"inputs": [],
			"name": "unpause",
			"outputs": [],
			"stateMutability": "nonpayable",
			"type": "function"
		},
		{
			"inputs": [],
			"name": "unregisterMiner",
			"outputs": [],
			"stateMutability": "nonpayable",
			"type": "function"
		},
		{
			"inputs": [
				{
					"internalType": "address",
					"name": "_model",
					"type": "address"
				}
			],
			"name": "unregisterModel",
			"outputs": [],
			"stateMutability": "nonpayable",
			"type": "function"
		},
		{
			"inputs": [],
			"name": "unregisterValidator",
			"outputs": [],
			"stateMutability": "nonpayable",
			"type": "function"
		},
		{
			"inputs": [],
			"name": "unstakeDelayTime",
			"outputs": [
				{
					"internalType": "uint40",
					"name": "",
					"type": "uint40"
				}
			],
			"stateMutability": "view",
			"type": "function"
		},
		{
			"inputs": [],
			"name": "unstakeForMiner",
			"outputs": [],
			"stateMutability": "nonpayable",
			"type": "function"
		},
		{
			"inputs": [],
			"name": "unstakeForValidator",
			"outputs": [],
			"stateMutability": "nonpayable",
			"type": "function"
		},
		{
			"inputs": [
				{
					"internalType": "address",
					"name": "_model",
					"type": "address"
				},
				{
					"internalType": "uint256",
					"name": "_minimumFee",
					"type": "uint256"
				}
			],
			"name": "updateModelMinimumFee",
			"outputs": [],
			"stateMutability": "nonpayable",
			"type": "function"
		},
		{
			"inputs": [
				{
					"internalType": "address",
					"name": "_model",
					"type": "address"
				},
				{
					"internalType": "uint32",
					"name": "_tier",
					"type": "uint32"
				}
			],
			"name": "updateModelTier",
			"outputs": [],
			"stateMutability": "nonpayable",
			"type": "function"
		},
		{
			"inputs": [],
			"name": "validatingTimeLimit",
			"outputs": [
				{
					"internalType": "uint40",
					"name": "",
					"type": "uint40"
				}
			],
			"stateMutability": "view",
			"type": "function"
		},
		{
			"inputs": [
				{
					"internalType": "address",
					"name": "",
					"type": "address"
				},
				{
					"internalType": "uint256",
					"name": "",
					"type": "uint256"
				}
			],
			"name": "validatorDisputed",
			"outputs": [
				{
					"internalType": "bool",
					"name": "",
					"type": "bool"
				}
			],
			"stateMutability": "view",
			"type": "function"
		},
		{
			"inputs": [],
			"name": "validatorMinimumStake",
			"outputs": [
				{
					"internalType": "uint256",
					"name": "",
					"type": "uint256"
				}
			],
			"stateMutability": "view",
			"type": "function"
		},
		{
			"inputs": [
				{
					"internalType": "address",
					"name": "",
					"type": "address"
				}
			],
			"name": "validatorUnstakeRequests",
			"outputs": [
				{
					"internalType": "uint256",
					"name": "stake",
					"type": "uint256"
				},
				{
					"internalType": "uint40",
					"name": "unlockAt",
					"type": "uint40"
				}
			],
			"stateMutability": "view",
			"type": "function"
		},
		{
			"inputs": [
				{
					"internalType": "address",
					"name": "",
					"type": "address"
				}
			],
			"name": "validators",
			"outputs": [
				{
					"internalType": "uint256",
					"name": "stake",
					"type": "uint256"
				},
				{
					"internalType": "uint256",
					"name": "commitment",
					"type": "uint256"
				},
				{
					"internalType": "address",
					"name": "modelAddress",
					"type": "address"
				},
				{
					"internalType": "uint40",
					"name": "lastClaimedEpoch",
					"type": "uint40"
				},
				{
					"internalType": "uint40",
					"name": "activeTime",
					"type": "uint40"
				},
				{
					"internalType": "uint16",
					"name": "tier",
					"type": "uint16"
				}
			],
			"stateMutability": "view",
			"type": "function"
		},
		{
			"inputs": [],
			"name": "version",
			"outputs": [
				{
					"internalType": "string",
					"name": "",
					"type": "string"
				}
			],
			"stateMutability": "pure",
			"type": "function"
		},
		{
			"stateMutability": "payable",
			"type": "receive"
		}
	]
}