{
  "_format": "hh-sol-artifact-1",
  "contractName": "EternalAI",
  "sourceName": "contracts/EternalAI.sol",
  "abi": [
    {
      "inputs": [
        {
          "internalType": "string",
          "name": "_modelName",
          "type": "string"
        },
        {
          "internalType": "string[]",
          "name": "_classesName",
          "type": "string[]"
        },
        {
          "internalType": "address",
          "name": "_modelRegistry",
          "type": "address"
        }
      ],
      "stateMutability": "nonpayable",
      "type": "constructor"
    },
    {
      "inputs": [],
      "name": "IncorrectModelId",
      "type": "error"
    },
    {
      "inputs": [],
      "name": "InsufficientEvalPrice",
      "type": "error"
    },
    {
      "inputs": [],
      "name": "InvalidActivationFunction",
      "type": "error"
    },
    {
      "inputs": [],
      "name": "InvalidMatrixDimensions",
      "type": "error"
    },
    {
      "inputs": [],
      "name": "InvalidPaddingType",
      "type": "error"
    },
    {
      "inputs": [],
      "name": "NotModelRegistry",
      "type": "error"
    },
    {
      "inputs": [],
      "name": "NotTokenOwner",
      "type": "error"
    },
    {
      "inputs": [
        {
          "internalType": "uint256",
          "name": "x",
          "type": "uint256"
        },
        {
          "internalType": "uint256",
          "name": "y",
          "type": "uint256"
        },
        {
          "internalType": "uint256",
          "name": "denominator",
          "type": "uint256"
        }
      ],
      "name": "PRBMath_MulDiv_Overflow",
      "type": "error"
    },
    {
      "inputs": [],
      "name": "PRBMath_SD59x18_Div_InputTooSmall",
      "type": "error"
    },
    {
      "inputs": [
        {
          "internalType": "SD59x18",
          "name": "x",
          "type": "int256"
        },
        {
          "internalType": "SD59x18",
          "name": "y",
          "type": "int256"
        }
      ],
      "name": "PRBMath_SD59x18_Div_Overflow",
      "type": "error"
    },
    {
      "inputs": [
        {
          "internalType": "SD59x18",
          "name": "x",
          "type": "int256"
        }
      ],
      "name": "PRBMath_SD59x18_Exp2_InputTooBig",
      "type": "error"
    },
    {
      "inputs": [
        {
          "internalType": "SD59x18",
          "name": "x",
          "type": "int256"
        }
      ],
      "name": "PRBMath_SD59x18_Exp_InputTooBig",
      "type": "error"
    },
    {
      "inputs": [],
      "name": "TooMuchData",
      "type": "error"
    },
    {
      "inputs": [],
      "name": "TransferFailed",
      "type": "error"
    },
    {
      "inputs": [],
      "name": "UnknownTokenNotInVocabs",
      "type": "error"
    },
    {
      "anonymous": false,
      "inputs": [
        {
          "indexed": true,
          "internalType": "uint256",
          "name": "tokenId",
          "type": "uint256"
        },
        {
          "indexed": false,
          "internalType": "uint256",
          "name": "classIndex",
          "type": "uint256"
        },
        {
          "indexed": false,
          "internalType": "string",
          "name": "className",
          "type": "string"
        },
        {
          "indexed": false,
          "internalType": "Float32x32[]",
          "name": "outputs",
          "type": "int64[]"
        },
        {
          "indexed": false,
          "internalType": "Float32x32",
          "name": "confidence",
          "type": "int64"
        }
      ],
      "name": "Classified",
      "type": "event"
    },
    {
      "anonymous": false,
      "inputs": [
        {
          "indexed": true,
          "internalType": "address",
          "name": "owner",
          "type": "address"
        },
        {
          "indexed": true,
          "internalType": "uint256",
          "name": "tokenId",
          "type": "uint256"
        }
      ],
      "name": "Deployed",
      "type": "event"
    },
    {
      "anonymous": false,
      "inputs": [
        {
          "indexed": true,
          "internalType": "uint256",
          "name": "tokenId",
          "type": "uint256"
        },
        {
          "indexed": false,
          "internalType": "uint256",
          "name": "fromLayerIndex",
          "type": "uint256"
        },
        {
          "indexed": false,
          "internalType": "uint256",
          "name": "toLayerIndex",
          "type": "uint256"
        },
        {
          "indexed": false,
          "internalType": "Float32x32[][][]",
          "name": "outputs1",
          "type": "int64[][][]"
        },
        {
          "indexed": false,
          "internalType": "Float32x32[]",
          "name": "outputs2",
          "type": "int64[]"
        }
      ],
      "name": "Forwarded",
      "type": "event"
    },
    {
      "anonymous": false,
      "inputs": [
        {
          "indexed": true,
          "internalType": "address",
          "name": "previousOwner",
          "type": "address"
        },
        {
          "indexed": true,
          "internalType": "address",
          "name": "newOwner",
          "type": "address"
        }
      ],
      "name": "OwnershipTransferred",
      "type": "event"
    },
    {
      "anonymous": false,
      "inputs": [
        {
          "indexed": false,
          "internalType": "Float32x32[]",
          "name": "x",
          "type": "int64[]"
        },
        {
          "indexed": false,
          "internalType": "Float32x32[]",
          "name": "w",
          "type": "int64[]"
        },
        {
          "indexed": false,
          "internalType": "Float32x32",
          "name": "tmp",
          "type": "int64"
        },
        {
          "indexed": false,
          "internalType": "Float32x32",
          "name": "b",
          "type": "int64"
        },
        {
          "indexed": false,
          "internalType": "Float32x32",
          "name": "y",
          "type": "int64"
        },
        {
          "indexed": false,
          "internalType": "Float32x32",
          "name": "res",
          "type": "int64"
        }
      ],
      "name": "TestDense",
      "type": "event"
    },
    {
      "anonymous": false,
      "inputs": [
        {
          "indexed": false,
          "internalType": "Float32x32[]",
          "name": "data",
          "type": "int64[]"
        }
      ],
      "name": "TestEntropy",
      "type": "event"
    },
    {
      "anonymous": false,
      "inputs": [
        {
          "indexed": false,
          "internalType": "uint256",
          "name": "n",
          "type": "uint256"
        },
        {
          "indexed": false,
          "internalType": "uint256",
          "name": "m",
          "type": "uint256"
        },
        {
          "indexed": false,
          "internalType": "uint256",
          "name": "p",
          "type": "uint256"
        }
      ],
      "name": "TestGemm",
      "type": "event"
    },
    {
      "anonymous": false,
      "inputs": [
        {
          "indexed": false,
          "internalType": "Float32x32[][]",
          "name": "data",
          "type": "int64[][]"
        }
      ],
      "name": "TestMatMul",
      "type": "event"
    },
    {
      "anonymous": false,
      "inputs": [
        {
          "indexed": false,
          "internalType": "Float32x32[]",
          "name": "data",
          "type": "int64[]"
        }
      ],
      "name": "TestProbs",
      "type": "event"
    },
    {
      "anonymous": false,
      "inputs": [
        {
          "indexed": false,
          "internalType": "Float32x32[]",
          "name": "data",
          "type": "int64[]"
        }
      ],
      "name": "TestRNNOutput",
      "type": "event"
    },
    {
      "anonymous": false,
      "inputs": [
        {
          "indexed": true,
          "internalType": "uint256",
          "name": "tokenId",
          "type": "uint256"
        },
        {
          "indexed": false,
          "internalType": "string",
          "name": "result",
          "type": "string"
        },
        {
          "indexed": false,
          "internalType": "Float32x32[][][]",
          "name": "states",
          "type": "int64[][][]"
        },
        {
          "indexed": false,
          "internalType": "uint256",
          "name": "seed",
          "type": "uint256"
        }
      ],
      "name": "TextGenerated",
      "type": "event"
    },
    {
      "inputs": [
        {
          "internalType": "uint256",
          "name": "_modelId",
          "type": "uint256"
        },
        {
          "internalType": "Float32x32[]",
          "name": "weights",
          "type": "int64[]"
        },
        {
          "internalType": "uint256",
          "name": "layerInd",
          "type": "uint256"
        },
        {
          "internalType": "enum EternalAI.LayerType",
          "name": "layerType",
          "type": "uint8"
        }
      ],
      "name": "appendWeights",
      "outputs": [],
      "stateMutability": "nonpayable",
      "type": "function"
    },
    {
      "inputs": [
        {
          "internalType": "uint256",
          "name": "_modelId",
          "type": "uint256"
        },
        {
          "internalType": "uint256",
          "name": "fromLayerIndex",
          "type": "uint256"
        },
        {
          "internalType": "uint256",
          "name": "toLayerIndex",
          "type": "uint256"
        },
        {
          "internalType": "Float32x32[][][]",
          "name": "x1",
          "type": "int64[][][]"
        },
        {
          "internalType": "Float32x32[]",
          "name": "x2",
          "type": "int64[]"
        }
      ],
      "name": "classify",
      "outputs": [],
      "stateMutability": "payable",
      "type": "function"
    },
    {
      "inputs": [
        {
          "internalType": "Float32x32[][][]",
          "name": "x1",
          "type": "int64[][][]"
        },
        {
          "internalType": "Float32x32[]",
          "name": "x2",
          "type": "int64[]"
        },
        {
          "internalType": "uint256",
          "name": "fromLayerIndex",
          "type": "uint256"
        },
        {
          "internalType": "uint256",
          "name": "toLayerIndex",
          "type": "uint256"
        }
      ],
      "name": "forward",
      "outputs": [
        {
          "internalType": "Float32x32[][][]",
          "name": "",
          "type": "int64[][][]"
        },
        {
          "internalType": "Float32x32[]",
          "name": "",
          "type": "int64[]"
        }
      ],
      "stateMutability": "nonpayable",
      "type": "function"
    },
    {
      "inputs": [
        {
          "internalType": "uint256",
          "name": "_modelId",
          "type": "uint256"
        },
        {
          "internalType": "string",
          "name": "prompt",
          "type": "string"
        },
        {
          "internalType": "uint256",
          "name": "toGenerate",
          "type": "uint256"
        },
        {
          "internalType": "Float32x32[][][]",
          "name": "states",
          "type": "int64[][][]"
        },
        {
          "internalType": "uint256",
          "name": "seed",
          "type": "uint256"
        }
      ],
      "name": "generateText",
      "outputs": [],
      "stateMutability": "nonpayable",
      "type": "function"
    },
    {
      "inputs": [
        {
          "internalType": "uint256",
          "name": "_modelId",
          "type": "uint256"
        },
        {
          "internalType": "uint256",
          "name": "layerIdx",
          "type": "uint256"
        }
      ],
      "name": "getConv2DLayer",
      "outputs": [
        {
          "internalType": "uint256",
          "name": "n",
          "type": "uint256"
        },
        {
          "internalType": "uint256",
          "name": "m",
          "type": "uint256"
        },
        {
          "internalType": "uint256",
          "name": "p",
          "type": "uint256"
        },
        {
          "internalType": "uint256",
          "name": "q",
          "type": "uint256"
        },
        {
          "internalType": "Float32x32[][][][]",
          "name": "w",
          "type": "int64[][][][]"
        },
        {
          "internalType": "Float32x32[]",
          "name": "b",
          "type": "int64[]"
        }
      ],
      "stateMutability": "view",
      "type": "function"
    },
    {
      "inputs": [
        {
          "internalType": "uint256",
          "name": "_modelId",
          "type": "uint256"
        },
        {
          "internalType": "uint256",
          "name": "layerIdx",
          "type": "uint256"
        }
      ],
      "name": "getDenseLayer",
      "outputs": [
        {
          "internalType": "uint256",
          "name": "dim_in",
          "type": "uint256"
        },
        {
          "internalType": "uint256",
          "name": "dim_out",
          "type": "uint256"
        },
        {
          "internalType": "Float32x32[][]",
          "name": "w",
          "type": "int64[][]"
        },
        {
          "internalType": "Float32x32[]",
          "name": "b",
          "type": "int64[]"
        }
      ],
      "stateMutability": "view",
      "type": "function"
    },
    {
      "inputs": [],
      "name": "getInfo",
      "outputs": [
        {
          "internalType": "uint256[3]",
          "name": "",
          "type": "uint256[3]"
        },
        {
          "internalType": "string",
          "name": "",
          "type": "string"
        },
        {
          "internalType": "string[]",
          "name": "",
          "type": "string[]"
        },
        {
          "components": [
            {
              "internalType": "enum EternalAI.LayerType",
              "name": "layerType",
              "type": "uint8"
            },
            {
              "internalType": "uint256",
              "name": "layerIndex",
              "type": "uint256"
            }
          ],
          "internalType": "struct EternalAI.Info[]",
          "name": "",
          "type": "tuple[]"
        }
      ],
      "stateMutability": "view",
      "type": "function"
    },
    {
      "inputs": [
        {
          "internalType": "uint256",
          "name": "_modelId",
          "type": "uint256"
        },
        {
          "internalType": "uint256",
          "name": "layerIdx",
          "type": "uint256"
        }
      ],
      "name": "getLSTMLayer",
      "outputs": [
        {
          "internalType": "uint256",
          "name": "",
          "type": "uint256"
        },
        {
          "internalType": "uint256",
          "name": "",
          "type": "uint256"
        },
        {
          "internalType": "Float32x32[][]",
          "name": "",
          "type": "int64[][]"
        },
        {
          "internalType": "Float32x32[][]",
          "name": "",
          "type": "int64[][]"
        },
        {
          "internalType": "Float32x32[]",
          "name": "",
          "type": "int64[]"
        }
      ],
      "stateMutability": "view",
      "type": "function"
    },
    {
      "inputs": [],
      "name": "model",
      "outputs": [
        {
          "internalType": "string",
          "name": "modelName",
          "type": "string"
        },
        {
          "internalType": "uint256",
          "name": "numLayers",
          "type": "uint256"
        },
        {
          "internalType": "uint256",
          "name": "requiredWeights",
          "type": "uint256"
        },
        {
          "internalType": "uint256",
          "name": "appendedWeights",
          "type": "uint256"
        }
      ],
      "stateMutability": "view",
      "type": "function"
    },
    {
      "inputs": [],
      "name": "modelId",
      "outputs": [
        {
          "internalType": "uint256",
          "name": "",
          "type": "uint256"
        }
      ],
      "stateMutability": "view",
      "type": "function"
    },
    {
      "inputs": [],
      "name": "modelRegistry",
      "outputs": [
        {
          "internalType": "contract IModelRegPublic",
          "name": "",
          "type": "address"
        }
      ],
      "stateMutability": "view",
      "type": "function"
    },
    {
      "inputs": [],
      "name": "owner",
      "outputs": [
        {
          "internalType": "address",
          "name": "",
          "type": "address"
        }
      ],
      "stateMutability": "view",
      "type": "function"
    },
    {
      "inputs": [],
      "name": "renounceOwnership",
      "outputs": [],
      "stateMutability": "nonpayable",
      "type": "function"
    },
    {
      "inputs": [
        {
          "internalType": "uint256",
          "name": "_modelId",
          "type": "uint256"
        },
        {
          "internalType": "bytes[]",
          "name": "layers_config",
          "type": "bytes[]"
        }
      ],
      "name": "setEternalAI",
      "outputs": [],
      "stateMutability": "nonpayable",
      "type": "function"
    },
    {
      "inputs": [
        {
          "internalType": "uint256",
          "name": "_modelId",
          "type": "uint256"
        }
      ],
      "name": "setModelId",
      "outputs": [],
      "stateMutability": "nonpayable",
      "type": "function"
    },
    {
      "inputs": [
        {
          "internalType": "uint256",
          "name": "_modelId",
          "type": "uint256"
        },
        {
          "internalType": "string[]",
          "name": "vocabs",
          "type": "string[]"
        },
        {
          "internalType": "string",
          "name": "unkToken",
          "type": "string"
        }
      ],
      "name": "setVocabs",
      "outputs": [],
      "stateMutability": "nonpayable",
      "type": "function"
    },
    {
      "inputs": [
        {
          "internalType": "address",
          "name": "newOwner",
          "type": "address"
        }
      ],
      "name": "transferOwnership",
      "outputs": [],
      "stateMutability": "nonpayable",
      "type": "function"
    },
    {
      "inputs": [],
      "name": "vocabInfo",
      "outputs": [
        {
          "internalType": "uint256",
          "name": "unkIndex",
          "type": "uint256"
        }
      ],
      "stateMutability": "view",
      "type": "function"
    }
  ],
  "bytecode": "0x60806040523480156200001157600080fd5b506040516200de1d3803806200de1d8339810160408190526200003491620002ab565b6200003f3362000091565b60046200004d848262000443565b50815162000063906005906020850190620000e1565b50601580546001600160a01b0319166001600160a01b0392909216919091179055505060016017556200050f565b600080546001600160a01b038381166001600160a01b0319831681178455604051919092169283917f8be0079c531659141344cd1fd0a4f28419497f9722a3daafe3b4186f6b6457e09190a35050565b8280548282559060005260206000209081019282156200012c579160200282015b828111156200012c57825182906200011b908262000443565b509160200191906001019062000102565b506200013a9291506200013e565b5090565b808211156200013a5760006200015582826200015f565b506001016200013e565b5080546200016d90620003b4565b6000825580601f106200017e575050565b601f0160209004906000526020600020908101906200019e9190620001a1565b50565b5b808211156200013a5760008155600101620001a2565b634e487b7160e01b600052604160045260246000fd5b604051601f8201601f191681016001600160401b0381118282101715620001f957620001f9620001b8565b604052919050565b600082601f8301126200021357600080fd5b81516001600160401b038111156200022f576200022f620001b8565b602062000245601f8301601f19168201620001ce565b82815285828487010111156200025a57600080fd5b60005b838110156200027a5785810183015182820184015282016200025d565b506000928101909101919091529392505050565b80516001600160a01b0381168114620002a657600080fd5b919050565b600080600060608486031215620002c157600080fd5b83516001600160401b0380821115620002d957600080fd5b620002e78783880162000201565b9450602091508186015181811115620002ff57600080fd5b8601601f810188136200031157600080fd5b805182811115620003265762000326620001b8565b8060051b62000337858201620001ce565b918252828101850191858101908b8411156200035257600080fd5b86850192505b838310156200039357825186811115620003725760008081fd5b620003828d898389010162000201565b835250918601919086019062000358565b80985050505050505050620003ab604085016200028e565b90509250925092565b600181811c90821680620003c957607f821691505b602082108103620003ea57634e487b7160e01b600052602260045260246000fd5b50919050565b601f8211156200043e57600081815260208120601f850160051c81016020861015620004195750805b601f850160051c820191505b818110156200043a5782815560010162000425565b5050505b505050565b81516001600160401b038111156200045f576200045f620001b8565b6200047781620004708454620003b4565b84620003f0565b602080601f831160018114620004af5760008415620004965750858301515b600019600386901b1c1916600185901b1785556200043a565b600085815260208120601f198616915b82811015620004e057888601518255948401946001909101908401620004bf565b5085821015620004ff5787850151600019600388901b60f8161c191681555b5050505050600190811b01905550565b61d8fe806200051f6000396000f3fe6080604052600436106101295760003560e01c80636fc9b1dc116100a55780638da5cb5b11610074578063b9dd602e11610059578063b9dd602e14610366578063d22e88341461037d578063f2fde38b1461039d57600080fd5b80638da5cb5b14610328578063aa4d96871461034657600080fd5b80636fc9b1dc14610294578063715018a6146102c25780637b2bb4d9146102d75780638a4b15a31461030857600080fd5b80633c996538116100fc5780634d1c23c0116100e15780634d1c23c01461022f5780635a9b0b891461024f57806361288c7b1461027457600080fd5b80633c996538146101d957806343cdaad21461020b57600080fd5b80630ad9d0521461012e5780630e9814471461015c57806318c26a18146101715780632ba36f78146101a1575b600080fd5b34801561013a57600080fd5b506101436103bd565b604051610153949392919061c628565b60405180910390f35b61016f61016a36600461c6a3565b610463565b005b34801561017d57600080fd5b5061019161018c36600461c730565b610806565b604051610153949392919061c7e8565b3480156101ad57600080fd5b506015546101c1906001600160a01b031681565b6040516001600160a01b039091168152602001610153565b3480156101e557600080fd5b506101f96101f436600461c730565b610a45565b6040516101539695949392919061c8bc565b34801561021757600080fd5b5061022160165481565b604051908152602001610153565b34801561023b57600080fd5b5061016f61024a36600461c95f565b610d9f565b34801561025b57600080fd5b50610264610f67565b604051610153949392919061c9f2565b34801561028057600080fd5b5061016f61028f36600461caa2565b6111ab565b3480156102a057600080fd5b506102b46102af36600461ccd9565b611303565b60405161015392919061cd4d565b3480156102ce57600080fd5b5061016f611b5c565b3480156102e357600080fd5b506102f76102f236600461c730565b611b70565b60405161015395949392919061cd72565b34801561031457600080fd5b5061016f61032336600461ce33565b612617565b34801561033457600080fd5b506000546001600160a01b03166101c1565b34801561035257600080fd5b5061016f61036136600461ceb2565b612698565b34801561037257600080fd5b506014546102219081565b34801561038957600080fd5b5061016f61039836600461cf91565b612882565b3480156103a957600080fd5b5061016f6103b836600461d00d565b612bc6565b60018060030180546103ce9061d02a565b80601f01602080910402602001604051908101604052809291908181526020018280546103fa9061d02a565b80156104475780601f1061041c57610100808354040283529160200191610447565b820191906000526020600020905b81548152906001019060200180831161042a57829003601f168201915b5050505050908060050154908060070154908060080154905084565b601654600003610486576040516311443e4960e21b815260040160405180910390fd5b601560009054906101000a90046001600160a01b03166001600160a01b03166382a332406040518163ffffffff1660e01b8152600401602060405180830381865afa1580156104d9573d6000803e3d6000fd5b505050506040513d601f19601f820116820180604052508101906104fd919061d05e565b341015610536576040517f7d9f8acc00000000000000000000000000000000000000000000000000000000815260040160405180910390fd5b601554604080517f9fbc871300000000000000000000000000000000000000000000000000000000815290516000926001600160a01b031691639fbc87139160048083019260209291908290030181865afa158015610599573d6000803e3d6000fd5b505050506040513d601f19601f820116820180604052508101906105bd919061d077565b6001600160a01b03163460405160006040518083038185875af1925050503d8060008114610607576040519150601f19603f3d011682016040523d82523d6000602084013e61060c565b606091505b5050905080610647576040517f90b8ec1800000000000000000000000000000000000000000000000000000000815260040160405180910390fd5b60075486106106625760075461065f9060019061d0aa565b95505b6000806106af610672878961d0bd565b8686808060200260200160405190810160405280939291908181526020018383602002808284376000920191909152508e92508d91506113039050565b60075491935091506106c39060019061d0aa565b88036107b957600060015b825181101561073a5761071f8383815181106106ec576106ec61d0ca565b60200260200101518483815181106107065761070661d0ca565b602002602001015160070b612c7290919063ffffffff16565b15610728578091505b806107328161d0e0565b9150506106ce565b506016547fb2a15636062bb2fc64e5cd888be42bd2170f7381953c89088a24208bf5f6195582600160040184815481106107765761077661d0ca565b90600052602060002001858686815181106107935761079361d0ca565b60200260200101516040516107ab949392919061d0fa565b60405180910390a2506107fa565b6016547f6ea9413fc6b5413ea13a72b81ee1e572e32118c3ad82e0cb8e6fc7e3c711985a8a8a85856040516107f1949392919061d1a8565b60405180910390a25b50505050505050505050565b60008060608060006001600b0186815481106108245761082461d0ca565b90600052602060002090600a02016040518060e0016040529081600082015481526020016001820160009054906101000a900460ff16600481111561086b5761086b61c978565b600481111561087c5761087c61c978565b8152602001600282015481526020016003820160405180606001604052908160008201805480602002602001604051908101604052809291908181526020016000905b8282101561094e5760008481526020908190208301805460408051828502810185019091528181529283018282801561093a57602002820191906000526020600020906000905b825461010083900a900460070b81526020600f83018190049384019360010360089093019290920291018084116109065790505b5050505050815260200190600101906108bf565b50505050815260200160018201548152602001600282015481525050815260200160068201604051806040016040529081600082018054806020026020016040519081016040528092919081815260200182805480156109f057602002820191906000526020600020906000905b825461010083900a900460070b81526020600f83018190049384019360010360089093019290920291018084116109bc5790505b50505091835250506001919091015460209182015290825260088301548282015260099092015460409182015260608301519182015190820151915160809093015151909a9199509197509095509350505050565b60008060008060608060006001600d018881548110610a6657610a6661d0ca565b90600052602060002090600f020160405180610120016040529081600082015481526020016001820160009054906101000a900460ff166004811115610aae57610aae61c978565b6004811115610abf57610abf61c978565b8152600282810154602083015260408051808201808352919093019291600385019182845b815481526020019060010190808311610ae4575050509183525050600582015460209091019060ff166001811115610b1e57610b1e61c978565b6001811115610b2f57610b2f61c978565b8152602001600682016040518060a001604052908160008201805480602002602001604051908101604052809291908181526020016000905b82821015610c8557838290600052602060002001805480602002602001604051908101604052809291908181526020016000905b82821015610c7257838290600052602060002001805480602002602001604051908101604052809291908181526020016000905b82821015610c5f57600084815260209081902083018054604080518285028101850190915281815292830182828015610c4b57602002820191906000526020600020906000905b825461010083900a900460070b81526020600f8301819004938401936001036008909301929092029101808411610c175790505b505050505081526020019060010190610bd0565b5050505081526020019060010190610b9c565b5050505081526020019060010190610b68565b5050505081526020016001820154815260200160028201548152602001600382015481526020016004820154815250508152602001600b820160405180604001604052908160008201805480602002602001604051908101604052809291908181526020018280548015610d3b57602002820191906000526020600020906000905b825461010083900a900460070b81526020600f8301819004938401936001036008909301929092029101808411610d075790505b505050918352505060019190910154602091820152908252600d83015482820152600e9092015460409182015260a0830151918201519082015160608301516080840151935160c09095015151929e919d509b509199509197509095509350505050565b6015546001600160a01b03163314610de3576040517f4099888a00000000000000000000000000000000000000000000000000000000815260040160405180910390fd5b60006016541180610e8157506015546040517fa9def49d0000000000000000000000000000000000000000000000000000000081526004810183905230916001600160a01b03169063a9def49d90602401602060405180830381865afa158015610e51573d6000803e3d6000fd5b505050506040513d601f19601f82011682018060405250810190610e75919061d077565b6001600160a01b031614155b15610e9f576040516311443e4960e21b815260040160405180910390fd5b6016819055600854600954148015610eb957506000601654115b15610f64576016546015546040516331a9108f60e11b8152600481018390526001600160a01b0390911690636352211e90602401602060405180830381865afa158015610f0a573d6000803e3d6000fd5b505050506040513d601f19601f82011682018060405250810190610f2e919061d077565b6001600160a01b03167fb03c53b28e78a88e31607a27e1fa48234dce28d5d9d9ec7b295aeb02e674a1e160405160405180910390a35b50565b610f6f61b879565b604080516060808201928390529182918291600191600491600591600791859060039082845b815481526020019060010190808311610f955750505050509350828054610fbb9061d02a565b80601f0160208091040260200160405190810160405280929190818152602001828054610fe79061d02a565b80156110345780601f1061100957610100808354040283529160200191611034565b820191906000526020600020905b81548152906001019060200180831161101757829003601f168201915b5050505050925081805480602002602001604051908101604052809291908181526020016000905b8282101561110857838290600052602060002001805461107b9061d02a565b80601f01602080910402602001604051908101604052809291908181526020018280546110a79061d02a565b80156110f45780601f106110c9576101008083540402835291602001916110f4565b820191906000526020600020905b8154815290600101906020018083116110d757829003601f168201915b50505050508152602001906001019061105c565b50505050915080805480602002602001604051908101604052809291908181526020016000905b828210156111975760008481526020902060408051808201909152600284029091018054829060ff1660088111156111695761116961c978565b600881111561117a5761117a61c978565b81526020016001820154815250508152602001906001019061112f565b505050509050935093509350935090919293565b6000546001600160a01b031633148015906111c857506000601654115b801561125b57506015546016546040516331a9108f60e11b81526001600160a01b0390921691636352211e916112049160040190815260200190565b602060405180830381865afa158015611221573d6000803e3d6000fd5b505050506040513d601f19601f82011682018060405250810190611245919061d077565b6001600160a01b0316336001600160a01b031614155b15611279576040516359dc379f60e01b815260040160405180910390fd5b600654156112f4576000600681905561129490600c9061b897565b6112a0600b600061b8b8565b6112ac600a600061b8d6565b6112b8600e600061b8f7565b6112c4600d600061b918565b6112d0600f600061b939565b6112dc6010600061b95a565b6112e86011600061b97b565b6112f46007600061b99c565b6112fe8282612c83565b505050565b606080835b838111611b4b576000600160060182815481106113275761132761d0ca565b60009182526020909120604080518082019091526002909202018054829060ff1660088111156113595761135961c978565b600881111561136a5761136a61c978565b81526001919091015460209091015290506002815160088111156113905761139061c978565b03611407576114008860016009018360200151815481106113b3576113b361d0ca565b60009182526020918290206040805160608101825260029093029091018054835260010154600781810b9484019490945268010000000000000000900490920b9181019190915290612d33565b9750611aec565b60018151600881111561141c5761141c61c978565b036114645761145d886001600a0183602001518154811061143f5761143f61d0ca565b60009182526020918290206040805193840190520154815290612ff1565b9650611aec565b6000815160088111156114795761147961c978565b036116a15761145d876001600b0183602001518154811061149c5761149c61d0ca565b90600052602060002090600a02016040518060e0016040529081600082015481526020016001820160009054906101000a900460ff1660048111156114e3576114e361c978565b60048111156114f4576114f461c978565b8152602001600282015481526020016003820160405180606001604052908160008201805480602002602001604051908101604052809291908181526020016000905b828210156115c6576000848152602090819020830180546040805182850281018501909152818152928301828280156115b257602002820191906000526020600020906000905b825461010083900a900460070b81526020600f830181900493840193600103600890930192909202910180841161157e5790505b505050505081526020019060010190611537565b505050508152602001600182015481526020016002820154815250508152602001600682016040518060400160405290816000820180548060200260200160405190810160405280929190818152602001828054801561166857602002820191906000526020600020906000905b825461010083900a900460070b81526020600f83018190049384019360010360089093019290920291018084116116345790505b5050505050815260200160018201548152505081526020016008820154815260200160098201548152505061301590919063ffffffff16565b6004815160088111156116b6576116b661c978565b036117a357611400886001600c018360200151815481106116d9576116d961d0ca565b600091825260209182902060408051608081018252600690930290910180548352815180830190925291928301906001830160028282826020028201915b815481526020019060010190808311611717575050509183525050604080518082019182905260209092019190600384019060029082845b81548152602001906001019080831161174f575050509183525050600582015460209091019060ff1660018111156117895761178961c978565b600181111561179a5761179a61c978565b90525090613173565b6005815160088111156117b8576117b861c978565b03611aec57611ae9886001600d018360200151815481106117db576117db61d0ca565b90600052602060002090600f020160405180610120016040529081600082015481526020016001820160009054906101000a900460ff1660048111156118235761182361c978565b60048111156118345761183461c978565b8152600282810154602083015260408051808201808352919093019291600385019182845b815481526020019060010190808311611859575050509183525050600582015460209091019060ff1660018111156118935761189361c978565b60018111156118a4576118a461c978565b8152602001600682016040518060a001604052908160008201805480602002602001604051908101604052809291908181526020016000905b828210156119fa57838290600052602060002001805480602002602001604051908101604052809291908181526020016000905b828210156119e757838290600052602060002001805480602002602001604051908101604052809291908181526020016000905b828210156119d4576000848152602090819020830180546040805182850281018501909152818152928301828280156119c057602002820191906000526020600020906000905b825461010083900a900460070b81526020600f830181900493840193600103600890930192909202910180841161198c5790505b505050505081526020019060010190611945565b5050505081526020019060010190611911565b50505050815260200190600101906118dd565b5050505081526020016001820154815260200160028201548152602001600382015481526020016004820154815250508152602001600b820160405180604001604052908160008201805480602002602001604051908101604052809291908181526020018280548015611ab057602002820191906000526020600020906000905b825461010083900a900460070b81526020600f8301819004938401936001036008909301929092029101808411611a7c5790505b505050505081526020016001820154815250508152602001600d8201548152602001600e820154815250506131b190919063ffffffff16565b97505b600754611afb9060019061d0aa565b8203611b3857604080518082019091526060815260006020820181815289519052888252611b2882613225565b518a96509450611b539350505050565b5080611b438161d0e0565b915050611308565b508585915091505b94509492505050565b611b6461349a565b611b6e600061350e565b565b6000806060806060600060016010018781548110611b9057611b9061d0ca565b90600052602060002090602602016040518060a0016040529081600082015481526020016001820154815260200160028201604051806101e0016040529081600082015481526020016001820160009054906101000a900460ff166004811115611bfc57611bfc61c978565b6004811115611c0d57611c0d61c978565b81526020016001820160019054906101000a900460ff166004811115611c3557611c3561c978565b6004811115611c4657611c4661c978565b81526020016002820160405180606001604052908160008201805480602002602001604051908101604052809291908181526020016000905b82821015611d0e57600084815260209081902083018054604080518285028101850190915281815292830182828015611cfa57602002820191906000526020600020906000905b825461010083900a900460070b81526020600f8301819004938401936001036008909301929092029101808411611cc65790505b505050505081526020019060010190611c7f565b5050505081526020016001820154815260200160028201548152505081526020016005820160405180606001604052908160008201805480602002602001604051908101604052809291908181526020016000905b82821015611df257600084815260209081902083018054604080518285028101850190915281815292830182828015611dde57602002820191906000526020600020906000905b825461010083900a900460070b81526020600f8301819004938401936001036008909301929092029101808411611daa5790505b505050505081526020019060010190611d63565b5050505081526020016001820154815260200160028201548152505081526020016008820160405180606001604052908160008201805480602002602001604051908101604052809291908181526020016000905b82821015611ed657600084815260209081902083018054604080518285028101850190915281815292830182828015611ec257602002820191906000526020600020906000905b825461010083900a900460070b81526020600f8301819004938401936001036008909301929092029101808411611e8e5790505b505050505081526020019060010190611e47565b505050508152602001600182015481526020016002820154815250508152602001600b820160405180606001604052908160008201805480602002602001604051908101604052809291908181526020016000905b82821015611fba57600084815260209081902083018054604080518285028101850190915281815292830182828015611fa657602002820191906000526020600020906000905b825461010083900a900460070b81526020600f8301819004938401936001036008909301929092029101808411611f725790505b505050505081526020019060010190611f2b565b505050508152602001600182015481526020016002820154815250508152602001600e820160405180606001604052908160008201805480602002602001604051908101604052809291908181526020016000905b8282101561209e5760008481526020908190208301805460408051828502810185019091528181529283018282801561208a57602002820191906000526020600020906000905b825461010083900a900460070b81526020600f83018190049384019360010360089093019290920291018084116120565790505b50505050508152602001906001019061200f565b5050505081526020016001820154815260200160028201548152505081526020016011820160405180606001604052908160008201805480602002602001604051908101604052809291908181526020016000905b828210156121825760008481526020908190208301805460408051828502810185019091528181529283018282801561216e57602002820191906000526020600020906000905b825461010083900a900460070b81526020600f830181900493840193600103600890930192909202910180841161213a5790505b5050505050815260200190600101906120f3565b5050505081526020016001820154815260200160028201548152505081526020016014820160405180606001604052908160008201805480602002602001604051908101604052809291908181526020016000905b828210156122665760008481526020908190208301805460408051828502810185019091528181529283018282801561225257602002820191906000526020600020906000905b825461010083900a900460070b81526020600f830181900493840193600103600890930192909202910180841161221e5790505b5050505050815260200190600101906121d7565b5050505081526020016001820154815260200160028201548152505081526020016017820160405180606001604052908160008201805480602002602001604051908101604052809291908181526020016000905b8282101561234a5760008481526020908190208301805460408051828502810185019091528181529283018282801561233657602002820191906000526020600020906000905b825461010083900a900460070b81526020600f83018190049384019360010360089093019290920291018084116123025790505b5050505050815260200190600101906122bb565b505050508152602001600182015481526020016002820154815250508152602001601a8201604051806040016040529081600082018054806020026020016040519081016040528092919081815260200182805480156123ec57602002820191906000526020600020906000905b825461010083900a900460070b81526020600f83018190049384019360010360089093019290920291018084116123b85790505b505050505081526020016001820154815250508152602001601c82016040518060400160405290816000820180548060200260200160405190810160405280929190818152602001828054801561248557602002820191906000526020600020906000905b825461010083900a900460070b81526020600f83018190049384019360010360089093019290920291018084116124515790505b505050505081526020016001820154815250508152602001601e82016040518060400160405290816000820180548060200260200160405190810160405280929190818152602001828054801561251e57602002820191906000526020600020906000905b825461010083900a900460070b81526020600f83018190049384019360010360089093019290920291018084116124ea5790505b50505050508152602001600182015481525050815260200160208201604051806040016040529081600082018054806020026020016040519081016040528092919081815260200182805480156125b757602002820191906000526020600020906000905b825461010083900a900460070b81526020600f83018190049384019360010360089093019290920291018084116125835790505b5050509183525050600191909101546020918201529152918352506024830154828201526025909201546040918201528201519101518151608083015151610100840151516101809094015151929c919b50995091975095509350505050565b60165460000361263a576040516311443e4960e21b815260040160405180910390fd5b606061264885858585613576565b6016546040519296509094509192507f24e6208ee3b2dd5befe4deb62d7248842134648173b577ef287e2efb60b22891906126889084908790879061d1c7565b60405180910390a2505050505050565b6000546001600160a01b031633148015906126b557506000601654115b801561274857506015546016546040516331a9108f60e11b81526001600160a01b0390921691636352211e916126f19160040190815260200190565b602060405180830381865afa15801561270e573d6000803e3d6000fd5b505050506040513d601f19601f82011682018060405250810190612732919061d077565b6001600160a01b0316336001600160a01b031614155b15612766576040516359dc379f60e01b815260040160405180910390fd5b815160129061277b908290602086019061b9bd565b5060005b83518110156127e25761279381600161d1fd565b8260010160006127c18785815181106127ae576127ae61d0ca565b6020026020010151805160209091012090565b81526020810191909152604001600020556127db8161d0e0565b905061277f565b50815160208084019190912060009081526001838101909252604090205460028301819055612846918591612817919061d0aa565b815181106128275761282761d0ca565b6020026020010151838051602091820120825192909101919091201490565b61287c576040517fe03e966700000000000000000000000000000000000000000000000000000000815260040160405180910390fd5b50505050565b6000546001600160a01b0316331480159061289f57506000601654115b801561293257506015546016546040516331a9108f60e11b81526001600160a01b0390921691636352211e916128db9160040190815260200190565b602060405180830381865afa1580156128f8573d6000803e3d6000fd5b505050506040513d601f19601f8201168201806040525081019061291c919061d077565b6001600160a01b0316336001600160a01b031614155b15612950576040516359dc379f60e01b815260040160405180910390fd5b6000808260088111156129655761296561c978565b036129a7576129a0846001600b0185815481106129845761298461d0ca565b90600052602060002090600a020161508690919063ffffffff16565b9050612ae6565b60058260088111156129bb576129bb61c978565b036129f6576129a0846001600d0185815481106129da576129da61d0ca565b90600052602060002090600f020161528090919063ffffffff16565b6006826008811115612a0a57612a0a61c978565b03612a45576129a0846001600e018581548110612a2957612a2961d0ca565b906000526020600020906008020161551f90919063ffffffff16565b6007826008811115612a5957612a5961c978565b03612a94576129a0846001600f018581548110612a7857612a7861d0ca565b90600052602060002090600d020161565a90919063ffffffff16565b6008826008811115612aa857612aa861c978565b03612ae657612ae38460016010018581548110612ac757612ac761d0ca565b906000526020600020906026020161594a90919063ffffffff16565b90505b8060016008016000828254612afb919061d1fd565b9091555050600854600954148015612b135750600085115b15612bbf576015546016546040516331a9108f60e11b8152600481019190915286916001600160a01b031690636352211e90602401602060405180830381865afa158015612b65573d6000803e3d6000fd5b505050506040513d601f19601f82011682018060405250810190612b89919061d077565b6001600160a01b03167fb03c53b28e78a88e31607a27e1fa48234dce28d5d9d9ec7b295aeb02e674a1e160405160405180910390a35b5050505050565b612bce61349a565b6001600160a01b038116612c69576040517f08c379a000000000000000000000000000000000000000000000000000000000815260206004820152602660248201527f4f776e61626c653a206e6577206f776e657220697320746865207a65726f206160448201527f646472657373000000000000000000000000000000000000000000000000000060648201526084015b60405180910390fd5b610f648161350e565b600781810b9083900b135b92915050565b600681905560006008819055600955612c9a61b879565b6000805b83811015612bbf57612d1c6040518060400160405280878785818110612cc657612cc661d0ca565b9050602002810190612cd8919061d210565b8080601f0160208091040260200160405190810160405280939291908181526020018383808284376000920191909152505050908252506020018390528484616011565b909350915080612d2b8161d0e0565b915050612c9e565b80516060906000838183612d4957612d4961d0ca565b6020026020010151519050600084600081518110612d6957612d6961d0ca565b6020026020010151600081518110612d8357612d8361d0ca565b602002602001015151905060008367ffffffffffffffff811115612da957612da961caee565b604051908082528060200260200182016040528015612ddc57816020015b6060815260200190600190039081612dc75790505b50905060005b84811015612fe6578367ffffffffffffffff811115612e0357612e0361caee565b604051908082528060200260200182016040528015612e3657816020015b6060815260200190600190039081612e215790505b50828281518110612e4957612e4961d0ca565b602002602001018190525060005b84811015612fd3578367ffffffffffffffff811115612e7857612e7861caee565b604051908082528060200260200182016040528015612ea1578160200160208202803683370190505b50838381518110612eb457612eb461d0ca565b60200260200101518281518110612ecd57612ecd61d0ca565b602002602001018190525060005b84811015612fc057612f55612f4b8b602001518b8681518110612f0057612f0061d0ca565b60200260200101518581518110612f1957612f1961d0ca565b60200260200101518481518110612f3257612f3261d0ca565b602002602001015160070b61709590919063ffffffff16565b8b604001516170a8565b848481518110612f6757612f6761d0ca565b60200260200101518381518110612f8057612f8061d0ca565b60200260200101518281518110612f9957612f9961d0ca565b602002602001019060070b908160070b815250508080612fb89061d0e0565b915050612edb565b5080612fcb8161d0e0565b915050612e57565b5080612fde8161d0e0565b915050612de2565b509695505050505050565b60606000612ffe836170b4565b905061300d816000015161714f565b949350505050565b60408051808201825260608082526000602083019081528451905283825284810151608086015193810151919390916001148015613057575060208101516001145b1561313057600061306b83602001516172eb565b905060005b83602001518110156130ef5783518051829081106130905761309061d0ca565b60200260200101516000815181106130aa576130aa61d0ca565b6020026020010151826000015182815181106130c8576130c861d0ca565b602002602001019060070b908160070b8152505080806130e79061d0e0565b915050613070565b50600061310683613100878561734a565b9061746a565b9050600061312189602001518361748c90919063ffffffff16565b519650612c7d95505050505050565b600061313c8484617593565b9050600061314a828461746a565b9050600061316589602001518361748c90919063ffffffff16565b519998505050505050505050565b60606000613180836170b4565b905060006131a785604001518660200151876060015185617727909392919063ffffffff16565b5195945050505050565b606060006131be836170b4565b905060008460a00151905060008560c00151905060006131fd826131f7858a606001518b6080015189617895909392919063ffffffff16565b90617a1a565b90506000613218886020015183617a5290919063ffffffff16565b5198975050505050505050565b604080518082019091526060815260006020820152602082015160008167ffffffffffffffff81111561325a5761325a61caee565b604051908082528060200260200182016040528015613283578160200160208202803683370190505b50905060005b828110156132fe576132cf6020866000015183815181106132ac576132ac61d0ca565b602002602001015160070b670de0b6b3a76400006132ca919061d257565b901d90565b8282815181106132e1576132e161d0ca565b6020908102919091010152806132f68161d0e0565b915050613289565b5060005b8281101561335b5761332c82828151811061331f5761331f61d0ca565b6020026020010151617b39565b82828151811061333e5761333e61d0ca565b6020908102919091010152806133538161d0e0565b915050613302565b506000805b8381101561339f5761338b8284838151811061337e5761337e61d0ca565b6020026020010151617ba7565b9150806133978161d0e0565b915050613360565b5060005b83811015613406576133d7828483815181106133c1576133c161d0ca565b6020026020010151617bb690919063ffffffff16565b8382815181106133e9576133e961d0ca565b6020908102919091010152806133fe8161d0e0565b9150506133a3565b506000613412846172eb565b905060005b8481101561349057670de0b6b3a7640000602061344a86848151811061343f5761343f61d0ca565b602002602001015190565b61345592911b61d29d565b82518051839081106134695761346961d0ca565b602002602001019060070b908160070b8152505080806134889061d0e0565b915050613417565b5095945050505050565b6000546001600160a01b03163314611b6e576040517f08c379a000000000000000000000000000000000000000000000000000000000815260206004820181905260248201527f4f776e61626c653a2063616c6c6572206973206e6f7420746865206f776e65726044820152606401612c60565b600080546001600160a01b038381167fffffffffffffffffffffffff0000000000000000000000000000000000000000831681178455604051919092169283917f8be0079c531659141344cd1fd0a4f28419497f9722a3daafe3b4186f6b6457e09190a35050565b604080516102408101909152606090819060009063b33333339082906001816101e081018260038282826020028201915b8154815260200190600101908083116135a757505050505081526020016003820180546135d39061d02a565b80601f01602080910402602001604051908101604052809291908181526020018280546135ff9061d02a565b801561364c5780601f106136215761010080835404028352916020019161364c565b820191906000526020600020905b81548152906001019060200180831161362f57829003601f168201915b5050505050815260200160048201805480602002602001604051908101604052809291908181526020016000905b828210156137265783829060005260206000200180546136999061d02a565b80601f01602080910402602001604051908101604052809291908181526020018280546136c59061d02a565b80156137125780601f106136e757610100808354040283529160200191613712565b820191906000526020600020905b8154815290600101906020018083116136f557829003601f168201915b50505050508152602001906001019061367a565b5050505081526020016005820154815260200160068201805480602002602001604051908101604052809291908181526020016000905b828210156137c55760008481526020902060408051808201909152600284029091018054829060ff1660088111156137975761379761c978565b60088111156137a8576137a861c978565b81526020016001820154815250508152602001906001019061375d565b505050508152602001600782015481526020016008820154815260200160098201805480602002602001604051908101604052809291908181526020016000905b82821015613860576000848152602090819020604080516060810182526002860290920180548352600190810154600781810b8587015268010000000000000000909104900b918301919091529083529092019101613806565b505050508152602001600a8201805480602002602001604051908101604052809291908181526020016000905b828210156138be5760008481526020908190206040805180840190915290840154815282526001909201910161388d565b505050508152602001600b8201805480602002602001604051908101604052809291908181526020016000905b82821015613afb57838290600052602060002090600a02016040518060e0016040529081600082015481526020016001820160009054906101000a900460ff16600481111561393c5761393c61c978565b600481111561394d5761394d61c978565b8152602001600282015481526020016003820160405180606001604052908160008201805480602002602001604051908101604052809291908181526020016000905b82821015613a1f57600084815260209081902083018054604080518285028101850190915281815292830182828015613a0b57602002820191906000526020600020906000905b825461010083900a900460070b81526020600f83018190049384019360010360089093019290920291018084116139d75790505b505050505081526020019060010190613990565b5050505081526020016001820154815260200160028201548152505081526020016006820160405180604001604052908160008201805480602002602001604051908101604052809291908181526020018280548015613ac157602002820191906000526020600020906000905b825461010083900a900460070b81526020600f8301819004938401936001036008909301929092029101808411613a8d5790505b50505050508152602001600182015481525050815260200160088201548152602001600982015481525050815260200190600101906138eb565b505050508152602001600c8201805480602002602001604051908101604052809291908181526020016000905b82821015613c03576000848152602090819020604080516080810182526006860290920180548352815180830190925291928301906001830160028282826020028201915b815481526020019060010190808311613b6d575050509183525050604080518082019182905260209092019190600384019060029082845b815481526020019060010190808311613ba5575050509183525050600582015460209091019060ff166001811115613bdf57613bdf61c978565b6001811115613bf057613bf061c978565b8152505081526020019060010190613b28565b505050508152602001600d8201805480602002602001604051908101604052809291908181526020016000905b82821015613f4957838290600052602060002090600f020160405180610120016040529081600082015481526020016001820160009054906101000a900460ff166004811115613c8257613c8261c978565b6004811115613c9357613c9361c978565b8152600282810154602083015260408051808201808352919093019291600385019182845b815481526020019060010190808311613cb8575050509183525050600582015460209091019060ff166001811115613cf257613cf261c978565b6001811115613d0357613d0361c978565b8152602001600682016040518060a001604052908160008201805480602002602001604051908101604052809291908181526020016000905b82821015613e5957838290600052602060002001805480602002602001604051908101604052809291908181526020016000905b82821015613e4657838290600052602060002001805480602002602001604051908101604052809291908181526020016000905b82821015613e3357600084815260209081902083018054604080518285028101850190915281815292830182828015613e1f57602002820191906000526020600020906000905b825461010083900a900460070b81526020600f8301819004938401936001036008909301929092029101808411613deb5790505b505050505081526020019060010190613da4565b5050505081526020019060010190613d70565b5050505081526020019060010190613d3c565b5050505081526020016001820154815260200160028201548152602001600382015481526020016004820154815250508152602001600b820160405180604001604052908160008201805480602002602001604051908101604052809291908181526020018280548015613f0f57602002820191906000526020600020906000905b825461010083900a900460070b81526020600f8301819004938401936001036008909301929092029101808411613edb5790505b505050505081526020016001820154815250508152602001600d8201548152602001600e8201548152505081526020019060010190613c30565b505050508152602001600e8201805480602002602001604051908101604052809291908181526020016000905b828210156140be57838290600052602060002090600802016040518060c00160405290816000820154815260200160018201548152602001600282015481526020016003820160405180606001604052908160008201805480602002602001604051908101604052809291908181526020016000905b8282101561407b5760008481526020908190208301805460408051828502810185019091528181529283018282801561406757602002820191906000526020600020906000905b825461010083900a900460070b81526020600f83018190049384019360010360089093019290920291018084116140335790505b505050505081526020019060010190613fec565b5050505081526020016001820154815260200160028201548152505081526020016006820154815260200160078201548152505081526020019060010190613f76565b505050508152602001600f8201805480602002602001604051908101604052809291908181526020016000905b828210156143e057838290600052602060002090600d02016040518061010001604052908160008201548152602001600182015481526020016002820160009054906101000a900460ff1660048111156141475761414761c978565b60048111156141585761415861c978565b81526020016003820160405180606001604052908160008201805480602002602001604051908101604052809291908181526020016000905b828210156142205760008481526020908190208301805460408051828502810185019091528181529283018282801561420c57602002820191906000526020600020906000905b825461010083900a900460070b81526020600f83018190049384019360010360089093019290920291018084116141d85790505b505050505081526020019060010190614191565b5050505081526020016001820154815260200160028201548152505081526020016006820160405180606001604052908160008201805480602002602001604051908101604052809291908181526020016000905b82821015614304576000848152602090819020830180546040805182850281018501909152818152928301828280156142f057602002820191906000526020600020906000905b825461010083900a900460070b81526020600f83018190049384019360010360089093019290920291018084116142bc5790505b505050505081526020019060010190614275565b50505050815260200160018201548152602001600282015481525050815260200160098201604051806040016040529081600082018054806020026020016040519081016040528092919081815260200182805480156143a657602002820191906000526020600020906000905b825461010083900a900460070b81526020600f83018190049384019360010360089093019290920291018084116143725790505b505050505081526020016001820154815250508152602001600b8201548152602001600c82015481525050815260200190600101906140eb565b50505050815260200160108201805480602002602001604051908101604052809291908181526020016000905b82821015614e7c57838290600052602060002090602602016040518060a0016040529081600082015481526020016001820154815260200160028201604051806101e0016040529081600082015481526020016001820160009054906101000a900460ff1660048111156144835761448361c978565b60048111156144945761449461c978565b81526020016001820160019054906101000a900460ff1660048111156144bc576144bc61c978565b60048111156144cd576144cd61c978565b81526020016002820160405180606001604052908160008201805480602002602001604051908101604052809291908181526020016000905b828210156145955760008481526020908190208301805460408051828502810185019091528181529283018282801561458157602002820191906000526020600020906000905b825461010083900a900460070b81526020600f830181900493840193600103600890930192909202910180841161454d5790505b505050505081526020019060010190614506565b5050505081526020016001820154815260200160028201548152505081526020016005820160405180606001604052908160008201805480602002602001604051908101604052809291908181526020016000905b828210156146795760008481526020908190208301805460408051828502810185019091528181529283018282801561466557602002820191906000526020600020906000905b825461010083900a900460070b81526020600f83018190049384019360010360089093019290920291018084116146315790505b5050505050815260200190600101906145ea565b5050505081526020016001820154815260200160028201548152505081526020016008820160405180606001604052908160008201805480602002602001604051908101604052809291908181526020016000905b8282101561475d5760008481526020908190208301805460408051828502810185019091528181529283018282801561474957602002820191906000526020600020906000905b825461010083900a900460070b81526020600f83018190049384019360010360089093019290920291018084116147155790505b5050505050815260200190600101906146ce565b505050508152602001600182015481526020016002820154815250508152602001600b820160405180606001604052908160008201805480602002602001604051908101604052809291908181526020016000905b828210156148415760008481526020908190208301805460408051828502810185019091528181529283018282801561482d57602002820191906000526020600020906000905b825461010083900a900460070b81526020600f83018190049384019360010360089093019290920291018084116147f95790505b5050505050815260200190600101906147b2565b505050508152602001600182015481526020016002820154815250508152602001600e820160405180606001604052908160008201805480602002602001604051908101604052809291908181526020016000905b828210156149255760008481526020908190208301805460408051828502810185019091528181529283018282801561491157602002820191906000526020600020906000905b825461010083900a900460070b81526020600f83018190049384019360010360089093019290920291018084116148dd5790505b505050505081526020019060010190614896565b5050505081526020016001820154815260200160028201548152505081526020016011820160405180606001604052908160008201805480602002602001604051908101604052809291908181526020016000905b82821015614a09576000848152602090819020830180546040805182850281018501909152818152928301828280156149f557602002820191906000526020600020906000905b825461010083900a900460070b81526020600f83018190049384019360010360089093019290920291018084116149c15790505b50505050508152602001906001019061497a565b5050505081526020016001820154815260200160028201548152505081526020016014820160405180606001604052908160008201805480602002602001604051908101604052809291908181526020016000905b82821015614aed57600084815260209081902083018054604080518285028101850190915281815292830182828015614ad957602002820191906000526020600020906000905b825461010083900a900460070b81526020600f8301819004938401936001036008909301929092029101808411614aa55790505b505050505081526020019060010190614a5e565b5050505081526020016001820154815260200160028201548152505081526020016017820160405180606001604052908160008201805480602002602001604051908101604052809291908181526020016000905b82821015614bd157600084815260209081902083018054604080518285028101850190915281815292830182828015614bbd57602002820191906000526020600020906000905b825461010083900a900460070b81526020600f8301819004938401936001036008909301929092029101808411614b895790505b505050505081526020019060010190614b42565b505050508152602001600182015481526020016002820154815250508152602001601a820160405180604001604052908160008201805480602002602001604051908101604052809291908181526020018280548015614c7357602002820191906000526020600020906000905b825461010083900a900460070b81526020600f8301819004938401936001036008909301929092029101808411614c3f5790505b505050505081526020016001820154815250508152602001601c820160405180604001604052908160008201805480602002602001604051908101604052809291908181526020018280548015614d0c57602002820191906000526020600020906000905b825461010083900a900460070b81526020600f8301819004938401936001036008909301929092029101808411614cd85790505b505050505081526020016001820154815250508152602001601e820160405180604001604052908160008201805480602002602001604051908101604052809291908181526020018280548015614da557602002820191906000526020600020906000905b825461010083900a900460070b81526020600f8301819004938401936001036008909301929092029101808411614d715790505b5050505050815260200160018201548152505081526020016020820160405180604001604052908160008201805480602002602001604051908101604052809291908181526020018280548015614e3e57602002820191906000526020600020906000905b825461010083900a900460070b81526020600f8301819004938401936001036008909301929092029101808411614e0a5790505b50505050508152602001600182015481525050815250508152602001602482015481526020016025820154815250508152602001906001019061440d565b505050508152505090506000614e918a617cd5565b905060608851600003614f24576101a08301515115614ee1576101a08301518051614ed991600190600083614ec857614ec861d0ca565b602002602001015160200151617dfa565b519850614f24565b6101c08301515115614f24576101c08301518051614f2091600290600083614f0b57614f0b61d0ca565b60200260200101516040015160000151617dfa565b5198505b60005b60018351614f35919061d0aa565b811015614f7657614f6284848381518110614f5257614f5261d0ca565b60200260200101518c6000617fac565b9a509150614f6f8161d0e0565b9050614f27565b5060008260018451614f88919061d0aa565b81518110614f9857614f9861d0ca565b6020026020010151905060008b67ffffffffffffffff811115614fbd57614fbd61caee565b604051908082528060200260200182016040528015614fe6578160200160208202803683370190505b50905060005b8c8110156150675760408051602081018d9052016040516020818303038152906040528051906020012060001c9a5061502886848e6001617fac565b9c50935061503784888d61826e565b92508282828151811061504c5761504c61d0ca565b60209081029190910101526150608161d0e0565b9050614fec565b506000615073826183f3565b9e9b9d50999b5050505050505050505050565b60088201546009830154600091908282810361518a57600586015460048701546000906150b490839061d2cb565b90505b8651831080156150c657508084105b1561517057600388016150d9838661d2e2565b815481106150e9576150e961d0ca565b906000526020600020018784815181106151055761510561d0ca565b60209081029190910181015182546001810184556000938452919092206004820401805460039092166008026101000a67ffffffffffffffff8181021990931692909316929092021790558361515a8161d0e0565b94505082806151689061d0e0565b9350506150b7565b808403615187576151808561d0e0565b9450600093505b50505b826001036152495760078601545b8551821080156151a757508083105b1561523057866006016000018683815181106151c5576151c561d0ca565b60209081029190910181015182546001810184556000938452919092206004820401805460039092166008026101000a67ffffffffffffffff8181021990931692909316929092021790558261521a8161d0e0565b93505081806152289061d0e0565b925050615198565b808303615247576152408461d0e0565b9350600092505b505b845181101561526b57604051630af594f760e11b815260040160405180910390fd5b60088601929092556009850155905092915050565b600d820154600e83015460009190828281036154295760088601546009870154600a8801546007890154600090829084906152bc90879061d2cb565b6152c6919061d2cb565b6152d0919061d2cb565b90505b8851851080156152e257508086105b1561540d5760068a01826152f6858761d2cb565b615300919061d2cb565b61530a908861d2e2565b8154811061531a5761531a61d0ca565b90600052602060002001848385615331919061d2cb565b61533b908961d2e2565b615345919061d2f6565b815481106153555761535561d0ca565b9060005260206000200183838861536c919061d2e2565b615376919061d2f6565b815481106153865761538661d0ca565b906000526020600020018986815181106153a2576153a261d0ca565b60209081029190910181015182546001810184556000938452919092206004820401805460039092166008026101000a67ffffffffffffffff818102199093169290931692909202179055856153f78161d0e0565b96505084806154059061d0e0565b9550506152d3565b8086036154245761541d8761d0e0565b9650600095505b505050505b826001036154e857600c8601545b85518210801561544657508083105b156154cf5786600b016000018683815181106154645761546461d0ca565b60209081029190910181015182546001810184556000938452919092206004820401805460039092166008026101000a67ffffffffffffffff818102199093169290931692909202179055826154b98161d0e0565b93505081806154c79061d0e0565b925050615437565b8083036154e6576154df8461d0e0565b9350600092505b505b845181101561550a57604051630af594f760e11b815260040160405180910390fd5b600d860192909255600e850155905092915050565b600682015460078301546000919082828103615623576005860154600487015460009061554d90839061d2cb565b90505b86518310801561555f57508084105b156156095760038801615572838661d2e2565b815481106155825761558261d0ca565b9060005260206000200187848151811061559e5761559e61d0ca565b60209081029190910181015182546001810184556000938452919092206004820401805460039092166008026101000a67ffffffffffffffff818102199093169290931692909202179055836155f38161d0e0565b94505082806156019061d0e0565b935050615550565b808403615620576156198561d0e0565b9450600093505b50505b845181101561564557604051630af594f760e11b815260040160405180910390fd5b60068601929092556007850155905092915050565b600b820154600c830154600091908282810361575e576005860154600487015460009061568890839061d2cb565b90505b86518310801561569a57508084105b1561574457600388016156ad838661d2e2565b815481106156bd576156bd61d0ca565b906000526020600020018784815181106156d9576156d961d0ca565b60209081029190910181015182546001810184556000938452919092206004820401805460039092166008026101000a67ffffffffffffffff8181021990931692909316929092021790558361572e8161d0e0565b945050828061573c9061d0e0565b93505061568b565b80840361575b576157548561d0e0565b9450600093505b50505b82600103615854576008860154600787015460009061577e90839061d2cb565b90505b86518310801561579057508084105b1561583a57600688016157a3838661d2e2565b815481106157b3576157b361d0ca565b906000526020600020018784815181106157cf576157cf61d0ca565b60209081029190910181015182546001810184556000938452919092206004820401805460039092166008026101000a67ffffffffffffffff818102199093169290931692909202179055836158248161d0e0565b94505082806158329061d0e0565b935050615781565b8084036158515761584a8561d0e0565b9450600093505b50505b8260020361591357600a8601545b85518210801561587157508083105b156158fa578660090160000186838151811061588f5761588f61d0ca565b60209081029190910181015182546001810184556000938452919092206004820401805460039092166008026101000a67ffffffffffffffff818102199093169290931692909202179055826158e48161d0e0565b93505081806158f29061d0e0565b925050615862565b8083036159115761590a8461d0e0565b9350600092505b505b845181101561593557604051630af594f760e11b815260040160405180910390fd5b600b860192909255600c850155905092915050565b60258201546024830154600091600285019183828103615bb2576004808501549060009061597990839061d2cb565b90506000818760020160010154615990919061d2cb565b90505b8851841080156159a257508085105b15615b975760006159b3838761d2e2565b90506000846159c2858961d2f6565b6159cc919061d2e2565b905060006159da868961d2f6565b905081600003615a74578b87815181106159f6576159f661d0ca565b60200260200101518a6002016000018481548110615a1657615a1661d0ca565b906000526020600020018281548110615a3157615a3161d0ca565b90600052602060002090600491828204019190066008026101000a81548167ffffffffffffffff021916908360070b67ffffffffffffffff160217905550615b74565b81600103615aae578b8781518110615a8e57615a8e61d0ca565b60200260200101518a6005016000018481548110615a1657615a1661d0ca565b81600203615ae8578b8781518110615ac857615ac861d0ca565b60200260200101518a6008016000018481548110615a1657615a1661d0ca565b8b8781518110615afa57615afa61d0ca565b60200260200101518a600b016000018481548110615b1a57615b1a61d0ca565b906000526020600020018281548110615b3557615b3561d0ca565b90600052602060002090600491828204019190066008026101000a81548167ffffffffffffffff021916908360070b67ffffffffffffffff1602179055505b87615b7e8161d0e0565b9850508680615b8c9061d0e0565b975050505050615993565b808503615bae57615ba78661d0e0565b9550600094505b5050505b82600103615e055760108401546000615bcc82600461d2cb565b905060008187600e0160010154615be3919061d2cb565b90505b885184108015615bf557508085105b15615dea576000615c06838761d2e2565b9050600084615c15858961d2f6565b615c1f919061d2e2565b90506000615c2d868961d2f6565b905081600003615cc7578b8781518110615c4957615c4961d0ca565b60200260200101518a600e016000018481548110615c6957615c6961d0ca565b906000526020600020018281548110615c8457615c8461d0ca565b90600052602060002090600491828204019190066008026101000a81548167ffffffffffffffff021916908360070b67ffffffffffffffff160217905550615dc7565b81600103615d01578b8781518110615ce157615ce161d0ca565b60200260200101518a6011016000018481548110615c6957615c6961d0ca565b81600203615d3b578b8781518110615d1b57615d1b61d0ca565b60200260200101518a6014016000018481548110615c6957615c6961d0ca565b8b8781518110615d4d57615d4d61d0ca565b60200260200101518a6017016000018481548110615d6d57615d6d61d0ca565b906000526020600020018281548110615d8857615d8861d0ca565b90600052602060002090600491828204019190066008026101000a81548167ffffffffffffffff021916908360070b67ffffffffffffffff1602179055505b87615dd18161d0e0565b9850508680615ddf9061d0e0565b975050505050615be6565b808503615e0157615dfa8661d0e0565b9550600094505b5050505b82600203615ffb57601b8401546000615e1f82600461d2cb565b90505b875183108015615e3157508084105b15615fe157600082615e43838761d2f6565b615e4d919061d2e2565b90506000615e5b848761d2f6565b905081600003615eda57898581518110615e7757615e7761d0ca565b602002602001015188601a016000018281548110615e9757615e9761d0ca565b90600052602060002090600491828204019190066008026101000a81548167ffffffffffffffff021916908360070b67ffffffffffffffff160217905550615fbf565b81600103615f1457898581518110615ef457615ef461d0ca565b602002602001015188601c016000018281548110615e9757615e9761d0ca565b81600203615f4e57898581518110615f2e57615f2e61d0ca565b602002602001015188601e016000018281548110615e9757615e9761d0ca565b898581518110615f6057615f6061d0ca565b6020026020010151886020016000018281548110615f8057615f8061d0ca565b90600052602060002090600491828204019190066008026101000a81548167ffffffffffffffff021916908360070b67ffffffffffffffff1602179055505b85615fc98161d0e0565b9650508480615fd79061d0e0565b9550505050615e22565b808403615ff857615ff18561d0e0565b9450600093505b50505b6025870192909255602486015591505092915050565b61601961b879565b6000808560000151806020019051810190616034919061d320565b905060ff811661620557600080600061604d8988618512565b600c8054600181810183556000929092528451600a9091027fdf6966c971051c3d54ec59162606531493a51404a002842f56009d7e5cf4a8c7810191825560208601517fdf6966c971051c3d54ec59162606531493a51404a002842f56009d7e5cf4a8c89091018054969950949750929550879490939160ff19909116908360048111156160dd576160dd61c978565b02179055506040820151600282015560608201518051805160038401916161099183916020019061ba0f565b5060208281015160018301556040909201516002909101556080830151805180519192600685019261613e928492019061ba68565b5060208201518160010155505060a0820151816008015560c0820151816009015550508060016007016000828254616176919061d1fd565b9091555050600c5491965086916000906161929060019061d0aa565b604080518082019091529091506007908060005b8152602090810184905282546001818101855560009485529190932082516002909402018054929390929091839160ff1916908360088111156161eb576161eb61c978565b021790555060208201518160010155505050505050617089565b60001960ff8216016162de5760008061621e88886185f6565b600b805460018181018355600083815285517f0175b7a638427703f0dbe7bb9bbf987a2551717b34e79f33b5b1008d1fa01db990930192909255915492995092945088935061626c9161d0aa565b604080518082019091529091506007908060015b8152602090810184905282546001818101855560009485529190932082516002909402018054929390929091839160ff1916908360088111156162c5576162c561c978565b0217905550602082015181600101555050505050617089565b7ffffffffffffffffffffffffffffffffffffffffffffffffffffffffffffffffe60ff8216016164605760006163138761863b565b600a8054600181810183556000838152845160029093027fc65a7bb8d6351c1cf70c95a316cc6a92839c986682d98bc35f958f4883f9d2a881019390935560208501517fc65a7bb8d6351c1cf70c95a316cc6a92839c986682d98bc35f958f4883f9d2a99093018054604087015167ffffffffffffffff90811668010000000000000000027fffffffffffffffffffffffffffffffff00000000000000000000000000000000909216951694909417939093179092559154929350916163d9919061d0aa565b604080518082019091526002808252602082018390526007805460018082018355600092909252835192027fa66cc928b5edb82af9bd49922954155ab7b0942694bea4ce44661d9a8736c6880180549495509293839160ff19909116908360088111156164485761644861c978565b02179055506020820151816001015550505050617089565b7ffffffffffffffffffffffffffffffffffffffffffffffffffffffffffffffffd60ff82160161657b57600086600001518060200190518101906164a4919061d33b565b9150508060ff166000036164bb57600194506164f7565b8060ff166001036164f757600087600001518060200190518101906164e0919061d365565b92506164f391506001905082600361bb22565b5095505b6040805180820190915260038152600060208201819052600780546001808201835591909252825160029092027fa66cc928b5edb82af9bd49922954155ab7b0942694bea4ce44661d9a8736c688018054909291839160ff1916908360088111156165645761656461c978565b021790555060208201518160010155505050617089565b7ffffffffffffffffffffffffffffffffffffffffffffffffffffffffffffffffc60ff82160161669a576000806165b288886186a0565b600d805460018101825560009190915282517fd7b6990105719101dabeb77144f2a3385c8033acd3af97e9423a695e81ad1eb560069092029182019081556020840151939550919350849261662b917fd7b6990105719101dabeb77144f2a3385c8033acd3af97e9423a695e81ad1eb60190600261bb50565b506040820151616641906003830190600261bb50565b50606082015160058201805460ff1916600183818111156166645761666461c978565b021790555050600d549197508791600091506166829060019061d0aa565b60408051808201909152909150600790806004616280565b7ffffffffffffffffffffffffffffffffffffffffffffffffffffffffffffffffb60ff8216016168845760008060006166d389896187bb565b600e8054600181810183556000929092528451600f9091027fbb7b4a454dc3493923482f07822329ed19e8244eff582cc204f8554c3620c3fd810191825560208601517fbb7b4a454dc3493923482f07822329ed19e8244eff582cc204f8554c3620c3fe9091018054969950949750929550879490939160ff19909116908360048111156167635761676361c978565b02179055506040820151816002015560608201518160030190600261678992919061bb50565b50608082015160058201805460ff1916600183818111156167ac576167ac61c978565b021790555060a08201518051805160068401916167ce9183916020019061bb7d565b506020828101516001830155604083015160028301556060830151600383015560809092015160049091015560c0830151805180519192600b850192616817928492019061ba68565b5060208201518160010155505060e082015181600d015561010082015181600e015550508060016007016000828254616850919061d1fd565b9091555050600e54919750879160009061686c9060019061d0aa565b604080518082019091529091506007908060056161a6565b7ffffffffffffffffffffffffffffffffffffffffffffffffffffffffffffffffa60ff821601616a0a5760008060006168bc89618958565b600f8054600181018255600091909152835160089091027f8d1108e10bcb7c27dddfc02ed9d693a074039d026cf4ea4240b40f7d581ac80281019182556020808601517f8d1108e10bcb7c27dddfc02ed9d693a074039d026cf4ea4240b40f7d581ac80383015560408601517f8d1108e10bcb7c27dddfc02ed9d693a074039d026cf4ea4240b40f7d581ac804830155606086015180518051979a50959850939650889592947f8d1108e10bcb7c27dddfc02ed9d693a074039d026cf4ea4240b40f7d581ac80590920192616994928492019061ba0f565b50602082015181600101556040820151816002015550506080820151816006015560a08201518160070155505080600160070160008282546169d6919061d1fd565b9091555050600f5491965086916000906169f29060019061d0aa565b604080518082019091529091506007908060066161a6565b7ffffffffffffffffffffffffffffffffffffffffffffffffffffffffffffffff960ff821601616bf3576000806000616a4389886189db565b60108054600181810183556000929092528451600d9091027f1b6847dc741a1b0cd08d278845f9d819d87b734759afb55fe2de5cb82a9ae672810191825560208601517f1b6847dc741a1b0cd08d278845f9d819d87b734759afb55fe2de5cb82a9ae67382015560408601517f1b6847dc741a1b0cd08d278845f9d819d87b734759afb55fe2de5cb82a9ae6749091018054969950949750929550879490939160ff1990911690836004811115616afc57616afc61c978565b02179055506060820151805180516003840191616b1e9183916020019061ba0f565b50602082810151600183015560409092015160029091015560808301518051805191926006850192616b53928492019061ba0f565b50602082810151600183015560409092015160029091015560a08301518051805191926009850192616b88928492019061ba68565b5060208201518160010155505060c082015181600b015560e082015181600c015550508060016007016000828254616bc0919061d1fd565b90915550506010549196508691600090616bdc9060019061d0aa565b6040805180820190915290915060079080826161a6565b7ffffffffffffffffffffffffffffffffffffffffffffffffffffffffffffffff860ff821601617089576000806000616c2c8988618ad1565b601180546001808201835560009290925284517f31ecc21a745e3968a04e9570e4425bc18fa8019c68028196b546d1669c200c6860269092029182019081556020808701517f31ecc21a745e3968a04e9570e4425bc18fa8019c68028196b546d1669c200c69840155604087015180517f31ecc21a745e3968a04e9570e4425bc18fa8019c68028196b546d1669c200c6a8501908155918101517f31ecc21a745e3968a04e9570e4425bc18fa8019c68028196b546d1669c200c6b9094018054989b50969950949750899691959093909160ff191690836004811115616d1457616d1461c978565b021790555060408201516001820180547fffffffffffffffffffffffffffffffffffffffffffffffffffffffffffff00ff16610100836004811115616d5b57616d5b61c978565b02179055506060820151805180516002840191616d7d9183916020019061ba0f565b50602082810151600183015560409092015160029091015560808301518051805191926005850192616db2928492019061ba0f565b50602082810151600183015560409092015160029091015560a08301518051805191926008850192616de7928492019061ba0f565b50602082810151600183015560409092015160029091015560c0830151805180519192600b850192616e1c928492019061ba0f565b50602082810151600183015560409092015160029091015560e0830151805180519192600e850192616e51928492019061ba0f565b5060208281015160018301556040909201516002909101556101008301518051805191926011850192616e87928492019061ba0f565b5060208281015160018301556040909201516002909101556101208301518051805191926014850192616ebd928492019061ba0f565b5060208281015160018301556040909201516002909101556101408301518051805191926017850192616ef3928492019061ba0f565b506020828101516001830155604090920151600290910155610160830151805180519192601a850192616f29928492019061ba68565b50602091820151600190910155610180830151805180519192601c850192616f54928492019061ba68565b506020918201516001909101556101a0830151805180519192601e850192616f7f928492019061ba68565b506020918201516001909101556101c083015180518051919284810192616fa9928492019061ba68565b506020820151816001015550505050606082015181602401556080820151816025015550508060016007016000828254616fe3919061d1fd565b90915550506011549196508691600090616fff9060019061d0aa565b604080518082019091526008808252602082018390526007805460018082018355600092909252835160029091027fa66cc928b5edb82af9bd49922954155ab7b0942694bea4ce44661d9a8736c68801805495965093949092849260ff19909216919084908111156170735761707361c978565b0217905550602082015181600101555050505050505b50929491935090915050565b60006170a18383618ca4565b9392505050565b60006170a18383618ced565b6170df6040518060800160405280606081526020016000815260200160008152602001600081525090565b81516020820152815182906000906170f9576170f961d0ca565b6020026020010151518160400181815250508160008151811061711e5761711e61d0ca565b60200260200101516000815181106171385761713861d0ca565b602090810291909101015151606082015290815290565b805160609060008381836171655761716561d0ca565b60200260200101515190506000846000815181106171855761718561d0ca565b602002602001015160008151811061719f5761719f61d0ca565b602002602001015151905060008183856171b9919061d2cb565b6171c3919061d2cb565b67ffffffffffffffff8111156171db576171db61caee565b604051908082528060200260200182016040528015617204578160200160208202803683370190505b5090506000805b858110156172df5760005b858110156172cc5760005b858110156172b95789838151811061723b5761723b61d0ca565b602002602001015182815181106172545761725461d0ca565b6020026020010151818151811061726d5761726d61d0ca565b60200260200101518585815181106172875761728761d0ca565b60079290920b602092830291909101909101526172a560018561d1fd565b9350806172b18161d0e0565b915050617221565b50806172c48161d0e0565b915050617216565b50806172d78161d0e0565b91505061720b565b50909695505050505050565b6040805180820190915260608152602081018290528167ffffffffffffffff8111156173195761731961caee565b604051908082528060200260200182016040528015617342578160200160208202803683370190505b508152919050565b60408051808201909152606081526000602082015281602001518360200151146173a0576040517f95c2ffed00000000000000000000000000000000000000000000000000000000815260040160405180910390fd5b60006173ac60016172eb565b905060005b84602001518110156174625761742882600001516000815181106173d7576173d761d0ca565b6020026020010151617423876000015184815181106173f8576173f861d0ca565b6020026020010151876000015185815181106174165761741661d0ca565b6020026020010151617095565b6170a8565b8251805160009061743b5761743b61d0ca565b602002602001019060070b908160070b81525050808061745a9061d0e0565b9150506173b1565b509392505050565b6040805180820190915260608152600060208201526170a18383618d2a618d36565b60408051808201909152606081526000602082015260008260048111156174b5576174b561c978565b036174cd576174c683618df7618e31565b9050612c7d565b60018260048111156174e1576174e161c978565b036174f2576174c683617b36618e31565b60028260048111156175065761750661c978565b03617517576174c683618ecb618e31565b600382600481111561752b5761752b61c978565b0361753c576174c683618ede618e31565b60048260048111156175505761755061c978565b03617561576174c683618f63618e31565b6040517fa342a23e00000000000000000000000000000000000000000000000000000000815260040160405180910390fd5b60408051808201909152606081526000602082015260006175b783604001516172eb565b905060005b83604001518110156176965760005b846020015181101561768357617648836000015183815181106175f0576175f061d0ca565b6020026020010151617423886000015184815181106176115761761161d0ca565b60200260200101518860000151858151811061762f5761762f61d0ca565b602002602001015186815181106174165761741661d0ca565b835180518490811061765c5761765c61d0ca565b602002602001019060070b908160070b81525050808061767b9061d0e0565b9150506175cb565b508061768e8161d0e0565b9150506175bc565b50604080516001808252818301909252600091816020015b60608152602001906001900390816176ae5790505090508160000151816000815181106176dd576176dd61d0ca565b60200260200101819052507f179491a5c16eb1ad3858df42ccd7321ca6ffc7d003c0355ae0c5f9c2cc9c024781604051617717919061d406565b60405180910390a1509392505050565b6177526040518060800160405280606081526020016000815260200160008152602001600081525090565b60008061777d6040518060400160405280896020015181526020018960400151815250878787618fb9565b8151602083015160608b015193955091935060009261779c9290617dfa565b905060005b83518110156178895760005b60208501518110156178805760006040518060400160405280866000600281106177d9576177d961d0ca565b602090810291909101518c518702038252878101518c820151860203910152905060005b8b60600151811015617876576178158c838d8461924a565b85518051869081106178295761782961d0ca565b602002602001015184815181106178425761784261d0ca565b6020026020010151828151811061785b5761785b61d0ca565b60079290920b602092830291909101909101526001016177fd565b50506001016177ad565b506001016177a1565b50979650505050505050565b6178c06040518060800160405280606081526020016000815260200160008152602001600081525090565b6040805180820182526020808701518252868301518183015282518084018452888201518152928801519083015290600090819061790090848888618fb9565b8151602083015160808b015193955091935060009261791f9290617dfa565b905060005b8351811015617a0d5760005b6020850151811015617a0457600060405180604001604052808660006002811061795c5761795c61d0ca565b602090810291909101518d518702038252878101518d820151860203910152905060005b8b608001518110156179fa576179998d8d848b85619344565b85518051869081106179ad576179ad61d0ca565b602002602001015184815181106179c6576179c661d0ca565b602002602001015182815181106179df576179df61d0ca565b60079290920b60209283029190910190910152600101617980565b5050600101617930565b50600101617924565b5098975050505050505050565b617a456040518060800160405280606081526020016000815260200160008152602001600081525090565b6170a18383618d2a619488565b617a7d6040518060800160405280606081526020016000815260200160008152602001600081525090565b6000826004811115617a9157617a9161c978565b03617aa2576174c683618df7619608565b6001826004811115617ab657617ab661c978565b03617ac7576174c683617b36619608565b6002826004811115617adb57617adb61c978565b03617aec576174c683618ecb619608565b6003826004811115617b0057617b0061c978565b03617b11576174c683618ede619608565b6004826004811115617b2557617b2561c978565b03617561576174c683618f63619608565b90565b600081680736ea4425c11ac630811315617b82576040517fca7ec0c500000000000000000000000000000000000000000000000000000000815260048101849052602401612c60565b6714057b7ef767814f810261300d617ba2670de0b6b3a7640000835b0590565b61976a565b60006170a1617b36838561d419565b60008282600160ff1b821480617bcf5750600160ff1b81145b15617c06576040517f9fe2b45000000000000000000000000000000000000000000000000000000000815260040160405180910390fd5b60008060008412617c175783617c1c565b836000035b915060008312617c2c5782617c31565b826000035b90506000617c4883670de0b6b3a764000084619844565b90507f7fffffffffffffffffffffffffffffffffffffffffffffffffffffffffffffff811115617cae576040517fd49c26b30000000000000000000000000000000000000000000000000000000081526004810189905260248101889052604401612c60565b60001985851813617cc881617cc4578260000390565b8290565b9998505050505050505050565b60606000617d0a8360408051808201825260008082526020918201528151808301909252825182529182019181019190915290565b90506000617d1782619931565b9050601260008267ffffffffffffffff811115617d3657617d3661caee565b604051908082528060200260200182016040528015617d5f578160200160208202803683370190505b50905060005b83811015613490576000617d80617d7b87619a03565b619a21565b8051602082012090915060009060008181526001870160205260409020549091508015617db757617db260018261d0aa565b617dc8565b60018660020154617dc8919061d0aa565b858581518110617dda57617dda61d0ca565b60200260200101818152505050505080617df39061d0e0565b9050617d65565b617e256040518060800160405280606081526020016000815260200160008152602001600081525090565b6020810184905260408101839052606081018290528367ffffffffffffffff811115617e5357617e5361caee565b604051908082528060200260200182016040528015617e8657816020015b6060815260200190600190039081617e715790505b50815260005b84811015617462578367ffffffffffffffff811115617ead57617ead61caee565b604051908082528060200260200182016040528015617ee057816020015b6060815260200190600190039081617ecb5790505b508251805183908110617ef557617ef561d0ca565b602002602001018190525060005b84811015617f99578367ffffffffffffffff811115617f2457617f2461caee565b604051908082528060200260200182016040528015617f4d578160200160208202803683370190505b508351805184908110617f6257617f6261d0ca565b60200260200101518281518110617f7b57617f7b61d0ca565b60200260200101819052508080617f919061d0e0565b915050617f03565b5080617fa48161d0e0565b915050617e8c565b60808401515160609081908590829060005b8181101561825e5760008a608001518281518110617fde57617fde61d0ca565b602090810291909101810151908101519091506006825160088111156180065761800661c978565b036180435761803c868d610180015183815181106180265761802661d0ca565b6020026020010151619a9190919063ffffffff16565b9450618249565b6000825160088111156180585761805861c978565b036180b45760018c608001515161806f919061d0aa565b8310806180795750885b156180af5761803c858d610120015183815181106180995761809961d0ca565b602002602001015161301590919063ffffffff16565b618249565b6007825160088111156180c9576180c961c978565b0361813e5761811a858b83815181106180e4576180e461d0ca565b60200260200101518e6101a0015184815181106181035761810361d0ca565b6020026020010151619aba9092919063ffffffff16565b8b838151811061812c5761812c61d0ca565b60209081029190910101529450618249565b6008825160088111156181535761815361c978565b036182495784516000036181bb5760408051600180825281830190925290602080830190803683370190505060125490955061819390602088901b61d2e2565b856000815181106181a6576181a661d0ca565b602002602001019060070b908160070b815250505b6060618209868c84815181106181d3576181d361d0ca565b60200260200101518f6101c0015185815181106181f2576181f261d0ca565b6020026020010151619c089092919063ffffffff16565b8c848151811061821b5761821b61d0ca565b6020026020010181905281925050508060008151811061823d5761823d61d0ca565b60200260200101519550505b505080806182569061d0e0565b915050617fbe565b5090989597509495505050505050565b6000806001601260020154618283919061d0aa565b9050600061829086619db7565b90506182bf8183815181106182a7576182a761d0ca565b60200260200101516182ba6103e8619e60565b619ea6565b8183815181106182d1576182d161d0ca565b602002602001019060070b908160070b8152505060005b815181101561834b576183148282815181106183065761830661d0ca565b602002602001015187619eb2565b8282815181106183265761832661d0ca565b602002602001019060070b908160070b81525050806183449061d0e0565b90506182e8565b507f7680ca2cca42898cdd94c4a6a30153a758479751afe072036aa3b77f81722acc8160405161837b919061d441565b60405180910390a16040805180820190915260608152600060208201818152835190528282526183aa82613225565b6000015190507f31e1cb4a6e4ae78953ff931a9ea01fd169b7ba27f0b910a5799d21c2f8d73693816040516183df919061d441565b60405180910390a16000617cc88288619ebe565b604080516020810190915260008082526012905b835181101561850b576000826000018583815181106184285761842861d0ca565b6020026020010151815481106184405761844061d0ca565b9060005260206000200180546184559061d02a565b80601f01602080910402602001604051908101604052809291908181526020018280546184819061d02a565b80156184ce5780601f106184a3576101008083540402835291602001916184ce565b820191906000526020600020905b8154815290600101906020018083116184b157829003601f168201915b5050505050905083816040516020016184e892919061d454565b604051602081830303815290604052935050806185049061d0e0565b9050618407565b5050919050565b61851a61bbd6565b6000806000808660000151806020019051810190618538919061d483565b92509250506040518060e00160405280886020015181526020018360ff1660048111156185675761856761c978565b60048111156185785761857861c978565b815260200182815260200161858d8884619f3c565b81526020016185af836040805180820190915260608152602081019190915290565b815260200160008152602001600081525094508093506185d485608001516020015190565b6185e18660600151619fc3565b6185eb919061d1fd565b925050509250925092565b60408051602080820183526000918290528251808201845285820151815292840151908401518451618628919061d2cb565b618632919061d2cb565b90509250929050565b60408051606081018252600080825260208201819052918101919091526000808360000151806020019051810190618673919061d4bf565b604080516060810182526020988901518152600793840b98810198909852910b9086015250929392505050565b6186a861bc51565b6186b061b879565b600080600086600001518060200190518101906186cd919061d579565b935093509350506040518060800160405280886020015181526020018481526020018381526020018260ff16600181111561870a5761870a61c978565b600181111561871b5761871b61c978565b9052945061872761bc85565b6187886040518060400160405280896000600381106187485761874861d0ca565b60200201518152602001896001600381106187655761876561d0ca565b60200201519052858560ff861660018111156187835761878361c978565b618fb9565b50604080516060810182528251815260209283015192810192909252978801519781019790975250939694955050505050565b6187c361bca3565b6187cb61b879565b60008060008060008089600001518060200190518101906187ec919061d5cf565b95509550955095509550506040518061012001604052808b6020015181526020018660ff1660048111156188225761882261c978565b60048111156188335761883361c978565b81526020018581526020018381526020018260ff1660018111156188595761885961c978565b600181111561886a5761886a61c978565b8152845160208681015160408e01519190930192618889929189619fd9565b81526020016188ab866040805180820190915260608152602081019190915290565b815260200160008152602001600081525097506188c661bc85565b61890460405180604001604052808c6000600381106188e7576188e761d0ca565b602002015181526020018c6001600381106187655761876561d0ca565b5060408051606081018252825181526020808401518183015291810188905260c08c01519091015190995090915061893f8a60a0015161a1a3565b618949919061d1fd565b96505050505050509250925092565b61896061bd0b565b600080600080856000015180602001905181019061897e919061d63f565b92509250506040518060c00160405280876020015181526020018381526020018281526020016189ae8484619f3c565b815260200160008152602001600081525094508093506189d18560600151619fc3565b9496939550505050565b6189e361bd4f565b6000806000808660000151806020019051810190618a01919061d483565b9250925050604051806101000160405280886020015181526020018281526020018360ff166004811115618a3757618a3761c978565b6004811115618a4857618a4861c978565b8152602001618a578884619f3c565b8152602001618a668384619f3c565b8152602001618a88836040805180820190915260608152602081019190915290565b81526020016000815260200160008152509450809350618aad8560a001516020015190565b618aba8660800151619fc3565b618ac78760600151619fc3565b6185e1919061d1fd565b618ad961bdce565b6000806000806000808860000151806020019051810190618afa919061d674565b9450945094509450506040518060a001604052808a602001518152602001828152602001604051806101e001604052808581526020018760ff166004811115618b4557618b4561c978565b6004811115618b5657618b5661c978565b81526020018660ff166004811115618b7057618b7061c978565b6004811115618b8157618b8161c978565b8152602001618b90858761a1d7565b8152602001618b9f858761a1d7565b8152602001618bae858761a1d7565b8152602001618bbd858761a1d7565b8152602001618bcc868761a1d7565b8152602001618bdb868761a1d7565b8152602001618bea868761a1d7565b8152602001618bf9868761a1d7565b8152602001618c07866172eb565b8152602001618c15866172eb565b8152602001618c23866172eb565b8152602001618c31866172eb565b81525081526020016000815260200160008152509650819550816004618c57919061d2cb565b82618c6381600461d2cb565b618c6d919061d2cb565b83618c7984600461d2cb565b618c83919061d2cb565b618c8d919061d1fd565b618c97919061d1fd565b9450505050509250925092565b60008060208360070b8560070b02600f0b901d9050677fffffffffffffff19600f0b81600f0b12158015618ce45750677fffffffffffffff600f82900b13155b6170a157600080fd5b6000600783810b9083900b01677fffffffffffffff19600f82900b12801590618ce45750677fffffffffffffff600f82900b13156170a157600080fd5b60006170a183836170a8565b6040805180820190915260608152600060208201526000618d5a85602001516172eb565b905060005b8160200151811015618dee57618db386600001518281518110618d8457618d8461d0ca565b602002602001015186600001518381518110618da257618da261d0ca565b60200260200101518663ffffffff16565b8251805183908110618dc757618dc761d0ca565b602002602001019060070b908160070b815250508080618de69061d0e0565b915050618d5f565b50949350505050565b6000808260070b13618e2d57618e28640a00000000618e1f600785900b640200000000617095565b60070b90619eb2565b612c7d565b5090565b6040805180820190915260608152600060208201526000618e5584602001516172eb565b905060005b816020015181101561746257618e9085600001518281518110618e7f57618e7f61d0ca565b60200260200101518563ffffffff16565b8251805183908110618ea457618ea461d0ca565b602002602001019060070b908160070b815250508080618ec39061d0e0565b915050618e5a565b6000808260070b13618e2d576000612c7d565b60007fffffffffffffffffffffffffffffffffffffffffffffffffffffffeb000000008260070b1215618f3757618f347fffffffffffffffffffffffffffffffffffffffffffffffffffffffffffffffeb619e60565b91505b612c7d618f57640100000000617423618f4f8661a2d8565b60070b61a2e3565b64010000000090619eb2565b6000640a000000008260070b1315618f8257618f7f600a619e60565b91505b6000618f96618f4f64020000000085617095565b90506170a1618faa826401000000006170a8565b618e1f83640100000000619ea6565b618fc161bc85565b618fc961bc85565b60005b6002811015619240576001846001811115618fe957618fe961c978565b03619165578481600281106190005761900061d0ca565b602002015160018683600281106190195761901961d0ca565b60200201518984600281106190305761903061d0ca565b602002015161903f919061d1fd565b619049919061d0aa565b619053919061d2e2565b8382600281106190655761906561d0ca565b6020020152600085826002811061907e5761907e61d0ca565b60200201518883600281106190955761909561d0ca565b60200201516190a4919061d2f6565b15619105576191008783600281106190be576190be61d0ca565b60200201518784600281106190d5576190d561d0ca565b60200201518a85600281106190ec576190ec61d0ca565b60200201516190fb919061d2f6565b61a2ee565b61913b565b61913b87836002811061911a5761911a61d0ca565b60200201518784600281106191315761913161d0ca565b602002015161a2ee565b905061914860028261d2e2565b83836002811061915a5761915a61d0ca565b602002015250619230565b60008460018111156191795761917961c978565b036191fe578481600281106191905761919061d0ca565b60200201518682600281106191a7576191a761d0ca565b60200201518883600281106191be576191be61d0ca565b60200201516191cd919061d0aa565b6191d7919061d2e2565b6191e290600161d1fd565b8382600281106191f4576191f461d0ca565b6020020152619230565b6040517f20a554a900000000000000000000000000000000000000000000000000000000815260040160405180910390fd5b6192398161d0e0565b9050618fcc565b5094509492505050565b6000806192767fffffffffffffffffffffffffffffffffffffffffffffffffffffffffc4653600619e60565b905060005b84518110156134905760005b602086015181101561933b578651602080890151908a01519184019190830190600090831080156192b6575060015b80156192c557508a6040015182105b6192d057600061931f565b8a518051849081106192e4576192e461d0ca565b602002602001015182815181106192fd576192fd61d0ca565b602002602001015188815181106193165761931661d0ca565b60200260200101515b905061932b868261a308565b9550505050806001019050619287565b5060010161927b565b600080805b845181101561947b5760005b6020860151811015619472578651602080890151908b0151918401919083019082108015619381575060015b801561939057508a6040015181105b156194685760005b8b606001518110156194665761945c866174238e6000015186815181106193c1576193c161d0ca565b602002602001015185815181106193da576193da61d0ca565b602002602001015184815181106193f3576193f361d0ca565b60200260200101518e6000015189815181106194115761941161d0ca565b6020026020010151888151811061942a5761942a61d0ca565b602002602001015185815181106194435761944361d0ca565b60200260200101518c815181106174165761741661d0ca565b9550600101619398565b505b5050600101619355565b50600101619349565b5090505b95945050505050565b6194b36040518060800160405280606081526020016000815260200160008152602001600081525090565b60006194cc856020015186604001518760600151617dfa565b905060005b8160200151811015618dee5760005b82604001518110156195f55760005b83606001518110156195e257619575886000015184815181106195145761951461d0ca565b6020026020010151838151811061952d5761952d61d0ca565b602002602001015182815181106195465761954661d0ca565b6020026020010151886000015183815181106195645761956461d0ca565b60200260200101518863ffffffff16565b84518051859081106195895761958961d0ca565b602002602001015183815181106195a2576195a261d0ca565b602002602001015182815181106195bb576195bb61d0ca565b602002602001019060070b908160070b8152505080806195da9061d0e0565b9150506194ef565b50806195ed8161d0e0565b9150506194e0565b50806196008161d0e0565b9150506194d1565b6196336040518060800160405280606081526020016000815260200160008152602001600081525090565b600061964c846020015185604001518660600151617dfa565b905060005b81602001518110156174625760005b82604001518110156197575760005b8360600151811015619744576196d7876000015184815181106196945761969461d0ca565b602002602001015183815181106196ad576196ad61d0ca565b602002602001015182815181106196c6576196c661d0ca565b60200260200101518763ffffffff16565b84518051859081106196eb576196eb61d0ca565b602002602001015183815181106197045761970461d0ca565b6020026020010151828151811061971d5761971d61d0ca565b602002602001019060070b908160070b81525050808061973c9061d0e0565b91505061966f565b508061974f8161d0e0565b915050619660565b50806197628161d0e0565b915050619651565b600081818112156197dd577ffffffffffffffffffffffffffffffffffffffffffffffffcc22e87f6eb468eeb8112156197a65750600092915050565b6197d66197b9617b36617ba28460000390565b6ec097ce7bc90715b34b9f100000000081617b9e57617b9e61d287565b915061983e565b680a688906bd8affffff811315619823576040517f0360d02800000000000000000000000000000000000000000000000000000000815260048101849052602401612c60565b670de0b6b3a7640000604082901b0561300d617b368261a310565b50919050565b600080806000198587098587029250828110838203039150508060000361987e578382816198745761987461d287565b04925050506170a1565b8381106198c8576040517f63a05778000000000000000000000000000000000000000000000000000000008152600481018790526024810186905260448101859052606401612c60565b60008486880960026001871981018816978890046003810283188082028403028082028403028082028403028082028403028082028403029081029092039091026000889003889004909101858311909403939093029303949094049190911702949350505050565b600080601f8360200151619945919061d0aa565b8351909150600090619957908361d1fd565b9050600092505b8082101561850b57815160ff1660808110156199865761997f60018461d1fd565b92506199f0565b60e08160ff16101561999d5761997f60028461d1fd565b60f08160ff1610156199b45761997f60038461d1fd565b60f88160ff1610156199cb5761997f60048461d1fd565b60fc8160ff1610156199e25761997f60058461d1fd565b6199ed60068461d1fd565b92505b50826199fb8161d0e0565b93505061995e565b604080518082019091526000808252602082015261983e828261aa84565b60606000826000015167ffffffffffffffff811115619a4257619a4261caee565b6040519080825280601f01601f191660200182016040528015619a6c576020820181803683370190505b5090506000602082019050619a8a818560200151866000015161ab64565b5092915050565b60608281015151805183908110619aaa57619aaa61d0ca565b6020026020010151905092915050565b6060806000619ae5856040805180820190915260608152600060208201528151602082015290815290565b90506000619b2985600081518110619aff57619aff61d0ca565b60200260200101516040805180820190915260608152600060208201528151602082015290815290565b90506000619b3b838960600151617593565b90506000619b4d838a60800151617593565b90506000619b68619b5e848461746a565b8b60a0015161746a565b90506000619b7a828c6040015161748c565b90507fe506f21560d2cf532cc57a2431798de499752239ecfc9debf2a57169d07f4ae88160000151604051619baf919061d441565b60405180910390a1806000015189600081518110619bcf57619bcf61d0ca565b602002602001018190525088600081518110619bed57619bed61d0ca565b60200260200101518997509750505050505050935093915050565b6040805160018082528183019092526060918291600091816020015b6060815260200190600190039081619c245790505090506000866020015167ffffffffffffffff811115619c5a57619c5a61caee565b604051908082528060200260200182016040528015619c83578160200160208202803683370190505b50905060005b8651811015619ce557868181518110619ca457619ca461d0ca565b6020026020010151828281518110619cbe57619cbe61d0ca565b602002602001019060070b908160070b815250508080619cdd9061d0e0565b915050619c89565b5060408051600280825260608201909252600091816020015b6060815260200190600190039081619cfe57905050905060005b8351811015619da857600080619d338b60400151868b61abde565b915091508184600081518110619d4b57619d4b61d0ca565b60200260200101819052508084600181518110619d6a57619d6a61d0ca565b602002602001018190525081868481518110619d8857619d8861d0ca565b602002602001018190525050508080619da09061d0e0565b915050619d18565b50919791965090945050505050565b60606000825167ffffffffffffffff811115619dd557619dd561caee565b604051908082528060200260200182016040528015619dfe578160200160208202803683370190505b50905060005b8351811015619a8a57838181518110619e1f57619e1f61d0ca565b6020026020010151828281518110619e3957619e3961d0ca565b602002602001019060070b908160070b815250508080619e589061d0e0565b915050619e04565b60007fffffffffffffffffffffffffffffffffffffffffffffffffffffffff800000008212158015619e965750637fffffff8213155b619e9f57600080fd5b5060201b90565b60006170a1838361b017565b60006170a1838361b054565b600080619eca8361b0b6565b90506000805b8551811015619f2d57619efc82878381518110619eef57619eef61d0ca565b60200260200101516170a8565b9150619f0c600783900b84612c72565b15619f1b579250612c7d915050565b80619f258161d0e0565b915050619ed0565b506001855161947f919061d0aa565b619f6060405180606001604052806060815260200160008152602001600081525090565b60208101839052604081018290528267ffffffffffffffff811115619f8757619f8761caee565b604051908082528060200260200182016040528015619fba57816020015b6060815260200190600190039081619fa55790505b50815292915050565b600081604001518260200151612c7d919061d2cb565b61a00b6040518060a0016040528060608152602001600081526020016000815260200160008152602001600081525090565b602081018590526040810184905260608101839052608081018290528467ffffffffffffffff81111561a0405761a04061caee565b60405190808252806020026020018201604052801561a07357816020015b606081526020019060019003908161a05e5790505b50815260005b85811015618dee578467ffffffffffffffff81111561a09a5761a09a61caee565b60405190808252806020026020018201604052801561a0cd57816020015b606081526020019060019003908161a0b85790505b50825180518390811061a0e25761a0e261d0ca565b602002602001018190525060005b8581101561a190578467ffffffffffffffff81111561a1115761a11161caee565b60405190808252806020026020018201604052801561a14457816020015b606081526020019060019003908161a12f5790505b50835180518490811061a1595761a15961d0ca565b6020026020010151828151811061a1725761a17261d0ca565b6020026020010181905250808061a1889061d0e0565b91505061a0f0565b508061a19b8161d0e0565b91505061a079565b6000816080015182606001518360400151846020015161a1c3919061d2cb565b61a1cd919061d2cb565b612c7d919061d2cb565b61a1fb60405180606001604052806060815260200160008152602001600081525090565b60208101839052604081018290528267ffffffffffffffff81111561a2225761a22261caee565b60405190808252806020026020018201604052801561a25557816020015b606081526020019060019003908161a2405790505b50815260005b83811015619a8a578267ffffffffffffffff81111561a27c5761a27c61caee565b60405190808252806020026020018201604052801561a2a5578160200160208202803683370190505b50825180518390811061a2ba5761a2ba61d0ca565b6020026020010181905250808061a2d09061d0e0565b91505061a25b565b6000612c7d8261b0c7565b6000612c7d8261b0e8565b600081831161a2fe5760006170a1565b6170a1828461d0aa565b6000816170a1565b7780000000000000000000000000000000000000000000000067ff0000000000000082161561a4315767800000000000000082161561a3585768016a09e667f3bcc9090260401c5b67400000000000000082161561a377576801306fe0a31b7152df0260401c5b67200000000000000082161561a396576801172b83c7d517adce0260401c5b67100000000000000082161561a3b55768010b5586cf9890f62a0260401c5b67080000000000000082161561a3d4576801059b0d31585743ae0260401c5b67040000000000000082161561a3f357680102c9a3e778060ee70260401c5b67020000000000000082161561a4125768010163da9fb33356d80260401c5b67010000000000000082161561a43157680100b1afa5abcbed610260401c5b66ff00000000000082161561a53057668000000000000082161561a45e5768010058c86da1c09ea20260401c5b664000000000000082161561a47c576801002c605e2e8cec500260401c5b662000000000000082161561a49a57680100162f3904051fa10260401c5b661000000000000082161561a4b8576801000b175effdc76ba0260401c5b660800000000000082161561a4d657680100058ba01fb9f96d0260401c5b660400000000000082161561a4f45768010002c5cc37da94920260401c5b660200000000000082161561a512576801000162e525ee05470260401c5b660100000000000082161561a5305768010000b17255775c040260401c5b65ff000000000082161561a626576580000000000082161561a55b576801000058b91b5bc9ae0260401c5b6540000000000082161561a57857680100002c5c89d5ec6d0260401c5b6520000000000082161561a5955768010000162e43f4f8310260401c5b6510000000000082161561a5b257680100000b1721bcfc9a0260401c5b6508000000000082161561a5cf5768010000058b90cf1e6e0260401c5b6504000000000082161561a5ec576801000002c5c863b73f0260401c5b6502000000000082161561a60957680100000162e430e5a20260401c5b6501000000000082161561a626576801000000b1721835510260401c5b64ff0000000082161561a7135764800000000082161561a64f57680100000058b90c0b490260401c5b64400000000082161561a66b5768010000002c5c8601cc0260401c5b64200000000082161561a687576801000000162e42fff00260401c5b64100000000082161561a6a35768010000000b17217fbb0260401c5b64080000000082161561a6bf576801000000058b90bfce0260401c5b64040000000082161561a6db57680100000002c5c85fe30260401c5b64020000000082161561a6f75768010000000162e42ff10260401c5b64010000000082161561a71357680100000000b17217f80260401c5b63ff00000082161561a7f757638000000082161561a73a5768010000000058b90bfc0260401c5b634000000082161561a755576801000000002c5c85fe0260401c5b632000000082161561a77057680100000000162e42ff0260401c5b631000000082161561a78b576801000000000b17217f0260401c5b630800000082161561a7a657680100000000058b90c00260401c5b630400000082161561a7c15768010000000002c5c8600260401c5b630200000082161561a7dc576801000000000162e4300260401c5b630100000082161561a7f75768010000000000b172180260401c5b62ff000082161561a8d2576280000082161561a81c576801000000000058b90c0260401c5b6240000082161561a83657680100000000002c5c860260401c5b6220000082161561a8505768010000000000162e430260401c5b6210000082161561a86a57680100000000000b17210260401c5b6208000082161561a8845768010000000000058b910260401c5b6204000082161561a89e576801000000000002c5c80260401c5b6202000082161561a8b857680100000000000162e40260401c5b6201000082161561a8d2576801000000000000b1720260401c5b61ff0082161561a9a45761800082161561a8f557680100000000000058b90260401c5b61400082161561a90e5768010000000000002c5d0260401c5b61200082161561a927576801000000000000162e0260401c5b61100082161561a9405768010000000000000b170260401c5b61080082161561a959576801000000000000058c0260401c5b61040082161561a97257680100000000000002c60260401c5b61020082161561a98b57680100000000000001630260401c5b61010082161561a9a457680100000000000000b10260401c5b60ff82161561aa6d57608082161561a9c557680100000000000000590260401c5b604082161561a9dd576801000000000000002c0260401c5b602082161561a9f557680100000000000000160260401c5b601082161561aa0d576801000000000000000b0260401c5b600882161561aa2557680100000000000000060260401c5b600482161561aa3d57680100000000000000030260401c5b600282161561aa5557680100000000000000010260401c5b600182161561aa6d57680100000000000000010260401c5b670de0b6b3a76400000260409190911c60bf031c90565b604080518082019091526000808252602082015260208084015190830152825160000361aab657506000815280612c7d565b6020830151601e19015160009060ff16608081101561aad8576001915061ab01565b60e081101561aaea576002915061ab01565b60f081101561aafc576003915061ab01565b600491505b845182111561ab325784518452845160208601805161ab2190839061d1fd565b905250506000845250819050612c7d565b818560200181815161ab44919061d1fd565b90525084518290869061ab5890839061d0aa565b90525050825250919050565b6020811061ab9c578151835261ab7b60208461d1fd565b925061ab8860208361d1fd565b915061ab9560208261d0aa565b905061ab64565b600019811561abcb57600161abb283602061d0aa565b61abbe9061010061d7ae565b61abc8919061d0aa565b90505b9151835183169219169190911790915250565b606080606080845160000361acdf576040805160028082526060820190925290816020015b606081526020019060019003908161ac03575050875190955067ffffffffffffffff81111561ac345761ac3461caee565b60405190808252806020026020018201604052801561ac5d578160200160208202803683370190505b508560008151811061ac715761ac7161d0ca565b6020908102919091010152865167ffffffffffffffff81111561ac965761ac9661caee565b60405190808252806020026020018201604052801561acbf578160200160208202803683370190505b508560018151811061acd35761acd361d0ca565b60200260200101819052505b600061acf786600081518110619aff57619aff61d0ca565b9050600061ad1187600181518110619aff57619aff61d0ca565b60408051808201909152606081526000602082018181528b5190528a825291925061ad40908b60600151617593565b60408051808201909152606081526000602082018181528c5190528b825291925061ad6f908c60800151617593565b60408051808201909152606081526000602082018181528d5190528c825291925061ad9e908d60a00151617593565b60408051808201909152606081526000602082018181528e5190528d825291925061adcd908e60c00151617593565b905061adde848e610160015161746a565b935061adef838e610180015161746a565b925061ae00828e6101a0015161746a565b915061ae11818e6101c0015161746a565b60408051600480825260a0820190925291925060009190816020015b606081526020019060019003908161ae2d57905050905084600001518160008151811061ae5c5761ae5c61d0ca565b602002602001018190525083600001518160018151811061ae7f5761ae7f61d0ca565b602002602001018190525082600001518160028151811061aea25761aea261d0ca565b602002602001018190525081600001518160038151811061aec55761aec561d0ca565b602090810291909101015260408051600480825260a08201909252600091816020015b606081526020019060019003908161aee857905050905087600001518160008151811061af175761af1761d0ca565b602002602001018190525087600001518160018151811061af3a5761af3a61d0ca565b602002602001018190525087600001518160028151811061af5d5761af5d61d0ca565b602002602001018190525087600001518160038151811061af805761af8061d0ca565b602002602001018190525061af9b8f83838a6000015161b135565b809a50819b5050505050505050505050600061b00861afe4896020015161afde866040805180820190915260608152600060208201528151602082015290815290565b9061748c565b6040805180820190915260608152600060208201908152855190528481529061b2a3565b51989297509195505050505050565b6000600782810b9084900b03677fffffffffffffff19600f82900b12801590618ce45750677fffffffffffffff600f82900b13156170a157600080fd5b60008160070b60000361b06657600080fd5b6000600783900b602085901b600b0b8161b0825761b08261d287565b059050677fffffffffffffff19600f82900b12801590618ce45750677fffffffffffffff600f82900b13156170a157600080fd5b6000612c7d6401000000008361d2f6565b6000678000000000000000600783900b0161b0e157600080fd5b5060000390565b60006420000000008260070b1261b0fe57600080fd5b641fffffffff198260070b121561b11757506000919050565b612c7d60408360070b680171547652b82fe17702600f0b901d61b2c5565b606080600061b17e876040015161afde61b16861b15e89600081518110619aff57619aff61d0ca565b8b60e00151617593565b6131008a600081518110619aff57619aff61d0ca565b9050600061b1c7886040015161afde61b1b161b1a68a600181518110619aff57619aff61d0ca565b8c6101000151617593565b6131008b600181518110619aff57619aff61d0ca565b9050600061b24461b21d61b2168b6020015161afde61b20061b1f58d600281518110619aff57619aff61d0ca565b8f6101200151617593565b6131008e600281518110619aff57619aff61d0ca565b859061b2a3565b6040805180820190915260608152600060208201908152895190528881526131009061b216565b600001519050600061b2918a6040015161afde61b27b61b2708c600381518110619aff57619aff61d0ca565b8e6101400151617593565b6131008d600381518110619aff57619aff61d0ca565b51919a91995090975050505050505050565b6040805180820190915260608152600060208201526170a1838361b869618d36565b60006420000000008260070b1261b2db57600080fd5b641fffffffff198260070b121561b2f457506000919050565b67800000000000000060006380000000841660070b131561b3285768016a09e667f3bcc9080260401c67ffffffffffffffff165b60008363400000001660070b131561b353576801306fe0a31b7152de0260401c67ffffffffffffffff165b60008363200000001660070b131561b37e576801172b83c7d517adcd0260401c67ffffffffffffffff165b60008363100000001660070b131561b3a95768010b5586cf9890f6290260401c67ffffffffffffffff165b60008363080000001660070b131561b3d4576801059b0d31585743ae0260401c67ffffffffffffffff165b60008363040000001660070b131561b3ff57680102c9a3e778060ee60260401c67ffffffffffffffff165b60008363020000001660070b131561b42a5768010163da9fb33356d80260401c67ffffffffffffffff165b60008363010000001660070b131561b45557680100b1afa5abcbed610260401c67ffffffffffffffff165b600083628000001660070b131561b47f5768010058c86da1c09ea10260401c67ffffffffffffffff165b600083624000001660070b131561b4a9576801002c605e2e8cec500260401c67ffffffffffffffff165b600083622000001660070b131561b4d357680100162f3904051fa10260401c67ffffffffffffffff165b600083621000001660070b131561b4fd576801000b175effdc76ba0260401c67ffffffffffffffff165b600083620800001660070b131561b52757680100058ba01fb9f96d0260401c67ffffffffffffffff165b600083620400001660070b131561b5515768010002c5cc37da94910260401c67ffffffffffffffff165b600083620200001660070b131561b57b576801000162e525ee05470260401c67ffffffffffffffff165b600083620100001660070b131561b5a55768010000b17255775c040260401c67ffffffffffffffff165b6000836180001660070b131561b5ce576801000058b91b5bc9ae0260401c67ffffffffffffffff165b6000836140001660070b131561b5f757680100002c5c89d5ec6c0260401c67ffffffffffffffff165b6000836120001660070b131561b6205768010000162e43f4f8310260401c67ffffffffffffffff165b6000836110001660070b131561b64957680100000b1721bcfc990260401c67ffffffffffffffff165b6000836108001660070b131561b6725768010000058b90cf1e6d0260401c67ffffffffffffffff165b6000836104001660070b131561b69b576801000002c5c863b73f0260401c67ffffffffffffffff165b6000836102001660070b131561b6c457680100000162e430e5a10260401c67ffffffffffffffff165b6000836101001660070b131561b6ed576801000000b1721835510260401c67ffffffffffffffff165b60008360801660070b131561b71557680100000058b90c0b480260401c67ffffffffffffffff165b60008360401660070b131561b73d5768010000002c5c8601cc0260401c67ffffffffffffffff165b60008360201660070b131561b765576801000000162e42fff00260401c67ffffffffffffffff165b60008360101660070b131561b78d5768010000000b17217fba0260401c67ffffffffffffffff165b60008360081660070b131561b7b5576801000000058b90bfcd0260401c67ffffffffffffffff165b60008360041660070b131561b7dd57680100000002c5c85fe30260401c67ffffffffffffffff165b60008360021660070b131561b8055768010000000162e42ff00260401c67ffffffffffffffff165b60008360011660070b131561b82d57680100000000b17217f80260401c67ffffffffffffffff165b6fffffffffffffffffffffffffffffffff908116600784810b60201d601f03900b82161c90677fffffffffffffff9082161115612c7d57600080fd5b60006170a1600784900b83617095565b60405180606001604052806003906020820280368337509192915050565b50805460008255600a0290600052602060002090810190610f64919061bdef565b5080546000825590600052602060002090810190610f64919061be62565b5080546000825560020290600052602060002090810190610f64919061be77565b50805460008255600f0290600052602060002090810190610f64919061beb6565b5080546000825560060290600052602060002090810190610f64919061bf52565b5080546000825560080290600052602060002090810190610f64919061bf8d565b50805460008255600d0290600052602060002090810190610f64919061bfde565b5080546000825560260290600052602060002090810190610f64919061c072565b5080546000825560020290600052602060002090810190610f64919061c245565b82805482825590600052602060002090810192821561ba03579160200282015b8281111561ba03578251829061b9f3908261d808565b509160200191906001019061b9dd565b50618e2d92915061c265565b82805482825590600052602060002090810192821561ba5c579160200282015b8281111561ba5c578251805161ba4c91849160209091019061ba68565b509160200191906001019061ba2f565b50618e2d92915061c282565b8280548282559060005260206000209060030160049004810192821561bb165791602002820160005b8382111561bae057835183826101000a81548167ffffffffffffffff021916908360070b67ffffffffffffffff160217905550926020019260080160208160070104928301926001030261ba91565b801561bb145782816101000a81549067ffffffffffffffff021916905560080160208160070104928301926001030261bae0565b505b50618e2d92915061be62565b826003810192821561bb16579160200282015b8281111561bb1657825182559160200191906001019061bb35565b826002810192821561bb16579160200282018281111561bb1657825182559160200191906001019061bb35565b82805482825590600052602060002090810192821561bbca579160200282015b8281111561bbca578251805161bbba91849160209091019061c29f565b509160200191906001019061bb9d565b50618e2d92915061c2f8565b6040805160e081019091526000808252602082019081526020016000815260200161bc1b60405180606001604052806060815260200160008152602001600081525090565b815260200161bc3d604051806040016040528060608152602001600081525090565b815260200160008152602001600081525090565b60405180608001604052806000815260200161bc6b61bc85565b815260200161bc7861bc85565b815260200160005b905290565b60405180604001604052806002906020820280368337509192915050565b6040805161012081019091526000808252602082019081526020016000815260200161bccd61bc85565b81526020016000815260200161bc1b6040518060a0016040528060608152602001600081526020016000815260200160008152602001600081525090565b6040518060c0016040528060008152602001600081526020016000815260200161bc3d60405180606001604052806060815260200160008152602001600081525090565b60405180610100016040528060008152602001600081526020016000600481111561bd7c5761bd7c61c978565b815260200161bda560405180606001604052806060815260200160008152602001600081525090565b815260200161bc1b60405180606001604052806060815260200160008152602001600081525090565b6040518060a00160405280600081526020016000815260200161bc3d61c315565b80821115618e2d57600080825560018201805460ff1916905560028201819055600382018161be1e828261c502565b506000600182018190556002909101819055600683019061be3f828261c520565b600182016000905550506008820160009055600982016000905550600a0161bdef565b5b80821115618e2d576000815560010161be63565b5b80821115618e2d57600081556001810180547fffffffffffffffffffffffffffffffff0000000000000000000000000000000016905560020161be78565b80821115618e2d57600080825560018201805460ff1916905560028201819055600382018190556004820181905560058201805460ff1916905560068201600061bf00828261c545565b5060006001820181905560028201819055600382018190556004909101819055600b83019061bf2f828261c520565b60018201600090555050600d820160009055600e82016000905550600f0161beb6565b80821115618e2d576000808255600182018190556002820181905560038201819055600482015560058101805460ff1916905560060161bf52565b80821115618e2d5760008082556001820181905560028201819055600382018161bfb7828261c502565b5060006001820181905560029091018190556006830181905560078301555060080161bf8d565b80821115618e2d5760008082556001820181905560028201805460ff19169055600382018161c00d828261c502565b506000600182018190556002909101819055600683019061c02e828261c502565b506000600182018190556002909101819055600983019061c04f828261c520565b60018201600090555050600b820160009055600c82016000905550600d0161bfde565b80821115618e2d57600080825560018201819055600282018181556003830180547fffffffffffffffffffffffffffffffffffffffffffffffffffffffffffff000016905581600484018161c0c7828261c502565b506000600182018190556002909101819055600583019061c0e8828261c502565b506000600182018190556002909101819055600883019061c109828261c502565b506000600182018190556002909101819055600b83019061c12a828261c502565b506000600182018190556002909101819055600e83019061c14b828261c502565b506000600182018190556002909101819055601183019061c16c828261c502565b506000600182018190556002909101819055601483019061c18d828261c502565b506000600182018190556002909101819055601783019061c1ae828261c502565b506000600182018190556002909101819055601a83019061c1cf828261c520565b506000600191909101819055601c83019061c1ea828261c520565b506000600191909101819055601e83019061c205828261c520565b506000600191909101819055602083019061c220828261c520565b600182016000905550505050602482016000905560258201600090555060260161c072565b5b80821115618e2d57805460ff191681556000600182015560020161c246565b80821115618e2d57600061c279828261c563565b5060010161c265565b80821115618e2d57600061c296828261c520565b5060010161c282565b82805482825590600052602060002090810192821561c2ec579160200282015b8281111561c2ec578251805161c2dc91849160209091019061ba0f565b509160200191906001019061c2bf565b50618e2d92915061c59d565b80821115618e2d57600061c30c828261c5ba565b5060010161c2f8565b604080516101e081019091526000808252602082019081526020016000815260200161c35b60405180606001604052806060815260200160008152602001600081525090565b815260200161c38460405180606001604052806060815260200160008152602001600081525090565b815260200161c3ad60405180606001604052806060815260200160008152602001600081525090565b815260200161c3d660405180606001604052806060815260200160008152602001600081525090565b815260200161c3ff60405180606001604052806060815260200160008152602001600081525090565b815260200161c42860405180606001604052806060815260200160008152602001600081525090565b815260200161c45160405180606001604052806060815260200160008152602001600081525090565b815260200161c47a60405180606001604052806060815260200160008152602001600081525090565b815260200161c49c604051806040016040528060608152602001600081525090565b815260200161c4be604051806040016040528060608152602001600081525090565b815260200161c4e0604051806040016040528060608152602001600081525090565b815260200161bc80604051806040016040528060608152602001600081525090565b5080546000825590600052602060002090810190610f64919061c282565b508054600082556003016004900490600052602060002090810190610f64919061be62565b5080546000825590600052602060002090810190610f64919061c2f8565b50805461c56f9061d02a565b6000825580601f1061c57f575050565b601f016020900490600052602060002090810190610f64919061be62565b80821115618e2d57600061c5b1828261c502565b5060010161c59d565b5080546000825590600052602060002090810190610f64919061c59d565b60005b8381101561c5f357818101518382015260200161c5db565b50506000910152565b6000815180845261c61481602086016020860161c5d8565b601f01601f19169290920160200192915050565b60808152600061c63b608083018761c5fc565b6020830195909552506040810192909252606090910152919050565b60008083601f84011261c66957600080fd5b50813567ffffffffffffffff81111561c68157600080fd5b6020830191508360208260051b850101111561c69c57600080fd5b9250929050565b600080600080600080600060a0888a03121561c6be57600080fd5b873596506020880135955060408801359450606088013567ffffffffffffffff8082111561c6eb57600080fd5b61c6f78b838c0161c657565b909650945060808a013591508082111561c71057600080fd5b5061c71d8a828b0161c657565b989b979a50959850939692959293505050565b6000806040838503121561c74357600080fd5b50508035926020909101359150565b600081518084526020808501945080840160005b8381101561c78557815160070b8752958201959082019060010161c766565b509495945050505050565b600082825180855260208086019550808260051b84010181860160005b8481101561c7db57601f1986840301895261c7c983835161c752565b9884019892509083019060010161c7ad565b5090979650505050505050565b84815283602082015260806040820152600061c807608083018561c790565b828103606084015261c819818561c752565b979650505050505050565b600081518084526020808501808196506005915083821b81018387016000805b8781101561c8ad578484038b5282518051808652908801908886019080891b87018a01855b8281101561c89757601f1989830301845261c88582865161c752565b948c0194938c0193915060010161c869565b509d8a019d96505050928701925060010161c844565b50919998505050505050505050565b600060c082018883526020888185015287604085015286606085015260c0608085015281865180845260e08601915060e08160051b870101935082880160005b8281101561c948577fffffffffffffffffffffffffffffffffffffffffffffffffffffffffffffff2088870301845261c93686835161c824565b9550928401929084019060010161c8fc565b505050505082810360a0840152617cc8818561c752565b60006020828403121561c97157600080fd5b5035919050565b634e487b7160e01b600052602160045260246000fd5b60008151808452602080850194508084016000805b8481101561c9e657825180516009811061c9cb57634e487b7160e01b84526021600452602484fd5b8952840151848901526040909701969183019160010161c9a3565b50959695505050505050565b60008186825b600381101561ca1757815183526020928301929091019060010161c9f8565b50505060c0606083015261ca2e60c083018661c5fc565b828103608084015280855180835260208084019250808260051b85010181890160005b8481101561ca7f57601f1987840301865261ca6d83835161c5fc565b9584019592509083019060010161ca51565b505086810360a088015261ca93818961c98e565b9b9a5050505050505050505050565b60008060006040848603121561cab757600080fd5b83359250602084013567ffffffffffffffff81111561cad557600080fd5b61cae18682870161c657565b9497909650939450505050565b634e487b7160e01b600052604160045260246000fd5b604051601f8201601f1916810167ffffffffffffffff8111828210171561cb2d5761cb2d61caee565b604052919050565b600067ffffffffffffffff82111561cb4f5761cb4f61caee565b5060051b60200190565b8060070b8114610f6457600080fd5b600082601f83011261cb7957600080fd5b8135602061cb8e61cb898361cb35565b61cb04565b82815260059290921b8401810191818101908684111561cbad57600080fd5b8286015b84811015612fe657803561cbc48161cb59565b835291830191830161cbb1565b600061cbdf61cb898461cb35565b8381529050602080820190600585901b84018681111561cbfe57600080fd5b845b8181101561ccae57803567ffffffffffffffff8082111561cc215760008081fd5b818801915089601f83011261cc365760008081fd5b813561cc4461cb898261cb35565b81815260059190911b8301860190868101908c83111561cc645760008081fd5b8785015b8381101561cc9c5780358581111561cc805760008081fd5b61cc8e8f8b838a010161cb68565b84525091880191880161cc68565b5088525050509383019350820161cc00565b505050509392505050565b600082601f83011261ccca57600080fd5b6170a18383356020850161cbd1565b6000806000806080858703121561ccef57600080fd5b843567ffffffffffffffff8082111561cd0757600080fd5b61cd138883890161ccb9565b9550602087013591508082111561cd2957600080fd5b5061cd368782880161cb68565b949794965050505060408301359260600135919050565b60408152600061cd60604083018561c824565b828103602084015261947f818561c752565b85815284602082015260a06040820152600061cd9160a083018661c790565b828103606084015261cda3818661c790565b9050828103608084015261cdb7818561c752565b98975050505050505050565b600082601f83011261cdd457600080fd5b813567ffffffffffffffff81111561cdee5761cdee61caee565b61ce016020601f19601f8401160161cb04565b81815284602083860101111561ce1657600080fd5b816020850160208301376000918101602001919091529392505050565b600080600080600060a0868803121561ce4b57600080fd5b85359450602086013567ffffffffffffffff8082111561ce6a57600080fd5b61ce7689838a0161cdc3565b955060408801359450606088013591508082111561ce9357600080fd5b5061cea08882890161ccb9565b95989497509295608001359392505050565b60008060006060848603121561cec757600080fd5b8335925060208085013567ffffffffffffffff8082111561cee757600080fd5b818701915087601f83011261cefb57600080fd5b813561cf0961cb898261cb35565b81815260059190911b8301840190848101908a83111561cf2857600080fd5b8585015b8381101561cf605780358581111561cf445760008081fd5b61cf528d89838a010161cdc3565b84525091860191860161cf2c565b5096505050604087013592508083111561cf7957600080fd5b505061cf878682870161cdc3565b9150509250925092565b6000806000806080858703121561cfa757600080fd5b84359350602085013567ffffffffffffffff81111561cfc557600080fd5b61cfd18782880161cb68565b9350506040850135915060608501356009811061cfed57600080fd5b939692955090935050565b6001600160a01b0381168114610f6457600080fd5b60006020828403121561d01f57600080fd5b81356170a18161cff8565b600181811c9082168061d03e57607f821691505b60208210810361983e57634e487b7160e01b600052602260045260246000fd5b60006020828403121561d07057600080fd5b5051919050565b60006020828403121561d08957600080fd5b81516170a18161cff8565b634e487b7160e01b600052601160045260246000fd5b81810381811115612c7d57612c7d61d094565b60006170a136848461cbd1565b634e487b7160e01b600052603260045260246000fd5b6000600019820361d0f35761d0f361d094565b5060010190565b848152600060206080818401526000865461d1148161d02a565b80608087015260a060018084166000811461d136576001811461d1505761d17e565b60ff198516838a01528284151560051b8a0101955061d17e565b8b6000528660002060005b8581101561d1765781548b820186015290830190880161d15b565b8a0184019650505b5050505050838103604085015261d195818761c752565b9250505061947f606083018460070b9052565b84815283602082015260806040820152600061c807608083018561c824565b60608152600061d1da606083018661c5fc565b828103602084015261d1ec818661c824565b915050826040830152949350505050565b80820180821115612c7d57612c7d61d094565b6000808335601e1984360301811261d22757600080fd5b83018035915067ffffffffffffffff82111561d24257600080fd5b60200191503681900382131561c69c57600080fd5b80820260008212600160ff1b8414161561d2735761d27361d094565b8181058314821517612c7d57612c7d61d094565b634e487b7160e01b600052601260045260246000fd5b60008261d2ac5761d2ac61d287565b6000198314600160ff1b8314161561d2c65761d2c661d094565b500590565b8082028115828204841417612c7d57612c7d61d094565b60008261d2f15761d2f161d287565b500490565b60008261d3055761d30561d287565b500690565b805160ff8116811461d31b57600080fd5b919050565b60006020828403121561d33257600080fd5b6170a18261d30a565b6000806040838503121561d34e57600080fd5b61d3578361d30a565b91506186326020840161d30a565b600080600060a0848603121561d37a57600080fd5b61d3838461d30a565b9250602061d39281860161d30a565b925085605f86011261d3a357600080fd5b6040516060810181811067ffffffffffffffff8211171561d3c65761d3c661caee565b6040528060a087018881111561d3db57600080fd5b604088015b8181101561d3f7578051835291840191840161d3e0565b50505080925050509250925092565b6020815260006170a1602083018461c790565b808201828112600083128015821682158216171561d4395761d43961d094565b505092915050565b6020815260006170a1602083018461c752565b6000835161d46681846020880161c5d8565b83519083019061d47a81836020880161c5d8565b01949350505050565b60008060006060848603121561d49857600080fd5b61d4a18461d30a565b925061d4af6020850161d30a565b9150604084015190509250925092565b60008060006060848603121561d4d457600080fd5b61d4dd8461d30a565b9250602084015161d4ed8161cb59565b604085015190925061d4fe8161cb59565b809150509250925092565b600082601f83011261d51a57600080fd5b6040516040810181811067ffffffffffffffff8211171561d53d5761d53d61caee565b806040525080604084018581111561d55457600080fd5b845b8181101561d56e57805183526020928301920161d556565b509195945050505050565b60008060008060c0858703121561d58f57600080fd5b61d5988561d30a565b935061d5a7866020870161d509565b925061d5b6866060870161d509565b915061d5c460a0860161d30a565b905092959194509250565b600080600080600080610100878903121561d5e957600080fd5b61d5f28761d30a565b955061d6006020880161d30a565b94506040870151935061d616886060890161d509565b925061d6258860a0890161d509565b915061d63360e0880161d30a565b90509295509295509295565b60008060006060848603121561d65457600080fd5b61d65d8461d30a565b925060208401519150604084015190509250925092565b600080600080600060a0868803121561d68c57600080fd5b61d6958661d30a565b945061d6a36020870161d30a565b935061d6b16040870161d30a565b6060870151608090970151959894975095949392505050565b600181815b8085111561d70557816000190482111561d6eb5761d6eb61d094565b8085161561d6f857918102915b93841c939080029061d6cf565b509250929050565b60008261d71c57506001612c7d565b8161d72957506000612c7d565b816001811461d73f576002811461d7495761d765565b6001915050612c7d565b60ff84111561d75a5761d75a61d094565b50506001821b612c7d565b5060208310610133831016604e8410600b841016171561d788575081810a612c7d565b61d792838361d6ca565b806000190482111561d7a65761d7a661d094565b029392505050565b60006170a1838361d70d565b601f8211156112fe57600081815260208120601f850160051c8101602086101561d7e15750805b601f850160051c820191505b8181101561d8005782815560010161d7ed565b505050505050565b815167ffffffffffffffff81111561d8225761d82261caee565b61d8368161d830845461d02a565b8461d7ba565b602080601f83116001811461d86b576000841561d8535750858301515b600019600386901b1c1916600185901b17855561d800565b600085815260208120601f198616915b8281101561d89a5788860151825594840194600190910190840161d87b565b508582101561d8b85787850151600019600388901b60f8161c191681555b5050505050600190811b0190555056fea2646970667358221220a976c2b2087a3cf440554a7e6d0588e7aed2da3e83d163f2bc1a0eb0f947f90264736f6c63430008130033",
  "linkReferences": {},
  "deployedLinkReferences": {}
}