{
  "_format": "hh-sol-artifact-1",
  "contractName": "WorkerHub",
  "sourceName": "contracts/WorkerHub.sol",
  "abi": [
    {
      "inputs": [
        {
          "internalType": "address",
          "name": "value",
          "type": "address"
        }
      ],
      "name": "AddressSet_DuplicatedValue",
      "type": "error"
    },
    {
      "inputs": [
        {
          "internalType": "address",
          "name": "value",
          "type": "address"
        }
      ],
      "name": "AddressSet_ValueNotFound",
      "type": "error"
    },
    {
      "inputs": [],
      "name": "AlreadyCommitted",
      "type": "error"
    },
    {
      "inputs": [],
      "name": "AlreadyRegistered",
      "type": "error"
    },
    {
      "inputs": [],
      "name": "AlreadyRevealed",
      "type": "error"
    },
    {
      "inputs": [],
      "name": "AlreadySubmitted",
      "type": "error"
    },
    {
      "inputs": [
        {
          "internalType": "bytes32",
          "name": "value",
          "type": "bytes32"
        }
      ],
      "name": "Bytes32Set_DuplicatedValue",
      "type": "error"
    },
    {
      "inputs": [],
      "name": "CommitTimeout",
      "type": "error"
    },
    {
      "inputs": [],
      "name": "FailedTransfer",
      "type": "error"
    },
    {
      "inputs": [],
      "name": "FeeTooLow",
      "type": "error"
    },
    {
      "inputs": [],
      "name": "InferMustBeSolvingState",
      "type": "error"
    },
    {
      "inputs": [],
      "name": "InvalidBlockValue",
      "type": "error"
    },
    {
      "inputs": [],
      "name": "InvalidCommitment",
      "type": "error"
    },
    {
      "inputs": [],
      "name": "InvalidData",
      "type": "error"
    },
    {
      "inputs": [],
      "name": "InvalidInferenceStatus",
      "type": "error"
    },
    {
      "inputs": [],
      "name": "InvalidMiner",
      "type": "error"
    },
    {
      "inputs": [],
      "name": "InvalidModel",
      "type": "error"
    },
    {
      "inputs": [],
      "name": "InvalidNonce",
      "type": "error"
    },
    {
      "inputs": [],
      "name": "InvalidReveal",
      "type": "error"
    },
    {
      "inputs": [],
      "name": "InvalidRole",
      "type": "error"
    },
    {
      "inputs": [],
      "name": "InvalidTier",
      "type": "error"
    },
    {
      "inputs": [],
      "name": "MinerInDeactivationTime",
      "type": "error"
    },
    {
      "inputs": [],
      "name": "MiningSessionEnded",
      "type": "error"
    },
    {
      "inputs": [],
      "name": "MiningSessionNotEnded",
      "type": "error"
    },
    {
      "inputs": [],
      "name": "NotCommitted",
      "type": "error"
    },
    {
      "inputs": [],
      "name": "NotEnoughMiners",
      "type": "error"
    },
    {
      "inputs": [],
      "name": "NotRegistered",
      "type": "error"
    },
    {
      "inputs": [],
      "name": "NullStake",
      "type": "error"
    },
    {
      "inputs": [],
      "name": "RevealTimeout",
      "type": "error"
    },
    {
      "inputs": [],
      "name": "StakeTooLow",
      "type": "error"
    },
    {
      "inputs": [],
      "name": "StillBeingLocked",
      "type": "error"
    },
    {
      "inputs": [
        {
          "internalType": "uint256",
          "name": "value",
          "type": "uint256"
        }
      ],
      "name": "Uint256Set_DuplicatedValue",
      "type": "error"
    },
    {
      "inputs": [],
      "name": "Unauthorized",
      "type": "error"
    },
    {
      "inputs": [],
      "name": "ValidatingSessionNotEnded",
      "type": "error"
    },
    {
      "inputs": [],
      "name": "ZeroValue",
      "type": "error"
    },
    {
      "anonymous": false,
      "inputs": [
        {
          "indexed": false,
          "internalType": "uint256",
          "name": "oldBlocks",
          "type": "uint256"
        },
        {
          "indexed": false,
          "internalType": "uint256",
          "name": "newBlocks",
          "type": "uint256"
        }
      ],
      "name": "BlocksPerEpoch",
      "type": "event"
    },
    {
      "anonymous": false,
      "inputs": [
        {
          "indexed": false,
          "internalType": "uint256",
          "name": "oldTime",
          "type": "uint256"
        },
        {
          "indexed": false,
          "internalType": "uint256",
          "name": "newTime",
          "type": "uint256"
        }
      ],
      "name": "CommitDuration",
      "type": "event"
    },
    {
      "anonymous": false,
      "inputs": [
        {
          "indexed": true,
          "internalType": "address",
          "name": "miner",
          "type": "address"
        },
        {
          "indexed": true,
          "internalType": "uint256",
          "name": "assigmentId",
          "type": "uint256"
        },
        {
          "indexed": false,
          "internalType": "bytes32",
          "name": "commitment",
          "type": "bytes32"
        }
      ],
      "name": "CommitmentSubmission",
      "type": "event"
    },
    {
      "anonymous": false,
      "inputs": [
        {
          "indexed": false,
          "internalType": "uint256",
          "name": "chainId",
          "type": "uint256"
        },
        {
          "indexed": false,
          "internalType": "uint256",
          "name": "inferenceId",
          "type": "uint256"
        },
        {
          "indexed": false,
          "internalType": "address",
          "name": "modelAddress",
          "type": "address"
        },
        {
          "components": [
            {
              "internalType": "address",
              "name": "receiver",
              "type": "address"
            },
            {
              "internalType": "uint256",
              "name": "amount",
              "type": "uint256"
            },
            {
              "internalType": "enum IWorkerHub.DAOTokenReceiverRole",
              "name": "role",
              "type": "uint8"
            }
          ],
          "indexed": false,
          "internalType": "struct IWorkerHub.DAOTokenReceiverInfor[]",
          "name": "receivers",
          "type": "tuple[]"
        }
      ],
      "name": "DAOTokenMintedV2",
      "type": "event"
    },
    {
      "anonymous": false,
      "inputs": [
        {
          "components": [
            {
              "internalType": "uint16",
              "name": "minerPercentage",
              "type": "uint16"
            },
            {
              "internalType": "uint16",
              "name": "userPercentage",
              "type": "uint16"
            },
            {
              "internalType": "uint16",
              "name": "referrerPercentage",
              "type": "uint16"
            },
            {
              "internalType": "uint16",
              "name": "refereePercentage",
              "type": "uint16"
            },
            {
              "internalType": "uint16",
              "name": "l2OwnerPercentage",
              "type": "uint16"
            }
          ],
          "indexed": false,
          "internalType": "struct IWorkerHub.DAOTokenPercentage",
          "name": "oldValue",
          "type": "tuple"
        },
        {
          "components": [
            {
              "internalType": "uint16",
              "name": "minerPercentage",
              "type": "uint16"
            },
            {
              "internalType": "uint16",
              "name": "userPercentage",
              "type": "uint16"
            },
            {
              "internalType": "uint16",
              "name": "referrerPercentage",
              "type": "uint16"
            },
            {
              "internalType": "uint16",
              "name": "refereePercentage",
              "type": "uint16"
            },
            {
              "internalType": "uint16",
              "name": "l2OwnerPercentage",
              "type": "uint16"
            }
          ],
          "indexed": false,
          "internalType": "struct IWorkerHub.DAOTokenPercentage",
          "name": "newValue",
          "type": "tuple"
        }
      ],
      "name": "DAOTokenPercentageUpdated",
      "type": "event"
    },
    {
      "anonymous": false,
      "inputs": [
        {
          "indexed": false,
          "internalType": "uint256",
          "name": "oldValue",
          "type": "uint256"
        },
        {
          "indexed": false,
          "internalType": "uint256",
          "name": "newValue",
          "type": "uint256"
        }
      ],
      "name": "DAOTokenRewardUpdated",
      "type": "event"
    },
    {
      "anonymous": false,
      "inputs": [
        {
          "indexed": false,
          "internalType": "address",
          "name": "oldAddress",
          "type": "address"
        },
        {
          "indexed": false,
          "internalType": "address",
          "name": "newAddress",
          "type": "address"
        }
      ],
      "name": "DAOTokenUpdated",
      "type": "event"
    },
    {
      "anonymous": false,
      "inputs": [
        {
          "indexed": false,
          "internalType": "uint16",
          "name": "oldPercent",
          "type": "uint16"
        },
        {
          "indexed": false,
          "internalType": "uint16",
          "name": "newPercent",
          "type": "uint16"
        }
      ],
      "name": "FinePercentageUpdated",
      "type": "event"
    },
    {
      "anonymous": false,
      "inputs": [
        {
          "indexed": true,
          "internalType": "address",
          "name": "miner",
          "type": "address"
        },
        {
          "indexed": true,
          "internalType": "address",
          "name": "modelAddress",
          "type": "address"
        },
        {
          "indexed": true,
          "internalType": "address",
          "name": "treasury",
          "type": "address"
        },
        {
          "indexed": false,
          "internalType": "uint256",
          "name": "fine",
          "type": "uint256"
        }
      ],
      "name": "FraudulentMinerPenalized",
      "type": "event"
    },
    {
      "anonymous": false,
      "inputs": [
        {
          "indexed": true,
          "internalType": "uint256",
          "name": "inferenceId",
          "type": "uint256"
        },
        {
          "indexed": false,
          "internalType": "enum IWorkerHub.InferenceStatus",
          "name": "newStatus",
          "type": "uint8"
        }
      ],
      "name": "InferenceStatusUpdate",
      "type": "event"
    },
    {
      "anonymous": false,
      "inputs": [
        {
          "indexed": false,
          "internalType": "uint8",
          "name": "version",
          "type": "uint8"
        }
      ],
      "name": "Initialized",
      "type": "event"
    },
    {
      "anonymous": false,
      "inputs": [
        {
          "indexed": false,
          "internalType": "address",
          "name": "oldAddress",
          "type": "address"
        },
        {
          "indexed": false,
          "internalType": "address",
          "name": "newAddress",
          "type": "address"
        }
      ],
      "name": "L2OwnerUpdated",
      "type": "event"
    },
    {
      "anonymous": false,
      "inputs": [
        {
          "indexed": false,
          "internalType": "uint256",
          "name": "oldValue",
          "type": "uint256"
        },
        {
          "indexed": false,
          "internalType": "uint256",
          "name": "newValue",
          "type": "uint256"
        }
      ],
      "name": "MinFeeToUseUpdated",
      "type": "event"
    },
    {
      "anonymous": false,
      "inputs": [
        {
          "indexed": true,
          "internalType": "address",
          "name": "miner",
          "type": "address"
        },
        {
          "indexed": true,
          "internalType": "address",
          "name": "modelAddress",
          "type": "address"
        },
        {
          "indexed": false,
          "internalType": "uint40",
          "name": "activeTime",
          "type": "uint40"
        }
      ],
      "name": "MinerDeactivated",
      "type": "event"
    },
    {
      "anonymous": false,
      "inputs": [
        {
          "indexed": true,
          "internalType": "address",
          "name": "miner",
          "type": "address"
        },
        {
          "indexed": false,
          "internalType": "uint256",
          "name": "value",
          "type": "uint256"
        }
      ],
      "name": "MinerExtraStake",
      "type": "event"
    },
    {
      "anonymous": false,
      "inputs": [
        {
          "indexed": true,
          "internalType": "address",
          "name": "miner",
          "type": "address"
        }
      ],
      "name": "MinerJoin",
      "type": "event"
    },
    {
      "anonymous": false,
      "inputs": [
        {
          "indexed": true,
          "internalType": "address",
          "name": "miner",
          "type": "address"
        },
        {
          "indexed": true,
          "internalType": "uint16",
          "name": "tier",
          "type": "uint16"
        },
        {
          "indexed": false,
          "internalType": "uint256",
          "name": "value",
          "type": "uint256"
        }
      ],
      "name": "MinerRegistration",
      "type": "event"
    },
    {
      "anonymous": false,
      "inputs": [
        {
          "indexed": true,
          "internalType": "uint256",
          "name": "assignmentId",
          "type": "uint256"
        },
        {
          "indexed": true,
          "internalType": "uint256",
          "name": "inferenceId",
          "type": "uint256"
        },
        {
          "indexed": true,
          "internalType": "address",
          "name": "miner",
          "type": "address"
        }
      ],
      "name": "MinerRoleSeized",
      "type": "event"
    },
    {
      "anonymous": false,
      "inputs": [
        {
          "indexed": true,
          "internalType": "address",
          "name": "miner",
          "type": "address"
        }
      ],
      "name": "MinerUnregistration",
      "type": "event"
    },
    {
      "anonymous": false,
      "inputs": [
        {
          "indexed": true,
          "internalType": "address",
          "name": "miner",
          "type": "address"
        },
        {
          "indexed": false,
          "internalType": "uint256",
          "name": "stake",
          "type": "uint256"
        }
      ],
      "name": "MinerUnstake",
      "type": "event"
    },
    {
      "anonymous": false,
      "inputs": [
        {
          "indexed": false,
          "internalType": "uint40",
          "name": "newValue",
          "type": "uint40"
        }
      ],
      "name": "MiningTimeLimitUpdate",
      "type": "event"
    },
    {
      "anonymous": false,
      "inputs": [
        {
          "indexed": true,
          "internalType": "address",
          "name": "model",
          "type": "address"
        },
        {
          "indexed": false,
          "internalType": "uint256",
          "name": "minimumFee",
          "type": "uint256"
        }
      ],
      "name": "ModelMinimumFeeUpdate",
      "type": "event"
    },
    {
      "anonymous": false,
      "inputs": [
        {
          "indexed": true,
          "internalType": "address",
          "name": "model",
          "type": "address"
        },
        {
          "indexed": true,
          "internalType": "uint16",
          "name": "tier",
          "type": "uint16"
        },
        {
          "indexed": false,
          "internalType": "uint256",
          "name": "minimumFee",
          "type": "uint256"
        }
      ],
      "name": "ModelRegistration",
      "type": "event"
    },
    {
      "anonymous": false,
      "inputs": [
        {
          "indexed": true,
          "internalType": "address",
          "name": "model",
          "type": "address"
        },
        {
          "indexed": false,
          "internalType": "uint32",
          "name": "tier",
          "type": "uint32"
        }
      ],
      "name": "ModelTierUpdate",
      "type": "event"
    },
    {
      "anonymous": false,
      "inputs": [
        {
          "indexed": true,
          "internalType": "address",
          "name": "model",
          "type": "address"
        }
      ],
      "name": "ModelUnregistration",
      "type": "event"
    },
    {
      "anonymous": false,
      "inputs": [
        {
          "indexed": true,
          "internalType": "uint256",
          "name": "assignmentId",
          "type": "uint256"
        },
        {
          "indexed": true,
          "internalType": "uint256",
          "name": "inferenceId",
          "type": "uint256"
        },
        {
          "indexed": true,
          "internalType": "address",
          "name": "miner",
          "type": "address"
        },
        {
          "indexed": false,
          "internalType": "uint40",
          "name": "expiredAt",
          "type": "uint40"
        }
      ],
      "name": "NewAssignment",
      "type": "event"
    },
    {
      "anonymous": false,
      "inputs": [
        {
          "indexed": true,
          "internalType": "uint256",
          "name": "inferenceId",
          "type": "uint256"
        },
        {
          "indexed": true,
          "internalType": "address",
          "name": "model",
          "type": "address"
        },
        {
          "indexed": true,
          "internalType": "address",
          "name": "creator",
          "type": "address"
        },
        {
          "indexed": false,
          "internalType": "uint256",
          "name": "value",
          "type": "uint256"
        },
        {
          "indexed": false,
          "internalType": "uint256",
          "name": "originInferenceId",
          "type": "uint256"
        }
      ],
      "name": "NewInference",
      "type": "event"
    },
    {
      "anonymous": false,
      "inputs": [
        {
          "indexed": true,
          "internalType": "uint256",
          "name": "inferenceId",
          "type": "uint256"
        },
        {
          "indexed": true,
          "internalType": "address",
          "name": "model",
          "type": "address"
        },
        {
          "indexed": true,
          "internalType": "address",
          "name": "creator",
          "type": "address"
        },
        {
          "indexed": false,
          "internalType": "uint256",
          "name": "value",
          "type": "uint256"
        },
        {
          "indexed": false,
          "internalType": "uint256",
          "name": "originInferenceId",
          "type": "uint256"
        }
      ],
      "name": "NewScoringInference",
      "type": "event"
    },
    {
      "anonymous": false,
      "inputs": [
        {
          "indexed": true,
          "internalType": "address",
          "name": "previousOwner",
          "type": "address"
        },
        {
          "indexed": true,
          "internalType": "address",
          "name": "newOwner",
          "type": "address"
        }
      ],
      "name": "OwnershipTransferred",
      "type": "event"
    },
    {
      "anonymous": false,
      "inputs": [
        {
          "indexed": false,
          "internalType": "address",
          "name": "account",
          "type": "address"
        }
      ],
      "name": "Paused",
      "type": "event"
    },
    {
      "anonymous": false,
      "inputs": [
        {
          "indexed": false,
          "internalType": "uint40",
          "name": "oldDuration",
          "type": "uint40"
        },
        {
          "indexed": false,
          "internalType": "uint40",
          "name": "newDuration",
          "type": "uint40"
        }
      ],
      "name": "PenaltyDurationUpdated",
      "type": "event"
    },
    {
      "anonymous": false,
      "inputs": [
        {
          "indexed": true,
          "internalType": "address",
          "name": "miner",
          "type": "address"
        },
        {
          "indexed": false,
          "internalType": "uint256",
          "name": "restake",
          "type": "uint256"
        },
        {
          "indexed": true,
          "internalType": "address",
          "name": "model",
          "type": "address"
        }
      ],
      "name": "Restake",
      "type": "event"
    },
    {
      "anonymous": false,
      "inputs": [
        {
          "indexed": false,
          "internalType": "uint256",
          "name": "oldTime",
          "type": "uint256"
        },
        {
          "indexed": false,
          "internalType": "uint256",
          "name": "newTime",
          "type": "uint256"
        }
      ],
      "name": "RevealDuration",
      "type": "event"
    },
    {
      "anonymous": false,
      "inputs": [
        {
          "indexed": true,
          "internalType": "address",
          "name": "miner",
          "type": "address"
        },
        {
          "indexed": true,
          "internalType": "uint256",
          "name": "assigmentId",
          "type": "uint256"
        },
        {
          "indexed": false,
          "internalType": "uint40",
          "name": "nonce",
          "type": "uint40"
        },
        {
          "indexed": false,
          "internalType": "bytes",
          "name": "output",
          "type": "bytes"
        }
      ],
      "name": "RevealSubmission",
      "type": "event"
    },
    {
      "anonymous": false,
      "inputs": [
        {
          "indexed": true,
          "internalType": "address",
          "name": "worker",
          "type": "address"
        },
        {
          "indexed": false,
          "internalType": "uint256",
          "name": "value",
          "type": "uint256"
        }
      ],
      "name": "RewardClaim",
      "type": "event"
    },
    {
      "anonymous": false,
      "inputs": [
        {
          "indexed": false,
          "internalType": "uint256",
          "name": "oldReward",
          "type": "uint256"
        },
        {
          "indexed": false,
          "internalType": "uint256",
          "name": "newReward",
          "type": "uint256"
        }
      ],
      "name": "RewardPerEpoch",
      "type": "event"
    },
    {
      "anonymous": false,
      "inputs": [
        {
          "indexed": true,
          "internalType": "address",
          "name": "miner",
          "type": "address"
        },
        {
          "indexed": true,
          "internalType": "uint256",
          "name": "assigmentId",
          "type": "uint256"
        }
      ],
      "name": "SolutionSubmission",
      "type": "event"
    },
    {
      "anonymous": false,
      "inputs": [
        {
          "indexed": true,
          "internalType": "uint256",
          "name": "assignmentId",
          "type": "uint256"
        },
        {
          "indexed": false,
          "internalType": "bytes",
          "name": "data",
          "type": "bytes"
        }
      ],
      "name": "StreamedData",
      "type": "event"
    },
    {
      "anonymous": false,
      "inputs": [
        {
          "indexed": false,
          "internalType": "uint256",
          "name": "oldTime",
          "type": "uint256"
        },
        {
          "indexed": false,
          "internalType": "uint256",
          "name": "newTime",
          "type": "uint256"
        }
      ],
      "name": "SubmitDuration",
      "type": "event"
    },
    {
      "anonymous": false,
      "inputs": [
        {
          "indexed": true,
          "internalType": "uint256",
          "name": "inferenceId",
          "type": "uint256"
        },
        {
          "indexed": true,
          "internalType": "address",
          "name": "creator",
          "type": "address"
        },
        {
          "indexed": false,
          "internalType": "uint256",
          "name": "value",
          "type": "uint256"
        }
      ],
      "name": "TopUpInfer",
      "type": "event"
    },
    {
      "anonymous": false,
      "inputs": [
        {
          "indexed": true,
          "internalType": "address",
          "name": "treasury",
          "type": "address"
        },
        {
          "indexed": false,
          "internalType": "uint256",
          "name": "treasuryFee",
          "type": "uint256"
        },
        {
          "indexed": false,
          "internalType": "address",
          "name": "L2OwnerAddress",
          "type": "address"
        },
        {
          "indexed": false,
          "internalType": "uint256",
          "name": "L2OwnerFee",
          "type": "uint256"
        }
      ],
      "name": "TransferFee",
      "type": "event"
    },
    {
      "anonymous": false,
      "inputs": [
        {
          "indexed": false,
          "internalType": "address",
          "name": "oldAddress",
          "type": "address"
        },
        {
          "indexed": false,
          "internalType": "address",
          "name": "newAddress",
          "type": "address"
        }
      ],
      "name": "TreasuryAddressUpdated",
      "type": "event"
    },
    {
      "anonymous": false,
      "inputs": [
        {
          "indexed": false,
          "internalType": "address",
          "name": "account",
          "type": "address"
        }
      ],
      "name": "Unpaused",
      "type": "event"
    },
    {
      "anonymous": false,
      "inputs": [
        {
          "indexed": false,
          "internalType": "uint256",
          "name": "oldDelayTime",
          "type": "uint256"
        },
        {
          "indexed": false,
          "internalType": "uint256",
          "name": "newDelayTime",
          "type": "uint256"
        }
      ],
      "name": "UnstakeDelayTime",
      "type": "event"
    },
    {
      "inputs": [],
      "name": "assignmentNumber",
      "outputs": [
        {
          "internalType": "uint256",
          "name": "",
          "type": "uint256"
        }
      ],
      "stateMutability": "view",
      "type": "function"
    },
    {
      "inputs": [
        {
          "internalType": "uint256",
          "name": "",
          "type": "uint256"
        }
      ],
      "name": "assignments",
      "outputs": [
        {
          "internalType": "uint256",
          "name": "inferenceId",
          "type": "uint256"
        },
        {
          "internalType": "bytes32",
          "name": "commitment",
          "type": "bytes32"
        },
        {
          "internalType": "bytes32",
          "name": "digest",
          "type": "bytes32"
        },
        {
          "internalType": "uint40",
          "name": "revealNonce",
          "type": "uint40"
        },
        {
          "internalType": "address",
          "name": "worker",
          "type": "address"
        },
        {
          "internalType": "enum IWorkerHub.AssignmentRole",
          "name": "role",
          "type": "uint8"
        },
        {
          "internalType": "enum IWorkerHub.Vote",
          "name": "vote",
          "type": "uint8"
        },
        {
          "internalType": "bytes",
          "name": "output",
          "type": "bytes"
        }
      ],
      "stateMutability": "view",
      "type": "function"
    },
    {
      "inputs": [],
      "name": "blocksPerEpoch",
      "outputs": [
        {
          "internalType": "uint256",
          "name": "",
          "type": "uint256"
        }
      ],
      "stateMutability": "view",
      "type": "function"
    },
    {
      "inputs": [
        {
          "internalType": "address",
          "name": "_miner",
          "type": "address"
        }
      ],
      "name": "claimReward",
      "outputs": [],
      "stateMutability": "nonpayable",
      "type": "function"
    },
    {
      "inputs": [
        {
          "internalType": "uint256",
          "name": "_assignId",
          "type": "uint256"
        },
        {
          "internalType": "bytes32",
          "name": "_commitment",
          "type": "bytes32"
        }
      ],
      "name": "commit",
      "outputs": [],
      "stateMutability": "nonpayable",
      "type": "function"
    },
    {
      "inputs": [],
      "name": "commitDuration",
      "outputs": [
        {
          "internalType": "uint40",
          "name": "",
          "type": "uint40"
        }
      ],
      "stateMutability": "view",
      "type": "function"
    },
    {
      "inputs": [],
      "name": "currentEpoch",
      "outputs": [
        {
          "internalType": "uint40",
          "name": "",
          "type": "uint40"
        }
      ],
      "stateMutability": "view",
      "type": "function"
    },
    {
      "inputs": [
        {
          "internalType": "uint256",
          "name": "inferId",
          "type": "uint256"
        },
        {
          "internalType": "uint256",
          "name": "",
          "type": "uint256"
        }
      ],
      "name": "daoReceiversInfo",
      "outputs": [
        {
          "internalType": "address",
          "name": "receiver",
          "type": "address"
        },
        {
          "internalType": "uint256",
          "name": "amount",
          "type": "uint256"
        },
        {
          "internalType": "enum IWorkerHub.DAOTokenReceiverRole",
          "name": "role",
          "type": "uint8"
        }
      ],
      "stateMutability": "view",
      "type": "function"
    },
    {
      "inputs": [],
      "name": "daoToken",
      "outputs": [
        {
          "internalType": "address",
          "name": "",
          "type": "address"
        }
      ],
      "stateMutability": "view",
      "type": "function"
    },
    {
      "inputs": [],
      "name": "daoTokenPercentage",
      "outputs": [
        {
          "internalType": "uint16",
          "name": "minerPercentage",
          "type": "uint16"
        },
        {
          "internalType": "uint16",
          "name": "userPercentage",
          "type": "uint16"
        },
        {
          "internalType": "uint16",
          "name": "referrerPercentage",
          "type": "uint16"
        },
        {
          "internalType": "uint16",
          "name": "refereePercentage",
          "type": "uint16"
        },
        {
          "internalType": "uint16",
          "name": "l2OwnerPercentage",
          "type": "uint16"
        }
      ],
      "stateMutability": "view",
      "type": "function"
    },
    {
      "inputs": [],
      "name": "daoTokenReward",
      "outputs": [
        {
          "internalType": "uint256",
          "name": "",
          "type": "uint256"
        }
      ],
      "stateMutability": "view",
      "type": "function"
    },
    {
      "inputs": [],
      "name": "feeL2Percentage",
      "outputs": [
        {
          "internalType": "uint16",
          "name": "",
          "type": "uint16"
        }
      ],
      "stateMutability": "view",
      "type": "function"
    },
    {
      "inputs": [],
      "name": "feeRatioMinerValidator",
      "outputs": [
        {
          "internalType": "uint16",
          "name": "",
          "type": "uint16"
        }
      ],
      "stateMutability": "view",
      "type": "function"
    },
    {
      "inputs": [],
      "name": "feeTreasuryPercentage",
      "outputs": [
        {
          "internalType": "uint16",
          "name": "",
          "type": "uint16"
        }
      ],
      "stateMutability": "view",
      "type": "function"
    },
    {
      "inputs": [],
      "name": "finePercentage",
      "outputs": [
        {
          "internalType": "uint16",
          "name": "",
          "type": "uint16"
        }
      ],
      "stateMutability": "view",
      "type": "function"
    },
    {
      "inputs": [
        {
          "internalType": "address",
          "name": "_miner",
          "type": "address"
        },
        {
          "internalType": "address",
          "name": "_modelAddress",
          "type": "address"
        }
      ],
      "name": "forceChangeModelForMiner",
      "outputs": [],
      "stateMutability": "nonpayable",
      "type": "function"
    },
    {
      "inputs": [
        {
          "internalType": "uint256",
          "name": "startId",
          "type": "uint256"
        },
        {
          "internalType": "uint256",
          "name": "count",
          "type": "uint256"
        }
      ],
      "name": "getAllAssignments",
      "outputs": [
        {
          "components": [
            {
              "internalType": "uint256",
              "name": "inferenceId",
              "type": "uint256"
            },
            {
              "internalType": "bytes32",
              "name": "commitment",
              "type": "bytes32"
            },
            {
              "internalType": "bytes32",
              "name": "digest",
              "type": "bytes32"
            },
            {
              "internalType": "uint40",
              "name": "revealNonce",
              "type": "uint40"
            },
            {
              "internalType": "address",
              "name": "worker",
              "type": "address"
            },
            {
              "internalType": "enum IWorkerHub.AssignmentRole",
              "name": "role",
              "type": "uint8"
            },
            {
              "internalType": "enum IWorkerHub.Vote",
              "name": "vote",
              "type": "uint8"
            },
            {
              "internalType": "bytes",
              "name": "output",
              "type": "bytes"
            }
          ],
          "internalType": "struct IWorkerHub.Assignment[]",
          "name": "assignmentData",
          "type": "tuple[]"
        }
      ],
      "stateMutability": "view",
      "type": "function"
    },
    {
      "inputs": [
        {
          "internalType": "uint256",
          "name": "startId",
          "type": "uint256"
        },
        {
          "internalType": "uint256",
          "name": "count",
          "type": "uint256"
        }
      ],
      "name": "getAllInferences",
      "outputs": [
        {
          "components": [
            {
              "internalType": "uint256[]",
              "name": "assignments",
              "type": "uint256[]"
            },
            {
              "internalType": "bytes",
              "name": "input",
              "type": "bytes"
            },
            {
              "internalType": "uint256",
              "name": "value",
              "type": "uint256"
            },
            {
              "internalType": "uint256",
              "name": "feeL2",
              "type": "uint256"
            },
            {
              "internalType": "uint256",
              "name": "feeTreasury",
              "type": "uint256"
            },
            {
              "internalType": "address",
              "name": "modelAddress",
              "type": "address"
            },
            {
              "internalType": "uint40",
              "name": "submitTimeout",
              "type": "uint40"
            },
            {
              "internalType": "uint40",
              "name": "commitTimeout",
              "type": "uint40"
            },
            {
              "internalType": "uint40",
              "name": "revealTimeout",
              "type": "uint40"
            },
            {
              "internalType": "enum IWorkerHub.InferenceStatus",
              "name": "status",
              "type": "uint8"
            },
            {
              "internalType": "address",
              "name": "creator",
              "type": "address"
            },
            {
              "internalType": "address",
              "name": "processedMiner",
              "type": "address"
            },
            {
              "internalType": "address",
              "name": "referrer",
              "type": "address"
            }
          ],
          "internalType": "struct IWorkerHub.Inference[]",
          "name": "inferenceData",
          "type": "tuple[]"
        }
      ],
      "stateMutability": "view",
      "type": "function"
    },
    {
      "inputs": [],
      "name": "getAllMinerUnstakeRequests",
      "outputs": [
        {
          "internalType": "address[]",
          "name": "unstakeAddresses",
          "type": "address[]"
        },
        {
          "components": [
            {
              "internalType": "uint256",
              "name": "stake",
              "type": "uint256"
            },
            {
              "internalType": "uint40",
              "name": "unlockAt",
              "type": "uint40"
            }
          ],
          "internalType": "struct IWorkerHub.UnstakeRequest[]",
          "name": "unstakeRequests",
          "type": "tuple[]"
        }
      ],
      "stateMutability": "view",
      "type": "function"
    },
    {
      "inputs": [],
      "name": "getAllMiners",
      "outputs": [
        {
          "components": [
            {
              "internalType": "uint256",
              "name": "stake",
              "type": "uint256"
            },
            {
              "internalType": "uint256",
              "name": "commitment",
              "type": "uint256"
            },
            {
              "internalType": "address",
              "name": "modelAddress",
              "type": "address"
            },
            {
              "internalType": "uint40",
              "name": "lastClaimedEpoch",
              "type": "uint40"
            },
            {
              "internalType": "uint40",
              "name": "activeTime",
              "type": "uint40"
            },
            {
              "internalType": "uint16",
              "name": "tier",
              "type": "uint16"
            }
          ],
          "internalType": "struct IWorkerHub.Worker[]",
          "name": "minerData",
          "type": "tuple[]"
        }
      ],
      "stateMutability": "view",
      "type": "function"
    },
    {
      "inputs": [
        {
          "internalType": "uint256",
          "name": "_inferId",
          "type": "uint256"
        }
      ],
      "name": "getAssignmentByInferenceId",
      "outputs": [
        {
          "components": [
            {
              "internalType": "uint256",
              "name": "inferenceId",
              "type": "uint256"
            },
            {
              "internalType": "bytes32",
              "name": "commitment",
              "type": "bytes32"
            },
            {
              "internalType": "bytes32",
              "name": "digest",
              "type": "bytes32"
            },
            {
              "internalType": "uint40",
              "name": "revealNonce",
              "type": "uint40"
            },
            {
              "internalType": "address",
              "name": "worker",
              "type": "address"
            },
            {
              "internalType": "enum IWorkerHub.AssignmentRole",
              "name": "role",
              "type": "uint8"
            },
            {
              "internalType": "enum IWorkerHub.Vote",
              "name": "vote",
              "type": "uint8"
            },
            {
              "internalType": "bytes",
              "name": "output",
              "type": "bytes"
            }
          ],
          "internalType": "struct IWorkerHub.Assignment[]",
          "name": "",
          "type": "tuple[]"
        }
      ],
      "stateMutability": "view",
      "type": "function"
    },
    {
      "inputs": [
        {
          "internalType": "address",
          "name": "_minerAddr",
          "type": "address"
        }
      ],
      "name": "getAssignmentByMiner",
      "outputs": [
        {
          "components": [
            {
              "internalType": "uint256",
              "name": "assignmentId",
              "type": "uint256"
            },
            {
              "internalType": "uint256",
              "name": "inferenceId",
              "type": "uint256"
            },
            {
              "internalType": "uint256",
              "name": "value",
              "type": "uint256"
            },
            {
              "internalType": "bytes",
              "name": "input",
              "type": "bytes"
            },
            {
              "internalType": "address",
              "name": "modelAddress",
              "type": "address"
            },
            {
              "internalType": "address",
              "name": "creator",
              "type": "address"
            },
            {
              "internalType": "uint40",
              "name": "submitTimeout",
              "type": "uint40"
            },
            {
              "internalType": "uint40",
              "name": "commitTimeout",
              "type": "uint40"
            },
            {
              "internalType": "uint40",
              "name": "revealTimeout",
              "type": "uint40"
            }
          ],
          "internalType": "struct IWorkerHub.AssignmentInfo[]",
          "name": "",
          "type": "tuple[]"
        }
      ],
      "stateMutability": "view",
      "type": "function"
    },
    {
      "inputs": [
        {
          "internalType": "uint256",
          "name": "_inferenceId",
          "type": "uint256"
        }
      ],
      "name": "getInferenceInfo",
      "outputs": [
        {
          "components": [
            {
              "internalType": "uint256[]",
              "name": "assignments",
              "type": "uint256[]"
            },
            {
              "internalType": "bytes",
              "name": "input",
              "type": "bytes"
            },
            {
              "internalType": "uint256",
              "name": "value",
              "type": "uint256"
            },
            {
              "internalType": "uint256",
              "name": "feeL2",
              "type": "uint256"
            },
            {
              "internalType": "uint256",
              "name": "feeTreasury",
              "type": "uint256"
            },
            {
              "internalType": "address",
              "name": "modelAddress",
              "type": "address"
            },
            {
              "internalType": "uint40",
              "name": "submitTimeout",
              "type": "uint40"
            },
            {
              "internalType": "uint40",
              "name": "commitTimeout",
              "type": "uint40"
            },
            {
              "internalType": "uint40",
              "name": "revealTimeout",
              "type": "uint40"
            },
            {
              "internalType": "enum IWorkerHub.InferenceStatus",
              "name": "status",
              "type": "uint8"
            },
            {
              "internalType": "address",
              "name": "creator",
              "type": "address"
            },
            {
              "internalType": "address",
              "name": "processedMiner",
              "type": "address"
            },
            {
              "internalType": "address",
              "name": "referrer",
              "type": "address"
            }
          ],
          "internalType": "struct IWorkerHub.Inference",
          "name": "",
          "type": "tuple"
        }
      ],
      "stateMutability": "view",
      "type": "function"
    },
    {
      "inputs": [
        {
          "internalType": "address",
          "name": "_modelAddress",
          "type": "address"
        }
      ],
      "name": "getMinFeeToUse",
      "outputs": [
        {
          "internalType": "uint256",
          "name": "",
          "type": "uint256"
        }
      ],
      "stateMutability": "view",
      "type": "function"
    },
    {
      "inputs": [],
      "name": "getMinerAddresses",
      "outputs": [
        {
          "internalType": "address[]",
          "name": "",
          "type": "address[]"
        }
      ],
      "stateMutability": "view",
      "type": "function"
    },
    {
      "inputs": [
        {
          "internalType": "address",
          "name": "_model",
          "type": "address"
        }
      ],
      "name": "getMinerAddressesOfModel",
      "outputs": [
        {
          "internalType": "address[]",
          "name": "",
          "type": "address[]"
        }
      ],
      "stateMutability": "view",
      "type": "function"
    },
    {
      "inputs": [],
      "name": "getMiners",
      "outputs": [
        {
          "components": [
            {
              "internalType": "address",
              "name": "workerAddress",
              "type": "address"
            },
            {
              "internalType": "uint256",
              "name": "stake",
              "type": "uint256"
            },
            {
              "internalType": "uint256",
              "name": "commitment",
              "type": "uint256"
            },
            {
              "internalType": "address",
              "name": "modelAddress",
              "type": "address"
            },
            {
              "internalType": "uint40",
              "name": "lastClaimedEpoch",
              "type": "uint40"
            },
            {
              "internalType": "uint40",
              "name": "activeTime",
              "type": "uint40"
            },
            {
              "internalType": "uint16",
              "name": "tier",
              "type": "uint16"
            }
          ],
          "internalType": "struct IWorkerHub.WorkerInfo[]",
          "name": "",
          "type": "tuple[]"
        }
      ],
      "stateMutability": "view",
      "type": "function"
    },
    {
      "inputs": [
        {
          "internalType": "uint256",
          "name": "_inferenceId",
          "type": "uint256"
        }
      ],
      "name": "getMintingAssignmentsOfInference",
      "outputs": [
        {
          "components": [
            {
              "internalType": "uint256",
              "name": "assignmentId",
              "type": "uint256"
            },
            {
              "internalType": "uint256",
              "name": "inferenceId",
              "type": "uint256"
            },
            {
              "internalType": "uint256",
              "name": "value",
              "type": "uint256"
            },
            {
              "internalType": "bytes",
              "name": "input",
              "type": "bytes"
            },
            {
              "internalType": "address",
              "name": "modelAddress",
              "type": "address"
            },
            {
              "internalType": "address",
              "name": "creator",
              "type": "address"
            },
            {
              "internalType": "uint40",
              "name": "submitTimeout",
              "type": "uint40"
            },
            {
              "internalType": "uint40",
              "name": "commitTimeout",
              "type": "uint40"
            },
            {
              "internalType": "uint40",
              "name": "revealTimeout",
              "type": "uint40"
            }
          ],
          "internalType": "struct IWorkerHub.AssignmentInfo[]",
          "name": "",
          "type": "tuple[]"
        }
      ],
      "stateMutability": "view",
      "type": "function"
    },
    {
      "inputs": [],
      "name": "getModelAddresses",
      "outputs": [
        {
          "internalType": "address[]",
          "name": "",
          "type": "address[]"
        }
      ],
      "stateMutability": "view",
      "type": "function"
    },
    {
      "inputs": [],
      "name": "getNOMiner",
      "outputs": [
        {
          "internalType": "uint256",
          "name": "",
          "type": "uint256"
        }
      ],
      "stateMutability": "view",
      "type": "function"
    },
    {
      "inputs": [
        {
          "internalType": "uint256",
          "name": "_assignmentId",
          "type": "uint256"
        }
      ],
      "name": "getRoleByAssigmentId",
      "outputs": [
        {
          "internalType": "enum IWorkerHub.AssignmentRole",
          "name": "",
          "type": "uint8"
        }
      ],
      "stateMutability": "view",
      "type": "function"
    },
    {
      "inputs": [
        {
          "internalType": "uint256",
          "name": "wEAIAmt",
          "type": "uint256"
        }
      ],
      "name": "increaseMinerStake",
      "outputs": [],
      "stateMutability": "nonpayable",
      "type": "function"
    },
    {
      "inputs": [
        {
          "internalType": "bytes",
          "name": "_input",
          "type": "bytes"
        },
        {
          "internalType": "address",
          "name": "_creator",
          "type": "address"
        }
      ],
      "name": "infer",
      "outputs": [
        {
          "internalType": "uint256",
          "name": "",
          "type": "uint256"
        }
      ],
      "stateMutability": "payable",
      "type": "function"
    },
    {
      "inputs": [
        {
          "internalType": "uint256",
          "name": "originInferId",
          "type": "uint256"
        },
        {
          "internalType": "bytes",
          "name": "_input",
          "type": "bytes"
        },
        {
          "internalType": "address",
          "name": "_creator",
          "type": "address"
        },
        {
          "internalType": "address",
          "name": "callback",
          "type": "address"
        }
      ],
      "name": "inferWithCallback",
      "outputs": [
        {
          "internalType": "uint256",
          "name": "inferenceId",
          "type": "uint256"
        }
      ],
      "stateMutability": "payable",
      "type": "function"
    },
    {
      "inputs": [],
      "name": "inferenceNumber",
      "outputs": [
        {
          "internalType": "uint256",
          "name": "",
          "type": "uint256"
        }
      ],
      "stateMutability": "view",
      "type": "function"
    },
    {
      "inputs": [
        {
          "internalType": "address",
          "name": "_l2Owner",
          "type": "address"
        },
        {
          "internalType": "address",
          "name": "_treasury",
          "type": "address"
        },
        {
          "internalType": "address",
          "name": "_daoToken",
          "type": "address"
        },
        {
          "internalType": "uint16",
          "name": "_feeL2Percentage",
          "type": "uint16"
        },
        {
          "internalType": "uint16",
          "name": "_feeTreasuryPercentage",
          "type": "uint16"
        },
        {
          "internalType": "uint256",
          "name": "_minerMinimumStake",
          "type": "uint256"
        },
        {
          "internalType": "uint8",
          "name": "_minerRequirement",
          "type": "uint8"
        },
        {
          "internalType": "uint256",
          "name": "_blocksPerEpoch",
          "type": "uint256"
        },
        {
          "internalType": "uint256",
          "name": "_rewardPerEpoch",
          "type": "uint256"
        },
        {
          "internalType": "uint256",
          "name": "_duration",
          "type": "uint256"
        },
        {
          "internalType": "uint16",
          "name": "_finePercentage",
          "type": "uint16"
        },
        {
          "internalType": "uint16",
          "name": "_feeRatioMinerValidor",
          "type": "uint16"
        },
        {
          "internalType": "uint256",
          "name": "_minFeeToUse",
          "type": "uint256"
        },
        {
          "internalType": "uint256",
          "name": "_daoTokenReward",
          "type": "uint256"
        },
        {
          "components": [
            {
              "internalType": "uint16",
              "name": "minerPercentage",
              "type": "uint16"
            },
            {
              "internalType": "uint16",
              "name": "userPercentage",
              "type": "uint16"
            },
            {
              "internalType": "uint16",
              "name": "referrerPercentage",
              "type": "uint16"
            },
            {
              "internalType": "uint16",
              "name": "refereePercentage",
              "type": "uint16"
            },
            {
              "internalType": "uint16",
              "name": "l2OwnerPercentage",
              "type": "uint16"
            }
          ],
          "internalType": "struct IWorkerHub.DAOTokenPercentage",
          "name": "_daoTokenPercentage",
          "type": "tuple"
        }
      ],
      "name": "initialize",
      "outputs": [],
      "stateMutability": "nonpayable",
      "type": "function"
    },
    {
      "inputs": [
        {
          "internalType": "uint256",
          "name": "_assignmentId",
          "type": "uint256"
        }
      ],
      "name": "isAssignmentPending",
      "outputs": [
        {
          "internalType": "bool",
          "name": "",
          "type": "bool"
        }
      ],
      "stateMutability": "view",
      "type": "function"
    },
    {
      "inputs": [
        {
          "internalType": "address",
          "name": "",
          "type": "address"
        }
      ],
      "name": "isReferrer",
      "outputs": [
        {
          "internalType": "bool",
          "name": "",
          "type": "bool"
        }
      ],
      "stateMutability": "view",
      "type": "function"
    },
    {
      "inputs": [],
      "name": "joinForMinting",
      "outputs": [],
      "stateMutability": "nonpayable",
      "type": "function"
    },
    {
      "inputs": [],
      "name": "l2Owner",
      "outputs": [
        {
          "internalType": "address",
          "name": "",
          "type": "address"
        }
      ],
      "stateMutability": "view",
      "type": "function"
    },
    {
      "inputs": [],
      "name": "lastBlock",
      "outputs": [
        {
          "internalType": "uint256",
          "name": "",
          "type": "uint256"
        }
      ],
      "stateMutability": "view",
      "type": "function"
    },
    {
      "inputs": [],
      "name": "maximumTier",
      "outputs": [
        {
          "internalType": "uint16",
          "name": "",
          "type": "uint16"
        }
      ],
      "stateMutability": "view",
      "type": "function"
    },
    {
      "inputs": [],
      "name": "minFeeToUse",
      "outputs": [
        {
          "internalType": "uint256",
          "name": "",
          "type": "uint256"
        }
      ],
      "stateMutability": "view",
      "type": "function"
    },
    {
      "inputs": [],
      "name": "minerMinimumStake",
      "outputs": [
        {
          "internalType": "uint256",
          "name": "",
          "type": "uint256"
        }
      ],
      "stateMutability": "view",
      "type": "function"
    },
    {
      "inputs": [],
      "name": "minerRequirement",
      "outputs": [
        {
          "internalType": "uint8",
          "name": "",
          "type": "uint8"
        }
      ],
      "stateMutability": "view",
      "type": "function"
    },
    {
      "inputs": [
        {
          "internalType": "address",
          "name": "",
          "type": "address"
        }
      ],
      "name": "minerUnstakeRequests",
      "outputs": [
        {
          "internalType": "uint256",
          "name": "stake",
          "type": "uint256"
        },
        {
          "internalType": "uint40",
          "name": "unlockAt",
          "type": "uint40"
        }
      ],
      "stateMutability": "view",
      "type": "function"
    },
    {
      "inputs": [
        {
          "internalType": "address",
          "name": "",
          "type": "address"
        }
      ],
      "name": "miners",
      "outputs": [
        {
          "internalType": "uint256",
          "name": "stake",
          "type": "uint256"
        },
        {
          "internalType": "uint256",
          "name": "commitment",
          "type": "uint256"
        },
        {
          "internalType": "address",
          "name": "modelAddress",
          "type": "address"
        },
        {
          "internalType": "uint40",
          "name": "lastClaimedEpoch",
          "type": "uint40"
        },
        {
          "internalType": "uint40",
          "name": "activeTime",
          "type": "uint40"
        },
        {
          "internalType": "uint16",
          "name": "tier",
          "type": "uint16"
        }
      ],
      "stateMutability": "view",
      "type": "function"
    },
    {
      "inputs": [],
      "name": "modelScoring",
      "outputs": [
        {
          "internalType": "address",
          "name": "",
          "type": "address"
        }
      ],
      "stateMutability": "view",
      "type": "function"
    },
    {
      "inputs": [
        {
          "internalType": "address",
          "name": "",
          "type": "address"
        }
      ],
      "name": "models",
      "outputs": [
        {
          "internalType": "uint256",
          "name": "minimumFee",
          "type": "uint256"
        },
        {
          "internalType": "uint32",
          "name": "tier",
          "type": "uint32"
        }
      ],
      "stateMutability": "view",
      "type": "function"
    },
    {
      "inputs": [
        {
          "internalType": "address",
          "name": "_miner",
          "type": "address"
        }
      ],
      "name": "multiplier",
      "outputs": [
        {
          "internalType": "uint256",
          "name": "",
          "type": "uint256"
        }
      ],
      "stateMutability": "view",
      "type": "function"
    },
    {
      "inputs": [],
      "name": "owner",
      "outputs": [
        {
          "internalType": "address",
          "name": "",
          "type": "address"
        }
      ],
      "stateMutability": "view",
      "type": "function"
    },
    {
      "inputs": [],
      "name": "pause",
      "outputs": [],
      "stateMutability": "nonpayable",
      "type": "function"
    },
    {
      "inputs": [],
      "name": "paused",
      "outputs": [
        {
          "internalType": "bool",
          "name": "",
          "type": "bool"
        }
      ],
      "stateMutability": "view",
      "type": "function"
    },
    {
      "inputs": [],
      "name": "penaltyDuration",
      "outputs": [
        {
          "internalType": "uint40",
          "name": "",
          "type": "uint40"
        }
      ],
      "stateMutability": "view",
      "type": "function"
    },
    {
      "inputs": [
        {
          "internalType": "uint16",
          "name": "tier",
          "type": "uint16"
        },
        {
          "internalType": "uint256",
          "name": "wEAIAmt",
          "type": "uint256"
        }
      ],
      "name": "registerMiner",
      "outputs": [],
      "stateMutability": "nonpayable",
      "type": "function"
    },
    {
      "inputs": [
        {
          "internalType": "address",
          "name": "_model",
          "type": "address"
        },
        {
          "internalType": "uint16",
          "name": "_tier",
          "type": "uint16"
        },
        {
          "internalType": "uint256",
          "name": "_minimumFee",
          "type": "uint256"
        }
      ],
      "name": "registerModel",
      "outputs": [],
      "stateMutability": "nonpayable",
      "type": "function"
    },
    {
      "inputs": [
        {
          "internalType": "address",
          "name": "_referrer",
          "type": "address"
        }
      ],
      "name": "registerReferrer",
      "outputs": [],
      "stateMutability": "nonpayable",
      "type": "function"
    },
    {
      "inputs": [
        {
          "internalType": "address[]",
          "name": "_referrers",
          "type": "address[]"
        },
        {
          "internalType": "address[]",
          "name": "_referees",
          "type": "address[]"
        }
      ],
      "name": "registerReferrer",
      "outputs": [],
      "stateMutability": "nonpayable",
      "type": "function"
    },
    {
      "inputs": [],
      "name": "renounceOwnership",
      "outputs": [],
      "stateMutability": "nonpayable",
      "type": "function"
    },
    {
      "inputs": [
        {
          "internalType": "uint256",
          "name": "_inferenceId",
          "type": "uint256"
        }
      ],
      "name": "resolveInference",
      "outputs": [],
      "stateMutability": "nonpayable",
      "type": "function"
    },
    {
      "inputs": [
        {
          "internalType": "uint16",
          "name": "tier",
          "type": "uint16"
        }
      ],
      "name": "restakeForMiner",
      "outputs": [],
      "stateMutability": "nonpayable",
      "type": "function"
    },
    {
      "inputs": [
        {
          "internalType": "bytes",
          "name": "result",
          "type": "bytes"
        }
      ],
      "name": "resultReceived",
      "outputs": [],
      "stateMutability": "nonpayable",
      "type": "function"
    },
    {
      "inputs": [
        {
          "internalType": "uint256",
          "name": "_originInferId",
          "type": "uint256"
        },
        {
          "internalType": "bytes",
          "name": "_result",
          "type": "bytes"
        }
      ],
      "name": "resultReceived",
      "outputs": [],
      "stateMutability": "nonpayable",
      "type": "function"
    },
    {
      "inputs": [
        {
          "internalType": "uint256",
          "name": "_assignId",
          "type": "uint256"
        },
        {
          "internalType": "uint40",
          "name": "_nonce",
          "type": "uint40"
        },
        {
          "internalType": "bytes",
          "name": "_data",
          "type": "bytes"
        }
      ],
      "name": "reveal",
      "outputs": [],
      "stateMutability": "nonpayable",
      "type": "function"
    },
    {
      "inputs": [],
      "name": "revealDuration",
      "outputs": [
        {
          "internalType": "uint40",
          "name": "",
          "type": "uint40"
        }
      ],
      "stateMutability": "view",
      "type": "function"
    },
    {
      "inputs": [
        {
          "internalType": "uint256",
          "name": "",
          "type": "uint256"
        }
      ],
      "name": "rewardInEpoch",
      "outputs": [
        {
          "internalType": "uint256",
          "name": "perfReward",
          "type": "uint256"
        },
        {
          "internalType": "uint256",
          "name": "epochReward",
          "type": "uint256"
        },
        {
          "internalType": "uint256",
          "name": "totalTaskCompleted",
          "type": "uint256"
        },
        {
          "internalType": "uint256",
          "name": "totalMiner",
          "type": "uint256"
        }
      ],
      "stateMutability": "view",
      "type": "function"
    },
    {
      "inputs": [],
      "name": "rewardPerEpoch",
      "outputs": [
        {
          "internalType": "uint256",
          "name": "",
          "type": "uint256"
        }
      ],
      "stateMutability": "view",
      "type": "function"
    },
    {
      "inputs": [
        {
          "internalType": "address",
          "name": "_miner",
          "type": "address"
        }
      ],
      "name": "rewardToClaim",
      "outputs": [
        {
          "internalType": "uint256",
          "name": "",
          "type": "uint256"
        }
      ],
      "stateMutability": "nonpayable",
      "type": "function"
    },
    {
      "inputs": [
        {
          "internalType": "uint256",
          "name": "_assignmentId",
          "type": "uint256"
        }
      ],
      "name": "seizeMinerRole",
      "outputs": [],
      "stateMutability": "nonpayable",
      "type": "function"
    },
    {
      "inputs": [
        {
          "internalType": "uint256",
          "name": "_blocks",
          "type": "uint256"
        }
      ],
      "name": "setBlocksPerEpoch",
      "outputs": [],
      "stateMutability": "nonpayable",
      "type": "function"
    },
    {
      "inputs": [
        {
          "internalType": "uint40",
          "name": "_newCommitDuration",
          "type": "uint40"
        }
      ],
      "name": "setCommitDuration",
      "outputs": [],
      "stateMutability": "nonpayable",
      "type": "function"
    },
    {
      "inputs": [
        {
          "internalType": "address",
          "name": "_daoTokenAddress",
          "type": "address"
        }
      ],
      "name": "setDAOToken",
      "outputs": [],
      "stateMutability": "nonpayable",
      "type": "function"
    },
    {
      "inputs": [
        {
          "components": [
            {
              "internalType": "uint16",
              "name": "minerPercentage",
              "type": "uint16"
            },
            {
              "internalType": "uint16",
              "name": "userPercentage",
              "type": "uint16"
            },
            {
              "internalType": "uint16",
              "name": "referrerPercentage",
              "type": "uint16"
            },
            {
              "internalType": "uint16",
              "name": "refereePercentage",
              "type": "uint16"
            },
            {
              "internalType": "uint16",
              "name": "l2OwnerPercentage",
              "type": "uint16"
            }
          ],
          "internalType": "struct IWorkerHub.DAOTokenPercentage",
          "name": "_daoTokenPercentage",
          "type": "tuple"
        }
      ],
      "name": "setDAOTokenPercentage",
      "outputs": [],
      "stateMutability": "nonpayable",
      "type": "function"
    },
    {
      "inputs": [
        {
          "internalType": "uint256",
          "name": "_newDAOTokenReward",
          "type": "uint256"
        }
      ],
      "name": "setDAOTokenReward",
      "outputs": [],
      "stateMutability": "nonpayable",
      "type": "function"
    },
    {
      "inputs": [
        {
          "internalType": "uint16",
          "name": "_newRatio",
          "type": "uint16"
        }
      ],
      "name": "setFeeRatioMinerValidator",
      "outputs": [],
      "stateMutability": "nonpayable",
      "type": "function"
    },
    {
      "inputs": [
        {
          "internalType": "uint16",
          "name": "_finePercentage",
          "type": "uint16"
        }
      ],
      "name": "setFinePercentage",
      "outputs": [],
      "stateMutability": "nonpayable",
      "type": "function"
    },
    {
      "inputs": [
        {
          "internalType": "address",
          "name": "_l2OwnerAddress",
          "type": "address"
        }
      ],
      "name": "setL2Owner",
      "outputs": [],
      "stateMutability": "nonpayable",
      "type": "function"
    },
    {
      "inputs": [
        {
          "internalType": "uint256",
          "name": "_minFeeToUse",
          "type": "uint256"
        }
      ],
      "name": "setMinFeeToUse",
      "outputs": [],
      "stateMutability": "nonpayable",
      "type": "function"
    },
    {
      "inputs": [
        {
          "internalType": "uint256",
          "name": "_minerMinimumStake",
          "type": "uint256"
        }
      ],
      "name": "setMinerMinimumStake",
      "outputs": [],
      "stateMutability": "nonpayable",
      "type": "function"
    },
    {
      "inputs": [
        {
          "internalType": "uint256",
          "name": "_newRewardAmount",
          "type": "uint256"
        }
      ],
      "name": "setNewRewardInEpoch",
      "outputs": [],
      "stateMutability": "nonpayable",
      "type": "function"
    },
    {
      "inputs": [
        {
          "internalType": "uint40",
          "name": "_penaltyDuration",
          "type": "uint40"
        }
      ],
      "name": "setPenaltyDuration",
      "outputs": [],
      "stateMutability": "nonpayable",
      "type": "function"
    },
    {
      "inputs": [
        {
          "internalType": "uint40",
          "name": "_newRevealDuration",
          "type": "uint40"
        }
      ],
      "name": "setRevealDuration",
      "outputs": [],
      "stateMutability": "nonpayable",
      "type": "function"
    },
    {
      "inputs": [
        {
          "internalType": "address",
          "name": "_workerHubScoring",
          "type": "address"
        },
        {
          "internalType": "address",
          "name": "_modelScoring",
          "type": "address"
        }
      ],
      "name": "setScoringInfo",
      "outputs": [],
      "stateMutability": "nonpayable",
      "type": "function"
    },
    {
      "inputs": [
        {
          "internalType": "uint40",
          "name": "_newSubmitDuration",
          "type": "uint40"
        }
      ],
      "name": "setSubmitDuration",
      "outputs": [],
      "stateMutability": "nonpayable",
      "type": "function"
    },
    {
      "inputs": [
        {
          "internalType": "address",
          "name": "_treasuryAddress",
          "type": "address"
        }
      ],
      "name": "setTreasuryAddress",
      "outputs": [],
      "stateMutability": "nonpayable",
      "type": "function"
    },
    {
      "inputs": [
        {
          "internalType": "uint40",
          "name": "_newUnstakeDelayTime",
          "type": "uint40"
        }
      ],
      "name": "setUnstakDelayTime",
      "outputs": [],
      "stateMutability": "nonpayable",
      "type": "function"
    },
    {
      "inputs": [
        {
          "internalType": "address",
          "name": "_miner",
          "type": "address"
        },
        {
          "internalType": "bool",
          "name": "_isFined",
          "type": "bool"
        }
      ],
      "name": "slashMiner",
      "outputs": [],
      "stateMutability": "nonpayable",
      "type": "function"
    },
    {
      "inputs": [
        {
          "internalType": "uint256",
          "name": "_assignmentId",
          "type": "uint256"
        },
        {
          "internalType": "bytes",
          "name": "_data",
          "type": "bytes"
        }
      ],
      "name": "streamData",
      "outputs": [],
      "stateMutability": "nonpayable",
      "type": "function"
    },
    {
      "inputs": [],
      "name": "submitDuration",
      "outputs": [
        {
          "internalType": "uint40",
          "name": "",
          "type": "uint40"
        }
      ],
      "stateMutability": "view",
      "type": "function"
    },
    {
      "inputs": [
        {
          "internalType": "uint256",
          "name": "_assigmentId",
          "type": "uint256"
        },
        {
          "internalType": "bytes",
          "name": "_data",
          "type": "bytes"
        }
      ],
      "name": "submitSolution",
      "outputs": [],
      "stateMutability": "nonpayable",
      "type": "function"
    },
    {
      "inputs": [
        {
          "internalType": "uint256",
          "name": "_inferenceId",
          "type": "uint256"
        }
      ],
      "name": "topUpInfer",
      "outputs": [],
      "stateMutability": "payable",
      "type": "function"
    },
    {
      "inputs": [
        {
          "internalType": "address",
          "name": "newOwner",
          "type": "address"
        }
      ],
      "name": "transferOwnership",
      "outputs": [],
      "stateMutability": "nonpayable",
      "type": "function"
    },
    {
      "inputs": [],
      "name": "treasury",
      "outputs": [
        {
          "internalType": "address",
          "name": "",
          "type": "address"
        }
      ],
      "stateMutability": "view",
      "type": "function"
    },
    {
      "inputs": [],
      "name": "unpause",
      "outputs": [],
      "stateMutability": "nonpayable",
      "type": "function"
    },
    {
      "inputs": [],
      "name": "unregisterMiner",
      "outputs": [],
      "stateMutability": "nonpayable",
      "type": "function"
    },
    {
      "inputs": [
        {
          "internalType": "address",
          "name": "_model",
          "type": "address"
        }
      ],
      "name": "unregisterModel",
      "outputs": [],
      "stateMutability": "nonpayable",
      "type": "function"
    },
    {
      "inputs": [],
      "name": "unstakeDelayTime",
      "outputs": [
        {
          "internalType": "uint40",
          "name": "",
          "type": "uint40"
        }
      ],
      "stateMutability": "view",
      "type": "function"
    },
    {
      "inputs": [],
      "name": "unstakeForMiner",
      "outputs": [],
      "stateMutability": "nonpayable",
      "type": "function"
    },
    {
      "inputs": [
        {
          "internalType": "address",
          "name": "_model",
          "type": "address"
        },
        {
          "internalType": "uint256",
          "name": "_minimumFee",
          "type": "uint256"
        }
      ],
      "name": "updateModelMinimumFee",
      "outputs": [],
      "stateMutability": "nonpayable",
      "type": "function"
    },
    {
      "inputs": [
        {
          "internalType": "address",
          "name": "_model",
          "type": "address"
        },
        {
          "internalType": "uint32",
          "name": "_tier",
          "type": "uint32"
        }
      ],
      "name": "updateModelTier",
      "outputs": [],
      "stateMutability": "nonpayable",
      "type": "function"
    },
    {
      "inputs": [
        {
          "internalType": "bool",
          "name": "_isReferred",
          "type": "bool"
        }
      ],
      "name": "validateDAOSupplyIncrease",
      "outputs": [
        {
          "internalType": "bool",
          "name": "notReachedLimit",
          "type": "bool"
        }
      ],
      "stateMutability": "view",
      "type": "function"
    },
    {
      "inputs": [],
      "name": "version",
      "outputs": [
        {
          "internalType": "string",
          "name": "",
          "type": "string"
        }
      ],
      "stateMutability": "pure",
      "type": "function"
    },
    {
      "inputs": [
        {
          "internalType": "uint256",
          "name": "inferId",
          "type": "uint256"
        }
      ],
      "name": "votingInfo",
      "outputs": [
        {
          "internalType": "uint8",
          "name": "totalCommit",
          "type": "uint8"
        },
        {
          "internalType": "uint8",
          "name": "totalReveal",
          "type": "uint8"
        }
      ],
      "stateMutability": "view",
      "type": "function"
    },
    {
      "inputs": [],
      "name": "wEAI",
      "outputs": [
        {
          "internalType": "address",
          "name": "",
          "type": "address"
        }
      ],
      "stateMutability": "view",
      "type": "function"
    },
    {
      "inputs": [],
      "name": "workerHubScoring",
      "outputs": [
        {
          "internalType": "address",
          "name": "",
          "type": "address"
        }
      ],
      "stateMutability": "view",
      "type": "function"
    },
    {
      "stateMutability": "payable",
      "type": "receive"
    }
  ],
  "bytecode": "0x60808060405234620000185761b2f990816200001e8239f35b600080fdfe6080604052600436101561001b575b361561001957600080fd5b005b60003560e01c8063020e301114618044578063034438b014617f9b5780630716187f14617f585780630738a9bb14617e7157806308c0590314617d3b5780630940c39214617cff57806309c83b4f14617cbc5780630d425ea514617c045780630dc7df5314617bb2578063121a301d14616fbf5780631633da6e14616d0957806316d0a88f14616c3d578063191a54d814616bc857806319a9dc7114616a995780631a8ef584146168725780631eb9a99a1461672d5780632a1a8ca8146166f15780632b4263011461669f5780633304f45614616663578063339d0f7814616459578063351b2b331461630a5780633860ce681461609d57806339d2e2961461605a5780633f4ba83a14615fbf578063431a445714615f1557806347253baa14615e6a5780634914b03014615e185780634b17bf3014615c0d5780634e50c75c14615b235780634fb9bc1e1461598757806350eac7c81461594457806354917f83146158d057806354b18651146157af57806354fd4d501461573357806357a38def146156a35780635937e5ed146155785780635aa1326c146155325780635c975abb146154f15780635eec7b20146153a75780636029e78614614e3e57806361d027b314614dec57806361d52cf714614d79578063648ec7b914614cd7578063652ff15914614c6b578063656a1b201461494b5780636605bfda14614868578063668133e3146146b2578063674a63b9146146715780636973d3f2146146355780636f643736146144db5780636f8338111461449857806370a52354146143b5578063715018a61461431757806373df250d1461420e57806374172795146141ce578063766718081461418857806376e7ffae14614149578063806b984f1461410d57806384449a9d146140d15780638456cb5914614033578063885b050f14613f6d578063886a6de114613f275780638da5cb5b14613ed55780639280f07814613c81578063969ceab414613c095780639ae49cd314613b495780639ea7685a14613b00578063a8d6d3d1146138d9578063a9b3f8b714613890578063af5e3be014613817578063afa826091461371e578063afc1fce7146136b9578063b1d1a56b146135fb578063b530c11014613518578063b74cd1941461343e578063b8cfec3d146133c5578063c34770181461336f578063c41bf66514613241578063ca0c80fc146131e5578063cc56b6f81461319f578063d279c1911461303f578063d2a554e714612b21578063d2d89be814612ae5578063d64d696814612a7b578063d7acb1ea14612a2b578063d984445814612267578063db2dab1d1461201e578063dd9b976614611fdc578063e2f32c8214611767578063e32bd90c146116ee578063e4fefd65146116a8578063e5309a6614611652578063e69d5b9814611613578063e84dee6b14611022578063e8d6f2f114610fd0578063e9bd0e2614610ebc578063f003a0c514610e6a578063f068205414610e2e578063f1ea45e314610c14578063f2f03877146108b3578063f2fde38b146107cb578063f80dca981461078f578063fe0503c01461073d578063ff5db406146106d05763ffbc66610361000e57346106cb576020807ffffffffffffffffffffffffffffffffffffffffffffffffffffffffffffffffc3601126106cb57600435906104df6190df565b81600052600c815273ffffffffffffffffffffffffffffffffffffffff908160036040600020015460281c1633036106475782600052600c81526040600020549182600052600a8252600760406000200154166105e957600a9083600052600c815260036040600020017902000000000000000000000000000000000000000000000000007fffffffffffff00ffffffffffffffffffffffffffffffffffffffffffffffffff82541617905582600052526007604060002001337fffffffffffffffffffffffff000000000000000000000000000000000000000082541617905533917f3d4f35957f03b76084f29d7c66d573fcec3d2e4bbc2844549e44bc1aed4c6c24600080a4005b606490604051907f08c379a00000000000000000000000000000000000000000000000000000000082526004820152601e60248201527f5468697320696e666572656e636520686173206265656e207365697a656400006044820152fd5b608490604051907f08c379a00000000000000000000000000000000000000000000000000000000082526004820152602760248201527f4f6e6c792061737369676e656420776f726b65722063616e207365697a65207460448201527f686520726f6c65000000000000000000000000000000000000000000000000006064820152fd5b600080fd5b346106cb5760007ffffffffffffffffffffffffffffffffffffffffffffffffffffffffffffffffc3601126106cb5760a06020546040519061ffff908181168352818160101c166020840152818160201c166040840152818160301c16606084015260401c166080820152f35b346106cb5760007ffffffffffffffffffffffffffffffffffffffffffffffffffffffffffffffffc3601126106cb57602073ffffffffffffffffffffffffffffffffffffffff60245416604051908152f35b346106cb5760007ffffffffffffffffffffffffffffffffffffffffffffffffffffffffffffffffc3601126106cb576020600954604051908152f35b346106cb5760207ffffffffffffffffffffffffffffffffffffffffffffffffffffffffffffffffc3601126106cb576108026182e7565b61080a6189a6565b73ffffffffffffffffffffffffffffffffffffffff81161561082f5761001990618a25565b60846040517f08c379a000000000000000000000000000000000000000000000000000000000815260206004820152602660248201527f4f776e61626c653a206e6577206f776e657220697320746865207a65726f206160448201527f64647265737300000000000000000000000000000000000000000000000000006064820152fd5b346106cb5760407ffffffffffffffffffffffffffffffffffffffffffffffffffffffffffffffffc3601126106cb576024356004356108f0618b98565b6108f86190df565b8115610bea57806000526020600c815260406000209182549384600052600a8352604060002064ffffffffff80600583015460c81c1690431611610bc057600681019460ff865460281c166007811015610b9157600203610b6757600381015473ffffffffffffffffffffffffffffffffffffffff8160281c163303610b3d5760ff60019160c81c1661098a8161852b565b03610b13576001018054610ae9576109a59183859255619272565b84600052600d8352604060002080547fffffffffffffffffffffffffffffffffffffffffffffffffffffffffffffff0060ff6109e28184166192d2565b1691161790556040519081527f47a3511bbb68bfcf0b476106b3a5a5d5b8d7eb4205a28d6424a40fb19d9afa5b833392a382600052600d815260ff6040600020541660118252604060002054907fffffffffffffffffffffffffffffffffffffffffffffffffffffffffffffffff8201918211610aba5714610a6057005b81650300000000007fffffffffffffffffffffffffffffffffffffffffffffffffffff00ffffffffff7fbc645ece538d7606c8ac26de30aef5fbd0ed2ee0c945f4e5d860da3e62781d5094541617905560405160038152a2005b7f4e487b7100000000000000000000000000000000000000000000000000000000600052601160045260246000fd5b60046040517fbfec5558000000000000000000000000000000000000000000000000000000008152fd5b60046040517fd954416a000000000000000000000000000000000000000000000000000000008152fd5b60046040517f82b42900000000000000000000000000000000000000000000000000000000008152fd5b60046040517fef084b59000000000000000000000000000000000000000000000000000000008152fd5b7f4e487b7100000000000000000000000000000000000000000000000000000000600052602160045260246000fd5b60046040517f88ac04e3000000000000000000000000000000000000000000000000000000008152fd5b60046040517fc06789fa000000000000000000000000000000000000000000000000000000008152fd5b346106cb57610c22366184f7565b610c2b816188c1565b91610c39604051938461826c565b8183527fffffffffffffffffffffffffffffffffffffffffffffffffffffffffffffffe0610c66836188c1565b0160005b818110610e1757505060005b828110610cfa576040805160208082528651818301819052600093600582901b8401810192808a01929185015b828710610cb05785850386f35b909192938280610cea837fffffffffffffffffffffffffffffffffffffffffffffffffffffffffffffffc08a6001960301865288516183bb565b9601920196019592919092610ca3565b610d048183618fd0565b600052602090600a825260406000209160405190610d2182618175565b610d2a84618cf2565b825260405190610d4882610d4181600189016186e2565b038361826c565b82015260028301546040820152600383015460608201526004830154608082015260058301549273ffffffffffffffffffffffffffffffffffffffff9060a0828616818501528564ffffffffff809781931c1660c086015260c81c1660e0840152600681015494851661010084015260ff8560281c169060079586831015610b9157610e129684809260089561012089015260301c1661014087015282015416610160850152015416610180820152610e018287618e1b565b52610e0c8186618e1b565b50618dee565b610c76565b602090610e2261ab56565b82828801015201610c6a565b346106cb5760007ffffffffffffffffffffffffffffffffffffffffffffffffffffffffffffffffc3601126106cb576020601754604051908152f35b346106cb5760007ffffffffffffffffffffffffffffffffffffffffffffffffffffffffffffffffc3601126106cb57602073ffffffffffffffffffffffffffffffffffffffff60145416604051908152f35b60207ffffffffffffffffffffffffffffffffffffffffffffffffffffffffffffffffc3601126106cb57600435610ef1618b98565b3415610fa65780600052600a60205260406000209060068201549160ff8360281c166007811015610b9157600103610f7c57602073ffffffffffffffffffffffffffffffffffffffff60027fe3154336ce264fe53bcfaedafded1428a28ae47b19b3d7a82e5d5ecde0960a57930194610f6b348754618fd0565b80965560405195865260301c1693a3005b60046040517fe4587a64000000000000000000000000000000000000000000000000000000008152fd5b60046040517f7c946ed7000000000000000000000000000000000000000000000000000000008152fd5b346106cb5760007ffffffffffffffffffffffffffffffffffffffffffffffffffffffffffffffffc3601126106cb5761101e61100a618c6d565b604051918291602083526020830190618645565b0390f35b346106cb5761103036618954565b611038618b98565b6110406190df565b80156115e95733600090815260076020526040902054156115bf5733600052600260209181835273ffffffffffffffffffffffffffffffffffffffff93848360406000200154166000526003845260019182604060002001336000528552604060002054156115bf5786600052600c8552604060002095604051906110c4826181ca565b875482528488015487830152858801546040830152600460038901548264ffffffffff948583166060820152611143608082019c8d848660281c16905260ff808660c81c169560a08501966111188161852b565b875260d01c166111278161852b565b60c084015261113c60405180978193016186e2565b038561826c565b60e08101938452519a51163303610b3d578790516111608161852b565b6111698161852b565b03610b135751516115955787600052600a875260406000206040519061118e82618175565b61119781618cf2565b82526040516111b3816111ac818b86016186e2565b038261826c565b89830152878101546040830152600381015460608301526004810154608083015283600582015484811660a0850152818160a01c1660c085015260c81c1660e0830152600681015493841661010083015260ff8460281c16926007841015610b9157600861018092828a978761012088015260301c166101408601528260078201541661016086015201541691015203610b675785600052600a855260406000209087600052600c865260046040600020019067ffffffffffffffff8111611566578893826112838a945461868f565b601f8111611508575b506000601f84116001146114335760407fbc645ece538d7606c8ac26de30aef5fbd0ed2ee0c945f4e5d860da3e62781d509a9998979593859361137c989661132c94600091611428575b50858b1b907fffffffffffffffffffffffffffffffffffffffffffffffffffffffffffffffff8760031b1c19161790555b8382519485928d8401978852848401378101600083820152038a81018452018261826c565b519020809483600052600c885260406000208288820155015560068101650200000000007fffffffffffffffffffffffffffffffffffffffffffffffffffff00ffffffffff825416179055619272565b6000858152600e845260408082208383526001016020529020541561140d575b600052600f8252604060002080547fffffffffffffffffffffffffffffffffffffffffffffffffffffffffffffff0060ff6113d88184166192d2565b169116179055604051908152a2337f9f669b92b9cbc7611f7ab6c77db07a424051c777433e21bd90f1bdf940096dd9600080a3005b84600052600e835261142381604060002061afc1565b61139c565b9050820135386112d6565b7fffffffffffffffffffffffffffffffffffffffffffffffffffffffffffffffe0841690826000528a6000209160005b8181106114ed575093859361132c9360409361137c9a987fbc645ece538d7606c8ac26de30aef5fbd0ed2ee0c945f4e5d860da3e62781d509f9e9d9c9a98106114b5575b50508985811b019055611307565b7fffffffffffffffffffffffffffffffffffffffffffffffffffffffffffffffff60f88860031b161c19908401351690558f806114a7565b8286013584558e99508d9750928a0192918c01918c01611463565b919350809294955060005287600020601f850160051c81019189861061155c575b91878c97969492601f8d97950160051c01915b82811061154a57505061128c565b600081558d98508c965089910161153c565b9091508190611529565b7f4e487b7100000000000000000000000000000000000000000000000000000000600052604160045260246000fd5b60046040517f9fbfc589000000000000000000000000000000000000000000000000000000008152fd5b60046040517fa7c1cb49000000000000000000000000000000000000000000000000000000008152fd5b60046040517f5cb045db000000000000000000000000000000000000000000000000000000008152fd5b346106cb5760207ffffffffffffffffffffffffffffffffffffffffffffffffffffffffffffffffc3601126106cb5761164a6189a6565b600435601355005b346106cb5760207ffffffffffffffffffffffffffffffffffffffffffffffffffffffffffffffffc3601126106cb57600435600052600d6020526040806000205460ff825191818116835260081c166020820152f35b346106cb5760007ffffffffffffffffffffffffffffffffffffffffffffffffffffffffffffffffc3601126106cb57602064ffffffffff60165460781c16604051908152f35b346106cb5760207ffffffffffffffffffffffffffffffffffffffffffffffffffffffffffffffffc3601126106cb576004356117286189a6565b6117306190df565b7f3d731857045dfa7982ed8ff308eeda54c7e156ba99609db02c50b4485f64c46360406019548151908152836020820152a1601955005b346106cb576102607ffffffffffffffffffffffffffffffffffffffffffffffffffffffffffffffffc3601126106cb5761179f6182e7565b6117a761830a565b6117af61832d565b61ffff60643516606435036106cb5761ffff60843516608435036106cb5760ff60c4351660c435036106cb57610144359061ffff821682036106cb5761ffff610164351661016435036106cb5760a07ffffffffffffffffffffffffffffffffffffffffffffffffffffffffffffffe3c3601126106cb576040519261183384618250565b6101c43561ffff811681036106cb5784526101e43561ffff811681036106cb57602085015261ffff610204351661020435036106cb576102043560408501526102243561ffff811681036106cb5760608501526102443561ffff811681036106cb57608085015260855460ff8160081c161595868097611fcf575b8015611fb8575b15611f345761195473ffffffffffffffffffffffffffffffffffffffff927fffffffffffffffffffffffffffffffffffffffffffffffffffffffffffffff009089600183831617608555611f05575b5061191f60ff60855460081c1661191a81618af7565b618af7565b61192833618a25565b60ff60855460081c169061193b82618af7565b61194482618af7565b60ea541660ea5561191a81618af7565b600161011c55818116151580611efa575b80611eef575b61197490618a92565b167fffffffffffffffffffffffff0000000000000000000000000000000000000000601454161760145573ffffffffffffffffffffffffffffffffffffffff60155492167fffffffffffffffffffffffff0000000000000000000000000000000000000000601e541617601e5560a43560135561ffff6016549360e4356017556101043560195543601855167fffffffffffffffffffffffffffffffffffffffffffffffffffffffffffff0000601a541617601a55610184356022556101a435601f556101243591790100000000000000000000000000000000000000000000000000831015611e91577fff0000000000000000000000000000000000000000000000000000000000000073ffffffffffffffffffffffffffffffffffffffff7effffffffff00000000000000000000000000000000000000000000000000008560301b16931691161775ffff000000000000000000000000000000000000000060643560a01b161777ffff0000000000000000000000000000000000000000000060843560b01b161779ffff0000000000000000000000000000000000000000000000006101643560c01b1617176015556effffffffff0000000000000000000073ffffffffff0000000000000000000000000000008260781b16927fffffffffffffffffffffffff0000000000000000000000000000000000000000750100000000000000000000000000000000000000000064ffffffffff8560781c16927fffffffffffffffffff000000ffffffffffffffffffffffffffffffffffffffff74ff000000000000000000000000000000000000000060c43560a01b1691161717161769ffffffffff00000000008360281c16179160281b161717601655611bfc6189a6565b61271061ffff611c46611c39611c2c611c1f848751168560208901511690618b82565b8460408801511690618b82565b8360608701511690618b82565b8260808601511690618b82565b1603611e33577fe217c132ca1c9e392a91d1b2eaeb42b77b8ff74a61c75974d05ffbbe6e00a16a61014060405161ffff6020548181168352818160101c166020840152818160201c166040840152818160301c16606084015260401c16608082015261ffff84511660a082015261ffff60208501511660c082015261ffff60408501511660e082015261ffff60608501511661010082015261ffff608085015116610120820152a1611d2661ffff82511661ffff167fffffffffffffffffffffffffffffffffffffffffffffffffffffffffffff00006020541617602055565b60208101519060205465ffff00000000604083015160201b16907fffffffffffffffffffffffffffffffffffffffffffff0000000000000000ffff63ffff000069ffff0000000000000000608067ffff000000000000606088015160301b1696015160401b169560101b16911617171717602055739e59ecbdd42d40fa9d5a45d3f4e6c505cd39a6537fffffffffffffffffffffffff00000000000000000000000000000000000000006026541617602655611dde57005b7fffffffffffffffffffffffffffffffffffffffffffffffffffffffffffff00ff608554166085557f7f26b83ff96e1f2b6a682f133852f6798a09c465da95921460cefb3847402498602060405160018152a1005b60646040517f08c379a000000000000000000000000000000000000000000000000000000000815260206004820152601c60248201527f496e76616c69642044414f20546f6b656e2050657263656e74616765000000006044820152fd5b60646040517f08c379a000000000000000000000000000000000000000000000000000000000815260206004820152601260248201527f4475726174696f6e20746f6f206c6172676500000000000000000000000000006044820152fd5b50838216151561196b565b508183161515611965565b7fffffffffffffffffffffffffffffffffffffffffffffffffffffffffffff0000166101011760855589611904565b60846040517f08c379a000000000000000000000000000000000000000000000000000000000815260206004820152602e60248201527f496e697469616c697a61626c653a20636f6e747261637420697320616c72656160448201527f647920696e697469616c697a65640000000000000000000000000000000000006064820152fd5b50303b1580156118b55750600160ff8316146118b5565b50600160ff8316106118ae565b346106cb5760007ffffffffffffffffffffffffffffffffffffffffffffffffffffffffffffffffc3601126106cb57602060ff60165460a01c16604051908152f35b346106cb5760207ffffffffffffffffffffffffffffffffffffffffffffffffffffffffffffffffc3601126106cb576120556182e7565b61205d6189a6565b6120656190df565b73ffffffffffffffffffffffffffffffffffffffff809116908160005260016020526001604060002001805463ffffffff81161561223d577fffffffffffffffffffffffffffffffffffffffffffffffffffffffff00000000169055816000526005602052604060002054801561220c577fffffffffffffffffffffffffffffffffffffffffffffffffffffffffffffffff9161215561215061210b8560045401618e68565b91905491868601928561211d85618e68565b92909360031b1c169082549060031b9173ffffffffffffffffffffffffffffffffffffffff809116831b921b1916179055565b618e68565b90549060031b1c16600052600560205260406000205560045480156121dd57016121a361218182618e68565b73ffffffffffffffffffffffffffffffffffffffff82549160031b1b19169055565b600455806000526005602052600060408120557f68180f49300b9177ab3b88d3f909a002abeb9c2f769543a93234ca68333582d7600080a2005b7f4e487b7100000000000000000000000000000000000000000000000000000000600052603160045260246000fd5b602483604051907f28a32c190000000000000000000000000000000000000000000000000000000082526004820152fd5b60046040517faba47339000000000000000000000000000000000000000000000000000000008152fd5b60407ffffffffffffffffffffffffffffffffffffffffffffffffffffffffffffffffc3601126106cb5767ffffffffffffffff6004358181116106cb576122b29036906004016184c9565b6122ba61830a565b906122c3618b98565b336000526001602052604060002063ffffffff60018201541615610b3d575473ffffffffffffffffffffffffffffffffffffffff6023541690602073ffffffffffffffffffffffffffffffffffffffff602454166024604051809581937fafc1fce700000000000000000000000000000000000000000000000000000000835260048301525afa918215612a1f576000926129e9575b508161236491618fd0565b341061298b57612375600954618dee565b948560095585600052600a6020526123926040600020923461904d565b92601554956127106123bc61ffff826123b0828c60a01c168a61905a565b049960b01c168761905a565b04928211611566576123d1600185015461868f565b601f8111612944575b50600090601f8311600114612896576124499392916000918361288b575b50507fffffffffffffffffffffffffffffffffffffffffffffffffffffffffffffffff8260011b9260031b1c19161760018401555b61244460039680888601558260048601558561904d565b61904d565b60028201556006810173ffffffffffffffffffffffffffffffffffffffff8416937fffffffffffff0000000000000000000000000000000000000000ffffffffffff79ffffffffffffffffffffffffffffffffffffffff00000000000083549260301b169116179055826000526021602052600573ffffffffffffffffffffffffffffffffffffffff6040600020541691600881017fffffffffffffffffffffffff000000000000000000000000000000000000000093848254161790550190339082541617905560405190815260006020820152837f08a84d7fb7cd1557f228c827b9280f44d1a157c3256fe453b687a7b9d51c6a5b60403393a464ffffffffff8061255d8160155460d01c1643618fd0565b169173ffffffffffffffffffffffffffffffffffffffff6005612584846016541686619077565b9386600052600a60205261263785836040600020016125e88982907fffffffffffffff0000000000ffffffffffffffffffffffffffffffffffffffff78ffffffffff000000000000000000000000000000000000000083549260a01b169116179055565b907fffff0000000000ffffffffffffffffffffffffffffffffffffffffffffffffff7dffffffffff0000000000000000000000000000000000000000000000000083549260c81b169116179055565b61264b6016549582602897881c1690619077565b87600052600a602052650100000000006040600020926006840192167fffffffffffffffffffffffffffffffffffffffffffffffffffff000000000000835416171790550154169283600052816020526040600020549360ff60165460a01c1680951061286157600052816020526040600020926126c885619090565b9260005b868110612724575050505060005b8381106126ec57602085604051908152f35b8061271a73ffffffffffffffffffffffffffffffffffffffff61271261271f9486618e1b565b51168561aca0565b618dee565b6126da565b61285c9061274461273e61273661ac5e565b895490618e2f565b88618ed6565b905490841b1c8973ffffffffffffffffffffffffffffffffffffffff82169161276d838b61ae49565b600b9061277a8254618dee565b80925581600052600c60205279010000000000000000000000000000000000000000000000000087604060002085815501917fffffffffffff000000000000000000000000000000000000000000ffffffffff78ffffffffffffffffffffffffffffffffffffffff00000000008454928c1b16911617179055826127fe858b618e1b565b5282600052601060205261281681604060002061af5f565b81600052601160205261282d81604060002061af5f565b7f53cc8b652f33c56dac5f1c97a284cc971e7adcb8abe9454b0853f076c6deb7d560206040518a8152a4618dee565b6126cc565b60046040517f4069094a000000000000000000000000000000000000000000000000000000008152fd5b0135905089806123f8565b7fffffffffffffffffffffffffffffffffffffffffffffffffffffffffffffffe08316916001860160005260206000209260005b81811061292c5750916001939185612449979694106128f4575b505050811b01600184015561242d565b7fffffffffffffffffffffffffffffffffffffffffffffffffffffffffffffffff60f88560031b161c199101351690558980806128e4565b919360206001819287870135815501950192016128ca565b600185016000526020600020601f840160051c810160208510612984575b601f830160051c820181106129785750506123da565b60008155600101612962565b5080612962565b60646040517f08c379a000000000000000000000000000000000000000000000000000000000815260206004820152600b60248201527f46656520746f6f206c6f770000000000000000000000000000000000000000006044820152fd5b9091506020813d602011612a17575b81612a056020938361826c565b810103126106cb575190612364612359565b3d91506129f8565b6040513d6000823e3d90fd5b346106cb5760207ffffffffffffffffffffffffffffffffffffffffffffffffffffffffffffffffc3601126106cb5760043580151581036106cb57612a71602091619d0f565b6040519015158152f35b346106cb5760207ffffffffffffffffffffffffffffffffffffffffffffffffffffffffffffffffc3601126106cb5773ffffffffffffffffffffffffffffffffffffffff612ac76182e7565b16600052601d602052602060ff604060002054166040519015158152f35b346106cb5760007ffffffffffffffffffffffffffffffffffffffffffffffffffffffffffffffffc3601126106cb576020600654604051908152f35b346106cb57612b2f36618954565b73ffffffffffffffffffffffffffffffffffffffff9081602354163303612fbb5783600052602093600a8552604060002092600684019586549560ff90818860281c166007811015610b9157600403612f5d57600195868103612eff5715612ed0573560f81c8581101596908780612ec5575b15612e6757612bb8856008840154161515619d0f565b15612e095760009780612dfe575b612dcd575b50846000526025835260406000209687549081612c13575b8a547fffffffffffffffffffffffffffffffffffffffffffffffffffff00ffffffffff1665060000000000178b55005b604051939994979695948590612c2886618220565b60301c16845287840152612c4460029384604082015289619e65565b60005b81811115612d135750506005839101541696604051976080890194468a52878a015260408901526060916080838a0152875480955260a089019760005286600020966000945b868610612cd35750505050505050505090807f2faa16bd9d858bdbd007d15bb6ae06ff3f238c90433800dafb4c0f7e3f07a241920390a181808080808080808080612be3565b909192939495966003868a9b612d0288888e879f899054168552878101548a86015201541660408301906188b4565b019a01989796019493929190612c8d565b84601e9a949a989596979854169086612d2c828c618898565b50541689612d3a838d618898565b500154833b156106cb576040517f40c10f1900000000000000000000000000000000000000000000000000000000815273ffffffffffffffffffffffffffffffffffffffff9290921660048301526024820152916000908390604490829084905af1918215612a1f57612db192612dbe5750618dee565b9892989695949396612c47565b612dc79061823c565b8c610e0c565b612710919750612df5600a91612def61ffff875460101c1691601f549061905a565b9061905a565b04049589612bcb565b50600a811115612bc6565b606484604051907f08c379a00000000000000000000000000000000000000000000000000000000082526004820152601e60248201527f44414f20546f6b656e20737570706c79206c696d6974207265616368656400006044820152fd5b606484604051907f08c379a00000000000000000000000000000000000000000000000000000000082526004820152601f60248201527f526573756c74206d757374206265206265747765656e203120616e64203130006044820152fd5b50600a811115612ba2565b7f4e487b7100000000000000000000000000000000000000000000000000000000600052603260045260246000fd5b606484604051907f08c379a00000000000000000000000000000000000000000000000000000000082526004820152601560248201527f496e76616c696420726573756c74206c656e67746800000000000000000000006044820152fd5b606483604051907f08c379a00000000000000000000000000000000000000000000000000000000082526004820152601e60248201527f496e666572656e6365206973206e6f742070726f6365737365642079657400006044820152fd5b60846040517f08c379a000000000000000000000000000000000000000000000000000000000815260206004820152603560248201527f4f6e6c7920576f726b657248756253636f72696e6720636f6e7472616374206360448201527f616e2063616c6c20746869732066756e6374696f6e00000000000000000000006064820152fd5b346106cb5760207ffffffffffffffffffffffffffffffffffffffffffffffffffffffffffffffffc3601126106cb576130766182e7565b61307e618fdd565b613086618b98565b61308f8161a8d7565b64ffffffffff60165460b81c169173ffffffffffffffffffffffffffffffffffffffff613114818316948560005260026020526002604060002001907fffffffffffffff0000000000ffffffffffffffffffffffffffffffffffffffff78ffffffffff000000000000000000000000000000000000000083549260a01b169116179055565b8215158080613197575b15613176575091613166816020937f75690555e75b04e280e646889defdcbefd8401507e5394d1173fd84290944c299587600052601b8652600060408120556026541661b0a1565b604051908152a25b600161011c55005b9293505050613186575b5061316e565b601b60205260406000205580613180565b50600161311e565b346106cb5760007ffffffffffffffffffffffffffffffffffffffffffffffffffffffffffffffffc3601126106cb57602064ffffffffff60155460d01c16604051908152f35b346106cb5760207ffffffffffffffffffffffffffffffffffffffffffffffffffffffffffffffffc3601126106cb57600435600052600c602052602060ff60036040600020015460c81c166040519061323d8161852b565b8152f35b346106cb5760407ffffffffffffffffffffffffffffffffffffffffffffffffffffffffffffffffc3601126106cb5767ffffffffffffffff6004358181116106cb576132919036906004016188d9565b906024359081116106cb576132aa9036906004016188d9565b906132b36189a6565b6132bb6190df565b80518251036133115760005b81518110156100195761330c9061271a73ffffffffffffffffffffffffffffffffffffffff806132f78487618e1b565b5116906133048488618e1b565b511690618eee565b6132c7565b60646040517f08c379a000000000000000000000000000000000000000000000000000000000815260206004820152600d60248201527f496e76616c696420696e707574000000000000000000000000000000000000006044820152fd5b346106cb5760207ffffffffffffffffffffffffffffffffffffffffffffffffffffffffffffffffc3601126106cb5760043567ffffffffffffffff81116106cb576133be9036906004016184c9565b505061a83e565b60807ffffffffffffffffffffffffffffffffffffffffffffffffffffffffffffffffc3601126106cb5760243567ffffffffffffffff81116106cb5761340f9036906004016184c9565b505061341961832d565b5060643573ffffffffffffffffffffffffffffffffffffffff81161461a83e57600080fd5b346106cb5760407ffffffffffffffffffffffffffffffffffffffffffffffffffffffffffffffffc3601126106cb576134756182e7565b73ffffffffffffffffffffffffffffffffffffffff602435916134966189a6565b61349e6190df565b1690816000526001602052604060002063ffffffff600182015416156134ee57817f923b5fe9c9974b3c93e434ae744faaa60ec86513c02614da5c8d9c51eda2bdd79260209255604051908152a2005b60046040517f13aa293e000000000000000000000000000000000000000000000000000000008152fd5b346106cb5760207ffffffffffffffffffffffffffffffffffffffffffffffffffffffffffffffffc3601126106cb5761354f6182e7565b6135576189a6565b7fffffffffffffffffffffffff000000000000000000000000000000000000000073ffffffffffffffffffffffffffffffffffffffff7f3cfa9fea14972d7cbbd0fddda517d4467bd2863f1d28e76fa4e0fe230a7bf274818416936135bd851515618a92565b6135c56190df565b6014546040805194821673ffffffffffffffffffffffffffffffffffffffff908116865292909216602085015292a11617601455005b346106cb5760207ffffffffffffffffffffffffffffffffffffffffffffffffffffffffffffffffc3601126106cb57600435613635618b98565b61363d6190df565b3360005260026020526040600020600281015460f01c1561223d57613663828254618fd0565b905561368b8173ffffffffffffffffffffffffffffffffffffffff602654163090339061b1e0565b6040519081527f3d236e8f743e932a32c84d3114ce3e7ee0b75225cb3b39f72faac62495fd21c160203392a2005b346106cb5760207ffffffffffffffffffffffffffffffffffffffffffffffffffffffffffffffffc3601126106cb5773ffffffffffffffffffffffffffffffffffffffff6137056182e7565b1660005260016020526020604060002054604051908152f35b346106cb5760207ffffffffffffffffffffffffffffffffffffffffffffffffffffffffffffffffc3601126106cb57613755618634565b61375d6189a6565b61271061ffff8216116137b9577fffffffffffff0000ffffffffffffffffffffffffffffffffffffffffffffffff79ffff0000000000000000000000000000000000000000000000006015549260c01b16911617601555600080f35b60646040517f08c379a000000000000000000000000000000000000000000000000000000000815260206004820152601a60248201527f46656520726174696f206d757374206265203c3d2031303030300000000000006044820152fd5b346106cb5760207ffffffffffffffffffffffffffffffffffffffffffffffffffffffffffffffffc3601126106cb576004356138516189a6565b6138596190df565b7f37bba2c63397e7d89baa40e3d0c29e309913eb87b9691bacb16dba509fad523c60406022548151908152836020820152a1602255005b346106cb5760207ffffffffffffffffffffffffffffffffffffffffffffffffffffffffffffffffc3601126106cb5760206138d16138cc6182e7565b61a9f4565b604051908152f35b346106cb5760607ffffffffffffffffffffffffffffffffffffffffffffffffffffffffffffffffc3601126106cb576139106182e7565b6024359061ffff82168092036106cb5760443561392b6189a6565b6139336190df565b73ffffffffffffffffffffffffffffffffffffffff82169182156134ee576022548210613ad6578315613aac578260005260016020526040600020600181019081549063ffffffff8216613a82578691857fffffffffffffffffffffffffffffffffffffffffffffffffffffffff00000000925516179055826000526005602052604060002054613a5157600454916801000000000000000083101561156657613a37602092613a0a8560017f7041913a4cb21c28c931da9d9e4b5ed0ad84e47fcf2a65527f03c438d534ed5c9701600455618e68565b90919082549060031b9173ffffffffffffffffffffffffffffffffffffffff809116831b921b1916179055565b6004548460005260058352604060002055604051908152a3005b602483604051907f05e3de8f0000000000000000000000000000000000000000000000000000000082526004820152fd5b60046040517f3a81d6fc000000000000000000000000000000000000000000000000000000008152fd5b60046040517fe1423617000000000000000000000000000000000000000000000000000000008152fd5b60046040517f732f9413000000000000000000000000000000000000000000000000000000008152fd5b346106cb5760207ffffffffffffffffffffffffffffffffffffffffffffffffffffffffffffffffc3601126106cb57610019613b3a6182e7565b613b426190df565b3390618eee565b346106cb5760007ffffffffffffffffffffffffffffffffffffffffffffffffffffffffffffffffc3601126106cb576040518060045480825282602080930160046000527f8a35acfbc15ff81a39ae7d344fd709f28e8600b4aa8c65c6b64bfe7fe36bd19b9260005b85828210613bdd57505050613bc99250038361826c565b61101e604051928284938452830190618645565b855473ffffffffffffffffffffffffffffffffffffffff16845260019586019588955093019201613bb2565b346106cb5760407ffffffffffffffffffffffffffffffffffffffffffffffffffffffffffffffffc3601126106cb57613c406182e7565b60243580151581036106cb57613c546189a6565b613c5c6190df565b73ffffffffffffffffffffffffffffffffffffffff8216156115bf57610019916199b2565b346106cb5760007ffffffffffffffffffffffffffffffffffffffffffffffffffffffffffffffffc3601126106cb57613cb8618c6d565b60009060005b8151811015613d3f5773ffffffffffffffffffffffffffffffffffffffff613ce68284618e1b565b5116600052602060088152604060002064ffffffffff600160405192613d0b84618204565b805484520154169182910152613d2a575b613d2590618dee565b613cbe565b91613d37613d2591618dee565b929050613d1c565b50613d4982619090565b7fffffffffffffffffffffffffffffffffffffffffffffffffffffffffffffffe0613d8c613d76856188c1565b94613d84604051968761826c565b8086526188c1565b0160005b818110613eb05750506000805b8351811015613e4c5773ffffffffffffffffffffffffffffffffffffffff80613dc68387618e1b565b51166000526020906008825260406000209164ffffffffff600160405194613ded86618204565b805486520154168091840152613e0e575b5050613e0990618dee565b613d9d565b92613e4491613e099394613e228389618e1b565b5116613e2e8388618e1b565b52613e398289618e1b565b52610e0c8188618e1b565b919086613dfe565b8483613e6360405191604083526040830190618645565b916020928281038484015283808351928381520192019360005b828110613e8a5784840385f35b85518051855282015164ffffffffff168483015294810194604090930192600101613e7d565b602090604051613ebf81618204565b6000815282600081830152828801015201613d90565b346106cb5760007ffffffffffffffffffffffffffffffffffffffffffffffffffffffffffffffffc3601126106cb57602073ffffffffffffffffffffffffffffffffffffffff60b85416604051908152f35b346106cb5760007ffffffffffffffffffffffffffffffffffffffffffffffffffffffffffffffffc3601126106cb57602064ffffffffff60165460281c16604051908152f35b346106cb5760207ffffffffffffffffffffffffffffffffffffffffffffffffffffffffffffffffc3601126106cb57613fa46184b5565b613fac6189a6565b613fb46190df565b7fffffffffffffffffffffffffffffffffff0000000000ffffffffffffffffffff6effffffffff00000000000000000000601654927ff7a437a25c636d2b29d0ba34f0f6870af14f44478eff2ac852f36030f2e2924e6040805164ffffffffff808860501c16825284166020820152a160501b16911617601655600080f35b346106cb5760007ffffffffffffffffffffffffffffffffffffffffffffffffffffffffffffffffc3601126106cb5761406a6189a6565b614072618b98565b61407a618b98565b60017fffffffffffffffffffffffffffffffffffffffffffffffffffffffffffffff0060ea54161760ea557f62e78cea01bee320cd4e420270b5ea74000d11b0c9f74754ebdbfc544b05a2586020604051338152a1005b346106cb5760007ffffffffffffffffffffffffffffffffffffffffffffffffffffffffffffffffc3601126106cb576020601954604051908152f35b346106cb5760007ffffffffffffffffffffffffffffffffffffffffffffffffffffffffffffffffc3601126106cb576020601854604051908152f35b346106cb5760207ffffffffffffffffffffffffffffffffffffffffffffffffffffffffffffffffc3601126106cb576141806189a6565b600435601f55005b346106cb5760007ffffffffffffffffffffffffffffffffffffffffffffffffffffffffffffffffc3601126106cb57602064ffffffffff60165460b81c16604051908152f35b346106cb5760007ffffffffffffffffffffffffffffffffffffffffffffffffffffffffffffffffc3601126106cb57602061ffff601a5416604051908152f35b346106cb5760007ffffffffffffffffffffffffffffffffffffffffffffffffffffffffffffffffc3601126106cb576142456190df565b336000526008602052604060002064ffffffffff60018201541643106142ed5780549081156142c35760009055614295813373ffffffffffffffffffffffffffffffffffffffff6026541661b0a1565b6040519081527f1051154647682075e7cc0645853209e75208cb5acd862fc83f7fd0fcaa9624b460203392a2005b60046040517f15da940f000000000000000000000000000000000000000000000000000000008152fd5b60046040517fb3c383a1000000000000000000000000000000000000000000000000000000008152fd5b346106cb5760007ffffffffffffffffffffffffffffffffffffffffffffffffffffffffffffffffc3601126106cb5761434e6189a6565b600073ffffffffffffffffffffffffffffffffffffffff60b8547fffffffffffffffffffffffff0000000000000000000000000000000000000000811660b855167f8be0079c531659141344cd1fd0a4f28419497f9722a3daafe3b4186f6b6457e08280a3005b346106cb5760207ffffffffffffffffffffffffffffffffffffffffffffffffffffffffffffffffc3601126106cb576143ec6182e7565b6143f46189a6565b7fffffffffffffffffffffffff000000000000000000000000000000000000000073ffffffffffffffffffffffffffffffffffffffff7f518cc1a1508767ac2e92e88727dbf2ace68f44768b3684e0ad2305f6db0cd8da8184169361445a851515618a92565b6144626190df565b601e546040805194821673ffffffffffffffffffffffffffffffffffffffff908116865292909216602085015292a11617601e55005b346106cb5760007ffffffffffffffffffffffffffffffffffffffffffffffffffffffffffffffffc3601126106cb57602064ffffffffff60165416604051908152f35b346106cb5760207ffffffffffffffffffffffffffffffffffffffffffffffffffffffffffffffffc3601126106cb576145126184b5565b61451a6189a6565b6145226190df565b64ffffffffff90818116156145d7577effffffffff0000000000000000000000000000000000000000000000000000817f8c0ac957fb32132ec541e9495c4fe8f1d9fdb4dd19a02e7144659d4b382064f37fff0000000000ffffffffffffffffffffffffffffffffffffffffffffffffffff93601554956145c56040519283928960d01c168390602090939293604083019464ffffffffff809216845216910152565b0390a160d01b16911617601555600080f35b60646040517f08c379a000000000000000000000000000000000000000000000000000000000815260206004820152601c60248201527f696e76616c6964207375626d6974206475726174696f6e2074696d65000000006044820152fd5b346106cb5760007ffffffffffffffffffffffffffffffffffffffffffffffffffffffffffffffffc3601126106cb576020600b54604051908152f35b346106cb5760207ffffffffffffffffffffffffffffffffffffffffffffffffffffffffffffffffc3601126106cb5760206138d16146ad6182e7565b61a8d7565b346106cb5760407ffffffffffffffffffffffffffffffffffffffffffffffffffffffffffffffffc3601126106cb576146e9618634565b6024356146f4618b98565b6146fc6190df565b61ffff91828116928315908115614857575b50613aac57601354821061482d5733600052600260205260406000209060028201805460f01c613a82576147938492836147ff955582907dffffffffffffffffffffffffffffffffffffffffffffffffffffffffffff7fffff00000000000000000000000000000000000000000000000000000000000083549260f01b169116179055565b6147aa6121506147a161ac5e565b60045490618e2f565b919073ffffffffffffffffffffffffffffffffffffffff928391549060031b1c167fffffffffffffffffffffffff0000000000000000000000000000000000000000825416179055602654163090339061b1e0565b6040519081527f55e488821080f3f5cdf6088b02793df0d26f40053a70b6154347d2ac313015a160203392a3005b60046040517f1cc3b37b000000000000000000000000000000000000000000000000000000008152fd5b905060165460a81c1683118461470e565b346106cb5760207ffffffffffffffffffffffffffffffffffffffffffffffffffffffffffffffffc3601126106cb5761489f6182e7565b6148a76189a6565b7fffffffffffffffffffffffff000000000000000000000000000000000000000073ffffffffffffffffffffffffffffffffffffffff7f430359a6d97ced2b6f93c77a91e7ce9dfd43252eb91e916adba170485cd8a6a48184169361490d851515618a92565b6149156190df565b6015546040805194821673ffffffffffffffffffffffffffffffffffffffff908116865292909216602085015292a11617601555005b346106cb5760007ffffffffffffffffffffffffffffffffffffffffffffffffffffffffffffffffc3601126106cb57614982618fdd565b61498a618b98565b6149926190df565b33600052602060028152604060002060028101908154918260f01c1561223d577dffffffffffffffffffffffffffffffffffffffffffffffffffffffffffff614a4e93168155600060018354938281550155614a0e3373ffffffffffffffffffffffffffffffffffffffff166000526007602052604060002090565b54614ae9575b7fffffffffffffffffffffffff00000000000000000000000000000000000000008154169055336000526008835260406000205490618fd0565b600164ffffffffff91600883614a6b8160165460781c1643618fd0565b169460405192614a7a84618204565b83528083019586523360005252604060002090518155019151167fffffffffffffffffffffffffffffffffffffffffffffffffffffff0000000000825416179055337f8f54596d72781f60dbf7dad7e576f06ce17bbda0bdf384463f7734f85f51498e600080a2600161011c55005b614af1618b98565b614afa3361a8d7565b64ffffffffff90614b668260165460b81c1633600052600288526002604060002001907fffffffffffffff0000000000ffffffffffffffffffffffffffffffffffffffff78ffffffffff000000000000000000000000000000000000000083549260a01b169116179055565b8015158080614c63575b15614c48575033600052601b865260006040812055614ba8813373ffffffffffffffffffffffffffffffffffffffff6026541661b0a1565b6040519081527f75690555e75b04e280e646889defdcbefd8401507e5394d1173fd84290944c29863392a25b33600052601c85526040600020907fffffffffffffffffffffffffffffffff000000000000ffffffffff000000000082549142169116179055614c163361ad67565b73ffffffffffffffffffffffffffffffffffffffff81541660005260038452614c4333604060002061ae49565b614a14565b614c53575b50614bd4565b601b865260406000205585614c4d565b506000614b70565b346106cb5760207ffffffffffffffffffffffffffffffffffffffffffffffffffffffffffffffffc3601126106cb576004356000526012602052608060406000208054906001810154906003600282015491015491604051938452602084015260408301526060820152f35b346106cb5760207ffffffffffffffffffffffffffffffffffffffffffffffffffffffffffffffffc3601126106cb5760c073ffffffffffffffffffffffffffffffffffffffff80614d266182e7565b1660005260026020526040600020805491600260018301549201549160405193845260208401528116604083015264ffffffffff808260a01c1660608401528160c81c16608083015260f01c60a0820152f35b346106cb57614d87366184f7565b906000526025602052604060002080548210156106cb57606091614daa91618898565b50614dea73ffffffffffffffffffffffffffffffffffffffff8254169160ff600260018301549201541690604051938452602084015260408301906188b4565bf35b346106cb5760007ffffffffffffffffffffffffffffffffffffffffffffffffffffffffffffffffc3601126106cb57602073ffffffffffffffffffffffffffffffffffffffff60155416604051908152f35b346106cb5760207ffffffffffffffffffffffffffffffffffffffffffffffffffffffffffffffffc3601126106cb57614e75618b98565b614e7d618fdd565b614e856190df565b600435600052600a6020526040600020600681015460ff8160281c166007811015610b915760011480615390575b8061536d575b6152ef575b50600681015460ff8160281c166007811015610b9157600214806152d8575b61516b575b50600681015460ff8160281c166007811015610b91576003149081615130575b50614f50575b600660ff91015460281c16614f2060405180926183ae565b7fbc645ece538d7606c8ac26de30aef5fbd0ed2ee0c945f4e5d860da3e62781d50602060043592a2600161011c55005b614f5b600435619f42565b614f0857600435600052600a6020526040600020604051614f7b81618175565b614f8482618cf2565b8152604051614f9a816111ac81600187016186e2565b6020820152600282015491604082019283526003810154926060830193845260048201546080840190815260058301549173ffffffffffffffffffffffffffffffffffffffff9586841660a087015264ffffffffff8481809660a01c1660c089015260c81c1660e0870152600685015493841661010087015260ff8460281c16916007831015610b9157866101808960088161506d99615065986101206150739e015260301c16998a6101408601528260078201541661016086015201541691015251905190618fd0565b905190618fd0565b9061b2aa565b600435600052601160205261508b6040600020618cf2565b9060005b82518110156150f657806150a66150c49285618e1b565b51600052600c80602052600260406000200154156150c95750618dee565b61508f565b6150d38286618e1b565b516000526020526150f08360036040600020015460281c16619689565b85610e0c565b5050506006810180547fffffffffffffffffffffffffffffffffffffffffffffffffffff00ffffffffff1665040000000000179055614f08565b905064ffffffffff439116108015615149575b82614f02565b50600435600052600d60205260406000205460ff8082169160081c1614615143565b600435600052600d602052600160ff604060002054160160ff8111610aba57600435600052601160205260ff6151a560406000205461a89c565b9116106151c75750600760ff600683015460281c161015610b91575b81614ee2565b650400000000007fffffffffffffffffffffffffffffffffffffffffffffffffffff00ffffffffff61523b92161780600684015573ffffffffffffffffffffffffffffffffffffffff6152316152266002860154600387015490618fd0565b600486015490618fd0565b9160301c1661b2aa565b60043560005260116020526152536040600020618cf2565b60005b81518110156152d1578061526d61528b9284618e1b565b51600052600c80602052600160406000200154156152905750618dee565b615256565b61529a8285618e1b565b516000526020526152cb73ffffffffffffffffffffffffffffffffffffffff60036040600020015460281c16619689565b84610e0c565b50506151c1565b5064ffffffffff600583015460c81c164311614edd565b650500000000007fffffffffffffffffffffffffffffffffffffffffffffffffffff00ffffffffff61536792161780600684015561535c61533c6152266002860154600387015490618fd0565b73ffffffffffffffffffffffffffffffffffffffff809360301c1661b2aa565b6007830154166192e3565b81614ebe565b5073ffffffffffffffffffffffffffffffffffffffff6007830154161515614eb9565b5064ffffffffff600583015460a01c164311614eb3565b346106cb576020807ffffffffffffffffffffffffffffffffffffffffffffffffffffffffffffffffc3601126106cb57600435600052601181526153ee6040600020618cf2565b8051906153fa82618d41565b9260005b838110615413576040518061101e8782618797565b806154216154ec9285618e1b565b51600052600c835260406000205480600052600a845260406000206154468387618e1b565b519160016154876002840154936005810154946006820154946040519761546c896181e7565b88528a88015260408701526111ac60405180948193016186e2565b606084015273ffffffffffffffffffffffffffffffffffffffff808316608085015260a0908260301c16818501528264ffffffffff809481931c1660c086015260c81c1660e0840152166101008201526154e18288618e1b565b52610e0c8187618e1b565b6153fe565b346106cb5760007ffffffffffffffffffffffffffffffffffffffffffffffffffffffffffffffffc3601126106cb57602060ff60ea54166040519015158152f35b346106cb5760007ffffffffffffffffffffffffffffffffffffffffffffffffffffffffffffffffc3601126106cb57602064ffffffffff60165460501c16604051908152f35b346106cb576020807ffffffffffffffffffffffffffffffffffffffffffffffffffffffffffffffffc3601126106cb5773ffffffffffffffffffffffffffffffffffffffff806155c66182e7565b16600052601082526155db6040600020618cf2565b8051916155e783618d41565b9360005b848110615600576040518061101e8882618797565b8061560e61569e9286618e1b565b51600052600c835260406000205480600052600a845260406000206156338388618e1b565b519160016156596002840154936005810154946006820154946040519761546c896181e7565b6060840152868216608084015260a0878260301c16818501528264ffffffffff809481931c1660c086015260c81c1660e084015216610100820152613e398289618e1b565b6155eb565b346106cb5760207ffffffffffffffffffffffffffffffffffffffffffffffffffffffffffffffffc3601126106cb5760043580600052600c6020526156ef60046040600020015461868f565b1580615703575b6020906040519015158152f35b50600052600c602052604060002054600052600a602052602064ffffffffff6006604060002001541643106156f6565b346106cb5760007ffffffffffffffffffffffffffffffffffffffffffffffffffffffffffffffffc3601126106cb5761101e60405161577181618204565b600681527f76302e302e3200000000000000000000000000000000000000000000000000006020820152604051918291602083526020830190618350565b346106cb5760207ffffffffffffffffffffffffffffffffffffffffffffffffffffffffffffffffc3601126106cb576157e66184b5565b6157ee6189a6565b6157f66190df565b64ffffffffff90818116918215615872576016546040805164ffffffffff938316841681529390921660208401527fffffffffffffffffffffffffffffffffffffffffffffffffffffff00000000009290917fc9bc20c9ff07142c58c480090e116ebe561a42316260069d619782bb38faf61991a11617601655005b60646040517f08c379a000000000000000000000000000000000000000000000000000000000815260206004820152601c60248201527f696e76616c696420636f6d6d6974206475726174696f6e2074696d65000000006044820152fd5b346106cb5760207ffffffffffffffffffffffffffffffffffffffffffffffffffffffffffffffffc3601126106cb5773ffffffffffffffffffffffffffffffffffffffff61591c6182e7565b16600052600160205260408060002063ffffffff600182549201541682519182526020820152f35b346106cb5760007ffffffffffffffffffffffffffffffffffffffffffffffffffffffffffffffffc3601126106cb57602061ffff60155460c01c16604051908152f35b346106cb5760207ffffffffffffffffffffffffffffffffffffffffffffffffffffffffffffffffc3601126106cb576159be618634565b6159c6618b98565b6159ce6190df565b3360005260086020526040600020908154918215610fa6576000905533600052600260205260026040600020615a05848254618fd0565b81550190815460f01c15615aa9575b5073ffffffffffffffffffffffffffffffffffffffff908181541615615a66575b5416906040519081527f5f8a19f664e489b0ebcc62ec24b1bde029195fbb4af60118cecf0e16d6d95b2d60203392a3005b81615a756121506147a161ac5e565b90549060031b1c167fffffffffffffffffffffffff0000000000000000000000000000000000000000825416178155615a35565b61ffff8082168015918215615b12575b5050613aac5781547dffffffffffffffffffffffffffffffffffffffffffffffffffffffffffff1660f09190911b7fffff0000000000000000000000000000000000000000000000000000000000001617815582615a14565b60165460a81c161090508480615ab9565b346106cb5760207ffffffffffffffffffffffffffffffffffffffffffffffffffffffffffffffffc3601126106cb57600435600052600c6020526040600020805461101e6004600184015493600281015473ffffffffffffffffffffffffffffffffffffffff600383015460ff8160c81c1692615bb860ff8360d01c1695615bb160405180998193016186e2565b038761826c565b60405198899889526020890152604088015264ffffffffff8116606088015260281c166080860152615be98161852b565b60a0850152615bf78161852b565b60c08401526101008060e0850152830190618350565b346106cb5760007ffffffffffffffffffffffffffffffffffffffffffffffffffffffffffffffffc3601126106cb57615c44618c6d565b8051907fffffffffffffffffffffffffffffffffffffffffffffffffffffffffffffffe0615c8a615c74846188c1565b93615c82604051958661826c565b8085526188c1565b0160005b818110615dd757505060005b8151811015615d3d57615d389073ffffffffffffffffffffffffffffffffffffffff80615cc78386618e1b565b5116600052600290602091808352604060002060405193615ce7856181ae565b815485526001820154908501520154908116604083015264ffffffffff9060a0918082841c1660608501528160c81c16608084015260f01c90820152615d2d8286618e1b565b52610e0c8185618e1b565b615c9a565b60408051602080825285518183018190528187019383019160005b828110615d655784840385f35b9091928260c0600192885180518252838101518483015273ffffffffffffffffffffffffffffffffffffffff604082015116604083015264ffffffffff60608181840151169084015260809081830151169083015261ffff60a080920151169082015201960191019492919094615d58565b602090604051615de6816181ae565b6000815282600081830152600060408301526000606083015260006080830152600060a0830152828701015201615c8e565b346106cb5760007ffffffffffffffffffffffffffffffffffffffffffffffffffffffffffffffffc3601126106cb57602073ffffffffffffffffffffffffffffffffffffffff601e5416604051908152f35b346106cb576020807ffffffffffffffffffffffffffffffffffffffffffffffffffffffffffffffffc3601126106cb5773ffffffffffffffffffffffffffffffffffffffff9081615eb96182e7565b16600052600381526040600020916040518093849184825491828152019160005284600020936000905b86838310615ef9578590613bc98287038361826c565b8654821685526001968701968996509401939190910190615ee3565b346106cb5760207ffffffffffffffffffffffffffffffffffffffffffffffffffffffffffffffffc3601126106cb57615f4c618634565b615f546189a6565b615f5c6190df565b7fffffffffffffffffffffffffffffffffffffffffffffffffffffffffffff0000601a547fcf2ba21ec685fb1baf4b5e5df96fd2da47ab299e7d95e586c7898f114b6c1269604080519461ffff9081851687521694856020820152a11617601a55005b346106cb5760007ffffffffffffffffffffffffffffffffffffffffffffffffffffffffffffffffc3601126106cb57615ff66189a6565b615ffe618c02565b616006618c02565b7fffffffffffffffffffffffffffffffffffffffffffffffffffffffffffffff0060ea541660ea557f5db9ee0a495bf2e6ff9c91a7834c1ba4fdd244a5e8aa4e537bd38aeae4b073aa6020604051338152a1005b346106cb5760007ffffffffffffffffffffffffffffffffffffffffffffffffffffffffffffffffc3601126106cb57602061ffff60155460a01c16604051908152f35b346106cb5760a07ffffffffffffffffffffffffffffffffffffffffffffffffffffffffffffffffc3601126106cb576040516160d881618250565b61ffff9060043582811681036106cb5781526024359082821682036106cb576020928382019283526044359281841684036106cb57604083019384526064359180831683036106cb57606084019283526084359381851685036106cb57608081019485526161446189a6565b6127108261618061617661616c61616284875116858a511690618b82565b848c511690618b82565b8389511690618b82565b8289511690618b82565b16036162ac5790616244917fe217c132ca1c9e392a91d1b2eaeb42b77b8ff74a61c75974d05ffbbe6e00a16a610140604051848b81815480928282168652828260101c16818701521c166040840152818160301c16606084015260401c1660808201528484511660a08201528487511660c0820152848a511660e08201528488511661010082015284895116610120820152a1511661ffff167fffffffffffffffffffffffffffffffffffffffffffffffffffffffffffff00006020541617602055565b51927fffffffffffffffffffffffffffffffffffffffffffff0000000000000000ffff63ffff000069ffff000000000000000067ffff00000000000065ffff00000000895495518a1b16955160301b16955160401b169560101b169116171717179055600080f35b606487604051907f08c379a00000000000000000000000000000000000000000000000000000000082526004820152601c60248201527f496e76616c69642044414f20546f6b656e2050657263656e74616765000000006044820152fd5b346106cb5760207ffffffffffffffffffffffffffffffffffffffffffffffffffffffffffffffffc3601126106cb576163416184b5565b6163496189a6565b6163516190df565b64ffffffffff90818116156163fb5773ffffffffff000000000000000000000000000000817fdf63c46e5024e57c66aafc6698e317c78589c870dca694678c89dd379c5fd4907fffffffffffffffffffffffff0000000000ffffffffffffffffffffffffffffff93601654956163e96040519283928960781c168390602090939293604083019464ffffffffff809216845216910152565b0390a160781b16911617601655600080f35b60646040517f08c379a000000000000000000000000000000000000000000000000000000000815260206004820152601a60248201527f696e76616c696420756e7374616b652064656c61792074696d650000000000006044820152fd5b346106cb5760407ffffffffffffffffffffffffffffffffffffffffffffffffffffffffffffffffc3601126106cb576164906182e7565b61649861830a565b906164a16189a6565b6164a96190df565b73ffffffffffffffffffffffffffffffffffffffff80921691826000526020926001845263ffffffff60016040600020015416156134ee5761650b8373ffffffffffffffffffffffffffffffffffffffff166000526007602052604060002090565b541561223d5781831692836000526002928386528360406000200154168281146166055791616561610019969285946000526003845261654f81604060002061ae49565b8260005260038452604060002061aca0565b8460005282825282604060002001817fffffffffffffffffffffffff00000000000000000000000000000000000000008254161790556000526001815261ffff600160406000200154169360005252604060002001907dffffffffffffffffffffffffffffffffffffffffffffffffffffffffffff7fffff00000000000000000000000000000000000000000000000000000000000083549260f01b169116179055565b606486604051907f08c379a00000000000000000000000000000000000000000000000000000000082526004820152601260248201527f53616d65206d6f64656c206164647265737300000000000000000000000000006044820152fd5b346106cb5760007ffffffffffffffffffffffffffffffffffffffffffffffffffffffffffffffffc3601126106cb576020601354604051908152f35b346106cb5760007ffffffffffffffffffffffffffffffffffffffffffffffffffffffffffffffffc3601126106cb57602073ffffffffffffffffffffffffffffffffffffffff60235416604051908152f35b346106cb5760007ffffffffffffffffffffffffffffffffffffffffffffffffffffffffffffffffc3601126106cb576020602254604051908152f35b346106cb5760207ffffffffffffffffffffffffffffffffffffffffffffffffffffffffffffffffc3601126106cb576167646184b5565b61676c6189a6565b6167746190df565b64ffffffffff90818116156168145769ffffffffff0000000000817facb24019039b4d00193b2be5c85ea8ed6bd6747ed79f7d1e5a6d9384282b4a9d7fffffffffffffffffffffffffffffffffffffffffffff0000000000ffffffffff93601654956168026040519283928960281c168390602090939293604083019464ffffffffff809216845216910152565b0390a160281b16911617601655600080f35b60646040517f08c379a000000000000000000000000000000000000000000000000000000000815260206004820152601c60248201527f696e76616c69642072657665616c206475726174696f6e2074696d65000000006044820152fd5b346106cb5760007ffffffffffffffffffffffffffffffffffffffffffffffffffffffffffffffffc3601126106cb576168a9618b98565b6168b16190df565b3360005260026020526040600020600281018054918260f01c1561223d57546013541161482d5764ffffffffff91828160c81c164210616a6f5773ffffffffffffffffffffffffffffffffffffffff16600052600360205261691733604060002061aca0565b336000526007602052604060002054616a3f576006549068010000000000000000821015611566576169806169558360016169e39501600655618e9f565b815473ffffffffffffffffffffffffffffffffffffffff60039290921b91821b19163390911b179055565b6006543360005260076020526040600020558260165460b81c167fffffffffffffff0000000000ffffffffffffffffffffffffffffffffffffffff78ffffffffff000000000000000000000000000000000000000083549260a01b169116179055565b601c60205260406000209042167fffffffffffffffffffffffffffffffffffffffffffffffffffffff0000000000825416179055337fb7041987154996ed34981c2bc6fbafd4b1fcab9964486d7cc386f0d8abcc5446600080a2005b60246040517f05e3de8f000000000000000000000000000000000000000000000000000000008152336004820152fd5b60046040517ff7bc3778000000000000000000000000000000000000000000000000000000008152fd5b346106cb576020807ffffffffffffffffffffffffffffffffffffffffffffffffffffffffffffffffc3601126106cb5760043560005260118152616ae06040600020618cf2565b90815190616aed8261abb9565b9260005b838110616b06576040518061101e8782618535565b80616b14616bc39284618e1b565b51600052600c845260406000206004616bb460405192616b33846181ca565b8054845260018101548885015260028101546040850152600381015464ffffffffff8116606086015273ffffffffffffffffffffffffffffffffffffffff8160281c16608086015260ff90818160c81c16616b8d8161852b565b60a087015260d01c16616b9f8161852b565b60c08501526111ac60405180948193016186e2565b60e08201526154e18288618e1b565b616af1565b346106cb5760207ffffffffffffffffffffffffffffffffffffffffffffffffffffffffffffffffc3601126106cb5773ffffffffffffffffffffffffffffffffffffffff616c146182e7565b16600052600860205260408060002064ffffffffff600182549201541682519182526020820152f35b346106cb57616c4b366184f7565b616c548161abb9565b9160005b828110616c6d576040518061101e8682618535565b80616c7b616d049284618fd0565b6000526020600c81526004616cf5604060002060405193616c9b856181ca565b8154855260018201549085015260028101546040850152600381015464ffffffffff8116606086015273ffffffffffffffffffffffffffffffffffffffff8160281c16608086015260ff90818160c81c16616b8d8161852b565b60e0820152610e018287618e1b565b616c58565b346106cb5760007ffffffffffffffffffffffffffffffffffffffffffffffffffffffffffffffffc3601126106cb57616d40618c6d565b8051616d4b816188c1565b91616d59604051938461826c565b8183527fffffffffffffffffffffffffffffffffffffffffffffffffffffffffffffffe0616d86836188c1565b0160005b818110616f7757505060005b828110616e445760408051602080825286518183018190528188019383019160005b828110616dc55784840385f35b9091928260e0600192885173ffffffffffffffffffffffffffffffffffffffff80825116835284820151858401526040820151604084015260609081830151169083015264ffffffffff60808181840151169084015260a09081830151169083015261ffff60c080920151169082015201960191019492919094616db8565b8073ffffffffffffffffffffffffffffffffffffffff616e67616f729385618e1b565b511660005260028060205260406000209060405191616e85836181ae565b8054835260018101546020840152015473ffffffffffffffffffffffffffffffffffffffff8116604083015260609064ffffffffff8160a01c168284015264ffffffffff8160c81c16608084015260a083019060f01c815273ffffffffffffffffffffffffffffffffffffffff616efc8588618e1b565b51169280519260208201519073ffffffffffffffffffffffffffffffffffffffff6040840151169161ffff64ffffffffff6080818588015116960151169551169560405197616f4a89618192565b885260208801526040870152850152608084015260a083015260c0820152610e018287618e1b565b616d96565b602090604051616f8681618192565b6000815282600081830152600060408301526000606083015260006080830152600060a0830152600060c0830152828801015201616d8a565b346106cb5760607ffffffffffffffffffffffffffffffffffffffffffffffffffffffffffffffffc3601126106cb5764ffffffffff60243516602435036106cb5760443567ffffffffffffffff81116106cb576170209036906004016184c9565b90617029618b98565b6170316190df565b81156115e95764ffffffffff6024351615617b8857600435600052600c60205260406000209164ffffffffff600384015416617b5e5782549283600052600a6020526006604060002001805464ffffffffff811664ffffffffff431611617b0057600760ff8260281c161015610b9157600260ff8260281c1614600014617a91577fffffffffffffffffffffffffffffffffffffffffffffffffffff00ffffffffff16650300000000001790555b60038101549073ffffffffffffffffffffffffffffffffffffffff8260281c163303610b3d5761711460ff8360c81c1661852b565b600160ff8360c81c1603610b135760018101548015617a675760405160208101907fffffffffff00000000000000000000000000000000000000000000000000000060243560d81b1682523360601b60258201528587603983013761718c60398288810160008382015203601981018452018261826c565b51902003617a09576040516020810190868252848660408301376171c360408287810160008382015203602081018452018261826c565b519020917fffffffffffffffffffffffffffffffffffffffffffffffffffffff000000000064ffffffffff60243516911617600382015567ffffffffffffffff831161156657617216600482015461868f565b601f81116179c2575b508160009184601f81116001146178f557600292936000916178ea575b508560011b907fffffffffffffffffffffffffffffffffffffffffffffffffffffffffffffffff8760031b1c19161760048201555b015583600052600d602052604060002080547fffffffffffffffffffffffffffffffffffffffffffffffffffffffffffff00ff61ff006172b660ff8460081c166192d2565b60081b16911617905583600052600e6020526172e681604060002060019160005201602052604060002054151590565b156178ce575b600052600f602052604060002080547fffffffffffffffffffffffffffffffffffffffffffffffffffffffffffffff0060ff6173298184166192d2565b169116179055806040519264ffffffffff6024351684526040602085015281604085015260608401376000606082840101527ff7e30468a493d9e17158c0dbe51bcfa190627e3fdede3c9284827c22dfc41700600435926060817fffffffffffffffffffffffffffffffffffffffffffffffffffffffffffffffe0601f339601168101030190a380600052600d60205260406000205460ff8082169160081c16146173d057005b6173d8618b98565b6173e0618fdd565b6173e86190df565b80600052600a60205260406000206006810154600760ff8260281c161015610b9157600160ff8260281c1614806178b7575b80617894575b61780c575b506006810154600760ff8260281c161015610b9157600260ff8260281c1614806177f5575b6176e6575b506006810154600760ff8260281c161015610b9157600360ff8260281c161490816176ad575b506174bf575b602060ff60067fbc645ece538d7606c8ac26de30aef5fbd0ed2ee0c945f4e5d860da3e62781d5093015460281c166174b660405180926183ae565ba2600161011c55005b6174c882619f42565b61747b5781600052600a6020526040600020604051906174e782618175565b6174f081618cf2565b8252604051617506816111ac81600186016186e2565b6020830152600281015460408301908152600382015490606084019182526004830154906080850191825264ffffffffff600585015473ffffffffffffffffffffffffffffffffffffffff811660a0880152818160a01c1660c088015260c81c1660e086015260068401549264ffffffffff841661010087015260ff8460281c16916007831015610b91578661018073ffffffffffffffffffffffffffffffffffffffff60088161506d99615065986101206175e69e015260301c16998a6101408601528260078201541661016086015201541691015251905190618fd0565b8160005260116020526175fc6040600020618cf2565b60005b815181101561767457806176166176329284618e1b565b51600052600c6020526002604060002001541561763757618dee565b6175ff565b6176418184618e1b565b51600052600c60205261271a73ffffffffffffffffffffffffffffffffffffffff60036040600020015460281c16619689565b50506006810180547fffffffffffffffffffffffffffffffffffffffffffffffffffff00ffffffffff166504000000000017905561747b565b905064ffffffffff4391161080156176c6575b83617475565b5081600052600d60205260406000205460ff8082169160081c16146176c0565b82600052600d602052600160ff604060002054160160ff8111610aba5783600052601160205260ff61771c60406000205461a89c565b91161061773e5750600760ff600683015460281c161015610b91575b8261744f565b650400000000007fffffffffffffffffffffffffffffffffffffffffffffffffffff00ffffffffff61779d92161780600684015573ffffffffffffffffffffffffffffffffffffffff6152316152266002860154600387015490618fd0565b8160005260116020526177b36040600020618cf2565b60005b81518110156177ee57806177cd6177e99284618e1b565b51600052600c6020526001604060002001541561763757618dee565b6177b6565b5050617738565b504364ffffffffff600584015460c81c161061744a565b650500000000007fffffffffffffffffffffffffffffffffffffffffffffffffffff00ffffffffff61786b92161780600684015573ffffffffffffffffffffffffffffffffffffffff6152316152266002860154600387015490618fd0565b61788e73ffffffffffffffffffffffffffffffffffffffff6007830154166192e3565b82617425565b5073ffffffffffffffffffffffffffffffffffffffff6007830154161515617420565b504364ffffffffff600584015460a01c161061741a565b83600052600e6020526178e581604060002061afc1565b6172ec565b90508601358861723c565b5060048101600052602060002060005b7fffffffffffffffffffffffffffffffffffffffffffffffffffffffffffffffe0871681106179a7575060029293867fffffffffffffffffffffffffffffffffffffffffffffffffffffffffffffffe081161061796f575b5050600185811b016004820155617271565b7fffffffffffffffffffffffffffffffffffffffffffffffffffffffffffffffff60f88860031b161c1990880135169055878061795d565b84880135825560209485019486945060019092019101617905565b600482016000526020600020601f850160051c810160208610617a02575b601f830160051c820181106179f657505061721f565b600081556001016179e0565b50806179e0565b60646040517f08c379a000000000000000000000000000000000000000000000000000000000815260206004820152600d60248201527f496e76616c696452657665616c000000000000000000000000000000000000006044820152fd5b60046040517f81791cb4000000000000000000000000000000000000000000000000000000008152fd5b6003915060ff9060281c1603156170df5760646040517f08c379a000000000000000000000000000000000000000000000000000000000815260206004820152601660248201527f496e76616c6964496e666572656e6365537461747573000000000000000000006044820152fd5b60646040517f08c379a000000000000000000000000000000000000000000000000000000000815260206004820152600d60248201527f52657665616c54696d656f7574000000000000000000000000000000000000006044820152fd5b60046040517fa89ac151000000000000000000000000000000000000000000000000000000008152fd5b60046040517f756688fe000000000000000000000000000000000000000000000000000000008152fd5b346106cb5760007ffffffffffffffffffffffffffffffffffffffffffffffffffffffffffffffffc3601126106cb57602073ffffffffffffffffffffffffffffffffffffffff60265416604051908152f35b346106cb5760407ffffffffffffffffffffffffffffffffffffffffffffffffffffffffffffffffc3601126106cb57617c3b6182e7565b617c4361830a565b90617c4c6189a6565b73ffffffffffffffffffffffffffffffffffffffff8091169182151580617cb1575b617c7790618a92565b7fffffffffffffffffffffffff00000000000000000000000000000000000000009283602354161760235516906024541617602455600080f35b508082161515617c6e565b346106cb5760007ffffffffffffffffffffffffffffffffffffffffffffffffffffffffffffffffc3601126106cb57602061ffff60155460b01c16604051908152f35b346106cb5760007ffffffffffffffffffffffffffffffffffffffffffffffffffffffffffffffffc3601126106cb576020601f54604051908152f35b346106cb5760207ffffffffffffffffffffffffffffffffffffffffffffffffffffffffffffffffc3601126106cb57617d7261ab56565b50600435600052600a6020526040600020604051617d8f81618175565b617d9882618cf2565b8152604051617dae816111ac81600187016186e2565b6020820152600282015460408201526003820154606082015260048201546080820152600582015473ffffffffffffffffffffffffffffffffffffffff9081811660a084015264ffffffffff8181809360a01c1660c086015260c81c1660e0840152600684015490811661010084015260ff8160281c16936007851015610b91578260089261101e9661012087015260301c16610140850152826007820154166101608501520154166101808201526040519182916020835260208301906183bb565b346106cb5760407ffffffffffffffffffffffffffffffffffffffffffffffffffffffffffffffffc3601126106cb57617ea86182e7565b60243563ffffffff918282168092036106cb57617ec36189a6565b617ecb6190df565b8115613aac5773ffffffffffffffffffffffffffffffffffffffff16918260005260016020526001604060002001918254918216156134ee577f64905396482bb1067a551077143915c77b512b1cfea5db34c903943c1c2a5a1592817fffffffffffffffffffffffffffffffffffffffffffffffffffffffff0000000060209416179055604051908152a2005b346106cb5760007ffffffffffffffffffffffffffffffffffffffffffffffffffffffffffffffffc3601126106cb57602061ffff60165460a81c16604051908152f35b346106cb5760207ffffffffffffffffffffffffffffffffffffffffffffffffffffffffffffffffc3601126106cb57600435617fd56189a6565b617fdd6190df565b801561801a577f3179ee2c3011a36d6d80a4b422f208df28ef9493d1d9ce1555b3116bd26ddb3d60406017548151908152836020820152a1601755005b60046040517f1342eb4b000000000000000000000000000000000000000000000000000000008152fd5b346106cb5760407ffffffffffffffffffffffffffffffffffffffffffffffffffffffffffffffffc3601126106cb5760043560243567ffffffffffffffff81116106cb57366023820112156106cb5780600401356180a1816182ad565b916180af604051938461826c565b81835236602483830101116106cb57816000926024602093018386013783010152600b548211618117576181127f23cfaa418b5f569ff36b152a9fd02ee3ccddaa5f7eed570e777a30353b68dc3891604051918291602083526020830190618350565b0390a2005b60646040517f08c379a000000000000000000000000000000000000000000000000000000000815260206004820152601560248201527f496e76616c69642061737369676e6d656e7420696400000000000000000000006044820152fd5b6101a0810190811067ffffffffffffffff82111761156657604052565b60e0810190811067ffffffffffffffff82111761156657604052565b60c0810190811067ffffffffffffffff82111761156657604052565b610100810190811067ffffffffffffffff82111761156657604052565b610120810190811067ffffffffffffffff82111761156657604052565b6040810190811067ffffffffffffffff82111761156657604052565b6060810190811067ffffffffffffffff82111761156657604052565b67ffffffffffffffff811161156657604052565b60a0810190811067ffffffffffffffff82111761156657604052565b90601f7fffffffffffffffffffffffffffffffffffffffffffffffffffffffffffffffe0910116810190811067ffffffffffffffff82111761156657604052565b67ffffffffffffffff811161156657601f017fffffffffffffffffffffffffffffffffffffffffffffffffffffffffffffffe01660200190565b6004359073ffffffffffffffffffffffffffffffffffffffff821682036106cb57565b6024359073ffffffffffffffffffffffffffffffffffffffff821682036106cb57565b6044359073ffffffffffffffffffffffffffffffffffffffff821682036106cb57565b919082519283825260005b84811061839a5750507fffffffffffffffffffffffffffffffffffffffffffffffffffffffffffffffe0601f8460006020809697860101520116010190565b60208183018101518483018201520161835b565b906007821015610b915752565b906101a080820190835190835280518092526101c083019060208091019260005b8181106184a15750506183fb9250808501519084830390850152618350565b9160408101516040830152606081015160608301526080810151608083015273ffffffffffffffffffffffffffffffffffffffff8060a08301511660a084015264ffffffffff8060c08401511660c08501528060e08401511660e08501526101009081840151169084015261847961012080840151908501906183ae565b6101408181840151169084015261016081818401511690840152610180809201511691015290565b8451845293820193928201926001016183dc565b6004359064ffffffffff821682036106cb57565b9181601f840112156106cb5782359167ffffffffffffffff83116106cb57602083818601950101116106cb57565b7ffffffffffffffffffffffffffffffffffffffffffffffffffffffffffffffffc60409101126106cb576004359060243590565b60031115610b9157565b602080820190808352835180925260409283810182858560051b8401019601946000925b85841061856a575050505050505090565b909192939495968580618623837fffffffffffffffffffffffffffffffffffffffffffffffffffffffffffffffc086600196030188528b518051825283810151848301528781015188830152606064ffffffffff818301511690830152608073ffffffffffffffffffffffffffffffffffffffff81830151169083015260a080820151906185f78261852b565b83015260c0808201519061860a8261852b565b83015260e0809101519161010080928201520190618350565b990194019401929594939190618559565b6004359061ffff821682036106cb57565b90815180825260208080930193019160005b828110618665575050505090565b835173ffffffffffffffffffffffffffffffffffffffff1685529381019392810192600101618657565b90600182811c921680156186d8575b60208310146186a957565b7f4e487b7100000000000000000000000000000000000000000000000000000000600052602260045260246000fd5b91607f169161869e565b90600092918054916186f38361868f565b9182825260019384811690816000146187555750600114618715575b50505050565b90919394506000526020928360002092846000945b83861061874157505050500101903880808061870f565b80548587018301529401938590820161872a565b91505060209495507fffffffffffffffffffffffffffffffffffffffffffffffffffffffffffffff009193501683830152151560051b0101903880808061870f565b602080820190808352835180925260409283810182858560051b8401019601946000925b8584106187cc575050505050505090565b909192939495968580827fffffffffffffffffffffffffffffffffffffffffffffffffffffffffffffffc085600195030187528a51908151815282820151838201528682015187820152618830606080840151906101208091850152830190618350565b9173ffffffffffffffffffffffffffffffffffffffff60808181840151169084015260a09081830151169083015264ffffffffff60c08181840151169084015260e08181840151169084015261010080920151169101529901940194019295949391906187bb565b8054821015612ed0576000526003602060002091020190600090565b906006821015610b915752565b67ffffffffffffffff81116115665760051b60200190565b81601f820112156106cb578035916188f0836188c1565b926188fe604051948561826c565b808452602092838086019260051b8201019283116106cb578301905b828210618928575050505090565b813573ffffffffffffffffffffffffffffffffffffffff811681036106cb57815290830190830161891a565b9060407ffffffffffffffffffffffffffffffffffffffffffffffffffffffffffffffffc8301126106cb57600435916024359067ffffffffffffffff82116106cb576189a2916004016184c9565b9091565b73ffffffffffffffffffffffffffffffffffffffff60b8541633036189c757565b60646040517f08c379a000000000000000000000000000000000000000000000000000000000815260206004820152602060248201527f4f776e61626c653a2063616c6c6572206973206e6f7420746865206f776e65726044820152fd5b60b8549073ffffffffffffffffffffffffffffffffffffffff80911691827fffffffffffffffffffffffff000000000000000000000000000000000000000082161760b855167f8be0079c531659141344cd1fd0a4f28419497f9722a3daafe3b4186f6b6457e0600080a3565b15618a9957565b60646040517f08c379a000000000000000000000000000000000000000000000000000000000815260206004820152600c60248201527f5a65726f206164647265737300000000000000000000000000000000000000006044820152fd5b15618afe57565b60846040517f08c379a000000000000000000000000000000000000000000000000000000000815260206004820152602b60248201527f496e697469616c697a61626c653a20636f6e7472616374206973206e6f74206960448201527f6e697469616c697a696e670000000000000000000000000000000000000000006064820152fd5b91909161ffff80809416911601918211610aba57565b60ff60ea5416618ba457565b60646040517f08c379a000000000000000000000000000000000000000000000000000000000815260206004820152601060248201527f5061757361626c653a20706175736564000000000000000000000000000000006044820152fd5b60ff60ea541615618c0f57565b60646040517f08c379a000000000000000000000000000000000000000000000000000000000815260206004820152601460248201527f5061757361626c653a206e6f74207061757365640000000000000000000000006044820152fd5b60405190600654808352826020918282019060066000527ff652222313e28459528d920b65115c16c04f3efc82aaedc97be59f3f377c0d3f936000905b828210618cc257505050618cc09250038361826c565b565b855473ffffffffffffffffffffffffffffffffffffffff1684526001958601958895509381019390910190618caa565b9060405191828154918282526020928383019160005283600020936000905b828210618d2757505050618cc09250038361826c565b855484526001958601958895509381019390910190618d11565b90618d4b826188c1565b604090618d5a8251918261826c565b8381527fffffffffffffffffffffffffffffffffffffffffffffffffffffffffffffffe0618d8882956188c1565b019160005b838110618d9a5750505050565b6020908251618da8816181e7565b600081528260008183015260008583015260608083015260006080830152600060a0830152600060c0830152600060e08301526000610100830152828601015201618d8d565b7fffffffffffffffffffffffffffffffffffffffffffffffffffffffffffffffff8114610aba5760010190565b8051821015612ed05760209160051b010190565b8115618e39570690565b7f4e487b7100000000000000000000000000000000000000000000000000000000600052601260045260246000fd5b600454811015612ed05760046000527f8a35acfbc15ff81a39ae7d344fd709f28e8600b4aa8c65c6b64bfe7fe36bd19b0190600090565b600654811015612ed05760066000527ff652222313e28459528d920b65115c16c04f3efc82aaedc97be59f3f377c0d3f0190600090565b8054821015612ed05760005260206000200190600090565b73ffffffffffffffffffffffffffffffffffffffff808092169283151580618fc5575b618f1a90618a92565b169081600052602160205260406000205416618f675760005260216020526040600020907fffffffffffffffffffffffff0000000000000000000000000000000000000000825416179055565b60646040517f08c379a000000000000000000000000000000000000000000000000000000000815260206004820152601260248201527f416c7265616479207265676973746572656400000000000000000000000000006044820152fd5b508082161515618f11565b91908201809211610aba57565b61011c6002815414618fef5760029055565b60646040517f08c379a000000000000000000000000000000000000000000000000000000000815260206004820152601f60248201527f5265656e7472616e637947756172643a207265656e7472616e742063616c6c006044820152fd5b91908203918211610aba57565b81810292918115918404141715610aba57565b8115618e39570490565b91909164ffffffffff80809416911601918211610aba57565b9061909a826188c1565b6190a7604051918261826c565b8281527fffffffffffffffffffffffffffffffffffffffffffffffffffffffffffffffe06190d582946188c1565b0190602036910137565b6017541561926c576018546190f4814361904d565b90619102601754809361906d565b918261910e575b505050565b91906191249061911e838561905a565b90618fd0565b6018558062f099c06191466019549461914160069687549061905a565b61905a565b04915b1561910957825464ffffffffff9060169182549160b89180600094841c168452601260205260409160038386200155808554841c1684528660018093862001558454938185851c1691821461923f5750917bffffffffff0000000000000000000000000000000000000000000000917fffffffff0000000000ffffffffffffffffffffffffffffffffffffffffffffff9301901b1691161790558015619211577fffffffffffffffffffffffffffffffffffffffffffffffffffffffffffffffff0180619149565b602460007f4e487b710000000000000000000000000000000000000000000000000000000081526011600452fd5b807f4e487b7100000000000000000000000000000000000000000000000000000000602492526011600452fd5b43601855565b8054906801000000000000000082101561156657816192999160016192ce94018155618ed6565b81939154907fffffffffffffffffffffffffffffffffffffffffffffffffffffffffffffffff9060031b92831b921b19161790565b9055565b60ff1660ff8114610aba5760010190565b73ffffffffffffffffffffffffffffffffffffffff8181166000818152600260209081526040808320600783528184209196959293909291541561966057619329618b98565b6193328661a8d7565b60165486835260028087528984200180547fffffffffffffff0000000000ffffffffffffffffffffffffffffffffffffffff1660189290921c78ffffffffff00000000000000000000000000000000000000001691909117905564ffffffffff9086868215158080619659575b1561963d575081927f75690555e75b04e280e646889defdcbefd8401507e5394d1173fd84290944c29928652601b8252858c8120556193e3818c896026541661b0a1565b8b51908152a25b858252601c8552878220548116806196385750636648cc0b5b8165ffffffffffff91168142160381811161960b57878452601c8752898420908280835492169160501c160191821161960b5789926194a67f63a49f9cdfcfe1fddc8bd7a881449dc97b664e888be5c2fdee7ca4a70b447e43989796959361955f93907fffffffffffffffffffffffffffffffff000000000000ffffffffffffffffffff6fffffffffffff0000000000000000000083549260501b169116179055565b888352601c87528383208142167fffffffffffffffffffffffffffffffffffffffffffffffffffffff00000000008254161790556002860190858254169a8b8552600389526001868620018b86528952858520546195e9575b506195118160165460501c1642618fd0565b82547fffff0000000000ffffffffffffffffffffffffffffffffffffffffffffffffff16911660c81b7dffffffffff0000000000000000000000000000000000000000000000000016179055565b8061271061957660135461ffff601a54169061905a565b04948581548181106000146195d7575050555b868152601c8552207fffffffffffffffffffffffffffffffff000000000000ffffffffffffffffffff81541690556195cb82826026541683601554169061b0a1565b601554169551908152a4565b6195e292935061904d565b9055619589565b619605908c865260038a526196008188882061ae49565b61ad67565b386194ff565b6024847f4e487b710000000000000000000000000000000000000000000000000000000081526011600452fd5b619403565b91505061964b575b506193ea565b601b86528883205538619645565b508561939f565b600487517fa7c1cb49000000000000000000000000000000000000000000000000000000008152fd5b73ffffffffffffffffffffffffffffffffffffffff808216600081815260026020908152604080832060078352818420939796959293919290915415619989576196d1618b98565b6196da8661a8d7565b601654868a526002808752858b200180547fffffffffffffff0000000000ffffffffffffffffffffffffffffffffffffffff1660189290921c78ffffffffff00000000000000000000000000000000000000001691909117905564ffffffffff929086868215158080619982575b15619966575081927f75690555e75b04e280e646889defdcbefd8401507e5394d1173fd84290944c29928d52601b82528c8881205561978c818c886026541661b0a1565b8751908152a25b858952601c8552838920548316806199615750636648cc0b5b8365ffffffffffff91168142160381811161993457878b52601c8752858b20908280835492169160501c1601918211619934579161984d6002927f9335a7723b09748526d22902742e96812ad183ab52d86c2030fe407ff626e50d999a9b9c94907fffffffffffffffffffffffffffffffff000000000000ffffffffffffffffffff6fffffffffffff0000000000000000000083549260501b169116179055565b888352601c87528583208542167fffffffffffffffffffffffffffffffffffffffffffffffffffffff00000000008254161790550191825416978882526003865260018583200188835286528480832054619916575b505050619909826198bb8160165460501c1642618fd0565b83547fffff0000000000ffffffffffffffffffffffffffffffffffffffffffffffffff16911660c81b7dffffffffff0000000000000000000000000000000000000000000000000016178255565b5460c81c169051908152a3565b8161960091848c61992c965260038a522061ae49565b3880846198a3565b60248b7f4e487b710000000000000000000000000000000000000000000000000000000081526011600452fd5b6197ac565b915050619974575b50619793565b601b8652848a20553861996e565b508c619748565b600483517fa7c1cb49000000000000000000000000000000000000000000000000000000008152fd5b73ffffffffffffffffffffffffffffffffffffffff81811660008181526002602090815260408083206007835281842093979495929491935415619cce576199f8618b98565b619a018761a8d7565b601654878a526002808852868b200180547fffffffffffffff0000000000ffffffffffffffffffffffffffffffffffffffff1660189290921c78ffffffffff00000000000000000000000000000000000000001691909117905564ffffffffff939087878215158080619cc7575b15619cab575081927f75690555e75b04e280e646889defdcbefd8401507e5394d1173fd84290944c29928d52601b82528c89812055619ab3818d876026541661b0a1565b8851908152a25b868952601c865284892054841680619ca65750636648cc0b5b8465ffffffffffff91168142160381811161993457888b52601c8852868b20908280835492169160501c16019182116199345790619b4c91907fffffffffffffffffffffffffffffffff000000000000ffffffffffffffffffff6fffffffffffff0000000000000000000083549260501b169116179055565b868952601c86528489208442167fffffffffffffffffffffffffffffffffffffffffffffffffffffff000000000082541617905560028201928582855416998a8c52600389526001828d20018a8d5289528b8b83822054619c87575b50505050619c0f85619bc18160165460501c1642618fd0565b86547fffff0000000000ffffffffffffffffffffffffffffffffffffffffffffffffff16911660c81b7dffffffffff0000000000000000000000000000000000000000000000000016178555565b619c475750507f9335a7723b09748526d22902742e96812ad183ab52d86c2030fe407ff626e50d949596505460c81c169051908152a3565b9150915082877f63a49f9cdfcfe1fddc8bd7a881449dc97b664e888be5c2fdee7ca4a70b447e4395949861271061957660135461ffff601a54169061905a565b619c9d93828492619600945260038d522061ae49565b85388b8b619ba8565b619ad3565b915050619cb9575b50619aba565b601b8752858a205538619cb3565b508c619a6f565b600484517fa7c1cb49000000000000000000000000000000000000000000000000000000008152fd5b908160209103126106cb575180151581036106cb5790565b15619da25773ffffffffffffffffffffffffffffffffffffffff601e54166020601f546024604051809481937f082df8ca00000000000000000000000000000000000000000000000000000000835260048301525afa908115612a1f57600091619d77575090565b619d98915060203d8111619d9b575b619d90818361826c565b810190619cf7565b90565b503d619d86565b73ffffffffffffffffffffffffffffffffffffffff601e5416601f546020549061ffff61271091818460201c16830393838511610aba57602094619dee93612def9260301c169061904d565b046024604051809481937f082df8ca00000000000000000000000000000000000000000000000000000000835260048301525afa908115612a1f57600091619d77575090565b60ff7fffffffffffffffffffffffffffffffffffffffffffffffffffffffffffffffff9116019060ff8211610aba57565b80546801000000000000000081101561156657619e8791600182018155618898565b619f1357600260409173ffffffffffffffffffffffffffffffffffffffff8451167fffffffffffffffffffffffff000000000000000000000000000000000000000082541617815560208401516001820155019101516006811015610b915760ff7fffffffffffffffffffffffffffffffffffffffffffffffffffffffffffffff008354169116179055565b7f4e487b7100000000000000000000000000000000000000000000000000000000600052600060045260246000fd5b600080828252600e602052604082206040518082602082945493848152019086526020862092865b81811061a825575050619f7f9250038261826c565b838352600e602052604083205490835b82811061a7e057505050826000526011602052619fb060406000205461a89c565b60ff83161061a7d85782600052600a60205273ffffffffffffffffffffffffffffffffffffffff60086040600020015416151590619fed82619d0f565b9284600052600a60205261a0046040600020618cf2565b908151938415612ed0576020830151600052600c602052858460026040600020015414600080918a8252600a6020526002604083200154948b8360205490601f549261271061a0578561ffff861661905a565b04988061a7cf575b61a671575b505050505060001461a64f57505061a0cd61ffff60155460c01c169360ff61a0b161a0c761271061a0bf61a0b861a0a78361a09f8d8d61905a565b04809b61904d565b8661a0b189619e34565b169061906d565b998861905a565b04809661904d565b92619e34565b935b60005b87811061a41b57505050505050505081600052602560205260406000208054918061a412575b61a1c4575b505080600052600a6020526003604060002001548061a19c575b5080600052600a6020526004604060002001548061a174575b50600052600a6020526006604060002001650400000000007fffffffffffffffffffffffffffffffffffffffffffffffffffff00ffffffffff825416179055600190565b61a1969073ffffffffffffffffffffffffffffffffffffffff6015541661b2aa565b3861a130565b61a1be9073ffffffffffffffffffffffffffffffffffffffff6014541661b2aa565b3861a117565b61a1cd826188c1565b9161a1db604051938461826c565b8083526020830180926000526020600020906000905b83821061a3b55750505060005b81811061a2e257505082600052600a60205273ffffffffffffffffffffffffffffffffffffffff600560406000200154169160405192608084019046855285602086015260408501526060916080838601525180915260a0840192916000905b82821061a297575050505090807f2faa16bd9d858bdbd007d15bb6ae06ff3f238c90433800dafb4c0f7e3f07a241920390a1388061a0fd565b9091929360208260019261a2d66040895173ffffffffffffffffffffffffffffffffffffffff81511684528581015186850152015160408301906188b4565b0195019392019061a25e565b73ffffffffffffffffffffffffffffffffffffffff601e54169073ffffffffffffffffffffffffffffffffffffffff61a31b8287618e1b565b515116602061a32a8388618e1b565b510151833b156106cb576040517f40c10f1900000000000000000000000000000000000000000000000000000000815273ffffffffffffffffffffffffffffffffffffffff9290921660048301526024820152916000908390604490829084905af1918215612a1f5761a3a19261a3a65750618dee565b61a1fe565b61a3af9061823c565b38610e0c565b60405161a3c181618220565b73ffffffffffffffffffffffffffffffffffffffff84541681526001840154602082015260ff6002850154166006811015610b9157600192826020926040600395015281520193019101909161a1f1565b5081151561a0f8565b8061a42961a4ac9284618e1b565b516000908152600c602052604090206002810154891461a4b15773ffffffffffffffffffffffffffffffffffffffff600361271a92017a0100000000000000000000000000000000000000000000000000007fffffffffff00ffffffffffffffffffffffffffffffffffffffffffffffffffff8254161780915560281c166192e3565b61a0d2565b6003017a0200000000000000000000000000000000000000000000000000007fffffffffff00ffffffffffffffffffffffffffffffffffffffffffffffffffff8254161780825560ff8160c81c169061a5098261852b565b600191820361a5b257508761a589575b8b8061a580575b61a52c575b5050618dee565b61a579918d600052602560205273ffffffffffffffffffffffffffffffffffffffff6040600020915460281c16916040519261a56784618220565b83528a60208401526040830152619e65565b388061a525565b5085151561a520565b61a5ad8873ffffffffffffffffffffffffffffffffffffffff845460281c1661b2aa565b61a519565b9050868061a626575b50508a8061a61d575b61a5ce5750618dee565b61a3af908c600052602560205273ffffffffffffffffffffffffffffffffffffffff6040600020915460281c16906040519161a60983618220565b825286602083015260006040830152619e65565b5084151561a5c4565b73ffffffffffffffffffffffffffffffffffffffff61a6489260281c1661b2aa565b388661a5bb565b9160ff61a66361a66b93958288169061906d565b95169061906d565b9361a0cf565b6040519461a67e86618250565b61ffff8416865261ffff8460101c16602087015261a71861271061a6dc604089019761ffff8860201c16895261ffff608060608c019b828b60301c168d52019860401c168852858752602560205261ffff604088209851169061905a565b0473ffffffffffffffffffffffffffffffffffffffff60145416906040519161a70483618220565b825260208201526005604082015285619e65565b1561a06457604073ffffffffffffffffffffffffffffffffffffffff9260089261a79961271061a76361a7c59a61ffff8361a75982601f549451168461905a565b049b51169061905a565b0497828452600a602052866006868620015460301c169085519161a78683618220565b8252602082015260048582015287619e65565b8152600a60205220015416916040519261a7b284618220565b8352602083015260036040830152619e65565b388080808e61a064565b5088151561a05f565b505050600090565b61a7ea8183618e1b565b5180600052600f60205260ff8060406000205416908716811161a818575b505061a81390618dee565b619f8f565b9550935061a8133861a808565b8454835260019485019486945060209093019201619f6a565b60646040517f08c379a000000000000000000000000000000000000000000000000000000000815260206004820152600f60248201527f4e6f7420696d706c656d656e74656400000000000000000000000000000000006044820152fd5b8060011b81810460021482151715610aba576003619d9892061560001461a8cc57600360ff60005b169104618fd0565b600360ff600161a8c4565b619d989061a8e36190df565b600064ffffffffff908160165460b81c169061a91f8473ffffffffffffffffffffffffffffffffffffffff166000526007602052604060002090565b5415801561a9c0575b1561a95e5750505073ffffffffffffffffffffffffffffffffffffffff6000915b16600052601b60205260406000205490618fd0565b61a9b06127109261914173ffffffffffffffffffffffffffffffffffffffff956002604061a9b996898b1681528260205220015460a01c1662f099c061a9a96019546017549061905a565b049261904d565b612def8561a9f4565b049161a949565b5073ffffffffffffffffffffffffffffffffffffffff84168152600260205282600260408320015460a01c1682111561a928565b61aa7762278d0091600061aa288273ffffffffffffffffffffffffffffffffffffffff166000526007602052604060002090565b5415158061ab25575b1561aaa8575073ffffffffffffffffffffffffffffffffffffffff636648cc0b915b16600052601c60205261244465ffffffffffff60406000205460501c164290618fd0565b04600c811061aaa35750600c5b6101f49080820291820403610aba57612710908101809111610aba5790565b61aa84565b61aad28273ffffffffffffffffffffffffffffffffffffffff166000526007602052604060002090565b5461aaf4575073ffffffffffffffffffffffffffffffffffffffff429161aa53565b64ffffffffff604073ffffffffffffffffffffffffffffffffffffffff928385168152601c6020522054169161aa53565b5073ffffffffffffffffffffffffffffffffffffffff82168152601c60205264ffffffffff6040822054161561aa31565b6040519061ab6382618175565b8160608152606060208201526101806000918260408201528260608201528260808201528260a08201528260c08201528260e0820152826101008201528261012082015282610140820152826101608201520152565b9061abc3826188c1565b60409061abd28251918261826c565b8381527fffffffffffffffffffffffffffffffffffffffffffffffffffffffffffffffe061ac0082956188c1565b019160005b83811061ac125750505050565b602090825161ac20816181ca565b6000815282600081830152600085830152606060008184015260006080840152600060a0840152600060c084015260e083015282860101520161ac05565b6000546040516020810191825242604082015243406060820152606081526080810181811067ffffffffffffffff821117611566576040525190208060005590565b919091600181019073ffffffffffffffffffffffffffffffffffffffff84169160009183835281602052604083205461ad365780546801000000000000000081101561ad09576040949596613a0a82600161acfe9401855584618ed6565b549382526020522055565b6024847f4e487b710000000000000000000000000000000000000000000000000000000081526041600452fd5b602484604051907f05e3de8f0000000000000000000000000000000000000000000000000000000082526004820152fd5b73ffffffffffffffffffffffffffffffffffffffff80911660009181835260076020526040832054801561220c577fffffffffffffffffffffffffffffffffffffffffffffffffffffffffffffffff9161ade161addc61adca8560065401618e9f565b91905491868601928561211d85618e9f565b618e9f565b90549060031b1c16845260076020526040842055600654801561ae1c570161ae0b61218182618e9f565b600655815260076020526040812055565b6024847f4e487b710000000000000000000000000000000000000000000000000000000081526031600452fd5b600181019073ffffffffffffffffffffffffffffffffffffffff80931690600093828552836020526040852054801561af2e577fffffffffffffffffffffffffffffffffffffffffffffffffffffffffffffffff9161aeca61aec461aeb18587540187618ed6565b91905491868601928561211d858b618ed6565b85618ed6565b90549060031b1c1686528460205260408620558154801561af0157019061aef46121818383618ed6565b5582526020526040812055565b6024867f4e487b710000000000000000000000000000000000000000000000000000000081526031600452fd5b602484604051907f28a32c190000000000000000000000000000000000000000000000000000000082526004820152fd5b6001810190826000528160205260406000205461af905761af808382619272565b5491600052602052604060002055565b602483604051907f346c4a0e0000000000000000000000000000000000000000000000000000000082526004820152fd5b91906001830160009082825280602052604082205461b040578454946801000000000000000086101561b013578361b006619299886001604098999a01855584618ed6565b9055549382526020522055565b6024837f4e487b710000000000000000000000000000000000000000000000000000000081526041600452fd5b602483604051907fbc436f5e0000000000000000000000000000000000000000000000000000000082526004820152fd5b3d1561b09c573d9061b082826182ad565b9161b090604051938461826c565b82523d6000602084013e565b606090565b600092918361b13d61b16982957f7472616e7366657228616464726573732c75696e743235362900000000000000602060405161b0dd81618204565b60198152015260405192839160208301967fa9059cbb000000000000000000000000000000000000000000000000000000008852602484016020909392919373ffffffffffffffffffffffffffffffffffffffff60408201951681520152565b037fffffffffffffffffffffffffffffffffffffffffffffffffffffffffffffffe0810183528261826c565b51925af161b17561b071565b901590811561b1b0575b5061b18657565b60046040517fbfa871c5000000000000000000000000000000000000000000000000000000008152fd5b805180151592508261b1c5575b50503861b17f565b61b1d89250602080918301019101619cf7565b15388061b1bd565b90600080949381947fffffffff00000000000000000000000000000000000000000000000000000000602560405161b21781618220565b8181527f7432353629000000000000000000000000000000000000000000000000000000604060208301927f7472616e7366657246726f6d28616464726573732c616464726573732c75696e84520152201693604051926020840195865273ffffffffffffffffffffffffffffffffffffffff809216602485015216604483015260648201526064815261b16981618250565b600080809381935af161b2bb61b071565b501561b1865756fea2646970667358221220098f0e58c46a5612f581837b92cff119d8c35ef539f92a370b0eeb128a6ebfad64736f6c63430008140033",
  "linkReferences": {},
  "deployedLinkReferences": {}
}