{
  "_format": "hh-sol-artifact-1",
  "contractName": "WorkerHub",
  "sourceName": "contracts/WorkerHub.sol",
  "abi": [
    {
      "inputs": [],
      "name": "AlreadyCommitted",
      "type": "error"
    },
    {
      "inputs": [],
      "name": "AlreadyRevealed",
      "type": "error"
    },
    {
      "inputs": [],
      "name": "AlreadySubmitted",
      "type": "error"
    },
    {
      "inputs": [
        {
          "internalType": "bytes32",
          "name": "value",
          "type": "bytes32"
        }
      ],
      "name": "Bytes32Set_DuplicatedValue",
      "type": "error"
    },
    {
      "inputs": [],
      "name": "CommitTimeout",
      "type": "error"
    },
    {
      "inputs": [],
      "name": "FailedTransfer",
      "type": "error"
    },
    {
      "inputs": [],
      "name": "InferMustBeSolvingState",
      "type": "error"
    },
    {
      "inputs": [],
      "name": "InvalidCommitment",
      "type": "error"
    },
    {
      "inputs": [],
      "name": "InvalidData",
      "type": "error"
    },
    {
      "inputs": [],
      "name": "InvalidInferenceStatus",
      "type": "error"
    },
    {
      "inputs": [],
      "name": "InvalidMiner",
      "type": "error"
    },
    {
      "inputs": [],
      "name": "InvalidNonce",
      "type": "error"
    },
    {
      "inputs": [],
      "name": "InvalidReveal",
      "type": "error"
    },
    {
      "inputs": [],
      "name": "InvalidRole",
      "type": "error"
    },
    {
      "inputs": [],
      "name": "NotCommitted",
      "type": "error"
    },
    {
      "inputs": [],
      "name": "NotEnoughMiners",
      "type": "error"
    },
    {
      "inputs": [],
      "name": "RevealTimeout",
      "type": "error"
    },
    {
      "inputs": [
        {
          "internalType": "uint256",
          "name": "value",
          "type": "uint256"
        }
      ],
      "name": "Uint256Set_DuplicatedValue",
      "type": "error"
    },
    {
      "inputs": [],
      "name": "Unauthorized",
      "type": "error"
    },
    {
      "inputs": [],
      "name": "ZeroValue",
      "type": "error"
    },
    {
      "anonymous": false,
      "inputs": [
        {
          "indexed": true,
          "internalType": "address",
          "name": "miner",
          "type": "address"
        },
        {
          "indexed": true,
          "internalType": "uint256",
          "name": "assigmentId",
          "type": "uint256"
        },
        {
          "indexed": false,
          "internalType": "bytes32",
          "name": "commitment",
          "type": "bytes32"
        }
      ],
      "name": "CommitmentSubmission",
      "type": "event"
    },
    {
      "anonymous": false,
      "inputs": [
        {
          "indexed": false,
          "internalType": "uint256",
          "name": "chainId",
          "type": "uint256"
        },
        {
          "indexed": false,
          "internalType": "uint256",
          "name": "inferenceId",
          "type": "uint256"
        },
        {
          "indexed": false,
          "internalType": "address",
          "name": "modelAddress",
          "type": "address"
        },
        {
          "components": [
            {
              "internalType": "address",
              "name": "receiver",
              "type": "address"
            },
            {
              "internalType": "uint256",
              "name": "amount",
              "type": "uint256"
            },
            {
              "internalType": "enum IWorkerHub.DAOTokenReceiverRole",
              "name": "role",
              "type": "uint8"
            }
          ],
          "indexed": false,
          "internalType": "struct IWorkerHub.DAOTokenReceiverInfor[]",
          "name": "receivers",
          "type": "tuple[]"
        }
      ],
      "name": "DAOTokenMintedV2",
      "type": "event"
    },
    {
      "anonymous": false,
      "inputs": [
        {
          "components": [
            {
              "internalType": "uint16",
              "name": "minerPercentage",
              "type": "uint16"
            },
            {
              "internalType": "uint16",
              "name": "userPercentage",
              "type": "uint16"
            },
            {
              "internalType": "uint16",
              "name": "referrerPercentage",
              "type": "uint16"
            },
            {
              "internalType": "uint16",
              "name": "refereePercentage",
              "type": "uint16"
            },
            {
              "internalType": "uint16",
              "name": "l2OwnerPercentage",
              "type": "uint16"
            }
          ],
          "indexed": false,
          "internalType": "struct IWorkerHub.DAOTokenPercentage",
          "name": "oldValue",
          "type": "tuple"
        },
        {
          "components": [
            {
              "internalType": "uint16",
              "name": "minerPercentage",
              "type": "uint16"
            },
            {
              "internalType": "uint16",
              "name": "userPercentage",
              "type": "uint16"
            },
            {
              "internalType": "uint16",
              "name": "referrerPercentage",
              "type": "uint16"
            },
            {
              "internalType": "uint16",
              "name": "refereePercentage",
              "type": "uint16"
            },
            {
              "internalType": "uint16",
              "name": "l2OwnerPercentage",
              "type": "uint16"
            }
          ],
          "indexed": false,
          "internalType": "struct IWorkerHub.DAOTokenPercentage",
          "name": "newValue",
          "type": "tuple"
        }
      ],
      "name": "DAOTokenPercentageUpdated",
      "type": "event"
    },
    {
      "anonymous": false,
      "inputs": [
        {
          "indexed": false,
          "internalType": "address",
          "name": "oldAddress",
          "type": "address"
        },
        {
          "indexed": false,
          "internalType": "address",
          "name": "newAddress",
          "type": "address"
        }
      ],
      "name": "DAOTokenUpdated",
      "type": "event"
    },
    {
      "anonymous": false,
      "inputs": [
        {
          "indexed": true,
          "internalType": "uint256",
          "name": "inferenceId",
          "type": "uint256"
        },
        {
          "indexed": false,
          "internalType": "enum IWorkerHub.InferenceStatus",
          "name": "newStatus",
          "type": "uint8"
        }
      ],
      "name": "InferenceStatusUpdate",
      "type": "event"
    },
    {
      "anonymous": false,
      "inputs": [
        {
          "indexed": false,
          "internalType": "uint8",
          "name": "version",
          "type": "uint8"
        }
      ],
      "name": "Initialized",
      "type": "event"
    },
    {
      "anonymous": false,
      "inputs": [
        {
          "indexed": true,
          "internalType": "uint256",
          "name": "assignmentId",
          "type": "uint256"
        },
        {
          "indexed": true,
          "internalType": "uint256",
          "name": "inferenceId",
          "type": "uint256"
        },
        {
          "indexed": true,
          "internalType": "address",
          "name": "miner",
          "type": "address"
        }
      ],
      "name": "MinerRoleSeized",
      "type": "event"
    },
    {
      "anonymous": false,
      "inputs": [
        {
          "indexed": true,
          "internalType": "uint256",
          "name": "assignmentId",
          "type": "uint256"
        },
        {
          "indexed": true,
          "internalType": "uint256",
          "name": "inferenceId",
          "type": "uint256"
        },
        {
          "indexed": true,
          "internalType": "address",
          "name": "miner",
          "type": "address"
        },
        {
          "indexed": false,
          "internalType": "uint40",
          "name": "expiredAt",
          "type": "uint40"
        }
      ],
      "name": "NewAssignment",
      "type": "event"
    },
    {
      "anonymous": false,
      "inputs": [
        {
          "indexed": true,
          "internalType": "uint256",
          "name": "inferenceId",
          "type": "uint256"
        },
        {
          "indexed": true,
          "internalType": "address",
          "name": "model",
          "type": "address"
        },
        {
          "indexed": true,
          "internalType": "address",
          "name": "creator",
          "type": "address"
        },
        {
          "indexed": false,
          "internalType": "uint256",
          "name": "value",
          "type": "uint256"
        },
        {
          "indexed": false,
          "internalType": "uint256",
          "name": "originInferenceId",
          "type": "uint256"
        }
      ],
      "name": "NewInference",
      "type": "event"
    },
    {
      "anonymous": false,
      "inputs": [
        {
          "indexed": true,
          "internalType": "address",
          "name": "previousOwner",
          "type": "address"
        },
        {
          "indexed": true,
          "internalType": "address",
          "name": "newOwner",
          "type": "address"
        }
      ],
      "name": "OwnershipTransferred",
      "type": "event"
    },
    {
      "anonymous": false,
      "inputs": [
        {
          "indexed": false,
          "internalType": "address",
          "name": "account",
          "type": "address"
        }
      ],
      "name": "Paused",
      "type": "event"
    },
    {
      "anonymous": false,
      "inputs": [
        {
          "indexed": true,
          "internalType": "address",
          "name": "miner",
          "type": "address"
        },
        {
          "indexed": true,
          "internalType": "uint256",
          "name": "assigmentId",
          "type": "uint256"
        },
        {
          "indexed": false,
          "internalType": "uint40",
          "name": "nonce",
          "type": "uint40"
        },
        {
          "indexed": false,
          "internalType": "bytes",
          "name": "output",
          "type": "bytes"
        }
      ],
      "name": "RevealSubmission",
      "type": "event"
    },
    {
      "anonymous": false,
      "inputs": [
        {
          "indexed": true,
          "internalType": "address",
          "name": "miner",
          "type": "address"
        },
        {
          "indexed": true,
          "internalType": "uint256",
          "name": "assigmentId",
          "type": "uint256"
        }
      ],
      "name": "SolutionSubmission",
      "type": "event"
    },
    {
      "anonymous": false,
      "inputs": [
        {
          "indexed": true,
          "internalType": "uint256",
          "name": "assignmentId",
          "type": "uint256"
        },
        {
          "indexed": false,
          "internalType": "bytes",
          "name": "data",
          "type": "bytes"
        }
      ],
      "name": "StreamedData",
      "type": "event"
    },
    {
      "anonymous": false,
      "inputs": [
        {
          "indexed": true,
          "internalType": "uint256",
          "name": "inferenceId",
          "type": "uint256"
        },
        {
          "indexed": true,
          "internalType": "address",
          "name": "creator",
          "type": "address"
        },
        {
          "indexed": false,
          "internalType": "uint256",
          "name": "value",
          "type": "uint256"
        }
      ],
      "name": "TopUpInfer",
      "type": "event"
    },
    {
      "anonymous": false,
      "inputs": [
        {
          "indexed": false,
          "internalType": "address",
          "name": "account",
          "type": "address"
        }
      ],
      "name": "Unpaused",
      "type": "event"
    },
    {
      "inputs": [],
      "name": "assignmentNumber",
      "outputs": [
        {
          "internalType": "uint256",
          "name": "",
          "type": "uint256"
        }
      ],
      "stateMutability": "view",
      "type": "function"
    },
    {
      "inputs": [
        {
          "internalType": "uint256",
          "name": "",
          "type": "uint256"
        }
      ],
      "name": "assignments",
      "outputs": [
        {
          "internalType": "uint256",
          "name": "inferenceId",
          "type": "uint256"
        },
        {
          "internalType": "bytes32",
          "name": "commitment",
          "type": "bytes32"
        },
        {
          "internalType": "bytes32",
          "name": "digest",
          "type": "bytes32"
        },
        {
          "internalType": "uint40",
          "name": "revealNonce",
          "type": "uint40"
        },
        {
          "internalType": "address",
          "name": "worker",
          "type": "address"
        },
        {
          "internalType": "enum IWorkerHub.AssignmentRole",
          "name": "role",
          "type": "uint8"
        },
        {
          "internalType": "enum IWorkerHub.Vote",
          "name": "vote",
          "type": "uint8"
        },
        {
          "internalType": "bytes",
          "name": "output",
          "type": "bytes"
        }
      ],
      "stateMutability": "view",
      "type": "function"
    },
    {
      "inputs": [
        {
          "internalType": "uint256",
          "name": "_assignId",
          "type": "uint256"
        },
        {
          "internalType": "bytes32",
          "name": "_commitment",
          "type": "bytes32"
        }
      ],
      "name": "commit",
      "outputs": [],
      "stateMutability": "nonpayable",
      "type": "function"
    },
    {
      "inputs": [],
      "name": "commitDuration",
      "outputs": [
        {
          "internalType": "uint40",
          "name": "",
          "type": "uint40"
        }
      ],
      "stateMutability": "view",
      "type": "function"
    },
    {
      "inputs": [],
      "name": "daoToken",
      "outputs": [
        {
          "internalType": "address",
          "name": "",
          "type": "address"
        }
      ],
      "stateMutability": "view",
      "type": "function"
    },
    {
      "inputs": [],
      "name": "daoTokenReward",
      "outputs": [
        {
          "internalType": "uint256",
          "name": "",
          "type": "uint256"
        }
      ],
      "stateMutability": "view",
      "type": "function"
    },
    {
      "inputs": [
        {
          "internalType": "uint256",
          "name": "_inferenceId",
          "type": "uint256"
        }
      ],
      "name": "getAssignmentByInference",
      "outputs": [
        {
          "internalType": "uint256[]",
          "name": "",
          "type": "uint256[]"
        }
      ],
      "stateMutability": "view",
      "type": "function"
    },
    {
      "inputs": [
        {
          "internalType": "address",
          "name": "_modelAddress",
          "type": "address"
        }
      ],
      "name": "getMinFeeToUse",
      "outputs": [
        {
          "internalType": "uint256",
          "name": "",
          "type": "uint256"
        }
      ],
      "stateMutability": "view",
      "type": "function"
    },
    {
      "inputs": [],
      "name": "getTreasuryAddress",
      "outputs": [
        {
          "internalType": "address",
          "name": "",
          "type": "address"
        }
      ],
      "stateMutability": "view",
      "type": "function"
    },
    {
      "inputs": [
        {
          "internalType": "bytes",
          "name": "_input",
          "type": "bytes"
        },
        {
          "internalType": "address",
          "name": "_creator",
          "type": "address"
        }
      ],
      "name": "infer",
      "outputs": [
        {
          "internalType": "uint256",
          "name": "",
          "type": "uint256"
        }
      ],
      "stateMutability": "payable",
      "type": "function"
    },
    {
      "inputs": [],
      "name": "inferenceNumber",
      "outputs": [
        {
          "internalType": "uint256",
          "name": "",
          "type": "uint256"
        }
      ],
      "stateMutability": "view",
      "type": "function"
    },
    {
      "inputs": [
        {
          "internalType": "uint256",
          "name": "",
          "type": "uint256"
        }
      ],
      "name": "inferences",
      "outputs": [
        {
          "internalType": "bytes",
          "name": "input",
          "type": "bytes"
        },
        {
          "internalType": "uint256",
          "name": "value",
          "type": "uint256"
        },
        {
          "internalType": "uint256",
          "name": "feeL2",
          "type": "uint256"
        },
        {
          "internalType": "uint256",
          "name": "feeTreasury",
          "type": "uint256"
        },
        {
          "internalType": "address",
          "name": "modelAddress",
          "type": "address"
        },
        {
          "internalType": "uint40",
          "name": "submitTimeout",
          "type": "uint40"
        },
        {
          "internalType": "uint40",
          "name": "commitTimeout",
          "type": "uint40"
        },
        {
          "internalType": "uint40",
          "name": "revealTimeout",
          "type": "uint40"
        },
        {
          "internalType": "enum IWorkerHub.InferenceStatus",
          "name": "status",
          "type": "uint8"
        },
        {
          "internalType": "address",
          "name": "creator",
          "type": "address"
        },
        {
          "internalType": "address",
          "name": "processedMiner",
          "type": "address"
        },
        {
          "internalType": "address",
          "name": "referrer",
          "type": "address"
        }
      ],
      "stateMutability": "view",
      "type": "function"
    },
    {
      "inputs": [
        {
          "internalType": "address",
          "name": "_wEAI",
          "type": "address"
        },
        {
          "internalType": "address",
          "name": "_l2Owner",
          "type": "address"
        },
        {
          "internalType": "address",
          "name": "_treasury",
          "type": "address"
        },
        {
          "internalType": "address",
          "name": "_daoToken",
          "type": "address"
        },
        {
          "internalType": "address",
          "name": "_stakingHub",
          "type": "address"
        },
        {
          "internalType": "uint16",
          "name": "_feeL2Percentage",
          "type": "uint16"
        },
        {
          "internalType": "uint16",
          "name": "_feeTreasuryPercentage",
          "type": "uint16"
        },
        {
          "internalType": "uint8",
          "name": "_minerRequirement",
          "type": "uint8"
        },
        {
          "internalType": "uint40",
          "name": "_submitDuration",
          "type": "uint40"
        },
        {
          "internalType": "uint40",
          "name": "_commitDuration",
          "type": "uint40"
        },
        {
          "internalType": "uint40",
          "name": "_revealDuration",
          "type": "uint40"
        },
        {
          "internalType": "uint16",
          "name": "_feeRatioMinerValidor",
          "type": "uint16"
        },
        {
          "internalType": "uint256",
          "name": "_daoTokenReward",
          "type": "uint256"
        },
        {
          "components": [
            {
              "internalType": "uint16",
              "name": "minerPercentage",
              "type": "uint16"
            },
            {
              "internalType": "uint16",
              "name": "userPercentage",
              "type": "uint16"
            },
            {
              "internalType": "uint16",
              "name": "referrerPercentage",
              "type": "uint16"
            },
            {
              "internalType": "uint16",
              "name": "refereePercentage",
              "type": "uint16"
            },
            {
              "internalType": "uint16",
              "name": "l2OwnerPercentage",
              "type": "uint16"
            }
          ],
          "internalType": "struct IWorkerHub.DAOTokenPercentage",
          "name": "_daoTokenPercentage",
          "type": "tuple"
        }
      ],
      "name": "initialize",
      "outputs": [],
      "stateMutability": "nonpayable",
      "type": "function"
    },
    {
      "inputs": [],
      "name": "l2Owner",
      "outputs": [
        {
          "internalType": "address",
          "name": "",
          "type": "address"
        }
      ],
      "stateMutability": "view",
      "type": "function"
    },
    {
      "inputs": [],
      "name": "minerRequirement",
      "outputs": [
        {
          "internalType": "uint8",
          "name": "",
          "type": "uint8"
        }
      ],
      "stateMutability": "view",
      "type": "function"
    },
    {
      "inputs": [],
      "name": "owner",
      "outputs": [
        {
          "internalType": "address",
          "name": "",
          "type": "address"
        }
      ],
      "stateMutability": "view",
      "type": "function"
    },
    {
      "inputs": [],
      "name": "pause",
      "outputs": [],
      "stateMutability": "nonpayable",
      "type": "function"
    },
    {
      "inputs": [],
      "name": "paused",
      "outputs": [
        {
          "internalType": "bool",
          "name": "",
          "type": "bool"
        }
      ],
      "stateMutability": "view",
      "type": "function"
    },
    {
      "inputs": [
        {
          "internalType": "address",
          "name": "_referrer",
          "type": "address"
        }
      ],
      "name": "registerReferrer",
      "outputs": [],
      "stateMutability": "nonpayable",
      "type": "function"
    },
    {
      "inputs": [
        {
          "internalType": "address[]",
          "name": "_referrers",
          "type": "address[]"
        },
        {
          "internalType": "address[]",
          "name": "_referees",
          "type": "address[]"
        }
      ],
      "name": "registerReferrer",
      "outputs": [],
      "stateMutability": "nonpayable",
      "type": "function"
    },
    {
      "inputs": [],
      "name": "renounceOwnership",
      "outputs": [],
      "stateMutability": "nonpayable",
      "type": "function"
    },
    {
      "inputs": [
        {
          "internalType": "uint256",
          "name": "_inferenceId",
          "type": "uint256"
        }
      ],
      "name": "resolveInference",
      "outputs": [],
      "stateMutability": "nonpayable",
      "type": "function"
    },
    {
      "inputs": [
        {
          "internalType": "uint256",
          "name": "_assignId",
          "type": "uint256"
        },
        {
          "internalType": "uint40",
          "name": "_nonce",
          "type": "uint40"
        },
        {
          "internalType": "bytes",
          "name": "_data",
          "type": "bytes"
        }
      ],
      "name": "reveal",
      "outputs": [],
      "stateMutability": "nonpayable",
      "type": "function"
    },
    {
      "inputs": [],
      "name": "revealDuration",
      "outputs": [
        {
          "internalType": "uint40",
          "name": "",
          "type": "uint40"
        }
      ],
      "stateMutability": "view",
      "type": "function"
    },
    {
      "inputs": [
        {
          "internalType": "uint256",
          "name": "_assignmentId",
          "type": "uint256"
        }
      ],
      "name": "seizeMinerRole",
      "outputs": [],
      "stateMutability": "nonpayable",
      "type": "function"
    },
    {
      "inputs": [
        {
          "components": [
            {
              "internalType": "uint16",
              "name": "minerPercentage",
              "type": "uint16"
            },
            {
              "internalType": "uint16",
              "name": "userPercentage",
              "type": "uint16"
            },
            {
              "internalType": "uint16",
              "name": "referrerPercentage",
              "type": "uint16"
            },
            {
              "internalType": "uint16",
              "name": "refereePercentage",
              "type": "uint16"
            },
            {
              "internalType": "uint16",
              "name": "l2OwnerPercentage",
              "type": "uint16"
            }
          ],
          "internalType": "struct IWorkerHub.DAOTokenPercentage",
          "name": "_daoTokenPercentage",
          "type": "tuple"
        }
      ],
      "name": "setDAOTokenPercentage",
      "outputs": [],
      "stateMutability": "nonpayable",
      "type": "function"
    },
    {
      "inputs": [
        {
          "internalType": "uint256",
          "name": "_newDAOTokenReward",
          "type": "uint256"
        }
      ],
      "name": "setDAOTokenReward",
      "outputs": [],
      "stateMutability": "nonpayable",
      "type": "function"
    },
    {
      "inputs": [],
      "name": "submitDuration",
      "outputs": [
        {
          "internalType": "uint40",
          "name": "",
          "type": "uint40"
        }
      ],
      "stateMutability": "view",
      "type": "function"
    },
    {
      "inputs": [
        {
          "internalType": "uint256",
          "name": "_assigmentId",
          "type": "uint256"
        },
        {
          "internalType": "bytes",
          "name": "_data",
          "type": "bytes"
        }
      ],
      "name": "submitSolution",
      "outputs": [],
      "stateMutability": "nonpayable",
      "type": "function"
    },
    {
      "inputs": [
        {
          "internalType": "address",
          "name": "newOwner",
          "type": "address"
        }
      ],
      "name": "transferOwnership",
      "outputs": [],
      "stateMutability": "nonpayable",
      "type": "function"
    },
    {
      "inputs": [],
      "name": "treasury",
      "outputs": [
        {
          "internalType": "address",
          "name": "",
          "type": "address"
        }
      ],
      "stateMutability": "view",
      "type": "function"
    },
    {
      "inputs": [],
      "name": "unpause",
      "outputs": [],
      "stateMutability": "nonpayable",
      "type": "function"
    },
    {
      "inputs": [
        {
          "internalType": "bool",
          "name": "_isReferred",
          "type": "bool"
        }
      ],
      "name": "validateDAOSupplyIncrease",
      "outputs": [
        {
          "internalType": "bool",
          "name": "notReachedLimit",
          "type": "bool"
        }
      ],
      "stateMutability": "view",
      "type": "function"
    },
    {
      "inputs": [],
      "name": "version",
      "outputs": [
        {
          "internalType": "string",
          "name": "",
          "type": "string"
        }
      ],
      "stateMutability": "pure",
      "type": "function"
    },
    {
      "inputs": [],
      "name": "wEAI",
      "outputs": [
        {
          "internalType": "address",
          "name": "",
          "type": "address"
        }
      ],
      "stateMutability": "view",
      "type": "function"
    },
    {
      "stateMutability": "payable",
      "type": "receive"
    }
  ],
  "bytecode": "0x6080806040523461001757615ef990816200001d8239f35b600080fdfe608080604052600436101561001d575b50361561001b57600080fd5b005b600090813560e01c9081630940c392146147ab575080630dc7df5314614759578063121a301d146138145780633860ce68146136395780633f4ba83a1461359d5780634914b030146135485780634e50c75c1461346e57806354fd4d50146133db5780635c975abb1461339a5780636029e78614612b1957806361d027b31461122c5780636973d3f214612add5780636f83381114612a9a578063715018a6146129fb57806376e7ffae146129ba5780637e648aa8146129315780638456cb5914612892578063886a6de11461284c5780638da5cb5b146127fa5780639ea7685a14612746578063a96c79f414611f4c578063afc1fce714611e6d578063c41bf66514611cd0578063cc56b6f814611c8a578063d7acb1ea14611c38578063d9844458146112c0578063dd9b97661461127e578063e00246041461122c578063e84dee6b14610a6e578063f003a0c514610a1c578063f2f0387714610665578063f2fde38b14610579578063f80dca981461053d578063fa8e8c69146104315763ffbc66610361000f573461042e576020807ffffffffffffffffffffffffffffffffffffffffffffffffffffffffffffffffc36011261042a576004359073ffffffffffffffffffffffffffffffffffffffff90838260125416803b1561042a578180916004604051809481937f36f4fb020000000000000000000000000000000000000000000000000000000083525af1801561041f57610407575b508390526004815281600360408620015460281c1633036103835782845260048152604084205491828552600282526007604086200154166103255760029083855260048152600360408620017902000000000000000000000000000000000000000000000000007fffffffffffff00ffffffffffffffffffffffffffffffffffffffffffffffffff8254161790558285525260076040842001337fffffffffffffffffffffffff000000000000000000000000000000000000000082541617905533917f3d4f35957f03b76084f29d7c66d573fcec3d2e4bbc2844549e44bc1aed4c6c248480a480f35b606490604051907f08c379a00000000000000000000000000000000000000000000000000000000082526004820152601e60248201527f5468697320696e666572656e636520686173206265656e207365697a656400006044820152fd5b608490604051907f08c379a00000000000000000000000000000000000000000000000000000000082526004820152602760248201527f4f6e6c792061737369676e656420776f726b65722063616e207365697a65207460448201527f686520726f6c65000000000000000000000000000000000000000000000000006064820152fd5b61041090614813565b61041b57833861023a565b8380fd5b6040513d84823e3d90fd5b5080fd5b80fd5b503461042e5760207ffffffffffffffffffffffffffffffffffffffffffffffffffffffffffffffffc36011261042e5760406104d491600435815260026020522061047e60018201614910565b906002810154906003810154906004810154600582015460068301549073ffffffffffffffffffffffffffffffffffffffff92836008816007880154169601541695604051998a99610180808c528b0190614a0e565b9760208a015260408901526060880152828116608088015264ffffffffff8181809360a01c1660a08a015260c81c1660c0880152811660e0870152610523610100870160ff8360281c16614b45565b60301c166101208501526101408401526101608301520390f35b503461042e57807ffffffffffffffffffffffffffffffffffffffffffffffffffffffffffffffffc36011261042e576020600154604051908152f35b503461042e5760207ffffffffffffffffffffffffffffffffffffffffffffffffffffffffffffffffc36011261042e576105b1614a6c565b6105b9614b52565b73ffffffffffffffffffffffffffffffffffffffff8116156105e1576105de90614bd1565b80f35b60846040517f08c379a000000000000000000000000000000000000000000000000000000000815260206004820152602660248201527f4f776e61626c653a206e6577206f776e657220697320746865207a65726f206160448201527f64647265737300000000000000000000000000000000000000000000000000006064820152fd5b503461042e5760407ffffffffffffffffffffffffffffffffffffffffffffffffffffffffffffffffc36011261042e576024356004356106a3614d73565b73ffffffffffffffffffffffffffffffffffffffff90838260125416803b1561042a578180916004604051809481937f36f4fb020000000000000000000000000000000000000000000000000000000083525af1801561041f57610a08575b505082156109de5780845260209060048252604085209384549485875260028452604087209064ffffffffff80600584015460c81c16904316116109b457600682019560ff875460281c1660078110156109875760020361095d576003820154908160281c1633036109335760ff60019160c81c16610780816149d5565b036109095760010180546108df5761079b9183859255615069565b848652600583526040862080547fffffffffffffffffffffffffffffffffffffffffffffffffffffffffffffff0060ff6107d68184166150c9565b1691161790556040519081527f47a3511bbb68bfcf0b476106b3a5a5d5b8d7eb4205a28d6424a40fb19d9afa5b833392a38284526005815260ff604085205416600982526040852054907fffffffffffffffffffffffffffffffffffffffffffffffffffffffffffffffff82019182116108b25714610853578380f35b81650300000000007fffffffffffffffffffffffffffffffffffffffffffffffffffff00ffffffffff7fbc645ece538d7606c8ac26de30aef5fbd0ed2ee0c945f4e5d860da3e62781d5094541617905560405160038152a23880808380f35b6024867f4e487b710000000000000000000000000000000000000000000000000000000081526011600452fd5b60046040517fbfec5558000000000000000000000000000000000000000000000000000000008152fd5b60046040517fd954416a000000000000000000000000000000000000000000000000000000008152fd5b60046040517f82b42900000000000000000000000000000000000000000000000000000000008152fd5b60046040517fef084b59000000000000000000000000000000000000000000000000000000008152fd5b60248a7f4e487b710000000000000000000000000000000000000000000000000000000081526021600452fd5b60046040517f88ac04e3000000000000000000000000000000000000000000000000000000008152fd5b60046040517fc06789fa000000000000000000000000000000000000000000000000000000008152fd5b610a1190614813565b61041b578338610702565b503461042e57807ffffffffffffffffffffffffffffffffffffffffffffffffffffffffffffffffc36011261042e57602073ffffffffffffffffffffffffffffffffffffffff600a5416604051908152f35b503461042e5760407ffffffffffffffffffffffffffffffffffffffffffffffffffffffffffffffffc36011261042e576004356024803567ffffffffffffffff811161041b57610ac29036906004016147e5565b9091610acc614d73565b8473ffffffffffffffffffffffffffffffffffffffff60125416803b1561042a578180916004604051809481937f36f4fb020000000000000000000000000000000000000000000000000000000083525af1801561041f57611214575b505081156111ea5773ffffffffffffffffffffffffffffffffffffffff601254166040517f34875ec30000000000000000000000000000000000000000000000000000000081523360048201526020818481855afa9081156111df5787916111c0575b50156111965760208291604051928380927fd8f0166c0000000000000000000000000000000000000000000000000000000082523360048301525afa801561118b5761115c575b508385526004602052604085209260405193610100850185811067ffffffffffffffff82111761112e57604052805485526001810154602086015260028101546040860152610c80600460038301549264ffffffffff8416606089015273ffffffffffffffffffffffffffffffffffffffff8460281c16608089015260ff808560c81c169460a08a0195610c66816149d5565b865260d01c16610c75816149d5565b60c089015201614910565b9060e0860191825273ffffffffffffffffffffffffffffffffffffffff608087519701511633036109335760029051610cb8816149d5565b610cc1816149d5565b0361090957515161110457838652600260205260408620604051610ce481614827565b610ced82615002565b8152610cfb60018301614910565b602082015260028201546040820152600382015460608201526004820154608082015264ffffffffff600583015473ffffffffffffffffffffffffffffffffffffffff811660a0840152818160a01c1660c084015260c81c1660e082015260068201549164ffffffffff831661010083015260ff8360281c169260078410156110d85773ffffffffffffffffffffffffffffffffffffffff6008849382610180948861012060019a99015260301c16610140860152826007820154166101608601520154169101520361095d57838652600260205260408620928587526004602052600460408820019267ffffffffffffffff82116110ad5750908591610e0284546148bd565b601f811161105a575b508793601f8211600114610fb85781610ed4958a91610fad575b508260011b907fffffffffffffffffffffffffffffffffffffffffffffffffffffffffffffffff8460031b1c19161790555b610e826040805183819460208301968b88528484013781018b8382015203602081018452018261487c565b51902092818752600460205283600160408920826002820155015560068101650200000000007fffffffffffffffffffffffffffffffffffffffffffffffffffff00ffffffffff825416179055615069565b8184526006602052610ef9816040862060019160005201602052604060002054151590565b15610f93575b835260076020526040832080547fffffffffffffffffffffffffffffffffffffffffffffffffffffffffffffff0060ff610f3a8184166150c9565b1691161790557fbc645ece538d7606c8ac26de30aef5fbd0ed2ee0c945f4e5d860da3e62781d50602060405160028152a2337f9f669b92b9cbc7611f7ab6c77db07a424051c777433e21bd90f1bdf940096dd98380a380f35b8184526006602052610fa88160408620615d4e565b610eff565b905083013538610e25565b808952602089207fffffffffffffffffffffffffffffffffffffffffffffffffffffffffffffffe083168a5b81811061103f57509583610ed49710611007575b5050600182811b019055610e57565b7fffffffffffffffffffffffffffffffffffffffffffffffffffffffffffffffff60f88560031b161c19908501351690553880610ff8565b8786013583556020978801978b975060019093019201610fe4565b9091925083885260208820601f830160051c810191602084106110a3575b90601f89959493920160051c01905b8181106110945750610e0b565b60008155889450600101611087565b9091508190611078565b877f4e487b710000000000000000000000000000000000000000000000000000000081526041600452fd5b858a7f4e487b710000000000000000000000000000000000000000000000000000000081526021600452fd5b60046040517f9fbfc589000000000000000000000000000000000000000000000000000000008152fd5b837f4e487b710000000000000000000000000000000000000000000000000000000060005260416004526000fd5b61117d9060203d602011611184575b611175818361487c565b810190614fea565b5038610bd3565b503d61116b565b6040513d88823e3d90fd5b60046040517fa7c1cb49000000000000000000000000000000000000000000000000000000008152fd5b6111d9915060203d60201161118457611175818361487c565b38610b8c565b6040513d89823e3d90fd5b60046040517f5cb045db000000000000000000000000000000000000000000000000000000008152fd5b61121d90614813565b611228578438610b29565b8480fd5b503461042e57807ffffffffffffffffffffffffffffffffffffffffffffffffffffffffffffffffc36011261042e57602073ffffffffffffffffffffffffffffffffffffffff600b5416604051908152f35b503461042e57807ffffffffffffffffffffffffffffffffffffffffffffffffffffffffffffffffc36011261042e57602060ff600c5460501c16604051908152f35b5060407ffffffffffffffffffffffffffffffffffffffffffffffffffffffffffffffffc36011261042e5760043567ffffffffffffffff811161042a5761130b9036906004016147e5565b611313614a8f565b9061131c614d73565b83604073ffffffffffffffffffffffffffffffffffffffff6012541660248251809481937fcd23ea140000000000000000000000000000000000000000000000000000000083523360048401525af1908115611c2d578591611bbf575b506020015163ffffffff161561093357611394600154614f2a565b928360015583855260026020526040852091600b549061ffff6113d061271091826113c4828760a01c1634614fa7565b049460b01c1634614fa7565b049267ffffffffffffffff8211611b92576113ee60018601546148bd565b601f8111611b4d575b508790601f8311600114611a7e57918061146495949261145f948b92611a73575b50507fffffffffffffffffffffffffffffffffffffffffffffffffffffffffffffffff8260011b9260031b1c19161760018601555b80600386015582600486015534614f9a565b614f9a565b60028201556006810173ffffffffffffffffffffffffffffffffffffffff8316927fffffffffffff0000000000000000000000000000000000000000ffffffffffff79ffffffffffffffffffffffffffffffffffffffff00000000000083549260301b169116179055818452600f602052600573ffffffffffffffffffffffffffffffffffffffff60408620541691600881017fffffffffffffffffffffffff0000000000000000000000000000000000000000938482541617905501903390825416179055604051348152836020820152827f08a84d7fb7cd1557f228c827b9280f44d1a157c3256fe453b687a7b9d51c6a5b60403393a464ffffffffff61157481600b5460d01c1643614fc4565b9261161261158883600c5416848716614fd1565b84835260026020526005604084200180547dffffffffff000000000000000000000000000000000000000000000000008360c81b16907fffff00000000000000000000ffffffffffffffffffffffffffffffffffffffff78ffffffffff00000000000000000000000000000000000000008a60a01b1691161717905583600c5460281c1690614fd1565b838252600260205265010000000000836006604085200192167fffffffffffffffffffffffffffffffffffffffffffffffffffff00000000000083541617179055828152600260205273ffffffffffffffffffffffffffffffffffffffff600560408320015416918173ffffffffffffffffffffffffffffffffffffffff60125416936024604051809681937f47253baa00000000000000000000000000000000000000000000000000000000835260048301525afa92831561041f5782936119a4575b50825160ff600c5460501c169384821061197a57835b8581106116fe57602087604051908152f35b84546040519060208201524260408201526060434081830152815280608081011067ffffffffffffffff60808301111761194b57608081016040526020815191012080865561174d8285614f9a565b90811561191c5761176360ff8383061685614f57565b519161176f8487614f9a565b807fffffffffffffffffffffffffffffffffffffffffffffffffffffffffffffffff8101116118ef5760ff6118ea9594939273ffffffffffffffffffffffffffffffffffffffff6117e57fffffffffffffffffffffffffffffffffffffffffffffffffffffffffffffffff6117f095018a614f57565b511693061686614f57565b528873ffffffffffffffffffffffffffffffffffffffff611812600354614f2a565b9283600355838a526004602052600360408b208481550179010000000000000000000000000000000000000000000000000081547fffffffffffff000000000000000000000000000000000000000000ffffffffff78ffffffffffffffffffffffffffffffffffffffff00000000008560281b16911617179055169182895260086020526118a38160408b20615cec565b81895260096020526118b88160408b20615cec565b7f53cc8b652f33c56dac5f1c97a284cc971e7adcb8abe9454b0853f076c6deb7d560208d8a60405191168152a4614f2a565b6116ec565b6024897f4e487b710000000000000000000000000000000000000000000000000000000081526011600452fd5b7f4e487b7100000000000000000000000000000000000000000000000000000000600052601260045260246000fd5b7f4e487b7100000000000000000000000000000000000000000000000000000000600052604160045260246000fd5b60046040517f4069094a000000000000000000000000000000000000000000000000000000008152fd5b9092503d8083833e6119b6818361487c565b8101602082820312611a6f5781519167ffffffffffffffff831161041b5781601f84830101121561041b5782810151906119ef82614ab2565b936119fd604051958661487c565b828552602085019360208460051b838501010111611a6b57602081830101935b60208460051b83850101018510611a3a57505050505091386116d6565b845173ffffffffffffffffffffffffffffffffffffffff81168103611a6757815260209485019401611a1d565b8780fd5b8580fd5b8280fd5b013590503880611418565b6001860189526020892091895b7fffffffffffffffffffffffffffffffffffffffffffffffffffffffffffffffe085168110611b3557509261146495949260019261145f95837fffffffffffffffffffffffffffffffffffffffffffffffffffffffffffffffe0811610611afd575b505050811b01600186015561144d565b7fffffffffffffffffffffffffffffffffffffffffffffffffffffffffffffffff60f88560031b161c19910135169055388080611aed565b90926020600181928686013581550194019101611a8b565b60018601895260208920601f840160051c810160208510611b8b575b601f830160051c82018110611b7f5750506113f7565b60008155600101611b69565b5080611b69565b6024887f4e487b710000000000000000000000000000000000000000000000000000000081526041600452fd5b90506040813d604011611c25575b81611bda6040938361487c565b810103126112285760405190604082019082821067ffffffffffffffff83111761194b5760209160405280518352015163ffffffff81168103611a6b57602080830191909152611379565b3d9150611bcd565b6040513d87823e3d90fd5b503461042e5760207ffffffffffffffffffffffffffffffffffffffffffffffffffffffffffffffffc36011261042e5760043590811515820361042e576020611c80836150da565b6040519015158152f35b503461042e57807ffffffffffffffffffffffffffffffffffffffffffffffffffffffffffffffffc36011261042e57602064ffffffffff600b5460d01c16604051908152f35b503461042e5760407ffffffffffffffffffffffffffffffffffffffffffffffffffffffffffffffffc36011261042e5767ffffffffffffffff9060043582811161042a57611d22903690600401614aca565b9160243590811161042a57611d3b903690600401614aca565b91611d44614b52565b73ffffffffffffffffffffffffffffffffffffffff908160125416803b1561041b578380916004604051809481937f36f4fb020000000000000000000000000000000000000000000000000000000083525af18015611e6257908491611e4e575b50508051845103611df057825b8151811015611dec5780611de284611dcd611de79486614f57565b511685611dda848a614f57565b511690614e48565b614f2a565b611db2565b8380f35b60646040517f08c379a000000000000000000000000000000000000000000000000000000000815260206004820152600d60248201527f496e76616c696420696e707574000000000000000000000000000000000000006044820152fd5b611e5790614813565b611a6f578238611da5565b6040513d86823e3d90fd5b503461042e57602090817ffffffffffffffffffffffffffffffffffffffffffffffffffffffffffffffffc36011261042e57611ea7614a6c565b8273ffffffffffffffffffffffffffffffffffffffff602481601254169360405194859384927fafc1fce70000000000000000000000000000000000000000000000000000000084521660048301525afa918215611f40578092611f10575b5050604051908152f35b9091508282813d8311611f39575b611f28818361487c565b8101031261042e5750513880611f06565b503d611f1e565b604051903d90823e3d90fd5b503461042e576102407ffffffffffffffffffffffffffffffffffffffffffffffffffffffffffffffffc36011261042e57611f85614a6c565b611f8d614a8f565b9060443573ffffffffffffffffffffffffffffffffffffffff811681036127415773ffffffffffffffffffffffffffffffffffffffff6064351660643503612741576084359173ffffffffffffffffffffffffffffffffffffffff831683036127415761ffff60a4351660a435036127415761ffff60c4351660c435036127415760ff60e4351660e435036112285764ffffffffff6101043516610104350361274157610124359164ffffffffff831683036127415764ffffffffff610144351661014435036127415761ffff610164351661016435036127415760a07ffffffffffffffffffffffffffffffffffffffffffffffffffffffffffffffe5c360112612741576040519261209f84614844565b61ffff6101a435166101a43503612741576101a435845261ffff6101c435166101c43503612741576101c435602085015261ffff6101e435166101e43503612741576101e435604085015261ffff610204351661020435036127415761020435606085015261ffff610224351661022435036127415761022435608085015260775460ff8160081c161595868097612734575b801561271d575b1561269957818760017fffffffffffffffffffffffffffffffffffffffffffffffffffffffffffffff0064ffffffffff95161760775561266a575b5061218f60ff60775460081c1661218a81614ca3565b614ca3565b61219833614bd1565b73ffffffffffffffffffffffffffffffffffffffff607754986121fe60ff8b60081c166121c481614ca3565b6121cd81614ca3565b7fffffffffffffffffffffffffffffffffffffffffffffffffffffffffffffff0060dc541660dc5561218a81614ca3565b600161010e5581811615158061265f575b80612652575b80612647575b8061263c575b61222a90614c3e565b167fffffffffffffffffffffffff0000000000000000000000000000000000000000600a541617600a55600b549373ffffffffffffffffffffffffffffffffffffffff600c5492167fffffffffffffffffffffffff0000000000000000000000000000000000000000601254161760125561018435600d557fff00000000000000000000000000000000000000000000000000000000000000948573ffffffffffffffffffffffffffffffffffffffff7effffffffff00000000000000000000000000000000000000000000000000006101043560d01b16931691161775ffff000000000000000000000000000000000000000060a43560a01b161777ffff0000000000000000000000000000000000000000000060c43560b01b161779ffff0000000000000000000000000000000000000000000000006101643560c01b161717600b5569ffffffffff00000000006101443560281b16937effffffffffffffffffffffffffffffffffffffff000000000000000000000060643560581b169116176aff0000000000000000000060e43560501b161791161717600c556123d0614b52565b61271061ffff61241a61240d6124006123f3848851168560208a01511690614d2e565b8460408901511690614d2e565b8360608801511690614d2e565b8260808701511690614d2e565b16036125de5773ffffffffffffffffffffffffffffffffffffffff91604051907fe217c132ca1c9e392a91d1b2eaeb42b77b8ff74a61c75974d05ffbbe6e00a16a610140600e549361ffff8516815261ffff8560101c16602082015261ffff8560201c16604082015261ffff8560301c16606082015261ffff8560401c16608082015261ffff84511660a082015261ffff60208501511660c082015261ffff60408501511660e082015261ffff60608501511661010082015261ffff608085015116610120820152a161ffff81511663ffff0000602083015160101b1665ffff00000000604084015160201b16917fffffffffffffffffffffffffffffffffffffffffffff0000000000000000000069ffff0000000000000000608067ffff000000000000606088015160301b1696015160401b1695161717171717600e55167fffffffffffffffffffffffff0000000000000000000000000000000000000000601154161760115561258b575080f35b7fffffffffffffffffffffffffffffffffffffffffffffffffffffffffffff00ff166077557f7f26b83ff96e1f2b6a682f133852f6798a09c465da95921460cefb3847402498602060405160018152a180f35b60646040517f08c379a000000000000000000000000000000000000000000000000000000000815260206004820152601c60248201527f496e76616c69642044414f20546f6b656e2050657263656e74616765000000006044820152fd5b508682161515612221565b50818316151561221b565b5081606435161515612215565b50818616151561220f565b7fffffffffffffffffffffffffffffffffffffffffffffffffffffffffffff0000166101011760775538612174565b60846040517f08c379a000000000000000000000000000000000000000000000000000000000815260206004820152602e60248201527f496e697469616c697a61626c653a20636f6e747261637420697320616c72656160448201527f647920696e697469616c697a65640000000000000000000000000000000000006064820152fd5b50303b1580156121395750600160ff831614612139565b50600160ff831610612132565b600080fd5b503461042e5760207ffffffffffffffffffffffffffffffffffffffffffffffffffffffffffffffffc36011261042e5761277e614a6c565b8173ffffffffffffffffffffffffffffffffffffffff60125416803b1561042a578180916004604051809481937f36f4fb020000000000000000000000000000000000000000000000000000000083525af1801561041f576127e6575b506105de3383614e48565b6127ef90614813565b61042a5781386127db565b503461042e57807ffffffffffffffffffffffffffffffffffffffffffffffffffffffffffffffffc36011261042e57602073ffffffffffffffffffffffffffffffffffffffff60aa5416604051908152f35b503461042e57807ffffffffffffffffffffffffffffffffffffffffffffffffffffffffffffffffc36011261042e57602064ffffffffff600c5460281c16604051908152f35b503461042e57807ffffffffffffffffffffffffffffffffffffffffffffffffffffffffffffffffc36011261042e576128c9614b52565b6128d1614d73565b6128d9614d73565b60017fffffffffffffffffffffffffffffffffffffffffffffffffffffffffffffff0060dc54161760dc557f62e78cea01bee320cd4e420270b5ea74000d11b0c9f74754ebdbfc544b05a2586020604051338152a180f35b503461042e57602090817ffffffffffffffffffffffffffffffffffffffffffffffffffffffffffffffffc36011261042e579060043582526009815261297960408320615002565b60405192828493840190808552835180925280604086019401925b8281106129a357505050500390f35b835185528695509381019392810192600101612994565b503461042e5760207ffffffffffffffffffffffffffffffffffffffffffffffffffffffffffffffffc36011261042e576129f2614b52565b600435600d5580f35b503461042e57807ffffffffffffffffffffffffffffffffffffffffffffffffffffffffffffffffc36011261042e57612a32614b52565b600073ffffffffffffffffffffffffffffffffffffffff60aa547fffffffffffffffffffffffff0000000000000000000000000000000000000000811660aa55167f8be0079c531659141344cd1fd0a4f28419497f9722a3daafe3b4186f6b6457e08280a380f35b503461042e57807ffffffffffffffffffffffffffffffffffffffffffffffffffffffffffffffffc36011261042e57602064ffffffffff600c5416604051908152f35b503461042e57807ffffffffffffffffffffffffffffffffffffffffffffffffffffffffffffffffc36011261042e576020600354604051908152f35b503461042e5760207ffffffffffffffffffffffffffffffffffffffffffffffffffffffffffffffffc36011261042e57612b51614d73565b600261010e541461333c57600261010e558073ffffffffffffffffffffffffffffffffffffffff60125416803b15613339578180916004604051809481937f36f4fb020000000000000000000000000000000000000000000000000000000083525af1801561041f57613325575b505060043581526002602052604081206006810154600760ff8260281c161015612f7457600160ff8260281c16148061330e575b806132eb575b6131ec575b506006810154600760ff8260281c161015612f7457600260ff8260281c1614806131d5575b612fa1575b506006810154600760ff8260281c161015612f7457600360ff8260281c16149081612f3b575b50612c9d575b600660ff91015460281c16612c6c6040518092614b45565b7fbc645ece538d7606c8ac26de30aef5fbd0ed2ee0c945f4e5d860da3e62781d50602060043592a2600161010e5580f35b612ca86004356152f0565b612c54576004358252600260205260408220604051612cc681614827565b612ccf82615002565b8152612cdd60018301614910565b6020820152600282015460408201526003820154606082015260048201546080820152600582015473ffffffffffffffffffffffffffffffffffffffff811660a083015264ffffffffff8181809360a01c1660c085015260c81c1660e08301526006830154908116610100830152600760ff8260281c161015612f0e57612dce929173ffffffffffffffffffffffffffffffffffffffff6008818460ff612dc89660281c1661012086015260301c169485610140850152826007820154166101608501520154166101808201526080612dbf6040830151606084015190614fc4565b91015190614fc4565b90615dfe565b60043582526009602052612de460408320615002565b825b8151811015612ed557612df98183614f57565b5184526004602052600260408520015415612e1d575b612e1890614f2a565b612de6565b8373ffffffffffffffffffffffffffffffffffffffff60125416612e418385614f57565b518252600460205273ffffffffffffffffffffffffffffffffffffffff600360408420015460281c16813b15611a6f5782916044839260405194859384927f969ceab400000000000000000000000000000000000000000000000000000000845260048401528160248401525af1801561041f57612ec1575b5050612e0f565b612eca90614813565b61041b578338612eba565b50506006810180547fffffffffffffffffffffffffffffffffffffffffffffffffffff00ffffffffff1665040000000000179055612c54565b6024857f4e487b710000000000000000000000000000000000000000000000000000000081526021600452fd5b905064ffffffffff439116108015612f54575b38612c4e565b5060043582526005602052604082205460ff8082169160081c1614612f4e565b6024837f4e487b710000000000000000000000000000000000000000000000000000000081526021600452fd5b60043583526005602052600160ff6040852054160160ff81116131a8576004358452600960205260ff612fd76040862054615cb1565b9116106130265750600760ff600683015460281c161015612ff9575b38612c28565b6024827f4e487b710000000000000000000000000000000000000000000000000000000081526021600452fd5b650400000000007fffffffffffffffffffffffffffffffffffffffffffffffffffff00ffffffffff61309a92161780600684015573ffffffffffffffffffffffffffffffffffffffff6130906130856002860154600387015490614fc4565b600486015490614fc4565b9160301c16615dfe565b600435825260096020526130b060408320615002565b825b81518110156131a1576130c58183614f57565b51845260046020526001604085200154156130e9575b6130e490614f2a565b6130b2565b8373ffffffffffffffffffffffffffffffffffffffff6012541661310d8385614f57565b518252600460205273ffffffffffffffffffffffffffffffffffffffff600360408420015460281c16813b15611a6f5782916044839260405194859384927f969ceab400000000000000000000000000000000000000000000000000000000845260048401528160248401525af1801561041f5761318d575b50506130db565b61319690614813565b61041b578338613186565b5050612ff3565b6024847f4e487b710000000000000000000000000000000000000000000000000000000081526011600452fd5b5064ffffffffff600583015460c81c164311612c23565b650500000000007fffffffffffffffffffffffffffffffffffffffffffffffffffff00ffffffffff61324b92161780600684015573ffffffffffffffffffffffffffffffffffffffff6130906130856002860154600387015490614fc4565b8173ffffffffffffffffffffffffffffffffffffffff6012541673ffffffffffffffffffffffffffffffffffffffff600784015416813b15611a6f5782916044839260405194859384927f969ceab40000000000000000000000000000000000000000000000000000000084526004840152600160248401525af1801561041f576132d7575b50612bfe565b6132e090614813565b61042a5781386132d1565b5073ffffffffffffffffffffffffffffffffffffffff6007830154161515612bf9565b5064ffffffffff600583015460a01c164311612bf3565b61332e90614813565b61042e578038612bbf565b50fd5b60646040517f08c379a000000000000000000000000000000000000000000000000000000000815260206004820152601f60248201527f5265656e7472616e637947756172643a207265656e7472616e742063616c6c006044820152fd5b503461042e57807ffffffffffffffffffffffffffffffffffffffffffffffffffffffffffffffffc36011261042e57602060ff60dc54166040519015158152f35b503461042e57807ffffffffffffffffffffffffffffffffffffffffffffffffffffffffffffffffc36011261042e57604051604081019080821067ffffffffffffffff83111761194b5761346a91604052600681527f76302e302e3200000000000000000000000000000000000000000000000000006020820152604051918291602083526020830190614a0e565b0390f35b503461042e5760207ffffffffffffffffffffffffffffffffffffffffffffffffffffffffffffffffc36011261042e576040906004358152600460205220805461346a600183015492600281015490600381015473ffffffffffffffffffffffffffffffffffffffff60ff8260c81c16916134f2600460ff8360d01c169501614910565b9460405198899889526020890152604088015264ffffffffff8116606088015260281c166080860152613524816149d5565b60a0850152613532816149d5565b60c08401526101008060e0850152830190614a0e565b503461042e57807ffffffffffffffffffffffffffffffffffffffffffffffffffffffffffffffffc36011261042e57602073ffffffffffffffffffffffffffffffffffffffff600c5460581c16604051908152f35b503461042e57807ffffffffffffffffffffffffffffffffffffffffffffffffffffffffffffffffc36011261042e576135d4614b52565b6135dc614ddd565b6135e4614ddd565b7fffffffffffffffffffffffffffffffffffffffffffffffffffffffffffffff0060dc541660dc557f5db9ee0a495bf2e6ff9c91a7834c1ba4fdd244a5e8aa4e537bd38aeae4b073aa6020604051338152a180f35b503461042e5760a07ffffffffffffffffffffffffffffffffffffffffffffffffffffffffffffffffc36011261042e5760405161367581614844565b61ffff60043581811681036127415782526024358181168103612741576020830190815260443582811681036127415760408401908152606435918383168303612741576060850192835260843593808516850361274157608086019485526136dc614b52565b6127108161371861370e6137046136fa848c51168589511690614d2e565b8489511690614d2e565b8389511690614d2e565b8289511690614d2e565b16036125de5760405195600e54968288168152828860101c166020820152828860201c166040820152828860301c166060820152828860401c1660808201528282511660a08201528284511660c08201528285511660e082015282865116610100820152828751166101208201526101407fe217c132ca1c9e392a91d1b2eaeb42b77b8ff74a61c75974d05ffbbe6e00a16a91a15116905160101b63ffff000016915160201b65ffff0000000016925160301b67ffff00000000000016935160401b69ffff000000000000000016947fffffffffffffffffffffffffffffffffffffffffffff00000000000000000000161717171717600e5580f35b503461042e5760607ffffffffffffffffffffffffffffffffffffffffffffffffffffffffffffffffc36011261042e5764ffffffffff602435166024350361042e5760443567ffffffffffffffff811161042a576138769036906004016147e5565b9061387f614d73565b8273ffffffffffffffffffffffffffffffffffffffff60125416803b1561042a5781906004604051809481937f36f4fb020000000000000000000000000000000000000000000000000000000083525af18015611e6257614746575b5081156111ea5764ffffffffff602435161561471c5760043583526004602052604083209164ffffffffff6003840154166146f257825492838552600260205260066040862001805464ffffffffff811664ffffffffff43161161469457600760ff8260281c16101561466757600260ff8260281c16146000146145f8577fffffffffffffffffffffffffffffffffffffffffffffffffffff00ffffffffff16650300000000001790555b60038101549073ffffffffffffffffffffffffffffffffffffffff8260281c163303610933576139bb60ff8360c81c166149d5565b600160ff8360c81c160361090957600181015480156145ce5760405160208101907fffffffffff00000000000000000000000000000000000000000000000000000060243560d81b1682523360601b602582015285876039830137613a326039828881018c8382015203601981018452018261487c565b5190200361457057604051602081019086825284866040830137613a686040828781018b8382015203602081018452018261487c565b519020917fffffffffffffffffffffffffffffffffffffffffffffffffffffff000000000064ffffffffff60243516911617600382015567ffffffffffffffff831161454357613abb60048201546148bd565b601f81116144fe575b5081869184601f811160011461443457600292938991614429575b508560011b907fffffffffffffffffffffffffffffffffffffffffffffffffffffffffffffffff8760031b1c19161760048201555b015583855260056020526040852080547fffffffffffffffffffffffffffffffffffffffffffffffffffffffffffff00ff61ff00613b5760ff8460081c166150c9565b60081b1691161790558385526006602052613b85816040872060019160005201602052604060002054151590565b1561440f575b845260076020526040842080547fffffffffffffffffffffffffffffffffffffffffffffffffffffffffffffff0060ff613bc68184166150c9565b169116179055806040519264ffffffffff60243516845260406020850152816040850152606084013783606082840101527ff7e30468a493d9e17158c0dbe51bcfa190627e3fdede3c9284827c22dfc41700600435926060817fffffffffffffffffffffffffffffffffffffffffffffffffffffffffffffffe0601f339601168101030190a38082526005602052604082205460ff8082169160081c1614613c6c575080f35b613c74614d73565b600261010e541461333c57600261010e558173ffffffffffffffffffffffffffffffffffffffff60125416803b1561042a578180916004604051809481937f36f4fb020000000000000000000000000000000000000000000000000000000083525af1801561041f576143fb575b50819052600260205260408220906006820154600760ff8260281c16101561408257600160ff8260281c1614806143e4575b806143c1575b6142c2575b506006820154600760ff8260281c16101561408257600260ff8260281c1614806142ab575b6140af575b50906006810154600760ff8260281c16101561408257600360ff8260281c1614908161404b575b50613dbb575b602060ff60067fbc645ece538d7606c8ac26de30aef5fbd0ed2ee0c945f4e5d860da3e62781d5093015460281c16613db16040518092614b45565ba2600161010e5580f35b613dc4826152f0565b613d765790808352600260205260408320604051613de181614827565b613dea82615002565b8152613df860018301614910565b602082015260028201546040820152600382015460608201526004820154608082015264ffffffffff600583015473ffffffffffffffffffffffffffffffffffffffff811660a0840152818160a01c1660c084015260c81c1660e0820152600682015464ffffffffff8116610100830152600760ff8260281c16101561401e57613edd929173ffffffffffffffffffffffffffffffffffffffff6008818460ff612dc89660281c1661012086015260301c169485610140850152826007820154166101608501520154166101808201526080612dbf6040830151606084015190614fc4565b8083526009602052613ef160408420615002565b90835b8251811015613fe357613f078184614f57565b5185526004602052600260408620015415613f2b575b613f2690614f2a565b613ef4565b8473ffffffffffffffffffffffffffffffffffffffff60125416613f4f8386614f57565b518252600460205273ffffffffffffffffffffffffffffffffffffffff600360408420015460281c16813b15611a6f5782916044839260405194859384927f969ceab400000000000000000000000000000000000000000000000000000000845260048401528160248401525af1801561041f57613fcf575b5050613f1d565b613fd890614813565b611228578438613fc8565b506006830180547fffffffffffffffffffffffffffffffffffffffffffffffffffff00ffffffffff1665040000000000179055919050613d76565b6024867f4e487b710000000000000000000000000000000000000000000000000000000081526021600452fd5b905064ffffffffff439116108015614064575b38613d70565b508183526005602052604083205460ff8082169160081c161461405e565b6024847f4e487b710000000000000000000000000000000000000000000000000000000081526021600452fd5b8184526005602052600160ff6040862054160160ff811161427e57828552600960205260ff6140e16040872054615cb1565b911610614105575090600760ff600683015460281c161015612f74575b9038613d49565b650400000000007fffffffffffffffffffffffffffffffffffffffffffffffffffff00ffffffffff61416f92161780600685015573ffffffffffffffffffffffffffffffffffffffff6130906141646002870154600388015490614fc4565b600487015490614fc4565b808352600960205261418360408420615002565b90835b8251811015614275576141998184614f57565b51855260046020526001604086200154156141bd575b6141b890614f2a565b614186565b8473ffffffffffffffffffffffffffffffffffffffff601254166141e18386614f57565b518252600460205273ffffffffffffffffffffffffffffffffffffffff600360408420015460281c16813b15611a6f5782916044839260405194859384927f969ceab400000000000000000000000000000000000000000000000000000000845260048401528160248401525af1801561041f57614261575b50506141af565b61426a90614813565b61122857843861425a565b509190506140fe565b6024857f4e487b710000000000000000000000000000000000000000000000000000000081526011600452fd5b504364ffffffffff600585015460c81c1610613d44565b650500000000007fffffffffffffffffffffffffffffffffffffffffffffffffffff00ffffffffff61432192161780600685015573ffffffffffffffffffffffffffffffffffffffff6130906141646002870154600388015490614fc4565b8273ffffffffffffffffffffffffffffffffffffffff6012541673ffffffffffffffffffffffffffffffffffffffff600785015416813b15611a6f5782916044839260405194859384927f969ceab40000000000000000000000000000000000000000000000000000000084526004840152600160248401525af1801561041f576143ad575b50613d1f565b6143b690614813565b611a6f5782386143a7565b5073ffffffffffffffffffffffffffffffffffffffff6007840154161515613d1a565b504364ffffffffff600585015460a01c1610613d14565b61440490614813565b61042a578138613ce2565b83855260066020526144248160408720615d4e565b613b8b565b905086013538613adf565b5060048101885260208820885b7fffffffffffffffffffffffffffffffffffffffffffffffffffffffffffffffe0871681106144e3575060029293867fffffffffffffffffffffffffffffffffffffffffffffffffffffffffffffffe08116106144ab575b5050600185811b016004820155613b14565b7fffffffffffffffffffffffffffffffffffffffffffffffffffffffffffffffff60f88860031b161c19908801351690553880614499565b84880135825560209485019486945060019092019101614441565b60048201875260208720601f850160051c81016020861061453c575b601f830160051c82018110614530575050613ac4565b6000815560010161451a565b508061451a565b6024867f4e487b710000000000000000000000000000000000000000000000000000000081526041600452fd5b60646040517f08c379a000000000000000000000000000000000000000000000000000000000815260206004820152600d60248201527f496e76616c696452657665616c000000000000000000000000000000000000006044820152fd5b60046040517f81791cb4000000000000000000000000000000000000000000000000000000008152fd5b6003915060ff9060281c1603156139865760646040517f08c379a000000000000000000000000000000000000000000000000000000000815260206004820152601660248201527f496e76616c6964496e666572656e6365537461747573000000000000000000006044820152fd5b6024877f4e487b710000000000000000000000000000000000000000000000000000000081526021600452fd5b60646040517f08c379a000000000000000000000000000000000000000000000000000000000815260206004820152600d60248201527f52657665616c54696d656f7574000000000000000000000000000000000000006044820152fd5b60046040517fa89ac151000000000000000000000000000000000000000000000000000000008152fd5b60046040517f756688fe000000000000000000000000000000000000000000000000000000008152fd5b61475290939193614813565b91386138db565b503461042e57807ffffffffffffffffffffffffffffffffffffffffffffffffffffffffffffffffc36011261042e57602073ffffffffffffffffffffffffffffffffffffffff60115416604051908152f35b90503461042a57817ffffffffffffffffffffffffffffffffffffffffffffffffffffffffffffffffc36011261042a57602090600d548152f35b9181601f840112156127415782359167ffffffffffffffff8311612741576020838186019501011161274157565b67ffffffffffffffff811161194b57604052565b6101a0810190811067ffffffffffffffff82111761194b57604052565b60a0810190811067ffffffffffffffff82111761194b57604052565b6060810190811067ffffffffffffffff82111761194b57604052565b90601f7fffffffffffffffffffffffffffffffffffffffffffffffffffffffffffffffe0910116810190811067ffffffffffffffff82111761194b57604052565b90600182811c92168015614906575b60208310146148d757565b7f4e487b7100000000000000000000000000000000000000000000000000000000600052602260045260246000fd5b91607f16916148cc565b9060405191826000825492614924846148bd565b9081845260019485811690816000146149935750600114614950575b505061494e9250038361487c565b565b9093915060005260209081600020936000915b81831061497b57505061494e93508201013880614940565b85548884018501529485019487945091830191614963565b905061494e9550602093507fffffffffffffffffffffffffffffffffffffffffffffffffffffffffffffff0091501682840152151560051b8201013880614940565b600311156149df57565b7f4e487b7100000000000000000000000000000000000000000000000000000000600052602160045260246000fd5b919082519283825260005b848110614a585750507fffffffffffffffffffffffffffffffffffffffffffffffffffffffffffffffe0601f8460006020809697860101520116010190565b602081830181015184830182015201614a19565b6004359073ffffffffffffffffffffffffffffffffffffffff8216820361274157565b6024359073ffffffffffffffffffffffffffffffffffffffff8216820361274157565b67ffffffffffffffff811161194b5760051b60200190565b81601f8201121561274157803591614ae183614ab2565b92614aef604051948561487c565b808452602092838086019260051b820101928311612741578301905b828210614b19575050505090565b813573ffffffffffffffffffffffffffffffffffffffff81168103612741578152908301908301614b0b565b9060078210156149df5752565b73ffffffffffffffffffffffffffffffffffffffff60aa54163303614b7357565b60646040517f08c379a000000000000000000000000000000000000000000000000000000000815260206004820152602060248201527f4f776e61626c653a2063616c6c6572206973206e6f7420746865206f776e65726044820152fd5b60aa549073ffffffffffffffffffffffffffffffffffffffff80911691827fffffffffffffffffffffffff000000000000000000000000000000000000000082161760aa55167f8be0079c531659141344cd1fd0a4f28419497f9722a3daafe3b4186f6b6457e0600080a3565b15614c4557565b60646040517f08c379a000000000000000000000000000000000000000000000000000000000815260206004820152600c60248201527f5a65726f206164647265737300000000000000000000000000000000000000006044820152fd5b15614caa57565b60846040517f08c379a000000000000000000000000000000000000000000000000000000000815260206004820152602b60248201527f496e697469616c697a61626c653a20636f6e7472616374206973206e6f74206960448201527f6e697469616c697a696e670000000000000000000000000000000000000000006064820152fd5b91909161ffff80809416911601918211614d4457565b7f4e487b7100000000000000000000000000000000000000000000000000000000600052601160045260246000fd5b60ff60dc5416614d7f57565b60646040517f08c379a000000000000000000000000000000000000000000000000000000000815260206004820152601060248201527f5061757361626c653a20706175736564000000000000000000000000000000006044820152fd5b60ff60dc541615614dea57565b60646040517f08c379a000000000000000000000000000000000000000000000000000000000815260206004820152601460248201527f5061757361626c653a206e6f74207061757365640000000000000000000000006044820152fd5b73ffffffffffffffffffffffffffffffffffffffff808092169283151580614f1f575b614e7490614c3e565b169081600052600f60205260406000205416614ec157600052600f6020526040600020907fffffffffffffffffffffffff0000000000000000000000000000000000000000825416179055565b60646040517f08c379a000000000000000000000000000000000000000000000000000000000815260206004820152601260248201527f416c7265616479207265676973746572656400000000000000000000000000006044820152fd5b508082161515614e6b565b7fffffffffffffffffffffffffffffffffffffffffffffffffffffffffffffffff8114614d445760010190565b8051821015614f6b5760209160051b010190565b7f4e487b7100000000000000000000000000000000000000000000000000000000600052603260045260246000fd5b91908203918211614d4457565b81810292918115918404141715614d4457565b811561191c570490565b91908201809211614d4457565b91909164ffffffffff80809416911601918211614d4457565b90816020910312612741575180151581036127415790565b9060405191828154918282526020928383019160005283600020936000905b8282106150375750505061494e9250038361487c565b855484526001958601958895509381019390910190615021565b8054821015614f6b5760005260206000200190600090565b8054906801000000000000000082101561194b57816150909160016150c594018155615051565b81939154907fffffffffffffffffffffffffffffffffffffffffffffffffffffffffffffffff9060031b92831b921b19161790565b9055565b60ff1660ff8114614d445760010190565b1561516c5773ffffffffffffffffffffffffffffffffffffffff600c5460581c166020600d546024604051809481937f082df8ca00000000000000000000000000000000000000000000000000000000835260048301525afa90811561516057600091615145575090565b61515d915060203d811161118457611175818361487c565b90565b6040513d6000823e3d90fd5b73ffffffffffffffffffffffffffffffffffffffff600c5460581c16600d54600e549061ffff61271091818460201c16830393838511614d44576020946151c1936151bb9260301c1690614f9a565b90614fa7565b046024604051809481937f082df8ca00000000000000000000000000000000000000000000000000000000835260048301525afa90811561516057600091615145575090565b60ff7fffffffffffffffffffffffffffffffffffffffffffffffffffffffffffffffff9116019060ff8211614d4457565b8054906801000000000000000082101561194b5760018201808255821015614f6b576040916002916000526003602060002091020173ffffffffffffffffffffffffffffffffffffffff8451167fffffffffffffffffffffffff0000000000000000000000000000000000000000825416178155602084015160018201550191015160068110156149df5760ff7fffffffffffffffffffffffffffffffffffffffffffffffffffffffffffffff008354169116179055565b6000808282526006602052604082206040518082602082945493848152019086526020862092865b818110615c9857505061532d9250038261487c565b8383526006602052604083205490835b828110615c535750505082600052600960205261535e604060002054615cb1565b60ff831610615c4b5782600052600260205273ffffffffffffffffffffffffffffffffffffffff6008604060002001541615159061539b826150da565b928460005260026020526153b26040600020615002565b908151938415614f6b576020830151600052600460205285846002604060002001541460009283918a855260026020526002604086200154948092600e54908d600d54916127106154078461ffff8716614fa7565b049880615c42575b615a7d575b5050505050600014615a5b57505061547d61ffff600b5460c01c169360ff61546161547761271061546f6154686154578361544f8d8d614fa7565b04809b614f9a565b8661546189615207565b1690614fba565b9988614fa7565b048096614f9a565b92615207565b935b60005b8781106157b95750505050505050508160005260106020526040600020805491806157b0575b615574575b50508060005260026020526003604060002001548061554c575b5080600052600260205260046040600020015480615524575b5060005260026020526006604060002001650600000000007fffffffffffffffffffffffffffffffffffffffffffffffffffff00ffffffffff825416179055600190565b6155469073ffffffffffffffffffffffffffffffffffffffff600b5416615dfe565b386154e0565b61556e9073ffffffffffffffffffffffffffffffffffffffff600a5416615dfe565b386154c7565b61557d82614ab2565b9161558b604051938461487c565b8083526020830180926000526020600020906000905b8382106157535750505060005b81811061569757505082600052600260205273ffffffffffffffffffffffffffffffffffffffff600560406000200154169160405192608084019046855285602086015260408501526060916080838601525180915260a08401929160005b828110615646575050505090807f2faa16bd9d858bdbd007d15bb6ae06ff3f238c90433800dafb4c0f7e3f07a241920390a138806154ad565b909192936040855173ffffffffffffffffffffffffffffffffffffffff81511683526020810151602084015201519060068210156149df57604081019190915282019360200192919060010161560d565b73ffffffffffffffffffffffffffffffffffffffff600c5460581c169073ffffffffffffffffffffffffffffffffffffffff6156d38287614f57565b51511660206156e28388614f57565b510151833b156127415760446000928360405196879485937f40c10f19000000000000000000000000000000000000000000000000000000008552600485015260248401525af19182156151605761573f92615744575b50614f2a565b6155ae565b61574d90614813565b38615739565b60405161575f81614860565b73ffffffffffffffffffffffffffffffffffffffff84541681526001840154602082015260ff60028501541660068110156149df5760019282602092604060039501528152019301910190916155a1565b508115156154a8565b6157c38183614f57565b516000908152600460205260409020600281015488146158b857600301907a0100000000000000000000000000000000000000000000000000007fffffffffff00ffffffffffffffffffffffffffffffffffffffffffffffffffff8354161780925573ffffffffffffffffffffffffffffffffffffffff6012541691823b156127415773ffffffffffffffffffffffffffffffffffffffff60446000928360405196879485937f969ceab400000000000000000000000000000000000000000000000000000000855260281c166004840152600160248401525af1918215615160576158b3926157445750614f2a565b615482565b9060036158b392017a0200000000000000000000000000000000000000000000000000007fffffffffff00ffffffffffffffffffffffffffffffffffffffffffffffffffff8254161780825560ff8160c81c1690615915826149d5565b60019182036159be575087615995575b8b8061598c575b615938575b5050614f2a565b615985918d600052601060205273ffffffffffffffffffffffffffffffffffffffff6040600020915460281c16916040519261597384614860565b83528a60208401526040830152615238565b3880615931565b5085151561592c565b6159b98873ffffffffffffffffffffffffffffffffffffffff845460281c16615dfe565b615925565b90508680615a32575b50508a80615a29575b6159da5750614f2a565b61574d908c600052601060205273ffffffffffffffffffffffffffffffffffffffff6040600020915460281c169060405191615a1583614860565b825286602083015260006040830152615238565b508415156159d0565b73ffffffffffffffffffffffffffffffffffffffff615a549260281c16615dfe565b38866159c7565b9160ff615a6f615a77939582881690614fba565b951690614fba565b9361547f565b61ffff60405194615a8d86614844565b8181168652818160101c166020870152818160201c166040870152818160301c16606087015260401c1660808501528185526010602052615b816040862093615b36612710615af981615ae861ffff60808c01511686614fa7565b049361ffff60208b01511690614fa7565b049173ffffffffffffffffffffffffffffffffffffffff600a54169060405191615b2283614860565b825260208201526005604082015286615238565b838752600260205273ffffffffffffffffffffffffffffffffffffffff600660408920015460301c169060405191615b6d83614860565b825260208201526002604082015284615238565b615b8c575b81615414565b60086040615c399573ffffffffffffffffffffffffffffffffffffffff93615c0d612710615bd78961ffff8784615bcc836060600d549601511685614fa7565b049c01511690614fa7565b04978284526002602052866006868620015460301c1690855191615bfa83614860565b8252602082015260048582015287615238565b81526002602052200154169160405192615c2684614860565b8352602083015260036040830152615238565b3880808d615b86565b5088151561540f565b505050600090565b615c5d8183614f57565b5180600052600760205260ff80604060002054169087168111615c8b575b5050615c8690614f2a565b61533d565b95509350615c8638615c7b565b8454835260019485019486945060209093019201615318565b8060011b81810460021482151715614d4457600361515d920615600014615ce157600360ff60005b169104614fc4565b600360ff6001615cd9565b60018101908260005281602052604060002054615d1d57615d0d8382615069565b5491600052602052604060002055565b602483604051907f346c4a0e0000000000000000000000000000000000000000000000000000000082526004820152fd5b919060018301600090828252806020526040822054615dcd5784549468010000000000000000861015615da05783615d93615090886001604098999a01855584615051565b9055549382526020522055565b6024837f4e487b710000000000000000000000000000000000000000000000000000000081526041600452fd5b602483604051907fbc436f5e0000000000000000000000000000000000000000000000000000000082526004820152fd5b60008080809481945af1903d15615ebd573d9067ffffffffffffffff8211615e905760405191615e5660207fffffffffffffffffffffffffffffffffffffffffffffffffffffffffffffffe0601f840116018461487c565b825260203d92013e5b15615e6657565b60046040517fbfa871c5000000000000000000000000000000000000000000000000000000008152fd5b807f4e487b7100000000000000000000000000000000000000000000000000000000602492526041600452fd5b50615e5f56fea264697066735822122025b77611d4743970ff04850f1aee59cada21a77a5d88f477e854dc156624181164736f6c63430008140033",
  "linkReferences": {},
  "deployedLinkReferences": {}
}