{
  "_format": "hh-sol-artifact-1",
  "contractName": "WorkerHub",
  "sourceName": "contracts/WorkerHub.sol",
  "abi": [
    {
      "inputs": [],
      "name": "AlreadyCommitted",
      "type": "error"
    },
    {
      "inputs": [],
      "name": "AlreadyRevealed",
      "type": "error"
    },
    {
      "inputs": [],
      "name": "AlreadySubmitted",
      "type": "error"
    },
    {
      "inputs": [
        {
          "internalType": "bytes32",
          "name": "value",
          "type": "bytes32"
        }
      ],
      "name": "Bytes32Set_DuplicatedValue",
      "type": "error"
    },
    {
      "inputs": [],
      "name": "CommitTimeout",
      "type": "error"
    },
    {
      "inputs": [],
      "name": "FailedTransfer",
      "type": "error"
    },
    {
      "inputs": [],
      "name": "InferMustBeSolvingState",
      "type": "error"
    },
    {
      "inputs": [],
      "name": "InvalidCommitment",
      "type": "error"
    },
    {
      "inputs": [],
      "name": "InvalidData",
      "type": "error"
    },
    {
      "inputs": [],
      "name": "InvalidInferenceStatus",
      "type": "error"
    },
    {
      "inputs": [],
      "name": "InvalidMiner",
      "type": "error"
    },
    {
      "inputs": [],
      "name": "InvalidNonce",
      "type": "error"
    },
    {
      "inputs": [],
      "name": "InvalidReveal",
      "type": "error"
    },
    {
      "inputs": [],
      "name": "InvalidRole",
      "type": "error"
    },
    {
      "inputs": [],
      "name": "NotCommitted",
      "type": "error"
    },
    {
      "inputs": [],
      "name": "NotEnoughMiners",
      "type": "error"
    },
    {
      "inputs": [],
      "name": "RevealTimeout",
      "type": "error"
    },
    {
      "inputs": [
        {
          "internalType": "uint256",
          "name": "value",
          "type": "uint256"
        }
      ],
      "name": "Uint256Set_DuplicatedValue",
      "type": "error"
    },
    {
      "inputs": [],
      "name": "Unauthorized",
      "type": "error"
    },
    {
      "inputs": [],
      "name": "ZeroValue",
      "type": "error"
    },
    {
      "anonymous": false,
      "inputs": [
        {
          "indexed": true,
          "internalType": "address",
          "name": "miner",
          "type": "address"
        },
        {
          "indexed": true,
          "internalType": "uint256",
          "name": "assigmentId",
          "type": "uint256"
        },
        {
          "indexed": false,
          "internalType": "bytes32",
          "name": "commitment",
          "type": "bytes32"
        }
      ],
      "name": "CommitmentSubmission",
      "type": "event"
    },
    {
      "anonymous": false,
      "inputs": [
        {
          "indexed": false,
          "internalType": "uint256",
          "name": "chainId",
          "type": "uint256"
        },
        {
          "indexed": false,
          "internalType": "uint256",
          "name": "inferenceId",
          "type": "uint256"
        },
        {
          "indexed": false,
          "internalType": "address",
          "name": "modelAddress",
          "type": "address"
        },
        {
          "components": [
            {
              "internalType": "address",
              "name": "receiver",
              "type": "address"
            },
            {
              "internalType": "uint256",
              "name": "amount",
              "type": "uint256"
            },
            {
              "internalType": "enum IWorkerHub.DAOTokenReceiverRole",
              "name": "role",
              "type": "uint8"
            }
          ],
          "indexed": false,
          "internalType": "struct IWorkerHub.DAOTokenReceiverInfor[]",
          "name": "receivers",
          "type": "tuple[]"
        }
      ],
      "name": "DAOTokenMintedV2",
      "type": "event"
    },
    {
      "anonymous": false,
      "inputs": [
        {
          "components": [
            {
              "internalType": "uint16",
              "name": "minerPercentage",
              "type": "uint16"
            },
            {
              "internalType": "uint16",
              "name": "userPercentage",
              "type": "uint16"
            },
            {
              "internalType": "uint16",
              "name": "referrerPercentage",
              "type": "uint16"
            },
            {
              "internalType": "uint16",
              "name": "refereePercentage",
              "type": "uint16"
            },
            {
              "internalType": "uint16",
              "name": "l2OwnerPercentage",
              "type": "uint16"
            }
          ],
          "indexed": false,
          "internalType": "struct IWorkerHub.DAOTokenPercentage",
          "name": "oldValue",
          "type": "tuple"
        },
        {
          "components": [
            {
              "internalType": "uint16",
              "name": "minerPercentage",
              "type": "uint16"
            },
            {
              "internalType": "uint16",
              "name": "userPercentage",
              "type": "uint16"
            },
            {
              "internalType": "uint16",
              "name": "referrerPercentage",
              "type": "uint16"
            },
            {
              "internalType": "uint16",
              "name": "refereePercentage",
              "type": "uint16"
            },
            {
              "internalType": "uint16",
              "name": "l2OwnerPercentage",
              "type": "uint16"
            }
          ],
          "indexed": false,
          "internalType": "struct IWorkerHub.DAOTokenPercentage",
          "name": "newValue",
          "type": "tuple"
        }
      ],
      "name": "DAOTokenPercentageUpdated",
      "type": "event"
    },
    {
      "anonymous": false,
      "inputs": [
        {
          "indexed": false,
          "internalType": "address",
          "name": "oldAddress",
          "type": "address"
        },
        {
          "indexed": false,
          "internalType": "address",
          "name": "newAddress",
          "type": "address"
        }
      ],
      "name": "DAOTokenUpdated",
      "type": "event"
    },
    {
      "anonymous": false,
      "inputs": [
        {
          "indexed": true,
          "internalType": "uint256",
          "name": "inferenceId",
          "type": "uint256"
        },
        {
          "indexed": false,
          "internalType": "enum IWorkerHub.InferenceStatus",
          "name": "newStatus",
          "type": "uint8"
        }
      ],
      "name": "InferenceStatusUpdate",
      "type": "event"
    },
    {
      "anonymous": false,
      "inputs": [
        {
          "indexed": false,
          "internalType": "uint8",
          "name": "version",
          "type": "uint8"
        }
      ],
      "name": "Initialized",
      "type": "event"
    },
    {
      "anonymous": false,
      "inputs": [
        {
          "indexed": true,
          "internalType": "uint256",
          "name": "assignmentId",
          "type": "uint256"
        },
        {
          "indexed": true,
          "internalType": "uint256",
          "name": "inferenceId",
          "type": "uint256"
        },
        {
          "indexed": true,
          "internalType": "address",
          "name": "miner",
          "type": "address"
        }
      ],
      "name": "MinerRoleSeized",
      "type": "event"
    },
    {
      "anonymous": false,
      "inputs": [
        {
          "indexed": true,
          "internalType": "uint256",
          "name": "assignmentId",
          "type": "uint256"
        },
        {
          "indexed": true,
          "internalType": "uint256",
          "name": "inferenceId",
          "type": "uint256"
        },
        {
          "indexed": true,
          "internalType": "address",
          "name": "miner",
          "type": "address"
        },
        {
          "indexed": false,
          "internalType": "uint40",
          "name": "expiredAt",
          "type": "uint40"
        }
      ],
      "name": "NewAssignment",
      "type": "event"
    },
    {
      "anonymous": false,
      "inputs": [
        {
          "indexed": true,
          "internalType": "uint256",
          "name": "inferenceId",
          "type": "uint256"
        },
        {
          "indexed": true,
          "internalType": "address",
          "name": "model",
          "type": "address"
        },
        {
          "indexed": true,
          "internalType": "address",
          "name": "creator",
          "type": "address"
        },
        {
          "indexed": false,
          "internalType": "uint256",
          "name": "value",
          "type": "uint256"
        },
        {
          "indexed": false,
          "internalType": "uint256",
          "name": "originInferenceId",
          "type": "uint256"
        }
      ],
      "name": "NewInference",
      "type": "event"
    },
    {
      "anonymous": false,
      "inputs": [
        {
          "indexed": true,
          "internalType": "address",
          "name": "previousOwner",
          "type": "address"
        },
        {
          "indexed": true,
          "internalType": "address",
          "name": "newOwner",
          "type": "address"
        }
      ],
      "name": "OwnershipTransferred",
      "type": "event"
    },
    {
      "anonymous": false,
      "inputs": [
        {
          "indexed": false,
          "internalType": "address",
          "name": "account",
          "type": "address"
        }
      ],
      "name": "Paused",
      "type": "event"
    },
    {
      "anonymous": false,
      "inputs": [
        {
          "indexed": true,
          "internalType": "address",
          "name": "miner",
          "type": "address"
        },
        {
          "indexed": true,
          "internalType": "uint256",
          "name": "assigmentId",
          "type": "uint256"
        },
        {
          "indexed": false,
          "internalType": "uint40",
          "name": "nonce",
          "type": "uint40"
        },
        {
          "indexed": false,
          "internalType": "bytes",
          "name": "output",
          "type": "bytes"
        }
      ],
      "name": "RevealSubmission",
      "type": "event"
    },
    {
      "anonymous": false,
      "inputs": [
        {
          "indexed": true,
          "internalType": "address",
          "name": "miner",
          "type": "address"
        },
        {
          "indexed": true,
          "internalType": "uint256",
          "name": "assigmentId",
          "type": "uint256"
        }
      ],
      "name": "SolutionSubmission",
      "type": "event"
    },
    {
      "anonymous": false,
      "inputs": [
        {
          "indexed": true,
          "internalType": "uint256",
          "name": "assignmentId",
          "type": "uint256"
        },
        {
          "indexed": false,
          "internalType": "bytes",
          "name": "data",
          "type": "bytes"
        }
      ],
      "name": "StreamedData",
      "type": "event"
    },
    {
      "anonymous": false,
      "inputs": [
        {
          "indexed": true,
          "internalType": "uint256",
          "name": "inferenceId",
          "type": "uint256"
        },
        {
          "indexed": true,
          "internalType": "address",
          "name": "creator",
          "type": "address"
        },
        {
          "indexed": false,
          "internalType": "uint256",
          "name": "value",
          "type": "uint256"
        }
      ],
      "name": "TopUpInfer",
      "type": "event"
    },
    {
      "anonymous": false,
      "inputs": [
        {
          "indexed": false,
          "internalType": "address",
          "name": "account",
          "type": "address"
        }
      ],
      "name": "Unpaused",
      "type": "event"
    },
    {
      "inputs": [],
      "name": "assignmentNumber",
      "outputs": [
        {
          "internalType": "uint256",
          "name": "",
          "type": "uint256"
        }
      ],
      "stateMutability": "view",
      "type": "function"
    },
    {
      "inputs": [
        {
          "internalType": "uint256",
          "name": "",
          "type": "uint256"
        }
      ],
      "name": "assignments",
      "outputs": [
        {
          "internalType": "uint256",
          "name": "inferenceId",
          "type": "uint256"
        },
        {
          "internalType": "bytes32",
          "name": "commitment",
          "type": "bytes32"
        },
        {
          "internalType": "bytes32",
          "name": "digest",
          "type": "bytes32"
        },
        {
          "internalType": "uint40",
          "name": "revealNonce",
          "type": "uint40"
        },
        {
          "internalType": "address",
          "name": "worker",
          "type": "address"
        },
        {
          "internalType": "enum IWorkerHub.AssignmentRole",
          "name": "role",
          "type": "uint8"
        },
        {
          "internalType": "enum IWorkerHub.Vote",
          "name": "vote",
          "type": "uint8"
        },
        {
          "internalType": "bytes",
          "name": "output",
          "type": "bytes"
        }
      ],
      "stateMutability": "view",
      "type": "function"
    },
    {
      "inputs": [
        {
          "internalType": "uint256",
          "name": "_assignId",
          "type": "uint256"
        },
        {
          "internalType": "bytes32",
          "name": "_commitment",
          "type": "bytes32"
        }
      ],
      "name": "commit",
      "outputs": [],
      "stateMutability": "nonpayable",
      "type": "function"
    },
    {
      "inputs": [
        {
          "internalType": "uint256",
          "name": "_inferenceId",
          "type": "uint256"
        }
      ],
      "name": "getInferenceInfo",
      "outputs": [
        {
          "components": [
            {
              "internalType": "uint256[]",
              "name": "assignments",
              "type": "uint256[]"
            },
            {
              "internalType": "bytes",
              "name": "input",
              "type": "bytes"
            },
            {
              "internalType": "uint256",
              "name": "value",
              "type": "uint256"
            },
            {
              "internalType": "uint256",
              "name": "feeL2",
              "type": "uint256"
            },
            {
              "internalType": "uint256",
              "name": "feeTreasury",
              "type": "uint256"
            },
            {
              "internalType": "address",
              "name": "modelAddress",
              "type": "address"
            },
            {
              "internalType": "uint40",
              "name": "submitTimeout",
              "type": "uint40"
            },
            {
              "internalType": "uint40",
              "name": "commitTimeout",
              "type": "uint40"
            },
            {
              "internalType": "uint40",
              "name": "revealTimeout",
              "type": "uint40"
            },
            {
              "internalType": "enum IWorkerHub.InferenceStatus",
              "name": "status",
              "type": "uint8"
            },
            {
              "internalType": "address",
              "name": "creator",
              "type": "address"
            },
            {
              "internalType": "address",
              "name": "processedMiner",
              "type": "address"
            },
            {
              "internalType": "address",
              "name": "referrer",
              "type": "address"
            }
          ],
          "internalType": "struct IWorkerHub.Inference",
          "name": "",
          "type": "tuple"
        }
      ],
      "stateMutability": "view",
      "type": "function"
    },
    {
      "inputs": [
        {
          "internalType": "address",
          "name": "_modelAddress",
          "type": "address"
        }
      ],
      "name": "getMinFeeToUse",
      "outputs": [
        {
          "internalType": "uint256",
          "name": "",
          "type": "uint256"
        }
      ],
      "stateMutability": "view",
      "type": "function"
    },
    {
      "inputs": [],
      "name": "getTreasuryAddress",
      "outputs": [
        {
          "internalType": "address",
          "name": "",
          "type": "address"
        }
      ],
      "stateMutability": "view",
      "type": "function"
    },
    {
      "inputs": [
        {
          "internalType": "bytes",
          "name": "_input",
          "type": "bytes"
        },
        {
          "internalType": "address",
          "name": "_creator",
          "type": "address"
        }
      ],
      "name": "infer",
      "outputs": [
        {
          "internalType": "uint256",
          "name": "",
          "type": "uint256"
        }
      ],
      "stateMutability": "payable",
      "type": "function"
    },
    {
      "inputs": [],
      "name": "inferenceNumber",
      "outputs": [
        {
          "internalType": "uint256",
          "name": "",
          "type": "uint256"
        }
      ],
      "stateMutability": "view",
      "type": "function"
    },
    {
      "inputs": [
        {
          "internalType": "address",
          "name": "_wEAI",
          "type": "address"
        },
        {
          "internalType": "address",
          "name": "_l2Owner",
          "type": "address"
        },
        {
          "internalType": "address",
          "name": "_treasury",
          "type": "address"
        },
        {
          "internalType": "address",
          "name": "_daoToken",
          "type": "address"
        },
        {
          "internalType": "address",
          "name": "_stakingHub",
          "type": "address"
        },
        {
          "internalType": "uint16",
          "name": "_feeL2Percentage",
          "type": "uint16"
        },
        {
          "internalType": "uint16",
          "name": "_feeTreasuryPercentage",
          "type": "uint16"
        },
        {
          "internalType": "uint8",
          "name": "_minerRequirement",
          "type": "uint8"
        },
        {
          "internalType": "uint40",
          "name": "_submitDuration",
          "type": "uint40"
        },
        {
          "internalType": "uint40",
          "name": "_commitDuration",
          "type": "uint40"
        },
        {
          "internalType": "uint40",
          "name": "_revealDuration",
          "type": "uint40"
        },
        {
          "internalType": "uint16",
          "name": "_feeRatioMinerValidor",
          "type": "uint16"
        },
        {
          "internalType": "uint256",
          "name": "_daoTokenReward",
          "type": "uint256"
        },
        {
          "components": [
            {
              "internalType": "uint16",
              "name": "minerPercentage",
              "type": "uint16"
            },
            {
              "internalType": "uint16",
              "name": "userPercentage",
              "type": "uint16"
            },
            {
              "internalType": "uint16",
              "name": "referrerPercentage",
              "type": "uint16"
            },
            {
              "internalType": "uint16",
              "name": "refereePercentage",
              "type": "uint16"
            },
            {
              "internalType": "uint16",
              "name": "l2OwnerPercentage",
              "type": "uint16"
            }
          ],
          "internalType": "struct IWorkerHub.DAOTokenPercentage",
          "name": "_daoTokenPercentage",
          "type": "tuple"
        }
      ],
      "name": "initialize",
      "outputs": [],
      "stateMutability": "nonpayable",
      "type": "function"
    },
    {
      "inputs": [],
      "name": "owner",
      "outputs": [
        {
          "internalType": "address",
          "name": "",
          "type": "address"
        }
      ],
      "stateMutability": "view",
      "type": "function"
    },
    {
      "inputs": [],
      "name": "pause",
      "outputs": [],
      "stateMutability": "nonpayable",
      "type": "function"
    },
    {
      "inputs": [],
      "name": "paused",
      "outputs": [
        {
          "internalType": "bool",
          "name": "",
          "type": "bool"
        }
      ],
      "stateMutability": "view",
      "type": "function"
    },
    {
      "inputs": [
        {
          "internalType": "address",
          "name": "_referrer",
          "type": "address"
        }
      ],
      "name": "registerReferrer",
      "outputs": [],
      "stateMutability": "nonpayable",
      "type": "function"
    },
    {
      "inputs": [
        {
          "internalType": "address[]",
          "name": "_referrers",
          "type": "address[]"
        },
        {
          "internalType": "address[]",
          "name": "_referees",
          "type": "address[]"
        }
      ],
      "name": "registerReferrer",
      "outputs": [],
      "stateMutability": "nonpayable",
      "type": "function"
    },
    {
      "inputs": [],
      "name": "renounceOwnership",
      "outputs": [],
      "stateMutability": "nonpayable",
      "type": "function"
    },
    {
      "inputs": [
        {
          "internalType": "uint256",
          "name": "_inferenceId",
          "type": "uint256"
        }
      ],
      "name": "resolveInference",
      "outputs": [],
      "stateMutability": "nonpayable",
      "type": "function"
    },
    {
      "inputs": [
        {
          "internalType": "uint256",
          "name": "_assignId",
          "type": "uint256"
        },
        {
          "internalType": "uint40",
          "name": "_nonce",
          "type": "uint40"
        },
        {
          "internalType": "bytes",
          "name": "_data",
          "type": "bytes"
        }
      ],
      "name": "reveal",
      "outputs": [],
      "stateMutability": "nonpayable",
      "type": "function"
    },
    {
      "inputs": [
        {
          "internalType": "uint256",
          "name": "_assignmentId",
          "type": "uint256"
        }
      ],
      "name": "seizeMinerRole",
      "outputs": [],
      "stateMutability": "nonpayable",
      "type": "function"
    },
    {
      "inputs": [
        {
          "components": [
            {
              "internalType": "uint16",
              "name": "minerPercentage",
              "type": "uint16"
            },
            {
              "internalType": "uint16",
              "name": "userPercentage",
              "type": "uint16"
            },
            {
              "internalType": "uint16",
              "name": "referrerPercentage",
              "type": "uint16"
            },
            {
              "internalType": "uint16",
              "name": "refereePercentage",
              "type": "uint16"
            },
            {
              "internalType": "uint16",
              "name": "l2OwnerPercentage",
              "type": "uint16"
            }
          ],
          "internalType": "struct IWorkerHub.DAOTokenPercentage",
          "name": "_daoTokenPercentage",
          "type": "tuple"
        }
      ],
      "name": "setDAOTokenPercentage",
      "outputs": [],
      "stateMutability": "nonpayable",
      "type": "function"
    },
    {
      "inputs": [
        {
          "internalType": "uint256",
          "name": "_newDAOTokenReward",
          "type": "uint256"
        }
      ],
      "name": "setDAOTokenReward",
      "outputs": [],
      "stateMutability": "nonpayable",
      "type": "function"
    },
    {
      "inputs": [],
      "name": "stakingHub",
      "outputs": [
        {
          "internalType": "address",
          "name": "",
          "type": "address"
        }
      ],
      "stateMutability": "view",
      "type": "function"
    },
    {
      "inputs": [
        {
          "internalType": "uint256",
          "name": "_assigmentId",
          "type": "uint256"
        },
        {
          "internalType": "bytes",
          "name": "_data",
          "type": "bytes"
        }
      ],
      "name": "submitSolution",
      "outputs": [],
      "stateMutability": "nonpayable",
      "type": "function"
    },
    {
      "inputs": [
        {
          "internalType": "address",
          "name": "newOwner",
          "type": "address"
        }
      ],
      "name": "transferOwnership",
      "outputs": [],
      "stateMutability": "nonpayable",
      "type": "function"
    },
    {
      "inputs": [],
      "name": "unpause",
      "outputs": [],
      "stateMutability": "nonpayable",
      "type": "function"
    },
    {
      "inputs": [
        {
          "internalType": "bool",
          "name": "_isReferred",
          "type": "bool"
        }
      ],
      "name": "validateDAOSupplyIncrease",
      "outputs": [
        {
          "internalType": "bool",
          "name": "notReachedLimit",
          "type": "bool"
        }
      ],
      "stateMutability": "view",
      "type": "function"
    },
    {
      "inputs": [],
      "name": "version",
      "outputs": [
        {
          "internalType": "string",
          "name": "",
          "type": "string"
        }
      ],
      "stateMutability": "pure",
      "type": "function"
    },
    {
      "inputs": [],
      "name": "wEAI",
      "outputs": [
        {
          "internalType": "address",
          "name": "",
          "type": "address"
        }
      ],
      "stateMutability": "view",
      "type": "function"
    },
    {
      "stateMutability": "payable",
      "type": "receive"
    }
  ],
  "bytecode": "0x6080806040523461001757615e2790816200001d8239f35b600080fdfe608080604052600436101561001d575b50361561001b57600080fd5b005b60009081803560e01c91826308c059031461445a57505080630dc7df5314614408578063121a301d146134c35780633860ce68146132e85780633f4ba83a1461324c5780634213ec0f146131fa5780634e50c75c1461312057806354fd4d501461308d5780635c975abb1461304c5780636029e786146127cb5780636973d3f21461278f578063715018a6146126f057806376e7ffae146126af5780638456cb59146126105780638da5cb5b146125be5780639ea7685a1461250a578063a96c79f414611d10578063afc1fce714611c31578063c41bf66514611a94578063d7acb1ea14611a42578063d9844458146110ca578063e002460414611078578063e84dee6b146108ba578063f2f0387714610503578063f2fde38b14610417578063f80dca98146103db5763ffbc66610361000f57346103d8576020807ffffffffffffffffffffffffffffffffffffffffffffffffffffffffffffffffc3601126103d4576004359073ffffffffffffffffffffffffffffffffffffffff90838260125416803b156103d4578180916004604051809481937f36f4fb020000000000000000000000000000000000000000000000000000000083525af180156103c9576103b1575b508390526004815281600360408620015460281c16330361032d5782845260048152604084205491828552600282526007604086200154166102cf5760029083855260048152600360408620017902000000000000000000000000000000000000000000000000007fffffffffffff00ffffffffffffffffffffffffffffffffffffffffffffffffff8254161790558285525260076040842001337fffffffffffffffffffffffff000000000000000000000000000000000000000082541617905533917f3d4f35957f03b76084f29d7c66d573fcec3d2e4bbc2844549e44bc1aed4c6c248480a480f35b606490604051907f08c379a00000000000000000000000000000000000000000000000000000000082526004820152601e60248201527f5468697320696e666572656e636520686173206265656e207365697a656400006044820152fd5b608490604051907f08c379a00000000000000000000000000000000000000000000000000000000082526004820152602760248201527f4f6e6c792061737369676e656420776f726b65722063616e207365697a65207460448201527f686520726f6c65000000000000000000000000000000000000000000000000006064820152fd5b6103ba906147f8565b6103c55783386101e4565b8380fd5b6040513d84823e3d90fd5b5080fd5b80fd5b50346103d857807ffffffffffffffffffffffffffffffffffffffffffffffffffffffffffffffffc3601126103d8576020600154604051908152f35b50346103d85760207ffffffffffffffffffffffffffffffffffffffffffffffffffffffffffffffffc3601126103d85761044f6149a7565b610457614a80565b73ffffffffffffffffffffffffffffffffffffffff81161561047f5761047c90614aff565b80f35b60846040517f08c379a000000000000000000000000000000000000000000000000000000000815260206004820152602660248201527f4f776e61626c653a206e6577206f776e657220697320746865207a65726f206160448201527f64647265737300000000000000000000000000000000000000000000000000006064820152fd5b50346103d85760407ffffffffffffffffffffffffffffffffffffffffffffffffffffffffffffffffc3601126103d857602435600435610541614ca1565b73ffffffffffffffffffffffffffffffffffffffff90838260125416803b156103d4578180916004604051809481937f36f4fb020000000000000000000000000000000000000000000000000000000083525af180156103c9576108a6575b5050821561087c5780845260209060048252604085209384549485875260028452604087209064ffffffffff80600584015460c81c169043161161085257600682019560ff875460281c166007811015610825576002036107fb576003820154908160281c1633036107d15760ff60019160c81c1661061e8161499d565b036107a757600101805461077d576106399183859255614f97565b848652600583526040862080547fffffffffffffffffffffffffffffffffffffffffffffffffffffffffffffff0060ff610674818416614ff7565b1691161790556040519081527f47a3511bbb68bfcf0b476106b3a5a5d5b8d7eb4205a28d6424a40fb19d9afa5b833392a38284526005815260ff604085205416600982526040852054907fffffffffffffffffffffffffffffffffffffffffffffffffffffffffffffffff820191821161075057146106f1578380f35b81650300000000007fffffffffffffffffffffffffffffffffffffffffffffffffffff00ffffffffff7fbc645ece538d7606c8ac26de30aef5fbd0ed2ee0c945f4e5d860da3e62781d5094541617905560405160038152a23880808380f35b6024867f4e487b710000000000000000000000000000000000000000000000000000000081526011600452fd5b60046040517fbfec5558000000000000000000000000000000000000000000000000000000008152fd5b60046040517fd954416a000000000000000000000000000000000000000000000000000000008152fd5b60046040517f82b42900000000000000000000000000000000000000000000000000000000008152fd5b60046040517fef084b59000000000000000000000000000000000000000000000000000000008152fd5b60248a7f4e487b710000000000000000000000000000000000000000000000000000000081526021600452fd5b60046040517f88ac04e3000000000000000000000000000000000000000000000000000000008152fd5b60046040517fc06789fa000000000000000000000000000000000000000000000000000000008152fd5b6108af906147f8565b6103c55783386105a0565b50346103d85760407ffffffffffffffffffffffffffffffffffffffffffffffffffffffffffffffffc3601126103d8576004356024803567ffffffffffffffff81116103c55761090e9036906004016147ad565b9091610918614ca1565b8473ffffffffffffffffffffffffffffffffffffffff60125416803b156103d4578180916004604051809481937f36f4fb020000000000000000000000000000000000000000000000000000000083525af180156103c957611060575b505081156110365773ffffffffffffffffffffffffffffffffffffffff601254166040517f34875ec30000000000000000000000000000000000000000000000000000000081523360048201526020818481855afa90811561102b57879161100c575b5015610fe25760208291604051928380927fd8f0166c0000000000000000000000000000000000000000000000000000000082523360048301525afa8015610fd757610fa8575b508385526004602052604085209260405193610100850185811067ffffffffffffffff821117610f7a57604052805485526001810154602086015260028101546040860152610acc600460038301549264ffffffffff8416606089015273ffffffffffffffffffffffffffffffffffffffff8460281c16608089015260ff808560c81c169460a08a0195610ab28161499d565b865260d01c16610ac18161499d565b60c0890152016148d8565b9060e0860191825273ffffffffffffffffffffffffffffffffffffffff608087519701511633036107d15760029051610b048161499d565b610b0d8161499d565b036107a7575151610f5057838652600260205260408620604051610b30816147db565b610b3982614f30565b8152610b47600183016148d8565b602082015260028201546040820152600382015460608201526004820154608082015264ffffffffff600583015473ffffffffffffffffffffffffffffffffffffffff811660a0840152818160a01c1660c084015260c81c1660e082015260068201549164ffffffffff831661010083015260ff8360281c16926007841015610f245773ffffffffffffffffffffffffffffffffffffffff6008849382610180948861012060019a99015260301c1661014086015282600782015416610160860152015416910152036107fb57838652600260205260408620928587526004602052600460408820019267ffffffffffffffff8211610ef95750908591610c4e8454614885565b601f8111610ea6575b508793601f8211600114610e045781610d20958a91610df9575b508260011b907fffffffffffffffffffffffffffffffffffffffffffffffffffffffffffffffff8460031b1c19161790555b610cce6040805183819460208301968b88528484013781018b83820152036020810184520182614844565b51902092818752600460205283600160408920826002820155015560068101650200000000007fffffffffffffffffffffffffffffffffffffffffffffffffffff00ffffffffff825416179055614f97565b8184526006602052610d45816040862060019160005201602052604060002054151590565b15610ddf575b835260076020526040832080547fffffffffffffffffffffffffffffffffffffffffffffffffffffffffffffff0060ff610d86818416614ff7565b1691161790557fbc645ece538d7606c8ac26de30aef5fbd0ed2ee0c945f4e5d860da3e62781d50602060405160028152a2337f9f669b92b9cbc7611f7ab6c77db07a424051c777433e21bd90f1bdf940096dd98380a380f35b8184526006602052610df48160408620615c7c565b610d4b565b905083013538610c71565b808952602089207fffffffffffffffffffffffffffffffffffffffffffffffffffffffffffffffe083168a5b818110610e8b57509583610d209710610e53575b5050600182811b019055610ca3565b7fffffffffffffffffffffffffffffffffffffffffffffffffffffffffffffffff60f88560031b161c19908501351690553880610e44565b8786013583556020978801978b975060019093019201610e30565b9091925083885260208820601f830160051c81019160208410610eef575b90601f89959493920160051c01905b818110610ee05750610c57565b60008155889450600101610ed3565b9091508190610ec4565b877f4e487b710000000000000000000000000000000000000000000000000000000081526041600452fd5b858a7f4e487b710000000000000000000000000000000000000000000000000000000081526021600452fd5b60046040517f9fbfc589000000000000000000000000000000000000000000000000000000008152fd5b837f4e487b710000000000000000000000000000000000000000000000000000000060005260416004526000fd5b610fc99060203d602011610fd0575b610fc18183614844565b810190614f18565b5038610a1f565b503d610fb7565b6040513d88823e3d90fd5b60046040517fa7c1cb49000000000000000000000000000000000000000000000000000000008152fd5b611025915060203d602011610fd057610fc18183614844565b386109d8565b6040513d89823e3d90fd5b60046040517f5cb045db000000000000000000000000000000000000000000000000000000008152fd5b611069906147f8565b611074578438610975565b8480fd5b50346103d857807ffffffffffffffffffffffffffffffffffffffffffffffffffffffffffffffffc3601126103d857602073ffffffffffffffffffffffffffffffffffffffff600b5416604051908152f35b5060407ffffffffffffffffffffffffffffffffffffffffffffffffffffffffffffffffc3601126103d85760043567ffffffffffffffff81116103d4576111159036906004016147ad565b61111d6149ca565b90611126614ca1565b83604073ffffffffffffffffffffffffffffffffffffffff6012541660248251809481937fcd23ea140000000000000000000000000000000000000000000000000000000083523360048401525af1908115611a375785916119c9575b506020015163ffffffff16156107d15761119e600154614e58565b928360015583855260026020526040852091600b549061ffff6111da61271091826111ce828760a01c1634614ed5565b049460b01c1634614ed5565b049267ffffffffffffffff821161199c576111f86001860154614885565b601f8111611957575b508790601f831160011461188857918061126e959492611269948b9261187d575b50507fffffffffffffffffffffffffffffffffffffffffffffffffffffffffffffffff8260011b9260031b1c19161760018601555b80600386015582600486015534614ec8565b614ec8565b60028201556006810173ffffffffffffffffffffffffffffffffffffffff8316927fffffffffffff0000000000000000000000000000000000000000ffffffffffff79ffffffffffffffffffffffffffffffffffffffff00000000000083549260301b169116179055818452600f602052600573ffffffffffffffffffffffffffffffffffffffff60408620541691600881017fffffffffffffffffffffffff0000000000000000000000000000000000000000938482541617905501903390825416179055604051348152836020820152827f08a84d7fb7cd1557f228c827b9280f44d1a157c3256fe453b687a7b9d51c6a5b60403393a464ffffffffff61137e81600b5460d01c1643614ef2565b9261141c61139283600c5416848716614eff565b84835260026020526005604084200180547dffffffffff000000000000000000000000000000000000000000000000008360c81b16907fffff00000000000000000000ffffffffffffffffffffffffffffffffffffffff78ffffffffff00000000000000000000000000000000000000008a60a01b1691161717905583600c5460281c1690614eff565b838252600260205265010000000000836006604085200192167fffffffffffffffffffffffffffffffffffffffffffffffffffff00000000000083541617179055828152600260205273ffffffffffffffffffffffffffffffffffffffff600560408320015416918173ffffffffffffffffffffffffffffffffffffffff60125416936024604051809681937f47253baa00000000000000000000000000000000000000000000000000000000835260048301525afa9283156103c95782936117ae575b50825160ff600c5460501c169384821061178457835b85811061150857602087604051908152f35b84546040519060208201524260408201526060434081830152815280608081011067ffffffffffffffff6080830111176117555760808101604052602081519101208086556115578285614ec8565b9081156117265761156d60ff8383061685614e85565b51916115798487614ec8565b807fffffffffffffffffffffffffffffffffffffffffffffffffffffffffffffffff8101116116f95760ff6116f49594939273ffffffffffffffffffffffffffffffffffffffff6115ef7fffffffffffffffffffffffffffffffffffffffffffffffffffffffffffffffff6115fa95018a614e85565b511693061686614e85565b528873ffffffffffffffffffffffffffffffffffffffff61161c600354614e58565b9283600355838a526004602052600360408b208481550179010000000000000000000000000000000000000000000000000081547fffffffffffff000000000000000000000000000000000000000000ffffffffff78ffffffffffffffffffffffffffffffffffffffff00000000008560281b16911617179055169182895260086020526116ad8160408b20615c1a565b81895260096020526116c28160408b20615c1a565b7f53cc8b652f33c56dac5f1c97a284cc971e7adcb8abe9454b0853f076c6deb7d560208d8a60405191168152a4614e58565b6114f6565b6024897f4e487b710000000000000000000000000000000000000000000000000000000081526011600452fd5b7f4e487b7100000000000000000000000000000000000000000000000000000000600052601260045260246000fd5b7f4e487b7100000000000000000000000000000000000000000000000000000000600052604160045260246000fd5b60046040517f4069094a000000000000000000000000000000000000000000000000000000008152fd5b9092503d8083833e6117c08183614844565b81016020828203126118795781519167ffffffffffffffff83116103c55781601f8483010112156103c55782810151906117f9826149ed565b936118076040519586614844565b828552602085019360208460051b83850101011161187557602081830101935b60208460051b8385010101851061184457505050505091386114e0565b845173ffffffffffffffffffffffffffffffffffffffff8116810361187157815260209485019401611827565b8780fd5b8580fd5b8280fd5b013590503880611222565b6001860189526020892091895b7fffffffffffffffffffffffffffffffffffffffffffffffffffffffffffffffe08516811061193f57509261126e95949260019261126995837fffffffffffffffffffffffffffffffffffffffffffffffffffffffffffffffe0811610611907575b505050811b016001860155611257565b7fffffffffffffffffffffffffffffffffffffffffffffffffffffffffffffffff60f88560031b161c199101351690553880806118f7565b90926020600181928686013581550194019101611895565b60018601895260208920601f840160051c810160208510611995575b601f830160051c82018110611989575050611201565b60008155600101611973565b5080611973565b6024887f4e487b710000000000000000000000000000000000000000000000000000000081526041600452fd5b90506040813d604011611a2f575b816119e460409383614844565b810103126110745760405190604082019082821067ffffffffffffffff8311176117555760209160405280518352015163ffffffff8116810361187557602080830191909152611183565b3d91506119d7565b6040513d87823e3d90fd5b50346103d85760207ffffffffffffffffffffffffffffffffffffffffffffffffffffffffffffffffc3601126103d8576004359081151582036103d8576020611a8a83615008565b6040519015158152f35b50346103d85760407ffffffffffffffffffffffffffffffffffffffffffffffffffffffffffffffffc3601126103d85767ffffffffffffffff906004358281116103d457611ae6903690600401614a05565b916024359081116103d457611aff903690600401614a05565b91611b08614a80565b73ffffffffffffffffffffffffffffffffffffffff908160125416803b156103c5578380916004604051809481937f36f4fb020000000000000000000000000000000000000000000000000000000083525af18015611c2657908491611c12575b50508051845103611bb457825b8151811015611bb05780611ba684611b91611bab9486614e85565b511685611b9e848a614e85565b511690614d76565b614e58565b611b76565b8380f35b60646040517f08c379a000000000000000000000000000000000000000000000000000000000815260206004820152600d60248201527f496e76616c696420696e707574000000000000000000000000000000000000006044820152fd5b611c1b906147f8565b611879578238611b69565b6040513d86823e3d90fd5b50346103d857602090817ffffffffffffffffffffffffffffffffffffffffffffffffffffffffffffffffc3601126103d857611c6b6149a7565b8273ffffffffffffffffffffffffffffffffffffffff602481601254169360405194859384927fafc1fce70000000000000000000000000000000000000000000000000000000084521660048301525afa918215611d04578092611cd4575b5050604051908152f35b9091508282813d8311611cfd575b611cec8183614844565b810103126103d85750513880611cca565b503d611ce2565b604051903d90823e3d90fd5b50346103d8576102407ffffffffffffffffffffffffffffffffffffffffffffffffffffffffffffffffc3601126103d857611d496149a7565b611d516149ca565b9060443573ffffffffffffffffffffffffffffffffffffffff811681036125055773ffffffffffffffffffffffffffffffffffffffff6064351660643503612505576084359173ffffffffffffffffffffffffffffffffffffffff831683036125055761ffff60a4351660a435036125055761ffff60c4351660c435036125055760ff60e4351660e435036110745764ffffffffff6101043516610104350361250557610124359164ffffffffff831683036125055764ffffffffff610144351661014435036125055761ffff610164351661016435036125055760a07ffffffffffffffffffffffffffffffffffffffffffffffffffffffffffffffe5c3601126125055760405192611e638461480c565b61ffff6101a435166101a43503612505576101a435845261ffff6101c435166101c43503612505576101c435602085015261ffff6101e435166101e43503612505576101e435604085015261ffff610204351661020435036125055761020435606085015261ffff610224351661022435036125055761022435608085015260775460ff8160081c1615958680976124f8575b80156124e1575b1561245d57818760017fffffffffffffffffffffffffffffffffffffffffffffffffffffffffffffff0064ffffffffff95161760775561242e575b50611f5360ff60775460081c16611f4e81614bd1565b614bd1565b611f5c33614aff565b73ffffffffffffffffffffffffffffffffffffffff60775498611fc260ff8b60081c16611f8881614bd1565b611f9181614bd1565b7fffffffffffffffffffffffffffffffffffffffffffffffffffffffffffffff0060dc541660dc55611f4e81614bd1565b600161010e55818116151580612423575b80612416575b8061240b575b80612400575b611fee90614b6c565b167fffffffffffffffffffffffff0000000000000000000000000000000000000000600a541617600a55600b549373ffffffffffffffffffffffffffffffffffffffff600c5492167fffffffffffffffffffffffff0000000000000000000000000000000000000000601254161760125561018435600d557fff00000000000000000000000000000000000000000000000000000000000000948573ffffffffffffffffffffffffffffffffffffffff7effffffffff00000000000000000000000000000000000000000000000000006101043560d01b16931691161775ffff000000000000000000000000000000000000000060a43560a01b161777ffff0000000000000000000000000000000000000000000060c43560b01b161779ffff0000000000000000000000000000000000000000000000006101643560c01b161717600b5569ffffffffff00000000006101443560281b16937effffffffffffffffffffffffffffffffffffffff000000000000000000000060643560581b169116176aff0000000000000000000060e43560501b161791161717600c55612194614a80565b61271061ffff6121de6121d16121c46121b7848851168560208a01511690614c5c565b8460408901511690614c5c565b8360608801511690614c5c565b8260808701511690614c5c565b16036123a25773ffffffffffffffffffffffffffffffffffffffff91604051907fe217c132ca1c9e392a91d1b2eaeb42b77b8ff74a61c75974d05ffbbe6e00a16a610140600e549361ffff8516815261ffff8560101c16602082015261ffff8560201c16604082015261ffff8560301c16606082015261ffff8560401c16608082015261ffff84511660a082015261ffff60208501511660c082015261ffff60408501511660e082015261ffff60608501511661010082015261ffff608085015116610120820152a161ffff81511663ffff0000602083015160101b1665ffff00000000604084015160201b16917fffffffffffffffffffffffffffffffffffffffffffff0000000000000000000069ffff0000000000000000608067ffff000000000000606088015160301b1696015160401b1695161717171717600e55167fffffffffffffffffffffffff0000000000000000000000000000000000000000601154161760115561234f575080f35b7fffffffffffffffffffffffffffffffffffffffffffffffffffffffffffff00ff166077557f7f26b83ff96e1f2b6a682f133852f6798a09c465da95921460cefb3847402498602060405160018152a180f35b60646040517f08c379a000000000000000000000000000000000000000000000000000000000815260206004820152601c60248201527f496e76616c69642044414f20546f6b656e2050657263656e74616765000000006044820152fd5b508682161515611fe5565b508183161515611fdf565b5081606435161515611fd9565b508186161515611fd3565b7fffffffffffffffffffffffffffffffffffffffffffffffffffffffffffff0000166101011760775538611f38565b60846040517f08c379a000000000000000000000000000000000000000000000000000000000815260206004820152602e60248201527f496e697469616c697a61626c653a20636f6e747261637420697320616c72656160448201527f647920696e697469616c697a65640000000000000000000000000000000000006064820152fd5b50303b158015611efd5750600160ff831614611efd565b50600160ff831610611ef6565b600080fd5b50346103d85760207ffffffffffffffffffffffffffffffffffffffffffffffffffffffffffffffffc3601126103d8576125426149a7565b8173ffffffffffffffffffffffffffffffffffffffff60125416803b156103d4578180916004604051809481937f36f4fb020000000000000000000000000000000000000000000000000000000083525af180156103c9576125aa575b5061047c3383614d76565b6125b3906147f8565b6103d457813861259f565b50346103d857807ffffffffffffffffffffffffffffffffffffffffffffffffffffffffffffffffc3601126103d857602073ffffffffffffffffffffffffffffffffffffffff60aa5416604051908152f35b50346103d857807ffffffffffffffffffffffffffffffffffffffffffffffffffffffffffffffffc3601126103d857612647614a80565b61264f614ca1565b612657614ca1565b60017fffffffffffffffffffffffffffffffffffffffffffffffffffffffffffffff0060dc54161760dc557f62e78cea01bee320cd4e420270b5ea74000d11b0c9f74754ebdbfc544b05a2586020604051338152a180f35b50346103d85760207ffffffffffffffffffffffffffffffffffffffffffffffffffffffffffffffffc3601126103d8576126e7614a80565b600435600d5580f35b50346103d857807ffffffffffffffffffffffffffffffffffffffffffffffffffffffffffffffffc3601126103d857612727614a80565b600073ffffffffffffffffffffffffffffffffffffffff60aa547fffffffffffffffffffffffff0000000000000000000000000000000000000000811660aa55167f8be0079c531659141344cd1fd0a4f28419497f9722a3daafe3b4186f6b6457e08280a380f35b50346103d857807ffffffffffffffffffffffffffffffffffffffffffffffffffffffffffffffffc3601126103d8576020600354604051908152f35b50346103d85760207ffffffffffffffffffffffffffffffffffffffffffffffffffffffffffffffffc3601126103d857612803614ca1565b600261010e5414612fee57600261010e558073ffffffffffffffffffffffffffffffffffffffff60125416803b15612feb578180916004604051809481937f36f4fb020000000000000000000000000000000000000000000000000000000083525af180156103c957612fd7575b505060043581526002602052604081206006810154600760ff8260281c161015612c2657600160ff8260281c161480612fc0575b80612f9d575b612e9e575b506006810154600760ff8260281c161015612c2657600260ff8260281c161480612e87575b612c53575b506006810154600760ff8260281c161015612c2657600360ff8260281c16149081612bed575b5061294f575b600660ff91015460281c1661291e6040518092614771565b7fbc645ece538d7606c8ac26de30aef5fbd0ed2ee0c945f4e5d860da3e62781d50602060043592a2600161010e5580f35b61295a60043561521e565b612906576004358252600260205260408220604051612978816147db565b61298182614f30565b815261298f600183016148d8565b6020820152600282015460408201526003820154606082015260048201546080820152600582015473ffffffffffffffffffffffffffffffffffffffff811660a083015264ffffffffff8181809360a01c1660c085015260c81c1660e08301526006830154908116610100830152600760ff8260281c161015612bc057612a80929173ffffffffffffffffffffffffffffffffffffffff6008818460ff612a7a9660281c1661012086015260301c169485610140850152826007820154166101608501520154166101808201526080612a716040830151606084015190614ef2565b91015190614ef2565b90615d2c565b60043582526009602052612a9660408320614f30565b825b8151811015612b8757612aab8183614e85565b5184526004602052600260408520015415612acf575b612aca90614e58565b612a98565b8373ffffffffffffffffffffffffffffffffffffffff60125416612af38385614e85565b518252600460205273ffffffffffffffffffffffffffffffffffffffff600360408420015460281c16813b156118795782916044839260405194859384927f969ceab400000000000000000000000000000000000000000000000000000000845260048401528160248401525af180156103c957612b73575b5050612ac1565b612b7c906147f8565b6103c5578338612b6c565b50506006810180547fffffffffffffffffffffffffffffffffffffffffffffffffffff00ffffffffff1665040000000000179055612906565b6024857f4e487b710000000000000000000000000000000000000000000000000000000081526021600452fd5b905064ffffffffff439116108015612c06575b38612900565b5060043582526005602052604082205460ff8082169160081c1614612c00565b6024837f4e487b710000000000000000000000000000000000000000000000000000000081526021600452fd5b60043583526005602052600160ff6040852054160160ff8111612e5a576004358452600960205260ff612c896040862054615bdf565b911610612cd85750600760ff600683015460281c161015612cab575b386128da565b6024827f4e487b710000000000000000000000000000000000000000000000000000000081526021600452fd5b650400000000007fffffffffffffffffffffffffffffffffffffffffffffffffffff00ffffffffff612d4c92161780600684015573ffffffffffffffffffffffffffffffffffffffff612d42612d376002860154600387015490614ef2565b600486015490614ef2565b9160301c16615d2c565b60043582526009602052612d6260408320614f30565b825b8151811015612e5357612d778183614e85565b5184526004602052600160408520015415612d9b575b612d9690614e58565b612d64565b8373ffffffffffffffffffffffffffffffffffffffff60125416612dbf8385614e85565b518252600460205273ffffffffffffffffffffffffffffffffffffffff600360408420015460281c16813b156118795782916044839260405194859384927f969ceab400000000000000000000000000000000000000000000000000000000845260048401528160248401525af180156103c957612e3f575b5050612d8d565b612e48906147f8565b6103c5578338612e38565b5050612ca5565b6024847f4e487b710000000000000000000000000000000000000000000000000000000081526011600452fd5b5064ffffffffff600583015460c81c1643116128d5565b650500000000007fffffffffffffffffffffffffffffffffffffffffffffffffffff00ffffffffff612efd92161780600684015573ffffffffffffffffffffffffffffffffffffffff612d42612d376002860154600387015490614ef2565b8173ffffffffffffffffffffffffffffffffffffffff6012541673ffffffffffffffffffffffffffffffffffffffff600784015416813b156118795782916044839260405194859384927f969ceab40000000000000000000000000000000000000000000000000000000084526004840152600160248401525af180156103c957612f89575b506128b0565b612f92906147f8565b6103d4578138612f83565b5073ffffffffffffffffffffffffffffffffffffffff60078301541615156128ab565b5064ffffffffff600583015460a01c1643116128a5565b612fe0906147f8565b6103d8578038612871565b50fd5b60646040517f08c379a000000000000000000000000000000000000000000000000000000000815260206004820152601f60248201527f5265656e7472616e637947756172643a207265656e7472616e742063616c6c006044820152fd5b50346103d857807ffffffffffffffffffffffffffffffffffffffffffffffffffffffffffffffffc3601126103d857602060ff60dc54166040519015158152f35b50346103d857807ffffffffffffffffffffffffffffffffffffffffffffffffffffffffffffffffc3601126103d857604051604081019080821067ffffffffffffffff8311176117555761311c91604052600681527f76302e302e3200000000000000000000000000000000000000000000000000006020820152604051918291602083526020830190614713565b0390f35b50346103d85760207ffffffffffffffffffffffffffffffffffffffffffffffffffffffffffffffffc3601126103d8576040906004358152600460205220805461311c600183015492600281015490600381015473ffffffffffffffffffffffffffffffffffffffff60ff8260c81c16916131a4600460ff8360d01c1695016148d8565b9460405198899889526020890152604088015264ffffffffff8116606088015260281c1660808601526131d68161499d565b60a08501526131e48161499d565b60c08401526101008060e0850152830190614713565b50346103d857807ffffffffffffffffffffffffffffffffffffffffffffffffffffffffffffffffc3601126103d857602073ffffffffffffffffffffffffffffffffffffffff60125416604051908152f35b50346103d857807ffffffffffffffffffffffffffffffffffffffffffffffffffffffffffffffffc3601126103d857613283614a80565b61328b614d0b565b613293614d0b565b7fffffffffffffffffffffffffffffffffffffffffffffffffffffffffffffff0060dc541660dc557f5db9ee0a495bf2e6ff9c91a7834c1ba4fdd244a5e8aa4e537bd38aeae4b073aa6020604051338152a180f35b50346103d85760a07ffffffffffffffffffffffffffffffffffffffffffffffffffffffffffffffffc3601126103d8576040516133248161480c565b61ffff600435818116810361250557825260243581811681036125055760208301908152604435828116810361250557604084019081526064359183831683036125055760608501928352608435938085168503612505576080860194855261338b614a80565b612710816133c76133bd6133b36133a9848c51168589511690614c5c565b8489511690614c5c565b8389511690614c5c565b8289511690614c5c565b16036123a25760405195600e54968288168152828860101c166020820152828860201c166040820152828860301c166060820152828860401c1660808201528282511660a08201528284511660c08201528285511660e082015282865116610100820152828751166101208201526101407fe217c132ca1c9e392a91d1b2eaeb42b77b8ff74a61c75974d05ffbbe6e00a16a91a15116905160101b63ffff000016915160201b65ffff0000000016925160301b67ffff00000000000016935160401b69ffff000000000000000016947fffffffffffffffffffffffffffffffffffffffffffff00000000000000000000161717171717600e5580f35b50346103d85760607ffffffffffffffffffffffffffffffffffffffffffffffffffffffffffffffffc3601126103d85764ffffffffff60243516602435036103d85760443567ffffffffffffffff81116103d4576135259036906004016147ad565b9061352e614ca1565b8273ffffffffffffffffffffffffffffffffffffffff60125416803b156103d45781906004604051809481937f36f4fb020000000000000000000000000000000000000000000000000000000083525af18015611c26576143f5575b5081156110365764ffffffffff60243516156143cb5760043583526004602052604083209164ffffffffff6003840154166143a157825492838552600260205260066040862001805464ffffffffff811664ffffffffff43161161434357600760ff8260281c16101561431657600260ff8260281c16146000146142a7577fffffffffffffffffffffffffffffffffffffffffffffffffffff00ffffffffff16650300000000001790555b60038101549073ffffffffffffffffffffffffffffffffffffffff8260281c1633036107d15761366a60ff8360c81c1661499d565b600160ff8360c81c16036107a7576001810154801561427d5760405160208101907fffffffffff00000000000000000000000000000000000000000000000000000060243560d81b1682523360601b6025820152858760398301376136e16039828881018c83820152036019810184520182614844565b5190200361421f576040516020810190868252848660408301376137176040828781018b83820152036020810184520182614844565b519020917fffffffffffffffffffffffffffffffffffffffffffffffffffffff000000000064ffffffffff60243516911617600382015567ffffffffffffffff83116141f25761376a6004820154614885565b601f81116141ad575b5081869184601f81116001146140e3576002929389916140d8575b508560011b907fffffffffffffffffffffffffffffffffffffffffffffffffffffffffffffffff8760031b1c19161760048201555b015583855260056020526040852080547fffffffffffffffffffffffffffffffffffffffffffffffffffffffffffff00ff61ff0061380660ff8460081c16614ff7565b60081b1691161790558385526006602052613834816040872060019160005201602052604060002054151590565b156140be575b845260076020526040842080547fffffffffffffffffffffffffffffffffffffffffffffffffffffffffffffff0060ff613875818416614ff7565b169116179055806040519264ffffffffff60243516845260406020850152816040850152606084013783606082840101527ff7e30468a493d9e17158c0dbe51bcfa190627e3fdede3c9284827c22dfc41700600435926060817fffffffffffffffffffffffffffffffffffffffffffffffffffffffffffffffe0601f339601168101030190a38082526005602052604082205460ff8082169160081c161461391b575080f35b613923614ca1565b600261010e5414612fee57600261010e558173ffffffffffffffffffffffffffffffffffffffff60125416803b156103d4578180916004604051809481937f36f4fb020000000000000000000000000000000000000000000000000000000083525af180156103c9576140aa575b50819052600260205260408220906006820154600760ff8260281c161015613d3157600160ff8260281c161480614093575b80614070575b613f71575b506006820154600760ff8260281c161015613d3157600260ff8260281c161480613f5a575b613d5e575b50906006810154600760ff8260281c161015613d3157600360ff8260281c16149081613cfa575b50613a6a575b602060ff60067fbc645ece538d7606c8ac26de30aef5fbd0ed2ee0c945f4e5d860da3e62781d5093015460281c16613a606040518092614771565ba2600161010e5580f35b613a738261521e565b613a255790808352600260205260408320604051613a90816147db565b613a9982614f30565b8152613aa7600183016148d8565b602082015260028201546040820152600382015460608201526004820154608082015264ffffffffff600583015473ffffffffffffffffffffffffffffffffffffffff811660a0840152818160a01c1660c084015260c81c1660e0820152600682015464ffffffffff8116610100830152600760ff8260281c161015613ccd57613b8c929173ffffffffffffffffffffffffffffffffffffffff6008818460ff612a7a9660281c1661012086015260301c169485610140850152826007820154166101608501520154166101808201526080612a716040830151606084015190614ef2565b8083526009602052613ba060408420614f30565b90835b8251811015613c9257613bb68184614e85565b5185526004602052600260408620015415613bda575b613bd590614e58565b613ba3565b8473ffffffffffffffffffffffffffffffffffffffff60125416613bfe8386614e85565b518252600460205273ffffffffffffffffffffffffffffffffffffffff600360408420015460281c16813b156118795782916044839260405194859384927f969ceab400000000000000000000000000000000000000000000000000000000845260048401528160248401525af180156103c957613c7e575b5050613bcc565b613c87906147f8565b611074578438613c77565b506006830180547fffffffffffffffffffffffffffffffffffffffffffffffffffff00ffffffffff1665040000000000179055919050613a25565b6024867f4e487b710000000000000000000000000000000000000000000000000000000081526021600452fd5b905064ffffffffff439116108015613d13575b38613a1f565b508183526005602052604083205460ff8082169160081c1614613d0d565b6024847f4e487b710000000000000000000000000000000000000000000000000000000081526021600452fd5b8184526005602052600160ff6040862054160160ff8111613f2d57828552600960205260ff613d906040872054615bdf565b911610613db4575090600760ff600683015460281c161015612c26575b90386139f8565b650400000000007fffffffffffffffffffffffffffffffffffffffffffffffffffff00ffffffffff613e1e92161780600685015573ffffffffffffffffffffffffffffffffffffffff612d42613e136002870154600388015490614ef2565b600487015490614ef2565b8083526009602052613e3260408420614f30565b90835b8251811015613f2457613e488184614e85565b5185526004602052600160408620015415613e6c575b613e6790614e58565b613e35565b8473ffffffffffffffffffffffffffffffffffffffff60125416613e908386614e85565b518252600460205273ffffffffffffffffffffffffffffffffffffffff600360408420015460281c16813b156118795782916044839260405194859384927f969ceab400000000000000000000000000000000000000000000000000000000845260048401528160248401525af180156103c957613f10575b5050613e5e565b613f19906147f8565b611074578438613f09565b50919050613dad565b6024857f4e487b710000000000000000000000000000000000000000000000000000000081526011600452fd5b504364ffffffffff600585015460c81c16106139f3565b650500000000007fffffffffffffffffffffffffffffffffffffffffffffffffffff00ffffffffff613fd092161780600685015573ffffffffffffffffffffffffffffffffffffffff612d42613e136002870154600388015490614ef2565b8273ffffffffffffffffffffffffffffffffffffffff6012541673ffffffffffffffffffffffffffffffffffffffff600785015416813b156118795782916044839260405194859384927f969ceab40000000000000000000000000000000000000000000000000000000084526004840152600160248401525af180156103c95761405c575b506139ce565b614065906147f8565b611879578238614056565b5073ffffffffffffffffffffffffffffffffffffffff60078401541615156139c9565b504364ffffffffff600585015460a01c16106139c3565b6140b3906147f8565b6103d4578138613991565b83855260066020526140d38160408720615c7c565b61383a565b90508601353861378e565b5060048101885260208820885b7fffffffffffffffffffffffffffffffffffffffffffffffffffffffffffffffe087168110614192575060029293867fffffffffffffffffffffffffffffffffffffffffffffffffffffffffffffffe081161061415a575b5050600185811b0160048201556137c3565b7fffffffffffffffffffffffffffffffffffffffffffffffffffffffffffffffff60f88860031b161c19908801351690553880614148565b848801358255602094850194869450600190920191016140f0565b60048201875260208720601f850160051c8101602086106141eb575b601f830160051c820181106141df575050613773565b600081556001016141c9565b50806141c9565b6024867f4e487b710000000000000000000000000000000000000000000000000000000081526041600452fd5b60646040517f08c379a000000000000000000000000000000000000000000000000000000000815260206004820152600d60248201527f496e76616c696452657665616c000000000000000000000000000000000000006044820152fd5b60046040517f81791cb4000000000000000000000000000000000000000000000000000000008152fd5b6003915060ff9060281c1603156136355760646040517f08c379a000000000000000000000000000000000000000000000000000000000815260206004820152601660248201527f496e76616c6964496e666572656e6365537461747573000000000000000000006044820152fd5b6024877f4e487b710000000000000000000000000000000000000000000000000000000081526021600452fd5b60646040517f08c379a000000000000000000000000000000000000000000000000000000000815260206004820152600d60248201527f52657665616c54696d656f7574000000000000000000000000000000000000006044820152fd5b60046040517fa89ac151000000000000000000000000000000000000000000000000000000008152fd5b60046040517f756688fe000000000000000000000000000000000000000000000000000000008152fd5b614401909391936147f8565b913861358a565b50346103d857807ffffffffffffffffffffffffffffffffffffffffffffffffffffffffffffffffc3601126103d857602073ffffffffffffffffffffffffffffffffffffffff60115416604051908152f35b819034612feb5760207ffffffffffffffffffffffffffffffffffffffffffffffffffffffffffffffffc360112612feb5780614498610180926147db565b60608152606060208201528260408201528260608201528260808201528260a08201528260c08201528260e0820152826101008201528261012082015282610140820152826101608201520152600435815260026020526040812060405190614500826147db565b61450981614f30565b8252614517600182016148d8565b602083015260028101546040830152600381015460608301526004810154608083015264ffffffffff600582015473ffffffffffffffffffffffffffffffffffffffff811660a0850152818160a01c1660c085015260c81c1660e0830152600681015464ffffffffff8116610100840152600760ff8260281c161015613d315773ffffffffffffffffffffffffffffffffffffffff91828260ff60089460281c1661012087015260301c166101408501528260078201541661016085015201541661018082015260405190602082528051926101a060208401526101c08301845180915260206101e085019501915b8181106146fd5750505073ffffffffffffffffffffffffffffffffffffffff610180614661849560208501517fffffffffffffffffffffffffffffffffffffffffffffffffffffffffffffffe0878303016040880152614713565b926040810151606086015260608101516080860152608081015160a08601528260a08201511660c086015264ffffffffff60c08201511660e086015264ffffffffff60e08201511661010086015264ffffffffff610100820151166101208601526146d6610120820151610140870190614771565b82610140820151166101608601528261016082015116828601520151166101a08301520390f35b8251865260209586019590920191600101614606565b919082519283825260005b84811061475d5750507fffffffffffffffffffffffffffffffffffffffffffffffffffffffffffffffe0601f8460006020809697860101520116010190565b60208183018101518483018201520161471e565b90600782101561477e5752565b7f4e487b7100000000000000000000000000000000000000000000000000000000600052602160045260246000fd5b9181601f840112156125055782359167ffffffffffffffff8311612505576020838186019501011161250557565b6101a0810190811067ffffffffffffffff82111761175557604052565b67ffffffffffffffff811161175557604052565b60a0810190811067ffffffffffffffff82111761175557604052565b6060810190811067ffffffffffffffff82111761175557604052565b90601f7fffffffffffffffffffffffffffffffffffffffffffffffffffffffffffffffe0910116810190811067ffffffffffffffff82111761175557604052565b90600182811c921680156148ce575b602083101461489f57565b7f4e487b7100000000000000000000000000000000000000000000000000000000600052602260045260246000fd5b91607f1691614894565b90604051918260008254926148ec84614885565b90818452600194858116908160001461495b5750600114614918575b505061491692500383614844565b565b9093915060005260209081600020936000915b81831061494357505061491693508201013880614908565b8554888401850152948501948794509183019161492b565b90506149169550602093507fffffffffffffffffffffffffffffffffffffffffffffffffffffffffffffff0091501682840152151560051b8201013880614908565b6003111561477e57565b6004359073ffffffffffffffffffffffffffffffffffffffff8216820361250557565b6024359073ffffffffffffffffffffffffffffffffffffffff8216820361250557565b67ffffffffffffffff81116117555760051b60200190565b81601f8201121561250557803591614a1c836149ed565b92614a2a6040519485614844565b808452602092838086019260051b820101928311612505578301905b828210614a54575050505090565b813573ffffffffffffffffffffffffffffffffffffffff81168103612505578152908301908301614a46565b73ffffffffffffffffffffffffffffffffffffffff60aa54163303614aa157565b60646040517f08c379a000000000000000000000000000000000000000000000000000000000815260206004820152602060248201527f4f776e61626c653a2063616c6c6572206973206e6f7420746865206f776e65726044820152fd5b60aa549073ffffffffffffffffffffffffffffffffffffffff80911691827fffffffffffffffffffffffff000000000000000000000000000000000000000082161760aa55167f8be0079c531659141344cd1fd0a4f28419497f9722a3daafe3b4186f6b6457e0600080a3565b15614b7357565b60646040517f08c379a000000000000000000000000000000000000000000000000000000000815260206004820152600c60248201527f5a65726f206164647265737300000000000000000000000000000000000000006044820152fd5b15614bd857565b60846040517f08c379a000000000000000000000000000000000000000000000000000000000815260206004820152602b60248201527f496e697469616c697a61626c653a20636f6e7472616374206973206e6f74206960448201527f6e697469616c697a696e670000000000000000000000000000000000000000006064820152fd5b91909161ffff80809416911601918211614c7257565b7f4e487b7100000000000000000000000000000000000000000000000000000000600052601160045260246000fd5b60ff60dc5416614cad57565b60646040517f08c379a000000000000000000000000000000000000000000000000000000000815260206004820152601060248201527f5061757361626c653a20706175736564000000000000000000000000000000006044820152fd5b60ff60dc541615614d1857565b60646040517f08c379a000000000000000000000000000000000000000000000000000000000815260206004820152601460248201527f5061757361626c653a206e6f74207061757365640000000000000000000000006044820152fd5b73ffffffffffffffffffffffffffffffffffffffff808092169283151580614e4d575b614da290614b6c565b169081600052600f60205260406000205416614def57600052600f6020526040600020907fffffffffffffffffffffffff0000000000000000000000000000000000000000825416179055565b60646040517f08c379a000000000000000000000000000000000000000000000000000000000815260206004820152601260248201527f416c7265616479207265676973746572656400000000000000000000000000006044820152fd5b508082161515614d99565b7fffffffffffffffffffffffffffffffffffffffffffffffffffffffffffffffff8114614c725760010190565b8051821015614e995760209160051b010190565b7f4e487b7100000000000000000000000000000000000000000000000000000000600052603260045260246000fd5b91908203918211614c7257565b81810292918115918404141715614c7257565b8115611726570490565b91908201809211614c7257565b91909164ffffffffff80809416911601918211614c7257565b90816020910312612505575180151581036125055790565b9060405191828154918282526020928383019160005283600020936000905b828210614f655750505061491692500383614844565b855484526001958601958895509381019390910190614f4f565b8054821015614e995760005260206000200190600090565b805490680100000000000000008210156117555781614fbe916001614ff394018155614f7f565b81939154907fffffffffffffffffffffffffffffffffffffffffffffffffffffffffffffffff9060031b92831b921b19161790565b9055565b60ff1660ff8114614c725760010190565b1561509a5773ffffffffffffffffffffffffffffffffffffffff600c5460581c166020600d546024604051809481937f082df8ca00000000000000000000000000000000000000000000000000000000835260048301525afa90811561508e57600091615073575090565b61508b915060203d8111610fd057610fc18183614844565b90565b6040513d6000823e3d90fd5b73ffffffffffffffffffffffffffffffffffffffff600c5460581c16600d54600e549061ffff61271091818460201c16830393838511614c72576020946150ef936150e99260301c1690614ec8565b90614ed5565b046024604051809481937f082df8ca00000000000000000000000000000000000000000000000000000000835260048301525afa90811561508e57600091615073575090565b60ff7fffffffffffffffffffffffffffffffffffffffffffffffffffffffffffffffff9116019060ff8211614c7257565b805490680100000000000000008210156117555760018201808255821015614e99576040916002916000526003602060002091020173ffffffffffffffffffffffffffffffffffffffff8451167fffffffffffffffffffffffff00000000000000000000000000000000000000008254161781556020840151600182015501910151600681101561477e5760ff7fffffffffffffffffffffffffffffffffffffffffffffffffffffffffffffff008354169116179055565b6000808282526006602052604082206040518082602082945493848152019086526020862092865b818110615bc657505061525b92500382614844565b8383526006602052604083205490835b828110615b815750505082600052600960205261528c604060002054615bdf565b60ff831610615b795782600052600260205273ffffffffffffffffffffffffffffffffffffffff600860406000200154161515906152c982615008565b928460005260026020526152e06040600020614f30565b908151938415614e99576020830151600052600460205285846002604060002001541460009283918a855260026020526002604086200154948092600e54908d600d54916127106153358461ffff8716614ed5565b049880615b70575b6159ab575b50505050506000146159895750506153ab61ffff600b5460c01c169360ff61538f6153a561271061539d6153966153858361537d8d8d614ed5565b04809b614ec8565b8661538f89615135565b1690614ee8565b9988614ed5565b048096614ec8565b92615135565b935b60005b8781106156e75750505050505050508160005260106020526040600020805491806156de575b6154a2575b50508060005260026020526003604060002001548061547a575b5080600052600260205260046040600020015480615452575b5060005260026020526006604060002001650600000000007fffffffffffffffffffffffffffffffffffffffffffffffffffff00ffffffffff825416179055600190565b6154749073ffffffffffffffffffffffffffffffffffffffff600b5416615d2c565b3861540e565b61549c9073ffffffffffffffffffffffffffffffffffffffff600a5416615d2c565b386153f5565b6154ab826149ed565b916154b96040519384614844565b8083526020830180926000526020600020906000905b8382106156815750505060005b8181106155c557505082600052600260205273ffffffffffffffffffffffffffffffffffffffff600560406000200154169160405192608084019046855285602086015260408501526060916080838601525180915260a08401929160005b828110615574575050505090807f2faa16bd9d858bdbd007d15bb6ae06ff3f238c90433800dafb4c0f7e3f07a241920390a138806153db565b909192936040855173ffffffffffffffffffffffffffffffffffffffff815116835260208101516020840152015190600682101561477e57604081019190915282019360200192919060010161553b565b73ffffffffffffffffffffffffffffffffffffffff600c5460581c169073ffffffffffffffffffffffffffffffffffffffff6156018287614e85565b51511660206156108388614e85565b510151833b156125055760446000928360405196879485937f40c10f19000000000000000000000000000000000000000000000000000000008552600485015260248401525af191821561508e5761566d92615672575b50614e58565b6154dc565b61567b906147f8565b38615667565b60405161568d81614828565b73ffffffffffffffffffffffffffffffffffffffff84541681526001840154602082015260ff600285015416600681101561477e5760019282602092604060039501528152019301910190916154cf565b508115156153d6565b6156f18183614e85565b516000908152600460205260409020600281015488146157e657600301907a0100000000000000000000000000000000000000000000000000007fffffffffff00ffffffffffffffffffffffffffffffffffffffffffffffffffff8354161780925573ffffffffffffffffffffffffffffffffffffffff6012541691823b156125055773ffffffffffffffffffffffffffffffffffffffff60446000928360405196879485937f969ceab400000000000000000000000000000000000000000000000000000000855260281c166004840152600160248401525af191821561508e576157e1926156725750614e58565b6153b0565b9060036157e192017a0200000000000000000000000000000000000000000000000000007fffffffffff00ffffffffffffffffffffffffffffffffffffffffffffffffffff8254161780825560ff8160c81c16906158438261499d565b60019182036158ec5750876158c3575b8b806158ba575b615866575b5050614e58565b6158b3918d600052601060205273ffffffffffffffffffffffffffffffffffffffff6040600020915460281c1691604051926158a184614828565b83528a60208401526040830152615166565b388061585f565b5085151561585a565b6158e78873ffffffffffffffffffffffffffffffffffffffff845460281c16615d2c565b615853565b90508680615960575b50508a80615957575b6159085750614e58565b61567b908c600052601060205273ffffffffffffffffffffffffffffffffffffffff6040600020915460281c16906040519161594383614828565b825286602083015260006040830152615166565b508415156158fe565b73ffffffffffffffffffffffffffffffffffffffff6159829260281c16615d2c565b38866158f5565b9160ff61599d6159a5939582881690614ee8565b951690614ee8565b936153ad565b61ffff604051946159bb8661480c565b8181168652818160101c166020870152818160201c166040870152818160301c16606087015260401c1660808501528185526010602052615aaf6040862093615a64612710615a2781615a1661ffff60808c01511686614ed5565b049361ffff60208b01511690614ed5565b049173ffffffffffffffffffffffffffffffffffffffff600a54169060405191615a5083614828565b825260208201526005604082015286615166565b838752600260205273ffffffffffffffffffffffffffffffffffffffff600660408920015460301c169060405191615a9b83614828565b825260208201526002604082015284615166565b615aba575b81615342565b60086040615b679573ffffffffffffffffffffffffffffffffffffffff93615b3b612710615b058961ffff8784615afa836060600d549601511685614ed5565b049c01511690614ed5565b04978284526002602052866006868620015460301c1690855191615b2883614828565b8252602082015260048582015287615166565b81526002602052200154169160405192615b5484614828565b8352602083015260036040830152615166565b3880808d615ab4565b5088151561533d565b505050600090565b615b8b8183614e85565b5180600052600760205260ff80604060002054169087168111615bb9575b5050615bb490614e58565b61526b565b95509350615bb438615ba9565b8454835260019485019486945060209093019201615246565b8060011b81810460021482151715614c7257600361508b920615600014615c0f57600360ff60005b169104614ef2565b600360ff6001615c07565b60018101908260005281602052604060002054615c4b57615c3b8382614f97565b5491600052602052604060002055565b602483604051907f346c4a0e0000000000000000000000000000000000000000000000000000000082526004820152fd5b919060018301600090828252806020526040822054615cfb5784549468010000000000000000861015615cce5783615cc1614fbe886001604098999a01855584614f7f565b9055549382526020522055565b6024837f4e487b710000000000000000000000000000000000000000000000000000000081526041600452fd5b602483604051907fbc436f5e0000000000000000000000000000000000000000000000000000000082526004820152fd5b60008080809481945af1903d15615deb573d9067ffffffffffffffff8211615dbe5760405191615d8460207fffffffffffffffffffffffffffffffffffffffffffffffffffffffffffffffe0601f8401160184614844565b825260203d92013e5b15615d9457565b60046040517fbfa871c5000000000000000000000000000000000000000000000000000000008152fd5b807f4e487b7100000000000000000000000000000000000000000000000000000000602492526041600452fd5b50615d8d56fea26469706673582212207d25807e8ac803fe6ee01748b7a5306f56450429ad02aaf0ae3495ddcd53765764736f6c63430008140033",
  "linkReferences": {},
  "deployedLinkReferences": {}
}