{
  "_format": "hh-sol-artifact-1",
  "contractName": "WorkerHub",
  "sourceName": "contracts/WorkerHub.sol",
  "abi": [
    {
      "inputs": [],
      "name": "AlreadyCommitted",
      "type": "error"
    },
    {
      "inputs": [],
      "name": "AlreadyRevealed",
      "type": "error"
    },
    {
      "inputs": [],
      "name": "AlreadySubmitted",
      "type": "error"
    },
    {
      "inputs": [
        {
          "internalType": "bytes32",
          "name": "value",
          "type": "bytes32"
        }
      ],
      "name": "Bytes32Set_DuplicatedValue",
      "type": "error"
    },
    {
      "inputs": [],
      "name": "CommitTimeout",
      "type": "error"
    },
    {
      "inputs": [],
      "name": "FailedTransfer",
      "type": "error"
    },
    {
      "inputs": [],
      "name": "InferMustBeSolvingState",
      "type": "error"
    },
    {
      "inputs": [],
      "name": "InvalidCommitment",
      "type": "error"
    },
    {
      "inputs": [],
      "name": "InvalidData",
      "type": "error"
    },
    {
      "inputs": [],
      "name": "InvalidInferenceStatus",
      "type": "error"
    },
    {
      "inputs": [],
      "name": "InvalidMiner",
      "type": "error"
    },
    {
      "inputs": [],
      "name": "InvalidNonce",
      "type": "error"
    },
    {
      "inputs": [],
      "name": "InvalidReveal",
      "type": "error"
    },
    {
      "inputs": [],
      "name": "InvalidRole",
      "type": "error"
    },
    {
      "inputs": [],
      "name": "NotCommitted",
      "type": "error"
    },
    {
      "inputs": [],
      "name": "NotEnoughMiners",
      "type": "error"
    },
    {
      "inputs": [],
      "name": "RevealTimeout",
      "type": "error"
    },
    {
      "inputs": [
        {
          "internalType": "uint256",
          "name": "value",
          "type": "uint256"
        }
      ],
      "name": "Uint256Set_DuplicatedValue",
      "type": "error"
    },
    {
      "inputs": [],
      "name": "Unauthorized",
      "type": "error"
    },
    {
      "inputs": [],
      "name": "ZeroValue",
      "type": "error"
    },
    {
      "anonymous": false,
      "inputs": [
        {
          "indexed": true,
          "internalType": "address",
          "name": "miner",
          "type": "address"
        },
        {
          "indexed": true,
          "internalType": "uint256",
          "name": "assigmentId",
          "type": "uint256"
        },
        {
          "indexed": false,
          "internalType": "bytes32",
          "name": "commitment",
          "type": "bytes32"
        }
      ],
      "name": "CommitmentSubmission",
      "type": "event"
    },
    {
      "anonymous": false,
      "inputs": [
        {
          "indexed": false,
          "internalType": "uint256",
          "name": "chainId",
          "type": "uint256"
        },
        {
          "indexed": false,
          "internalType": "uint256",
          "name": "inferenceId",
          "type": "uint256"
        },
        {
          "indexed": false,
          "internalType": "address",
          "name": "modelAddress",
          "type": "address"
        },
        {
          "components": [
            {
              "internalType": "address",
              "name": "receiver",
              "type": "address"
            },
            {
              "internalType": "uint256",
              "name": "amount",
              "type": "uint256"
            },
            {
              "internalType": "enum IWorkerHub.DAOTokenReceiverRole",
              "name": "role",
              "type": "uint8"
            }
          ],
          "indexed": false,
          "internalType": "struct IWorkerHub.DAOTokenReceiverInfor[]",
          "name": "receivers",
          "type": "tuple[]"
        }
      ],
      "name": "DAOTokenMintedV2",
      "type": "event"
    },
    {
      "anonymous": false,
      "inputs": [
        {
          "components": [
            {
              "internalType": "uint16",
              "name": "minerPercentage",
              "type": "uint16"
            },
            {
              "internalType": "uint16",
              "name": "userPercentage",
              "type": "uint16"
            },
            {
              "internalType": "uint16",
              "name": "referrerPercentage",
              "type": "uint16"
            },
            {
              "internalType": "uint16",
              "name": "refereePercentage",
              "type": "uint16"
            },
            {
              "internalType": "uint16",
              "name": "l2OwnerPercentage",
              "type": "uint16"
            }
          ],
          "indexed": false,
          "internalType": "struct IWorkerHub.DAOTokenPercentage",
          "name": "oldValue",
          "type": "tuple"
        },
        {
          "components": [
            {
              "internalType": "uint16",
              "name": "minerPercentage",
              "type": "uint16"
            },
            {
              "internalType": "uint16",
              "name": "userPercentage",
              "type": "uint16"
            },
            {
              "internalType": "uint16",
              "name": "referrerPercentage",
              "type": "uint16"
            },
            {
              "internalType": "uint16",
              "name": "refereePercentage",
              "type": "uint16"
            },
            {
              "internalType": "uint16",
              "name": "l2OwnerPercentage",
              "type": "uint16"
            }
          ],
          "indexed": false,
          "internalType": "struct IWorkerHub.DAOTokenPercentage",
          "name": "newValue",
          "type": "tuple"
        }
      ],
      "name": "DAOTokenPercentageUpdated",
      "type": "event"
    },
    {
      "anonymous": false,
      "inputs": [
        {
          "indexed": false,
          "internalType": "address",
          "name": "oldAddress",
          "type": "address"
        },
        {
          "indexed": false,
          "internalType": "address",
          "name": "newAddress",
          "type": "address"
        }
      ],
      "name": "DAOTokenUpdated",
      "type": "event"
    },
    {
      "anonymous": false,
      "inputs": [
        {
          "indexed": true,
          "internalType": "uint256",
          "name": "inferenceId",
          "type": "uint256"
        },
        {
          "indexed": false,
          "internalType": "enum IWorkerHub.InferenceStatus",
          "name": "newStatus",
          "type": "uint8"
        }
      ],
      "name": "InferenceStatusUpdate",
      "type": "event"
    },
    {
      "anonymous": false,
      "inputs": [
        {
          "indexed": false,
          "internalType": "uint8",
          "name": "version",
          "type": "uint8"
        }
      ],
      "name": "Initialized",
      "type": "event"
    },
    {
      "anonymous": false,
      "inputs": [
        {
          "indexed": true,
          "internalType": "uint256",
          "name": "assignmentId",
          "type": "uint256"
        },
        {
          "indexed": true,
          "internalType": "uint256",
          "name": "inferenceId",
          "type": "uint256"
        },
        {
          "indexed": true,
          "internalType": "address",
          "name": "miner",
          "type": "address"
        }
      ],
      "name": "MinerRoleSeized",
      "type": "event"
    },
    {
      "anonymous": false,
      "inputs": [
        {
          "indexed": true,
          "internalType": "uint256",
          "name": "assignmentId",
          "type": "uint256"
        },
        {
          "indexed": true,
          "internalType": "uint256",
          "name": "inferenceId",
          "type": "uint256"
        },
        {
          "indexed": true,
          "internalType": "address",
          "name": "miner",
          "type": "address"
        },
        {
          "indexed": false,
          "internalType": "uint40",
          "name": "expiredAt",
          "type": "uint40"
        }
      ],
      "name": "NewAssignment",
      "type": "event"
    },
    {
      "anonymous": false,
      "inputs": [
        {
          "indexed": true,
          "internalType": "uint256",
          "name": "inferenceId",
          "type": "uint256"
        },
        {
          "indexed": true,
          "internalType": "address",
          "name": "model",
          "type": "address"
        },
        {
          "indexed": true,
          "internalType": "address",
          "name": "creator",
          "type": "address"
        },
        {
          "indexed": false,
          "internalType": "uint256",
          "name": "value",
          "type": "uint256"
        },
        {
          "indexed": false,
          "internalType": "uint256",
          "name": "originInferenceId",
          "type": "uint256"
        }
      ],
      "name": "NewInference",
      "type": "event"
    },
    {
      "anonymous": false,
      "inputs": [
        {
          "indexed": true,
          "internalType": "address",
          "name": "previousOwner",
          "type": "address"
        },
        {
          "indexed": true,
          "internalType": "address",
          "name": "newOwner",
          "type": "address"
        }
      ],
      "name": "OwnershipTransferred",
      "type": "event"
    },
    {
      "anonymous": false,
      "inputs": [
        {
          "indexed": false,
          "internalType": "address",
          "name": "account",
          "type": "address"
        }
      ],
      "name": "Paused",
      "type": "event"
    },
    {
      "anonymous": false,
      "inputs": [
        {
          "indexed": true,
          "internalType": "address",
          "name": "miner",
          "type": "address"
        },
        {
          "indexed": true,
          "internalType": "uint256",
          "name": "assigmentId",
          "type": "uint256"
        },
        {
          "indexed": false,
          "internalType": "uint40",
          "name": "nonce",
          "type": "uint40"
        },
        {
          "indexed": false,
          "internalType": "bytes",
          "name": "output",
          "type": "bytes"
        }
      ],
      "name": "RevealSubmission",
      "type": "event"
    },
    {
      "anonymous": false,
      "inputs": [
        {
          "indexed": true,
          "internalType": "address",
          "name": "miner",
          "type": "address"
        },
        {
          "indexed": true,
          "internalType": "uint256",
          "name": "assigmentId",
          "type": "uint256"
        }
      ],
      "name": "SolutionSubmission",
      "type": "event"
    },
    {
      "anonymous": false,
      "inputs": [
        {
          "indexed": true,
          "internalType": "uint256",
          "name": "assignmentId",
          "type": "uint256"
        },
        {
          "indexed": false,
          "internalType": "bytes",
          "name": "data",
          "type": "bytes"
        }
      ],
      "name": "StreamedData",
      "type": "event"
    },
    {
      "anonymous": false,
      "inputs": [
        {
          "indexed": true,
          "internalType": "uint256",
          "name": "inferenceId",
          "type": "uint256"
        },
        {
          "indexed": true,
          "internalType": "address",
          "name": "creator",
          "type": "address"
        },
        {
          "indexed": false,
          "internalType": "uint256",
          "name": "value",
          "type": "uint256"
        }
      ],
      "name": "TopUpInfer",
      "type": "event"
    },
    {
      "anonymous": false,
      "inputs": [
        {
          "indexed": false,
          "internalType": "address",
          "name": "account",
          "type": "address"
        }
      ],
      "name": "Unpaused",
      "type": "event"
    },
    {
      "inputs": [],
      "name": "assignmentNumber",
      "outputs": [
        {
          "internalType": "uint256",
          "name": "",
          "type": "uint256"
        }
      ],
      "stateMutability": "view",
      "type": "function"
    },
    {
      "inputs": [
        {
          "internalType": "uint256",
          "name": "",
          "type": "uint256"
        }
      ],
      "name": "assignments",
      "outputs": [
        {
          "internalType": "uint256",
          "name": "inferenceId",
          "type": "uint256"
        },
        {
          "internalType": "bytes32",
          "name": "commitment",
          "type": "bytes32"
        },
        {
          "internalType": "bytes32",
          "name": "digest",
          "type": "bytes32"
        },
        {
          "internalType": "uint40",
          "name": "revealNonce",
          "type": "uint40"
        },
        {
          "internalType": "address",
          "name": "worker",
          "type": "address"
        },
        {
          "internalType": "enum IWorkerHub.AssignmentRole",
          "name": "role",
          "type": "uint8"
        },
        {
          "internalType": "enum IWorkerHub.Vote",
          "name": "vote",
          "type": "uint8"
        },
        {
          "internalType": "bytes",
          "name": "output",
          "type": "bytes"
        }
      ],
      "stateMutability": "view",
      "type": "function"
    },
    {
      "inputs": [
        {
          "internalType": "uint256",
          "name": "_assignId",
          "type": "uint256"
        },
        {
          "internalType": "bytes32",
          "name": "_commitment",
          "type": "bytes32"
        }
      ],
      "name": "commit",
      "outputs": [],
      "stateMutability": "nonpayable",
      "type": "function"
    },
    {
      "inputs": [],
      "name": "daoToken",
      "outputs": [
        {
          "internalType": "address",
          "name": "",
          "type": "address"
        }
      ],
      "stateMutability": "view",
      "type": "function"
    },
    {
      "inputs": [
        {
          "internalType": "uint256",
          "name": "_inferenceId",
          "type": "uint256"
        }
      ],
      "name": "getAssignmentByInference",
      "outputs": [
        {
          "internalType": "uint256[]",
          "name": "",
          "type": "uint256[]"
        }
      ],
      "stateMutability": "view",
      "type": "function"
    },
    {
      "inputs": [
        {
          "internalType": "address",
          "name": "_miner",
          "type": "address"
        }
      ],
      "name": "getAssignmentByMiner",
      "outputs": [
        {
          "internalType": "uint256[]",
          "name": "",
          "type": "uint256[]"
        }
      ],
      "stateMutability": "view",
      "type": "function"
    },
    {
      "inputs": [
        {
          "internalType": "address",
          "name": "_modelAddress",
          "type": "address"
        }
      ],
      "name": "getMinFeeToUse",
      "outputs": [
        {
          "internalType": "uint256",
          "name": "",
          "type": "uint256"
        }
      ],
      "stateMutability": "view",
      "type": "function"
    },
    {
      "inputs": [],
      "name": "getTreasuryAddress",
      "outputs": [
        {
          "internalType": "address",
          "name": "",
          "type": "address"
        }
      ],
      "stateMutability": "view",
      "type": "function"
    },
    {
      "inputs": [
        {
          "internalType": "bytes",
          "name": "_input",
          "type": "bytes"
        },
        {
          "internalType": "address",
          "name": "_creator",
          "type": "address"
        }
      ],
      "name": "infer",
      "outputs": [
        {
          "internalType": "uint256",
          "name": "",
          "type": "uint256"
        }
      ],
      "stateMutability": "payable",
      "type": "function"
    },
    {
      "inputs": [],
      "name": "inferenceNumber",
      "outputs": [
        {
          "internalType": "uint256",
          "name": "",
          "type": "uint256"
        }
      ],
      "stateMutability": "view",
      "type": "function"
    },
    {
      "inputs": [
        {
          "internalType": "uint256",
          "name": "",
          "type": "uint256"
        }
      ],
      "name": "inferences",
      "outputs": [
        {
          "internalType": "bytes",
          "name": "input",
          "type": "bytes"
        },
        {
          "internalType": "uint256",
          "name": "value",
          "type": "uint256"
        },
        {
          "internalType": "uint256",
          "name": "feeL2",
          "type": "uint256"
        },
        {
          "internalType": "uint256",
          "name": "feeTreasury",
          "type": "uint256"
        },
        {
          "internalType": "address",
          "name": "modelAddress",
          "type": "address"
        },
        {
          "internalType": "uint40",
          "name": "submitTimeout",
          "type": "uint40"
        },
        {
          "internalType": "uint40",
          "name": "commitTimeout",
          "type": "uint40"
        },
        {
          "internalType": "uint40",
          "name": "revealTimeout",
          "type": "uint40"
        },
        {
          "internalType": "enum IWorkerHub.InferenceStatus",
          "name": "status",
          "type": "uint8"
        },
        {
          "internalType": "address",
          "name": "creator",
          "type": "address"
        },
        {
          "internalType": "address",
          "name": "processedMiner",
          "type": "address"
        },
        {
          "internalType": "address",
          "name": "referrer",
          "type": "address"
        }
      ],
      "stateMutability": "view",
      "type": "function"
    },
    {
      "inputs": [
        {
          "internalType": "address",
          "name": "_wEAI",
          "type": "address"
        },
        {
          "internalType": "address",
          "name": "_l2Owner",
          "type": "address"
        },
        {
          "internalType": "address",
          "name": "_treasury",
          "type": "address"
        },
        {
          "internalType": "address",
          "name": "_daoToken",
          "type": "address"
        },
        {
          "internalType": "address",
          "name": "_stakingHub",
          "type": "address"
        },
        {
          "internalType": "uint16",
          "name": "_feeL2Percentage",
          "type": "uint16"
        },
        {
          "internalType": "uint16",
          "name": "_feeTreasuryPercentage",
          "type": "uint16"
        },
        {
          "internalType": "uint8",
          "name": "_minerRequirement",
          "type": "uint8"
        },
        {
          "internalType": "uint40",
          "name": "_submitDuration",
          "type": "uint40"
        },
        {
          "internalType": "uint40",
          "name": "_commitDuration",
          "type": "uint40"
        },
        {
          "internalType": "uint40",
          "name": "_revealDuration",
          "type": "uint40"
        },
        {
          "internalType": "uint16",
          "name": "_feeRatioMinerValidor",
          "type": "uint16"
        },
        {
          "internalType": "uint256",
          "name": "_daoTokenReward",
          "type": "uint256"
        },
        {
          "components": [
            {
              "internalType": "uint16",
              "name": "minerPercentage",
              "type": "uint16"
            },
            {
              "internalType": "uint16",
              "name": "userPercentage",
              "type": "uint16"
            },
            {
              "internalType": "uint16",
              "name": "referrerPercentage",
              "type": "uint16"
            },
            {
              "internalType": "uint16",
              "name": "refereePercentage",
              "type": "uint16"
            },
            {
              "internalType": "uint16",
              "name": "l2OwnerPercentage",
              "type": "uint16"
            }
          ],
          "internalType": "struct IWorkerHub.DAOTokenPercentage",
          "name": "_daoTokenPercentage",
          "type": "tuple"
        }
      ],
      "name": "initialize",
      "outputs": [],
      "stateMutability": "nonpayable",
      "type": "function"
    },
    {
      "inputs": [],
      "name": "l2Owner",
      "outputs": [
        {
          "internalType": "address",
          "name": "",
          "type": "address"
        }
      ],
      "stateMutability": "view",
      "type": "function"
    },
    {
      "inputs": [],
      "name": "owner",
      "outputs": [
        {
          "internalType": "address",
          "name": "",
          "type": "address"
        }
      ],
      "stateMutability": "view",
      "type": "function"
    },
    {
      "inputs": [],
      "name": "pause",
      "outputs": [],
      "stateMutability": "nonpayable",
      "type": "function"
    },
    {
      "inputs": [],
      "name": "paused",
      "outputs": [
        {
          "internalType": "bool",
          "name": "",
          "type": "bool"
        }
      ],
      "stateMutability": "view",
      "type": "function"
    },
    {
      "inputs": [
        {
          "internalType": "address",
          "name": "_referrer",
          "type": "address"
        }
      ],
      "name": "registerReferrer",
      "outputs": [],
      "stateMutability": "nonpayable",
      "type": "function"
    },
    {
      "inputs": [
        {
          "internalType": "address[]",
          "name": "_referrers",
          "type": "address[]"
        },
        {
          "internalType": "address[]",
          "name": "_referees",
          "type": "address[]"
        }
      ],
      "name": "registerReferrer",
      "outputs": [],
      "stateMutability": "nonpayable",
      "type": "function"
    },
    {
      "inputs": [],
      "name": "renounceOwnership",
      "outputs": [],
      "stateMutability": "nonpayable",
      "type": "function"
    },
    {
      "inputs": [
        {
          "internalType": "uint256",
          "name": "_inferenceId",
          "type": "uint256"
        }
      ],
      "name": "resolveInference",
      "outputs": [],
      "stateMutability": "nonpayable",
      "type": "function"
    },
    {
      "inputs": [
        {
          "internalType": "uint256",
          "name": "_assignId",
          "type": "uint256"
        },
        {
          "internalType": "uint40",
          "name": "_nonce",
          "type": "uint40"
        },
        {
          "internalType": "bytes",
          "name": "_data",
          "type": "bytes"
        }
      ],
      "name": "reveal",
      "outputs": [],
      "stateMutability": "nonpayable",
      "type": "function"
    },
    {
      "inputs": [
        {
          "internalType": "uint256",
          "name": "_assignmentId",
          "type": "uint256"
        }
      ],
      "name": "seizeMinerRole",
      "outputs": [],
      "stateMutability": "nonpayable",
      "type": "function"
    },
    {
      "inputs": [
        {
          "components": [
            {
              "internalType": "uint16",
              "name": "minerPercentage",
              "type": "uint16"
            },
            {
              "internalType": "uint16",
              "name": "userPercentage",
              "type": "uint16"
            },
            {
              "internalType": "uint16",
              "name": "referrerPercentage",
              "type": "uint16"
            },
            {
              "internalType": "uint16",
              "name": "refereePercentage",
              "type": "uint16"
            },
            {
              "internalType": "uint16",
              "name": "l2OwnerPercentage",
              "type": "uint16"
            }
          ],
          "internalType": "struct IWorkerHub.DAOTokenPercentage",
          "name": "_daoTokenPercentage",
          "type": "tuple"
        }
      ],
      "name": "setDAOTokenPercentage",
      "outputs": [],
      "stateMutability": "nonpayable",
      "type": "function"
    },
    {
      "inputs": [
        {
          "internalType": "uint256",
          "name": "_newDAOTokenReward",
          "type": "uint256"
        }
      ],
      "name": "setDAOTokenReward",
      "outputs": [],
      "stateMutability": "nonpayable",
      "type": "function"
    },
    {
      "inputs": [],
      "name": "stakingHub",
      "outputs": [
        {
          "internalType": "address",
          "name": "",
          "type": "address"
        }
      ],
      "stateMutability": "view",
      "type": "function"
    },
    {
      "inputs": [
        {
          "internalType": "uint256",
          "name": "_assigmentId",
          "type": "uint256"
        },
        {
          "internalType": "bytes",
          "name": "_data",
          "type": "bytes"
        }
      ],
      "name": "submitSolution",
      "outputs": [],
      "stateMutability": "nonpayable",
      "type": "function"
    },
    {
      "inputs": [
        {
          "internalType": "address",
          "name": "newOwner",
          "type": "address"
        }
      ],
      "name": "transferOwnership",
      "outputs": [],
      "stateMutability": "nonpayable",
      "type": "function"
    },
    {
      "inputs": [],
      "name": "treasury",
      "outputs": [
        {
          "internalType": "address",
          "name": "",
          "type": "address"
        }
      ],
      "stateMutability": "view",
      "type": "function"
    },
    {
      "inputs": [],
      "name": "unpause",
      "outputs": [],
      "stateMutability": "nonpayable",
      "type": "function"
    },
    {
      "inputs": [
        {
          "internalType": "bool",
          "name": "_isReferred",
          "type": "bool"
        }
      ],
      "name": "validateDAOSupplyIncrease",
      "outputs": [
        {
          "internalType": "bool",
          "name": "notReachedLimit",
          "type": "bool"
        }
      ],
      "stateMutability": "view",
      "type": "function"
    },
    {
      "inputs": [],
      "name": "version",
      "outputs": [
        {
          "internalType": "string",
          "name": "",
          "type": "string"
        }
      ],
      "stateMutability": "pure",
      "type": "function"
    },
    {
      "inputs": [],
      "name": "wEAI",
      "outputs": [
        {
          "internalType": "address",
          "name": "",
          "type": "address"
        }
      ],
      "stateMutability": "view",
      "type": "function"
    },
    {
      "stateMutability": "payable",
      "type": "receive"
    }
  ],
  "bytecode": "0x6080806040523461001757615e4890816200001d8239f35b600080fdfe608080604052600436101561001d575b50361561001b57600080fd5b005b600090813560e01c9081630dc7df53146146a957508063121a301d146137645780633860ce68146135895780633f4ba83a146134ed5780634213ec0f1461349b5780634914b030146134465780634e50c75c1461336c57806354fd4d50146132dd5780635937e5ed146132795780635c975abb146132385780636029e786146129b757806361d027b31461120b5780636973d3f21461297b578063715018a6146128dc57806376e7ffae1461289b5780637e648aa8146128425780638456cb59146127a35780638da5cb5b146127515780639ea7685a1461269d578063a96c79f414611ea3578063afc1fce714611dc4578063c41bf66514611c27578063d7acb1ea14611bd5578063d98444581461125d578063e00246041461120b578063e84dee6b14610a4d578063f003a0c5146109fb578063f2f0387714610644578063f2fde38b14610558578063f80dca981461051c578063fa8e8c69146104105763ffbc66610361000f573461040d576020807ffffffffffffffffffffffffffffffffffffffffffffffffffffffffffffffffc360112610409576004359073ffffffffffffffffffffffffffffffffffffffff90838260125416803b15610409578180916004604051809481937f36f4fb020000000000000000000000000000000000000000000000000000000083525af180156103fe576103e6575b508390526004815281600360408620015460281c1633036103625782845260048152604084205491828552600282526007604086200154166103045760029083855260048152600360408620017902000000000000000000000000000000000000000000000000007fffffffffffff00ffffffffffffffffffffffffffffffffffffffffffffffffff8254161790558285525260076040842001337fffffffffffffffffffffffff000000000000000000000000000000000000000082541617905533917f3d4f35957f03b76084f29d7c66d573fcec3d2e4bbc2844549e44bc1aed4c6c248480a480f35b606490604051907f08c379a00000000000000000000000000000000000000000000000000000000082526004820152601e60248201527f5468697320696e666572656e636520686173206265656e207365697a656400006044820152fd5b608490604051907f08c379a00000000000000000000000000000000000000000000000000000000082526004820152602760248201527f4f6e6c792061737369676e656420776f726b65722063616e207365697a65207460448201527f686520726f6c65000000000000000000000000000000000000000000000000006064820152fd5b6103ef90614727565b6103fa578338610219565b8380fd5b6040513d84823e3d90fd5b5080fd5b80fd5b503461040d5760207ffffffffffffffffffffffffffffffffffffffffffffffffffffffffffffffffc36011261040d5760406104b391600435815260026020522061045d60018201614824565b906002810154906003810154906004810154600582015460068301549073ffffffffffffffffffffffffffffffffffffffff92836008816007880154169601541695604051998a99610180808c528b0190614922565b9760208a015260408901526060880152828116608088015264ffffffffff8181809360a01c1660a08a015260c81c1660c0880152811660e0870152610502610100870160ff8360281c16614a94565b60301c166101208501526101408401526101608301520390f35b503461040d57807ffffffffffffffffffffffffffffffffffffffffffffffffffffffffffffffffc36011261040d576020600154604051908152f35b503461040d5760207ffffffffffffffffffffffffffffffffffffffffffffffffffffffffffffffffc36011261040d57610590614980565b610598614aa1565b73ffffffffffffffffffffffffffffffffffffffff8116156105c0576105bd90614b20565b80f35b60846040517f08c379a000000000000000000000000000000000000000000000000000000000815260206004820152602660248201527f4f776e61626c653a206e6577206f776e657220697320746865207a65726f206160448201527f64647265737300000000000000000000000000000000000000000000000000006064820152fd5b503461040d5760407ffffffffffffffffffffffffffffffffffffffffffffffffffffffffffffffffc36011261040d57602435600435610682614cc2565b73ffffffffffffffffffffffffffffffffffffffff90838260125416803b15610409578180916004604051809481937f36f4fb020000000000000000000000000000000000000000000000000000000083525af180156103fe576109e7575b505082156109bd5780845260209060048252604085209384549485875260028452604087209064ffffffffff80600584015460c81c169043161161099357600682019560ff875460281c1660078110156109665760020361093c576003820154908160281c1633036109125760ff60019160c81c1661075f816148e9565b036108e85760010180546108be5761077a9183859255614fb8565b848652600583526040862080547fffffffffffffffffffffffffffffffffffffffffffffffffffffffffffffff0060ff6107b5818416615018565b1691161790556040519081527f47a3511bbb68bfcf0b476106b3a5a5d5b8d7eb4205a28d6424a40fb19d9afa5b833392a38284526005815260ff604085205416600982526040852054907fffffffffffffffffffffffffffffffffffffffffffffffffffffffffffffffff82019182116108915714610832578380f35b81650300000000007fffffffffffffffffffffffffffffffffffffffffffffffffffff00ffffffffff7fbc645ece538d7606c8ac26de30aef5fbd0ed2ee0c945f4e5d860da3e62781d5094541617905560405160038152a23880808380f35b6024867f4e487b710000000000000000000000000000000000000000000000000000000081526011600452fd5b60046040517fbfec5558000000000000000000000000000000000000000000000000000000008152fd5b60046040517fd954416a000000000000000000000000000000000000000000000000000000008152fd5b60046040517f82b42900000000000000000000000000000000000000000000000000000000008152fd5b60046040517fef084b59000000000000000000000000000000000000000000000000000000008152fd5b60248a7f4e487b710000000000000000000000000000000000000000000000000000000081526021600452fd5b60046040517f88ac04e3000000000000000000000000000000000000000000000000000000008152fd5b60046040517fc06789fa000000000000000000000000000000000000000000000000000000008152fd5b6109f090614727565b6103fa5783386106e1565b503461040d57807ffffffffffffffffffffffffffffffffffffffffffffffffffffffffffffffffc36011261040d57602073ffffffffffffffffffffffffffffffffffffffff600a5416604051908152f35b503461040d5760407ffffffffffffffffffffffffffffffffffffffffffffffffffffffffffffffffc36011261040d576004356024803567ffffffffffffffff81116103fa57610aa19036906004016146f9565b9091610aab614cc2565b8473ffffffffffffffffffffffffffffffffffffffff60125416803b15610409578180916004604051809481937f36f4fb020000000000000000000000000000000000000000000000000000000083525af180156103fe576111f3575b505081156111c95773ffffffffffffffffffffffffffffffffffffffff601254166040517f34875ec30000000000000000000000000000000000000000000000000000000081523360048201526020818481855afa9081156111be57879161119f575b50156111755760208291604051928380927fd8f0166c0000000000000000000000000000000000000000000000000000000082523360048301525afa801561116a5761113b575b508385526004602052604085209260405193610100850185811067ffffffffffffffff82111761110d57604052805485526001810154602086015260028101546040860152610c5f600460038301549264ffffffffff8416606089015273ffffffffffffffffffffffffffffffffffffffff8460281c16608089015260ff808560c81c169460a08a0195610c45816148e9565b865260d01c16610c54816148e9565b60c089015201614824565b9060e0860191825273ffffffffffffffffffffffffffffffffffffffff608087519701511633036109125760029051610c97816148e9565b610ca0816148e9565b036108e85751516110e357838652600260205260408620604051610cc38161473b565b610ccc82614f51565b8152610cda60018301614824565b602082015260028201546040820152600382015460608201526004820154608082015264ffffffffff600583015473ffffffffffffffffffffffffffffffffffffffff811660a0840152818160a01c1660c084015260c81c1660e082015260068201549164ffffffffff831661010083015260ff8360281c169260078410156110b75773ffffffffffffffffffffffffffffffffffffffff6008849382610180948861012060019a99015260301c16610140860152826007820154166101608601520154169101520361093c57838652600260205260408620928587526004602052600460408820019267ffffffffffffffff821161108c5750908591610de184546147d1565b601f8111611039575b508793601f8211600114610f975781610eb3958a91610f8c575b508260011b907fffffffffffffffffffffffffffffffffffffffffffffffffffffffffffffffff8460031b1c19161790555b610e616040805183819460208301968b88528484013781018b83820152036020810184520182614790565b51902092818752600460205283600160408920826002820155015560068101650200000000007fffffffffffffffffffffffffffffffffffffffffffffffffffff00ffffffffff825416179055614fb8565b8184526006602052610ed8816040862060019160005201602052604060002054151590565b15610f72575b835260076020526040832080547fffffffffffffffffffffffffffffffffffffffffffffffffffffffffffffff0060ff610f19818416615018565b1691161790557fbc645ece538d7606c8ac26de30aef5fbd0ed2ee0c945f4e5d860da3e62781d50602060405160028152a2337f9f669b92b9cbc7611f7ab6c77db07a424051c777433e21bd90f1bdf940096dd98380a380f35b8184526006602052610f878160408620615c9d565b610ede565b905083013538610e04565b808952602089207fffffffffffffffffffffffffffffffffffffffffffffffffffffffffffffffe083168a5b81811061101e57509583610eb39710610fe6575b5050600182811b019055610e36565b7fffffffffffffffffffffffffffffffffffffffffffffffffffffffffffffffff60f88560031b161c19908501351690553880610fd7565b8786013583556020978801978b975060019093019201610fc3565b9091925083885260208820601f830160051c81019160208410611082575b90601f89959493920160051c01905b8181106110735750610dea565b60008155889450600101611066565b9091508190611057565b877f4e487b710000000000000000000000000000000000000000000000000000000081526041600452fd5b858a7f4e487b710000000000000000000000000000000000000000000000000000000081526021600452fd5b60046040517f9fbfc589000000000000000000000000000000000000000000000000000000008152fd5b837f4e487b710000000000000000000000000000000000000000000000000000000060005260416004526000fd5b61115c9060203d602011611163575b6111548183614790565b810190614f39565b5038610bb2565b503d61114a565b6040513d88823e3d90fd5b60046040517fa7c1cb49000000000000000000000000000000000000000000000000000000008152fd5b6111b8915060203d602011611163576111548183614790565b38610b6b565b6040513d89823e3d90fd5b60046040517f5cb045db000000000000000000000000000000000000000000000000000000008152fd5b6111fc90614727565b611207578438610b08565b8480fd5b503461040d57807ffffffffffffffffffffffffffffffffffffffffffffffffffffffffffffffffc36011261040d57602073ffffffffffffffffffffffffffffffffffffffff600b5416604051908152f35b5060407ffffffffffffffffffffffffffffffffffffffffffffffffffffffffffffffffc36011261040d5760043567ffffffffffffffff8111610409576112a89036906004016146f9565b6112b06149a3565b906112b9614cc2565b83604073ffffffffffffffffffffffffffffffffffffffff6012541660248251809481937fcd23ea140000000000000000000000000000000000000000000000000000000083523360048401525af1908115611bca578591611b5c575b506020015163ffffffff161561091257611331600154614e79565b928360015583855260026020526040852091600b549061ffff61136d6127109182611361828760a01c1634614ef6565b049460b01c1634614ef6565b049267ffffffffffffffff8211611b2f5761138b60018601546147d1565b601f8111611aea575b508790601f8311600114611a1b5791806114019594926113fc948b92611a10575b50507fffffffffffffffffffffffffffffffffffffffffffffffffffffffffffffffff8260011b9260031b1c19161760018601555b80600386015582600486015534614ee9565b614ee9565b60028201556006810173ffffffffffffffffffffffffffffffffffffffff8316927fffffffffffff0000000000000000000000000000000000000000ffffffffffff79ffffffffffffffffffffffffffffffffffffffff00000000000083549260301b169116179055818452600f602052600573ffffffffffffffffffffffffffffffffffffffff60408620541691600881017fffffffffffffffffffffffff0000000000000000000000000000000000000000938482541617905501903390825416179055604051348152836020820152827f08a84d7fb7cd1557f228c827b9280f44d1a157c3256fe453b687a7b9d51c6a5b60403393a464ffffffffff61151181600b5460d01c1643614f13565b926115af61152583600c5416848716614f20565b84835260026020526005604084200180547dffffffffff000000000000000000000000000000000000000000000000008360c81b16907fffff00000000000000000000ffffffffffffffffffffffffffffffffffffffff78ffffffffff00000000000000000000000000000000000000008a60a01b1691161717905583600c5460281c1690614f20565b838252600260205265010000000000836006604085200192167fffffffffffffffffffffffffffffffffffffffffffffffffffff00000000000083541617179055828152600260205273ffffffffffffffffffffffffffffffffffffffff600560408320015416918173ffffffffffffffffffffffffffffffffffffffff60125416936024604051809681937f47253baa00000000000000000000000000000000000000000000000000000000835260048301525afa9283156103fe578293611941575b50825160ff600c5460501c169384821061191757835b85811061169b57602087604051908152f35b84546040519060208201524260408201526060434081830152815280608081011067ffffffffffffffff6080830111176118e85760808101604052602081519101208086556116ea8285614ee9565b9081156118b95761170060ff8383061685614ea6565b519161170c8487614ee9565b807fffffffffffffffffffffffffffffffffffffffffffffffffffffffffffffffff81011161188c5760ff6118879594939273ffffffffffffffffffffffffffffffffffffffff6117827fffffffffffffffffffffffffffffffffffffffffffffffffffffffffffffffff61178d95018a614ea6565b511693061686614ea6565b528873ffffffffffffffffffffffffffffffffffffffff6117af600354614e79565b9283600355838a526004602052600360408b208481550179010000000000000000000000000000000000000000000000000081547fffffffffffff000000000000000000000000000000000000000000ffffffffff78ffffffffffffffffffffffffffffffffffffffff00000000008560281b16911617179055169182895260086020526118408160408b20615c3b565b81895260096020526118558160408b20615c3b565b7f53cc8b652f33c56dac5f1c97a284cc971e7adcb8abe9454b0853f076c6deb7d560208d8a60405191168152a4614e79565b611689565b6024897f4e487b710000000000000000000000000000000000000000000000000000000081526011600452fd5b7f4e487b7100000000000000000000000000000000000000000000000000000000600052601260045260246000fd5b7f4e487b7100000000000000000000000000000000000000000000000000000000600052604160045260246000fd5b60046040517f4069094a000000000000000000000000000000000000000000000000000000008152fd5b9092503d8083833e6119538183614790565b8101602082820312611a0c5781519167ffffffffffffffff83116103fa5781601f8483010112156103fa57828101519061198c82614a01565b9361199a6040519586614790565b828552602085019360208460051b838501010111611a0857602081830101935b60208460051b838501010185106119d75750505050509138611673565b845173ffffffffffffffffffffffffffffffffffffffff81168103611a04578152602094850194016119ba565b8780fd5b8580fd5b8280fd5b0135905038806113b5565b6001860189526020892091895b7fffffffffffffffffffffffffffffffffffffffffffffffffffffffffffffffe085168110611ad25750926114019594926001926113fc95837fffffffffffffffffffffffffffffffffffffffffffffffffffffffffffffffe0811610611a9a575b505050811b0160018601556113ea565b7fffffffffffffffffffffffffffffffffffffffffffffffffffffffffffffffff60f88560031b161c19910135169055388080611a8a565b90926020600181928686013581550194019101611a28565b60018601895260208920601f840160051c810160208510611b28575b601f830160051c82018110611b1c575050611394565b60008155600101611b06565b5080611b06565b6024887f4e487b710000000000000000000000000000000000000000000000000000000081526041600452fd5b90506040813d604011611bc2575b81611b7760409383614790565b810103126112075760405190604082019082821067ffffffffffffffff8311176118e85760209160405280518352015163ffffffff81168103611a0857602080830191909152611316565b3d9150611b6a565b6040513d87823e3d90fd5b503461040d5760207ffffffffffffffffffffffffffffffffffffffffffffffffffffffffffffffffc36011261040d5760043590811515820361040d576020611c1d83615029565b6040519015158152f35b503461040d5760407ffffffffffffffffffffffffffffffffffffffffffffffffffffffffffffffffc36011261040d5767ffffffffffffffff9060043582811161040957611c79903690600401614a19565b9160243590811161040957611c92903690600401614a19565b91611c9b614aa1565b73ffffffffffffffffffffffffffffffffffffffff908160125416803b156103fa578380916004604051809481937f36f4fb020000000000000000000000000000000000000000000000000000000083525af18015611db957908491611da5575b50508051845103611d4757825b8151811015611d435780611d3984611d24611d3e9486614ea6565b511685611d31848a614ea6565b511690614d97565b614e79565b611d09565b8380f35b60646040517f08c379a000000000000000000000000000000000000000000000000000000000815260206004820152600d60248201527f496e76616c696420696e707574000000000000000000000000000000000000006044820152fd5b611dae90614727565b611a0c578238611cfc565b6040513d86823e3d90fd5b503461040d57602090817ffffffffffffffffffffffffffffffffffffffffffffffffffffffffffffffffc36011261040d57611dfe614980565b8273ffffffffffffffffffffffffffffffffffffffff602481601254169360405194859384927fafc1fce70000000000000000000000000000000000000000000000000000000084521660048301525afa918215611e97578092611e67575b5050604051908152f35b9091508282813d8311611e90575b611e7f8183614790565b8101031261040d5750513880611e5d565b503d611e75565b604051903d90823e3d90fd5b503461040d576102407ffffffffffffffffffffffffffffffffffffffffffffffffffffffffffffffffc36011261040d57611edc614980565b611ee46149a3565b9060443573ffffffffffffffffffffffffffffffffffffffff811681036126985773ffffffffffffffffffffffffffffffffffffffff6064351660643503612698576084359173ffffffffffffffffffffffffffffffffffffffff831683036126985761ffff60a4351660a435036126985761ffff60c4351660c435036126985760ff60e4351660e435036112075764ffffffffff6101043516610104350361269857610124359164ffffffffff831683036126985764ffffffffff610144351661014435036126985761ffff610164351661016435036126985760a07ffffffffffffffffffffffffffffffffffffffffffffffffffffffffffffffe5c3601126126985760405192611ff684614758565b61ffff6101a435166101a43503612698576101a435845261ffff6101c435166101c43503612698576101c435602085015261ffff6101e435166101e43503612698576101e435604085015261ffff610204351661020435036126985761020435606085015261ffff610224351661022435036126985761022435608085015260775460ff8160081c16159586809761268b575b8015612674575b156125f057818760017fffffffffffffffffffffffffffffffffffffffffffffffffffffffffffffff0064ffffffffff9516176077556125c1575b506120e660ff60775460081c166120e181614bf2565b614bf2565b6120ef33614b20565b73ffffffffffffffffffffffffffffffffffffffff6077549861215560ff8b60081c1661211b81614bf2565b61212481614bf2565b7fffffffffffffffffffffffffffffffffffffffffffffffffffffffffffffff0060dc541660dc556120e181614bf2565b600161010e558181161515806125b6575b806125a9575b8061259e575b80612593575b61218190614b8d565b167fffffffffffffffffffffffff0000000000000000000000000000000000000000600a541617600a55600b549373ffffffffffffffffffffffffffffffffffffffff600c5492167fffffffffffffffffffffffff0000000000000000000000000000000000000000601254161760125561018435600d557fff00000000000000000000000000000000000000000000000000000000000000948573ffffffffffffffffffffffffffffffffffffffff7effffffffff00000000000000000000000000000000000000000000000000006101043560d01b16931691161775ffff000000000000000000000000000000000000000060a43560a01b161777ffff0000000000000000000000000000000000000000000060c43560b01b161779ffff0000000000000000000000000000000000000000000000006101643560c01b161717600b5569ffffffffff00000000006101443560281b16937effffffffffffffffffffffffffffffffffffffff000000000000000000000060643560581b169116176aff0000000000000000000060e43560501b161791161717600c55612327614aa1565b61271061ffff61237161236461235761234a848851168560208a01511690614c7d565b8460408901511690614c7d565b8360608801511690614c7d565b8260808701511690614c7d565b16036125355773ffffffffffffffffffffffffffffffffffffffff91604051907fe217c132ca1c9e392a91d1b2eaeb42b77b8ff74a61c75974d05ffbbe6e00a16a610140600e549361ffff8516815261ffff8560101c16602082015261ffff8560201c16604082015261ffff8560301c16606082015261ffff8560401c16608082015261ffff84511660a082015261ffff60208501511660c082015261ffff60408501511660e082015261ffff60608501511661010082015261ffff608085015116610120820152a161ffff81511663ffff0000602083015160101b1665ffff00000000604084015160201b16917fffffffffffffffffffffffffffffffffffffffffffff0000000000000000000069ffff0000000000000000608067ffff000000000000606088015160301b1696015160401b1695161717171717600e55167fffffffffffffffffffffffff000000000000000000000000000000000000000060115416176011556124e2575080f35b7fffffffffffffffffffffffffffffffffffffffffffffffffffffffffffff00ff166077557f7f26b83ff96e1f2b6a682f133852f6798a09c465da95921460cefb3847402498602060405160018152a180f35b60646040517f08c379a000000000000000000000000000000000000000000000000000000000815260206004820152601c60248201527f496e76616c69642044414f20546f6b656e2050657263656e74616765000000006044820152fd5b508682161515612178565b508183161515612172565b508160643516151561216c565b508186161515612166565b7fffffffffffffffffffffffffffffffffffffffffffffffffffffffffffff00001661010117607755386120cb565b60846040517f08c379a000000000000000000000000000000000000000000000000000000000815260206004820152602e60248201527f496e697469616c697a61626c653a20636f6e747261637420697320616c72656160448201527f647920696e697469616c697a65640000000000000000000000000000000000006064820152fd5b50303b1580156120905750600160ff831614612090565b50600160ff831610612089565b600080fd5b503461040d5760207ffffffffffffffffffffffffffffffffffffffffffffffffffffffffffffffffc36011261040d576126d5614980565b8173ffffffffffffffffffffffffffffffffffffffff60125416803b15610409578180916004604051809481937f36f4fb020000000000000000000000000000000000000000000000000000000083525af180156103fe5761273d575b506105bd3383614d97565b61274690614727565b610409578138612732565b503461040d57807ffffffffffffffffffffffffffffffffffffffffffffffffffffffffffffffffc36011261040d57602073ffffffffffffffffffffffffffffffffffffffff60aa5416604051908152f35b503461040d57807ffffffffffffffffffffffffffffffffffffffffffffffffffffffffffffffffc36011261040d576127da614aa1565b6127e2614cc2565b6127ea614cc2565b60017fffffffffffffffffffffffffffffffffffffffffffffffffffffffffffffff0060dc54161760dc557f62e78cea01bee320cd4e420270b5ea74000d11b0c9f74754ebdbfc544b05a2586020604051338152a180f35b503461040d5760207ffffffffffffffffffffffffffffffffffffffffffffffffffffffffffffffffc36011261040d5761288b6040612897926004358152600960205220614f51565b604051918291826149c6565b0390f35b503461040d5760207ffffffffffffffffffffffffffffffffffffffffffffffffffffffffffffffffc36011261040d576128d3614aa1565b600435600d5580f35b503461040d57807ffffffffffffffffffffffffffffffffffffffffffffffffffffffffffffffffc36011261040d57612913614aa1565b600073ffffffffffffffffffffffffffffffffffffffff60aa547fffffffffffffffffffffffff0000000000000000000000000000000000000000811660aa55167f8be0079c531659141344cd1fd0a4f28419497f9722a3daafe3b4186f6b6457e08280a380f35b503461040d57807ffffffffffffffffffffffffffffffffffffffffffffffffffffffffffffffffc36011261040d576020600354604051908152f35b503461040d5760207ffffffffffffffffffffffffffffffffffffffffffffffffffffffffffffffffc36011261040d576129ef614cc2565b600261010e54146131da57600261010e558073ffffffffffffffffffffffffffffffffffffffff60125416803b156131d7578180916004604051809481937f36f4fb020000000000000000000000000000000000000000000000000000000083525af180156103fe576131c3575b505060043581526002602052604081206006810154600760ff8260281c161015612e1257600160ff8260281c1614806131ac575b80613189575b61308a575b506006810154600760ff8260281c161015612e1257600260ff8260281c161480613073575b612e3f575b506006810154600760ff8260281c161015612e1257600360ff8260281c16149081612dd9575b50612b3b575b600660ff91015460281c16612b0a6040518092614a94565b7fbc645ece538d7606c8ac26de30aef5fbd0ed2ee0c945f4e5d860da3e62781d50602060043592a2600161010e5580f35b612b4660043561523f565b612af2576004358252600260205260408220604051612b648161473b565b612b6d82614f51565b8152612b7b60018301614824565b6020820152600282015460408201526003820154606082015260048201546080820152600582015473ffffffffffffffffffffffffffffffffffffffff811660a083015264ffffffffff8181809360a01c1660c085015260c81c1660e08301526006830154908116610100830152600760ff8260281c161015612dac57612c6c929173ffffffffffffffffffffffffffffffffffffffff6008818460ff612c669660281c1661012086015260301c169485610140850152826007820154166101608501520154166101808201526080612c5d6040830151606084015190614f13565b91015190614f13565b90615d4d565b60043582526009602052612c8260408320614f51565b825b8151811015612d7357612c978183614ea6565b5184526004602052600260408520015415612cbb575b612cb690614e79565b612c84565b8373ffffffffffffffffffffffffffffffffffffffff60125416612cdf8385614ea6565b518252600460205273ffffffffffffffffffffffffffffffffffffffff600360408420015460281c16813b15611a0c5782916044839260405194859384927f969ceab400000000000000000000000000000000000000000000000000000000845260048401528160248401525af180156103fe57612d5f575b5050612cad565b612d6890614727565b6103fa578338612d58565b50506006810180547fffffffffffffffffffffffffffffffffffffffffffffffffffff00ffffffffff1665040000000000179055612af2565b6024857f4e487b710000000000000000000000000000000000000000000000000000000081526021600452fd5b905064ffffffffff439116108015612df2575b38612aec565b5060043582526005602052604082205460ff8082169160081c1614612dec565b6024837f4e487b710000000000000000000000000000000000000000000000000000000081526021600452fd5b60043583526005602052600160ff6040852054160160ff8111613046576004358452600960205260ff612e756040862054615c00565b911610612ec45750600760ff600683015460281c161015612e97575b38612ac6565b6024827f4e487b710000000000000000000000000000000000000000000000000000000081526021600452fd5b650400000000007fffffffffffffffffffffffffffffffffffffffffffffffffffff00ffffffffff612f3892161780600684015573ffffffffffffffffffffffffffffffffffffffff612f2e612f236002860154600387015490614f13565b600486015490614f13565b9160301c16615d4d565b60043582526009602052612f4e60408320614f51565b825b815181101561303f57612f638183614ea6565b5184526004602052600160408520015415612f87575b612f8290614e79565b612f50565b8373ffffffffffffffffffffffffffffffffffffffff60125416612fab8385614ea6565b518252600460205273ffffffffffffffffffffffffffffffffffffffff600360408420015460281c16813b15611a0c5782916044839260405194859384927f969ceab400000000000000000000000000000000000000000000000000000000845260048401528160248401525af180156103fe5761302b575b5050612f79565b61303490614727565b6103fa578338613024565b5050612e91565b6024847f4e487b710000000000000000000000000000000000000000000000000000000081526011600452fd5b5064ffffffffff600583015460c81c164311612ac1565b650500000000007fffffffffffffffffffffffffffffffffffffffffffffffffffff00ffffffffff6130e992161780600684015573ffffffffffffffffffffffffffffffffffffffff612f2e612f236002860154600387015490614f13565b8173ffffffffffffffffffffffffffffffffffffffff6012541673ffffffffffffffffffffffffffffffffffffffff600784015416813b15611a0c5782916044839260405194859384927f969ceab40000000000000000000000000000000000000000000000000000000084526004840152600160248401525af180156103fe57613175575b50612a9c565b61317e90614727565b61040957813861316f565b5073ffffffffffffffffffffffffffffffffffffffff6007830154161515612a97565b5064ffffffffff600583015460a01c164311612a91565b6131cc90614727565b61040d578038612a5d565b50fd5b60646040517f08c379a000000000000000000000000000000000000000000000000000000000815260206004820152601f60248201527f5265656e7472616e637947756172643a207265656e7472616e742063616c6c006044820152fd5b503461040d57807ffffffffffffffffffffffffffffffffffffffffffffffffffffffffffffffffc36011261040d57602060ff60dc54166040519015158152f35b503461040d5760207ffffffffffffffffffffffffffffffffffffffffffffffffffffffffffffffffc36011261040d5761288b60406128979273ffffffffffffffffffffffffffffffffffffffff6132cf614980565b168152600860205220614f51565b503461040d57807ffffffffffffffffffffffffffffffffffffffffffffffffffffffffffffffffc36011261040d57604051604081019080821067ffffffffffffffff8311176118e85761289791604052600681527f76302e302e3200000000000000000000000000000000000000000000000000006020820152604051918291602083526020830190614922565b503461040d5760207ffffffffffffffffffffffffffffffffffffffffffffffffffffffffffffffffc36011261040d5760409060043581526004602052208054612897600183015492600281015490600381015473ffffffffffffffffffffffffffffffffffffffff60ff8260c81c16916133f0600460ff8360d01c169501614824565b9460405198899889526020890152604088015264ffffffffff8116606088015260281c166080860152613422816148e9565b60a0850152613430816148e9565b60c08401526101008060e0850152830190614922565b503461040d57807ffffffffffffffffffffffffffffffffffffffffffffffffffffffffffffffffc36011261040d57602073ffffffffffffffffffffffffffffffffffffffff600c5460581c16604051908152f35b503461040d57807ffffffffffffffffffffffffffffffffffffffffffffffffffffffffffffffffc36011261040d57602073ffffffffffffffffffffffffffffffffffffffff60125416604051908152f35b503461040d57807ffffffffffffffffffffffffffffffffffffffffffffffffffffffffffffffffc36011261040d57613524614aa1565b61352c614d2c565b613534614d2c565b7fffffffffffffffffffffffffffffffffffffffffffffffffffffffffffffff0060dc541660dc557f5db9ee0a495bf2e6ff9c91a7834c1ba4fdd244a5e8aa4e537bd38aeae4b073aa6020604051338152a180f35b503461040d5760a07ffffffffffffffffffffffffffffffffffffffffffffffffffffffffffffffffc36011261040d576040516135c581614758565b61ffff600435818116810361269857825260243581811681036126985760208301908152604435828116810361269857604084019081526064359183831683036126985760608501928352608435938085168503612698576080860194855261362c614aa1565b6127108161366861365e61365461364a848c51168589511690614c7d565b8489511690614c7d565b8389511690614c7d565b8289511690614c7d565b16036125355760405195600e54968288168152828860101c166020820152828860201c166040820152828860301c166060820152828860401c1660808201528282511660a08201528284511660c08201528285511660e082015282865116610100820152828751166101208201526101407fe217c132ca1c9e392a91d1b2eaeb42b77b8ff74a61c75974d05ffbbe6e00a16a91a15116905160101b63ffff000016915160201b65ffff0000000016925160301b67ffff00000000000016935160401b69ffff000000000000000016947fffffffffffffffffffffffffffffffffffffffffffff00000000000000000000161717171717600e5580f35b503461040d5760607ffffffffffffffffffffffffffffffffffffffffffffffffffffffffffffffffc36011261040d5764ffffffffff602435166024350361040d5760443567ffffffffffffffff8111610409576137c69036906004016146f9565b906137cf614cc2565b8273ffffffffffffffffffffffffffffffffffffffff60125416803b156104095781906004604051809481937f36f4fb020000000000000000000000000000000000000000000000000000000083525af18015611db957614696575b5081156111c95764ffffffffff602435161561466c5760043583526004602052604083209164ffffffffff60038401541661464257825492838552600260205260066040862001805464ffffffffff811664ffffffffff4316116145e457600760ff8260281c1610156145b757600260ff8260281c1614600014614548577fffffffffffffffffffffffffffffffffffffffffffffffffffff00ffffffffff16650300000000001790555b60038101549073ffffffffffffffffffffffffffffffffffffffff8260281c1633036109125761390b60ff8360c81c166148e9565b600160ff8360c81c16036108e8576001810154801561451e5760405160208101907fffffffffff00000000000000000000000000000000000000000000000000000060243560d81b1682523360601b6025820152858760398301376139826039828881018c83820152036019810184520182614790565b519020036144c0576040516020810190868252848660408301376139b86040828781018b83820152036020810184520182614790565b519020917fffffffffffffffffffffffffffffffffffffffffffffffffffffff000000000064ffffffffff60243516911617600382015567ffffffffffffffff831161449357613a0b60048201546147d1565b601f811161444e575b5081869184601f811160011461438457600292938991614379575b508560011b907fffffffffffffffffffffffffffffffffffffffffffffffffffffffffffffffff8760031b1c19161760048201555b015583855260056020526040852080547fffffffffffffffffffffffffffffffffffffffffffffffffffffffffffff00ff61ff00613aa760ff8460081c16615018565b60081b1691161790558385526006602052613ad5816040872060019160005201602052604060002054151590565b1561435f575b845260076020526040842080547fffffffffffffffffffffffffffffffffffffffffffffffffffffffffffffff0060ff613b16818416615018565b169116179055806040519264ffffffffff60243516845260406020850152816040850152606084013783606082840101527ff7e30468a493d9e17158c0dbe51bcfa190627e3fdede3c9284827c22dfc41700600435926060817fffffffffffffffffffffffffffffffffffffffffffffffffffffffffffffffe0601f339601168101030190a38082526005602052604082205460ff8082169160081c1614613bbc575080f35b613bc4614cc2565b600261010e54146131da57600261010e558173ffffffffffffffffffffffffffffffffffffffff60125416803b15610409578180916004604051809481937f36f4fb020000000000000000000000000000000000000000000000000000000083525af180156103fe5761434b575b50819052600260205260408220906006820154600760ff8260281c161015613fd257600160ff8260281c161480614334575b80614311575b614212575b506006820154600760ff8260281c161015613fd257600260ff8260281c1614806141fb575b613fff575b50906006810154600760ff8260281c161015613fd257600360ff8260281c16149081613f9b575b50613d0b575b602060ff60067fbc645ece538d7606c8ac26de30aef5fbd0ed2ee0c945f4e5d860da3e62781d5093015460281c16613d016040518092614a94565ba2600161010e5580f35b613d148261523f565b613cc65790808352600260205260408320604051613d318161473b565b613d3a82614f51565b8152613d4860018301614824565b602082015260028201546040820152600382015460608201526004820154608082015264ffffffffff600583015473ffffffffffffffffffffffffffffffffffffffff811660a0840152818160a01c1660c084015260c81c1660e0820152600682015464ffffffffff8116610100830152600760ff8260281c161015613f6e57613e2d929173ffffffffffffffffffffffffffffffffffffffff6008818460ff612c669660281c1661012086015260301c169485610140850152826007820154166101608501520154166101808201526080612c5d6040830151606084015190614f13565b8083526009602052613e4160408420614f51565b90835b8251811015613f3357613e578184614ea6565b5185526004602052600260408620015415613e7b575b613e7690614e79565b613e44565b8473ffffffffffffffffffffffffffffffffffffffff60125416613e9f8386614ea6565b518252600460205273ffffffffffffffffffffffffffffffffffffffff600360408420015460281c16813b15611a0c5782916044839260405194859384927f969ceab400000000000000000000000000000000000000000000000000000000845260048401528160248401525af180156103fe57613f1f575b5050613e6d565b613f2890614727565b611207578438613f18565b506006830180547fffffffffffffffffffffffffffffffffffffffffffffffffffff00ffffffffff1665040000000000179055919050613cc6565b6024867f4e487b710000000000000000000000000000000000000000000000000000000081526021600452fd5b905064ffffffffff439116108015613fb4575b38613cc0565b508183526005602052604083205460ff8082169160081c1614613fae565b6024847f4e487b710000000000000000000000000000000000000000000000000000000081526021600452fd5b8184526005602052600160ff6040862054160160ff81116141ce57828552600960205260ff6140316040872054615c00565b911610614055575090600760ff600683015460281c161015612e12575b9038613c99565b650400000000007fffffffffffffffffffffffffffffffffffffffffffffffffffff00ffffffffff6140bf92161780600685015573ffffffffffffffffffffffffffffffffffffffff612f2e6140b46002870154600388015490614f13565b600487015490614f13565b80835260096020526140d360408420614f51565b90835b82518110156141c5576140e98184614ea6565b518552600460205260016040862001541561410d575b61410890614e79565b6140d6565b8473ffffffffffffffffffffffffffffffffffffffff601254166141318386614ea6565b518252600460205273ffffffffffffffffffffffffffffffffffffffff600360408420015460281c16813b15611a0c5782916044839260405194859384927f969ceab400000000000000000000000000000000000000000000000000000000845260048401528160248401525af180156103fe576141b1575b50506140ff565b6141ba90614727565b6112075784386141aa565b5091905061404e565b6024857f4e487b710000000000000000000000000000000000000000000000000000000081526011600452fd5b504364ffffffffff600585015460c81c1610613c94565b650500000000007fffffffffffffffffffffffffffffffffffffffffffffffffffff00ffffffffff61427192161780600685015573ffffffffffffffffffffffffffffffffffffffff612f2e6140b46002870154600388015490614f13565b8273ffffffffffffffffffffffffffffffffffffffff6012541673ffffffffffffffffffffffffffffffffffffffff600785015416813b15611a0c5782916044839260405194859384927f969ceab40000000000000000000000000000000000000000000000000000000084526004840152600160248401525af180156103fe576142fd575b50613c6f565b61430690614727565b611a0c5782386142f7565b5073ffffffffffffffffffffffffffffffffffffffff6007840154161515613c6a565b504364ffffffffff600585015460a01c1610613c64565b61435490614727565b610409578138613c32565b83855260066020526143748160408720615c9d565b613adb565b905086013538613a2f565b5060048101885260208820885b7fffffffffffffffffffffffffffffffffffffffffffffffffffffffffffffffe087168110614433575060029293867fffffffffffffffffffffffffffffffffffffffffffffffffffffffffffffffe08116106143fb575b5050600185811b016004820155613a64565b7fffffffffffffffffffffffffffffffffffffffffffffffffffffffffffffffff60f88860031b161c199088013516905538806143e9565b84880135825560209485019486945060019092019101614391565b60048201875260208720601f850160051c81016020861061448c575b601f830160051c82018110614480575050613a14565b6000815560010161446a565b508061446a565b6024867f4e487b710000000000000000000000000000000000000000000000000000000081526041600452fd5b60646040517f08c379a000000000000000000000000000000000000000000000000000000000815260206004820152600d60248201527f496e76616c696452657665616c000000000000000000000000000000000000006044820152fd5b60046040517f81791cb4000000000000000000000000000000000000000000000000000000008152fd5b6003915060ff9060281c1603156138d65760646040517f08c379a000000000000000000000000000000000000000000000000000000000815260206004820152601660248201527f496e76616c6964496e666572656e6365537461747573000000000000000000006044820152fd5b6024877f4e487b710000000000000000000000000000000000000000000000000000000081526021600452fd5b60646040517f08c379a000000000000000000000000000000000000000000000000000000000815260206004820152600d60248201527f52657665616c54696d656f7574000000000000000000000000000000000000006044820152fd5b60046040517fa89ac151000000000000000000000000000000000000000000000000000000008152fd5b60046040517f756688fe000000000000000000000000000000000000000000000000000000008152fd5b6146a290939193614727565b913861382b565b90503461040957817ffffffffffffffffffffffffffffffffffffffffffffffffffffffffffffffffc3601126104095760209073ffffffffffffffffffffffffffffffffffffffff601154168152f35b9181601f840112156126985782359167ffffffffffffffff8311612698576020838186019501011161269857565b67ffffffffffffffff81116118e857604052565b6101a0810190811067ffffffffffffffff8211176118e857604052565b60a0810190811067ffffffffffffffff8211176118e857604052565b6060810190811067ffffffffffffffff8211176118e857604052565b90601f7fffffffffffffffffffffffffffffffffffffffffffffffffffffffffffffffe0910116810190811067ffffffffffffffff8211176118e857604052565b90600182811c9216801561481a575b60208310146147eb57565b7f4e487b7100000000000000000000000000000000000000000000000000000000600052602260045260246000fd5b91607f16916147e0565b9060405191826000825492614838846147d1565b9081845260019485811690816000146148a75750600114614864575b505061486292500383614790565b565b9093915060005260209081600020936000915b81831061488f57505061486293508201013880614854565b85548884018501529485019487945091830191614877565b90506148629550602093507fffffffffffffffffffffffffffffffffffffffffffffffffffffffffffffff0091501682840152151560051b8201013880614854565b600311156148f357565b7f4e487b7100000000000000000000000000000000000000000000000000000000600052602160045260246000fd5b919082519283825260005b84811061496c5750507fffffffffffffffffffffffffffffffffffffffffffffffffffffffffffffffe0601f8460006020809697860101520116010190565b60208183018101518483018201520161492d565b6004359073ffffffffffffffffffffffffffffffffffffffff8216820361269857565b6024359073ffffffffffffffffffffffffffffffffffffffff8216820361269857565b6020908160408183019282815285518094520193019160005b8281106149ed575050505090565b8351855293810193928101926001016149df565b67ffffffffffffffff81116118e85760051b60200190565b81601f8201121561269857803591614a3083614a01565b92614a3e6040519485614790565b808452602092838086019260051b820101928311612698578301905b828210614a68575050505090565b813573ffffffffffffffffffffffffffffffffffffffff81168103612698578152908301908301614a5a565b9060078210156148f35752565b73ffffffffffffffffffffffffffffffffffffffff60aa54163303614ac257565b60646040517f08c379a000000000000000000000000000000000000000000000000000000000815260206004820152602060248201527f4f776e61626c653a2063616c6c6572206973206e6f7420746865206f776e65726044820152fd5b60aa549073ffffffffffffffffffffffffffffffffffffffff80911691827fffffffffffffffffffffffff000000000000000000000000000000000000000082161760aa55167f8be0079c531659141344cd1fd0a4f28419497f9722a3daafe3b4186f6b6457e0600080a3565b15614b9457565b60646040517f08c379a000000000000000000000000000000000000000000000000000000000815260206004820152600c60248201527f5a65726f206164647265737300000000000000000000000000000000000000006044820152fd5b15614bf957565b60846040517f08c379a000000000000000000000000000000000000000000000000000000000815260206004820152602b60248201527f496e697469616c697a61626c653a20636f6e7472616374206973206e6f74206960448201527f6e697469616c697a696e670000000000000000000000000000000000000000006064820152fd5b91909161ffff80809416911601918211614c9357565b7f4e487b7100000000000000000000000000000000000000000000000000000000600052601160045260246000fd5b60ff60dc5416614cce57565b60646040517f08c379a000000000000000000000000000000000000000000000000000000000815260206004820152601060248201527f5061757361626c653a20706175736564000000000000000000000000000000006044820152fd5b60ff60dc541615614d3957565b60646040517f08c379a000000000000000000000000000000000000000000000000000000000815260206004820152601460248201527f5061757361626c653a206e6f74207061757365640000000000000000000000006044820152fd5b73ffffffffffffffffffffffffffffffffffffffff808092169283151580614e6e575b614dc390614b8d565b169081600052600f60205260406000205416614e1057600052600f6020526040600020907fffffffffffffffffffffffff0000000000000000000000000000000000000000825416179055565b60646040517f08c379a000000000000000000000000000000000000000000000000000000000815260206004820152601260248201527f416c7265616479207265676973746572656400000000000000000000000000006044820152fd5b508082161515614dba565b7fffffffffffffffffffffffffffffffffffffffffffffffffffffffffffffffff8114614c935760010190565b8051821015614eba5760209160051b010190565b7f4e487b7100000000000000000000000000000000000000000000000000000000600052603260045260246000fd5b91908203918211614c9357565b81810292918115918404141715614c9357565b81156118b9570490565b91908201809211614c9357565b91909164ffffffffff80809416911601918211614c9357565b90816020910312612698575180151581036126985790565b9060405191828154918282526020928383019160005283600020936000905b828210614f865750505061486292500383614790565b855484526001958601958895509381019390910190614f70565b8054821015614eba5760005260206000200190600090565b805490680100000000000000008210156118e85781614fdf91600161501494018155614fa0565b81939154907fffffffffffffffffffffffffffffffffffffffffffffffffffffffffffffffff9060031b92831b921b19161790565b9055565b60ff1660ff8114614c935760010190565b156150bb5773ffffffffffffffffffffffffffffffffffffffff600c5460581c166020600d546024604051809481937f082df8ca00000000000000000000000000000000000000000000000000000000835260048301525afa9081156150af57600091615094575090565b6150ac915060203d8111611163576111548183614790565b90565b6040513d6000823e3d90fd5b73ffffffffffffffffffffffffffffffffffffffff600c5460581c16600d54600e549061ffff61271091818460201c16830393838511614c93576020946151109361510a9260301c1690614ee9565b90614ef6565b046024604051809481937f082df8ca00000000000000000000000000000000000000000000000000000000835260048301525afa9081156150af57600091615094575090565b60ff7fffffffffffffffffffffffffffffffffffffffffffffffffffffffffffffffff9116019060ff8211614c9357565b805490680100000000000000008210156118e85760018201808255821015614eba576040916002916000526003602060002091020173ffffffffffffffffffffffffffffffffffffffff8451167fffffffffffffffffffffffff0000000000000000000000000000000000000000825416178155602084015160018201550191015160068110156148f35760ff7fffffffffffffffffffffffffffffffffffffffffffffffffffffffffffffff008354169116179055565b6000808282526006602052604082206040518082602082945493848152019086526020862092865b818110615be757505061527c92500382614790565b8383526006602052604083205490835b828110615ba2575050508260005260096020526152ad604060002054615c00565b60ff831610615b9a5782600052600260205273ffffffffffffffffffffffffffffffffffffffff600860406000200154161515906152ea82615029565b928460005260026020526153016040600020614f51565b908151938415614eba576020830151600052600460205285846002604060002001541460009283918a855260026020526002604086200154948092600e54908d600d54916127106153568461ffff8716614ef6565b049880615b91575b6159cc575b50505050506000146159aa5750506153cc61ffff600b5460c01c169360ff6153b06153c66127106153be6153b76153a68361539e8d8d614ef6565b04809b614ee9565b866153b089615156565b1690614f09565b9988614ef6565b048096614ee9565b92615156565b935b60005b8781106157085750505050505050508160005260106020526040600020805491806156ff575b6154c3575b50508060005260026020526003604060002001548061549b575b5080600052600260205260046040600020015480615473575b5060005260026020526006604060002001650600000000007fffffffffffffffffffffffffffffffffffffffffffffffffffff00ffffffffff825416179055600190565b6154959073ffffffffffffffffffffffffffffffffffffffff600b5416615d4d565b3861542f565b6154bd9073ffffffffffffffffffffffffffffffffffffffff600a5416615d4d565b38615416565b6154cc82614a01565b916154da6040519384614790565b8083526020830180926000526020600020906000905b8382106156a25750505060005b8181106155e657505082600052600260205273ffffffffffffffffffffffffffffffffffffffff600560406000200154169160405192608084019046855285602086015260408501526060916080838601525180915260a08401929160005b828110615595575050505090807f2faa16bd9d858bdbd007d15bb6ae06ff3f238c90433800dafb4c0f7e3f07a241920390a138806153fc565b909192936040855173ffffffffffffffffffffffffffffffffffffffff81511683526020810151602084015201519060068210156148f357604081019190915282019360200192919060010161555c565b73ffffffffffffffffffffffffffffffffffffffff600c5460581c169073ffffffffffffffffffffffffffffffffffffffff6156228287614ea6565b51511660206156318388614ea6565b510151833b156126985760446000928360405196879485937f40c10f19000000000000000000000000000000000000000000000000000000008552600485015260248401525af19182156150af5761568e92615693575b50614e79565b6154fd565b61569c90614727565b38615688565b6040516156ae81614774565b73ffffffffffffffffffffffffffffffffffffffff84541681526001840154602082015260ff60028501541660068110156148f35760019282602092604060039501528152019301910190916154f0565b508115156153f7565b6157128183614ea6565b5160009081526004602052604090206002810154881461580757600301907a0100000000000000000000000000000000000000000000000000007fffffffffff00ffffffffffffffffffffffffffffffffffffffffffffffffffff8354161780925573ffffffffffffffffffffffffffffffffffffffff6012541691823b156126985773ffffffffffffffffffffffffffffffffffffffff60446000928360405196879485937f969ceab400000000000000000000000000000000000000000000000000000000855260281c166004840152600160248401525af19182156150af57615802926156935750614e79565b6153d1565b90600361580292017a0200000000000000000000000000000000000000000000000000007fffffffffff00ffffffffffffffffffffffffffffffffffffffffffffffffffff8254161780825560ff8160c81c1690615864826148e9565b600191820361590d5750876158e4575b8b806158db575b615887575b5050614e79565b6158d4918d600052601060205273ffffffffffffffffffffffffffffffffffffffff6040600020915460281c1691604051926158c284614774565b83528a60208401526040830152615187565b3880615880565b5085151561587b565b6159088873ffffffffffffffffffffffffffffffffffffffff845460281c16615d4d565b615874565b90508680615981575b50508a80615978575b6159295750614e79565b61569c908c600052601060205273ffffffffffffffffffffffffffffffffffffffff6040600020915460281c16906040519161596483614774565b825286602083015260006040830152615187565b5084151561591f565b73ffffffffffffffffffffffffffffffffffffffff6159a39260281c16615d4d565b3886615916565b9160ff6159be6159c6939582881690614f09565b951690614f09565b936153ce565b61ffff604051946159dc86614758565b8181168652818160101c166020870152818160201c166040870152818160301c16606087015260401c1660808501528185526010602052615ad06040862093615a85612710615a4881615a3761ffff60808c01511686614ef6565b049361ffff60208b01511690614ef6565b049173ffffffffffffffffffffffffffffffffffffffff600a54169060405191615a7183614774565b825260208201526005604082015286615187565b838752600260205273ffffffffffffffffffffffffffffffffffffffff600660408920015460301c169060405191615abc83614774565b825260208201526002604082015284615187565b615adb575b81615363565b60086040615b889573ffffffffffffffffffffffffffffffffffffffff93615b5c612710615b268961ffff8784615b1b836060600d549601511685614ef6565b049c01511690614ef6565b04978284526002602052866006868620015460301c1690855191615b4983614774565b8252602082015260048582015287615187565b81526002602052200154169160405192615b7584614774565b8352602083015260036040830152615187565b3880808d615ad5565b5088151561535e565b505050600090565b615bac8183614ea6565b5180600052600760205260ff80604060002054169087168111615bda575b5050615bd590614e79565b61528c565b95509350615bd538615bca565b8454835260019485019486945060209093019201615267565b8060011b81810460021482151715614c935760036150ac920615600014615c3057600360ff60005b169104614f13565b600360ff6001615c28565b60018101908260005281602052604060002054615c6c57615c5c8382614fb8565b5491600052602052604060002055565b602483604051907f346c4a0e0000000000000000000000000000000000000000000000000000000082526004820152fd5b919060018301600090828252806020526040822054615d1c5784549468010000000000000000861015615cef5783615ce2614fdf886001604098999a01855584614fa0565b9055549382526020522055565b6024837f4e487b710000000000000000000000000000000000000000000000000000000081526041600452fd5b602483604051907fbc436f5e0000000000000000000000000000000000000000000000000000000082526004820152fd5b60008080809481945af1903d15615e0c573d9067ffffffffffffffff8211615ddf5760405191615da560207fffffffffffffffffffffffffffffffffffffffffffffffffffffffffffffffe0601f8401160184614790565b825260203d92013e5b15615db557565b60046040517fbfa871c5000000000000000000000000000000000000000000000000000000008152fd5b807f4e487b7100000000000000000000000000000000000000000000000000000000602492526041600452fd5b50615dae56fea264697066735822122097901930c0fcf43b19270313a3b35c74899b78da0da2b5d51b80f55687bb5b2964736f6c63430008140033",
  "linkReferences": {},
  "deployedLinkReferences": {}
}