{
  "_format": "hh-sol-artifact-1",
  "contractName": "ImageClassifier",
  "sourceName": "contracts/ImageClassifier.sol",
  "abi": [
    {
      "inputs": [
        {
          "internalType": "string",
          "name": "_modelName",
          "type": "string"
        },
        {
          "internalType": "address",
          "name": "_modelRegistry",
          "type": "address"
        }
      ],
      "stateMutability": "nonpayable",
      "type": "constructor"
    },
    {
      "inputs": [],
      "name": "IncorrectInputLayerType",
      "type": "error"
    },
    {
      "inputs": [],
      "name": "IncorrectModelId",
      "type": "error"
    },
    {
      "inputs": [],
      "name": "InsufficientEvalPrice",
      "type": "error"
    },
    {
      "inputs": [],
      "name": "InvalidActivationFunction",
      "type": "error"
    },
    {
      "inputs": [],
      "name": "InvalidMatrixDimensions",
      "type": "error"
    },
    {
      "inputs": [],
      "name": "InvalidPaddingType",
      "type": "error"
    },
    {
      "inputs": [],
      "name": "NotModelRegistry",
      "type": "error"
    },
    {
      "inputs": [],
      "name": "NotTokenOwner",
      "type": "error"
    },
    {
      "inputs": [
        {
          "internalType": "uint256",
          "name": "x",
          "type": "uint256"
        },
        {
          "internalType": "uint256",
          "name": "y",
          "type": "uint256"
        },
        {
          "internalType": "uint256",
          "name": "denominator",
          "type": "uint256"
        }
      ],
      "name": "PRBMath_MulDiv_Overflow",
      "type": "error"
    },
    {
      "inputs": [],
      "name": "PRBMath_SD59x18_Div_InputTooSmall",
      "type": "error"
    },
    {
      "inputs": [
        {
          "internalType": "SD59x18",
          "name": "x",
          "type": "int256"
        },
        {
          "internalType": "SD59x18",
          "name": "y",
          "type": "int256"
        }
      ],
      "name": "PRBMath_SD59x18_Div_Overflow",
      "type": "error"
    },
    {
      "inputs": [
        {
          "internalType": "SD59x18",
          "name": "x",
          "type": "int256"
        }
      ],
      "name": "PRBMath_SD59x18_Exp2_InputTooBig",
      "type": "error"
    },
    {
      "inputs": [
        {
          "internalType": "SD59x18",
          "name": "x",
          "type": "int256"
        }
      ],
      "name": "PRBMath_SD59x18_Exp_InputTooBig",
      "type": "error"
    },
    {
      "inputs": [],
      "name": "TooMuchData",
      "type": "error"
    },
    {
      "inputs": [],
      "name": "TransferFailed",
      "type": "error"
    },
    {
      "anonymous": false,
      "inputs": [
        {
          "indexed": true,
          "internalType": "uint256",
          "name": "tokenId",
          "type": "uint256"
        },
        {
          "indexed": false,
          "internalType": "uint256",
          "name": "classIndex",
          "type": "uint256"
        },
        {
          "indexed": false,
          "internalType": "string",
          "name": "className",
          "type": "string"
        },
        {
          "indexed": false,
          "internalType": "Float32x32[]",
          "name": "outputs",
          "type": "int64[]"
        },
        {
          "indexed": false,
          "internalType": "Float32x32",
          "name": "confidence",
          "type": "int64"
        }
      ],
      "name": "Classified",
      "type": "event"
    },
    {
      "anonymous": false,
      "inputs": [
        {
          "indexed": true,
          "internalType": "address",
          "name": "owner",
          "type": "address"
        },
        {
          "indexed": true,
          "internalType": "uint256",
          "name": "tokenId",
          "type": "uint256"
        }
      ],
      "name": "Deployed",
      "type": "event"
    },
    {
      "anonymous": false,
      "inputs": [
        {
          "indexed": true,
          "internalType": "uint256",
          "name": "tokenId",
          "type": "uint256"
        },
        {
          "indexed": false,
          "internalType": "uint256",
          "name": "fromLayerIndex",
          "type": "uint256"
        },
        {
          "indexed": false,
          "internalType": "uint256",
          "name": "toLayerIndex",
          "type": "uint256"
        },
        {
          "indexed": false,
          "internalType": "Float32x32[][][]",
          "name": "outputs1",
          "type": "int64[][][]"
        },
        {
          "indexed": false,
          "internalType": "Float32x32[]",
          "name": "outputs2",
          "type": "int64[]"
        }
      ],
      "name": "Forwarded",
      "type": "event"
    },
    {
      "anonymous": false,
      "inputs": [
        {
          "indexed": true,
          "internalType": "address",
          "name": "previousOwner",
          "type": "address"
        },
        {
          "indexed": true,
          "internalType": "address",
          "name": "newOwner",
          "type": "address"
        }
      ],
      "name": "OwnershipTransferred",
      "type": "event"
    },
    {
      "inputs": [
        {
          "internalType": "uint256",
          "name": "_modelId",
          "type": "uint256"
        },
        {
          "internalType": "Float32x32[]",
          "name": "weights",
          "type": "int64[]"
        },
        {
          "internalType": "uint256",
          "name": "layerInd",
          "type": "uint256"
        },
        {
          "internalType": "enum Layers.LayerType",
          "name": "layerType",
          "type": "uint8"
        }
      ],
      "name": "appendWeights",
      "outputs": [],
      "stateMutability": "nonpayable",
      "type": "function"
    },
    {
      "inputs": [
        {
          "internalType": "uint256",
          "name": "_modelId",
          "type": "uint256"
        },
        {
          "internalType": "uint256",
          "name": "fromLayerIndex",
          "type": "uint256"
        },
        {
          "internalType": "uint256",
          "name": "toLayerIndex",
          "type": "uint256"
        },
        {
          "internalType": "Float32x32[][][]",
          "name": "x1",
          "type": "int64[][][]"
        },
        {
          "internalType": "Float32x32[]",
          "name": "x2",
          "type": "int64[]"
        }
      ],
      "name": "classify",
      "outputs": [],
      "stateMutability": "payable",
      "type": "function"
    },
    {
      "inputs": [
        {
          "internalType": "Float32x32[][][]",
          "name": "x1",
          "type": "int64[][][]"
        },
        {
          "internalType": "Float32x32[]",
          "name": "x2",
          "type": "int64[]"
        },
        {
          "internalType": "uint256",
          "name": "fromLayerIndex",
          "type": "uint256"
        },
        {
          "internalType": "uint256",
          "name": "toLayerIndex",
          "type": "uint256"
        }
      ],
      "name": "forward",
      "outputs": [
        {
          "internalType": "Float32x32[][][]",
          "name": "",
          "type": "int64[][][]"
        },
        {
          "internalType": "Float32x32[]",
          "name": "",
          "type": "int64[]"
        }
      ],
      "stateMutability": "nonpayable",
      "type": "function"
    },
    {
      "inputs": [
        {
          "internalType": "uint256",
          "name": "_modelId",
          "type": "uint256"
        },
        {
          "internalType": "uint256",
          "name": "layerIdx",
          "type": "uint256"
        }
      ],
      "name": "getConv2DLayer",
      "outputs": [
        {
          "internalType": "uint256",
          "name": "n",
          "type": "uint256"
        },
        {
          "internalType": "uint256",
          "name": "m",
          "type": "uint256"
        },
        {
          "internalType": "uint256",
          "name": "p",
          "type": "uint256"
        },
        {
          "internalType": "uint256",
          "name": "q",
          "type": "uint256"
        },
        {
          "internalType": "Float32x32[][][][]",
          "name": "w",
          "type": "int64[][][][]"
        },
        {
          "internalType": "Float32x32[]",
          "name": "b",
          "type": "int64[]"
        }
      ],
      "stateMutability": "view",
      "type": "function"
    },
    {
      "inputs": [
        {
          "internalType": "uint256",
          "name": "_modelId",
          "type": "uint256"
        },
        {
          "internalType": "uint256",
          "name": "layerIdx",
          "type": "uint256"
        }
      ],
      "name": "getDenseLayer",
      "outputs": [
        {
          "internalType": "uint256",
          "name": "dim_in",
          "type": "uint256"
        },
        {
          "internalType": "uint256",
          "name": "dim_out",
          "type": "uint256"
        },
        {
          "internalType": "Float32x32[][]",
          "name": "w",
          "type": "int64[][]"
        },
        {
          "internalType": "Float32x32[]",
          "name": "b",
          "type": "int64[]"
        }
      ],
      "stateMutability": "view",
      "type": "function"
    },
    {
      "inputs": [],
      "name": "getInfo",
      "outputs": [
        {
          "internalType": "uint256[3]",
          "name": "",
          "type": "uint256[3]"
        },
        {
          "internalType": "string",
          "name": "",
          "type": "string"
        },
        {
          "internalType": "string[]",
          "name": "",
          "type": "string[]"
        },
        {
          "components": [
            {
              "internalType": "enum Layers.LayerType",
              "name": "layerType",
              "type": "uint8"
            },
            {
              "internalType": "uint256",
              "name": "layerIndex",
              "type": "uint256"
            }
          ],
          "internalType": "struct IOnchainModel.Info[]",
          "name": "",
          "type": "tuple[]"
        }
      ],
      "stateMutability": "view",
      "type": "function"
    },
    {
      "inputs": [],
      "name": "model",
      "outputs": [
        {
          "internalType": "string",
          "name": "modelName",
          "type": "string"
        },
        {
          "internalType": "uint256",
          "name": "requiredWeights",
          "type": "uint256"
        },
        {
          "internalType": "uint256",
          "name": "appendedWeights",
          "type": "uint256"
        }
      ],
      "stateMutability": "view",
      "type": "function"
    },
    {
      "inputs": [],
      "name": "modelId",
      "outputs": [
        {
          "internalType": "uint256",
          "name": "",
          "type": "uint256"
        }
      ],
      "stateMutability": "view",
      "type": "function"
    },
    {
      "inputs": [],
      "name": "modelRegistry",
      "outputs": [
        {
          "internalType": "contract IModelRegPublic",
          "name": "",
          "type": "address"
        }
      ],
      "stateMutability": "view",
      "type": "function"
    },
    {
      "inputs": [],
      "name": "owner",
      "outputs": [
        {
          "internalType": "address",
          "name": "",
          "type": "address"
        }
      ],
      "stateMutability": "view",
      "type": "function"
    },
    {
      "inputs": [],
      "name": "renounceOwnership",
      "outputs": [],
      "stateMutability": "nonpayable",
      "type": "function"
    },
    {
      "inputs": [
        {
          "internalType": "string[]",
          "name": "classesName",
          "type": "string[]"
        }
      ],
      "name": "setClassesName",
      "outputs": [],
      "stateMutability": "nonpayable",
      "type": "function"
    },
    {
      "inputs": [
        {
          "internalType": "uint256",
          "name": "_modelId",
          "type": "uint256"
        }
      ],
      "name": "setModelId",
      "outputs": [],
      "stateMutability": "nonpayable",
      "type": "function"
    },
    {
      "inputs": [
        {
          "internalType": "uint256",
          "name": "_modelId",
          "type": "uint256"
        },
        {
          "internalType": "bytes[]",
          "name": "layers_config",
          "type": "bytes[]"
        }
      ],
      "name": "setOnchainModel",
      "outputs": [],
      "stateMutability": "nonpayable",
      "type": "function"
    },
    {
      "inputs": [
        {
          "internalType": "address",
          "name": "newOwner",
          "type": "address"
        }
      ],
      "name": "transferOwnership",
      "outputs": [],
      "stateMutability": "nonpayable",
      "type": "function"
    }
  ],
  "bytecode": "0x60806040523480156200001157600080fd5b5060405162008724380380620087248339810160408190526200003491620000fd565b6200003f336200007a565b60016200004d838262000274565b50600c80546001600160a01b0319166001600160a01b0392909216919091179055506001600e5562000340565b600080546001600160a01b038381166001600160a01b0319831681178455604051919092169283917f8be0079c531659141344cd1fd0a4f28419497f9722a3daafe3b4186f6b6457e09190a35050565b634e487b7160e01b600052604160045260246000fd5b80516001600160a01b0381168114620000f857600080fd5b919050565b600080604083850312156200011157600080fd5b82516001600160401b03808211156200012957600080fd5b818501915085601f8301126200013e57600080fd5b815181811115620001535762000153620000ca565b604051601f8201601f19908116603f011681019083821181831017156200017e576200017e620000ca565b816040528281526020935088848487010111156200019b57600080fd5b600091505b82821015620001bf5784820184015181830185015290830190620001a0565b6000848483010152809650505050620001da818601620000e0565b925050509250929050565b600181811c90821680620001fa57607f821691505b6020821081036200021b57634e487b7160e01b600052602260045260246000fd5b50919050565b601f8211156200026f57600081815260208120601f850160051c810160208610156200024a5750805b601f850160051c820191505b818110156200026b5782815560010162000256565b5050505b505050565b81516001600160401b03811115620002905762000290620000ca565b620002a881620002a18454620001e5565b8462000221565b602080601f831160018114620002e05760008415620002c75750858301515b600019600386901b1c1916600185901b1785556200026b565b600085815260208120601f198616915b828110156200031157888601518255948401946001909101908401620002f0565b5085821015620003305787850151600019600388901b60f8161c191681555b5050505050600190811b01905550565b6183d480620003506000396000f3fe6080604052600436106100e85760003560e01c80634d1c23c01161008a5780638da5cb5b116100595780638da5cb5b14610295578063d22e8834146102b3578063f2fde38b146102d3578063fd8e5e30146102f357600080fd5b80634d1c23c01461020d5780635a9b0b891461022d5780636fc9b1dc14610252578063715018a61461028057600080fd5b806318c26a18116100c657806318c26a181461014f5780632ba36f781461017f5780633c996538146101b757806343cdaad2146101e957600080fd5b80630ad9d052146100ed5780630e9814471461011a57806317b4c4d81461012f575b600080fd5b3480156100f957600080fd5b50610102610313565b6040516101119392919061737d565b60405180910390f35b61012d6101283660046173ee565b6103b1565b005b34801561013b57600080fd5b5061012d61014a3660046174e6565b61076c565b34801561015b57600080fd5b5061016f61016a3660046175f2565b610851565b60405161011194939291906176d6565b34801561018b57600080fd5b50600c5461019f906001600160a01b031681565b6040516001600160a01b039091168152602001610111565b3480156101c357600080fd5b506101d76101d23660046175f2565b610a90565b604051610111969594939291906177d4565b3480156101f557600080fd5b506101ff600d5481565b604051908152602001610111565b34801561021957600080fd5b5061012d610228366004617877565b610dea565b34801561023957600080fd5b50610242610fdc565b604051610111949392919061790a565b34801561025e57600080fd5b5061027261026d366004617b15565b611249565b604051610111929190617ba0565b34801561028c57600080fd5b5061012d611aa2565b3480156102a157600080fd5b506000546001600160a01b031661019f565b3480156102bf57600080fd5b5061012d6102ce366004617bc5565b611ab6565b3480156102df57600080fd5b5061012d6102ee366004617c41565b611d0e565b3480156102ff57600080fd5b5061012d61030e366004617c5e565b611dba565b60018054819061032290617caa565b80601f016020809104026020016040519081016040528092919081815260200182805461034e90617caa565b801561039b5780601f106103705761010080835404028352916020019161039b565b820191906000526020600020905b81548152906001019060200180831161037e57829003601f168201915b5050505050908060020154908060030154905083565b600d546000036103ed576040517f4510f92400000000000000000000000000000000000000000000000000000000815260040160405180910390fd5b600c60009054906101000a90046001600160a01b03166001600160a01b03166382a332406040518163ffffffff1660e01b8152600401602060405180830381865afa158015610440573d6000803e3d6000fd5b505050506040513d601f19601f820116820180604052508101906104649190617cde565b34101561049d576040517f7d9f8acc00000000000000000000000000000000000000000000000000000000815260040160405180910390fd5b600c54604080517f9fbc871300000000000000000000000000000000000000000000000000000000815290516000926001600160a01b031691639fbc87139160048083019260209291908290030181865afa158015610500573d6000803e3d6000fd5b505050506040513d601f19601f820116820180604052508101906105249190617cf7565b6001600160a01b03163460405160006040518083038185875af1925050503d806000811461056e576040519150601f19603f3d011682016040523d82523d6000602084013e610573565b606091505b50509050806105ae576040517f90b8ec1800000000000000000000000000000000000000000000000000000000815260040160405180910390fd5b60055486106105c9576005546105c690600190617d2a565b95505b6000806106166105d98789617d3d565b8686808060200260200160405190810160405280939291908181526020018383602002808284376000920191909152508e92508d91506112499050565b600554919350915061062a90600190617d2a565b880361071f57600060015b82518110156106a15761068683838151811061065357610653617d4a565b602002602001015184838151811061066d5761066d617d4a565b602002602001015160070b611ef390919063ffffffff16565b1561068f578091505b8061069981617d60565b915050610635565b50600d547fb2a15636062bb2fc64e5cd888be42bd2170f7381953c89088a24208bf5f61955826001800184815481106106dc576106dc617d4a565b90600052602060002001858686815181106106f9576106f9617d4a565b60200260200101516040516107119493929190617d7a565b60405180910390a250610760565b600d547f6ea9413fc6b5413ea13a72b81ee1e572e32118c3ad82e0cb8e6fc7e3c711985a8a8a85856040516107579493929190617e28565b60405180910390a25b50505050505050505050565b6000546001600160a01b0316331480159061078957506000600d54115b801561081c5750600c54600d546040516331a9108f60e11b81526001600160a01b0390921691636352211e916107c59160040190815260200190565b602060405180830381865afa1580156107e2573d6000803e3d6000fd5b505050506040513d601f19601f820116820180604052508101906108069190617cf7565b6001600160a01b0316336001600160a01b031614155b1561083a576040516359dc379f60e01b815260040160405180910390fd5b805161084d906002906020840190616b52565b5050565b60008060608060006001600801868154811061086f5761086f617d4a565b90600052602060002090600a02016040518060e0016040529081600082015481526020016001820160009054906101000a900460ff1660048111156108b6576108b6617890565b60048111156108c7576108c7617890565b8152602001600282015481526020016003820160405180606001604052908160008201805480602002602001604051908101604052809291908181526020016000905b828210156109995760008481526020908190208301805460408051828502810185019091528181529283018282801561098557602002820191906000526020600020906000905b825461010083900a900460070b81526020600f83018190049384019360010360089093019290920291018084116109515790505b50505050508152602001906001019061090a565b5050505081526020016001820154815260200160028201548152505081526020016006820160405180604001604052908160008201805480602002602001604051908101604052809291908181526020018280548015610a3b57602002820191906000526020600020906000905b825461010083900a900460070b81526020600f8301819004938401936001036008909301929092029101808411610a075790505b50505091835250506001919091015460209182015290825260088301548282015260099092015460409182015260608301519182015190820151915160809093015151909a9199509197509095509350505050565b60008060008060608060006001600a018881548110610ab157610ab1617d4a565b90600052602060002090600f020160405180610120016040529081600082015481526020016001820160009054906101000a900460ff166004811115610af957610af9617890565b6004811115610b0a57610b0a617890565b8152600282810154602083015260408051808201808352919093019291600385019182845b815481526020019060010190808311610b2f575050509183525050600582015460209091019060ff166001811115610b6957610b69617890565b6001811115610b7a57610b7a617890565b8152602001600682016040518060a001604052908160008201805480602002602001604051908101604052809291908181526020016000905b82821015610cd057838290600052602060002001805480602002602001604051908101604052809291908181526020016000905b82821015610cbd57838290600052602060002001805480602002602001604051908101604052809291908181526020016000905b82821015610caa57600084815260209081902083018054604080518285028101850190915281815292830182828015610c9657602002820191906000526020600020906000905b825461010083900a900460070b81526020600f8301819004938401936001036008909301929092029101808411610c625790505b505050505081526020019060010190610c1b565b5050505081526020019060010190610be7565b5050505081526020019060010190610bb3565b5050505081526020016001820154815260200160028201548152602001600382015481526020016004820154815250508152602001600b820160405180604001604052908160008201805480602002602001604051908101604052809291908181526020018280548015610d8657602002820191906000526020600020906000905b825461010083900a900460070b81526020600f8301819004938401936001036008909301929092029101808411610d525790505b505050918352505060019190910154602091820152908252600d83015482820152600e9092015460409182015260a0830151918201519082015160608301516080840151935160c09095015151929e919d509b509199509197509095509350505050565b600c546001600160a01b03163314610e2e576040517f4099888a00000000000000000000000000000000000000000000000000000000815260040160405180910390fd5b6000600d541180610ecc5750600c546040517fa9def49d0000000000000000000000000000000000000000000000000000000081526004810183905230916001600160a01b03169063a9def49d90602401602060405180830381865afa158015610e9c573d6000803e3d6000fd5b505050506040513d601f19601f82011682018060405250810190610ec09190617cf7565b6001600160a01b031614155b15610f03576040517f4510f92400000000000000000000000000000000000000000000000000000000815260040160405180910390fd5b600d819055600454600354610f19919083611f04565b600354600454148015610f2e57506000600d54115b15610fd957600d54600c546040516331a9108f60e11b8152600481018390526001600160a01b0390911690636352211e90602401602060405180830381865afa158015610f7f573d6000803e3d6000fd5b505050506040513d601f19601f82011682018060405250810190610fa39190617cf7565b6001600160a01b03167fb03c53b28e78a88e31607a27e1fa48234dce28d5d9d9ec7b295aeb02e674a1e160405160405180910390a35b50565b610fe4616ba4565b6060806060600160050160008154811061100057611000617d4a565b60009182526020909120604080516060810191829052600160049094029092018301929160029160059190859060039082845b815481526020019060010190808311611033575050505050935082805461105990617caa565b80601f016020809104026020016040519081016040528092919081815260200182805461108590617caa565b80156110d25780601f106110a7576101008083540402835291602001916110d2565b820191906000526020600020905b8154815290600101906020018083116110b557829003601f168201915b5050505050925081805480602002602001604051908101604052809291908181526020016000905b828210156111a657838290600052602060002001805461111990617caa565b80601f016020809104026020016040519081016040528092919081815260200182805461114590617caa565b80156111925780601f1061116757610100808354040283529160200191611192565b820191906000526020600020905b81548152906001019060200180831161117557829003601f168201915b5050505050815260200190600101906110fa565b50505050915080805480602002602001604051908101604052809291908181526020016000905b828210156112355760008481526020902060408051808201909152600284029091018054829060ff16600881111561120757611207617890565b600881111561121857611218617890565b8152602001600182015481525050815260200190600101906111cd565b505050509050935093509350935090919293565b606080835b838111611a915760006001600401828154811061126d5761126d617d4a565b60009182526020909120604080518082019091526002909202018054829060ff16600881111561129f5761129f617890565b60088111156112b0576112b0617890565b81526001919091015460209091015290506003815160088111156112d6576112d6617890565b0361134d576113468860016006018360200151815481106112f9576112f9617d4a565b60009182526020918290206040805160608101825260029093029091018054835260010154600781810b9484019490945268010000000000000000900490920b9181019190915290611f80565b9750611a32565b60028151600881111561136257611362617890565b036113aa576113a388600160070183602001518154811061138557611385617d4a565b6000918252602091829020604080519384019052015481529061223e565b9650611a32565b6001815160088111156113bf576113bf617890565b036115e7576113a38760016008018360200151815481106113e2576113e2617d4a565b90600052602060002090600a02016040518060e0016040529081600082015481526020016001820160009054906101000a900460ff16600481111561142957611429617890565b600481111561143a5761143a617890565b8152602001600282015481526020016003820160405180606001604052908160008201805480602002602001604051908101604052809291908181526020016000905b8282101561150c576000848152602090819020830180546040805182850281018501909152818152928301828280156114f857602002820191906000526020600020906000905b825461010083900a900460070b81526020600f83018190049384019360010360089093019290920291018084116114c45790505b50505050508152602001906001019061147d565b50505050815260200160018201548152602001600282015481525050815260200160068201604051806040016040529081600082018054806020026020016040519081016040528092919081815260200182805480156115ae57602002820191906000526020600020906000905b825461010083900a900460070b81526020600f830181900493840193600103600890930192909202910180841161157a5790505b5050505050815260200160018201548152505081526020016008820154815260200160098201548152505061226290919063ffffffff16565b6004815160088111156115fc576115fc617890565b036116e95761134688600160090183602001518154811061161f5761161f617d4a565b600091825260209182902060408051608081018252600690930290910180548352815180830190925291928301906001830160028282826020028201915b81548152602001906001019080831161165d575050509183525050604080518082019182905260209092019190600384019060029082845b815481526020019060010190808311611695575050509183525050600582015460209091019060ff1660018111156116cf576116cf617890565b60018111156116e0576116e0617890565b905250906123c0565b6005815160088111156116fe576116fe617890565b03611a3257611a2f886001600a0183602001518154811061172157611721617d4a565b90600052602060002090600f020160405180610120016040529081600082015481526020016001820160009054906101000a900460ff16600481111561176957611769617890565b600481111561177a5761177a617890565b8152600282810154602083015260408051808201808352919093019291600385019182845b81548152602001906001019080831161179f575050509183525050600582015460209091019060ff1660018111156117d9576117d9617890565b60018111156117ea576117ea617890565b8152602001600682016040518060a001604052908160008201805480602002602001604051908101604052809291908181526020016000905b8282101561194057838290600052602060002001805480602002602001604051908101604052809291908181526020016000905b8282101561192d57838290600052602060002001805480602002602001604051908101604052809291908181526020016000905b8282101561191a5760008481526020908190208301805460408051828502810185019091528181529283018282801561190657602002820191906000526020600020906000905b825461010083900a900460070b81526020600f83018190049384019360010360089093019290920291018084116118d25790505b50505050508152602001906001019061188b565b5050505081526020019060010190611857565b5050505081526020019060010190611823565b5050505081526020016001820154815260200160028201548152602001600382015481526020016004820154815250508152602001600b8201604051806040016040529081600082018054806020026020016040519081016040528092919081815260200182805480156119f657602002820191906000526020600020906000905b825461010083900a900460070b81526020600f83018190049384019360010360089093019290920291018084116119c25790505b505050505081526020016001820154815250508152602001600d8201548152602001600e820154815250506123fe90919063ffffffff16565b97505b600554611a4190600190617d2a565b8203611a7e57604080518082019091526060815260006020820181815289519052888252611a6e82612472565b518a96509450611a999350505050565b5080611a8981617d60565b91505061124e565b508585915091505b94509492505050565b611aaa6126e7565b611ab4600061275b565b565b6000546001600160a01b03163314801590611ad357506000600d54115b8015611b665750600c54600d546040516331a9108f60e11b81526001600160a01b0390921691636352211e91611b0f9160040190815260200190565b602060405180830381865afa158015611b2c573d6000803e3d6000fd5b505050506040513d601f19601f82011682018060405250810190611b509190617cf7565b6001600160a01b0316336001600160a01b031614155b15611b84576040516359dc379f60e01b815260040160405180910390fd5b60006001826008811115611b9a57611b9a617890565b03611bdc57611bd58460016008018581548110611bb957611bb9617d4a565b90600052602060002090600a02016127c390919063ffffffff16565b9050611c2e565b6005826008811115611bf057611bf0617890565b03611c2e57611c2b846001600a018581548110611c0f57611c0f617d4a565b90600052602060002090600f02016129d690919063ffffffff16565b90505b8060016003016000828254611c439190617e47565b9091555050600354600454148015611c5b5750600085115b15611d0757600c54600d546040516331a9108f60e11b8152600481019190915286916001600160a01b031690636352211e90602401602060405180830381865afa158015611cad573d6000803e3d6000fd5b505050506040513d601f19601f82011682018060405250810190611cd19190617cf7565b6001600160a01b03167fb03c53b28e78a88e31607a27e1fa48234dce28d5d9d9ec7b295aeb02e674a1e160405160405180910390a35b5050505050565b611d166126e7565b6001600160a01b038116611db1576040517f08c379a000000000000000000000000000000000000000000000000000000000815260206004820152602660248201527f4f776e61626c653a206e6577206f776e657220697320746865207a65726f206160448201527f646472657373000000000000000000000000000000000000000000000000000060648201526084015b60405180910390fd5b610fd98161275b565b6000546001600160a01b03163314801590611dd757506000600d54115b8015611e6a5750600c54600d546040516331a9108f60e11b81526001600160a01b0390921691636352211e91611e139160040190815260200190565b602060405180830381865afa158015611e30573d6000803e3d6000fd5b505050506040513d601f19601f82011682018060405250810190611e549190617cf7565b6001600160a01b0316336001600160a01b031614155b15611e88576040516359dc379f60e01b815260040160405180910390fd5b60055415611ee457611e9c60066000616bc2565b611ea860096000616be3565b611eb460086000616c04565b611ec060076000616c22565b611ecc600b6000616c43565b611ed8600a6000616c64565b611ee460056000616c85565b611eee8282612c8e565b505050565b600781810b9083900b135b92915050565b604051602481018490526044810183905260648101829052611eee9060840160408051601f198184030181529190526020810180517bffffffffffffffffffffffffffffffffffffffffffffffffffffffff167fd1ed7a3c00000000000000000000000000000000000000000000000000000000179052612d74565b80516060906000838183611f9657611f96617d4a565b6020026020010151519050600084600081518110611fb657611fb6617d4a565b6020026020010151600081518110611fd057611fd0617d4a565b602002602001015151905060008367ffffffffffffffff811115611ff657611ff661747b565b60405190808252806020026020018201604052801561202957816020015b60608152602001906001900390816120145790505b50905060005b84811015612233578367ffffffffffffffff8111156120505761205061747b565b60405190808252806020026020018201604052801561208357816020015b606081526020019060019003908161206e5790505b5082828151811061209657612096617d4a565b602002602001018190525060005b84811015612220578367ffffffffffffffff8111156120c5576120c561747b565b6040519080825280602002602001820160405280156120ee578160200160208202803683370190505b5083838151811061210157612101617d4a565b6020026020010151828151811061211a5761211a617d4a565b602002602001018190525060005b8481101561220d576121a26121988b602001518b868151811061214d5761214d617d4a565b6020026020010151858151811061216657612166617d4a565b6020026020010151848151811061217f5761217f617d4a565b602002602001015160070b612d7d90919063ffffffff16565b8b60400151612d90565b8484815181106121b4576121b4617d4a565b602002602001015183815181106121cd576121cd617d4a565b602002602001015182815181106121e6576121e6617d4a565b602002602001019060070b908160070b81525050808061220590617d60565b915050612128565b508061221881617d60565b9150506120a4565b508061222b81617d60565b91505061202f565b509695505050505050565b6060600061224b83612d9c565b905061225a8160000151612e37565b949350505050565b604080518082018252606080825260006020830190815284519052838252848101516080860151938101519193909160011480156122a4575060208101516001145b1561237d5760006122b88360200151612fd3565b905060005b836020015181101561233c5783518051829081106122dd576122dd617d4a565b60200260200101516000815181106122f7576122f7617d4a565b60200260200101518260000151828151811061231557612315617d4a565b602002602001019060070b908160070b81525050808061233490617d60565b9150506122bd565b5060006123538361234d8785613032565b90613152565b9050600061236e89602001518361317490919063ffffffff16565b519650611efe95505050505050565b6000612389848461327b565b905060006123978284613152565b905060006123b289602001518361317490919063ffffffff16565b519998505050505050505050565b606060006123cd83612d9c565b905060006123f48560400151866020015187606001518561340f909392919063ffffffff16565b5195945050505050565b6060600061240b83612d9c565b905060008460a00151905060008560c001519050600061244a82612444858a606001518b608001518961357d909392919063ffffffff16565b90613702565b9050600061246588602001518361373a90919063ffffffff16565b5198975050505050505050565b604080518082019091526060815260006020820152602082015160008167ffffffffffffffff8111156124a7576124a761747b565b6040519080825280602002602001820160405280156124d0578160200160208202803683370190505b50905060005b8281101561254b5761251c6020866000015183815181106124f9576124f9617d4a565b602002602001015160070b670de0b6b3a76400006125179190617e5a565b901d90565b82828151811061252e5761252e617d4a565b60209081029190910101528061254381617d60565b9150506124d6565b5060005b828110156125a85761257982828151811061256c5761256c617d4a565b6020026020010151613821565b82828151811061258b5761258b617d4a565b6020908102919091010152806125a081617d60565b91505061254f565b506000805b838110156125ec576125d8828483815181106125cb576125cb617d4a565b602002602001015161388f565b9150806125e481617d60565b9150506125ad565b5060005b83811015612653576126248284838151811061260e5761260e617d4a565b602002602001015161389e90919063ffffffff16565b83828151811061263657612636617d4a565b60209081029190910101528061264b81617d60565b9150506125f0565b50600061265f84612fd3565b905060005b848110156126dd57670de0b6b3a7640000602061269786848151811061268c5761268c617d4a565b602002602001015190565b6126a292911b617ea0565b82518051839081106126b6576126b6617d4a565b602002602001019060070b908160070b8152505080806126d590617d60565b915050612664565b5095945050505050565b6000546001600160a01b03163314611ab4576040517f08c379a000000000000000000000000000000000000000000000000000000000815260206004820181905260248201527f4f776e61626c653a2063616c6c6572206973206e6f7420746865206f776e65726044820152606401611da8565b600080546001600160a01b038381167fffffffffffffffffffffffff0000000000000000000000000000000000000000831681178455604051919092169283917f8be0079c531659141344cd1fd0a4f28419497f9722a3daafe3b4186f6b6457e09190a35050565b6008820154600983015460009190828281036128c757600586015460048701546000906127f1908390617ece565b90505b86518310801561280357508084105b156128ad57600388016128168386617ee5565b8154811061282657612826617d4a565b9060005260206000200187848151811061284257612842617d4a565b60209081029190910181015182546001810184556000938452919092206004820401805460039092166008026101000a67ffffffffffffffff8181021990931692909316929092021790558361289781617d60565b94505082806128a590617d60565b9350506127f4565b8084036128c4576128bd85617d60565b9450600093505b50505b826001036129865760078601545b8551821080156128e457508083105b1561296d578660060160000186838151811061290257612902617d4a565b60209081029190910181015182546001810184556000938452919092206004820401805460039092166008026101000a67ffffffffffffffff8181021990931692909316929092021790558261295781617d60565b935050818061296590617d60565b9250506128d5565b8083036129845761297d84617d60565b9350600092505b505b84518110156129c1576040517f15eb29ee00000000000000000000000000000000000000000000000000000000815260040160405180910390fd5b60088601929092556009850155905092915050565b600d820154600e8301546000919082828103612b7f5760088601546009870154600a880154600789015460009082908490612a12908790617ece565b612a1c9190617ece565b612a269190617ece565b90505b885185108015612a3857508086105b15612b635760068a0182612a4c8587617ece565b612a569190617ece565b612a609088617ee5565b81548110612a7057612a70617d4a565b90600052602060002001848385612a879190617ece565b612a919089617ee5565b612a9b9190617ef9565b81548110612aab57612aab617d4a565b90600052602060002001838388612ac29190617ee5565b612acc9190617ef9565b81548110612adc57612adc617d4a565b90600052602060002001898681518110612af857612af8617d4a565b60209081029190910181015182546001810184556000938452919092206004820401805460039092166008026101000a67ffffffffffffffff81810219909316929093169290920217905585612b4d81617d60565b9650508480612b5b90617d60565b955050612a29565b808603612b7a57612b7387617d60565b9650600095505b505050505b82600103612c3e57600c8601545b855182108015612b9c57508083105b15612c255786600b01600001868381518110612bba57612bba617d4a565b60209081029190910181015182546001810184556000938452919092206004820401805460039092166008026101000a67ffffffffffffffff81810219909316929093169290920217905582612c0f81617d60565b9350508180612c1d90617d60565b925050612b8d565b808303612c3c57612c3584617d60565b9350600092505b505b8451811015612c79576040517f15eb29ee00000000000000000000000000000000000000000000000000000000815260040160405180910390fd5b600d860192909255600e850155905092915050565b6000600381905560048190556060905b82811015612d6e57612ce56040518060400160405280600381526020017f693a200000000000000000000000000000000000000000000000000000000000815250826139bd565b612d5a6040518060400160405280868685818110612d0557612d05617d4a565b9050602002810190612d179190617f0d565b8080601f01602080910402602001604051908101604052809392919081815260200183838082843760009201919091525050509082525060200183905283613a30565b915080612d6681617d60565b915050612c9e565b50505050565b610fd9816143e5565b6000612d898383614406565b9392505050565b6000612d89838361444f565b612dc76040518060800160405280606081526020016000815260200160008152602001600081525090565b8151602082015281518290600090612de157612de1617d4a565b60200260200101515181604001818152505081600081518110612e0657612e06617d4a565b6020026020010151600081518110612e2057612e20617d4a565b602090810291909101015151606082015290815290565b80516060906000838183612e4d57612e4d617d4a565b6020026020010151519050600084600081518110612e6d57612e6d617d4a565b6020026020010151600081518110612e8757612e87617d4a565b60200260200101515190506000818385612ea19190617ece565b612eab9190617ece565b67ffffffffffffffff811115612ec357612ec361747b565b604051908082528060200260200182016040528015612eec578160200160208202803683370190505b5090506000805b85811015612fc75760005b85811015612fb45760005b85811015612fa157898381518110612f2357612f23617d4a565b60200260200101518281518110612f3c57612f3c617d4a565b60200260200101518181518110612f5557612f55617d4a565b6020026020010151858581518110612f6f57612f6f617d4a565b60079290920b60209283029190910190910152612f8d600185617e47565b935080612f9981617d60565b915050612f09565b5080612fac81617d60565b915050612efe565b5080612fbf81617d60565b915050612ef3565b50909695505050505050565b6040805180820190915260608152602081018290528167ffffffffffffffff8111156130015761300161747b565b60405190808252806020026020018201604052801561302a578160200160208202803683370190505b508152919050565b6040805180820190915260608152600060208201528160200151836020015114613088576040517f95c2ffed00000000000000000000000000000000000000000000000000000000815260040160405180910390fd5b60006130946001612fd3565b905060005b846020015181101561314a5761311082600001516000815181106130bf576130bf617d4a565b602002602001015161310b876000015184815181106130e0576130e0617d4a565b6020026020010151876000015185815181106130fe576130fe617d4a565b6020026020010151612d7d565b612d90565b8251805160009061312357613123617d4a565b602002602001019060070b908160070b81525050808061314290617d60565b915050613099565b509392505050565b604080518082019091526060815260006020820152612d89838361448c614498565b604080518082019091526060815260006020820152600082600481111561319d5761319d617890565b036131b5576131ae83614559614593565b9050611efe565b60018260048111156131c9576131c9617890565b036131da576131ae8361381e614593565b60028260048111156131ee576131ee617890565b036131ff576131ae8361462d614593565b600382600481111561321357613213617890565b03613224576131ae83614640614593565b600482600481111561323857613238617890565b03613249576131ae836146c5614593565b6040517fa342a23e00000000000000000000000000000000000000000000000000000000815260040160405180910390fd5b604080518082019091526060815260006020820152600061329f8360400151612fd3565b905060005b836040015181101561337e5760005b846020015181101561336b57613330836000015183815181106132d8576132d8617d4a565b602002602001015161310b886000015184815181106132f9576132f9617d4a565b60200260200101518860000151858151811061331757613317617d4a565b602002602001015186815181106130fe576130fe617d4a565b835180518490811061334457613344617d4a565b602002602001019060070b908160070b81525050808061336390617d60565b9150506132b3565b508061337681617d60565b9150506132a4565b50604080516001808252818301909252600091816020015b60608152602001906001900390816133965790505090508160000151816000815181106133c5576133c5617d4a565b60200260200101819052507f179491a5c16eb1ad3858df42ccd7321ca6ffc7d003c0355ae0c5f9c2cc9c0247816040516133ff9190617f72565b60405180910390a1509392505050565b61343a6040518060800160405280606081526020016000815260200160008152602001600081525090565b600080613465604051806040016040528089602001518152602001896040015181525087878761471b565b8151602083015160608b015193955091935060009261348492906149ac565b905060005b83518110156135715760005b60208501518110156135685760006040518060400160405280866000600281106134c1576134c1617d4a565b602090810291909101518c518702038252878101518c820151860203910152905060005b8b6060015181101561355e576134fd8c838d84614b5e565b855180518690811061351157613511617d4a565b6020026020010151848151811061352a5761352a617d4a565b6020026020010151828151811061354357613543617d4a565b60079290920b602092830291909101909101526001016134e5565b5050600101613495565b50600101613489565b50979650505050505050565b6135a86040518060800160405280606081526020016000815260200160008152602001600081525090565b604080518082018252602080870151825286830151818301528251808401845288820151815292880151908301529060009081906135e89084888861471b565b8151602083015160808b015193955091935060009261360792906149ac565b905060005b83518110156136f55760005b60208501518110156136ec57600060405180604001604052808660006002811061364457613644617d4a565b602090810291909101518d518702038252878101518d820151860203910152905060005b8b608001518110156136e2576136818d8d848b85614c58565b855180518690811061369557613695617d4a565b602002602001015184815181106136ae576136ae617d4a565b602002602001015182815181106136c7576136c7617d4a565b60079290920b60209283029190910190910152600101613668565b5050600101613618565b5060010161360c565b5098975050505050505050565b61372d6040518060800160405280606081526020016000815260200160008152602001600081525090565b612d89838361448c614d9c565b6137656040518060800160405280606081526020016000815260200160008152602001600081525090565b600082600481111561377957613779617890565b0361378a576131ae83614559614f1c565b600182600481111561379e5761379e617890565b036137af576131ae8361381e614f1c565b60028260048111156137c3576137c3617890565b036137d4576131ae8361462d614f1c565b60038260048111156137e8576137e8617890565b036137f9576131ae83614640614f1c565b600482600481111561380d5761380d617890565b03613249576131ae836146c5614f1c565b90565b600081680736ea4425c11ac63081131561386a576040517fca7ec0c500000000000000000000000000000000000000000000000000000000815260048101849052602401611da8565b6714057b7ef767814f810261225a61388a670de0b6b3a7640000835b0590565b61507e565b6000612d8961381e8385617f85565b60008282600160ff1b8214806138b75750600160ff1b81145b156138ee576040517f9fe2b45000000000000000000000000000000000000000000000000000000000815260040160405180910390fd5b600080600084126138ff5783613904565b836000035b9150600083126139145782613919565b826000035b9050600061393083670de0b6b3a764000084615158565b90507f7fffffffffffffffffffffffffffffffffffffffffffffffffffffffffffffff811115613996576040517fd49c26b30000000000000000000000000000000000000000000000000000000081526004810189905260248101889052604401611da8565b600019858518136139b0816139ac578260000390565b8290565b9998505050505050505050565b61084d82826040516024016139d3929190617fad565b60408051601f198184030181529190526020810180517bffffffffffffffffffffffffffffffffffffffffffffffffffffffff167fb60e72cc00000000000000000000000000000000000000000000000000000000179052612d74565b606060008360000151806020019051810190613a4c9190617fe5565b905060ff8116613bb55760008460000151806020019051810190613a709190618000565b91505060ff811615613aae576040517f4fa6915d00000000000000000000000000000000000000000000000000000000815260040160405180910390fd5b600080613aba87615245565b6006805460018101825560009190915282517ff652222313e28459528d920b65115c16c04f3efc82aaedc97be59f3f377c0d3f600490920291820190815560208401519395509193508492613b33917ff652222313e28459528d920b65115c16c04f3efc82aaedc97be59f3f377c0d4001906003616ca6565b50506040805180820190915260008152600654600592506020820190613b5b90600190617d2a565b9052815460018181018455600093845260209093208251600290920201805492939092839160ff1990911690836008811115613b9957613b99617890565b02179055506020820151816001015550508095505050506143dd565b60001960ff821601613d7d576000806000613bd0878761533a565b60098054600181810183556000929092528451600a9091027f6e1540171b6c0c960b71a7020d9f60077f6af931a8bbf590da0223dacf75c7af810191825560208601517f6e1540171b6c0c960b71a7020d9f60077f6af931a8bbf590da0223dacf75c7b09091018054969950949750929550879490939160ff1990911690836004811115613c6057613c60617890565b0217905550604082015160028201556060820151805180516003840191613c8c91839160200190616ce0565b50602082810151600183015560409092015160029091015560808301518051805191926006850192613cc19284920190616d39565b5060208201518160010155505060a0820151816008015560c0820151816009015550508060016002016000828254613cf99190617e47565b9091555050604080518082019091526001808252600954600592916020830191613d239190617d2a565b9052815460018181018455600093845260209093208251600290920201805492939092839160ff1990911690836008811115613d6157613d61617890565b02179055506020820151816001015550508195505050506143dd565b7ffffffffffffffffffffffffffffffffffffffffffffffffffffffffffffffffe60ff821601613e7057600080613db4868661549a565b6008805460018101825560009190915282517ff3f7a9fe364faab93b216da50a3214154f22a0a2b415b23a84c8169e8b636ee3909101556040805180820190915291935091506005908060028152600854602090910190613e1790600190617d2a565b9052815460018181018455600093845260209093208251600290920201805492939092839160ff1990911690836008811115613e5557613e55617890565b021790555060208201518160010155505080945050506143dd565b7ffffffffffffffffffffffffffffffffffffffffffffffffffffffffffffffffd60ff821601613ff4576000613ea585615562565b60078054600181810183556000838152845160029093027fa66cc928b5edb82af9bd49922954155ab7b0942694bea4ce44661d9a8736c68881019390935560208501517fa66cc928b5edb82af9bd49922954155ab7b0942694bea4ce44661d9a8736c6899093018054604087015167ffffffffffffffff90811668010000000000000000027fffffffffffffffffffffffffffffffff0000000000000000000000000000000090921695169490941793909317909255915492935091613f6b9190617d2a565b6040805180820190915260038152602081018290526005805460018082018355600092909252825160029091027f036b6384b5eca791c62761152d0c79bb0604c104a5fb6f4eb0703f3154bb3db001805494955092939091839160ff191690836008811115613fdc57613fdc617890565b021790555060208201518160010155505050506143dd565b7ffffffffffffffffffffffffffffffffffffffffffffffffffffffffffffffffc60ff8216016141855760008061402b86866155c7565b600a805460018101825560009190915282517fc65a7bb8d6351c1cf70c95a316cc6a92839c986682d98bc35f958f4883f9d2a86006909202918201908155602084015193955091935084926140a4917fc65a7bb8d6351c1cf70c95a316cc6a92839c986682d98bc35f958f4883f9d2a901906002616df2565b5060408201516140ba9060038301906002616df2565b50606082015160058201805460ff1916600183818111156140dd576140dd617890565b021790555050600a549195508591600091506140fb90600190617d2a565b6040805180820190915260048152602081018290526005805460018082018355600092909252825160029091027f036b6384b5eca791c62761152d0c79bb0604c104a5fb6f4eb0703f3154bb3db001805494955092939091839160ff19169083600881111561416c5761416c617890565b02179055506020820151816001015550505050506143dd565b7ffffffffffffffffffffffffffffffffffffffffffffffffffffffffffffffffb60ff8216016143dd5760008060006141be8787615761565b600b8054600181810183556000929092528451600f9091027f0175b7a638427703f0dbe7bb9bbf987a2551717b34e79f33b5b1008d1fa01db9810191825560208601517f0175b7a638427703f0dbe7bb9bbf987a2551717b34e79f33b5b1008d1fa01dba9091018054969950949750929550879490939160ff199091169083600481111561424e5761424e617890565b021790555060408201518160020155606082015181600301906002614274929190616df2565b50608082015160058201805460ff19166001838181111561429757614297617890565b021790555060a08201518051805160068401916142b991839160200190616e1f565b506020828101516001830155604083015160028301556060830151600383015560809092015160049091015560c0830151805180519192600b8501926143029284920190616d39565b5060208201518160010155505060e082015181600d015561010082015181600e01555050806001600201600082825461433b9190617e47565b9091555050600b54919550859160009061435790600190617d2a565b60408051808201909152600580825260208201839052805460018082018355600092909252825160029091027f036b6384b5eca791c62761152d0c79bb0604c104a5fb6f4eb0703f3154bb3db001805494955092939091839160ff1916908360088111156143c7576143c7617890565b0217905550602082015181600101555050505050505b509092915050565b60006a636f6e736f6c652e6c6f679050600080835160208501845afa505050565b60008060208360070b8560070b02600f0b901d9050677fffffffffffffff19600f0b81600f0b121580156144465750677fffffffffffffff600f82900b13155b612d8957600080fd5b6000600783810b9083900b01677fffffffffffffff19600f82900b128015906144465750677fffffffffffffff600f82900b1315612d8957600080fd5b6000612d898383612d90565b60408051808201909152606081526000602082015260006144bc8560200151612fd3565b905060005b816020015181101561455057614515866000015182815181106144e6576144e6617d4a565b60200260200101518660000151838151811061450457614504617d4a565b60200260200101518663ffffffff16565b825180518390811061452957614529617d4a565b602002602001019060070b908160070b81525050808061454890617d60565b9150506144c1565b50949350505050565b6000808260070b1361458f5761458a640a00000000614581600785900b640200000000612d7d565b60070b906159bb565b611efe565b5090565b60408051808201909152606081526000602082015260006145b78460200151612fd3565b905060005b816020015181101561314a576145f2856000015182815181106145e1576145e1617d4a565b60200260200101518563ffffffff16565b825180518390811061460657614606617d4a565b602002602001019060070b908160070b81525050808061462590617d60565b9150506145bc565b6000808260070b1361458f576000611efe565b60007fffffffffffffffffffffffffffffffffffffffffffffffffffffffeb000000008260070b1215614699576146967fffffffffffffffffffffffffffffffffffffffffffffffffffffffffffffffeb6159c7565b91505b611efe6146b964010000000061310b6146b186615a0d565b60070b615a18565b640100000000906159bb565b6000640a000000008260070b13156146e4576146e1600a6159c7565b91505b60006146f86146b164020000000085612d7d565b9050612d8961470c82640100000000612d90565b61458183640100000000615a23565b614723616e78565b61472b616e78565b60005b60028110156149a257600184600181111561474b5761474b617890565b036148c75784816002811061476257614762617d4a565b6020020151600186836002811061477b5761477b617d4a565b602002015189846002811061479257614792617d4a565b60200201516147a19190617e47565b6147ab9190617d2a565b6147b59190617ee5565b8382600281106147c7576147c7617d4a565b602002015260008582600281106147e0576147e0617d4a565b60200201518883600281106147f7576147f7617d4a565b60200201516148069190617ef9565b156148675761486287836002811061482057614820617d4a565b602002015187846002811061483757614837617d4a565b60200201518a856002811061484e5761484e617d4a565b602002015161485d9190617ef9565b615a2f565b61489d565b61489d87836002811061487c5761487c617d4a565b602002015187846002811061489357614893617d4a565b6020020151615a2f565b90506148aa600282617ee5565b8383600281106148bc576148bc617d4a565b602002015250614992565b60008460018111156148db576148db617890565b03614960578481600281106148f2576148f2617d4a565b602002015186826002811061490957614909617d4a565b602002015188836002811061492057614920617d4a565b602002015161492f9190617d2a565b6149399190617ee5565b614944906001617e47565b83826002811061495657614956617d4a565b6020020152614992565b6040517f20a554a900000000000000000000000000000000000000000000000000000000815260040160405180910390fd5b61499b81617d60565b905061472e565b5094509492505050565b6149d76040518060800160405280606081526020016000815260200160008152602001600081525090565b6020810184905260408101839052606081018290528367ffffffffffffffff811115614a0557614a0561747b565b604051908082528060200260200182016040528015614a3857816020015b6060815260200190600190039081614a235790505b50815260005b8481101561314a578367ffffffffffffffff811115614a5f57614a5f61747b565b604051908082528060200260200182016040528015614a9257816020015b6060815260200190600190039081614a7d5790505b508251805183908110614aa757614aa7617d4a565b602002602001018190525060005b84811015614b4b578367ffffffffffffffff811115614ad657614ad661747b565b604051908082528060200260200182016040528015614aff578160200160208202803683370190505b508351805184908110614b1457614b14617d4a565b60200260200101518281518110614b2d57614b2d617d4a565b60200260200101819052508080614b4390617d60565b915050614ab5565b5080614b5681617d60565b915050614a3e565b600080614b8a7fffffffffffffffffffffffffffffffffffffffffffffffffffffffffc46536006159c7565b905060005b84518110156126dd5760005b6020860151811015614c4f578651602080890151908a0151918401919083019060009083108015614bca575060015b8015614bd957508a6040015182105b614be4576000614c33565b8a51805184908110614bf857614bf8617d4a565b60200260200101518281518110614c1157614c11617d4a565b60200260200101518881518110614c2a57614c2a617d4a565b60200260200101515b9050614c3f8682615a49565b9550505050806001019050614b9b565b50600101614b8f565b600080805b8451811015614d8f5760005b6020860151811015614d86578651602080890151908b0151918401919083019082108015614c95575060015b8015614ca457508a6040015181105b15614d7c5760005b8b60600151811015614d7a57614d708661310b8e600001518681518110614cd557614cd5617d4a565b60200260200101518581518110614cee57614cee617d4a565b60200260200101518481518110614d0757614d07617d4a565b60200260200101518e600001518981518110614d2557614d25617d4a565b60200260200101518881518110614d3e57614d3e617d4a565b60200260200101518581518110614d5757614d57617d4a565b60200260200101518c815181106130fe576130fe617d4a565b9550600101614cac565b505b5050600101614c69565b50600101614c5d565b5090505b95945050505050565b614dc76040518060800160405280606081526020016000815260200160008152602001600081525090565b6000614de08560200151866040015187606001516149ac565b905060005b81602001518110156145505760005b8260400151811015614f095760005b8360600151811015614ef657614e8988600001518481518110614e2857614e28617d4a565b60200260200101518381518110614e4157614e41617d4a565b60200260200101518281518110614e5a57614e5a617d4a565b602002602001015188600001518381518110614e7857614e78617d4a565b60200260200101518863ffffffff16565b8451805185908110614e9d57614e9d617d4a565b60200260200101518381518110614eb657614eb6617d4a565b60200260200101518281518110614ecf57614ecf617d4a565b602002602001019060070b908160070b815250508080614eee90617d60565b915050614e03565b5080614f0181617d60565b915050614df4565b5080614f1481617d60565b915050614de5565b614f476040518060800160405280606081526020016000815260200160008152602001600081525090565b6000614f608460200151856040015186606001516149ac565b905060005b816020015181101561314a5760005b826040015181101561506b5760005b836060015181101561505857614feb87600001518481518110614fa857614fa8617d4a565b60200260200101518381518110614fc157614fc1617d4a565b60200260200101518281518110614fda57614fda617d4a565b60200260200101518763ffffffff16565b8451805185908110614fff57614fff617d4a565b6020026020010151838151811061501857615018617d4a565b6020026020010151828151811061503157615031617d4a565b602002602001019060070b908160070b81525050808061505090617d60565b915050614f83565b508061506381617d60565b915050614f74565b508061507681617d60565b915050614f65565b600081818112156150f1577ffffffffffffffffffffffffffffffffffffffffffffffffcc22e87f6eb468eeb8112156150ba5750600092915050565b6150ea6150cd61381e61388a8460000390565b6ec097ce7bc90715b34b9f10000000008161388657613886617e8a565b9150615152565b680a688906bd8affffff811315615137576040517f0360d02800000000000000000000000000000000000000000000000000000000815260048101849052602401611da8565b670de0b6b3a7640000604082901b0561225a61381e82615a51565b50919050565b60008080600019858709858702925082811083820303915050806000036151925783828161518857615188617e8a565b0492505050612d89565b8381106151dc576040517f63a05778000000000000000000000000000000000000000000000000000000008152600481018790526024810186905260448101859052606401611da8565b60008486880960026001871981018816978890046003810283188082028403028082028403028082028403028082028403028082028403029081029092039091026000889003889004909101858311909403939093029303949094049190911702949350505050565b61524d616e96565b6060615257616ba4565b836000015180602001905181019061526f9190618033565b604080518082019091526020808901518252810182905295509250600391506152959050565b6040519080825280602002602001820160405280156152be578160200160208202803683370190505b5091508060006020020151826000815181106152dc576152dc617d4a565b602090810291909101015280600160200201518260018151811061530257615302617d4a565b602090810291909101015280600260200201518260028151811061532857615328617d4a565b60200260200101818152505050915091565b615342616eb5565b60606000806000866000015180602001905181019061536191906180d4565b925092505061538a8660008151811061537c5761537c617d4a565b6020026020010151826161c5565b6040518060e00160405280886020015181526020018360ff1660048111156153b4576153b4617890565b60048111156153c5576153c5617890565b81526020018281526020016153f4886000815181106153e6576153e6617d4a565b60200260200101518461623a565b8152602001615416836040805180820190915260608152602081019190915290565b815260006020820181905260409182015280516001808252818301909252919650816020016020820280368337019050509350808460008151811061545d5761545d617d4a565b60200260200101818152505061547885608001516020015190565b61548586606001516162c1565b61548f9190617e47565b925050509250925092565b60408051602080820183526000909152815180820183528482015181528251600180825281850190945290926060928281019080368337019050509050826002815181106154ea576154ea617d4a565b60200260200101518360018151811061550557615505617d4a565b60200260200101518460008151811061552057615520617d4a565b60200260200101516155329190617ece565b61553c9190617ece565b8160008151811061554f5761554f617d4a565b6020026020010181815250509250929050565b6040805160608101825260008082526020820181905291810191909152600080836000015180602001905181019061559a9190618110565b604080516060810182526020988901518152600793840b98810198909852910b9086015250929392505050565b6155cf616f30565b6060600080600086600001518060200190518101906155ee91906181ca565b935093509350506040518060800160405280886020015181526020018481526020018381526020018260ff16600181111561562b5761562b617890565b600181111561563c5761563c617890565b90529450615648616e78565b6156b060405180604001604052808960008151811061566957615669617d4a565b602002602001015181526020018960018151811061568957615689617d4a565b602002602001015181525085858560ff1660018111156156ab576156ab617890565b61471b565b506040805160038082526080820190925291925060208201606080368337505082518251929750918791506000906156ea576156ea617d4a565b602090810291909101015280600160200201518560018151811061571057615710617d4a565b6020026020010181815250508660028151811061572f5761572f617d4a565b60200260200101518560028151811061574a5761574a617d4a565b602002602001018181525050505050509250929050565b615769616f63565b6060600080600080600080896000015180602001905181019061578c9190618220565b95509550955095509550506040518061012001604052808b6020015181526020018660ff1660048111156157c2576157c2617890565b60048111156157d3576157d3617890565b81526020018581526020018381526020018260ff1660018111156157f9576157f9617890565b600181111561580a5761580a617890565b8152602001615843856000602002015186600160200201518d60028151811061583557615835617d4a565b6020026020010151896162d7565b8152602001615865866040805180820190915260608152602081019190915290565b81526020016000815260200160008152509750615880616e78565b6158c160405180604001604052808c6000815181106158a1576158a1617d4a565b602002602001015181526020018c60018151811061568957615689617d4a565b506040805160038082526080820190925291925060208201606080368337505082518251929a50918a91506000906158fb576158fb617d4a565b602090810291909101015280600160200201518860018151811061592157615921617d4a565b602002602001018181525050848860028151811061594157615941617d4a565b60200260200101818152505084858b60028151811061596257615962617d4a565b60200260200101518660016002811061597d5761597d617d4a565b6020020151875161598e9190617ece565b6159989190617ece565b6159a29190617ece565b6159ac9190617e47565b96505050505050509250925092565b6000612d8983836164a1565b60007fffffffffffffffffffffffffffffffffffffffffffffffffffffffff8000000082121580156159fd5750637fffffff8213155b615a0657600080fd5b5060201b90565b6000611efe82616503565b6000611efe82616524565b6000612d898383616571565b6000818311615a3f576000612d89565b612d898284617d2a565b600081612d89565b7780000000000000000000000000000000000000000000000067ff00000000000000821615615b7257678000000000000000821615615a995768016a09e667f3bcc9090260401c5b674000000000000000821615615ab8576801306fe0a31b7152df0260401c5b672000000000000000821615615ad7576801172b83c7d517adce0260401c5b671000000000000000821615615af65768010b5586cf9890f62a0260401c5b670800000000000000821615615b15576801059b0d31585743ae0260401c5b670400000000000000821615615b3457680102c9a3e778060ee70260401c5b670200000000000000821615615b535768010163da9fb33356d80260401c5b670100000000000000821615615b7257680100b1afa5abcbed610260401c5b66ff000000000000821615615c71576680000000000000821615615b9f5768010058c86da1c09ea20260401c5b6640000000000000821615615bbd576801002c605e2e8cec500260401c5b6620000000000000821615615bdb57680100162f3904051fa10260401c5b6610000000000000821615615bf9576801000b175effdc76ba0260401c5b6608000000000000821615615c1757680100058ba01fb9f96d0260401c5b6604000000000000821615615c355768010002c5cc37da94920260401c5b6602000000000000821615615c53576801000162e525ee05470260401c5b6601000000000000821615615c715768010000b17255775c040260401c5b65ff0000000000821615615d675765800000000000821615615c9c576801000058b91b5bc9ae0260401c5b65400000000000821615615cb957680100002c5c89d5ec6d0260401c5b65200000000000821615615cd65768010000162e43f4f8310260401c5b65100000000000821615615cf357680100000b1721bcfc9a0260401c5b65080000000000821615615d105768010000058b90cf1e6e0260401c5b65040000000000821615615d2d576801000002c5c863b73f0260401c5b65020000000000821615615d4a57680100000162e430e5a20260401c5b65010000000000821615615d67576801000000b1721835510260401c5b64ff00000000821615615e5457648000000000821615615d9057680100000058b90c0b490260401c5b644000000000821615615dac5768010000002c5c8601cc0260401c5b642000000000821615615dc8576801000000162e42fff00260401c5b641000000000821615615de45768010000000b17217fbb0260401c5b640800000000821615615e00576801000000058b90bfce0260401c5b640400000000821615615e1c57680100000002c5c85fe30260401c5b640200000000821615615e385768010000000162e42ff10260401c5b640100000000821615615e5457680100000000b17217f80260401c5b63ff000000821615615f38576380000000821615615e7b5768010000000058b90bfc0260401c5b6340000000821615615e96576801000000002c5c85fe0260401c5b6320000000821615615eb157680100000000162e42ff0260401c5b6310000000821615615ecc576801000000000b17217f0260401c5b6308000000821615615ee757680100000000058b90c00260401c5b6304000000821615615f025768010000000002c5c8600260401c5b6302000000821615615f1d576801000000000162e4300260401c5b6301000000821615615f385768010000000000b172180260401c5b62ff00008216156160135762800000821615615f5d576801000000000058b90c0260401c5b62400000821615615f7757680100000000002c5c860260401c5b62200000821615615f915768010000000000162e430260401c5b62100000821615615fab57680100000000000b17210260401c5b62080000821615615fc55768010000000000058b910260401c5b62040000821615615fdf576801000000000002c5c80260401c5b62020000821615615ff957680100000000000162e40260401c5b62010000821615616013576801000000000000b1720260401c5b61ff008216156160e55761800082161561603657680100000000000058b90260401c5b61400082161561604f5768010000000000002c5d0260401c5b612000821615616068576801000000000000162e0260401c5b6110008216156160815768010000000000000b170260401c5b61080082161561609a576801000000000000058c0260401c5b6104008216156160b357680100000000000002c60260401c5b6102008216156160cc57680100000000000001630260401c5b6101008216156160e557680100000000000000b10260401c5b60ff8216156161ae57608082161561610657680100000000000000590260401c5b604082161561611e576801000000000000002c0260401c5b602082161561613657680100000000000000160260401c5b601082161561614e576801000000000000000b0260401c5b600882161561616657680100000000000000060260401c5b600482161561617e57680100000000000000030260401c5b600282161561619657680100000000000000010260401c5b60018216156161ae57680100000000000000010260401c5b670de0b6b3a76400000260409190911c60bf031c90565b604051602481018390526044810182905261084d9060640160408051601f198184030181529190526020810180517bffffffffffffffffffffffffffffffffffffffffffffffffffffffff167ff666715a00000000000000000000000000000000000000000000000000000000179052612d74565b61625e60405180606001604052806060815260200160008152602001600081525090565b60208101839052604081018290528267ffffffffffffffff8111156162855761628561747b565b6040519080825280602002602001820160405280156162b857816020015b60608152602001906001900390816162a35790505b50815292915050565b600081604001518260200151611efe9190617ece565b6163096040518060a0016040528060608152602001600081526020016000815260200160008152602001600081525090565b602081018590526040810184905260608101839052608081018290528467ffffffffffffffff81111561633e5761633e61747b565b60405190808252806020026020018201604052801561637157816020015b606081526020019060019003908161635c5790505b50815260005b85811015614550578467ffffffffffffffff8111156163985761639861747b565b6040519080825280602002602001820160405280156163cb57816020015b60608152602001906001900390816163b65790505b5082518051839081106163e0576163e0617d4a565b602002602001018190525060005b8581101561648e578467ffffffffffffffff81111561640f5761640f61747b565b60405190808252806020026020018201604052801561644257816020015b606081526020019060019003908161642d5790505b50835180518490811061645757616457617d4a565b6020026020010151828151811061647057616470617d4a565b6020026020010181905250808061648690617d60565b9150506163ee565b508061649981617d60565b915050616377565b60008160070b6000036164b357600080fd5b6000600783900b602085901b600b0b816164cf576164cf617e8a565b059050677fffffffffffffff19600f82900b128015906144465750677fffffffffffffff600f82900b1315612d8957600080fd5b6000678000000000000000600783900b0161651d57600080fd5b5060000390565b60006420000000008260070b1261653a57600080fd5b641fffffffff198260070b121561655357506000919050565b611efe60408360070b680171547652b82fe17702600f0b901d6165ae565b6000600782810b9084900b03677fffffffffffffff19600f82900b128015906144465750677fffffffffffffff600f82900b1315612d8957600080fd5b60006420000000008260070b126165c457600080fd5b641fffffffff198260070b12156165dd57506000919050565b67800000000000000060006380000000841660070b13156166115768016a09e667f3bcc9080260401c67ffffffffffffffff165b60008363400000001660070b131561663c576801306fe0a31b7152de0260401c67ffffffffffffffff165b60008363200000001660070b1315616667576801172b83c7d517adcd0260401c67ffffffffffffffff165b60008363100000001660070b13156166925768010b5586cf9890f6290260401c67ffffffffffffffff165b60008363080000001660070b13156166bd576801059b0d31585743ae0260401c67ffffffffffffffff165b60008363040000001660070b13156166e857680102c9a3e778060ee60260401c67ffffffffffffffff165b60008363020000001660070b13156167135768010163da9fb33356d80260401c67ffffffffffffffff165b60008363010000001660070b131561673e57680100b1afa5abcbed610260401c67ffffffffffffffff165b600083628000001660070b13156167685768010058c86da1c09ea10260401c67ffffffffffffffff165b600083624000001660070b1315616792576801002c605e2e8cec500260401c67ffffffffffffffff165b600083622000001660070b13156167bc57680100162f3904051fa10260401c67ffffffffffffffff165b600083621000001660070b13156167e6576801000b175effdc76ba0260401c67ffffffffffffffff165b600083620800001660070b131561681057680100058ba01fb9f96d0260401c67ffffffffffffffff165b600083620400001660070b131561683a5768010002c5cc37da94910260401c67ffffffffffffffff165b600083620200001660070b1315616864576801000162e525ee05470260401c67ffffffffffffffff165b600083620100001660070b131561688e5768010000b17255775c040260401c67ffffffffffffffff165b6000836180001660070b13156168b7576801000058b91b5bc9ae0260401c67ffffffffffffffff165b6000836140001660070b13156168e057680100002c5c89d5ec6c0260401c67ffffffffffffffff165b6000836120001660070b13156169095768010000162e43f4f8310260401c67ffffffffffffffff165b6000836110001660070b131561693257680100000b1721bcfc990260401c67ffffffffffffffff165b6000836108001660070b131561695b5768010000058b90cf1e6d0260401c67ffffffffffffffff165b6000836104001660070b1315616984576801000002c5c863b73f0260401c67ffffffffffffffff165b6000836102001660070b13156169ad57680100000162e430e5a10260401c67ffffffffffffffff165b6000836101001660070b13156169d6576801000000b1721835510260401c67ffffffffffffffff165b60008360801660070b13156169fe57680100000058b90c0b480260401c67ffffffffffffffff165b60008360401660070b1315616a265768010000002c5c8601cc0260401c67ffffffffffffffff165b60008360201660070b1315616a4e576801000000162e42fff00260401c67ffffffffffffffff165b60008360101660070b1315616a765768010000000b17217fba0260401c67ffffffffffffffff165b60008360081660070b1315616a9e576801000000058b90bfcd0260401c67ffffffffffffffff165b60008360041660070b1315616ac657680100000002c5c85fe30260401c67ffffffffffffffff165b60008360021660070b1315616aee5768010000000162e42ff00260401c67ffffffffffffffff165b60008360011660070b1315616b1657680100000000b17217f80260401c67ffffffffffffffff165b6fffffffffffffffffffffffffffffffff908116600784810b60201d601f03900b82161c90677fffffffffffffff9082161115611efe57600080fd5b828054828255906000526020600020908101928215616b98579160200282015b82811115616b985782518290616b8890826182de565b5091602001919060010190616b72565b5061458f929150616fcb565b60405180606001604052806003906020820280368337509192915050565b5080546000825560040290600052602060002090810190610fd99190616fe8565b50805460008255600a0290600052602060002090810190610fd99190617010565b5080546000825590600052602060002090810190610fd99190617083565b5080546000825560020290600052602060002090810190610fd99190617098565b50805460008255600f0290600052602060002090810190610fd991906170d7565b5080546000825560060290600052602060002090810190610fd99190617173565b5080546000825560020290600052602060002090810190610fd991906171ae565b8260038101928215616cd4579160200282015b82811115616cd4578251825591602001919060010190616cb9565b5061458f929150617083565b828054828255906000526020600020908101928215616d2d579160200282015b82811115616d2d5782518051616d1d918491602090910190616d39565b5091602001919060010190616d00565b5061458f9291506171ce565b82805482825590600052602060002090600301600490048101928215616cd45791602002820160005b83821115616db157835183826101000a81548167ffffffffffffffff021916908360070b67ffffffffffffffff1602179055509260200192600801602081600701049283019260010302616d62565b8015616de55782816101000a81549067ffffffffffffffff0219169055600801602081600701049283019260010302616db1565b505061458f929150617083565b8260028101928215616cd45791602002820182811115616cd4578251825591602001919060010190616cb9565b828054828255906000526020600020908101928215616e6c579160200282015b82811115616e6c5782518051616e5c9184916020909101906171eb565b5091602001919060010190616e3f565b5061458f929150617244565b60405180604001604052806002906020820280368337509192915050565b604051806040016040528060008152602001616eb0616ba4565b905290565b6040805160e0810190915260008082526020820190815260200160008152602001616efa60405180606001604052806060815260200160008152602001600081525090565b8152602001616f1c604051806040016040528060608152602001600081525090565b815260200160008152602001600081525090565b604051806080016040528060008152602001616f4a616e78565b8152602001616f57616e78565b81526020016000905290565b60408051610120810190915260008082526020820190815260200160008152602001616f8d616e78565b815260200160008152602001616efa6040518060a0016040528060608152602001600081526020016000815260200160008152602001600081525090565b8082111561458f576000616fdf8282617261565b50600101616fcb565b8082111561458f57600080825560018201819055600282018190556003820155600401616fe8565b8082111561458f57600080825560018201805460ff1916905560028201819055600382018161703f828261729b565b506000600182018190556002909101819055600683019061706082826172b9565b600182016000905550506008820160009055600982016000905550600a01617010565b5b8082111561458f5760008155600101617084565b5b8082111561458f57600081556001810180547fffffffffffffffffffffffffffffffff00000000000000000000000000000000169055600201617099565b8082111561458f57600080825560018201805460ff1916905560028201819055600382018190556004820181905560058201805460ff1916905560068201600061712182826172de565b5060006001820181905560028201819055600382018190556004909101819055600b83019061715082826172b9565b60018201600090555050600d820160009055600e82016000905550600f016170d7565b8082111561458f576000808255600182018190556002820181905560038201819055600482015560058101805460ff19169055600601617173565b5b8082111561458f57805460ff19168155600060018201556002016171af565b8082111561458f5760006171e282826172b9565b506001016171ce565b828054828255906000526020600020908101928215617238579160200282015b828111156172385782518051617228918491602090910190616ce0565b509160200191906001019061720b565b5061458f9291506172fc565b8082111561458f5760006172588282617319565b50600101617244565b50805461726d90617caa565b6000825580601f1061727d575050565b601f016020900490600052602060002090810190610fd99190617083565b5080546000825590600052602060002090810190610fd991906171ce565b508054600082556003016004900490600052602060002090810190610fd99190617083565b5080546000825590600052602060002090810190610fd99190617244565b8082111561458f576000617310828261729b565b506001016172fc565b5080546000825590600052602060002090810190610fd991906172fc565b6000815180845260005b8181101561735d57602081850181015186830182015201617341565b506000602082860101526020601f19601f83011685010191505092915050565b6060815260006173906060830186617337565b60208301949094525060400152919050565b60008083601f8401126173b457600080fd5b50813567ffffffffffffffff8111156173cc57600080fd5b6020830191508360208260051b85010111156173e757600080fd5b9250929050565b600080600080600080600060a0888a03121561740957600080fd5b873596506020880135955060408801359450606088013567ffffffffffffffff8082111561743657600080fd5b6174428b838c016173a2565b909650945060808a013591508082111561745b57600080fd5b506174688a828b016173a2565b989b979a50959850939692959293505050565b634e487b7160e01b600052604160045260246000fd5b604051601f8201601f1916810167ffffffffffffffff811182821017156174ba576174ba61747b565b604052919050565b600067ffffffffffffffff8211156174dc576174dc61747b565b5060051b60200190565b600060208083850312156174f957600080fd5b823567ffffffffffffffff8082111561751157600080fd5b8185019150601f868184011261752657600080fd5b8235617539617534826174c2565b617491565b81815260059190911b8401850190858101908983111561755857600080fd5b8686015b838110156175e4578035868111156175745760008081fd5b8701603f81018c136175865760008081fd5b8881013560408882111561759c5761759c61747b565b6175ad8b601f198a85011601617491565b8281528e828486010111156175c25760008081fd5b828285018d83013760009281018c01929092525084525091870191870161755c565b509998505050505050505050565b6000806040838503121561760557600080fd5b50508035926020909101359150565b600082825180855260208086019550808260051b8401018186016000805b8581101561768a57868403601f19018a52825180518086529086019086860190845b8181101561767557835160070b835260208301938901939250600101617654565b50509a86019a94505091840191600101617632565b509198975050505050505050565b600081518084526020808501945080840160005b838110156176cb57815160070b875295820195908201906001016176ac565b509495945050505050565b8481528360208201526080604082015260006176f56080830185617614565b82810360608401526177078185617698565b979650505050505050565b600081518084526020808501808196506005915083821b810183870160005b868110156177c6578383038a5281518051808552908701908785019080881b8601890160005b828110156177b057878203601f1901845284518051808452908c01908c84019060005b8181101561779b57835160070b835260208301938f0193925060010161777a565b5050958c0195948c0194925050600101617757565b509c89019c955050509186019150600101617731565b509098975050505050505050565b600060c082018883526020888185015287604085015286606085015260c0608085015281865180845260e08601915060e08160051b870101935082880160005b82811015617860577fffffffffffffffffffffffffffffffffffffffffffffffffffffffffffffff2088870301845261784e868351617712565b95509284019290840190600101617814565b505050505082810360a08401526139b08185617698565b60006020828403121561788957600080fd5b5035919050565b634e487b7160e01b600052602160045260246000fd5b60008151808452602080850194508084016000805b848110156178fe5782518051600981106178e357634e487b7160e01b84526021600452602484fd5b895284015184890152604090970196918301916001016178bb565b50959695505050505050565b60008186825b600381101561792f578151835260209283019290910190600101617910565b50505060c0606083015261794660c0830186617337565b828103608084015280855180835260208084019250808260051b85010181890160005b8481101561799757601f19878403018652617985838351617337565b95840195925090830190600101617969565b505086810360a08801526179ab81896178a6565b9b9a5050505050505050505050565b8060070b8114610fd957600080fd5b600082601f8301126179da57600080fd5b813560206179ea617534836174c2565b82815260059290921b84018101918181019086841115617a0957600080fd5b8286015b84811015612233578035617a20816179ba565b8352918301918301617a0d565b6000617a3b617534846174c2565b8381529050602080820190600585901b840186811115617a5a57600080fd5b845b81811015617b0a57803567ffffffffffffffff80821115617a7d5760008081fd5b818801915089601f830112617a925760008081fd5b8135617aa0617534826174c2565b81815260059190911b8301860190868101908c831115617ac05760008081fd5b8785015b83811015617af857803585811115617adc5760008081fd5b617aea8f8b838a01016179c9565b845250918801918801617ac4565b50885250505093830193508201617a5c565b505050509392505050565b60008060008060808587031215617b2b57600080fd5b843567ffffffffffffffff80821115617b4357600080fd5b818701915087601f830112617b5757600080fd5b617b6688833560208501617a2d565b95506020870135915080821115617b7c57600080fd5b50617b89878288016179c9565b949794965050505060408301359260600135919050565b604081526000617bb36040830185617712565b8281036020840152614d938185617698565b60008060008060808587031215617bdb57600080fd5b84359350602085013567ffffffffffffffff811115617bf957600080fd5b617c05878288016179c9565b93505060408501359150606085013560098110617c2157600080fd5b939692955090935050565b6001600160a01b0381168114610fd957600080fd5b600060208284031215617c5357600080fd5b8135612d8981617c2c565b600080600060408486031215617c7357600080fd5b83359250602084013567ffffffffffffffff811115617c9157600080fd5b617c9d868287016173a2565b9497909650939450505050565b600181811c90821680617cbe57607f821691505b60208210810361515257634e487b7160e01b600052602260045260246000fd5b600060208284031215617cf057600080fd5b5051919050565b600060208284031215617d0957600080fd5b8151612d8981617c2c565b634e487b7160e01b600052601160045260246000fd5b81810381811115611efe57611efe617d14565b6000612d89368484617a2d565b634e487b7160e01b600052603260045260246000fd5b60006000198203617d7357617d73617d14565b5060010190565b8481526000602060808184015260008654617d9481617caa565b80608087015260a0600180841660008114617db65760018114617dd057617dfe565b60ff198516838a01528284151560051b8a01019550617dfe565b8b6000528660002060005b85811015617df65781548b8201860152908301908801617ddb565b8a0184019650505b50505050508381036040850152617e158187617698565b92505050614d93606083018460070b9052565b8481528360208201526080604082015260006176f56080830185617712565b80820180821115611efe57611efe617d14565b80820260008212600160ff1b84141615617e7657617e76617d14565b8181058314821517611efe57611efe617d14565b634e487b7160e01b600052601260045260246000fd5b600082617eaf57617eaf617e8a565b6000198314600160ff1b83141615617ec957617ec9617d14565b500590565b8082028115828204841417611efe57611efe617d14565b600082617ef457617ef4617e8a565b500490565b600082617f0857617f08617e8a565b500690565b60008083357fffffffffffffffffffffffffffffffffffffffffffffffffffffffffffffffe1843603018112617f4257600080fd5b83018035915067ffffffffffffffff821115617f5d57600080fd5b6020019150368190038213156173e757600080fd5b602081526000612d896020830184617614565b8082018281126000831280158216821582161715617fa557617fa5617d14565b505092915050565b604081526000617fc06040830185617337565b90508260208301529392505050565b805160ff81168114617fe057600080fd5b919050565b600060208284031215617ff757600080fd5b612d8982617fcf565b6000806040838503121561801357600080fd5b61801c83617fcf565b915061802a60208401617fcf565b90509250929050565b600080600060a0848603121561804857600080fd5b61805184617fcf565b92506020618060818601617fcf565b925085605f86011261807157600080fd5b6040516060810181811067ffffffffffffffff821117156180945761809461747b565b6040528060a08701888111156180a957600080fd5b604088015b818110156180c557805183529184019184016180ae565b50505080925050509250925092565b6000806000606084860312156180e957600080fd5b6180f284617fcf565b925061810060208501617fcf565b9150604084015190509250925092565b60008060006060848603121561812557600080fd5b61812e84617fcf565b9250602084015161813e816179ba565b604085015190925061814f816179ba565b809150509250925092565b600082601f83011261816b57600080fd5b6040516040810181811067ffffffffffffffff8211171561818e5761818e61747b565b80604052508060408401858111156181a557600080fd5b845b818110156181bf5780518352602092830192016181a7565b509195945050505050565b60008060008060c085870312156181e057600080fd5b6181e985617fcf565b93506181f8866020870161815a565b9250618207866060870161815a565b915061821560a08601617fcf565b905092959194509250565b600080600080600080610100878903121561823a57600080fd5b61824387617fcf565b955061825160208801617fcf565b945060408701519350618267886060890161815a565b92506182768860a0890161815a565b915061828460e08801617fcf565b90509295509295509295565b601f821115611eee57600081815260208120601f850160051c810160208610156182b75750805b601f850160051c820191505b818110156182d6578281556001016182c3565b505050505050565b815167ffffffffffffffff8111156182f8576182f861747b565b61830c816183068454617caa565b84618290565b602080601f83116001811461834157600084156183295750858301515b600019600386901b1c1916600185901b1785556182d6565b600085815260208120601f198616915b8281101561837057888601518255948401946001909101908401618351565b508582101561838e5787850151600019600388901b60f8161c191681555b5050505050600190811b0190555056fea26469706673582212203307623742e802149152723227343a0d4112dc66d9c9c91a5fbee555fb1c2ac064736f6c63430008130033",
  "linkReferences": {},
  "deployedLinkReferences": {}
}