{
  "_format": "hh-sol-artifact-1",
  "contractName": "ImageClassifier",
  "sourceName": "contracts/ImageClassifier.sol",
  "abi": [
    {
      "inputs": [
        {
          "internalType": "string",
          "name": "_modelName",
          "type": "string"
        },
        {
          "internalType": "string[]",
          "name": "_classesName",
          "type": "string[]"
        },
        {
          "internalType": "address",
          "name": "_modelRegistry",
          "type": "address"
        }
      ],
      "stateMutability": "nonpayable",
      "type": "constructor"
    },
    {
      "inputs": [],
      "name": "IncorrectInputLayerType",
      "type": "error"
    },
    {
      "inputs": [],
      "name": "IncorrectModelId",
      "type": "error"
    },
    {
      "inputs": [],
      "name": "InsufficientEvalPrice",
      "type": "error"
    },
    {
      "inputs": [],
      "name": "InvalidActivationFunction",
      "type": "error"
    },
    {
      "inputs": [],
      "name": "InvalidMatrixDimensions",
      "type": "error"
    },
    {
      "inputs": [],
      "name": "InvalidPaddingType",
      "type": "error"
    },
    {
      "inputs": [],
      "name": "NotModelRegistry",
      "type": "error"
    },
    {
      "inputs": [],
      "name": "NotTokenOwner",
      "type": "error"
    },
    {
      "inputs": [
        {
          "internalType": "uint256",
          "name": "x",
          "type": "uint256"
        },
        {
          "internalType": "uint256",
          "name": "y",
          "type": "uint256"
        },
        {
          "internalType": "uint256",
          "name": "denominator",
          "type": "uint256"
        }
      ],
      "name": "PRBMath_MulDiv_Overflow",
      "type": "error"
    },
    {
      "inputs": [],
      "name": "PRBMath_SD59x18_Div_InputTooSmall",
      "type": "error"
    },
    {
      "inputs": [
        {
          "internalType": "SD59x18",
          "name": "x",
          "type": "int256"
        },
        {
          "internalType": "SD59x18",
          "name": "y",
          "type": "int256"
        }
      ],
      "name": "PRBMath_SD59x18_Div_Overflow",
      "type": "error"
    },
    {
      "inputs": [
        {
          "internalType": "SD59x18",
          "name": "x",
          "type": "int256"
        }
      ],
      "name": "PRBMath_SD59x18_Exp2_InputTooBig",
      "type": "error"
    },
    {
      "inputs": [
        {
          "internalType": "SD59x18",
          "name": "x",
          "type": "int256"
        }
      ],
      "name": "PRBMath_SD59x18_Exp_InputTooBig",
      "type": "error"
    },
    {
      "inputs": [],
      "name": "TooMuchData",
      "type": "error"
    },
    {
      "inputs": [],
      "name": "TransferFailed",
      "type": "error"
    },
    {
      "anonymous": false,
      "inputs": [
        {
          "indexed": true,
          "internalType": "uint256",
          "name": "tokenId",
          "type": "uint256"
        },
        {
          "indexed": false,
          "internalType": "uint256",
          "name": "classIndex",
          "type": "uint256"
        },
        {
          "indexed": false,
          "internalType": "string",
          "name": "className",
          "type": "string"
        },
        {
          "indexed": false,
          "internalType": "Float32x32[]",
          "name": "outputs",
          "type": "int64[]"
        },
        {
          "indexed": false,
          "internalType": "Float32x32",
          "name": "confidence",
          "type": "int64"
        }
      ],
      "name": "Classified",
      "type": "event"
    },
    {
      "anonymous": false,
      "inputs": [
        {
          "indexed": true,
          "internalType": "address",
          "name": "owner",
          "type": "address"
        },
        {
          "indexed": true,
          "internalType": "uint256",
          "name": "tokenId",
          "type": "uint256"
        }
      ],
      "name": "Deployed",
      "type": "event"
    },
    {
      "anonymous": false,
      "inputs": [
        {
          "indexed": true,
          "internalType": "uint256",
          "name": "tokenId",
          "type": "uint256"
        },
        {
          "indexed": false,
          "internalType": "uint256",
          "name": "fromLayerIndex",
          "type": "uint256"
        },
        {
          "indexed": false,
          "internalType": "uint256",
          "name": "toLayerIndex",
          "type": "uint256"
        },
        {
          "indexed": false,
          "internalType": "Float32x32[][][]",
          "name": "outputs1",
          "type": "int64[][][]"
        },
        {
          "indexed": false,
          "internalType": "Float32x32[]",
          "name": "outputs2",
          "type": "int64[]"
        }
      ],
      "name": "Forwarded",
      "type": "event"
    },
    {
      "anonymous": false,
      "inputs": [
        {
          "indexed": true,
          "internalType": "address",
          "name": "previousOwner",
          "type": "address"
        },
        {
          "indexed": true,
          "internalType": "address",
          "name": "newOwner",
          "type": "address"
        }
      ],
      "name": "OwnershipTransferred",
      "type": "event"
    },
    {
      "inputs": [
        {
          "internalType": "uint256",
          "name": "_modelId",
          "type": "uint256"
        },
        {
          "internalType": "Float32x32[]",
          "name": "weights",
          "type": "int64[]"
        },
        {
          "internalType": "uint256",
          "name": "layerInd",
          "type": "uint256"
        },
        {
          "internalType": "enum Layers.LayerType",
          "name": "layerType",
          "type": "uint8"
        }
      ],
      "name": "appendWeights",
      "outputs": [],
      "stateMutability": "nonpayable",
      "type": "function"
    },
    {
      "inputs": [
        {
          "internalType": "uint256",
          "name": "_modelId",
          "type": "uint256"
        },
        {
          "internalType": "uint256",
          "name": "fromLayerIndex",
          "type": "uint256"
        },
        {
          "internalType": "uint256",
          "name": "toLayerIndex",
          "type": "uint256"
        },
        {
          "internalType": "Float32x32[][][]",
          "name": "x1",
          "type": "int64[][][]"
        },
        {
          "internalType": "Float32x32[]",
          "name": "x2",
          "type": "int64[]"
        }
      ],
      "name": "classify",
      "outputs": [],
      "stateMutability": "payable",
      "type": "function"
    },
    {
      "inputs": [
        {
          "internalType": "Float32x32[][][]",
          "name": "x1",
          "type": "int64[][][]"
        },
        {
          "internalType": "Float32x32[]",
          "name": "x2",
          "type": "int64[]"
        },
        {
          "internalType": "uint256",
          "name": "fromLayerIndex",
          "type": "uint256"
        },
        {
          "internalType": "uint256",
          "name": "toLayerIndex",
          "type": "uint256"
        }
      ],
      "name": "forward",
      "outputs": [
        {
          "internalType": "Float32x32[][][]",
          "name": "",
          "type": "int64[][][]"
        },
        {
          "internalType": "Float32x32[]",
          "name": "",
          "type": "int64[]"
        }
      ],
      "stateMutability": "nonpayable",
      "type": "function"
    },
    {
      "inputs": [
        {
          "internalType": "uint256",
          "name": "_modelId",
          "type": "uint256"
        },
        {
          "internalType": "uint256",
          "name": "layerIdx",
          "type": "uint256"
        }
      ],
      "name": "getConv2DLayer",
      "outputs": [
        {
          "internalType": "uint256",
          "name": "n",
          "type": "uint256"
        },
        {
          "internalType": "uint256",
          "name": "m",
          "type": "uint256"
        },
        {
          "internalType": "uint256",
          "name": "p",
          "type": "uint256"
        },
        {
          "internalType": "uint256",
          "name": "q",
          "type": "uint256"
        },
        {
          "internalType": "Float32x32[][][][]",
          "name": "w",
          "type": "int64[][][][]"
        },
        {
          "internalType": "Float32x32[]",
          "name": "b",
          "type": "int64[]"
        }
      ],
      "stateMutability": "view",
      "type": "function"
    },
    {
      "inputs": [
        {
          "internalType": "uint256",
          "name": "_modelId",
          "type": "uint256"
        },
        {
          "internalType": "uint256",
          "name": "layerIdx",
          "type": "uint256"
        }
      ],
      "name": "getDenseLayer",
      "outputs": [
        {
          "internalType": "uint256",
          "name": "dim_in",
          "type": "uint256"
        },
        {
          "internalType": "uint256",
          "name": "dim_out",
          "type": "uint256"
        },
        {
          "internalType": "Float32x32[][]",
          "name": "w",
          "type": "int64[][]"
        },
        {
          "internalType": "Float32x32[]",
          "name": "b",
          "type": "int64[]"
        }
      ],
      "stateMutability": "view",
      "type": "function"
    },
    {
      "inputs": [],
      "name": "getInfo",
      "outputs": [
        {
          "internalType": "uint256[3]",
          "name": "",
          "type": "uint256[3]"
        },
        {
          "internalType": "string",
          "name": "",
          "type": "string"
        },
        {
          "internalType": "string[]",
          "name": "",
          "type": "string[]"
        },
        {
          "components": [
            {
              "internalType": "enum Layers.LayerType",
              "name": "layerType",
              "type": "uint8"
            },
            {
              "internalType": "uint256",
              "name": "layerIndex",
              "type": "uint256"
            }
          ],
          "internalType": "struct IOnchainModel.Info[]",
          "name": "",
          "type": "tuple[]"
        }
      ],
      "stateMutability": "view",
      "type": "function"
    },
    {
      "inputs": [],
      "name": "model",
      "outputs": [
        {
          "internalType": "string",
          "name": "modelName",
          "type": "string"
        },
        {
          "internalType": "uint256",
          "name": "requiredWeights",
          "type": "uint256"
        },
        {
          "internalType": "uint256",
          "name": "appendedWeights",
          "type": "uint256"
        }
      ],
      "stateMutability": "view",
      "type": "function"
    },
    {
      "inputs": [],
      "name": "modelId",
      "outputs": [
        {
          "internalType": "uint256",
          "name": "",
          "type": "uint256"
        }
      ],
      "stateMutability": "view",
      "type": "function"
    },
    {
      "inputs": [],
      "name": "modelRegistry",
      "outputs": [
        {
          "internalType": "contract IModelRegPublic",
          "name": "",
          "type": "address"
        }
      ],
      "stateMutability": "view",
      "type": "function"
    },
    {
      "inputs": [],
      "name": "owner",
      "outputs": [
        {
          "internalType": "address",
          "name": "",
          "type": "address"
        }
      ],
      "stateMutability": "view",
      "type": "function"
    },
    {
      "inputs": [],
      "name": "renounceOwnership",
      "outputs": [],
      "stateMutability": "nonpayable",
      "type": "function"
    },
    {
      "inputs": [
        {
          "internalType": "uint256",
          "name": "_modelId",
          "type": "uint256"
        }
      ],
      "name": "setModelId",
      "outputs": [],
      "stateMutability": "nonpayable",
      "type": "function"
    },
    {
      "inputs": [
        {
          "internalType": "uint256",
          "name": "_modelId",
          "type": "uint256"
        },
        {
          "internalType": "bytes[]",
          "name": "layers_config",
          "type": "bytes[]"
        }
      ],
      "name": "setOnchainModel",
      "outputs": [],
      "stateMutability": "nonpayable",
      "type": "function"
    },
    {
      "inputs": [
        {
          "internalType": "address",
          "name": "newOwner",
          "type": "address"
        }
      ],
      "name": "transferOwnership",
      "outputs": [],
      "stateMutability": "nonpayable",
      "type": "function"
    }
  ],
  "bytecode": "0x60806040523480156200001157600080fd5b50604051620082d4380380620082d48339810160408190526200003491620002ab565b6200003f3362000091565b60016200004d848262000443565b50815162000063906002906020850190620000e1565b50600c80546001600160a01b0319166001600160a01b039290921691909117905550506001600e556200050f565b600080546001600160a01b038381166001600160a01b0319831681178455604051919092169283917f8be0079c531659141344cd1fd0a4f28419497f9722a3daafe3b4186f6b6457e09190a35050565b8280548282559060005260206000209081019282156200012c579160200282015b828111156200012c57825182906200011b908262000443565b509160200191906001019062000102565b506200013a9291506200013e565b5090565b808211156200013a5760006200015582826200015f565b506001016200013e565b5080546200016d90620003b4565b6000825580601f106200017e575050565b601f0160209004906000526020600020908101906200019e9190620001a1565b50565b5b808211156200013a5760008155600101620001a2565b634e487b7160e01b600052604160045260246000fd5b604051601f8201601f191681016001600160401b0381118282101715620001f957620001f9620001b8565b604052919050565b600082601f8301126200021357600080fd5b81516001600160401b038111156200022f576200022f620001b8565b602062000245601f8301601f19168201620001ce565b82815285828487010111156200025a57600080fd5b60005b838110156200027a5785810183015182820184015282016200025d565b506000928101909101919091529392505050565b80516001600160a01b0381168114620002a657600080fd5b919050565b600080600060608486031215620002c157600080fd5b83516001600160401b0380821115620002d957600080fd5b620002e78783880162000201565b9450602091508186015181811115620002ff57600080fd5b8601601f810188136200031157600080fd5b805182811115620003265762000326620001b8565b8060051b62000337858201620001ce565b918252828101850191858101908b8411156200035257600080fd5b86850192505b838310156200039357825186811115620003725760008081fd5b620003828d898389010162000201565b835250918601919086019062000358565b80985050505050505050620003ab604085016200028e565b90509250925092565b600181811c90821680620003c957607f821691505b602082108103620003ea57634e487b7160e01b600052602260045260246000fd5b50919050565b601f8211156200043e57600081815260208120601f850160051c81016020861015620004195750805b601f850160051c820191505b818110156200043a5782815560010162000425565b5050505b505050565b81516001600160401b038111156200045f576200045f620001b8565b6200047781620004708454620003b4565b84620003f0565b602080601f831160018114620004af5760008415620004965750858301515b600019600386901b1c1916600185901b1785556200043a565b600085815260208120601f198616915b82811015620004e057888601518255948401946001909101908401620004bf565b5085821015620004ff5787850151600019600388901b60f8161c191681555b5050505050600190811b01905550565b617db5806200051f6000396000f3fe6080604052600436106100dd5760003560e01c80635a9b0b891161007f5780638da5cb5b116100595780638da5cb5b1461026a578063d22e883414610288578063f2fde38b146102a8578063fd8e5e30146102c857600080fd5b80635a9b0b89146102025780636fc9b1dc14610227578063715018a61461025557600080fd5b80632ba36f78116100bb5780632ba36f78146101545780633c9965381461018c57806343cdaad2146101be5780634d1c23c0146101e257600080fd5b80630ad9d052146100e25780630e9814471461010f57806318c26a1814610124575b600080fd5b3480156100ee57600080fd5b506100f76102e8565b60405161010693929190616fd9565b60405180910390f35b61012261011d36600461704a565b610386565b005b34801561013057600080fd5b5061014461013f3660046170d7565b610741565b604051610106949392919061718f565b34801561016057600080fd5b50600c54610174906001600160a01b031681565b6040516001600160a01b039091168152602001610106565b34801561019857600080fd5b506101ac6101a73660046170d7565b610980565b60405161010696959493929190617263565b3480156101ca57600080fd5b506101d4600d5481565b604051908152602001610106565b3480156101ee57600080fd5b506101226101fd366004617306565b610cda565b34801561020e57600080fd5b50610217610ebb565b6040516101069493929190617399565b34801561023357600080fd5b50610247610242366004617614565b611128565b60405161010692919061769f565b34801561026157600080fd5b50610122611981565b34801561027657600080fd5b506000546001600160a01b0316610174565b34801561029457600080fd5b506101226102a33660046176c4565b611995565b3480156102b457600080fd5b506101226102c3366004617740565b611c06565b3480156102d457600080fd5b506101226102e336600461775d565b611cb2565b6001805481906102f7906177a9565b80601f0160208091040260200160405190810160405280929190818152602001828054610323906177a9565b80156103705780601f1061034557610100808354040283529160200191610370565b820191906000526020600020905b81548152906001019060200180831161035357829003601f168201915b5050505050908060020154908060030154905083565b600d546000036103c2576040517f4510f92400000000000000000000000000000000000000000000000000000000815260040160405180910390fd5b600c60009054906101000a90046001600160a01b03166001600160a01b03166382a332406040518163ffffffff1660e01b8152600401602060405180830381865afa158015610415573d6000803e3d6000fd5b505050506040513d601f19601f8201168201806040525081019061043991906177dd565b341015610472576040517f7d9f8acc00000000000000000000000000000000000000000000000000000000815260040160405180910390fd5b600c54604080517f9fbc871300000000000000000000000000000000000000000000000000000000815290516000926001600160a01b031691639fbc87139160048083019260209291908290030181865afa1580156104d5573d6000803e3d6000fd5b505050506040513d601f19601f820116820180604052508101906104f991906177f6565b6001600160a01b03163460405160006040518083038185875af1925050503d8060008114610543576040519150601f19603f3d011682016040523d82523d6000602084013e610548565b606091505b5050905080610583576040517f90b8ec1800000000000000000000000000000000000000000000000000000000815260040160405180910390fd5b600554861061059e5760055461059b90600190617829565b95505b6000806105eb6105ae878961783c565b8686808060200260200160405190810160405280939291908181526020018383602002808284376000920191909152508e92508d91506111289050565b60055491935091506105ff90600190617829565b88036106f457600060015b82518110156106765761065b83838151811061062857610628617849565b602002602001015184838151811061064257610642617849565b602002602001015160070b611e0490919063ffffffff16565b15610664578091505b8061066e8161785f565b91505061060a565b50600d547fb2a15636062bb2fc64e5cd888be42bd2170f7381953c89088a24208bf5f61955826001800184815481106106b1576106b1617849565b90600052602060002001858686815181106106ce576106ce617849565b60200260200101516040516106e69493929190617879565b60405180910390a250610735565b600d547f6ea9413fc6b5413ea13a72b81ee1e572e32118c3ad82e0cb8e6fc7e3c711985a8a8a858560405161072c9493929190617949565b60405180910390a25b50505050505050505050565b60008060608060006001600801868154811061075f5761075f617849565b90600052602060002090600a02016040518060e0016040529081600082015481526020016001820160009054906101000a900460ff1660048111156107a6576107a661731f565b60048111156107b7576107b761731f565b8152602001600282015481526020016003820160405180606001604052908160008201805480602002602001604051908101604052809291908181526020016000905b828210156108895760008481526020908190208301805460408051828502810185019091528181529283018282801561087557602002820191906000526020600020906000905b825461010083900a900460070b81526020600f83018190049384019360010360089093019290920291018084116108415790505b5050505050815260200190600101906107fa565b505050508152602001600182015481526020016002820154815250508152602001600682016040518060400160405290816000820180548060200260200160405190810160405280929190818152602001828054801561092b57602002820191906000526020600020906000905b825461010083900a900460070b81526020600f83018190049384019360010360089093019290920291018084116108f75790505b50505091835250506001919091015460209182015290825260088301548282015260099092015460409182015260608301519182015190820151915160809093015151909a9199509197509095509350505050565b60008060008060608060006001600a0188815481106109a1576109a1617849565b90600052602060002090600f020160405180610120016040529081600082015481526020016001820160009054906101000a900460ff1660048111156109e9576109e961731f565b60048111156109fa576109fa61731f565b8152600282810154602083015260408051808201808352919093019291600385019182845b815481526020019060010190808311610a1f575050509183525050600582015460209091019060ff166001811115610a5957610a5961731f565b6001811115610a6a57610a6a61731f565b8152602001600682016040518060a001604052908160008201805480602002602001604051908101604052809291908181526020016000905b82821015610bc057838290600052602060002001805480602002602001604051908101604052809291908181526020016000905b82821015610bad57838290600052602060002001805480602002602001604051908101604052809291908181526020016000905b82821015610b9a57600084815260209081902083018054604080518285028101850190915281815292830182828015610b8657602002820191906000526020600020906000905b825461010083900a900460070b81526020600f8301819004938401936001036008909301929092029101808411610b525790505b505050505081526020019060010190610b0b565b5050505081526020019060010190610ad7565b5050505081526020019060010190610aa3565b5050505081526020016001820154815260200160028201548152602001600382015481526020016004820154815250508152602001600b820160405180604001604052908160008201805480602002602001604051908101604052809291908181526020018280548015610c7657602002820191906000526020600020906000905b825461010083900a900460070b81526020600f8301819004938401936001036008909301929092029101808411610c425790505b505050918352505060019190910154602091820152908252600d83015482820152600e9092015460409182015260a0830151918201519082015160608301516080840151935160c09095015151929e919d509b509199509197509095509350505050565b600c546001600160a01b03163314610d1e576040517f4099888a00000000000000000000000000000000000000000000000000000000815260040160405180910390fd5b6000600d541180610dbc5750600c546040517fa9def49d0000000000000000000000000000000000000000000000000000000081526004810183905230916001600160a01b03169063a9def49d90602401602060405180830381865afa158015610d8c573d6000803e3d6000fd5b505050506040513d601f19601f82011682018060405250810190610db091906177f6565b6001600160a01b031614155b15610df3576040517f4510f92400000000000000000000000000000000000000000000000000000000815260040160405180910390fd5b600d819055600354600454148015610e0d57506000600d54115b15610eb857600d54600c546040516331a9108f60e11b8152600481018390526001600160a01b0390911690636352211e90602401602060405180830381865afa158015610e5e573d6000803e3d6000fd5b505050506040513d601f19601f82011682018060405250810190610e8291906177f6565b6001600160a01b03167fb03c53b28e78a88e31607a27e1fa48234dce28d5d9d9ec7b295aeb02e674a1e160405160405180910390a35b50565b610ec3616857565b60608060606001600501600081548110610edf57610edf617849565b60009182526020909120604080516060810191829052600160049094029092018301929160029160059190859060039082845b815481526020019060010190808311610f125750505050509350828054610f38906177a9565b80601f0160208091040260200160405190810160405280929190818152602001828054610f64906177a9565b8015610fb15780601f10610f8657610100808354040283529160200191610fb1565b820191906000526020600020905b815481529060010190602001808311610f9457829003601f168201915b5050505050925081805480602002602001604051908101604052809291908181526020016000905b82821015611085578382906000526020600020018054610ff8906177a9565b80601f0160208091040260200160405190810160405280929190818152602001828054611024906177a9565b80156110715780601f1061104657610100808354040283529160200191611071565b820191906000526020600020905b81548152906001019060200180831161105457829003601f168201915b505050505081526020019060010190610fd9565b50505050915080805480602002602001604051908101604052809291908181526020016000905b828210156111145760008481526020902060408051808201909152600284029091018054829060ff1660088111156110e6576110e661731f565b60088111156110f7576110f761731f565b8152602001600182015481525050815260200190600101906110ac565b505050509050935093509350935090919293565b606080835b8381116119705760006001600401828154811061114c5761114c617849565b60009182526020909120604080518082019091526002909202018054829060ff16600881111561117e5761117e61731f565b600881111561118f5761118f61731f565b81526001919091015460209091015290506003815160088111156111b5576111b561731f565b0361122c576112258860016006018360200151815481106111d8576111d8617849565b60009182526020918290206040805160608101825260029093029091018054835260010154600781810b9484019490945268010000000000000000900490920b9181019190915290611e15565b9750611911565b6002815160088111156112415761124161731f565b036112895761128288600160070183602001518154811061126457611264617849565b600091825260209182902060408051938401905201548152906120d3565b9650611911565b60018151600881111561129e5761129e61731f565b036114c6576112828760016008018360200151815481106112c1576112c1617849565b90600052602060002090600a02016040518060e0016040529081600082015481526020016001820160009054906101000a900460ff1660048111156113085761130861731f565b60048111156113195761131961731f565b8152602001600282015481526020016003820160405180606001604052908160008201805480602002602001604051908101604052809291908181526020016000905b828210156113eb576000848152602090819020830180546040805182850281018501909152818152928301828280156113d757602002820191906000526020600020906000905b825461010083900a900460070b81526020600f83018190049384019360010360089093019290920291018084116113a35790505b50505050508152602001906001019061135c565b505050508152602001600182015481526020016002820154815250508152602001600682016040518060400160405290816000820180548060200260200160405190810160405280929190818152602001828054801561148d57602002820191906000526020600020906000905b825461010083900a900460070b81526020600f83018190049384019360010360089093019290920291018084116114595790505b505050505081526020016001820154815250508152602001600882015481526020016009820154815250506120f790919063ffffffff16565b6004815160088111156114db576114db61731f565b036115c8576112258860016009018360200151815481106114fe576114fe617849565b600091825260209182902060408051608081018252600690930290910180548352815180830190925291928301906001830160028282826020028201915b81548152602001906001019080831161153c575050509183525050604080518082019182905260209092019190600384019060029082845b815481526020019060010190808311611574575050509183525050600582015460209091019060ff1660018111156115ae576115ae61731f565b60018111156115bf576115bf61731f565b90525090612255565b6005815160088111156115dd576115dd61731f565b036119115761190e886001600a0183602001518154811061160057611600617849565b90600052602060002090600f020160405180610120016040529081600082015481526020016001820160009054906101000a900460ff1660048111156116485761164861731f565b60048111156116595761165961731f565b8152600282810154602083015260408051808201808352919093019291600385019182845b81548152602001906001019080831161167e575050509183525050600582015460209091019060ff1660018111156116b8576116b861731f565b60018111156116c9576116c961731f565b8152602001600682016040518060a001604052908160008201805480602002602001604051908101604052809291908181526020016000905b8282101561181f57838290600052602060002001805480602002602001604051908101604052809291908181526020016000905b8282101561180c57838290600052602060002001805480602002602001604051908101604052809291908181526020016000905b828210156117f9576000848152602090819020830180546040805182850281018501909152818152928301828280156117e557602002820191906000526020600020906000905b825461010083900a900460070b81526020600f83018190049384019360010360089093019290920291018084116117b15790505b50505050508152602001906001019061176a565b5050505081526020019060010190611736565b5050505081526020019060010190611702565b5050505081526020016001820154815260200160028201548152602001600382015481526020016004820154815250508152602001600b8201604051806040016040529081600082018054806020026020016040519081016040528092919081815260200182805480156118d557602002820191906000526020600020906000905b825461010083900a900460070b81526020600f83018190049384019360010360089093019290920291018084116118a15790505b505050505081526020016001820154815250508152602001600d8201548152602001600e8201548152505061229390919063ffffffff16565b97505b60055461192090600190617829565b820361195d5760408051808201909152606081526000602082018181528951905288825261194d82612307565b518a965094506119789350505050565b50806119688161785f565b91505061112d565b508585915091505b94509492505050565b61198961257c565b61199360006125f0565b565b6000546001600160a01b031633148015906119b257506000600d54115b8015611a455750600c54600d546040516331a9108f60e11b81526001600160a01b0390921691636352211e916119ee9160040190815260200190565b602060405180830381865afa158015611a0b573d6000803e3d6000fd5b505050506040513d601f19601f82011682018060405250810190611a2f91906177f6565b6001600160a01b0316336001600160a01b031614155b15611a7c576040517f59dc379f00000000000000000000000000000000000000000000000000000000815260040160405180910390fd5b60006001826008811115611a9257611a9261731f565b03611ad457611acd8460016008018581548110611ab157611ab1617849565b90600052602060002090600a020161265890919063ffffffff16565b9050611b26565b6005826008811115611ae857611ae861731f565b03611b2657611b23846001600a018581548110611b0757611b07617849565b90600052602060002090600f020161286b90919063ffffffff16565b90505b8060016003016000828254611b3b9190617968565b9091555050600354600454148015611b535750600085115b15611bff57600c54600d546040516331a9108f60e11b8152600481019190915286916001600160a01b031690636352211e90602401602060405180830381865afa158015611ba5573d6000803e3d6000fd5b505050506040513d601f19601f82011682018060405250810190611bc991906177f6565b6001600160a01b03167fb03c53b28e78a88e31607a27e1fa48234dce28d5d9d9ec7b295aeb02e674a1e160405160405180910390a35b5050505050565b611c0e61257c565b6001600160a01b038116611ca9576040517f08c379a000000000000000000000000000000000000000000000000000000000815260206004820152602660248201527f4f776e61626c653a206e6577206f776e657220697320746865207a65726f206160448201527f646472657373000000000000000000000000000000000000000000000000000060648201526084015b60405180910390fd5b610eb8816125f0565b6000546001600160a01b03163314801590611ccf57506000600d54115b8015611d625750600c54600d546040516331a9108f60e11b81526001600160a01b0390921691636352211e91611d0b9160040190815260200190565b602060405180830381865afa158015611d28573d6000803e3d6000fd5b505050506040513d601f19601f82011682018060405250810190611d4c91906177f6565b6001600160a01b0316336001600160a01b031614155b15611d99576040517f59dc379f00000000000000000000000000000000000000000000000000000000815260040160405180910390fd5b60055415611df557611dad60066000616875565b611db960096000616896565b611dc5600860006168b7565b611dd1600760006168d5565b611ddd600b60006168f6565b611de9600a6000616917565b611df560056000616938565b611dff8282612b23565b505050565b600781810b9083900b135b92915050565b80516060906000838183611e2b57611e2b617849565b6020026020010151519050600084600081518110611e4b57611e4b617849565b6020026020010151600081518110611e6557611e65617849565b602002602001015151905060008367ffffffffffffffff811115611e8b57611e8b617449565b604051908082528060200260200182016040528015611ebe57816020015b6060815260200190600190039081611ea95790505b50905060005b848110156120c8578367ffffffffffffffff811115611ee557611ee5617449565b604051908082528060200260200182016040528015611f1857816020015b6060815260200190600190039081611f035790505b50828281518110611f2b57611f2b617849565b602002602001018190525060005b848110156120b5578367ffffffffffffffff811115611f5a57611f5a617449565b604051908082528060200260200182016040528015611f83578160200160208202803683370190505b50838381518110611f9657611f96617849565b60200260200101518281518110611faf57611faf617849565b602002602001018190525060005b848110156120a25761203761202d8b602001518b8681518110611fe257611fe2617849565b60200260200101518581518110611ffb57611ffb617849565b6020026020010151848151811061201457612014617849565b602002602001015160070b612bca90919063ffffffff16565b8b60400151612bdd565b84848151811061204957612049617849565b6020026020010151838151811061206257612062617849565b6020026020010151828151811061207b5761207b617849565b602002602001019060070b908160070b81525050808061209a9061785f565b915050611fbd565b50806120ad8161785f565b915050611f39565b50806120c08161785f565b915050611ec4565b509695505050505050565b606060006120e083612be9565b90506120ef8160000151612c84565b949350505050565b60408051808201825260608082526000602083019081528451905283825284810151608086015193810151919390916001148015612139575060208101516001145b1561221257600061214d8360200151612e20565b905060005b83602001518110156121d157835180518290811061217257612172617849565b602002602001015160008151811061218c5761218c617849565b6020026020010151826000015182815181106121aa576121aa617849565b602002602001019060070b908160070b8152505080806121c99061785f565b915050612152565b5060006121e8836121e28785612e7f565b90612f9f565b90506000612203896020015183612fc190919063ffffffff16565b519650611e0f95505050505050565b600061221e84846130c8565b9050600061222c8284612f9f565b90506000612247896020015183612fc190919063ffffffff16565b519998505050505050505050565b6060600061226283612be9565b905060006122898560400151866020015187606001518561325c909392919063ffffffff16565b5195945050505050565b606060006122a083612be9565b905060008460a00151905060008560c00151905060006122df826122d9858a606001518b60800151896133ca909392919063ffffffff16565b9061354f565b905060006122fa88602001518361358790919063ffffffff16565b5198975050505050505050565b604080518082019091526060815260006020820152602082015160008167ffffffffffffffff81111561233c5761233c617449565b604051908082528060200260200182016040528015612365578160200160208202803683370190505b50905060005b828110156123e0576123b160208660000151838151811061238e5761238e617849565b602002602001015160070b670de0b6b3a76400006123ac919061797b565b901d90565b8282815181106123c3576123c3617849565b6020908102919091010152806123d88161785f565b91505061236b565b5060005b8281101561243d5761240e82828151811061240157612401617849565b602002602001015161366e565b82828151811061242057612420617849565b6020908102919091010152806124358161785f565b9150506123e4565b506000805b838110156124815761246d8284838151811061246057612460617849565b60200260200101516136dc565b9150806124798161785f565b915050612442565b5060005b838110156124e8576124b9828483815181106124a3576124a3617849565b60200260200101516136eb90919063ffffffff16565b8382815181106124cb576124cb617849565b6020908102919091010152806124e08161785f565b915050612485565b5060006124f484612e20565b905060005b8481101561257257670de0b6b3a7640000602061252c86848151811061252157612521617849565b602002602001015190565b61253792911b6179c1565b825180518390811061254b5761254b617849565b602002602001019060070b908160070b81525050808061256a9061785f565b9150506124f9565b5095945050505050565b6000546001600160a01b03163314611993576040517f08c379a000000000000000000000000000000000000000000000000000000000815260206004820181905260248201527f4f776e61626c653a2063616c6c6572206973206e6f7420746865206f776e65726044820152606401611ca0565b600080546001600160a01b038381167fffffffffffffffffffffffff0000000000000000000000000000000000000000831681178455604051919092169283917f8be0079c531659141344cd1fd0a4f28419497f9722a3daafe3b4186f6b6457e09190a35050565b60088201546009830154600091908282810361275c57600586015460048701546000906126869083906179ef565b90505b86518310801561269857508084105b1561274257600388016126ab8386617a06565b815481106126bb576126bb617849565b906000526020600020018784815181106126d7576126d7617849565b60209081029190910181015182546001810184556000938452919092206004820401805460039092166008026101000a67ffffffffffffffff8181021990931692909316929092021790558361272c8161785f565b945050828061273a9061785f565b935050612689565b808403612759576127528561785f565b9450600093505b50505b8260010361281b5760078601545b85518210801561277957508083105b15612802578660060160000186838151811061279757612797617849565b60209081029190910181015182546001810184556000938452919092206004820401805460039092166008026101000a67ffffffffffffffff818102199093169290931692909202179055826127ec8161785f565b93505081806127fa9061785f565b92505061276a565b808303612819576128128461785f565b9350600092505b505b8451811015612856576040517f15eb29ee00000000000000000000000000000000000000000000000000000000815260040160405180910390fd5b60088601929092556009850155905092915050565b600d820154600e8301546000919082828103612a145760088601546009870154600a8801546007890154600090829084906128a79087906179ef565b6128b191906179ef565b6128bb91906179ef565b90505b8851851080156128cd57508086105b156129f85760068a01826128e185876179ef565b6128eb91906179ef565b6128f59088617a06565b8154811061290557612905617849565b9060005260206000200184838561291c91906179ef565b6129269089617a06565b6129309190617a1a565b8154811061294057612940617849565b906000526020600020018383886129579190617a06565b6129619190617a1a565b8154811061297157612971617849565b9060005260206000200189868151811061298d5761298d617849565b60209081029190910181015182546001810184556000938452919092206004820401805460039092166008026101000a67ffffffffffffffff818102199093169290931692909202179055856129e28161785f565b96505084806129f09061785f565b9550506128be565b808603612a0f57612a088761785f565b9650600095505b505050505b82600103612ad357600c8601545b855182108015612a3157508083105b15612aba5786600b01600001868381518110612a4f57612a4f617849565b60209081029190910181015182546001810184556000938452919092206004820401805460039092166008026101000a67ffffffffffffffff81810219909316929093169290920217905582612aa48161785f565b9350508180612ab29061785f565b925050612a22565b808303612ad157612aca8461785f565b9350600092505b505b8451811015612b0e576040517f15eb29ee00000000000000000000000000000000000000000000000000000000815260040160405180910390fd5b600d860192909255600e850155905092915050565b6000600381905560048190556060905b82811015612bc457612bb06040518060400160405280868685818110612b5b57612b5b617849565b9050602002810190612b6d9190617a2e565b8080601f0160208091040260200160405190810160405280939291908181526020018383808284376000920191909152505050908252506020018390528361380a565b915080612bbc8161785f565b915050612b33565b50505050565b6000612bd683836141bf565b9392505050565b6000612bd68383614208565b612c146040518060800160405280606081526020016000815260200160008152602001600081525090565b8151602082015281518290600090612c2e57612c2e617849565b60200260200101515181604001818152505081600081518110612c5357612c53617849565b6020026020010151600081518110612c6d57612c6d617849565b602090810291909101015151606082015290815290565b80516060906000838183612c9a57612c9a617849565b6020026020010151519050600084600081518110612cba57612cba617849565b6020026020010151600081518110612cd457612cd4617849565b60200260200101515190506000818385612cee91906179ef565b612cf891906179ef565b67ffffffffffffffff811115612d1057612d10617449565b604051908082528060200260200182016040528015612d39578160200160208202803683370190505b5090506000805b85811015612e145760005b85811015612e015760005b85811015612dee57898381518110612d7057612d70617849565b60200260200101518281518110612d8957612d89617849565b60200260200101518181518110612da257612da2617849565b6020026020010151858581518110612dbc57612dbc617849565b60079290920b60209283029190910190910152612dda600185617968565b935080612de68161785f565b915050612d56565b5080612df98161785f565b915050612d4b565b5080612e0c8161785f565b915050612d40565b50909695505050505050565b6040805180820190915260608152602081018290528167ffffffffffffffff811115612e4e57612e4e617449565b604051908082528060200260200182016040528015612e77578160200160208202803683370190505b508152919050565b6040805180820190915260608152600060208201528160200151836020015114612ed5576040517f95c2ffed00000000000000000000000000000000000000000000000000000000815260040160405180910390fd5b6000612ee16001612e20565b905060005b8460200151811015612f9757612f5d8260000151600081518110612f0c57612f0c617849565b6020026020010151612f5887600001518481518110612f2d57612f2d617849565b602002602001015187600001518581518110612f4b57612f4b617849565b6020026020010151612bca565b612bdd565b82518051600090612f7057612f70617849565b602002602001019060070b908160070b815250508080612f8f9061785f565b915050612ee6565b509392505050565b604080518082019091526060815260006020820152612bd68383614245614251565b6040805180820190915260608152600060208201526000826004811115612fea57612fea61731f565b0361300257612ffb8361431261434c565b9050611e0f565b60018260048111156130165761301661731f565b0361302757612ffb8361366b61434c565b600282600481111561303b5761303b61731f565b0361304c57612ffb836143e661434c565b60038260048111156130605761306061731f565b0361307157612ffb836143f961434c565b60048260048111156130855761308561731f565b0361309657612ffb8361447e61434c565b6040517fa342a23e00000000000000000000000000000000000000000000000000000000815260040160405180910390fd5b60408051808201909152606081526000602082015260006130ec8360400151612e20565b905060005b83604001518110156131cb5760005b84602001518110156131b85761317d8360000151838151811061312557613125617849565b6020026020010151612f588860000151848151811061314657613146617849565b60200260200101518860000151858151811061316457613164617849565b60200260200101518681518110612f4b57612f4b617849565b835180518490811061319157613191617849565b602002602001019060070b908160070b8152505080806131b09061785f565b915050613100565b50806131c38161785f565b9150506130f1565b50604080516001808252818301909252600091816020015b60608152602001906001900390816131e357905050905081600001518160008151811061321257613212617849565b60200260200101819052507f179491a5c16eb1ad3858df42ccd7321ca6ffc7d003c0355ae0c5f9c2cc9c02478160405161324c9190617a93565b60405180910390a1509392505050565b6132876040518060800160405280606081526020016000815260200160008152602001600081525090565b6000806132b260405180604001604052808960200151815260200189604001518152508787876144d4565b8151602083015160608b01519395509193506000926132d19290614765565b905060005b83518110156133be5760005b60208501518110156133b557600060405180604001604052808660006002811061330e5761330e617849565b602090810291909101518c518702038252878101518c820151860203910152905060005b8b606001518110156133ab5761334a8c838d84614917565b855180518690811061335e5761335e617849565b6020026020010151848151811061337757613377617849565b6020026020010151828151811061339057613390617849565b60079290920b60209283029190910190910152600101613332565b50506001016132e2565b506001016132d6565b50979650505050505050565b6133f56040518060800160405280606081526020016000815260200160008152602001600081525090565b60408051808201825260208087015182528683015181830152825180840184528882015181529288015190830152906000908190613435908488886144d4565b8151602083015160808b01519395509193506000926134549290614765565b905060005b83518110156135425760005b602085015181101561353957600060405180604001604052808660006002811061349157613491617849565b602090810291909101518d518702038252878101518d820151860203910152905060005b8b6080015181101561352f576134ce8d8d848b85614a11565b85518051869081106134e2576134e2617849565b602002602001015184815181106134fb576134fb617849565b6020026020010151828151811061351457613514617849565b60079290920b602092830291909101909101526001016134b5565b5050600101613465565b50600101613459565b5098975050505050505050565b61357a6040518060800160405280606081526020016000815260200160008152602001600081525090565b612bd68383614245614b55565b6135b26040518060800160405280606081526020016000815260200160008152602001600081525090565b60008260048111156135c6576135c661731f565b036135d757612ffb83614312614cd5565b60018260048111156135eb576135eb61731f565b036135fc57612ffb8361366b614cd5565b60028260048111156136105761361061731f565b0361362157612ffb836143e6614cd5565b60038260048111156136355761363561731f565b0361364657612ffb836143f9614cd5565b600482600481111561365a5761365a61731f565b0361309657612ffb8361447e614cd5565b90565b600081680736ea4425c11ac6308113156136b7576040517fca7ec0c500000000000000000000000000000000000000000000000000000000815260048101849052602401611ca0565b6714057b7ef767814f81026120ef6136d7670de0b6b3a7640000835b0590565b614e37565b6000612bd661366b8385617aa6565b60008282600160ff1b8214806137045750600160ff1b81145b1561373b576040517f9fe2b45000000000000000000000000000000000000000000000000000000000815260040160405180910390fd5b6000806000841261374c5783613751565b836000035b9150600083126137615782613766565b826000035b9050600061377d83670de0b6b3a764000084614f11565b90507f7fffffffffffffffffffffffffffffffffffffffffffffffffffffffffffffff8111156137e3576040517fd49c26b30000000000000000000000000000000000000000000000000000000081526004810189905260248101889052604401611ca0565b600019858518136137fd816137f9578260000390565b8290565b9998505050505050505050565b6060600083600001518060200190518101906138269190617ae4565b905060ff811661398f576000846000015180602001905181019061384a9190617aff565b91505060ff811615613888576040517f4fa6915d00000000000000000000000000000000000000000000000000000000815260040160405180910390fd5b60008061389487614ffe565b6006805460018101825560009190915282517ff652222313e28459528d920b65115c16c04f3efc82aaedc97be59f3f377c0d3f60049092029182019081556020840151939550919350849261390d917ff652222313e28459528d920b65115c16c04f3efc82aaedc97be59f3f377c0d4001906003616959565b5050604080518082019091526000815260065460059250602082019061393590600190617829565b9052815460018181018455600093845260209093208251600290920201805492939092839160ff19909116908360088111156139735761397361731f565b02179055506020820151816001015550508095505050506141b7565b60001960ff821601613b575760008060006139aa87876150d8565b60098054600181810183556000929092528451600a9091027f6e1540171b6c0c960b71a7020d9f60077f6af931a8bbf590da0223dacf75c7af810191825560208601517f6e1540171b6c0c960b71a7020d9f60077f6af931a8bbf590da0223dacf75c7b09091018054969950949750929550879490939160ff1990911690836004811115613a3a57613a3a61731f565b0217905550604082015160028201556060820151805180516003840191613a6691839160200190616993565b50602082810151600183015560409092015160029091015560808301518051805191926006850192613a9b92849201906169ec565b5060208201518160010155505060a0820151816008015560c0820151816009015550508060016002016000828254613ad39190617968565b9091555050604080518082019091526001808252600954600592916020830191613afd9190617829565b9052815460018181018455600093845260209093208251600290920201805492939092839160ff1990911690836008811115613b3b57613b3b61731f565b02179055506020820151816001015550508195505050506141b7565b7ffffffffffffffffffffffffffffffffffffffffffffffffffffffffffffffffe60ff821601613c4a57600080613b8e8686615214565b6008805460018101825560009190915282517ff3f7a9fe364faab93b216da50a3214154f22a0a2b415b23a84c8169e8b636ee3909101556040805180820190915291935091506005908060028152600854602090910190613bf190600190617829565b9052815460018181018455600093845260209093208251600290920201805492939092839160ff1990911690836008811115613c2f57613c2f61731f565b021790555060208201518160010155505080945050506141b7565b7ffffffffffffffffffffffffffffffffffffffffffffffffffffffffffffffffd60ff821601613dce576000613c7f856152dc565b60078054600181810183556000838152845160029093027fa66cc928b5edb82af9bd49922954155ab7b0942694bea4ce44661d9a8736c68881019390935560208501517fa66cc928b5edb82af9bd49922954155ab7b0942694bea4ce44661d9a8736c6899093018054604087015167ffffffffffffffff90811668010000000000000000027fffffffffffffffffffffffffffffffff0000000000000000000000000000000090921695169490941793909317909255915492935091613d459190617829565b6040805180820190915260038152602081018290526005805460018082018355600092909252825160029091027f036b6384b5eca791c62761152d0c79bb0604c104a5fb6f4eb0703f3154bb3db001805494955092939091839160ff191690836008811115613db657613db661731f565b021790555060208201518160010155505050506141b7565b7ffffffffffffffffffffffffffffffffffffffffffffffffffffffffffffffffc60ff821601613f5f57600080613e058686615341565b600a805460018101825560009190915282517fc65a7bb8d6351c1cf70c95a316cc6a92839c986682d98bc35f958f4883f9d2a8600690920291820190815560208401519395509193508492613e7e917fc65a7bb8d6351c1cf70c95a316cc6a92839c986682d98bc35f958f4883f9d2a901906002616aa5565b506040820151613e949060038301906002616aa5565b50606082015160058201805460ff191660018381811115613eb757613eb761731f565b021790555050600a54919550859160009150613ed590600190617829565b6040805180820190915260048152602081018290526005805460018082018355600092909252825160029091027f036b6384b5eca791c62761152d0c79bb0604c104a5fb6f4eb0703f3154bb3db001805494955092939091839160ff191690836008811115613f4657613f4661731f565b02179055506020820151816001015550505050506141b7565b7ffffffffffffffffffffffffffffffffffffffffffffffffffffffffffffffffb60ff8216016141b7576000806000613f9887876154db565b600b8054600181810183556000929092528451600f9091027f0175b7a638427703f0dbe7bb9bbf987a2551717b34e79f33b5b1008d1fa01db9810191825560208601517f0175b7a638427703f0dbe7bb9bbf987a2551717b34e79f33b5b1008d1fa01dba9091018054969950949750929550879490939160ff19909116908360048111156140285761402861731f565b02179055506040820151816002015560608201518160030190600261404e929190616aa5565b50608082015160058201805460ff1916600183818111156140715761407161731f565b021790555060a082015180518051600684019161409391839160200190616ad2565b506020828101516001830155604083015160028301556060830151600383015560809092015160049091015560c0830151805180519192600b8501926140dc92849201906169ec565b5060208201518160010155505060e082015181600d015561010082015181600e0155505080600160020160008282546141159190617968565b9091555050600b54919550859160009061413190600190617829565b60408051808201909152600580825260208201839052805460018082018355600092909252825160029091027f036b6384b5eca791c62761152d0c79bb0604c104a5fb6f4eb0703f3154bb3db001805494955092939091839160ff1916908360088111156141a1576141a161731f565b0217905550602082015181600101555050505050505b509092915050565b60008060208360070b8560070b02600f0b901d9050677fffffffffffffff19600f0b81600f0b121580156141ff5750677fffffffffffffff600f82900b13155b612bd657600080fd5b6000600783810b9083900b01677fffffffffffffff19600f82900b128015906141ff5750677fffffffffffffff600f82900b1315612bd657600080fd5b6000612bd68383612bdd565b60408051808201909152606081526000602082015260006142758560200151612e20565b905060005b8160200151811015614309576142ce8660000151828151811061429f5761429f617849565b6020026020010151866000015183815181106142bd576142bd617849565b60200260200101518663ffffffff16565b82518051839081106142e2576142e2617849565b602002602001019060070b908160070b8152505080806143019061785f565b91505061427a565b50949350505050565b6000808260070b1361434857614343640a0000000061433a600785900b640200000000612bca565b60070b90615735565b611e0f565b5090565b60408051808201909152606081526000602082015260006143708460200151612e20565b905060005b8160200151811015612f97576143ab8560000151828151811061439a5761439a617849565b60200260200101518563ffffffff16565b82518051839081106143bf576143bf617849565b602002602001019060070b908160070b8152505080806143de9061785f565b915050614375565b6000808260070b13614348576000611e0f565b60007fffffffffffffffffffffffffffffffffffffffffffffffffffffffeb000000008260070b12156144525761444f7fffffffffffffffffffffffffffffffffffffffffffffffffffffffffffffffeb615741565b91505b611e0f614472640100000000612f5861446a86615787565b60070b615792565b64010000000090615735565b6000640a000000008260070b131561449d5761449a600a615741565b91505b60006144b161446a64020000000085612bca565b9050612bd66144c582640100000000612bdd565b61433a8364010000000061579d565b6144dc616b2b565b6144e4616b2b565b60005b600281101561475b5760018460018111156145045761450461731f565b036146805784816002811061451b5761451b617849565b6020020151600186836002811061453457614534617849565b602002015189846002811061454b5761454b617849565b602002015161455a9190617968565b6145649190617829565b61456e9190617a06565b83826002811061458057614580617849565b6020020152600085826002811061459957614599617849565b60200201518883600281106145b0576145b0617849565b60200201516145bf9190617a1a565b156146205761461b8783600281106145d9576145d9617849565b60200201518784600281106145f0576145f0617849565b60200201518a856002811061460757614607617849565b60200201516146169190617a1a565b6157a9565b614656565b61465687836002811061463557614635617849565b602002015187846002811061464c5761464c617849565b60200201516157a9565b9050614663600282617a06565b83836002811061467557614675617849565b60200201525061474b565b60008460018111156146945761469461731f565b03614719578481600281106146ab576146ab617849565b60200201518682600281106146c2576146c2617849565b60200201518883600281106146d9576146d9617849565b60200201516146e89190617829565b6146f29190617a06565b6146fd906001617968565b83826002811061470f5761470f617849565b602002015261474b565b6040517f20a554a900000000000000000000000000000000000000000000000000000000815260040160405180910390fd5b6147548161785f565b90506144e7565b5094509492505050565b6147906040518060800160405280606081526020016000815260200160008152602001600081525090565b6020810184905260408101839052606081018290528367ffffffffffffffff8111156147be576147be617449565b6040519080825280602002602001820160405280156147f157816020015b60608152602001906001900390816147dc5790505b50815260005b84811015612f97578367ffffffffffffffff81111561481857614818617449565b60405190808252806020026020018201604052801561484b57816020015b60608152602001906001900390816148365790505b50825180518390811061486057614860617849565b602002602001018190525060005b84811015614904578367ffffffffffffffff81111561488f5761488f617449565b6040519080825280602002602001820160405280156148b8578160200160208202803683370190505b5083518051849081106148cd576148cd617849565b602002602001015182815181106148e6576148e6617849565b602002602001018190525080806148fc9061785f565b91505061486e565b508061490f8161785f565b9150506147f7565b6000806149437fffffffffffffffffffffffffffffffffffffffffffffffffffffffffc4653600615741565b905060005b84518110156125725760005b6020860151811015614a08578651602080890151908a0151918401919083019060009083108015614983575060015b801561499257508a6040015182105b61499d5760006149ec565b8a518051849081106149b1576149b1617849565b602002602001015182815181106149ca576149ca617849565b602002602001015188815181106149e3576149e3617849565b60200260200101515b90506149f886826157c3565b9550505050806001019050614954565b50600101614948565b600080805b8451811015614b485760005b6020860151811015614b3f578651602080890151908b0151918401919083019082108015614a4e575060015b8015614a5d57508a6040015181105b15614b355760005b8b60600151811015614b3357614b2986612f588e600001518681518110614a8e57614a8e617849565b60200260200101518581518110614aa757614aa7617849565b60200260200101518481518110614ac057614ac0617849565b60200260200101518e600001518981518110614ade57614ade617849565b60200260200101518881518110614af757614af7617849565b60200260200101518581518110614b1057614b10617849565b60200260200101518c81518110612f4b57612f4b617849565b9550600101614a65565b505b5050600101614a22565b50600101614a16565b5090505b95945050505050565b614b806040518060800160405280606081526020016000815260200160008152602001600081525090565b6000614b99856020015186604001518760600151614765565b905060005b81602001518110156143095760005b8260400151811015614cc25760005b8360600151811015614caf57614c4288600001518481518110614be157614be1617849565b60200260200101518381518110614bfa57614bfa617849565b60200260200101518281518110614c1357614c13617849565b602002602001015188600001518381518110614c3157614c31617849565b60200260200101518863ffffffff16565b8451805185908110614c5657614c56617849565b60200260200101518381518110614c6f57614c6f617849565b60200260200101518281518110614c8857614c88617849565b602002602001019060070b908160070b815250508080614ca79061785f565b915050614bbc565b5080614cba8161785f565b915050614bad565b5080614ccd8161785f565b915050614b9e565b614d006040518060800160405280606081526020016000815260200160008152602001600081525090565b6000614d19846020015185604001518660600151614765565b905060005b8160200151811015612f975760005b8260400151811015614e245760005b8360600151811015614e1157614da487600001518481518110614d6157614d61617849565b60200260200101518381518110614d7a57614d7a617849565b60200260200101518281518110614d9357614d93617849565b60200260200101518763ffffffff16565b8451805185908110614db857614db8617849565b60200260200101518381518110614dd157614dd1617849565b60200260200101518281518110614dea57614dea617849565b602002602001019060070b908160070b815250508080614e099061785f565b915050614d3c565b5080614e1c8161785f565b915050614d2d565b5080614e2f8161785f565b915050614d1e565b60008181811215614eaa577ffffffffffffffffffffffffffffffffffffffffffffffffcc22e87f6eb468eeb811215614e735750600092915050565b614ea3614e8661366b6136d78460000390565b6ec097ce7bc90715b34b9f1000000000816136d3576136d36179ab565b9150614f0b565b680a688906bd8affffff811315614ef0576040517f0360d02800000000000000000000000000000000000000000000000000000000815260048101849052602401611ca0565b670de0b6b3a7640000604082901b056120ef61366b826157cb565b50919050565b6000808060001985870985870292508281108382030391505080600003614f4b57838281614f4157614f416179ab565b0492505050612bd6565b838110614f95576040517f63a05778000000000000000000000000000000000000000000000000000000008152600481018790526024810186905260448101859052606401611ca0565b60008486880960026001871981018816978890046003810283188082028403028082028403028082028403028082028403028082028403029081029092039091026000889003889004909101858311909403939093029303949094049190911702949350505050565b615006616b49565b6060615010616857565b83600001518060200190518101906150289190617b32565b6040805180820182526020888101518252808201849052825160038082526080820190945291975092945092509082016060803683375050825182519294509184915060009061507a5761507a617849565b60209081029190910101528060016020020151826001815181106150a0576150a0617849565b60209081029190910101528060026020020151826002815181106150c6576150c6617849565b60200260200101818152505050915091565b6150e0616b68565b6060600080600086600001518060200190518101906150ff9190617bc3565b92509250506040518060e00160405280886020015181526020018360ff16600481111561512e5761512e61731f565b600481111561513f5761513f61731f565b815260200182815260200161516e8860008151811061516057615160617849565b602002602001015184615f3f565b8152602001615190836040805180820190915260608152602081019190915290565b81526000602082018190526040918201528051600180825281830190925291965081602001602082028036833701905050935080846000815181106151d7576151d7617849565b6020026020010181815250506151f285608001516020015190565b6151ff8660600151615fc6565b6152099190617968565b925050509250925092565b604080516020808201835260009091528151808201835284820151815282516001808252818501909452909260609282810190803683370190505090508260028151811061526457615264617849565b60200260200101518360018151811061527f5761527f617849565b60200260200101518460008151811061529a5761529a617849565b60200260200101516152ac91906179ef565b6152b691906179ef565b816000815181106152c9576152c9617849565b6020026020010181815250509250929050565b604080516060810182526000808252602082018190529181019190915260008083600001518060200190518101906153149190617bff565b604080516060810182526020988901518152600793840b98810198909852910b9086015250929392505050565b615349616be3565b6060600080600086600001518060200190518101906153689190617cb9565b935093509350506040518060800160405280886020015181526020018481526020018381526020018260ff1660018111156153a5576153a561731f565b60018111156153b6576153b661731f565b905294506153c2616b2b565b61542a6040518060400160405280896000815181106153e3576153e3617849565b602002602001015181526020018960018151811061540357615403617849565b602002602001015181525085858560ff1660018111156154255761542561731f565b6144d4565b5060408051600380825260808201909252919250602082016060803683375050825182519297509187915060009061546457615464617849565b602090810291909101015280600160200201518560018151811061548a5761548a617849565b602002602001018181525050866002815181106154a9576154a9617849565b6020026020010151856002815181106154c4576154c4617849565b602002602001018181525050505050509250929050565b6154e3616c16565b606060008060008060008089600001518060200190518101906155069190617d0f565b95509550955095509550506040518061012001604052808b6020015181526020018660ff16600481111561553c5761553c61731f565b600481111561554d5761554d61731f565b81526020018581526020018381526020018260ff1660018111156155735761557361731f565b60018111156155845761558461731f565b81526020016155bd856000602002015186600160200201518d6002815181106155af576155af617849565b602002602001015189615fdc565b81526020016155df866040805180820190915260608152602081019190915290565b815260200160008152602001600081525097506155fa616b2b565b61563b60405180604001604052808c60008151811061561b5761561b617849565b602002602001015181526020018c60018151811061540357615403617849565b506040805160038082526080820190925291925060208201606080368337505082518251929a50918a915060009061567557615675617849565b602090810291909101015280600160200201518860018151811061569b5761569b617849565b60200260200101818152505084886002815181106156bb576156bb617849565b60200260200101818152505084858b6002815181106156dc576156dc617849565b6020026020010151866001600281106156f7576156f7617849565b6020020151875161570891906179ef565b61571291906179ef565b61571c91906179ef565b6157269190617968565b96505050505050509250925092565b6000612bd683836161a6565b60007fffffffffffffffffffffffffffffffffffffffffffffffffffffffff8000000082121580156157775750637fffffff8213155b61578057600080fd5b5060201b90565b6000611e0f82616208565b6000611e0f82616229565b6000612bd68383616276565b60008183116157b9576000612bd6565b612bd68284617829565b600081612bd6565b7780000000000000000000000000000000000000000000000067ff000000000000008216156158ec576780000000000000008216156158135768016a09e667f3bcc9090260401c5b674000000000000000821615615832576801306fe0a31b7152df0260401c5b672000000000000000821615615851576801172b83c7d517adce0260401c5b6710000000000000008216156158705768010b5586cf9890f62a0260401c5b67080000000000000082161561588f576801059b0d31585743ae0260401c5b6704000000000000008216156158ae57680102c9a3e778060ee70260401c5b6702000000000000008216156158cd5768010163da9fb33356d80260401c5b6701000000000000008216156158ec57680100b1afa5abcbed610260401c5b66ff0000000000008216156159eb5766800000000000008216156159195768010058c86da1c09ea20260401c5b6640000000000000821615615937576801002c605e2e8cec500260401c5b662000000000000082161561595557680100162f3904051fa10260401c5b6610000000000000821615615973576801000b175effdc76ba0260401c5b660800000000000082161561599157680100058ba01fb9f96d0260401c5b66040000000000008216156159af5768010002c5cc37da94920260401c5b66020000000000008216156159cd576801000162e525ee05470260401c5b66010000000000008216156159eb5768010000b17255775c040260401c5b65ff0000000000821615615ae15765800000000000821615615a16576801000058b91b5bc9ae0260401c5b65400000000000821615615a3357680100002c5c89d5ec6d0260401c5b65200000000000821615615a505768010000162e43f4f8310260401c5b65100000000000821615615a6d57680100000b1721bcfc9a0260401c5b65080000000000821615615a8a5768010000058b90cf1e6e0260401c5b65040000000000821615615aa7576801000002c5c863b73f0260401c5b65020000000000821615615ac457680100000162e430e5a20260401c5b65010000000000821615615ae1576801000000b1721835510260401c5b64ff00000000821615615bce57648000000000821615615b0a57680100000058b90c0b490260401c5b644000000000821615615b265768010000002c5c8601cc0260401c5b642000000000821615615b42576801000000162e42fff00260401c5b641000000000821615615b5e5768010000000b17217fbb0260401c5b640800000000821615615b7a576801000000058b90bfce0260401c5b640400000000821615615b9657680100000002c5c85fe30260401c5b640200000000821615615bb25768010000000162e42ff10260401c5b640100000000821615615bce57680100000000b17217f80260401c5b63ff000000821615615cb2576380000000821615615bf55768010000000058b90bfc0260401c5b6340000000821615615c10576801000000002c5c85fe0260401c5b6320000000821615615c2b57680100000000162e42ff0260401c5b6310000000821615615c46576801000000000b17217f0260401c5b6308000000821615615c6157680100000000058b90c00260401c5b6304000000821615615c7c5768010000000002c5c8600260401c5b6302000000821615615c97576801000000000162e4300260401c5b6301000000821615615cb25768010000000000b172180260401c5b62ff0000821615615d8d5762800000821615615cd7576801000000000058b90c0260401c5b62400000821615615cf157680100000000002c5c860260401c5b62200000821615615d0b5768010000000000162e430260401c5b62100000821615615d2557680100000000000b17210260401c5b62080000821615615d3f5768010000000000058b910260401c5b62040000821615615d59576801000000000002c5c80260401c5b62020000821615615d7357680100000000000162e40260401c5b62010000821615615d8d576801000000000000b1720260401c5b61ff00821615615e5f57618000821615615db057680100000000000058b90260401c5b614000821615615dc95768010000000000002c5d0260401c5b612000821615615de2576801000000000000162e0260401c5b611000821615615dfb5768010000000000000b170260401c5b610800821615615e14576801000000000000058c0260401c5b610400821615615e2d57680100000000000002c60260401c5b610200821615615e4657680100000000000001630260401c5b610100821615615e5f57680100000000000000b10260401c5b60ff821615615f28576080821615615e8057680100000000000000590260401c5b6040821615615e98576801000000000000002c0260401c5b6020821615615eb057680100000000000000160260401c5b6010821615615ec8576801000000000000000b0260401c5b6008821615615ee057680100000000000000060260401c5b6004821615615ef857680100000000000000030260401c5b6002821615615f1057680100000000000000010260401c5b6001821615615f2857680100000000000000010260401c5b670de0b6b3a76400000260409190911c60bf031c90565b615f6360405180606001604052806060815260200160008152602001600081525090565b60208101839052604081018290528267ffffffffffffffff811115615f8a57615f8a617449565b604051908082528060200260200182016040528015615fbd57816020015b6060815260200190600190039081615fa85790505b50815292915050565b600081604001518260200151611e0f91906179ef565b61600e6040518060a0016040528060608152602001600081526020016000815260200160008152602001600081525090565b602081018590526040810184905260608101839052608081018290528467ffffffffffffffff81111561604357616043617449565b60405190808252806020026020018201604052801561607657816020015b60608152602001906001900390816160615790505b50815260005b85811015614309578467ffffffffffffffff81111561609d5761609d617449565b6040519080825280602002602001820160405280156160d057816020015b60608152602001906001900390816160bb5790505b5082518051839081106160e5576160e5617849565b602002602001018190525060005b85811015616193578467ffffffffffffffff81111561611457616114617449565b60405190808252806020026020018201604052801561614757816020015b60608152602001906001900390816161325790505b50835180518490811061615c5761615c617849565b6020026020010151828151811061617557616175617849565b6020026020010181905250808061618b9061785f565b9150506160f3565b508061619e8161785f565b91505061607c565b60008160070b6000036161b857600080fd5b6000600783900b602085901b600b0b816161d4576161d46179ab565b059050677fffffffffffffff19600f82900b128015906141ff5750677fffffffffffffff600f82900b1315612bd657600080fd5b6000678000000000000000600783900b0161622257600080fd5b5060000390565b60006420000000008260070b1261623f57600080fd5b641fffffffff198260070b121561625857506000919050565b611e0f60408360070b680171547652b82fe17702600f0b901d6162b3565b6000600782810b9084900b03677fffffffffffffff19600f82900b128015906141ff5750677fffffffffffffff600f82900b1315612bd657600080fd5b60006420000000008260070b126162c957600080fd5b641fffffffff198260070b12156162e257506000919050565b67800000000000000060006380000000841660070b13156163165768016a09e667f3bcc9080260401c67ffffffffffffffff165b60008363400000001660070b1315616341576801306fe0a31b7152de0260401c67ffffffffffffffff165b60008363200000001660070b131561636c576801172b83c7d517adcd0260401c67ffffffffffffffff165b60008363100000001660070b13156163975768010b5586cf9890f6290260401c67ffffffffffffffff165b60008363080000001660070b13156163c2576801059b0d31585743ae0260401c67ffffffffffffffff165b60008363040000001660070b13156163ed57680102c9a3e778060ee60260401c67ffffffffffffffff165b60008363020000001660070b13156164185768010163da9fb33356d80260401c67ffffffffffffffff165b60008363010000001660070b131561644357680100b1afa5abcbed610260401c67ffffffffffffffff165b600083628000001660070b131561646d5768010058c86da1c09ea10260401c67ffffffffffffffff165b600083624000001660070b1315616497576801002c605e2e8cec500260401c67ffffffffffffffff165b600083622000001660070b13156164c157680100162f3904051fa10260401c67ffffffffffffffff165b600083621000001660070b13156164eb576801000b175effdc76ba0260401c67ffffffffffffffff165b600083620800001660070b131561651557680100058ba01fb9f96d0260401c67ffffffffffffffff165b600083620400001660070b131561653f5768010002c5cc37da94910260401c67ffffffffffffffff165b600083620200001660070b1315616569576801000162e525ee05470260401c67ffffffffffffffff165b600083620100001660070b13156165935768010000b17255775c040260401c67ffffffffffffffff165b6000836180001660070b13156165bc576801000058b91b5bc9ae0260401c67ffffffffffffffff165b6000836140001660070b13156165e557680100002c5c89d5ec6c0260401c67ffffffffffffffff165b6000836120001660070b131561660e5768010000162e43f4f8310260401c67ffffffffffffffff165b6000836110001660070b131561663757680100000b1721bcfc990260401c67ffffffffffffffff165b6000836108001660070b13156166605768010000058b90cf1e6d0260401c67ffffffffffffffff165b6000836104001660070b1315616689576801000002c5c863b73f0260401c67ffffffffffffffff165b6000836102001660070b13156166b257680100000162e430e5a10260401c67ffffffffffffffff165b6000836101001660070b13156166db576801000000b1721835510260401c67ffffffffffffffff165b60008360801660070b131561670357680100000058b90c0b480260401c67ffffffffffffffff165b60008360401660070b131561672b5768010000002c5c8601cc0260401c67ffffffffffffffff165b60008360201660070b1315616753576801000000162e42fff00260401c67ffffffffffffffff165b60008360101660070b131561677b5768010000000b17217fba0260401c67ffffffffffffffff165b60008360081660070b13156167a3576801000000058b90bfcd0260401c67ffffffffffffffff165b60008360041660070b13156167cb57680100000002c5c85fe30260401c67ffffffffffffffff165b60008360021660070b13156167f35768010000000162e42ff00260401c67ffffffffffffffff165b60008360011660070b131561681b57680100000000b17217f80260401c67ffffffffffffffff165b6fffffffffffffffffffffffffffffffff908116600784810b60201d601f03900b82161c90677fffffffffffffff9082161115611e0f57600080fd5b60405180606001604052806003906020820280368337509192915050565b5080546000825560040290600052602060002090810190610eb89190616c7e565b50805460008255600a0290600052602060002090810190610eb89190616ca6565b5080546000825590600052602060002090810190610eb89190616d19565b5080546000825560020290600052602060002090810190610eb89190616d2e565b50805460008255600f0290600052602060002090810190610eb89190616d6d565b5080546000825560060290600052602060002090810190610eb89190616e09565b5080546000825560020290600052602060002090810190610eb89190616e44565b8260038101928215616987579160200282015b8281111561698757825182559160200191906001019061696c565b50614348929150616d19565b8280548282559060005260206000209081019282156169e0579160200282015b828111156169e057825180516169d09184916020909101906169ec565b50916020019190600101906169b3565b50614348929150616e64565b828054828255906000526020600020906003016004900481019282156169875791602002820160005b83821115616a6457835183826101000a81548167ffffffffffffffff021916908360070b67ffffffffffffffff1602179055509260200192600801602081600701049283019260010302616a15565b8015616a985782816101000a81549067ffffffffffffffff0219169055600801602081600701049283019260010302616a64565b5050614348929150616d19565b8260028101928215616987579160200282018281111561698757825182559160200191906001019061696c565b828054828255906000526020600020908101928215616b1f579160200282015b82811115616b1f5782518051616b0f918491602090910190616e81565b5091602001919060010190616af2565b50614348929150616eda565b60405180604001604052806002906020820280368337509192915050565b604051806040016040528060008152602001616b63616857565b905290565b6040805160e0810190915260008082526020820190815260200160008152602001616bad60405180606001604052806060815260200160008152602001600081525090565b8152602001616bcf604051806040016040528060608152602001600081525090565b815260200160008152602001600081525090565b604051806080016040528060008152602001616bfd616b2b565b8152602001616c0a616b2b565b81526020016000905290565b60408051610120810190915260008082526020820190815260200160008152602001616c40616b2b565b815260200160008152602001616bad6040518060a0016040528060608152602001600081526020016000815260200160008152602001600081525090565b8082111561434857600080825560018201819055600282018190556003820155600401616c7e565b8082111561434857600080825560018201805460ff19169055600282018190556003820181616cd58282616ef7565b5060006001820181905560029091018190556006830190616cf68282616f15565b600182016000905550506008820160009055600982016000905550600a01616ca6565b5b808211156143485760008155600101616d1a565b5b8082111561434857600081556001810180547fffffffffffffffffffffffffffffffff00000000000000000000000000000000169055600201616d2f565b8082111561434857600080825560018201805460ff1916905560028201819055600382018190556004820181905560058201805460ff19169055600682016000616db78282616f3a565b5060006001820181905560028201819055600382018190556004909101819055600b830190616de68282616f15565b60018201600090555050600d820160009055600e82016000905550600f01616d6d565b80821115614348576000808255600182018190556002820181905560038201819055600482015560058101805460ff19169055600601616e09565b5b8082111561434857805460ff1916815560006001820155600201616e45565b80821115614348576000616e788282616f15565b50600101616e64565b828054828255906000526020600020908101928215616ece579160200282015b82811115616ece5782518051616ebe918491602090910190616993565b5091602001919060010190616ea1565b50614348929150616f58565b80821115614348576000616eee8282616f75565b50600101616eda565b5080546000825590600052602060002090810190610eb89190616e64565b508054600082556003016004900490600052602060002090810190610eb89190616d19565b5080546000825590600052602060002090810190610eb89190616eda565b80821115614348576000616f6c8282616ef7565b50600101616f58565b5080546000825590600052602060002090810190610eb89190616f58565b6000815180845260005b81811015616fb957602081850181015186830182015201616f9d565b506000602082860101526020601f19601f83011685010191505092915050565b606081526000616fec6060830186616f93565b60208301949094525060400152919050565b60008083601f84011261701057600080fd5b50813567ffffffffffffffff81111561702857600080fd5b6020830191508360208260051b850101111561704357600080fd5b9250929050565b600080600080600080600060a0888a03121561706557600080fd5b873596506020880135955060408801359450606088013567ffffffffffffffff8082111561709257600080fd5b61709e8b838c01616ffe565b909650945060808a01359150808211156170b757600080fd5b506170c48a828b01616ffe565b989b979a50959850939692959293505050565b600080604083850312156170ea57600080fd5b50508035926020909101359150565b600081518084526020808501945080840160005b8381101561712c57815160070b8752958201959082019060010161710d565b509495945050505050565b600082825180855260208086019550808260051b84010181860160005b8481101561718257601f198684030189526171708383516170f9565b98840198925090830190600101617154565b5090979650505050505050565b8481528360208201526080604082015260006171ae6080830185617137565b82810360608401526171c081856170f9565b979650505050505050565b600081518084526020808501808196506005915083821b81018387016000805b87811015617254578484038b5282518051808652908801908886019080891b87018a01855b8281101561723e57601f1989830301845261722c8286516170f9565b948c0194938c01939150600101617210565b509d8a019d9650505092870192506001016171eb565b50919998505050505050505050565b600060c082018883526020888185015287604085015286606085015260c0608085015281865180845260e08601915060e08160051b870101935082880160005b828110156172ef577fffffffffffffffffffffffffffffffffffffffffffffffffffffffffffffff208887030184526172dd8683516171cb565b955092840192908401906001016172a3565b505050505082810360a08401526137fd81856170f9565b60006020828403121561731857600080fd5b5035919050565b634e487b7160e01b600052602160045260246000fd5b60008151808452602080850194508084016000805b8481101561738d57825180516009811061737257634e487b7160e01b84526021600452602484fd5b8952840151848901526040909701969183019160010161734a565b50959695505050505050565b60008186825b60038110156173be57815183526020928301929091019060010161739f565b50505060c060608301526173d560c0830186616f93565b828103608084015280855180835260208084019250808260051b85010181890160005b8481101561742657601f19878403018652617414838351616f93565b958401959250908301906001016173f8565b505086810360a088015261743a8189617335565b9b9a5050505050505050505050565b634e487b7160e01b600052604160045260246000fd5b604051601f8201601f1916810167ffffffffffffffff8111828210171561748857617488617449565b604052919050565b600067ffffffffffffffff8211156174aa576174aa617449565b5060051b60200190565b8060070b8114610eb857600080fd5b600082601f8301126174d457600080fd5b813560206174e96174e483617490565b61745f565b82815260059290921b8401810191818101908684111561750857600080fd5b8286015b848110156120c857803561751f816174b4565b835291830191830161750c565b600061753a6174e484617490565b8381529050602080820190600585901b84018681111561755957600080fd5b845b8181101561760957803567ffffffffffffffff8082111561757c5760008081fd5b818801915089601f8301126175915760008081fd5b813561759f6174e482617490565b81815260059190911b8301860190868101908c8311156175bf5760008081fd5b8785015b838110156175f7578035858111156175db5760008081fd5b6175e98f8b838a01016174c3565b8452509188019188016175c3565b5088525050509383019350820161755b565b505050509392505050565b6000806000806080858703121561762a57600080fd5b843567ffffffffffffffff8082111561764257600080fd5b818701915087601f83011261765657600080fd5b6176658883356020850161752c565b9550602087013591508082111561767b57600080fd5b50617688878288016174c3565b949794965050505060408301359260600135919050565b6040815260006176b260408301856171cb565b8281036020840152614b4c81856170f9565b600080600080608085870312156176da57600080fd5b84359350602085013567ffffffffffffffff8111156176f857600080fd5b617704878288016174c3565b9350506040850135915060608501356009811061772057600080fd5b939692955090935050565b6001600160a01b0381168114610eb857600080fd5b60006020828403121561775257600080fd5b8135612bd68161772b565b60008060006040848603121561777257600080fd5b83359250602084013567ffffffffffffffff81111561779057600080fd5b61779c86828701616ffe565b9497909650939450505050565b600181811c908216806177bd57607f821691505b602082108103614f0b57634e487b7160e01b600052602260045260246000fd5b6000602082840312156177ef57600080fd5b5051919050565b60006020828403121561780857600080fd5b8151612bd68161772b565b634e487b7160e01b600052601160045260246000fd5b81810381811115611e0f57611e0f617813565b6000612bd636848461752c565b634e487b7160e01b600052603260045260246000fd5b6000600019820361787257617872617813565b5060010190565b848152600060206080818401526000865481600182811c9150808316806178a157607f831692505b85831081036178be57634e487b7160e01b85526022600452602485fd5b6080880183905260a088018180156178dd57600181146178f35761791e565b60ff198616825284151560051b8201965061791e565b60008d81526020902060005b86811015617918578154848201529085019089016178ff565b83019750505b505050505050838103604085015261793681876170f9565b92505050614b4c606083018460070b9052565b8481528360208201526080604082015260006171ae60808301856171cb565b80820180821115611e0f57611e0f617813565b80820260008212600160ff1b8414161561799757617997617813565b8181058314821517611e0f57611e0f617813565b634e487b7160e01b600052601260045260246000fd5b6000826179d0576179d06179ab565b6000198314600160ff1b831416156179ea576179ea617813565b500590565b8082028115828204841417611e0f57611e0f617813565b600082617a1557617a156179ab565b500490565b600082617a2957617a296179ab565b500690565b60008083357fffffffffffffffffffffffffffffffffffffffffffffffffffffffffffffffe1843603018112617a6357600080fd5b83018035915067ffffffffffffffff821115617a7e57600080fd5b60200191503681900382131561704357600080fd5b602081526000612bd66020830184617137565b8082018281126000831280158216821582161715617ac657617ac6617813565b505092915050565b805160ff81168114617adf57600080fd5b919050565b600060208284031215617af657600080fd5b612bd682617ace565b60008060408385031215617b1257600080fd5b617b1b83617ace565b9150617b2960208401617ace565b90509250929050565b60008060808385031215617b4557600080fd5b617b4e83617ace565b9150602084603f850112617b6157600080fd5b6040516060810181811067ffffffffffffffff82111715617b8457617b84617449565b604052806080860187811115617b9957600080fd5b8387015b81811015617bb45780518352918401918401617b9d565b50505080925050509250929050565b600080600060608486031215617bd857600080fd5b617be184617ace565b9250617bef60208501617ace565b9150604084015190509250925092565b600080600060608486031215617c1457600080fd5b617c1d84617ace565b92506020840151617c2d816174b4565b6040850151909250617c3e816174b4565b809150509250925092565b600082601f830112617c5a57600080fd5b6040516040810181811067ffffffffffffffff82111715617c7d57617c7d617449565b8060405250806040840185811115617c9457600080fd5b845b81811015617cae578051835260209283019201617c96565b509195945050505050565b60008060008060c08587031215617ccf57600080fd5b617cd885617ace565b9350617ce78660208701617c49565b9250617cf68660608701617c49565b9150617d0460a08601617ace565b905092959194509250565b6000806000806000806101008789031215617d2957600080fd5b617d3287617ace565b9550617d4060208801617ace565b945060408701519350617d568860608901617c49565b9250617d658860a08901617c49565b9150617d7360e08801617ace565b9050929550929550929556fea2646970667358221220c007394af13c64159d1aeec1a4e9805b3c36df9f4853372bdc9b0d034c85d39464736f6c63430008130033",
  "linkReferences": {},
  "deployedLinkReferences": {}
}