{
  "_format": "hh-sol-artifact-1",
  "contractName": "ImageClassifier",
  "sourceName": "contracts/ImageClassifier.sol",
  "abi": [
    {
      "inputs": [
        {
          "internalType": "string",
          "name": "_modelName",
          "type": "string"
        },
        {
          "internalType": "address",
          "name": "_modelRegistry",
          "type": "address"
        }
      ],
      "stateMutability": "nonpayable",
      "type": "constructor"
    },
    {
      "inputs": [],
      "name": "IncorrectInputLayerType",
      "type": "error"
    },
    {
      "inputs": [],
      "name": "IncorrectModelId",
      "type": "error"
    },
    {
      "inputs": [],
      "name": "InsufficientEvalPrice",
      "type": "error"
    },
    {
      "inputs": [],
      "name": "InvalidActivationFunction",
      "type": "error"
    },
    {
      "inputs": [],
      "name": "InvalidMatrixDimensions",
      "type": "error"
    },
    {
      "inputs": [],
      "name": "InvalidPaddingType",
      "type": "error"
    },
    {
      "inputs": [],
      "name": "NotModelRegistry",
      "type": "error"
    },
    {
      "inputs": [],
      "name": "NotTokenOwner",
      "type": "error"
    },
    {
      "inputs": [
        {
          "internalType": "uint256",
          "name": "x",
          "type": "uint256"
        },
        {
          "internalType": "uint256",
          "name": "y",
          "type": "uint256"
        },
        {
          "internalType": "uint256",
          "name": "denominator",
          "type": "uint256"
        }
      ],
      "name": "PRBMath_MulDiv_Overflow",
      "type": "error"
    },
    {
      "inputs": [],
      "name": "PRBMath_SD59x18_Div_InputTooSmall",
      "type": "error"
    },
    {
      "inputs": [
        {
          "internalType": "SD59x18",
          "name": "x",
          "type": "int256"
        },
        {
          "internalType": "SD59x18",
          "name": "y",
          "type": "int256"
        }
      ],
      "name": "PRBMath_SD59x18_Div_Overflow",
      "type": "error"
    },
    {
      "inputs": [
        {
          "internalType": "SD59x18",
          "name": "x",
          "type": "int256"
        }
      ],
      "name": "PRBMath_SD59x18_Exp2_InputTooBig",
      "type": "error"
    },
    {
      "inputs": [
        {
          "internalType": "SD59x18",
          "name": "x",
          "type": "int256"
        }
      ],
      "name": "PRBMath_SD59x18_Exp_InputTooBig",
      "type": "error"
    },
    {
      "inputs": [],
      "name": "TooMuchData",
      "type": "error"
    },
    {
      "inputs": [],
      "name": "TransferFailed",
      "type": "error"
    },
    {
      "anonymous": false,
      "inputs": [
        {
          "indexed": true,
          "internalType": "uint256",
          "name": "tokenId",
          "type": "uint256"
        },
        {
          "indexed": false,
          "internalType": "uint256",
          "name": "classIndex",
          "type": "uint256"
        },
        {
          "indexed": false,
          "internalType": "string",
          "name": "className",
          "type": "string"
        },
        {
          "indexed": false,
          "internalType": "Float32x32[]",
          "name": "outputs",
          "type": "int64[]"
        },
        {
          "indexed": false,
          "internalType": "Float32x32",
          "name": "confidence",
          "type": "int64"
        }
      ],
      "name": "Classified",
      "type": "event"
    },
    {
      "anonymous": false,
      "inputs": [
        {
          "indexed": true,
          "internalType": "address",
          "name": "owner",
          "type": "address"
        },
        {
          "indexed": true,
          "internalType": "uint256",
          "name": "tokenId",
          "type": "uint256"
        }
      ],
      "name": "Deployed",
      "type": "event"
    },
    {
      "anonymous": false,
      "inputs": [
        {
          "indexed": true,
          "internalType": "uint256",
          "name": "tokenId",
          "type": "uint256"
        },
        {
          "indexed": false,
          "internalType": "uint256",
          "name": "fromLayerIndex",
          "type": "uint256"
        },
        {
          "indexed": false,
          "internalType": "uint256",
          "name": "toLayerIndex",
          "type": "uint256"
        },
        {
          "indexed": false,
          "internalType": "Float32x32[][][]",
          "name": "outputs1",
          "type": "int64[][][]"
        },
        {
          "indexed": false,
          "internalType": "Float32x32[]",
          "name": "outputs2",
          "type": "int64[]"
        }
      ],
      "name": "Forwarded",
      "type": "event"
    },
    {
      "anonymous": false,
      "inputs": [
        {
          "indexed": true,
          "internalType": "address",
          "name": "previousOwner",
          "type": "address"
        },
        {
          "indexed": true,
          "internalType": "address",
          "name": "newOwner",
          "type": "address"
        }
      ],
      "name": "OwnershipTransferred",
      "type": "event"
    },
    {
      "inputs": [
        {
          "internalType": "uint256",
          "name": "_modelId",
          "type": "uint256"
        },
        {
          "internalType": "Float32x32[]",
          "name": "weights",
          "type": "int64[]"
        },
        {
          "internalType": "uint256",
          "name": "layerInd",
          "type": "uint256"
        },
        {
          "internalType": "enum Layers.LayerType",
          "name": "layerType",
          "type": "uint8"
        }
      ],
      "name": "appendWeights",
      "outputs": [],
      "stateMutability": "nonpayable",
      "type": "function"
    },
    {
      "inputs": [
        {
          "internalType": "uint256",
          "name": "",
          "type": "uint256"
        }
      ],
      "name": "classesName",
      "outputs": [
        {
          "internalType": "string",
          "name": "",
          "type": "string"
        }
      ],
      "stateMutability": "view",
      "type": "function"
    },
    {
      "inputs": [
        {
          "internalType": "uint256",
          "name": "_modelId",
          "type": "uint256"
        },
        {
          "internalType": "uint256",
          "name": "fromLayerIndex",
          "type": "uint256"
        },
        {
          "internalType": "uint256",
          "name": "toLayerIndex",
          "type": "uint256"
        },
        {
          "internalType": "Float32x32[][][]",
          "name": "x1",
          "type": "int64[][][]"
        },
        {
          "internalType": "Float32x32[]",
          "name": "x2",
          "type": "int64[]"
        }
      ],
      "name": "classify",
      "outputs": [],
      "stateMutability": "payable",
      "type": "function"
    },
    {
      "inputs": [
        {
          "internalType": "Float32x32[][][]",
          "name": "x1",
          "type": "int64[][][]"
        },
        {
          "internalType": "Float32x32[]",
          "name": "x2",
          "type": "int64[]"
        },
        {
          "internalType": "uint256",
          "name": "fromLayerIndex",
          "type": "uint256"
        },
        {
          "internalType": "uint256",
          "name": "toLayerIndex",
          "type": "uint256"
        }
      ],
      "name": "forward",
      "outputs": [
        {
          "internalType": "Float32x32[][][]",
          "name": "",
          "type": "int64[][][]"
        },
        {
          "internalType": "Float32x32[]",
          "name": "",
          "type": "int64[]"
        }
      ],
      "stateMutability": "nonpayable",
      "type": "function"
    },
    {
      "inputs": [
        {
          "internalType": "uint256",
          "name": "_modelId",
          "type": "uint256"
        },
        {
          "internalType": "uint256",
          "name": "layerIdx",
          "type": "uint256"
        }
      ],
      "name": "getConv2DLayer",
      "outputs": [
        {
          "internalType": "uint256",
          "name": "n",
          "type": "uint256"
        },
        {
          "internalType": "uint256",
          "name": "m",
          "type": "uint256"
        },
        {
          "internalType": "uint256",
          "name": "p",
          "type": "uint256"
        },
        {
          "internalType": "uint256",
          "name": "q",
          "type": "uint256"
        },
        {
          "internalType": "Float32x32[][][][]",
          "name": "w",
          "type": "int64[][][][]"
        },
        {
          "internalType": "Float32x32[]",
          "name": "b",
          "type": "int64[]"
        }
      ],
      "stateMutability": "view",
      "type": "function"
    },
    {
      "inputs": [
        {
          "internalType": "uint256",
          "name": "_modelId",
          "type": "uint256"
        },
        {
          "internalType": "uint256",
          "name": "layerIdx",
          "type": "uint256"
        }
      ],
      "name": "getDenseLayer",
      "outputs": [
        {
          "internalType": "uint256",
          "name": "dim_in",
          "type": "uint256"
        },
        {
          "internalType": "uint256",
          "name": "dim_out",
          "type": "uint256"
        },
        {
          "internalType": "Float32x32[][]",
          "name": "w",
          "type": "int64[][]"
        },
        {
          "internalType": "Float32x32[]",
          "name": "b",
          "type": "int64[]"
        }
      ],
      "stateMutability": "view",
      "type": "function"
    },
    {
      "inputs": [],
      "name": "getInfo",
      "outputs": [
        {
          "internalType": "uint256[3]",
          "name": "",
          "type": "uint256[3]"
        },
        {
          "internalType": "string",
          "name": "",
          "type": "string"
        },
        {
          "internalType": "string[]",
          "name": "",
          "type": "string[]"
        },
        {
          "components": [
            {
              "internalType": "enum Layers.LayerType",
              "name": "layerType",
              "type": "uint8"
            },
            {
              "internalType": "uint256",
              "name": "layerIndex",
              "type": "uint256"
            }
          ],
          "internalType": "struct IOnchainModel.Info[]",
          "name": "",
          "type": "tuple[]"
        }
      ],
      "stateMutability": "view",
      "type": "function"
    },
    {
      "inputs": [],
      "name": "model",
      "outputs": [
        {
          "internalType": "string",
          "name": "modelName",
          "type": "string"
        },
        {
          "internalType": "uint256",
          "name": "requiredWeights",
          "type": "uint256"
        },
        {
          "internalType": "uint256",
          "name": "appendedWeights",
          "type": "uint256"
        }
      ],
      "stateMutability": "view",
      "type": "function"
    },
    {
      "inputs": [],
      "name": "modelId",
      "outputs": [
        {
          "internalType": "uint256",
          "name": "",
          "type": "uint256"
        }
      ],
      "stateMutability": "view",
      "type": "function"
    },
    {
      "inputs": [],
      "name": "modelRegistry",
      "outputs": [
        {
          "internalType": "contract IModelRegPublic",
          "name": "",
          "type": "address"
        }
      ],
      "stateMutability": "view",
      "type": "function"
    },
    {
      "inputs": [],
      "name": "owner",
      "outputs": [
        {
          "internalType": "address",
          "name": "",
          "type": "address"
        }
      ],
      "stateMutability": "view",
      "type": "function"
    },
    {
      "inputs": [],
      "name": "renounceOwnership",
      "outputs": [],
      "stateMutability": "nonpayable",
      "type": "function"
    },
    {
      "inputs": [
        {
          "internalType": "string[]",
          "name": "classesName",
          "type": "string[]"
        }
      ],
      "name": "setClassesName",
      "outputs": [],
      "stateMutability": "nonpayable",
      "type": "function"
    },
    {
      "inputs": [
        {
          "internalType": "uint256",
          "name": "_modelId",
          "type": "uint256"
        }
      ],
      "name": "setModelId",
      "outputs": [],
      "stateMutability": "nonpayable",
      "type": "function"
    },
    {
      "inputs": [
        {
          "internalType": "uint256",
          "name": "_modelId",
          "type": "uint256"
        },
        {
          "internalType": "bytes[]",
          "name": "layersConfig",
          "type": "bytes[]"
        }
      ],
      "name": "setOnchainModel",
      "outputs": [],
      "stateMutability": "nonpayable",
      "type": "function"
    },
    {
      "inputs": [
        {
          "internalType": "address",
          "name": "newOwner",
          "type": "address"
        }
      ],
      "name": "transferOwnership",
      "outputs": [],
      "stateMutability": "nonpayable",
      "type": "function"
    }
  ],
  "bytecode": "0x60806040523480156200001157600080fd5b506040516200868e3803806200868e8339810160408190526200003491620000fd565b6200003f336200007a565b60016200004d838262000274565b50600d80546001600160a01b0319166001600160a01b0392909216919091179055506001600f5562000340565b600080546001600160a01b038381166001600160a01b0319831681178455604051919092169283917f8be0079c531659141344cd1fd0a4f28419497f9722a3daafe3b4186f6b6457e09190a35050565b634e487b7160e01b600052604160045260246000fd5b80516001600160a01b0381168114620000f857600080fd5b919050565b600080604083850312156200011157600080fd5b82516001600160401b03808211156200012957600080fd5b818501915085601f8301126200013e57600080fd5b815181811115620001535762000153620000ca565b604051601f8201601f19908116603f011681019083821181831017156200017e576200017e620000ca565b816040528281526020935088848487010111156200019b57600080fd5b600091505b82821015620001bf5784820184015181830185015290830190620001a0565b6000848483010152809650505050620001da818601620000e0565b925050509250929050565b600181811c90821680620001fa57607f821691505b6020821081036200021b57634e487b7160e01b600052602260045260246000fd5b50919050565b601f8211156200026f57600081815260208120601f850160051c810160208610156200024a5750805b601f850160051c820191505b818110156200026b5782815560010162000256565b5050505b505050565b81516001600160401b03811115620002905762000290620000ca565b620002a881620002a18454620001e5565b8462000221565b602080601f831160018114620002e05760008415620002c75750858301515b600019600386901b1c1916600185901b1785556200026b565b600085815260208120601f198616915b828110156200031157888601518255948401946001909101908401620002f0565b5085821015620003305787850151600019600388901b60f8161c191681555b5050505050600190811b01905550565b61833e80620003506000396000f3fe6080604052600436106100f35760003560e01c80635a9b0b891161008a5780638da5cb5b116100595780638da5cb5b146102cd578063d22e8834146102eb578063f2fde38b1461030b578063fd8e5e301461032b57600080fd5b80635a9b0b89146102385780636fc9b1dc1461025d578063715018a61461028b57806385fd8d63146102a057600080fd5b80632ba36f78116100c65780632ba36f781461018a5780633c996538146101c257806343cdaad2146101f45780634d1c23c01461021857600080fd5b80630ad9d052146100f85780630e9814471461012557806317b4c4d81461013a57806318c26a181461015a575b600080fd5b34801561010457600080fd5b5061010d61034b565b60405161011c939291906172f5565b60405180910390f35b610138610133366004617366565b6103e9565b005b34801561014657600080fd5b5061013861015536600461745e565b6107a4565b34801561016657600080fd5b5061017a61017536600461756a565b610889565b60405161011c949392919061764e565b34801561019657600080fd5b50600d546101aa906001600160a01b031681565b6040516001600160a01b03909116815260200161011c565b3480156101ce57600080fd5b506101e26101dd36600461756a565b610ac8565b60405161011c9695949392919061774c565b34801561020057600080fd5b5061020a600e5481565b60405190815260200161011c565b34801561022457600080fd5b506101386102333660046177ef565b610e22565b34801561024457600080fd5b5061024d611003565b60405161011c9493929190617882565b34801561026957600080fd5b5061027d610278366004617a8d565b611270565b60405161011c929190617b18565b34801561029757600080fd5b50610138611ac9565b3480156102ac57600080fd5b506102c06102bb3660046177ef565b611add565b60405161011c9190617b3d565b3480156102d957600080fd5b506000546001600160a01b03166101aa565b3480156102f757600080fd5b50610138610306366004617b50565b611b89565b34801561031757600080fd5b50610138610326366004617bcc565b611de1565b34801561033757600080fd5b50610138610346366004617be9565b611e8d565b60018054819061035a90617c35565b80601f016020809104026020016040519081016040528092919081815260200182805461038690617c35565b80156103d35780601f106103a8576101008083540402835291602001916103d3565b820191906000526020600020905b8154815290600101906020018083116103b657829003601f168201915b5050505050908060020154908060030154905083565b600e54600003610425576040517f4510f92400000000000000000000000000000000000000000000000000000000815260040160405180910390fd5b600d60009054906101000a90046001600160a01b03166001600160a01b03166382a332406040518163ffffffff1660e01b8152600401602060405180830381865afa158015610478573d6000803e3d6000fd5b505050506040513d601f19601f8201168201806040525081019061049c9190617c69565b3410156104d5576040517f7d9f8acc00000000000000000000000000000000000000000000000000000000815260040160405180910390fd5b600d54604080517f9fbc871300000000000000000000000000000000000000000000000000000000815290516000926001600160a01b031691639fbc87139160048083019260209291908290030181865afa158015610538573d6000803e3d6000fd5b505050506040513d601f19601f8201168201806040525081019061055c9190617c82565b6001600160a01b03163460405160006040518083038185875af1925050503d80600081146105a6576040519150601f19603f3d011682016040523d82523d6000602084013e6105ab565b606091505b50509050806105e6576040517f90b8ec1800000000000000000000000000000000000000000000000000000000815260040160405180910390fd5b6005548610610601576005546105fe90600190617cb5565b95505b60008061064e6106118789617cc8565b8686808060200260200160405190810160405280939291908181526020018383602002808284376000920191909152508e92508d91506112709050565b600554919350915061066290600190617cb5565b880361075757600060015b82518110156106d9576106be83838151811061068b5761068b617cd5565b60200260200101518483815181106106a5576106a5617cd5565b602002602001015160070b61205890919063ffffffff16565b156106c7578091505b806106d181617ceb565b91505061066d565b50600e547fb2a15636062bb2fc64e5cd888be42bd2170f7381953c89088a24208bf5f619558260018001848154811061071457610714617cd5565b906000526020600020018586868151811061073157610731617cd5565b60200260200101516040516107499493929190617d05565b60405180910390a250610798565b600e547f6ea9413fc6b5413ea13a72b81ee1e572e32118c3ad82e0cb8e6fc7e3c711985a8a8a858560405161078f9493929190617db3565b60405180910390a25b50505050505050505050565b6000546001600160a01b031633148015906107c157506000600e54115b80156108545750600d54600e546040516331a9108f60e11b81526001600160a01b0390921691636352211e916107fd9160040190815260200190565b602060405180830381865afa15801561081a573d6000803e3d6000fd5b505050506040513d601f19601f8201168201806040525081019061083e9190617c82565b6001600160a01b0316336001600160a01b031614155b15610872576040516359dc379f60e01b815260040160405180910390fd5b8051610885906002906020840190616aca565b5050565b6000806060806000600160080186815481106108a7576108a7617cd5565b90600052602060002090600a02016040518060e0016040529081600082015481526020016001820160009054906101000a900460ff1660048111156108ee576108ee617808565b60048111156108ff576108ff617808565b8152602001600282015481526020016003820160405180606001604052908160008201805480602002602001604051908101604052809291908181526020016000905b828210156109d1576000848152602090819020830180546040805182850281018501909152818152928301828280156109bd57602002820191906000526020600020906000905b825461010083900a900460070b81526020600f83018190049384019360010360089093019290920291018084116109895790505b505050505081526020019060010190610942565b5050505081526020016001820154815260200160028201548152505081526020016006820160405180604001604052908160008201805480602002602001604051908101604052809291908181526020018280548015610a7357602002820191906000526020600020906000905b825461010083900a900460070b81526020600f8301819004938401936001036008909301929092029101808411610a3f5790505b50505091835250506001919091015460209182015290825260088301548282015260099092015460409182015260608301519182015190820151915160809093015151909a9199509197509095509350505050565b60008060008060608060006001600a018881548110610ae957610ae9617cd5565b90600052602060002090600f020160405180610120016040529081600082015481526020016001820160009054906101000a900460ff166004811115610b3157610b31617808565b6004811115610b4257610b42617808565b8152600282810154602083015260408051808201808352919093019291600385019182845b815481526020019060010190808311610b67575050509183525050600582015460209091019060ff166001811115610ba157610ba1617808565b6001811115610bb257610bb2617808565b8152602001600682016040518060a001604052908160008201805480602002602001604051908101604052809291908181526020016000905b82821015610d0857838290600052602060002001805480602002602001604051908101604052809291908181526020016000905b82821015610cf557838290600052602060002001805480602002602001604051908101604052809291908181526020016000905b82821015610ce257600084815260209081902083018054604080518285028101850190915281815292830182828015610cce57602002820191906000526020600020906000905b825461010083900a900460070b81526020600f8301819004938401936001036008909301929092029101808411610c9a5790505b505050505081526020019060010190610c53565b5050505081526020019060010190610c1f565b5050505081526020019060010190610beb565b5050505081526020016001820154815260200160028201548152602001600382015481526020016004820154815250508152602001600b820160405180604001604052908160008201805480602002602001604051908101604052809291908181526020018280548015610dbe57602002820191906000526020600020906000905b825461010083900a900460070b81526020600f8301819004938401936001036008909301929092029101808411610d8a5790505b505050918352505060019190910154602091820152908252600d83015482820152600e9092015460409182015260a0830151918201519082015160608301516080840151935160c09095015151929e919d509b509199509197509095509350505050565b600d546001600160a01b03163314610e66576040517f4099888a00000000000000000000000000000000000000000000000000000000815260040160405180910390fd5b6000600e541180610f045750600d546040517fa9def49d0000000000000000000000000000000000000000000000000000000081526004810183905230916001600160a01b03169063a9def49d90602401602060405180830381865afa158015610ed4573d6000803e3d6000fd5b505050506040513d601f19601f82011682018060405250810190610ef89190617c82565b6001600160a01b031614155b15610f3b576040517f4510f92400000000000000000000000000000000000000000000000000000000815260040160405180910390fd5b600e819055600354600454148015610f5557506000600e54115b1561100057600e54600d546040516331a9108f60e11b8152600481018390526001600160a01b0390911690636352211e90602401602060405180830381865afa158015610fa6573d6000803e3d6000fd5b505050506040513d601f19601f82011682018060405250810190610fca9190617c82565b6001600160a01b03167fb03c53b28e78a88e31607a27e1fa48234dce28d5d9d9ec7b295aeb02e674a1e160405160405180910390a35b50565b61100b616b1c565b6060806060600160050160008154811061102757611027617cd5565b60009182526020909120604080516060810191829052600160049094029092018301929160029160059190859060039082845b81548152602001906001019080831161105a575050505050935082805461108090617c35565b80601f01602080910402602001604051908101604052809291908181526020018280546110ac90617c35565b80156110f95780601f106110ce576101008083540402835291602001916110f9565b820191906000526020600020905b8154815290600101906020018083116110dc57829003601f168201915b5050505050925081805480602002602001604051908101604052809291908181526020016000905b828210156111cd57838290600052602060002001805461114090617c35565b80601f016020809104026020016040519081016040528092919081815260200182805461116c90617c35565b80156111b95780601f1061118e576101008083540402835291602001916111b9565b820191906000526020600020905b81548152906001019060200180831161119c57829003601f168201915b505050505081526020019060010190611121565b50505050915080805480602002602001604051908101604052809291908181526020016000905b8282101561125c5760008481526020902060408051808201909152600284029091018054829060ff16600881111561122e5761122e617808565b600881111561123f5761123f617808565b8152602001600182015481525050815260200190600101906111f4565b505050509050935093509350935090919293565b606080835b838111611ab85760006001600401828154811061129457611294617cd5565b60009182526020909120604080518082019091526002909202018054829060ff1660088111156112c6576112c6617808565b60088111156112d7576112d7617808565b81526001919091015460209091015290506003815160088111156112fd576112fd617808565b036113745761136d88600160060183602001518154811061132057611320617cd5565b60009182526020918290206040805160608101825260029093029091018054835260010154600781810b9484019490945268010000000000000000900490920b9181019190915290612069565b9750611a59565b60028151600881111561138957611389617808565b036113d1576113ca8860016007018360200151815481106113ac576113ac617cd5565b60009182526020918290206040805193840190520154815290612327565b9650611a59565b6001815160088111156113e6576113e6617808565b0361160e576113ca87600160080183602001518154811061140957611409617cd5565b90600052602060002090600a02016040518060e0016040529081600082015481526020016001820160009054906101000a900460ff16600481111561145057611450617808565b600481111561146157611461617808565b8152602001600282015481526020016003820160405180606001604052908160008201805480602002602001604051908101604052809291908181526020016000905b828210156115335760008481526020908190208301805460408051828502810185019091528181529283018282801561151f57602002820191906000526020600020906000905b825461010083900a900460070b81526020600f83018190049384019360010360089093019290920291018084116114eb5790505b5050505050815260200190600101906114a4565b50505050815260200160018201548152602001600282015481525050815260200160068201604051806040016040529081600082018054806020026020016040519081016040528092919081815260200182805480156115d557602002820191906000526020600020906000905b825461010083900a900460070b81526020600f83018190049384019360010360089093019290920291018084116115a15790505b5050505050815260200160018201548152505081526020016008820154815260200160098201548152505061234b90919063ffffffff16565b60048151600881111561162357611623617808565b036117105761136d88600160090183602001518154811061164657611646617cd5565b600091825260209182902060408051608081018252600690930290910180548352815180830190925291928301906001830160028282826020028201915b815481526020019060010190808311611684575050509183525050604080518082019182905260209092019190600384019060029082845b8154815260200190600101908083116116bc575050509183525050600582015460209091019060ff1660018111156116f6576116f6617808565b600181111561170757611707617808565b9052509061249e565b60058151600881111561172557611725617808565b03611a5957611a56886001600a0183602001518154811061174857611748617cd5565b90600052602060002090600f020160405180610120016040529081600082015481526020016001820160009054906101000a900460ff16600481111561179057611790617808565b60048111156117a1576117a1617808565b8152600282810154602083015260408051808201808352919093019291600385019182845b8154815260200190600101908083116117c6575050509183525050600582015460209091019060ff16600181111561180057611800617808565b600181111561181157611811617808565b8152602001600682016040518060a001604052908160008201805480602002602001604051908101604052809291908181526020016000905b8282101561196757838290600052602060002001805480602002602001604051908101604052809291908181526020016000905b8282101561195457838290600052602060002001805480602002602001604051908101604052809291908181526020016000905b828210156119415760008481526020908190208301805460408051828502810185019091528181529283018282801561192d57602002820191906000526020600020906000905b825461010083900a900460070b81526020600f83018190049384019360010360089093019290920291018084116118f95790505b5050505050815260200190600101906118b2565b505050508152602001906001019061187e565b505050508152602001906001019061184a565b5050505081526020016001820154815260200160028201548152602001600382015481526020016004820154815250508152602001600b820160405180604001604052908160008201805480602002602001604051908101604052809291908181526020018280548015611a1d57602002820191906000526020600020906000905b825461010083900a900460070b81526020600f83018190049384019360010360089093019290920291018084116119e95790505b505050505081526020016001820154815250508152602001600d8201548152602001600e820154815250506124dc90919063ffffffff16565b97505b600554611a6890600190617cb5565b8203611aa557604080518082019091526060815260006020820181815289519052888252611a9582612543565b518a96509450611ac09350505050565b5080611ab081617ceb565b915050611275565b508585915091505b94509492505050565b611ad16127b8565b611adb600061282c565b565b600c8181548110611aed57600080fd5b906000526020600020016000915090508054611b0890617c35565b80601f0160208091040260200160405190810160405280929190818152602001828054611b3490617c35565b8015611b815780601f10611b5657610100808354040283529160200191611b81565b820191906000526020600020905b815481529060010190602001808311611b6457829003601f168201915b505050505081565b6000546001600160a01b03163314801590611ba657506000600e54115b8015611c395750600d54600e546040516331a9108f60e11b81526001600160a01b0390921691636352211e91611be29160040190815260200190565b602060405180830381865afa158015611bff573d6000803e3d6000fd5b505050506040513d601f19601f82011682018060405250810190611c239190617c82565b6001600160a01b0316336001600160a01b031614155b15611c57576040516359dc379f60e01b815260040160405180910390fd5b60006001826008811115611c6d57611c6d617808565b03611caf57611ca88460016008018581548110611c8c57611c8c617cd5565b90600052602060002090600a020161289490919063ffffffff16565b9050611d01565b6005826008811115611cc357611cc3617808565b03611d0157611cfe846001600a018581548110611ce257611ce2617cd5565b90600052602060002090600f0201612aa790919063ffffffff16565b90505b8060016003016000828254611d169190617dd2565b9091555050600354600454148015611d2e5750600085115b15611dda57600d54600e546040516331a9108f60e11b8152600481019190915286916001600160a01b031690636352211e90602401602060405180830381865afa158015611d80573d6000803e3d6000fd5b505050506040513d601f19601f82011682018060405250810190611da49190617c82565b6001600160a01b03167fb03c53b28e78a88e31607a27e1fa48234dce28d5d9d9ec7b295aeb02e674a1e160405160405180910390a35b5050505050565b611de96127b8565b6001600160a01b038116611e84576040517f08c379a000000000000000000000000000000000000000000000000000000000815260206004820152602660248201527f4f776e61626c653a206e6577206f776e657220697320746865207a65726f206160448201527f646472657373000000000000000000000000000000000000000000000000000060648201526084015b60405180910390fd5b6110008161282c565b6000546001600160a01b03163314801590611eaa57506000600e54115b8015611f3d5750600d54600e546040516331a9108f60e11b81526001600160a01b0390921691636352211e91611ee69160040190815260200190565b602060405180830381865afa158015611f03573d6000803e3d6000fd5b505050506040513d601f19601f82011682018060405250810190611f279190617c82565b6001600160a01b0316336001600160a01b031614155b15611f5b576040516359dc379f60e01b815260040160405180910390fd5b60055415611fb757611f6f60066000616b3a565b611f7b60096000616b5b565b611f8760086000616b7c565b611f9360076000616b9a565b611f9f600b6000616bbb565b611fab600a6000616bdc565b611fb760056000616bfd565b6000600381905560048190556060905b82811015611dda576120446040518060400160405280868685818110611fef57611fef617cd5565b90506020028101906120019190617de5565b8080601f01602080910402602001604051908101604052809392919081815260200183838082843760009201919091525050509082525060200183905283612d5f565b91508061205081617ceb565b915050611fc7565b600781810b9083900b135b92915050565b8051606090600083818361207f5761207f617cd5565b602002602001015151905060008460008151811061209f5761209f617cd5565b60200260200101516000815181106120b9576120b9617cd5565b602002602001015151905060008367ffffffffffffffff8111156120df576120df6173f3565b60405190808252806020026020018201604052801561211257816020015b60608152602001906001900390816120fd5790505b50905060005b8481101561231c578367ffffffffffffffff811115612139576121396173f3565b60405190808252806020026020018201604052801561216c57816020015b60608152602001906001900390816121575790505b5082828151811061217f5761217f617cd5565b602002602001018190525060005b84811015612309578367ffffffffffffffff8111156121ae576121ae6173f3565b6040519080825280602002602001820160405280156121d7578160200160208202803683370190505b508383815181106121ea576121ea617cd5565b6020026020010151828151811061220357612203617cd5565b602002602001018190525060005b848110156122f65761228b6122818b602001518b868151811061223657612236617cd5565b6020026020010151858151811061224f5761224f617cd5565b6020026020010151848151811061226857612268617cd5565b602002602001015160070b61371490919063ffffffff16565b8b60400151613727565b84848151811061229d5761229d617cd5565b602002602001015183815181106122b6576122b6617cd5565b602002602001015182815181106122cf576122cf617cd5565b602002602001019060070b908160070b8152505080806122ee90617ceb565b915050612211565b508061230181617ceb565b91505061218d565b508061231481617ceb565b915050612118565b509695505050505050565b6060600061233483613733565b905061234381600001516137ce565b949350505050565b6040805180820182526060808252600060208301908152845190528382528481015160808601519381015191939091600114801561238d575060208101516001145b156124665760006123a1836020015161396a565b905060005b83602001518110156124255783518051829081106123c6576123c6617cd5565b60200260200101516000815181106123e0576123e0617cd5565b6020026020010151826000015182815181106123fe576123fe617cd5565b602002602001019060070b908160070b81525050808061241d90617ceb565b9150506123a6565b50600061243c8361243687856139c9565b90613ae9565b90506000612457896020015183613b0b90919063ffffffff16565b51965061206395505050505050565b6000612476826124368686613c12565b90506000612491886020015183613b0b90919063ffffffff16565b5198975050505050505050565b606060006124ab83613733565b905060006124d285604001518660200151876060015185613da6909392919063ffffffff16565b5195945050505050565b606060006124e983613733565b905060008460a00151905060008560c001519050600061252882612522858a606001518b6080015189613f14909392919063ffffffff16565b90614099565b905060006124918860200151836140d190919063ffffffff16565b604080518082019091526060815260006020820152602082015160008167ffffffffffffffff811115612578576125786173f3565b6040519080825280602002602001820160405280156125a1578160200160208202803683370190505b50905060005b8281101561261c576125ed6020866000015183815181106125ca576125ca617cd5565b602002602001015160070b670de0b6b3a76400006125e89190617e4a565b901d90565b8282815181106125ff576125ff617cd5565b60209081029190910101528061261481617ceb565b9150506125a7565b5060005b828110156126795761264a82828151811061263d5761263d617cd5565b60200260200101516141b8565b82828151811061265c5761265c617cd5565b60209081029190910101528061267181617ceb565b915050612620565b506000805b838110156126bd576126a98284838151811061269c5761269c617cd5565b6020026020010151614226565b9150806126b581617ceb565b91505061267e565b5060005b83811015612724576126f5828483815181106126df576126df617cd5565b602002602001015161423590919063ffffffff16565b83828151811061270757612707617cd5565b60209081029190910101528061271c81617ceb565b9150506126c1565b5060006127308461396a565b905060005b848110156127ae57670de0b6b3a7640000602061276886848151811061275d5761275d617cd5565b602002602001015190565b61277392911b617e90565b825180518390811061278757612787617cd5565b602002602001019060070b908160070b8152505080806127a690617ceb565b915050612735565b5095945050505050565b6000546001600160a01b03163314611adb576040517f08c379a000000000000000000000000000000000000000000000000000000000815260206004820181905260248201527f4f776e61626c653a2063616c6c6572206973206e6f7420746865206f776e65726044820152606401611e7b565b600080546001600160a01b038381167fffffffffffffffffffffffff0000000000000000000000000000000000000000831681178455604051919092169283917f8be0079c531659141344cd1fd0a4f28419497f9722a3daafe3b4186f6b6457e09190a35050565b60088201546009830154600091908282810361299857600586015460048701546000906128c2908390617ebe565b90505b8651831080156128d457508084105b1561297e57600388016128e78386617ed5565b815481106128f7576128f7617cd5565b9060005260206000200187848151811061291357612913617cd5565b60209081029190910181015182546001810184556000938452919092206004820401805460039092166008026101000a67ffffffffffffffff8181021990931692909316929092021790558361296881617ceb565b945050828061297690617ceb565b9350506128c5565b8084036129955761298e85617ceb565b9450600093505b50505b82600103612a575760078601545b8551821080156129b557508083105b15612a3e57866006016000018683815181106129d3576129d3617cd5565b60209081029190910181015182546001810184556000938452919092206004820401805460039092166008026101000a67ffffffffffffffff81810219909316929093169290920217905582612a2881617ceb565b9350508180612a3690617ceb565b9250506129a6565b808303612a5557612a4e84617ceb565b9350600092505b505b8451811015612a92576040517f15eb29ee00000000000000000000000000000000000000000000000000000000815260040160405180910390fd5b60088601929092556009850155905092915050565b600d820154600e8301546000919082828103612c505760088601546009870154600a880154600789015460009082908490612ae3908790617ebe565b612aed9190617ebe565b612af79190617ebe565b90505b885185108015612b0957508086105b15612c345760068a0182612b1d8587617ebe565b612b279190617ebe565b612b319088617ed5565b81548110612b4157612b41617cd5565b90600052602060002001848385612b589190617ebe565b612b629089617ed5565b612b6c9190617ee9565b81548110612b7c57612b7c617cd5565b90600052602060002001838388612b939190617ed5565b612b9d9190617ee9565b81548110612bad57612bad617cd5565b90600052602060002001898681518110612bc957612bc9617cd5565b60209081029190910181015182546001810184556000938452919092206004820401805460039092166008026101000a67ffffffffffffffff81810219909316929093169290920217905585612c1e81617ceb565b9650508480612c2c90617ceb565b955050612afa565b808603612c4b57612c4487617ceb565b9650600095505b505050505b82600103612d0f57600c8601545b855182108015612c6d57508083105b15612cf65786600b01600001868381518110612c8b57612c8b617cd5565b60209081029190910181015182546001810184556000938452919092206004820401805460039092166008026101000a67ffffffffffffffff81810219909316929093169290920217905582612ce081617ceb565b9350508180612cee90617ceb565b925050612c5e565b808303612d0d57612d0684617ceb565b9350600092505b505b8451811015612d4a576040517f15eb29ee00000000000000000000000000000000000000000000000000000000815260040160405180910390fd5b600d860192909255600e850155905092915050565b606060008360000151806020019051810190612d7b9190617f13565b905060ff8116612ee45760008460000151806020019051810190612d9f9190617f2e565b91505060ff811615612ddd576040517f4fa6915d00000000000000000000000000000000000000000000000000000000815260040160405180910390fd5b600080612de987614354565b6006805460018101825560009190915282517ff652222313e28459528d920b65115c16c04f3efc82aaedc97be59f3f377c0d3f600490920291820190815560208401519395509193508492612e62917ff652222313e28459528d920b65115c16c04f3efc82aaedc97be59f3f377c0d4001906003616c1e565b50506040805180820190915260008152600654600592506020820190612e8a90600190617cb5565b9052815460018181018455600093845260209093208251600290920201805492939092839160ff1990911690836008811115612ec857612ec8617808565b021790555060208201518160010155505080955050505061370c565b60001960ff8216016130ac576000806000612eff8787614449565b60098054600181810183556000929092528451600a9091027f6e1540171b6c0c960b71a7020d9f60077f6af931a8bbf590da0223dacf75c7af810191825560208601517f6e1540171b6c0c960b71a7020d9f60077f6af931a8bbf590da0223dacf75c7b09091018054969950949750929550879490939160ff1990911690836004811115612f8f57612f8f617808565b0217905550604082015160028201556060820151805180516003840191612fbb91839160200190616c58565b50602082810151600183015560409092015160029091015560808301518051805191926006850192612ff09284920190616cb1565b5060208201518160010155505060a0820151816008015560c08201518160090155505080600160020160008282546130289190617dd2565b90915550506040805180820190915260018082526009546005929160208301916130529190617cb5565b9052815460018181018455600093845260209093208251600290920201805492939092839160ff199091169083600881111561309057613090617808565b021790555060208201518160010155505081955050505061370c565b7ffffffffffffffffffffffffffffffffffffffffffffffffffffffffffffffffe60ff82160161319f576000806130e386866145a9565b6008805460018101825560009190915282517ff3f7a9fe364faab93b216da50a3214154f22a0a2b415b23a84c8169e8b636ee390910155604080518082019091529193509150600590806002815260085460209091019061314690600190617cb5565b9052815460018181018455600093845260209093208251600290920201805492939092839160ff199091169083600881111561318457613184617808565b0217905550602082015181600101555050809450505061370c565b7ffffffffffffffffffffffffffffffffffffffffffffffffffffffffffffffffd60ff8216016133235760006131d485614671565b60078054600181810183556000838152845160029093027fa66cc928b5edb82af9bd49922954155ab7b0942694bea4ce44661d9a8736c68881019390935560208501517fa66cc928b5edb82af9bd49922954155ab7b0942694bea4ce44661d9a8736c6899093018054604087015167ffffffffffffffff90811668010000000000000000027fffffffffffffffffffffffffffffffff000000000000000000000000000000009092169516949094179390931790925591549293509161329a9190617cb5565b6040805180820190915260038152602081018290526005805460018082018355600092909252825160029091027f036b6384b5eca791c62761152d0c79bb0604c104a5fb6f4eb0703f3154bb3db001805494955092939091839160ff19169083600881111561330b5761330b617808565b0217905550602082015181600101555050505061370c565b7ffffffffffffffffffffffffffffffffffffffffffffffffffffffffffffffffc60ff8216016134b45760008061335a86866146d6565b600a805460018101825560009190915282517fc65a7bb8d6351c1cf70c95a316cc6a92839c986682d98bc35f958f4883f9d2a86006909202918201908155602084015193955091935084926133d3917fc65a7bb8d6351c1cf70c95a316cc6a92839c986682d98bc35f958f4883f9d2a901906002616d6a565b5060408201516133e99060038301906002616d6a565b50606082015160058201805460ff19166001838181111561340c5761340c617808565b021790555050600a5491955085916000915061342a90600190617cb5565b6040805180820190915260048152602081018290526005805460018082018355600092909252825160029091027f036b6384b5eca791c62761152d0c79bb0604c104a5fb6f4eb0703f3154bb3db001805494955092939091839160ff19169083600881111561349b5761349b617808565b021790555060208201518160010155505050505061370c565b7ffffffffffffffffffffffffffffffffffffffffffffffffffffffffffffffffb60ff82160161370c5760008060006134ed8787614870565b600b8054600181810183556000929092528451600f9091027f0175b7a638427703f0dbe7bb9bbf987a2551717b34e79f33b5b1008d1fa01db9810191825560208601517f0175b7a638427703f0dbe7bb9bbf987a2551717b34e79f33b5b1008d1fa01dba9091018054969950949750929550879490939160ff199091169083600481111561357d5761357d617808565b0217905550604082015181600201556060820151816003019060026135a3929190616d6a565b50608082015160058201805460ff1916600183818111156135c6576135c6617808565b021790555060a08201518051805160068401916135e891839160200190616d97565b506020828101516001830155604083015160028301556060830151600383015560809092015160049091015560c0830151805180519192600b8501926136319284920190616cb1565b5060208201518160010155505060e082015181600d015561010082015181600e01555050806001600201600082825461366a9190617dd2565b9091555050600b54919550859160009061368690600190617cb5565b60408051808201909152600580825260208201839052805460018082018355600092909252825160029091027f036b6384b5eca791c62761152d0c79bb0604c104a5fb6f4eb0703f3154bb3db001805494955092939091839160ff1916908360088111156136f6576136f6617808565b0217905550602082015181600101555050505050505b509092915050565b60006137208383614aca565b9392505050565b60006137208383614b13565b61375e6040518060800160405280606081526020016000815260200160008152602001600081525090565b815160208201528151829060009061377857613778617cd5565b6020026020010151518160400181815250508160008151811061379d5761379d617cd5565b60200260200101516000815181106137b7576137b7617cd5565b602090810291909101015151606082015290815290565b805160609060008381836137e4576137e4617cd5565b602002602001015151905060008460008151811061380457613804617cd5565b602002602001015160008151811061381e5761381e617cd5565b602002602001015151905060008183856138389190617ebe565b6138429190617ebe565b67ffffffffffffffff81111561385a5761385a6173f3565b604051908082528060200260200182016040528015613883578160200160208202803683370190505b5090506000805b8581101561395e5760005b8581101561394b5760005b85811015613938578983815181106138ba576138ba617cd5565b602002602001015182815181106138d3576138d3617cd5565b602002602001015181815181106138ec576138ec617cd5565b602002602001015185858151811061390657613906617cd5565b60079290920b60209283029190910190910152613924600185617dd2565b93508061393081617ceb565b9150506138a0565b508061394381617ceb565b915050613895565b508061395681617ceb565b91505061388a565b50909695505050505050565b6040805180820190915260608152602081018290528167ffffffffffffffff811115613998576139986173f3565b6040519080825280602002602001820160405280156139c1578160200160208202803683370190505b508152919050565b6040805180820190915260608152600060208201528160200151836020015114613a1f576040517f95c2ffed00000000000000000000000000000000000000000000000000000000815260040160405180910390fd5b6000613a2b600161396a565b905060005b8460200151811015613ae157613aa78260000151600081518110613a5657613a56617cd5565b6020026020010151613aa287600001518481518110613a7757613a77617cd5565b602002602001015187600001518581518110613a9557613a95617cd5565b6020026020010151613714565b613727565b82518051600090613aba57613aba617cd5565b602002602001019060070b908160070b815250508080613ad990617ceb565b915050613a30565b509392505050565b6040805180820190915260608152600060208201526137208383614b50614b5c565b6040805180820190915260608152600060208201526000826004811115613b3457613b34617808565b03613b4c57613b4583614c1d614c57565b9050612063565b6001826004811115613b6057613b60617808565b03613b7157613b45836141b5614c57565b6002826004811115613b8557613b85617808565b03613b9657613b4583614cf1614c57565b6003826004811115613baa57613baa617808565b03613bbb57613b4583614d04614c57565b6004826004811115613bcf57613bcf617808565b03613be057613b4583614d89614c57565b6040517fa342a23e00000000000000000000000000000000000000000000000000000000815260040160405180910390fd5b6040805180820190915260608152600060208201526000613c36836040015161396a565b905060005b8360400151811015613d155760005b8460200151811015613d0257613cc783600001518381518110613c6f57613c6f617cd5565b6020026020010151613aa288600001518481518110613c9057613c90617cd5565b602002602001015188600001518581518110613cae57613cae617cd5565b60200260200101518681518110613a9557613a95617cd5565b8351805184908110613cdb57613cdb617cd5565b602002602001019060070b908160070b815250508080613cfa90617ceb565b915050613c4a565b5080613d0d81617ceb565b915050613c3b565b50604080516001808252818301909252600091816020015b6060815260200190600190039081613d2d579050509050816000015181600081518110613d5c57613d5c617cd5565b60200260200101819052507f179491a5c16eb1ad3858df42ccd7321ca6ffc7d003c0355ae0c5f9c2cc9c024781604051613d969190617f61565b60405180910390a1509392505050565b613dd16040518060800160405280606081526020016000815260200160008152602001600081525090565b600080613dfc6040518060400160405280896020015181526020018960400151815250878787614ddf565b8151602083015160608b0151939550919350600092613e1b9290615070565b905060005b8351811015613f085760005b6020850151811015613eff576000604051806040016040528086600060028110613e5857613e58617cd5565b602090810291909101518c518702038252878101518c820151860203910152905060005b8b60600151811015613ef557613e948c838d84615222565b8551805186908110613ea857613ea8617cd5565b60200260200101518481518110613ec157613ec1617cd5565b60200260200101518281518110613eda57613eda617cd5565b60079290920b60209283029190910190910152600101613e7c565b5050600101613e2c565b50600101613e20565b50979650505050505050565b613f3f6040518060800160405280606081526020016000815260200160008152602001600081525090565b60408051808201825260208087015182528683015181830152825180840184528882015181529288015190830152906000908190613f7f90848888614ddf565b8151602083015160808b0151939550919350600092613f9e9290615070565b905060005b835181101561408c5760005b6020850151811015614083576000604051806040016040528086600060028110613fdb57613fdb617cd5565b602090810291909101518d518702038252878101518d820151860203910152905060005b8b60800151811015614079576140188d8d848b8561531c565b855180518690811061402c5761402c617cd5565b6020026020010151848151811061404557614045617cd5565b6020026020010151828151811061405e5761405e617cd5565b60079290920b60209283029190910190910152600101613fff565b5050600101613faf565b50600101613fa3565b5098975050505050505050565b6140c46040518060800160405280606081526020016000815260200160008152602001600081525090565b6137208383614b50615460565b6140fc6040518060800160405280606081526020016000815260200160008152602001600081525090565b600082600481111561411057614110617808565b0361412157613b4583614c1d6155e0565b600182600481111561413557614135617808565b0361414657613b45836141b56155e0565b600282600481111561415a5761415a617808565b0361416b57613b4583614cf16155e0565b600382600481111561417f5761417f617808565b0361419057613b4583614d046155e0565b60048260048111156141a4576141a4617808565b03613be057613b4583614d896155e0565b90565b600081680736ea4425c11ac630811315614201576040517fca7ec0c500000000000000000000000000000000000000000000000000000000815260048101849052602401611e7b565b6714057b7ef767814f8102612343614221670de0b6b3a7640000835b0590565b615742565b60006137206141b58385617f74565b60008282600160ff1b82148061424e5750600160ff1b81145b15614285576040517f9fe2b45000000000000000000000000000000000000000000000000000000000815260040160405180910390fd5b60008060008412614296578361429b565b836000035b9150600083126142ab57826142b0565b826000035b905060006142c783670de0b6b3a76400008461581c565b90507f7fffffffffffffffffffffffffffffffffffffffffffffffffffffffffffffff81111561432d576040517fd49c26b30000000000000000000000000000000000000000000000000000000081526004810189905260248101889052604401611e7b565b6000198585181361434781614343578260000390565b8290565b9998505050505050505050565b61435c616df0565b6060614366616b1c565b836000015180602001905181019061437e9190617f9c565b604080518082019091526020808901518252810182905295509250600391506143a49050565b6040519080825280602002602001820160405280156143cd578160200160208202803683370190505b5091508060006020020151826000815181106143eb576143eb617cd5565b602090810291909101015280600160200201518260018151811061441157614411617cd5565b602090810291909101015280600260200201518260028151811061443757614437617cd5565b60200260200101818152505050915091565b614451616e0f565b606060008060008660000151806020019051810190614470919061803d565b92509250506144998660008151811061448b5761448b617cd5565b602002602001015182615909565b6040518060e00160405280886020015181526020018360ff1660048111156144c3576144c3617808565b60048111156144d4576144d4617808565b8152602001828152602001614503886000815181106144f5576144f5617cd5565b60200260200101518461597e565b8152602001614525836040805180820190915260608152602081019190915290565b815260006020820181905260409182015280516001808252818301909252919650816020016020820280368337019050509350808460008151811061456c5761456c617cd5565b60200260200101818152505061458785608001516020015190565b6145948660600151615a05565b61459e9190617dd2565b925050509250925092565b60408051602080820183526000909152815180820183528482015181528251600180825281850190945290926060928281019080368337019050509050826002815181106145f9576145f9617cd5565b60200260200101518360018151811061461457614614617cd5565b60200260200101518460008151811061462f5761462f617cd5565b60200260200101516146419190617ebe565b61464b9190617ebe565b8160008151811061465e5761465e617cd5565b6020026020010181815250509250929050565b604080516060810182526000808252602082018190529181019190915260008083600001518060200190518101906146a99190618079565b604080516060810182526020988901518152600793840b98810198909852910b9086015250929392505050565b6146de616e8a565b6060600080600086600001518060200190518101906146fd9190618133565b935093509350506040518060800160405280886020015181526020018481526020018381526020018260ff16600181111561473a5761473a617808565b600181111561474b5761474b617808565b90529450614757616ebd565b6147bf60405180604001604052808960008151811061477857614778617cd5565b602002602001015181526020018960018151811061479857614798617cd5565b602002602001015181525085858560ff1660018111156147ba576147ba617808565b614ddf565b506040805160038082526080820190925291925060208201606080368337505082518251929750918791506000906147f9576147f9617cd5565b602090810291909101015280600160200201518560018151811061481f5761481f617cd5565b6020026020010181815250508660028151811061483e5761483e617cd5565b60200260200101518560028151811061485957614859617cd5565b602002602001018181525050505050509250929050565b614878616edb565b6060600080600080600080896000015180602001905181019061489b9190618189565b95509550955095509550506040518061012001604052808b6020015181526020018660ff1660048111156148d1576148d1617808565b60048111156148e2576148e2617808565b81526020018581526020018381526020018260ff16600181111561490857614908617808565b600181111561491957614919617808565b8152602001614952856000602002015186600160200201518d60028151811061494457614944617cd5565b602002602001015189615a1b565b8152602001614974866040805180820190915260608152602081019190915290565b8152602001600081526020016000815250975061498f616ebd565b6149d060405180604001604052808c6000815181106149b0576149b0617cd5565b602002602001015181526020018c60018151811061479857614798617cd5565b506040805160038082526080820190925291925060208201606080368337505082518251929a50918a9150600090614a0a57614a0a617cd5565b6020908102919091010152806001602002015188600181518110614a3057614a30617cd5565b6020026020010181815250508488600281518110614a5057614a50617cd5565b60200260200101818152505084858b600281518110614a7157614a71617cd5565b602002602001015186600160028110614a8c57614a8c617cd5565b60200201518751614a9d9190617ebe565b614aa79190617ebe565b614ab19190617ebe565b614abb9190617dd2565b96505050505050509250925092565b60008060208360070b8560070b02600f0b901d9050677fffffffffffffff19600f0b81600f0b12158015614b0a5750677fffffffffffffff600f82900b13155b61372057600080fd5b6000600783810b9083900b01677fffffffffffffff19600f82900b12801590614b0a5750677fffffffffffffff600f82900b131561372057600080fd5b60006137208383613727565b6040805180820190915260608152600060208201526000614b80856020015161396a565b905060005b8160200151811015614c1457614bd986600001518281518110614baa57614baa617cd5565b602002602001015186600001518381518110614bc857614bc8617cd5565b60200260200101518663ffffffff16565b8251805183908110614bed57614bed617cd5565b602002602001019060070b908160070b815250508080614c0c90617ceb565b915050614b85565b50949350505050565b6000808260070b13614c5357614c4e640a00000000614c45600785900b640200000000613714565b60070b90615be5565b612063565b5090565b6040805180820190915260608152600060208201526000614c7b846020015161396a565b905060005b8160200151811015613ae157614cb685600001518281518110614ca557614ca5617cd5565b60200260200101518563ffffffff16565b8251805183908110614cca57614cca617cd5565b602002602001019060070b908160070b815250508080614ce990617ceb565b915050614c80565b6000808260070b13614c53576000612063565b60007fffffffffffffffffffffffffffffffffffffffffffffffffffffffeb000000008260070b1215614d5d57614d5a7fffffffffffffffffffffffffffffffffffffffffffffffffffffffffffffffeb615bf1565b91505b612063614d7d640100000000613aa2614d7586615c37565b60070b615c42565b64010000000090615be5565b6000640a000000008260070b1315614da857614da5600a615bf1565b91505b6000614dbc614d7564020000000085613714565b9050613720614dd082640100000000613727565b614c4583640100000000615c4d565b614de7616ebd565b614def616ebd565b60005b6002811015615066576001846001811115614e0f57614e0f617808565b03614f8b57848160028110614e2657614e26617cd5565b60200201516001868360028110614e3f57614e3f617cd5565b6020020151898460028110614e5657614e56617cd5565b6020020151614e659190617dd2565b614e6f9190617cb5565b614e799190617ed5565b838260028110614e8b57614e8b617cd5565b60200201526000858260028110614ea457614ea4617cd5565b6020020151888360028110614ebb57614ebb617cd5565b6020020151614eca9190617ee9565b15614f2b57614f26878360028110614ee457614ee4617cd5565b6020020151878460028110614efb57614efb617cd5565b60200201518a8560028110614f1257614f12617cd5565b6020020151614f219190617ee9565b615c59565b614f61565b614f61878360028110614f4057614f40617cd5565b6020020151878460028110614f5757614f57617cd5565b6020020151615c59565b9050614f6e600282617ed5565b838360028110614f8057614f80617cd5565b602002015250615056565b6000846001811115614f9f57614f9f617808565b0361502457848160028110614fb657614fb6617cd5565b6020020151868260028110614fcd57614fcd617cd5565b6020020151888360028110614fe457614fe4617cd5565b6020020151614ff39190617cb5565b614ffd9190617ed5565b615008906001617dd2565b83826002811061501a5761501a617cd5565b6020020152615056565b6040517f20a554a900000000000000000000000000000000000000000000000000000000815260040160405180910390fd5b61505f81617ceb565b9050614df2565b5094509492505050565b61509b6040518060800160405280606081526020016000815260200160008152602001600081525090565b6020810184905260408101839052606081018290528367ffffffffffffffff8111156150c9576150c96173f3565b6040519080825280602002602001820160405280156150fc57816020015b60608152602001906001900390816150e75790505b50815260005b84811015613ae1578367ffffffffffffffff811115615123576151236173f3565b60405190808252806020026020018201604052801561515657816020015b60608152602001906001900390816151415790505b50825180518390811061516b5761516b617cd5565b602002602001018190525060005b8481101561520f578367ffffffffffffffff81111561519a5761519a6173f3565b6040519080825280602002602001820160405280156151c3578160200160208202803683370190505b5083518051849081106151d8576151d8617cd5565b602002602001015182815181106151f1576151f1617cd5565b6020026020010181905250808061520790617ceb565b915050615179565b508061521a81617ceb565b915050615102565b60008061524e7fffffffffffffffffffffffffffffffffffffffffffffffffffffffffc4653600615bf1565b905060005b84518110156127ae5760005b6020860151811015615313578651602080890151908a015191840191908301906000908310801561528e575060015b801561529d57508a6040015182105b6152a85760006152f7565b8a518051849081106152bc576152bc617cd5565b602002602001015182815181106152d5576152d5617cd5565b602002602001015188815181106152ee576152ee617cd5565b60200260200101515b90506153038682615c73565b955050505080600101905061525f565b50600101615253565b600080805b84518110156154535760005b602086015181101561544a578651602080890151908b0151918401919083019082108015615359575060015b801561536857508a6040015181105b156154405760005b8b6060015181101561543e5761543486613aa28e60000151868151811061539957615399617cd5565b602002602001015185815181106153b2576153b2617cd5565b602002602001015184815181106153cb576153cb617cd5565b60200260200101518e6000015189815181106153e9576153e9617cd5565b6020026020010151888151811061540257615402617cd5565b6020026020010151858151811061541b5761541b617cd5565b60200260200101518c81518110613a9557613a95617cd5565b9550600101615370565b505b505060010161532d565b50600101615321565b5090505b95945050505050565b61548b6040518060800160405280606081526020016000815260200160008152602001600081525090565b60006154a4856020015186604001518760600151615070565b905060005b8160200151811015614c145760005b82604001518110156155cd5760005b83606001518110156155ba5761554d886000015184815181106154ec576154ec617cd5565b6020026020010151838151811061550557615505617cd5565b6020026020010151828151811061551e5761551e617cd5565b60200260200101518860000151838151811061553c5761553c617cd5565b60200260200101518863ffffffff16565b845180518590811061556157615561617cd5565b6020026020010151838151811061557a5761557a617cd5565b6020026020010151828151811061559357615593617cd5565b602002602001019060070b908160070b8152505080806155b290617ceb565b9150506154c7565b50806155c581617ceb565b9150506154b8565b50806155d881617ceb565b9150506154a9565b61560b6040518060800160405280606081526020016000815260200160008152602001600081525090565b6000615624846020015185604001518660600151615070565b905060005b8160200151811015613ae15760005b826040015181101561572f5760005b836060015181101561571c576156af8760000151848151811061566c5761566c617cd5565b6020026020010151838151811061568557615685617cd5565b6020026020010151828151811061569e5761569e617cd5565b60200260200101518763ffffffff16565b84518051859081106156c3576156c3617cd5565b602002602001015183815181106156dc576156dc617cd5565b602002602001015182815181106156f5576156f5617cd5565b602002602001019060070b908160070b81525050808061571490617ceb565b915050615647565b508061572781617ceb565b915050615638565b508061573a81617ceb565b915050615629565b600081818112156157b5577ffffffffffffffffffffffffffffffffffffffffffffffffcc22e87f6eb468eeb81121561577e5750600092915050565b6157ae6157916141b56142218460000390565b6ec097ce7bc90715b34b9f10000000008161421d5761421d617e7a565b9150615816565b680a688906bd8affffff8113156157fb576040517f0360d02800000000000000000000000000000000000000000000000000000000815260048101849052602401611e7b565b670de0b6b3a7640000604082901b056123436141b582615c7b565b50919050565b60008080600019858709858702925082811083820303915050806000036158565783828161584c5761584c617e7a565b0492505050613720565b8381106158a0576040517f63a05778000000000000000000000000000000000000000000000000000000008152600481018790526024810186905260448101859052606401611e7b565b60008486880960026001871981018816978890046003810283188082028403028082028403028082028403028082028403028082028403029081029092039091026000889003889004909101858311909403939093029303949094049190911702949350505050565b60405160248101839052604481018290526108859060640160408051601f198184030181529190526020810180517bffffffffffffffffffffffffffffffffffffffffffffffffffffffff167ff666715a000000000000000000000000000000000000000000000000000000001790526163ef565b6159a260405180606001604052806060815260200160008152602001600081525090565b60208101839052604081018290528267ffffffffffffffff8111156159c9576159c96173f3565b6040519080825280602002602001820160405280156159fc57816020015b60608152602001906001900390816159e75790505b50815292915050565b6000816040015182602001516120639190617ebe565b615a4d6040518060a0016040528060608152602001600081526020016000815260200160008152602001600081525090565b602081018590526040810184905260608101839052608081018290528467ffffffffffffffff811115615a8257615a826173f3565b604051908082528060200260200182016040528015615ab557816020015b6060815260200190600190039081615aa05790505b50815260005b85811015614c14578467ffffffffffffffff811115615adc57615adc6173f3565b604051908082528060200260200182016040528015615b0f57816020015b6060815260200190600190039081615afa5790505b508251805183908110615b2457615b24617cd5565b602002602001018190525060005b85811015615bd2578467ffffffffffffffff811115615b5357615b536173f3565b604051908082528060200260200182016040528015615b8657816020015b6060815260200190600190039081615b715790505b508351805184908110615b9b57615b9b617cd5565b60200260200101518281518110615bb457615bb4617cd5565b60200260200101819052508080615bca90617ceb565b915050615b32565b5080615bdd81617ceb565b915050615abb565b600061372083836163f8565b60007fffffffffffffffffffffffffffffffffffffffffffffffffffffffff800000008212158015615c275750637fffffff8213155b615c3057600080fd5b5060201b90565b60006120638261645a565b60006120638261647b565b600061372083836164c8565b6000818311615c69576000613720565b6137208284617cb5565b600081613720565b7780000000000000000000000000000000000000000000000067ff00000000000000821615615d9c57678000000000000000821615615cc35768016a09e667f3bcc9090260401c5b674000000000000000821615615ce2576801306fe0a31b7152df0260401c5b672000000000000000821615615d01576801172b83c7d517adce0260401c5b671000000000000000821615615d205768010b5586cf9890f62a0260401c5b670800000000000000821615615d3f576801059b0d31585743ae0260401c5b670400000000000000821615615d5e57680102c9a3e778060ee70260401c5b670200000000000000821615615d7d5768010163da9fb33356d80260401c5b670100000000000000821615615d9c57680100b1afa5abcbed610260401c5b66ff000000000000821615615e9b576680000000000000821615615dc95768010058c86da1c09ea20260401c5b6640000000000000821615615de7576801002c605e2e8cec500260401c5b6620000000000000821615615e0557680100162f3904051fa10260401c5b6610000000000000821615615e23576801000b175effdc76ba0260401c5b6608000000000000821615615e4157680100058ba01fb9f96d0260401c5b6604000000000000821615615e5f5768010002c5cc37da94920260401c5b6602000000000000821615615e7d576801000162e525ee05470260401c5b6601000000000000821615615e9b5768010000b17255775c040260401c5b65ff0000000000821615615f915765800000000000821615615ec6576801000058b91b5bc9ae0260401c5b65400000000000821615615ee357680100002c5c89d5ec6d0260401c5b65200000000000821615615f005768010000162e43f4f8310260401c5b65100000000000821615615f1d57680100000b1721bcfc9a0260401c5b65080000000000821615615f3a5768010000058b90cf1e6e0260401c5b65040000000000821615615f57576801000002c5c863b73f0260401c5b65020000000000821615615f7457680100000162e430e5a20260401c5b65010000000000821615615f91576801000000b1721835510260401c5b64ff0000000082161561607e57648000000000821615615fba57680100000058b90c0b490260401c5b644000000000821615615fd65768010000002c5c8601cc0260401c5b642000000000821615615ff2576801000000162e42fff00260401c5b64100000000082161561600e5768010000000b17217fbb0260401c5b64080000000082161561602a576801000000058b90bfce0260401c5b64040000000082161561604657680100000002c5c85fe30260401c5b6402000000008216156160625768010000000162e42ff10260401c5b64010000000082161561607e57680100000000b17217f80260401c5b63ff0000008216156161625763800000008216156160a55768010000000058b90bfc0260401c5b63400000008216156160c0576801000000002c5c85fe0260401c5b63200000008216156160db57680100000000162e42ff0260401c5b63100000008216156160f6576801000000000b17217f0260401c5b630800000082161561611157680100000000058b90c00260401c5b630400000082161561612c5768010000000002c5c8600260401c5b6302000000821615616147576801000000000162e4300260401c5b63010000008216156161625768010000000000b172180260401c5b62ff000082161561623d5762800000821615616187576801000000000058b90c0260401c5b624000008216156161a157680100000000002c5c860260401c5b622000008216156161bb5768010000000000162e430260401c5b621000008216156161d557680100000000000b17210260401c5b620800008216156161ef5768010000000000058b910260401c5b62040000821615616209576801000000000002c5c80260401c5b6202000082161561622357680100000000000162e40260401c5b6201000082161561623d576801000000000000b1720260401c5b61ff0082161561630f5761800082161561626057680100000000000058b90260401c5b6140008216156162795768010000000000002c5d0260401c5b612000821615616292576801000000000000162e0260401c5b6110008216156162ab5768010000000000000b170260401c5b6108008216156162c4576801000000000000058c0260401c5b6104008216156162dd57680100000000000002c60260401c5b6102008216156162f657680100000000000001630260401c5b61010082161561630f57680100000000000000b10260401c5b60ff8216156163d857608082161561633057680100000000000000590260401c5b6040821615616348576801000000000000002c0260401c5b602082161561636057680100000000000000160260401c5b6010821615616378576801000000000000000b0260401c5b600882161561639057680100000000000000060260401c5b60048216156163a857680100000000000000030260401c5b60028216156163c057680100000000000000010260401c5b60018216156163d857680100000000000000010260401c5b670de0b6b3a76400000260409190911c60bf031c90565b61100081616505565b60008160070b60000361640a57600080fd5b6000600783900b602085901b600b0b8161642657616426617e7a565b059050677fffffffffffffff19600f82900b12801590614b0a5750677fffffffffffffff600f82900b131561372057600080fd5b6000678000000000000000600783900b0161647457600080fd5b5060000390565b60006420000000008260070b1261649157600080fd5b641fffffffff198260070b12156164aa57506000919050565b61206360408360070b680171547652b82fe17702600f0b901d616526565b6000600782810b9084900b03677fffffffffffffff19600f82900b12801590614b0a5750677fffffffffffffff600f82900b131561372057600080fd5b60006a636f6e736f6c652e6c6f679050600080835160208501845afa505050565b60006420000000008260070b1261653c57600080fd5b641fffffffff198260070b121561655557506000919050565b67800000000000000060006380000000841660070b13156165895768016a09e667f3bcc9080260401c67ffffffffffffffff165b60008363400000001660070b13156165b4576801306fe0a31b7152de0260401c67ffffffffffffffff165b60008363200000001660070b13156165df576801172b83c7d517adcd0260401c67ffffffffffffffff165b60008363100000001660070b131561660a5768010b5586cf9890f6290260401c67ffffffffffffffff165b60008363080000001660070b1315616635576801059b0d31585743ae0260401c67ffffffffffffffff165b60008363040000001660070b131561666057680102c9a3e778060ee60260401c67ffffffffffffffff165b60008363020000001660070b131561668b5768010163da9fb33356d80260401c67ffffffffffffffff165b60008363010000001660070b13156166b657680100b1afa5abcbed610260401c67ffffffffffffffff165b600083628000001660070b13156166e05768010058c86da1c09ea10260401c67ffffffffffffffff165b600083624000001660070b131561670a576801002c605e2e8cec500260401c67ffffffffffffffff165b600083622000001660070b131561673457680100162f3904051fa10260401c67ffffffffffffffff165b600083621000001660070b131561675e576801000b175effdc76ba0260401c67ffffffffffffffff165b600083620800001660070b131561678857680100058ba01fb9f96d0260401c67ffffffffffffffff165b600083620400001660070b13156167b25768010002c5cc37da94910260401c67ffffffffffffffff165b600083620200001660070b13156167dc576801000162e525ee05470260401c67ffffffffffffffff165b600083620100001660070b13156168065768010000b17255775c040260401c67ffffffffffffffff165b6000836180001660070b131561682f576801000058b91b5bc9ae0260401c67ffffffffffffffff165b6000836140001660070b131561685857680100002c5c89d5ec6c0260401c67ffffffffffffffff165b6000836120001660070b13156168815768010000162e43f4f8310260401c67ffffffffffffffff165b6000836110001660070b13156168aa57680100000b1721bcfc990260401c67ffffffffffffffff165b6000836108001660070b13156168d35768010000058b90cf1e6d0260401c67ffffffffffffffff165b6000836104001660070b13156168fc576801000002c5c863b73f0260401c67ffffffffffffffff165b6000836102001660070b131561692557680100000162e430e5a10260401c67ffffffffffffffff165b6000836101001660070b131561694e576801000000b1721835510260401c67ffffffffffffffff165b60008360801660070b131561697657680100000058b90c0b480260401c67ffffffffffffffff165b60008360401660070b131561699e5768010000002c5c8601cc0260401c67ffffffffffffffff165b60008360201660070b13156169c6576801000000162e42fff00260401c67ffffffffffffffff165b60008360101660070b13156169ee5768010000000b17217fba0260401c67ffffffffffffffff165b60008360081660070b1315616a16576801000000058b90bfcd0260401c67ffffffffffffffff165b60008360041660070b1315616a3e57680100000002c5c85fe30260401c67ffffffffffffffff165b60008360021660070b1315616a665768010000000162e42ff00260401c67ffffffffffffffff165b60008360011660070b1315616a8e57680100000000b17217f80260401c67ffffffffffffffff165b6fffffffffffffffffffffffffffffffff908116600784810b60201d601f03900b82161c90677fffffffffffffff908216111561206357600080fd5b828054828255906000526020600020908101928215616b10579160200282015b82811115616b105782518290616b009082618248565b5091602001919060010190616aea565b50614c53929150616f43565b60405180606001604052806003906020820280368337509192915050565b50805460008255600402906000526020600020908101906110009190616f60565b50805460008255600a02906000526020600020908101906110009190616f88565b50805460008255906000526020600020908101906110009190616ffb565b50805460008255600202906000526020600020908101906110009190617010565b50805460008255600f0290600052602060002090810190611000919061704f565b508054600082556006029060005260206000209081019061100091906170eb565b50805460008255600202906000526020600020908101906110009190617126565b8260038101928215616c4c579160200282015b82811115616c4c578251825591602001919060010190616c31565b50614c53929150616ffb565b828054828255906000526020600020908101928215616ca5579160200282015b82811115616ca55782518051616c95918491602090910190616cb1565b5091602001919060010190616c78565b50614c53929150617146565b82805482825590600052602060002090600301600490048101928215616c4c5791602002820160005b83821115616d2957835183826101000a81548167ffffffffffffffff021916908360070b67ffffffffffffffff1602179055509260200192600801602081600701049283019260010302616cda565b8015616d5d5782816101000a81549067ffffffffffffffff0219169055600801602081600701049283019260010302616d29565b5050614c53929150616ffb565b8260028101928215616c4c5791602002820182811115616c4c578251825591602001919060010190616c31565b828054828255906000526020600020908101928215616de4579160200282015b82811115616de45782518051616dd4918491602090910190617163565b5091602001919060010190616db7565b50614c539291506171bc565b604051806040016040528060008152602001616e0a616b1c565b905290565b6040805160e0810190915260008082526020820190815260200160008152602001616e5460405180606001604052806060815260200160008152602001600081525090565b8152602001616e76604051806040016040528060608152602001600081525090565b815260200160008152602001600081525090565b604051806080016040528060008152602001616ea4616ebd565b8152602001616eb1616ebd565b81526020016000905290565b60405180604001604052806002906020820280368337509192915050565b60408051610120810190915260008082526020820190815260200160008152602001616f05616ebd565b815260200160008152602001616e546040518060a0016040528060608152602001600081526020016000815260200160008152602001600081525090565b80821115614c53576000616f5782826171d9565b50600101616f43565b80821115614c5357600080825560018201819055600282018190556003820155600401616f60565b80821115614c5357600080825560018201805460ff19169055600282018190556003820181616fb78282617213565b5060006001820181905560029091018190556006830190616fd88282617231565b600182016000905550506008820160009055600982016000905550600a01616f88565b5b80821115614c535760008155600101616ffc565b5b80821115614c5357600081556001810180547fffffffffffffffffffffffffffffffff00000000000000000000000000000000169055600201617011565b80821115614c5357600080825560018201805460ff1916905560028201819055600382018190556004820181905560058201805460ff191690556006820160006170998282617256565b5060006001820181905560028201819055600382018190556004909101819055600b8301906170c88282617231565b60018201600090555050600d820160009055600e82016000905550600f0161704f565b80821115614c53576000808255600182018190556002820181905560038201819055600482015560058101805460ff191690556006016170eb565b5b80821115614c5357805460ff1916815560006001820155600201617127565b80821115614c5357600061715a8282617231565b50600101617146565b8280548282559060005260206000209081019282156171b0579160200282015b828111156171b057825180516171a0918491602090910190616c58565b5091602001919060010190617183565b50614c53929150617274565b80821115614c535760006171d08282617291565b506001016171bc565b5080546171e590617c35565b6000825580601f106171f5575050565b601f0160209004906000526020600020908101906110009190616ffb565b50805460008255906000526020600020908101906110009190617146565b5080546000825560030160049004906000526020600020908101906110009190616ffb565b508054600082559060005260206000209081019061100091906171bc565b80821115614c535760006172888282617213565b50600101617274565b50805460008255906000526020600020908101906110009190617274565b6000815180845260005b818110156172d5576020818501810151868301820152016172b9565b506000602082860101526020601f19601f83011685010191505092915050565b60608152600061730860608301866172af565b60208301949094525060400152919050565b60008083601f84011261732c57600080fd5b50813567ffffffffffffffff81111561734457600080fd5b6020830191508360208260051b850101111561735f57600080fd5b9250929050565b600080600080600080600060a0888a03121561738157600080fd5b873596506020880135955060408801359450606088013567ffffffffffffffff808211156173ae57600080fd5b6173ba8b838c0161731a565b909650945060808a01359150808211156173d357600080fd5b506173e08a828b0161731a565b989b979a50959850939692959293505050565b634e487b7160e01b600052604160045260246000fd5b604051601f8201601f1916810167ffffffffffffffff81118282101715617432576174326173f3565b604052919050565b600067ffffffffffffffff821115617454576174546173f3565b5060051b60200190565b6000602080838503121561747157600080fd5b823567ffffffffffffffff8082111561748957600080fd5b8185019150601f868184011261749e57600080fd5b82356174b16174ac8261743a565b617409565b81815260059190911b840185019085810190898311156174d057600080fd5b8686015b8381101561755c578035868111156174ec5760008081fd5b8701603f81018c136174fe5760008081fd5b88810135604088821115617514576175146173f3565b6175258b601f198a85011601617409565b8281528e8284860101111561753a5760008081fd5b828285018d83013760009281018c0192909252508452509187019187016174d4565b509998505050505050505050565b6000806040838503121561757d57600080fd5b50508035926020909101359150565b600082825180855260208086019550808260051b8401018186016000805b8581101561760257868403601f19018a52825180518086529086019086860190845b818110156175ed57835160070b8352602083019389019392506001016175cc565b50509a86019a945050918401916001016175aa565b509198975050505050505050565b600081518084526020808501945080840160005b8381101561764357815160070b87529582019590820190600101617624565b509495945050505050565b84815283602082015260806040820152600061766d608083018561758c565b828103606084015261767f8185617610565b979650505050505050565b600081518084526020808501808196506005915083821b810183870160005b8681101561773e578383038a5281518051808552908701908785019080881b8601890160005b8281101561772857878203601f1901845284518051808452908c01908c84019060005b8181101561771357835160070b835260208301938f019392506001016176f2565b5050958c0195948c01949250506001016176cf565b509c89019c9550505091860191506001016176a9565b509098975050505050505050565b600060c082018883526020888185015287604085015286606085015260c0608085015281865180845260e08601915060e08160051b870101935082880160005b828110156177d8577fffffffffffffffffffffffffffffffffffffffffffffffffffffffffffffff208887030184526177c686835161768a565b9550928401929084019060010161778c565b505050505082810360a08401526143478185617610565b60006020828403121561780157600080fd5b5035919050565b634e487b7160e01b600052602160045260246000fd5b60008151808452602080850194508084016000805b8481101561787657825180516009811061785b57634e487b7160e01b84526021600452602484fd5b89528401518489015260409097019691830191600101617833565b50959695505050505050565b60008186825b60038110156178a7578151835260209283019290910190600101617888565b50505060c060608301526178be60c08301866172af565b828103608084015280855180835260208084019250808260051b85010181890160005b8481101561790f57601f198784030186526178fd8383516172af565b958401959250908301906001016178e1565b505086810360a0880152617923818961781e565b9b9a5050505050505050505050565b8060070b811461100057600080fd5b600082601f83011261795257600080fd5b813560206179626174ac8361743a565b82815260059290921b8401810191818101908684111561798157600080fd5b8286015b8481101561231c57803561799881617932565b8352918301918301617985565b60006179b36174ac8461743a565b8381529050602080820190600585901b8401868111156179d257600080fd5b845b81811015617a8257803567ffffffffffffffff808211156179f55760008081fd5b818801915089601f830112617a0a5760008081fd5b8135617a186174ac8261743a565b81815260059190911b8301860190868101908c831115617a385760008081fd5b8785015b83811015617a7057803585811115617a545760008081fd5b617a628f8b838a0101617941565b845250918801918801617a3c565b508852505050938301935082016179d4565b505050509392505050565b60008060008060808587031215617aa357600080fd5b843567ffffffffffffffff80821115617abb57600080fd5b818701915087601f830112617acf57600080fd5b617ade888335602085016179a5565b95506020870135915080821115617af457600080fd5b50617b0187828801617941565b949794965050505060408301359260600135919050565b604081526000617b2b604083018561768a565b82810360208401526154578185617610565b60208152600061372060208301846172af565b60008060008060808587031215617b6657600080fd5b84359350602085013567ffffffffffffffff811115617b8457600080fd5b617b9087828801617941565b93505060408501359150606085013560098110617bac57600080fd5b939692955090935050565b6001600160a01b038116811461100057600080fd5b600060208284031215617bde57600080fd5b813561372081617bb7565b600080600060408486031215617bfe57600080fd5b83359250602084013567ffffffffffffffff811115617c1c57600080fd5b617c288682870161731a565b9497909650939450505050565b600181811c90821680617c4957607f821691505b60208210810361581657634e487b7160e01b600052602260045260246000fd5b600060208284031215617c7b57600080fd5b5051919050565b600060208284031215617c9457600080fd5b815161372081617bb7565b634e487b7160e01b600052601160045260246000fd5b8181038181111561206357612063617c9f565b60006137203684846179a5565b634e487b7160e01b600052603260045260246000fd5b60006000198203617cfe57617cfe617c9f565b5060010190565b8481526000602060808184015260008654617d1f81617c35565b80608087015260a0600180841660008114617d415760018114617d5b57617d89565b60ff198516838a01528284151560051b8a01019550617d89565b8b6000528660002060005b85811015617d815781548b8201860152908301908801617d66565b8a0184019650505b50505050508381036040850152617da08187617610565b92505050615457606083018460070b9052565b84815283602082015260806040820152600061766d608083018561768a565b8082018082111561206357612063617c9f565b60008083357fffffffffffffffffffffffffffffffffffffffffffffffffffffffffffffffe1843603018112617e1a57600080fd5b83018035915067ffffffffffffffff821115617e3557600080fd5b60200191503681900382131561735f57600080fd5b80820260008212600160ff1b84141615617e6657617e66617c9f565b818105831482151761206357612063617c9f565b634e487b7160e01b600052601260045260246000fd5b600082617e9f57617e9f617e7a565b6000198314600160ff1b83141615617eb957617eb9617c9f565b500590565b808202811582820484141761206357612063617c9f565b600082617ee457617ee4617e7a565b500490565b600082617ef857617ef8617e7a565b500690565b805160ff81168114617f0e57600080fd5b919050565b600060208284031215617f2557600080fd5b61372082617efd565b60008060408385031215617f4157600080fd5b617f4a83617efd565b9150617f5860208401617efd565b90509250929050565b602081526000613720602083018461758c565b8082018281126000831280158216821582161715617f9457617f94617c9f565b505092915050565b600080600060a08486031215617fb157600080fd5b617fba84617efd565b92506020617fc9818601617efd565b925085605f860112617fda57600080fd5b6040516060810181811067ffffffffffffffff82111715617ffd57617ffd6173f3565b6040528060a087018881111561801257600080fd5b604088015b8181101561802e5780518352918401918401618017565b50505080925050509250925092565b60008060006060848603121561805257600080fd5b61805b84617efd565b925061806960208501617efd565b9150604084015190509250925092565b60008060006060848603121561808e57600080fd5b61809784617efd565b925060208401516180a781617932565b60408501519092506180b881617932565b809150509250925092565b600082601f8301126180d457600080fd5b6040516040810181811067ffffffffffffffff821117156180f7576180f76173f3565b806040525080604084018581111561810e57600080fd5b845b81811015618128578051835260209283019201618110565b509195945050505050565b60008060008060c0858703121561814957600080fd5b61815285617efd565b935061816186602087016180c3565b925061817086606087016180c3565b915061817e60a08601617efd565b905092959194509250565b60008060008060008061010087890312156181a357600080fd5b6181ac87617efd565b95506181ba60208801617efd565b9450604087015193506181d088606089016180c3565b92506181df8860a089016180c3565b91506181ed60e08801617efd565b90509295509295509295565b601f82111561824357600081815260208120601f850160051c810160208610156182205750805b601f850160051c820191505b8181101561823f5782815560010161822c565b5050505b505050565b815167ffffffffffffffff811115618262576182626173f3565b618276816182708454617c35565b846181f9565b602080601f8311600181146182ab57600084156182935750858301515b600019600386901b1c1916600185901b17855561823f565b600085815260208120601f198616915b828110156182da578886015182559484019460019091019084016182bb565b50858210156182f85787850151600019600388901b60f8161c191681555b5050505050600190811b0190555056fea2646970667358221220b8b0e24d12e864388833576673af9888c2a6740f3b36646502f265c773dae04864736f6c63430008130033",
  "linkReferences": {},
  "deployedLinkReferences": {}
}